{
  "contractName": "FoodiezRegistration",
  "abi": [
    {
      "inputs": [
        {
          "internalType": "contract FoodiezHelpersInterface",
          "name": "_helperAddress",
          "type": "address"
        },
        {
          "internalType": "contract FoodiezOrdersInterface",
          "name": "_orderAddress",
          "type": "address"
        }
      ],
      "stateMutability": "nonpayable",
      "type": "constructor"
    },
    {
      "inputs": [],
      "name": "_foodiezHelpers",
      "outputs": [
        {
          "internalType": "contract FoodiezHelpersInterface",
          "name": "",
          "type": "address"
        }
      ],
      "stateMutability": "view",
      "type": "function",
      "constant": true
    },
    {
      "inputs": [],
      "name": "_foodiezOrders",
      "outputs": [
        {
          "internalType": "contract FoodiezOrdersInterface",
          "name": "",
          "type": "address"
        }
      ],
      "stateMutability": "view",
      "type": "function",
      "constant": true
    },
    {
      "inputs": [],
      "name": "parentContractAddress",
      "outputs": [
        {
          "internalType": "address",
          "name": "",
          "type": "address"
        }
      ],
      "stateMutability": "view",
      "type": "function",
      "constant": true
    },
    {
      "inputs": [
        {
          "internalType": "address",
          "name": "_address",
          "type": "address"
        }
      ],
      "name": "setParentContract",
      "outputs": [
        {
          "internalType": "string",
          "name": "",
          "type": "string"
        }
      ],
      "stateMutability": "nonpayable",
      "type": "function"
    },
    {
      "inputs": [
        {
          "internalType": "address",
          "name": "_address",
          "type": "address"
        },
        {
          "internalType": "string",
          "name": "name",
          "type": "string"
        },
        {
          "internalType": "uint256",
          "name": "uType",
          "type": "uint256"
        }
      ],
      "name": "userRegistration",
      "outputs": [
        {
          "internalType": "bool",
          "name": "",
          "type": "bool"
        }
      ],
      "stateMutability": "nonpayable",
      "type": "function"
    },
    {
      "inputs": [
        {
          "internalType": "address",
          "name": "_address",
          "type": "address"
        }
      ],
      "name": "getUserInfo",
      "outputs": [
        {
          "internalType": "string",
          "name": "",
          "type": "string"
        },
        {
          "internalType": "address",
          "name": "",
          "type": "address"
        },
        {
          "internalType": "string",
          "name": "",
          "type": "string"
        },
        {
          "internalType": "uint256",
          "name": "",
          "type": "uint256"
        }
      ],
      "stateMutability": "view",
      "type": "function",
      "constant": true
    },
    {
      "inputs": [
        {
          "internalType": "address",
          "name": "_address",
          "type": "address"
        },
        {
          "internalType": "string",
          "name": "_name",
          "type": "string"
        },
        {
          "internalType": "string",
          "name": "_rId",
          "type": "string"
        }
      ],
      "name": "createRestaurant",
      "outputs": [
        {
          "internalType": "bool",
          "name": "",
          "type": "bool"
        }
      ],
      "stateMutability": "nonpayable",
      "type": "function"
    },
    {
      "inputs": [
        {
          "internalType": "address",
          "name": "_address",
          "type": "address"
        },
        {
          "internalType": "string",
          "name": "_itemName",
          "type": "string"
        },
        {
          "internalType": "uint256",
          "name": "_type",
          "type": "uint256"
        },
        {
          "internalType": "uint256",
          "name": "_price",
          "type": "uint256"
        }
      ],
      "name": "addMenuItems",
      "outputs": [
        {
          "internalType": "string",
          "name": "",
          "type": "string"
        },
        {
          "internalType": "string",
          "name": "",
          "type": "string"
        },
        {
          "internalType": "string",
          "name": "",
          "type": "string"
        }
      ],
      "stateMutability": "nonpayable",
      "type": "function"
    },
    {
      "inputs": [
        {
          "internalType": "address",
          "name": "_restaurantAddress",
          "type": "address"
        },
        {
          "internalType": "uint256",
          "name": "_itemNumber",
          "type": "uint256"
        }
      ],
      "name": "getRestaurantMenu",
      "outputs": [
        {
          "internalType": "string",
          "name": "",
          "type": "string"
        },
        {
          "internalType": "string",
          "name": "",
          "type": "string"
        },
        {
          "internalType": "uint256",
          "name": "",
          "type": "uint256"
        }
      ],
      "stateMutability": "view",
      "type": "function",
      "constant": true
    },
    {
      "inputs": [
        {
          "internalType": "address",
          "name": "_restaurantAddress",
          "type": "address"
        }
      ],
      "name": "getrestaurantInfo",
      "outputs": [
        {
          "internalType": "string",
          "name": "",
          "type": "string"
        },
        {
          "internalType": "address",
          "name": "",
          "type": "address"
        },
        {
          "internalType": "uint256",
          "name": "",
          "type": "uint256"
        },
        {
          "internalType": "uint256",
          "name": "",
          "type": "uint256"
        }
      ],
      "stateMutability": "view",
      "type": "function",
      "constant": true
    },
    {
      "inputs": [],
      "name": "getTotalRestaurants",
      "outputs": [
        {
          "internalType": "uint256",
          "name": "",
          "type": "uint256"
        },
        {
          "internalType": "address[]",
          "name": "restAddresses",
          "type": "address[]"
        }
      ],
      "stateMutability": "view",
      "type": "function",
      "constant": true
    },
    {
      "inputs": [
        {
          "internalType": "address",
          "name": "_userAddress",
          "type": "address"
        },
        {
          "internalType": "address",
          "name": "_address",
          "type": "address"
        },
        {
          "internalType": "uint256",
          "name": "_itemNum",
          "type": "uint256"
        }
      ],
      "name": "getOrderTotal",
      "outputs": [
        {
          "internalType": "string",
          "name": "",
          "type": "string"
        },
        {
          "internalType": "address",
          "name": "",
          "type": "address"
        },
        {
          "internalType": "string",
          "name": "",
          "type": "string"
        },
        {
          "internalType": "uint256",
          "name": "",
          "type": "uint256"
        }
      ],
      "stateMutability": "view",
      "type": "function",
      "constant": true
    },
    {
      "inputs": [
        {
          "internalType": "string",
          "name": "rId",
          "type": "string"
        },
        {
          "internalType": "address",
          "name": "userAddress",
          "type": "address"
        },
        {
          "internalType": "address",
          "name": "restaurantAddress",
          "type": "address"
        },
        {
          "internalType": "string",
          "name": "itemName",
          "type": "string"
        },
        {
          "internalType": "uint256",
          "name": "totalPrice",
          "type": "uint256"
        }
      ],
      "name": "createFoodOrder",
      "outputs": [
        {
          "internalType": "string",
          "name": "",
          "type": "string"
        },
        {
          "internalType": "string",
          "name": "",
          "type": "string"
        },
        {
          "internalType": "uint256",
          "name": "",
          "type": "uint256"
        },
        {
          "internalType": "string",
          "name": "",
          "type": "string"
        }
      ],
      "stateMutability": "payable",
      "type": "function",
      "payable": true
    },
    {
      "inputs": [
        {
          "internalType": "address",
          "name": "_restaurantAddress",
          "type": "address"
        },
        {
          "internalType": "uint256",
          "name": "_restaurantRating",
          "type": "uint256"
        }
      ],
      "name": "addRestaurantRating",
      "outputs": [],
      "stateMutability": "nonpayable",
      "type": "function"
    },
    {
      "inputs": [
        {
          "internalType": "address",
          "name": "_address",
          "type": "address"
        },
        {
          "internalType": "uint256",
          "name": "_deliveryRating",
          "type": "uint256"
        }
      ],
      "name": "addDriverRating",
      "outputs": [],
      "stateMutability": "nonpayable",
      "type": "function"
    },
    {
      "inputs": [
        {
          "internalType": "address",
          "name": "_address",
          "type": "address"
        }
      ],
      "name": "checkUserDelivery",
      "outputs": [
        {
          "internalType": "bool",
          "name": "",
          "type": "bool"
        }
      ],
      "stateMutability": "view",
      "type": "function",
      "constant": true
    },
    {
      "inputs": [
        {
          "internalType": "address",
          "name": "_restaurantAddress",
          "type": "address"
        },
        {
          "internalType": "uint256",
          "name": "_itemNumber",
          "type": "uint256"
        }
      ],
      "name": "getItemInfo",
      "outputs": [
        {
          "internalType": "string",
          "name": "",
          "type": "string"
        },
        {
          "internalType": "uint256",
          "name": "",
          "type": "uint256"
        }
      ],
      "stateMutability": "view",
      "type": "function",
      "constant": true
    },
    {
      "inputs": [],
      "name": "getOrderCount",
      "outputs": [
        {
          "internalType": "uint256",
          "name": "",
          "type": "uint256"
        }
      ],
      "stateMutability": "view",
      "type": "function",
      "constant": true
    },
    {
      "inputs": [],
      "name": "incrementOrderCount",
      "outputs": [],
      "stateMutability": "nonpayable",
      "type": "function"
    }
  ],
  "bytecode": "0x60806040526000600360146101000a81548160ff0219169083151502179055506000600b556002600c556002600d553480156200003b57600080fd5b50604051620060fe380380620060fe833981810160405281019062000061919062000284565b33600260006101000a81548173ffffffffffffffffffffffffffffffffffffffff021916908373ffffffffffffffffffffffffffffffffffffffff160217905550816000806101000a81548173ffffffffffffffffffffffffffffffffffffffff021916908373ffffffffffffffffffffffffffffffffffffffff16021790555080600160006101000a81548173ffffffffffffffffffffffffffffffffffffffff021916908373ffffffffffffffffffffffffffffffffffffffff160217905550600160009054906101000a900473ffffffffffffffffffffffffffffffffffffffff1673ffffffffffffffffffffffffffffffffffffffff1663e150a2e8306040518263ffffffff1660e01b81526004016200018091906200031b565b600060405180830381600087803b1580156200019b57600080fd5b505af1158015620001b0573d6000803e3d6000fd5b505050506040513d6000823e3d601f19601f82011682018060405250810190620001db9190620002c5565b505050620004d3565b6000620001fb620001f58462000361565b62000338565b9050828152602081018484840111156200021457600080fd5b62000221848285620003f3565b509392505050565b6000815190506200023a816200049f565b92915050565b6000815190506200025181620004b9565b92915050565b600082601f8301126200026957600080fd5b81516200027b848260208601620001e4565b91505092915050565b600080604083850312156200029857600080fd5b6000620002a88582860162000229565b9250506020620002bb8582860162000240565b9150509250929050565b600060208284031215620002d857600080fd5b600082015167ffffffffffffffff811115620002f357600080fd5b620003018482850162000257565b91505092915050565b620003158162000397565b82525050565b60006020820190506200033260008301846200030a565b92915050565b60006200034462000357565b905062000352828262000429565b919050565b6000604051905090565b600067ffffffffffffffff8211156200037f576200037e6200045f565b5b6200038a826200048e565b9050602081019050919050565b6000620003a482620003d3565b9050919050565b6000620003b88262000397565b9050919050565b6000620003cc8262000397565b9050919050565b600073ffffffffffffffffffffffffffffffffffffffff82169050919050565b60005b8381101562000413578082015181840152602081019050620003f6565b8381111562000423576000848401525b50505050565b62000434826200048e565b810181811067ffffffffffffffff821117156200045657620004556200045f565b5b80604052505050565b7f4e487b7100000000000000000000000000000000000000000000000000000000600052604160045260246000fd5b6000601f19601f8301169050919050565b620004aa81620003ab565b8114620004b657600080fd5b50565b620004c481620003bf565b8114620004d057600080fd5b50565b615c1b80620004e36000396000f3fe6080604052600436106101145760003560e01c80637aa3eaf0116100a0578063ae596d4e11610064578063ae596d4e146103ea578063d8c01ed114610415578063debd2ec414610455578063dfe7669d14610494578063f0645d7a146104bd57610114565b80637aa3eaf01461030f57806384a101cd146103265780638ab7ad77146103595780638d0a5fbb14610382578063aded6039146103ad57610114565b80635f9d8de6116100e75780635f9d8de6146101fe578063617aada91461023b5780636386c1c71461026657806370771504146102a6578063765ccb6b146102d257610114565b806309630923146101195780632cfff5d6146101565780632d9ee1d114610194578063331723eb146101bf575b600080fd5b34801561012557600080fd5b50610140600480360381019061013b9190614bba565b6104fd565b60405161014d9190615217565b60405180910390f35b34801561016257600080fd5b5061017d60048036038101906101789190614d1b565b61085d565b60405161018b92919061548a565b60405180910390f35b3480156101a057600080fd5b506101a9610d3b565b6040516101b6919061524d565b60405180910390f35b3480156101cb57600080fd5b506101e660048036038101906101e19190614d1b565b610d61565b6040516101f5939291906153eb565b60405180910390f35b34801561020a57600080fd5b5061022560048036038101906102209190614b42565b611317565b6040516102329190615217565b60405180910390f35b34801561024757600080fd5b5061025061155e565b60405161025d9190615232565b60405180910390f35b34801561027257600080fd5b5061028d60048036038101906102889190614b42565b611582565b60405161029d949392919061528a565b60405180910390f35b3480156102b257600080fd5b506102bb6118b9565b6040516102c99291906155b5565b60405180910390f35b3480156102de57600080fd5b506102f960048036038101906102f49190614b42565b6119e5565b6040516103069190615268565b60405180910390f35b34801561031b57600080fd5b50610324611ab9565b005b610340600480360381019061033b9190614d98565b611ad3565b6040516103509493929190615430565b60405180910390f35b34801561036557600080fd5b50610380600480360381019061037b9190614d1b565b611db3565b005b34801561038e57600080fd5b506103976124a5565b6040516103a4919061559a565b60405180910390f35b3480156103b957600080fd5b506103d460048036038101906103cf9190614c39565b6124af565b6040516103e19190615217565b60405180910390f35b3480156103f657600080fd5b506103ff61289c565b60405161040c91906151fc565b60405180910390f35b34801561042157600080fd5b5061043c60048036038101906104379190614b42565b6128c2565b60405161044c94939291906152dd565b60405180910390f35b34801561046157600080fd5b5061047c60048036038101906104779190614ca0565b612c9c565b60405161048b9392919061539f565b60405180910390f35b3480156104a057600080fd5b506104bb60048036038101906104b69190614d1b565b613225565b005b3480156104c957600080fd5b506104e460048036038101906104df9190614b6b565b61384f565b6040516104f4949392919061528a565b60405180910390f35b6000600360009054906101000a900473ffffffffffffffffffffffffffffffffffffffff1673ffffffffffffffffffffffffffffffffffffffff163373ffffffffffffffffffffffffffffffffffffffff161461058f576040517f08c379a00000000000000000000000000000000000000000000000000000000081526004016105869061553a565b60405180910390fd5b6000151561059c85613f5b565b1515146105de576040517f08c379a00000000000000000000000000000000000000000000000000000000081526004016105d59061555a565b60405180910390fd5b606060006040518060e001604052808773ffffffffffffffffffffffffffffffffffffffff168152602001868152602001858152602001600081526020016000815260200183815260200160011515815250905080600760008873ffffffffffffffffffffffffffffffffffffffff1673ffffffffffffffffffffffffffffffffffffffff16815260200190815260200160002060008201518160000160006101000a81548173ffffffffffffffffffffffffffffffffffffffff021916908373ffffffffffffffffffffffffffffffffffffffff16021790555060208201518160010190805190602001906106d59291906147d7565b5060408201518160020190805190602001906106f29291906147d7565b50606082015181600301556080820151816004015560a082015181600501908051906020019061072392919061485d565b5060c08201518160060160006101000a81548160ff0219169083151502179055509050506006869080600181540180825580915050600190039060005260206000200160009091909190916101000a81548173ffffffffffffffffffffffffffffffffffffffff021916908373ffffffffffffffffffffffffffffffffffffffff16021790555060006040518060a00160405280600081526020016000815260200160008152602001600081526020016000815250905080600860008973ffffffffffffffffffffffffffffffffffffffff1673ffffffffffffffffffffffffffffffffffffffff1681526020019081526020016000206000820151816000015560208201518160010155604082015181600201556060820151816003015560808201518160040155905050600193505050509392505050565b606060006001151561086e85613f5b565b1515146108b0576040517f08c379a00000000000000000000000000000000000000000000000000000000081526004016108a7906154da565b60405180910390fd5b6000600760008673ffffffffffffffffffffffffffffffffffffffff1673ffffffffffffffffffffffffffffffffffffffff1681526020019081526020016000206040518060e00160405290816000820160009054906101000a900473ffffffffffffffffffffffffffffffffffffffff1673ffffffffffffffffffffffffffffffffffffffff1673ffffffffffffffffffffffffffffffffffffffff16815260200160018201805461096290615861565b80601f016020809104026020016040519081016040528092919081815260200182805461098e90615861565b80156109db5780601f106109b0576101008083540402835291602001916109db565b820191906000526020600020905b8154815290600101906020018083116109be57829003601f168201915b505050505081526020016002820180546109f490615861565b80601f0160208091040260200160405190810160405280929190818152602001828054610a2090615861565b8015610a6d5780601f10610a4257610100808354040283529160200191610a6d565b820191906000526020600020905b815481529060010190602001808311610a5057829003601f168201915b50505050508152602001600382015481526020016004820154815260200160058201805480602002602001604051908101604052809291908181526020016000905b82821015610b5b578382906000526020600020018054610ace90615861565b80601f0160208091040260200160405190810160405280929190818152602001828054610afa90615861565b8015610b475780601f10610b1c57610100808354040283529160200191610b47565b820191906000526020600020905b815481529060010190602001808311610b2a57829003601f168201915b505050505081526020019060010190610aaf565b5050505081526020016006820160009054906101000a900460ff161515151581525050905060008160a00151905060006009828781518110610bc6577f4e487b7100000000000000000000000000000000000000000000000000000000600052603260045260246000fd5b6020026020010151604051610bdb91906151c1565b908152602001604051809103902060405180608001604052908160008201548152602001600182018054610c0e90615861565b80601f0160208091040260200160405190810160405280929190818152602001828054610c3a90615861565b8015610c875780601f10610c5c57610100808354040283529160200191610c87565b820191906000526020600020905b815481529060010190602001808311610c6a57829003601f168201915b505050505081526020016002820160009054906101000a900460ff166002811115610cdb577f4e487b7100000000000000000000000000000000000000000000000000000000600052602160045260246000fd5b6002811115610d13577f4e487b7100000000000000000000000000000000000000000000000000000000600052602160045260246000fd5b8152602001600382015481525050905080602001518160600151945094505050509250929050565b600160009054906101000a900473ffffffffffffffffffffffffffffffffffffffff1681565b6060806000600360009054906101000a900473ffffffffffffffffffffffffffffffffffffffff1673ffffffffffffffffffffffffffffffffffffffff163373ffffffffffffffffffffffffffffffffffffffff1614610df6576040517f08c379a0000000000000000000000000000000000000000000000000000000008152600401610ded9061553a565b60405180910390fd5b60011515610e0386613f5b565b151514610e45576040517f08c379a0000000000000000000000000000000000000000000000000000000008152600401610e3c906154da565b60405180910390fd5b6000600760008773ffffffffffffffffffffffffffffffffffffffff1673ffffffffffffffffffffffffffffffffffffffff1681526020019081526020016000206040518060e00160405290816000820160009054906101000a900473ffffffffffffffffffffffffffffffffffffffff1673ffffffffffffffffffffffffffffffffffffffff1673ffffffffffffffffffffffffffffffffffffffff168152602001600182018054610ef790615861565b80601f0160208091040260200160405190810160405280929190818152602001828054610f2390615861565b8015610f705780601f10610f4557610100808354040283529160200191610f70565b820191906000526020600020905b815481529060010190602001808311610f5357829003601f168201915b50505050508152602001600282018054610f8990615861565b80601f0160208091040260200160405190810160405280929190818152602001828054610fb590615861565b80156110025780601f10610fd757610100808354040283529160200191611002565b820191906000526020600020905b815481529060010190602001808311610fe557829003601f168201915b50505050508152602001600382015481526020016004820154815260200160058201805480602002602001604051908101604052809291908181526020016000905b828210156110f057838290600052602060002001805461106390615861565b80601f016020809104026020016040519081016040528092919081815260200182805461108f90615861565b80156110dc5780601f106110b1576101008083540402835291602001916110dc565b820191906000526020600020905b8154815290600101906020018083116110bf57829003601f168201915b505050505081526020019060010190611044565b5050505081526020016006820160009054906101000a900460ff161515151581525050905060008160a0015190506000600982888151811061115b577f4e487b7100000000000000000000000000000000000000000000000000000000600052603260045260246000fd5b602002602001015160405161117091906151c1565b9081526020016040518091039020604051806080016040529081600082015481526020016001820180546111a390615861565b80601f01602080910402602001604051908101604052809291908181526020018280546111cf90615861565b801561121c5780601f106111f15761010080835404028352916020019161121c565b820191906000526020600020905b8154815290600101906020018083116111ff57829003601f168201915b505050505081526020016002820160009054906101000a900460ff166002811115611270577f4e487b7100000000000000000000000000000000000000000000000000000000600052602160045260246000fd5b60028111156112a8577f4e487b7100000000000000000000000000000000000000000000000000000000600052602160045260246000fd5b815260200160038201548152505090508060200151611302826040015160028111156112fd577f4e487b7100000000000000000000000000000000000000000000000000000000600052602160045260246000fd5b614239565b82606001519550955095505050509250925092565b600080600460008473ffffffffffffffffffffffffffffffffffffffff1673ffffffffffffffffffffffffffffffffffffffff1681526020019081526020016000206040518060c001604052908160008201805461137490615861565b80601f01602080910402602001604051908101604052809291908181526020018280546113a090615861565b80156113ed5780601f106113c2576101008083540402835291602001916113ed565b820191906000526020600020905b8154815290600101906020018083116113d057829003601f168201915b505050505081526020016001820160009054906101000a900473ffffffffffffffffffffffffffffffffffffffff1673ffffffffffffffffffffffffffffffffffffffff1673ffffffffffffffffffffffffffffffffffffffff1681526020016001820160149054906101000a900460ff166001811115611497577f4e487b7100000000000000000000000000000000000000000000000000000000600052602160045260246000fd5b60018111156114cf577f4e487b7100000000000000000000000000000000000000000000000000000000600052602160045260246000fd5b815260200160028201548152602001600382015481526020016004820160009054906101000a900460ff1615151515815250509050600181604001516001811115611543577f4e487b7100000000000000000000000000000000000000000000000000000000600052602160045260246000fd5b1415611553576001915050611559565b60009150505b919050565b60008054906101000a900473ffffffffffffffffffffffffffffffffffffffff1681565b6060600060606000600360009054906101000a900473ffffffffffffffffffffffffffffffffffffffff1673ffffffffffffffffffffffffffffffffffffffff163373ffffffffffffffffffffffffffffffffffffffff161461161a576040517f08c379a00000000000000000000000000000000000000000000000000000000081526004016116119061553a565b60405180910390fd5b6001151561162786614513565b151514611669576040517f08c379a0000000000000000000000000000000000000000000000000000000008152600401611660906154ba565b60405180910390fd5b6000600460008773ffffffffffffffffffffffffffffffffffffffff1673ffffffffffffffffffffffffffffffffffffffff1681526020019081526020016000206040518060c00160405290816000820180546116c590615861565b80601f01602080910402602001604051908101604052809291908181526020018280546116f190615861565b801561173e5780601f106117135761010080835404028352916020019161173e565b820191906000526020600020905b81548152906001019060200180831161172157829003601f168201915b505050505081526020016001820160009054906101000a900473ffffffffffffffffffffffffffffffffffffffff1673ffffffffffffffffffffffffffffffffffffffff1673ffffffffffffffffffffffffffffffffffffffff1681526020016001820160149054906101000a900460ff1660018111156117e8577f4e487b7100000000000000000000000000000000000000000000000000000000600052602160045260246000fd5b6001811115611820577f4e487b7100000000000000000000000000000000000000000000000000000000600052602160045260246000fd5b815260200160028201548152602001600382015481526020016004820160009054906101000a900460ff1615151515815250509050806000015181602001516118a48360400151600181111561189f577f4e487b7100000000000000000000000000000000000000000000000000000000600052602160045260246000fd5b6145ee565b83606001519450945094509450509193509193565b60006060600360009054906101000a900473ffffffffffffffffffffffffffffffffffffffff1673ffffffffffffffffffffffffffffffffffffffff163373ffffffffffffffffffffffffffffffffffffffff161461194d576040517f08c379a00000000000000000000000000000000000000000000000000000000081526004016119449061553a565b60405180910390fd5b6006805490506006808054806020026020016040519081016040528092919081815260200182805480156119d657602002820191906000526020600020905b8160009054906101000a900473ffffffffffffffffffffffffffffffffffffffff1673ffffffffffffffffffffffffffffffffffffffff168152602001906001019080831161198c575b50505050509050915091509091565b606060001515600360149054906101000a900460ff16151514611a3d576040517f08c379a0000000000000000000000000000000000000000000000000000000008152600401611a349061551a565b60405180910390fd5b81600360006101000a81548173ffffffffffffffffffffffffffffffffffffffff021916908373ffffffffffffffffffffffffffffffffffffffff1602179055506001600360146101000a81548160ff0219169083151502179055506040518060600160405280602b8152602001615bbb602b91399050919050565b600b6000815480929190611acc906158c4565b9190505550565b606080600060606000600460003373ffffffffffffffffffffffffffffffffffffffff1673ffffffffffffffffffffffffffffffffffffffff1681526020019081526020016000206040518060c0016040529081600082018054611b3690615861565b80601f0160208091040260200160405190810160405280929190818152602001828054611b6290615861565b8015611baf5780601f10611b8457610100808354040283529160200191611baf565b820191906000526020600020905b815481529060010190602001808311611b9257829003601f168201915b505050505081526020016001820160009054906101000a900473ffffffffffffffffffffffffffffffffffffffff1673ffffffffffffffffffffffffffffffffffffffff1673ffffffffffffffffffffffffffffffffffffffff1681526020016001820160149054906101000a900460ff166001811115611c59577f4e487b7100000000000000000000000000000000000000000000000000000000600052602160045260246000fd5b6001811115611c91577f4e487b7100000000000000000000000000000000000000000000000000000000600052602160045260246000fd5b815260200160028201548152602001600382015481526020016004820160009054906101000a900460ff1615151515815250509050600b6000815480929190611cd9906158c4565b9190505550600160009054906101000a900473ffffffffffffffffffffffffffffffffffffffff1673ffffffffffffffffffffffffffffffffffffffff16634500901e82600001518c8b8d8c8c6040518763ffffffff1660e01b8152600401611d4796959493929190615329565b600060405180830381600087803b158015611d6157600080fd5b505af1158015611d75573d6000803e3d6000fd5b505050506040513d6000823e3d601f19601f82011682018060405250810190611d9e9190614e3f565b94509450945094505095509550955095915050565b600360009054906101000a900473ffffffffffffffffffffffffffffffffffffffff1673ffffffffffffffffffffffffffffffffffffffff163373ffffffffffffffffffffffffffffffffffffffff1614611e43576040517f08c379a0000000000000000000000000000000000000000000000000000000008152600401611e3a9061553a565b60405180910390fd5b6000600860008473ffffffffffffffffffffffffffffffffffffffff1673ffffffffffffffffffffffffffffffffffffffff1681526020019081526020016000206040518060a00160405290816000820154815260200160018201548152602001600282015481526020016003820154815260200160048201548152505090506001821415611ee757806000018051809190611ede906158c4565b81525050611f77565b6002821415611f0b57806020018051809190611f02906158c4565b81525050611f76565b6003821415611f2f57806040018051809190611f26906158c4565b81525050611f75565b6004821415611f5357806060018051809190611f4a906158c4565b81525050611f74565b6005821415611f7357806080018051809190611f6e906158c4565b815250505b5b5b5b5b80600860008573ffffffffffffffffffffffffffffffffffffffff1673ffffffffffffffffffffffffffffffffffffffff16815260200190815260200160002060008201518160000155602082015181600101556040820151816002015560608201518160030155608082015181600401559050506000600760008573ffffffffffffffffffffffffffffffffffffffff1673ffffffffffffffffffffffffffffffffffffffff1681526020019081526020016000206040518060e00160405290816000820160009054906101000a900473ffffffffffffffffffffffffffffffffffffffff1673ffffffffffffffffffffffffffffffffffffffff1673ffffffffffffffffffffffffffffffffffffffff16815260200160018201805461209e90615861565b80601f01602080910402602001604051908101604052809291908181526020018280546120ca90615861565b80156121175780601f106120ec57610100808354040283529160200191612117565b820191906000526020600020905b8154815290600101906020018083116120fa57829003601f168201915b5050505050815260200160028201805461213090615861565b80601f016020809104026020016040519081016040528092919081815260200182805461215c90615861565b80156121a95780601f1061217e576101008083540402835291602001916121a9565b820191906000526020600020905b81548152906001019060200180831161218c57829003601f168201915b50505050508152602001600382015481526020016004820154815260200160058201805480602002602001604051908101604052809291908181526020016000905b8282101561229757838290600052602060002001805461220a90615861565b80601f016020809104026020016040519081016040528092919081815260200182805461223690615861565b80156122835780601f1061225857610100808354040283529160200191612283565b820191906000526020600020905b81548152906001019060200180831161226657829003601f168201915b5050505050815260200190600101906121eb565b5050505081526020016006820160009054906101000a900460ff161515151581525050905060008054906101000a900473ffffffffffffffffffffffffffffffffffffffff1673ffffffffffffffffffffffffffffffffffffffff166344a3878c836000015184602001518560400151866060015187608001516040518663ffffffff1660e01b815260040161233195949392919061560e565b60206040518083038186803b15801561234957600080fd5b505afa15801561235d573d6000803e3d6000fd5b505050506040513d601f19601f820116820180604052508101906123819190614eea565b81608001818152505080600760008673ffffffffffffffffffffffffffffffffffffffff1673ffffffffffffffffffffffffffffffffffffffff16815260200190815260200160002060008201518160000160006101000a81548173ffffffffffffffffffffffffffffffffffffffff021916908373ffffffffffffffffffffffffffffffffffffffff160217905550602082015181600101908051906020019061242d9291906147d7565b50604082015181600201908051906020019061244a9291906147d7565b50606082015181600301556080820151816004015560a082015181600501908051906020019061247b92919061485d565b5060c08201518160060160006101000a81548160ff02191690831515021790555090505050505050565b6000600b54905090565b6000600360009054906101000a900473ffffffffffffffffffffffffffffffffffffffff1673ffffffffffffffffffffffffffffffffffffffff163373ffffffffffffffffffffffffffffffffffffffff1614612541576040517f08c379a00000000000000000000000000000000000000000000000000000000081526004016125389061553a565b60405180910390fd5b6000151561254e85614513565b151514612590576040517f08c379a00000000000000000000000000000000000000000000000000000000081526004016125879061557a565b60405180910390fd5b60006040518060c001604052808581526020018673ffffffffffffffffffffffffffffffffffffffff1681526020018460018111156125f8577f4e487b7100000000000000000000000000000000000000000000000000000000600052602160045260246000fd5b6001811115612630577f4e487b7100000000000000000000000000000000000000000000000000000000600052602160045260246000fd5b8152602001600081526020016000815260200160011515815250905080600460008773ffffffffffffffffffffffffffffffffffffffff1673ffffffffffffffffffffffffffffffffffffffff16815260200190815260200160002060008201518160000190805190602001906126a89291906147d7565b5060208201518160010160006101000a81548173ffffffffffffffffffffffffffffffffffffffff021916908373ffffffffffffffffffffffffffffffffffffffff16021790555060408201518160010160146101000a81548160ff02191690836001811115612741577f4e487b7100000000000000000000000000000000000000000000000000000000600052602160045260246000fd5b0217905550606082015181600201556080820151816003015560a08201518160040160006101000a81548160ff0219169083151502179055509050506005859080600181540180825580915050600190039060005260206000200160009091909190916101000a81548173ffffffffffffffffffffffffffffffffffffffff021916908373ffffffffffffffffffffffffffffffffffffffff16021790555060018314156128905760006040518060a00160405280600081526020016000815260200160008152602001600081526020016000815250905080600a60008873ffffffffffffffffffffffffffffffffffffffff1673ffffffffffffffffffffffffffffffffffffffff1681526020019081526020016000206000820151816000015560208201518160010155604082015181600201556060820151816003015560808201518160040155905050505b60019150509392505050565b600360009054906101000a900473ffffffffffffffffffffffffffffffffffffffff1681565b60606000806000600360009054906101000a900473ffffffffffffffffffffffffffffffffffffffff1673ffffffffffffffffffffffffffffffffffffffff163373ffffffffffffffffffffffffffffffffffffffff1614612959576040517f08c379a00000000000000000000000000000000000000000000000000000000081526004016129509061553a565b60405180910390fd5b6001151561296686613f5b565b1515146129a8576040517f08c379a000000000000000000000000000000000000000000000000000000000815260040161299f906154da565b60405180910390fd5b6000600760008773ffffffffffffffffffffffffffffffffffffffff1673ffffffffffffffffffffffffffffffffffffffff1681526020019081526020016000206040518060e00160405290816000820160009054906101000a900473ffffffffffffffffffffffffffffffffffffffff1673ffffffffffffffffffffffffffffffffffffffff1673ffffffffffffffffffffffffffffffffffffffff168152602001600182018054612a5a90615861565b80601f0160208091040260200160405190810160405280929190818152602001828054612a8690615861565b8015612ad35780601f10612aa857610100808354040283529160200191612ad3565b820191906000526020600020905b815481529060010190602001808311612ab657829003601f168201915b50505050508152602001600282018054612aec90615861565b80601f0160208091040260200160405190810160405280929190818152602001828054612b1890615861565b8015612b655780601f10612b3a57610100808354040283529160200191612b65565b820191906000526020600020905b815481529060010190602001808311612b4857829003601f168201915b50505050508152602001600382015481526020016004820154815260200160058201805480602002602001604051908101604052809291908181526020016000905b82821015612c53578382906000526020600020018054612bc690615861565b80601f0160208091040260200160405190810160405280929190818152602001828054612bf290615861565b8015612c3f5780601f10612c1457610100808354040283529160200191612c3f565b820191906000526020600020905b815481529060010190602001808311612c2257829003601f168201915b505050505081526020019060010190612ba7565b5050505081526020016006820160009054906101000a900460ff161515151581525050905080604001518160000151826060015183608001519450945094509450509193509193565b6060806060600360009054906101000a900473ffffffffffffffffffffffffffffffffffffffff1673ffffffffffffffffffffffffffffffffffffffff163373ffffffffffffffffffffffffffffffffffffffff1614612d31576040517f08c379a0000000000000000000000000000000000000000000000000000000008152600401612d289061553a565b60405180910390fd5b60011515612d3e88613f5b565b151514612d80576040517f08c379a0000000000000000000000000000000000000000000000000000000008152600401612d77906154da565b60405180910390fd5b6000600760008973ffffffffffffffffffffffffffffffffffffffff1673ffffffffffffffffffffffffffffffffffffffff168152602001908152602001600020905060008060009054906101000a900473ffffffffffffffffffffffffffffffffffffffff1673ffffffffffffffffffffffffffffffffffffffff1663f76f950e83600301546040518263ffffffff1660e01b8152600401612e23919061559a565b60006040518083038186803b158015612e3b57600080fd5b505afa158015612e4f573d6000803e3d6000fd5b505050506040513d6000823e3d601f19601f82011682018060405250810190612e789190614d57565b905060008260020182604051602001612e929291906151d8565b604051602081830303815290604052905060006040518060800160405280856003015481526020018b81526020018a6002811115612ef9577f4e487b7100000000000000000000000000000000000000000000000000000000600052602160045260246000fd5b6002811115612f31577f4e487b7100000000000000000000000000000000000000000000000000000000600052602160045260246000fd5b815260200189815250905080600983604051612f4d91906151c1565b9081526020016040518091039020600082015181600001556020820151816001019080519060200190612f819291906147d7565b5060408201518160020160006101000a81548160ff02191690836002811115612fd3577f4e487b7100000000000000000000000000000000000000000000000000000000600052602160045260246000fd5b02179055506060820151816003015590505083600501829080600181540180825580915050600190039060005260206000200160009091909190915090805190602001906130229291906147d7565b50836003016000815480929190613038906158c4565b919050555083600760008d73ffffffffffffffffffffffffffffffffffffffff1673ffffffffffffffffffffffffffffffffffffffff1681526020019081526020016000206000820160009054906101000a900473ffffffffffffffffffffffffffffffffffffffff168160000160006101000a81548173ffffffffffffffffffffffffffffffffffffffff021916908373ffffffffffffffffffffffffffffffffffffffff16021790555060018201816001019080546130f890615861565b6131039291906148bd565b50600282018160020190805461311890615861565b6131239291906148bd565b506003820154816003015560048201548160040155600582018160050190805461314e92919061494a565b506006820160009054906101000a900460ff168160060160006101000a81548160ff02191690831515021790555090505083600201828b82805461319190615861565b80601f01602080910402602001604051908101604052809291908181526020018280546131bd90615861565b801561320a5780601f106131df5761010080835404028352916020019161320a565b820191906000526020600020905b8154815290600101906020018083116131ed57829003601f168201915b50505050509250965096509650505050509450945094915050565b600360009054906101000a900473ffffffffffffffffffffffffffffffffffffffff1673ffffffffffffffffffffffffffffffffffffffff163373ffffffffffffffffffffffffffffffffffffffff16146132b5576040517f08c379a00000000000000000000000000000000000000000000000000000000081526004016132ac9061553a565b60405180910390fd5b6000600a60008473ffffffffffffffffffffffffffffffffffffffff1673ffffffffffffffffffffffffffffffffffffffff1681526020019081526020016000206040518060a0016040529081600082015481526020016001820154815260200160028201548152602001600382015481526020016004820154815250509050600182141561335957806000018051809190613350906158c4565b815250506133e9565b600282141561337d57806020018051809190613374906158c4565b815250506133e8565b60038214156133a157806040018051809190613398906158c4565b815250506133e7565b60048214156133c5578060600180518091906133bc906158c4565b815250506133e6565b60058214156133e5578060800180518091906133e0906158c4565b815250505b5b5b5b5b80600a60008573ffffffffffffffffffffffffffffffffffffffff1673ffffffffffffffffffffffffffffffffffffffff16815260200190815260200160002060008201518160000155602082015181600101556040820151816002015560608201518160030155608082015181600401559050506000600460008573ffffffffffffffffffffffffffffffffffffffff1673ffffffffffffffffffffffffffffffffffffffff1681526020019081526020016000206040518060c00160405290816000820180546134ba90615861565b80601f01602080910402602001604051908101604052809291908181526020018280546134e690615861565b80156135335780601f1061350857610100808354040283529160200191613533565b820191906000526020600020905b81548152906001019060200180831161351657829003601f168201915b505050505081526020016001820160009054906101000a900473ffffffffffffffffffffffffffffffffffffffff1673ffffffffffffffffffffffffffffffffffffffff1673ffffffffffffffffffffffffffffffffffffffff1681526020016001820160149054906101000a900460ff1660018111156135dd577f4e487b7100000000000000000000000000000000000000000000000000000000600052602160045260246000fd5b6001811115613615577f4e487b7100000000000000000000000000000000000000000000000000000000600052602160045260246000fd5b815260200160028201548152602001600382015481526020016004820160009054906101000a900460ff161515151581525050905060008054906101000a900473ffffffffffffffffffffffffffffffffffffffff1673ffffffffffffffffffffffffffffffffffffffff166344a3878c836000015184602001518560400151866060015187608001516040518663ffffffff1660e01b81526004016136bf95949392919061560e565b60206040518083038186803b1580156136d757600080fd5b505afa1580156136eb573d6000803e3d6000fd5b505050506040513d601f19601f8201168201806040525081019061370f9190614eea565b81606001818152505080600460008673ffffffffffffffffffffffffffffffffffffffff1673ffffffffffffffffffffffffffffffffffffffff16815260200190815260200160002060008201518160000190805190602001906137749291906147d7565b5060208201518160010160006101000a81548173ffffffffffffffffffffffffffffffffffffffff021916908373ffffffffffffffffffffffffffffffffffffffff16021790555060408201518160010160146101000a81548160ff0219169083600181111561380d577f4e487b7100000000000000000000000000000000000000000000000000000000600052602160045260246000fd5b0217905550606082015181600201556080820151816003015560a08201518160040160006101000a81548160ff02191690831515021790555090505050505050565b6060600060606000600360009054906101000a900473ffffffffffffffffffffffffffffffffffffffff1673ffffffffffffffffffffffffffffffffffffffff163373ffffffffffffffffffffffffffffffffffffffff16146138e7576040517f08c379a00000000000000000000000000000000000000000000000000000000081526004016138de9061553a565b60405180910390fd5b600115156138f488614513565b151514613936576040517f08c379a000000000000000000000000000000000000000000000000000000000815260040161392d906154fa565b60405180910390fd5b600080600760008973ffffffffffffffffffffffffffffffffffffffff1673ffffffffffffffffffffffffffffffffffffffff1681526020019081526020016000206040518060e00160405290816000820160009054906101000a900473ffffffffffffffffffffffffffffffffffffffff1673ffffffffffffffffffffffffffffffffffffffff1673ffffffffffffffffffffffffffffffffffffffff1681526020016001820180546139e990615861565b80601f0160208091040260200160405190810160405280929190818152602001828054613a1590615861565b8015613a625780601f10613a3757610100808354040283529160200191613a62565b820191906000526020600020905b815481529060010190602001808311613a4557829003601f168201915b50505050508152602001600282018054613a7b90615861565b80601f0160208091040260200160405190810160405280929190818152602001828054613aa790615861565b8015613af45780601f10613ac957610100808354040283529160200191613af4565b820191906000526020600020905b815481529060010190602001808311613ad757829003601f168201915b50505050508152602001600382015481526020016004820154815260200160058201805480602002602001604051908101604052809291908181526020016000905b82821015613be2578382906000526020600020018054613b5590615861565b80601f0160208091040260200160405190810160405280929190818152602001828054613b8190615861565b8015613bce5780601f10613ba357610100808354040283529160200191613bce565b820191906000526020600020905b815481529060010190602001808311613bb157829003601f168201915b505050505081526020019060010190613b36565b5050505081526020016006820160009054906101000a900460ff161515151581525050905060008160a00151905060006009828a81518110613c4d577f4e487b7100000000000000000000000000000000000000000000000000000000600052603260045260246000fd5b6020026020010151604051613c6291906151c1565b908152602001604051809103902060405180608001604052908160008201548152602001600182018054613c9590615861565b80601f0160208091040260200160405190810160405280929190818152602001828054613cc190615861565b8015613d0e5780601f10613ce357610100808354040283529160200191613d0e565b820191906000526020600020905b815481529060010190602001808311613cf157829003601f168201915b505050505081526020016002820160009054906101000a900460ff166002811115613d62577f4e487b7100000000000000000000000000000000000000000000000000000000600052602160045260246000fd5b6002811115613d9a577f4e487b7100000000000000000000000000000000000000000000000000000000600052602160045260246000fd5b81526020016003820154815250509050806060015184613dba919061572c565b9350600084905060008054906101000a900473ffffffffffffffffffffffffffffffffffffffff1673ffffffffffffffffffffffffffffffffffffffff16636560951682600c546040518363ffffffff1660e01b8152600401613e1e9291906155e5565b60206040518083038186803b158015613e3657600080fd5b505afa158015613e4a573d6000803e3d6000fd5b505050506040513d601f19601f82011682018060405250810190613e6e9190614eea565b85613e79919061572c565b945060008054906101000a900473ffffffffffffffffffffffffffffffffffffffff1673ffffffffffffffffffffffffffffffffffffffff1663221c9cfe82600d546040518363ffffffff1660e01b8152600401613ed89291906155e5565b60206040518083038186803b158015613ef057600080fd5b505afa158015613f04573d6000803e3d6000fd5b505050506040513d601f19601f82011682018060405250810190613f289190614eea565b85613f33919061572c565b9450836040015184600001518360200151879850985098509850505050505093509350935093565b600080600760008473ffffffffffffffffffffffffffffffffffffffff1673ffffffffffffffffffffffffffffffffffffffff1681526020019081526020016000206040518060e00160405290816000820160009054906101000a900473ffffffffffffffffffffffffffffffffffffffff1673ffffffffffffffffffffffffffffffffffffffff1673ffffffffffffffffffffffffffffffffffffffff16815260200160018201805461400e90615861565b80601f016020809104026020016040519081016040528092919081815260200182805461403a90615861565b80156140875780601f1061405c57610100808354040283529160200191614087565b820191906000526020600020905b81548152906001019060200180831161406a57829003601f168201915b505050505081526020016002820180546140a090615861565b80601f01602080910402602001604051908101604052809291908181526020018280546140cc90615861565b80156141195780601f106140ee57610100808354040283529160200191614119565b820191906000526020600020905b8154815290600101906020018083116140fc57829003601f168201915b50505050508152602001600382015481526020016004820154815260200160058201805480602002602001604051908101604052809291908181526020016000905b8282101561420757838290600052602060002001805461417a90615861565b80601f01602080910402602001604051908101604052809291908181526020018280546141a690615861565b80156141f35780601f106141c8576101008083540402835291602001916141f3565b820191906000526020600020905b8154815290600101906020018083116141d657829003601f168201915b50505050508152602001906001019061415b565b5050505081526020016006820160009054906101000a900460ff16151515158152505090508060c00151915050919050565b60608160ff166002811115614277577f4e487b7100000000000000000000000000000000000000000000000000000000600052602160045260246000fd5b60028111156142af577f4e487b7100000000000000000000000000000000000000000000000000000000600052602160045260246000fd5b600060028111156142e9577f4e487b7100000000000000000000000000000000000000000000000000000000600052602160045260246000fd5b141561432c576040518060400160405280600981526020017f4170706574697a65720000000000000000000000000000000000000000000000815250905061450e565b8160ff166002811115614368577f4e487b7100000000000000000000000000000000000000000000000000000000600052602160045260246000fd5b60028111156143a0577f4e487b7100000000000000000000000000000000000000000000000000000000600052602160045260246000fd5b600160028111156143da577f4e487b7100000000000000000000000000000000000000000000000000000000600052602160045260246000fd5b141561441d576040518060400160405280600481526020017f4d61696e00000000000000000000000000000000000000000000000000000000815250905061450e565b8160ff166002811115614459577f4e487b7100000000000000000000000000000000000000000000000000000000600052602160045260246000fd5b6002811115614491577f4e487b7100000000000000000000000000000000000000000000000000000000600052602160045260246000fd5b6002808111156144ca577f4e487b7100000000000000000000000000000000000000000000000000000000600052602160045260246000fd5b141561450d576040518060400160405280600681526020017f4465736572740000000000000000000000000000000000000000000000000000815250905061450e565b5b919050565b600080600090505b6005805490508160ff1610156145e3578273ffffffffffffffffffffffffffffffffffffffff1660058260ff168154811061457f577f4e487b7100000000000000000000000000000000000000000000000000000000600052603260045260246000fd5b9060005260206000200160009054906101000a900473ffffffffffffffffffffffffffffffffffffffff1673ffffffffffffffffffffffffffffffffffffffff1614156145d05760019150506145e9565b80806145db9061590d565b91505061451b565b50600090505b919050565b60608160ff16600181111561462c577f4e487b7100000000000000000000000000000000000000000000000000000000600052602160045260246000fd5b6001811115614664577f4e487b7100000000000000000000000000000000000000000000000000000000600052602160045260246000fd5b6000600181111561469e577f4e487b7100000000000000000000000000000000000000000000000000000000600052602160045260246000fd5b14156146e1576040518060400160405280600881526020017f437573746f6d657200000000000000000000000000000000000000000000000081525090506147d2565b8160ff16600181111561471d577f4e487b7100000000000000000000000000000000000000000000000000000000600052602160045260246000fd5b6001811115614755577f4e487b7100000000000000000000000000000000000000000000000000000000600052602160045260246000fd5b60018081111561478e577f4e487b7100000000000000000000000000000000000000000000000000000000600052602160045260246000fd5b14156147d1576040518060400160405280600881526020017f44656c697665727900000000000000000000000000000000000000000000000081525090506147d2565b5b919050565b8280546147e390615861565b90600052602060002090601f016020900481019282614805576000855561484c565b82601f1061481e57805160ff191683800117855561484c565b8280016001018555821561484c579182015b8281111561484b578251825591602001919060010190614830565b5b50905061485991906149b2565b5090565b8280548282559060005260206000209081019282156148ac579160200282015b828111156148ab57825182908051906020019061489b9291906147d7565b509160200191906001019061487d565b5b5090506148b991906149cf565b5090565b8280546148c990615861565b90600052602060002090601f0160209004810192826148eb5760008555614939565b82601f106148fc5780548555614939565b8280016001018555821561493957600052602060002091601f016020900482015b8281111561493857825482559160010191906001019061491d565b5b50905061494691906149b2565b5090565b8280548282559060005260206000209081019282156149a15760005260206000209182015b828111156149a057828290805461498590615861565b6149909291906148bd565b509160010191906001019061496f565b5b5090506149ae91906149cf565b5090565b5b808211156149cb5760008160009055506001016149b3565b5090565b5b808211156149ef57600081816149e691906149f3565b506001016149d0565b5090565b5080546149ff90615861565b6000825580601f10614a115750614a30565b601f016020900490600052602060002090810190614a2f91906149b2565b5b50565b6000614a46614a4184615686565b615661565b905082815260208101848484011115614a5e57600080fd5b614a6984828561581f565b509392505050565b6000614a84614a7f84615686565b615661565b905082815260208101848484011115614a9c57600080fd5b614aa784828561582e565b509392505050565b600081359050614abe81615b8c565b92915050565b600082601f830112614ad557600080fd5b8135614ae5848260208601614a33565b91505092915050565b600082601f830112614aff57600080fd5b8151614b0f848260208601614a71565b91505092915050565b600081359050614b2781615ba3565b92915050565b600081519050614b3c81615ba3565b92915050565b600060208284031215614b5457600080fd5b6000614b6284828501614aaf565b91505092915050565b600080600060608486031215614b8057600080fd5b6000614b8e86828701614aaf565b9350506020614b9f86828701614aaf565b9250506040614bb086828701614b18565b9150509250925092565b600080600060608486031215614bcf57600080fd5b6000614bdd86828701614aaf565b935050602084013567ffffffffffffffff811115614bfa57600080fd5b614c0686828701614ac4565b925050604084013567ffffffffffffffff811115614c2357600080fd5b614c2f86828701614ac4565b9150509250925092565b600080600060608486031215614c4e57600080fd5b6000614c5c86828701614aaf565b935050602084013567ffffffffffffffff811115614c7957600080fd5b614c8586828701614ac4565b9250506040614c9686828701614b18565b9150509250925092565b60008060008060808587031215614cb657600080fd5b6000614cc487828801614aaf565b945050602085013567ffffffffffffffff811115614ce157600080fd5b614ced87828801614ac4565b9350506040614cfe87828801614b18565b9250506060614d0f87828801614b18565b91505092959194509250565b60008060408385031215614d2e57600080fd5b6000614d3c85828601614aaf565b9250506020614d4d85828601614b18565b9150509250929050565b600060208284031215614d6957600080fd5b600082015167ffffffffffffffff811115614d8357600080fd5b614d8f84828501614aee565b91505092915050565b600080600080600060a08688031215614db057600080fd5b600086013567ffffffffffffffff811115614dca57600080fd5b614dd688828901614ac4565b9550506020614de788828901614aaf565b9450506040614df888828901614aaf565b935050606086013567ffffffffffffffff811115614e1557600080fd5b614e2188828901614ac4565b9250506080614e3288828901614b18565b9150509295509295909350565b60008060008060808587031215614e5557600080fd5b600085015167ffffffffffffffff811115614e6f57600080fd5b614e7b87828801614aee565b945050602085015167ffffffffffffffff811115614e9857600080fd5b614ea487828801614aee565b9350506040614eb587828801614b2d565b925050606085015167ffffffffffffffff811115614ed257600080fd5b614ede87828801614aee565b91505092959194509250565b600060208284031215614efc57600080fd5b6000614f0a84828501614b2d565b91505092915050565b6000614f1f8383614f2b565b60208301905092915050565b614f3481615782565b82525050565b614f4381615782565b82525050565b6000614f54826156dc565b614f5e81856156ff565b9350614f69836156b7565b8060005b83811015614f9a578151614f818882614f13565b9750614f8c836156f2565b925050600181019050614f6d565b5085935050505092915050565b614fb081615794565b82525050565b614fbf816157d7565b82525050565b614fce816157fb565b82525050565b6000614fdf826156e7565b614fe98185615710565b9350614ff981856020860161582e565b615002816159c4565b840191505092915050565b6000615018826156e7565b6150228185615721565b935061503281856020860161582e565b80840191505092915050565b6000815461504b81615861565b6150558186615721565b945060018216600081146150705760018114615081576150b4565b60ff198316865281860193506150b4565b61508a856156c7565b60005b838110156150ac5781548189015260018201915060208101905061508d565b838801955050505b50505092915050565b60006150ca601583615710565b91506150d5826159d5565b602082019050919050565b60006150ed601d83615710565b91506150f8826159fe565b602082019050919050565b6000615110602783615710565b915061511b82615a27565b604082019050919050565b6000615133603c83615710565b915061513e82615a76565b604082019050919050565b6000615156603883615710565b915061516182615ac5565b604082019050919050565b6000615179602183615710565b915061518482615b14565b604082019050919050565b600061519c601783615710565b91506151a782615b63565b602082019050919050565b6151bb816157c0565b82525050565b60006151cd828461500d565b915081905092915050565b60006151e4828561503e565b91506151f0828461500d565b91508190509392505050565b60006020820190506152116000830184614f3a565b92915050565b600060208201905061522c6000830184614fa7565b92915050565b60006020820190506152476000830184614fb6565b92915050565b60006020820190506152626000830184614fc5565b92915050565b600060208201905081810360008301526152828184614fd4565b905092915050565b600060808201905081810360008301526152a48187614fd4565b90506152b36020830186614f3a565b81810360408301526152c58185614fd4565b90506152d460608301846151b2565b95945050505050565b600060808201905081810360008301526152f78187614fd4565b90506153066020830186614f3a565b61531360408301856151b2565b61532060608301846151b2565b95945050505050565b600060c08201905081810360008301526153438189614fd4565b905081810360208301526153578188614fd4565b90506153666040830187614f3a565b6153736060830186614f3a565b81810360808301526153858185614fd4565b905061539460a08301846151b2565b979650505050505050565b600060608201905081810360008301526153b98186614fd4565b905081810360208301526153cd8185614fd4565b905081810360408301526153e18184614fd4565b9050949350505050565b600060608201905081810360008301526154058186614fd4565b905081810360208301526154198185614fd4565b905061542860408301846151b2565b949350505050565b6000608082019050818103600083015261544a8187614fd4565b9050818103602083015261545e8186614fd4565b905061546d60408301856151b2565b818103606083015261547f8184614fd4565b905095945050505050565b600060408201905081810360008301526154a48185614fd4565b90506154b360208301846151b2565b9392505050565b600060208201905081810360008301526154d3816150bd565b9050919050565b600060208201905081810360008301526154f3816150e0565b9050919050565b6000602082019050818103600083015261551381615103565b9050919050565b6000602082019050818103600083015261553381615126565b9050919050565b6000602082019050818103600083015261555381615149565b9050919050565b600060208201905081810360008301526155738161516c565b9050919050565b600060208201905081810360008301526155938161518f565b9050919050565b60006020820190506155af60008301846151b2565b92915050565b60006040820190506155ca60008301856151b2565b81810360208301526155dc8184614f49565b90509392505050565b60006040820190506155fa60008301856151b2565b61560760208301846151b2565b9392505050565b600060a08201905061562360008301886151b2565b61563060208301876151b2565b61563d60408301866151b2565b61564a60608301856151b2565b61565760808301846151b2565b9695505050505050565b600061566b61567c565b90506156778282615893565b919050565b6000604051905090565b600067ffffffffffffffff8211156156a1576156a0615995565b5b6156aa826159c4565b9050602081019050919050565b6000819050602082019050919050565b60008190508160005260206000209050919050565b600081519050919050565b600081519050919050565b6000602082019050919050565b600082825260208201905092915050565b600082825260208201905092915050565b600081905092915050565b6000615737826157c0565b9150615742836157c0565b9250827fffffffffffffffffffffffffffffffffffffffffffffffffffffffffffffffff0382111561577757615776615937565b5b828201905092915050565b600061578d826157a0565b9050919050565b60008115159050919050565b600073ffffffffffffffffffffffffffffffffffffffff82169050919050565b6000819050919050565b600060ff82169050919050565b60006157e2826157e9565b9050919050565b60006157f4826157a0565b9050919050565b60006158068261580d565b9050919050565b6000615818826157a0565b9050919050565b82818337600083830152505050565b60005b8381101561584c578082015181840152602081019050615831565b8381111561585b576000848401525b50505050565b6000600282049050600182168061587957607f821691505b6020821081141561588d5761588c615966565b5b50919050565b61589c826159c4565b810181811067ffffffffffffffff821117156158bb576158ba615995565b5b80604052505050565b60006158cf826157c0565b91507fffffffffffffffffffffffffffffffffffffffffffffffffffffffffffffffff82141561590257615901615937565b5b600182019050919050565b6000615918826157ca565b915060ff82141561592c5761592b615937565b5b600182019050919050565b7f4e487b7100000000000000000000000000000000000000000000000000000000600052601160045260246000fd5b7f4e487b7100000000000000000000000000000000000000000000000000000000600052602260045260246000fd5b7f4e487b7100000000000000000000000000000000000000000000000000000000600052604160045260246000fd5b6000601f19601f8301169050919050565b7f557365722064617461206e6f7420666f756e6421200000000000000000000000600082015250565b7f52657374617572616e74206973206e6f7420726567697374657265642e000000600082015250565b7f55736572206d757374207265676973746572206265666f726520706c6163696e60008201527f67206f7264657200000000000000000000000000000000000000000000000000602082015250565b7f466f6f6469657a20526567697374726174696f6e202d20506172656e7420616c60008201527f7265616479207365742e2043616e6e6f74206265204368616e67656400000000602082015250565b7f466f6f6469657a20526567697374726174696f6e202d204f6e6c79204f776e6560008201527f722063616e2063616c6c20746869732066756e6374696f6e0000000000000000602082015250565b7f52657374617572616e7420697320616c7265616479207265676973746572656460008201527f2e00000000000000000000000000000000000000000000000000000000000000602082015250565b7f5573657220416c72656164792072656769737465726564000000000000000000600082015250565b615b9581615782565b8114615ba057600080fd5b50565b615bac816157c0565b8114615bb757600080fd5b5056fe466f6f6469657a204f726465727320706172656e7420636f6e74726163742061646472657373207365742ea2646970667358221220503fd099928c41dcad5b8e9f69ff1cac41b439547a19a57e811e39a83d65f02464736f6c63430008030033",
  "immutableReferences": {},
  "source": "pragma solidity ^0.8.1;\n// pragma solidity 0.7.6;\n// \"SPDX-License-Identifier: UNLICENSED\"\n\nimport \"./helpers_interface.sol\";\nimport \"./orders_interface.sol\";\n\n\ncontract FoodiezRegistration {\n    \n    // FoodiezHelpers public _foodiezHelpers;\n    // FoodiezOrders public _foodiezOrders;\n    FoodiezHelpersInterface public _foodiezHelpers;\n    FoodiezOrdersInterface public _foodiezOrders;\n\n    address ownerAddress;\n\n    address public parentContractAddress;\n    bool isParentContractSet = false;\n    \n    constructor(FoodiezHelpersInterface _helperAddress, FoodiezOrdersInterface _orderAddress) {\n        ownerAddress = msg.sender;\n        _foodiezHelpers = _helperAddress;\n        _foodiezOrders = _orderAddress;\n        \n        _foodiezOrders.setRegisterContract(address(this));\n    }\n    \n    \n    /************User and mapping**********************/\n    enum UserType { Customer, Delivery } // 0 , 1\n    struct User {\n        string name;\n        address userID;\n        UserType usrType;\n        uint256 rating;\n        uint256 tokens;\n        bool isRegistered;\n    }\n     \n    // address to registered user mapping.\n    mapping(address => User) registeredUserMapping;\n    address[] RegisteredUserAddresses;\n    \n    /************Restaurant and mapping**********************/\n    struct Restaurant {\n        address restaurantAddress;\n        string name;\n        string rId;\n        uint noOfItems;\n        uint rating;\n        string[] itemNames;\n        bool isRegistered;\n    } \n    \n    enum MenuType { Appetizer, Main, Desert }\n    struct MenuItem{\n        uint itemNum;\n        string name;\n        MenuType itemType;\n        uint256 price;\n    }\n    \n    struct Rating{\n        uint oneStar;\n        uint twoStar;\n        uint threeStar;\n        uint fourStar;\n        uint fiveStar;\n    } \n    \n    address[] RestaurantCount;\n    \n    mapping(address => Restaurant) RestaurantMapping;\n    mapping(address => Rating) RestaurantRating;\n    mapping(string => MenuItem) RestaurantMenuItems; // restaurantIds to menu items\n    mapping(address => Rating) DriverRating;\n    \n    uint256 orderTotalCount = 0;\n     \n    uint NetworkServiceFee = 2;\n    uint DeliveryFlatFee = 2;\n    \n    /************Modifiers *************************************************/\n    modifier OnlyParent(){\n        require(msg.sender == parentContractAddress, \"Foodiez Registration - Only Owner can call this function\");\n        _; // this underscore is requierd otherwise compiler will break;\n    }\n\n    modifier OnlyOwner(){\n        require(msg.sender == ownerAddress, \"Foodiez Registration - Only Owner can call this function\");\n        _; // this underscore is requierd otherwise compiler will break;\n    }\n\n    modifier isDeliveryCheck(){\n        User memory u = registeredUserMapping[msg.sender];\n        require(uint(UserType(u.usrType))== 1, \"User is not a Delivery agent. Only Delivery agents can be assigned food order.\");\n        \n        _;\n    }\n    \n    /************Address setters for helper / order contracts *************************************************/\n    function setParentContract(address _address) public returns(string memory) {\n        require(isParentContractSet == false,\"Foodiez Registration - Parent already set. Cannot be Changed\");\n        parentContractAddress = _address;\n        isParentContractSet = true;\n        \n        return(\"Foodiez Orders parent contract address set.\");\n    }\n\n    /************User and Restaurant***********************************************/\n    \n    // User Registration\n    function userRegistration(address _address, string memory name, uint uType) public OnlyParent returns (bool) {\n         require(isUserRegistered(_address) == false, \"User Already registered\");\n        \n        // task: check is user is already registered, is yes then return message already registered\n         \n        User memory u = User(name, _address, UserType(uType), 0, 0, true);\n        registeredUserMapping[_address] = u;\n        RegisteredUserAddresses.push(_address);\n        \n        if(uType == 1){\n            // Create default ratings for delivery\n            Rating memory rating = Rating(0,0,0,0,0);\n            DriverRating[_address] = rating;\n        } \n        \n        return true;\n     }\n     \n    function getUserInfo(address _address) public OnlyParent view returns(string memory, address, string memory, uint256 ){\n        require(isUserRegistered(_address) == true, \"User data not found! \");\n        \n        User memory usr = registeredUserMapping[_address];\n         \n        return(usr.name, usr.userID, getUserTypeFriendly(uint8(usr.usrType)), usr.rating);\n         \n     }\n    \n    // Restaurant and Items Registration \n    function createRestaurant(address _address, string memory _name, string memory _rId) public OnlyParent returns(bool) {\n        require(isRestaurantRegistered(_address) == false, \"Restaurant is already registered.\");\n        \n        // Create new Restaurant\n        string[] memory itemNames; // init for empty array;\n        Restaurant memory m = Restaurant(_address, _name, _rId, 0, 0, itemNames,true);\n        \n        RestaurantMapping[_address] = m;\n        RestaurantCount.push(_address);\n        \n        // Create default ratings for Restaurant\n        Rating memory rating = Rating(0,0,0,0,0);\n        RestaurantRating[_address] = rating;\n        \n        return true;\n    }\n    \n    function addMenuItems(address _address, string memory _itemName, uint _type, uint _price) public OnlyParent returns (string memory, string memory, string memory) {\n        // only allowed by restaurants address that are already registered.\n        require(isRestaurantRegistered(_address) == true, \"Restaurant is not registered.\");\n        \n        Restaurant storage rest = RestaurantMapping[_address];\n        \n        // create unique id from itemName and num ( itemNumberCount)\n        string memory uni = _foodiezHelpers.uint2str(rest.noOfItems);\n        string memory uniqueId = string(abi.encodePacked(rest.rId, uni));\n        \n        MenuItem memory mItem = MenuItem(rest.noOfItems, _itemName, MenuType(_type), _price);\n        \n        RestaurantMenuItems[uniqueId] = mItem;\n        rest.itemNames.push(uniqueId);\n        rest.noOfItems++;\n        RestaurantMapping[_address] = rest;\n        \n        return (rest.rId, uniqueId, _itemName);\n    }\n    \n    function getRestaurantMenu(address _restaurantAddress, uint _itemNumber) public OnlyParent view returns(string memory, string memory, uint256){\n        require(isRestaurantRegistered(_restaurantAddress) == true, \"Restaurant is not registered.\");\n        \n        Restaurant memory rest = RestaurantMapping[_restaurantAddress];\n        \n        string[] memory menuItems = rest.itemNames;\n        \n        MenuItem memory item = RestaurantMenuItems[menuItems[_itemNumber]];\n        return(item.name, getMenuTypeFriendly(uint8(item.itemType)) , item.price);\n        \n    }\n    \n    function getrestaurantInfo(address _restaurantAddress) public OnlyParent view returns(string memory, address, uint256, uint256){\n        require(isRestaurantRegistered(_restaurantAddress) == true, \"Restaurant is not registered.\");\n        \n        Restaurant memory rest = RestaurantMapping[_restaurantAddress];\n        return(rest.rId, rest.restaurantAddress, rest.noOfItems, rest.rating);\n    }\n\n    function getTotalRestaurants() public OnlyParent view returns (uint256, address[] memory restAddresses){\n        return (RestaurantCount.length, RestaurantCount);\n    }\n    \n    /*************Orders Functions********************************************************************/\n    function getOrderTotal(address _userAddress, address _address, uint _itemNum) public view OnlyParent returns(string memory, address, string memory, uint){\n        require(isUserRegistered(_userAddress) == true, \"User must register before placing order\");\n        uint totalPrice = 0;\n        // get restaurant\n        Restaurant memory rest = RestaurantMapping[_address];\n        \n        string[] memory menuItems = rest.itemNames;\n        MenuItem memory m = RestaurantMenuItems[menuItems[_itemNum]];\n        \n        totalPrice += m.price;\n        // calculate total bill\n        uint tempTotal = totalPrice;\n        totalPrice += _foodiezHelpers.calcServiceFee(tempTotal, NetworkServiceFee);\n        totalPrice += _foodiezHelpers.calcDriverFlatFee(tempTotal, DeliveryFlatFee);\n        \n        return ( rest.rId, rest.restaurantAddress, m.name, totalPrice);\n    }\n    \n    function createFoodOrder(string memory rId, address userAddress, address restaurantAddress, string memory itemName, uint totalPrice) public payable returns (string memory, string memory, uint, string memory){\n        \n        /****** create unique userOrderId*****/\n        // get user data \n        User memory _regUser = registeredUserMapping[msg.sender];\n\n        orderTotalCount++;\n        \n        return _foodiezOrders.createFoodOrderEntry(_regUser.name, rId, restaurantAddress, userAddress, itemName, totalPrice);\n        \n    }\n    \n    function addRestaurantRating(address _restaurantAddress, uint _restaurantRating) public OnlyParent {\n        Rating memory r = RestaurantRating[_restaurantAddress];\n        \n        if(_restaurantRating == 1){\n            r.oneStar++;\n        }else if(_restaurantRating == 2){\n            r.twoStar++;\n        }else if(_restaurantRating == 3){\n            r.threeStar++;\n        }else if(_restaurantRating == 4){\n            r.fourStar++;\n        }else if(_restaurantRating == 5){\n            r.fiveStar++;\n        }\n        \n        // calculate the weighted average\n        RestaurantRating[_restaurantAddress] = r;\n        \n        Restaurant memory res = RestaurantMapping[_restaurantAddress];\n        res.rating = _foodiezHelpers.calcWeightedAvg(r.oneStar, r.twoStar, r.threeStar, r.fourStar, r.fiveStar);\n        RestaurantMapping[_restaurantAddress] = res;\n    }\n    \n    function addDriverRating(address _address, uint _deliveryRating) public OnlyParent {\n        Rating memory r = DriverRating[_address];\n         \n        if(_deliveryRating == 1){\n            r.oneStar++;\n        }else if(_deliveryRating == 2){\n            r.twoStar++;\n        }else if(_deliveryRating == 3){\n            r.threeStar++;\n        }else if(_deliveryRating == 4){\n            r.fourStar++;\n        }else if(_deliveryRating == 5){\n            r.fiveStar++;\n        }\n\n        DriverRating[_address] = r;\n         \n        User memory usr = registeredUserMapping[_address];\n        usr.rating = _foodiezHelpers.calcWeightedAvg(r.oneStar, r.twoStar, r.threeStar, r.fourStar, r.fiveStar);\n        registeredUserMapping[_address] = usr;\n    }\n    \n    \n    /*************Registration Helpers********************************************************************/\n    function isUserRegistered( address _address) internal view returns (bool) {\n         \n        for( uint8 j = 0; j < RegisteredUserAddresses.length; j++){\n             \n            if(RegisteredUserAddresses[j] == _address){\n                return (true); // user is registered.\n            }\n        }\n        return (false); // user is not registered.\n    }\n    \n    function checkUserDelivery(address _address) public view returns (bool){\n        User memory u = registeredUserMapping[_address];\n        \n        if(uint(UserType(u.usrType))== 1) return true;\n        \n        return false;\n    }\n    \n    function isRestaurantRegistered ( address _address) internal view returns (bool) {\n        Restaurant memory m = RestaurantMapping[_address];\n        \n        return (m.isRegistered);\n    }\n    \n    // function getrestaurantInfo()\n    \n    function getItemInfo(address _restaurantAddress, uint _itemNumber) public view returns(string memory, uint){\n        require(isRestaurantRegistered(_restaurantAddress) == true, \"Restaurant is not registered.\");\n        \n        Restaurant memory rest = RestaurantMapping[_restaurantAddress];\n        \n        string[] memory menuItems = rest.itemNames;\n        \n        MenuItem memory item = RestaurantMenuItems[menuItems[_itemNumber]];\n        return(item.name, item.price);\n    }\n    \n    function getOrderCount() public view returns(uint){\n        return orderTotalCount;\n    }\n    \n    function incrementOrderCount() public {\n        orderTotalCount++;\n    }\n    \n    function getUserTypeFriendly(uint8 _usrType) internal pure returns (string memory userType) {\n        \n        if(UserType.Customer == UserType(_usrType) ) return \"Customer\";\n        if(UserType.Delivery == UserType(_usrType)) return \"Delivery\";\n    }\n    \n    function getMenuTypeFriendly(uint8 _menuType) internal pure returns (string memory userType) {\n        \n        if(MenuType.Appetizer == MenuType(_menuType) ) return \"Appetizer\";\n        if(MenuType.Main == MenuType(_menuType) ) return \"Main\";\n        if(MenuType.Desert == MenuType(_menuType)) return \"Desert\";\n    }\n    \n}",
  "sourcePath": "/home/dinesh/Blockchain-Projects/EthereumSolidityProject/contracts/registration.sol",
  "compiler": {
    "name": "solc",
    "version": "0.8.3+commit.8d00100c.Emscripten.clang"
  },
  "schemaVersion": "3.3.3",
  "updatedAt": "2021-04-03T02:57:33.893Z",
  "networkType": "ethereum",
  "devdoc": {
    "kind": "dev",
    "methods": {},
    "version": 1
  },
  "userdoc": {
    "kind": "user",
    "methods": {},
    "version": 1
  }
}