{
  "contractName": "Foodiez",
  "abi": [
    {
      "inputs": [
        {
          "internalType": "contract FoodiezRegistrationInterface",
          "name": "_registerAddress",
          "type": "address"
        },
        {
          "internalType": "contract FoodiezHelpersInterface",
          "name": "_helperAddress",
          "type": "address"
        },
        {
          "internalType": "contract FoodiezOrdersInterface",
          "name": "_orderAddress",
          "type": "address"
        },
        {
          "internalType": "address",
          "name": "_token",
          "type": "address"
        }
      ],
      "stateMutability": "nonpayable",
      "type": "constructor"
    },
    {
      "anonymous": false,
      "inputs": [
        {
          "indexed": false,
          "internalType": "address",
          "name": "account",
          "type": "address"
        },
        {
          "indexed": false,
          "internalType": "uint256",
          "name": "allowance",
          "type": "uint256"
        }
      ],
      "name": "AccountApproved",
      "type": "event"
    },
    {
      "anonymous": false,
      "inputs": [
        {
          "indexed": false,
          "internalType": "address",
          "name": "account",
          "type": "address"
        },
        {
          "indexed": false,
          "internalType": "uint256",
          "name": "amount",
          "type": "uint256"
        }
      ],
      "name": "AmountTransferedToAccount",
      "type": "event"
    },
    {
      "anonymous": false,
      "inputs": [
        {
          "indexed": false,
          "internalType": "string",
          "name": "restaurantId",
          "type": "string"
        },
        {
          "indexed": false,
          "internalType": "string",
          "name": "itemId",
          "type": "string"
        },
        {
          "indexed": false,
          "internalType": "string",
          "name": "itemName",
          "type": "string"
        }
      ],
      "name": "ItemAddedEvent",
      "type": "event"
    },
    {
      "anonymous": false,
      "inputs": [
        {
          "indexed": false,
          "internalType": "string",
          "name": "orderId",
          "type": "string"
        },
        {
          "indexed": false,
          "internalType": "address",
          "name": "driverAddress",
          "type": "address"
        },
        {
          "indexed": false,
          "internalType": "string",
          "name": "orderStatus",
          "type": "string"
        }
      ],
      "name": "OrderAssignedToDriver",
      "type": "event"
    },
    {
      "anonymous": false,
      "inputs": [
        {
          "indexed": false,
          "internalType": "string",
          "name": "orderId",
          "type": "string"
        },
        {
          "indexed": false,
          "internalType": "address",
          "name": "driverAddress",
          "type": "address"
        },
        {
          "indexed": false,
          "internalType": "string",
          "name": "orderStatus",
          "type": "string"
        }
      ],
      "name": "OrderDeliveredToUser",
      "type": "event"
    },
    {
      "anonymous": false,
      "inputs": [
        {
          "indexed": false,
          "internalType": "string",
          "name": "orderId",
          "type": "string"
        },
        {
          "indexed": false,
          "internalType": "uint256",
          "name": "total",
          "type": "uint256"
        },
        {
          "indexed": false,
          "internalType": "string",
          "name": "orderStatus",
          "type": "string"
        }
      ],
      "name": "OrderPlaced",
      "type": "event"
    },
    {
      "anonymous": false,
      "inputs": [
        {
          "indexed": false,
          "internalType": "string",
          "name": "restaurantName",
          "type": "string"
        },
        {
          "indexed": false,
          "internalType": "address",
          "name": "rAddress",
          "type": "address"
        },
        {
          "indexed": false,
          "internalType": "bool",
          "name": "isRegistered",
          "type": "bool"
        }
      ],
      "name": "RestaurantRegistered",
      "type": "event"
    },
    {
      "anonymous": false,
      "inputs": [
        {
          "indexed": false,
          "internalType": "address",
          "name": "sender",
          "type": "address"
        },
        {
          "indexed": false,
          "internalType": "address",
          "name": "recipient",
          "type": "address"
        },
        {
          "indexed": false,
          "internalType": "uint256",
          "name": "amount",
          "type": "uint256"
        }
      ],
      "name": "TransferedSenderToRecipient",
      "type": "event"
    },
    {
      "anonymous": false,
      "inputs": [
        {
          "indexed": false,
          "internalType": "string",
          "name": "name",
          "type": "string"
        },
        {
          "indexed": false,
          "internalType": "address",
          "name": "usrAddress",
          "type": "address"
        },
        {
          "indexed": false,
          "internalType": "string",
          "name": "usrType",
          "type": "string"
        },
        {
          "indexed": false,
          "internalType": "uint256",
          "name": "rating",
          "type": "uint256"
        }
      ],
      "name": "UserInfoEvent",
      "type": "event"
    },
    {
      "anonymous": false,
      "inputs": [
        {
          "indexed": false,
          "internalType": "string",
          "name": "userName",
          "type": "string"
        },
        {
          "indexed": false,
          "internalType": "bool",
          "name": "isRegistered",
          "type": "bool"
        }
      ],
      "name": "UserRegisteredEvent",
      "type": "event"
    },
    {
      "anonymous": false,
      "inputs": [
        {
          "indexed": false,
          "internalType": "uint256",
          "name": "restaurantTotal",
          "type": "uint256"
        },
        {
          "indexed": false,
          "internalType": "uint256",
          "name": "deliveryTotal",
          "type": "uint256"
        }
      ],
      "name": "orderDeliveryConfirmedEvent",
      "type": "event"
    },
    {
      "inputs": [],
      "name": "_foodiezHelpers",
      "outputs": [
        {
          "internalType": "contract FoodiezHelpersInterface",
          "name": "",
          "type": "address"
        }
      ],
      "stateMutability": "view",
      "type": "function",
      "constant": true
    },
    {
      "inputs": [],
      "name": "_foodiezOrders",
      "outputs": [
        {
          "internalType": "contract FoodiezOrdersInterface",
          "name": "",
          "type": "address"
        }
      ],
      "stateMutability": "view",
      "type": "function",
      "constant": true
    },
    {
      "inputs": [],
      "name": "_foodiezRegistration",
      "outputs": [
        {
          "internalType": "contract FoodiezRegistrationInterface",
          "name": "",
          "type": "address"
        }
      ],
      "stateMutability": "view",
      "type": "function",
      "constant": true
    },
    {
      "inputs": [
        {
          "internalType": "address",
          "name": "_address",
          "type": "address"
        },
        {
          "internalType": "uint256",
          "name": "amount",
          "type": "uint256"
        }
      ],
      "name": "tokenApproveAccount",
      "outputs": [
        {
          "internalType": "bool",
          "name": "",
          "type": "bool"
        }
      ],
      "stateMutability": "payable",
      "type": "function",
      "payable": true
    },
    {
      "inputs": [
        {
          "internalType": "address",
          "name": "own",
          "type": "address"
        },
        {
          "internalType": "address",
          "name": "spender",
          "type": "address"
        }
      ],
      "name": "allowance",
      "outputs": [
        {
          "internalType": "uint256",
          "name": "",
          "type": "uint256"
        }
      ],
      "stateMutability": "view",
      "type": "function",
      "constant": true
    },
    {
      "inputs": [
        {
          "internalType": "address",
          "name": "_address",
          "type": "address"
        }
      ],
      "name": "getTokenBalanceOf",
      "outputs": [
        {
          "internalType": "uint256",
          "name": "",
          "type": "uint256"
        }
      ],
      "stateMutability": "view",
      "type": "function",
      "constant": true
    },
    {
      "inputs": [
        {
          "internalType": "address",
          "name": "recipient",
          "type": "address"
        },
        {
          "internalType": "uint256",
          "name": "amount",
          "type": "uint256"
        }
      ],
      "name": "tokenTransfer",
      "outputs": [],
      "stateMutability": "payable",
      "type": "function",
      "payable": true
    },
    {
      "inputs": [
        {
          "internalType": "address",
          "name": "sender",
          "type": "address"
        },
        {
          "internalType": "address",
          "name": "recipient",
          "type": "address"
        },
        {
          "internalType": "uint256",
          "name": "amount",
          "type": "uint256"
        }
      ],
      "name": "tokenTransferFrom",
      "outputs": [],
      "stateMutability": "payable",
      "type": "function",
      "payable": true
    },
    {
      "inputs": [
        {
          "internalType": "string",
          "name": "name",
          "type": "string"
        },
        {
          "internalType": "uint256",
          "name": "uType",
          "type": "uint256"
        },
        {
          "internalType": "uint256",
          "name": "amountStake",
          "type": "uint256"
        }
      ],
      "name": "userRegister",
      "outputs": [
        {
          "internalType": "bool",
          "name": "isSuccess",
          "type": "bool"
        }
      ],
      "stateMutability": "payable",
      "type": "function",
      "payable": true
    },
    {
      "inputs": [
        {
          "internalType": "address",
          "name": "_address",
          "type": "address"
        }
      ],
      "name": "getUserInfo",
      "outputs": [
        {
          "internalType": "string",
          "name": "usrName",
          "type": "string"
        },
        {
          "internalType": "address",
          "name": "usrAddress",
          "type": "address"
        },
        {
          "internalType": "string",
          "name": "usrType",
          "type": "string"
        },
        {
          "internalType": "uint256",
          "name": "rating",
          "type": "uint256"
        }
      ],
      "stateMutability": "view",
      "type": "function",
      "constant": true
    },
    {
      "inputs": [
        {
          "internalType": "string",
          "name": "_name",
          "type": "string"
        },
        {
          "internalType": "string",
          "name": "_rId",
          "type": "string"
        },
        {
          "internalType": "uint256",
          "name": "amountStake",
          "type": "uint256"
        }
      ],
      "name": "registerRestaurant",
      "outputs": [],
      "stateMutability": "payable",
      "type": "function",
      "payable": true
    },
    {
      "inputs": [
        {
          "internalType": "string",
          "name": "_itemName",
          "type": "string"
        },
        {
          "internalType": "uint256",
          "name": "_type",
          "type": "uint256"
        },
        {
          "internalType": "uint256",
          "name": "_price",
          "type": "uint256"
        }
      ],
      "name": "addMenuItems",
      "outputs": [],
      "stateMutability": "nonpayable",
      "type": "function"
    },
    {
      "inputs": [
        {
          "internalType": "address",
          "name": "_restaurantAddress",
          "type": "address"
        },
        {
          "internalType": "uint256",
          "name": "_itemNumber",
          "type": "uint256"
        }
      ],
      "name": "getRestaurantMenu",
      "outputs": [
        {
          "internalType": "string",
          "name": "itemName",
          "type": "string"
        },
        {
          "internalType": "string",
          "name": "itemType",
          "type": "string"
        },
        {
          "internalType": "uint256",
          "name": "itemPrice",
          "type": "uint256"
        }
      ],
      "stateMutability": "view",
      "type": "function",
      "constant": true
    },
    {
      "inputs": [
        {
          "internalType": "address",
          "name": "_restaurantAddress",
          "type": "address"
        }
      ],
      "name": "getrestaurantInfo",
      "outputs": [
        {
          "internalType": "string",
          "name": "rId",
          "type": "string"
        },
        {
          "internalType": "address",
          "name": "rAddress",
          "type": "address"
        },
        {
          "internalType": "uint256",
          "name": "rItems",
          "type": "uint256"
        },
        {
          "internalType": "uint256",
          "name": "rating",
          "type": "uint256"
        }
      ],
      "stateMutability": "view",
      "type": "function",
      "constant": true
    },
    {
      "inputs": [],
      "name": "getAllRestaurants",
      "outputs": [
        {
          "internalType": "uint256",
          "name": "count",
          "type": "uint256"
        },
        {
          "internalType": "address[]",
          "name": "restAddresses",
          "type": "address[]"
        }
      ],
      "stateMutability": "view",
      "type": "function",
      "constant": true
    },
    {
      "inputs": [
        {
          "internalType": "address",
          "name": "_restaurantAddress",
          "type": "address"
        },
        {
          "internalType": "uint256",
          "name": "_itemNum",
          "type": "uint256"
        },
        {
          "internalType": "uint256",
          "name": "tokenPay",
          "type": "uint256"
        }
      ],
      "name": "placeOrder",
      "outputs": [
        {
          "internalType": "string",
          "name": "uOrderId",
          "type": "string"
        },
        {
          "internalType": "string",
          "name": "orderItemName",
          "type": "string"
        },
        {
          "internalType": "uint256",
          "name": "orderTotal",
          "type": "uint256"
        },
        {
          "internalType": "string",
          "name": "orderStatus",
          "type": "string"
        }
      ],
      "stateMutability": "payable",
      "type": "function",
      "payable": true
    },
    {
      "inputs": [
        {
          "internalType": "address",
          "name": "_userAddress",
          "type": "address"
        }
      ],
      "name": "getAllUserOrders",
      "outputs": [
        {
          "internalType": "uint256",
          "name": "total",
          "type": "uint256"
        }
      ],
      "stateMutability": "view",
      "type": "function",
      "constant": true
    },
    {
      "inputs": [
        {
          "internalType": "string",
          "name": "userOrderId",
          "type": "string"
        }
      ],
      "name": "getOrderStatus",
      "outputs": [
        {
          "internalType": "string",
          "name": "orderId",
          "type": "string"
        },
        {
          "internalType": "address",
          "name": "userAddress",
          "type": "address"
        },
        {
          "internalType": "address",
          "name": "driverAddress",
          "type": "address"
        },
        {
          "internalType": "string",
          "name": "items",
          "type": "string"
        },
        {
          "internalType": "uint256",
          "name": "total",
          "type": "uint256"
        },
        {
          "internalType": "string",
          "name": "status",
          "type": "string"
        }
      ],
      "stateMutability": "view",
      "type": "function",
      "constant": true
    },
    {
      "inputs": [
        {
          "internalType": "string",
          "name": "userOrderId",
          "type": "string"
        }
      ],
      "name": "assignToDriver",
      "outputs": [],
      "stateMutability": "nonpayable",
      "type": "function"
    },
    {
      "inputs": [
        {
          "internalType": "string",
          "name": "userOrderId",
          "type": "string"
        }
      ],
      "name": "driverDelieveredOrder",
      "outputs": [],
      "stateMutability": "nonpayable",
      "type": "function"
    },
    {
      "inputs": [
        {
          "internalType": "string",
          "name": "userOrderId",
          "type": "string"
        },
        {
          "internalType": "uint256",
          "name": "_restaurantRating",
          "type": "uint256"
        },
        {
          "internalType": "uint256",
          "name": "_deliveryRating",
          "type": "uint256"
        },
        {
          "internalType": "uint256",
          "name": "tokenTip",
          "type": "uint256"
        }
      ],
      "name": "orderDeliveryConfirmed",
      "outputs": [],
      "stateMutability": "payable",
      "type": "function",
      "payable": true
    }
  ],
  "bytecode": "0x6080604052600260045560026005553480156200001b57600080fd5b506040516200409038038062004090833981810160405281019062000041919062000410565b336000806101000a81548173ffffffffffffffffffffffffffffffffffffffff021916908373ffffffffffffffffffffffffffffffffffffffff16021790555082600260006101000a81548173ffffffffffffffffffffffffffffffffffffffff021916908373ffffffffffffffffffffffffffffffffffffffff16021790555083600160006101000a81548173ffffffffffffffffffffffffffffffffffffffff021916908373ffffffffffffffffffffffffffffffffffffffff16021790555081600360006101000a81548173ffffffffffffffffffffffffffffffffffffffff021916908373ffffffffffffffffffffffffffffffffffffffff160217905550600160009054906101000a900473ffffffffffffffffffffffffffffffffffffffff1673ffffffffffffffffffffffffffffffffffffffff1663765ccb6b306040518263ffffffff1660e01b8152600401620001a19190620004d2565b600060405180830381600087803b158015620001bc57600080fd5b505af1158015620001d1573d6000803e3d6000fd5b505050506040513d6000823e3d601f19601f82011682018060405250810190620001fc91906200047c565b50600360009054906101000a900473ffffffffffffffffffffffffffffffffffffffff1673ffffffffffffffffffffffffffffffffffffffff1663765ccb6b306040518263ffffffff1660e01b81526004016200025a9190620004d2565b600060405180830381600087803b1580156200027557600080fd5b505af11580156200028a573d6000803e3d6000fd5b505050506040513d6000823e3d601f19601f82011682018060405250810190620002b591906200047c565b5033600760006101000a81548173ffffffffffffffffffffffffffffffffffffffff021916908373ffffffffffffffffffffffffffffffffffffffff16021790555080600660006101000a81548173ffffffffffffffffffffffffffffffffffffffff021916908373ffffffffffffffffffffffffffffffffffffffff16021790555050505050620006d2565b600062000359620003538462000518565b620004ef565b9050828152602081018484840111156200037257600080fd5b6200037f848285620005be565b509392505050565b60008151905062000398816200066a565b92915050565b600081519050620003af8162000684565b92915050565b600081519050620003c6816200069e565b92915050565b600081519050620003dd81620006b8565b92915050565b600082601f830112620003f557600080fd5b81516200040784826020860162000342565b91505092915050565b600080600080608085870312156200042757600080fd5b60006200043787828801620003cc565b94505060206200044a878288016200039e565b93505060406200045d87828801620003b5565b9250506060620004708782880162000387565b91505092959194509250565b6000602082840312156200048f57600080fd5b600082015167ffffffffffffffff811115620004aa57600080fd5b620004b884828501620003e3565b91505092915050565b620004cc816200054e565b82525050565b6000602082019050620004e96000830184620004c1565b92915050565b6000620004fb6200050e565b9050620005098282620005f4565b919050565b6000604051905090565b600067ffffffffffffffff8211156200053657620005356200062a565b5b620005418262000659565b9050602081019050919050565b60006200055b826200059e565b9050919050565b60006200056f826200054e565b9050919050565b600062000583826200054e565b9050919050565b600062000597826200054e565b9050919050565b600073ffffffffffffffffffffffffffffffffffffffff82169050919050565b60005b83811015620005de578082015181840152602081019050620005c1565b83811115620005ee576000848401525b50505050565b620005ff8262000659565b810181811067ffffffffffffffff821117156200062157620006206200062a565b5b80604052505050565b7f4e487b7100000000000000000000000000000000000000000000000000000000600052604160045260246000fd5b6000601f19601f8301169050919050565b62000675816200054e565b81146200068157600080fd5b50565b6200068f8162000562565b81146200069b57600080fd5b50565b620006a98162000576565b8114620006b557600080fd5b50565b620006c3816200058a565b8114620006cf57600080fd5b50565b6139ae80620006e26000396000f3fe60806040526004361061012a5760003560e01c806387734400116100ab578063d8c01ed11161006f578063d8c01ed1146103e8578063dd62ed3e14610428578063e1eb4abc14610465578063e523d13214610490578063e77c719e146104b9578063e79034a8146104e95761012a565b8063877344001461030557806395f9eb8f14610331578063961974ba1461036e578063aedfb5d31461038a578063c6f4dc37146103cc5761012a565b80636386c1c7116100f25780636386c1c71461021057806366a257c41461025057806368cdafe61461027957806377e16afe1461029557806383894548146102c85761012a565b80631de3b27d1461012f5780632d9ee1d11461015f578063331723eb1461018a578063617aada9146101c9578063623bb431146101f4575b600080fd5b61014960048036038101906101449190612965565b610512565b6040516101569190612e74565b60405180910390f35b34801561016b57600080fd5b506101746106dc565b6040516101819190612eaa565b60405180910390f35b34801561019657600080fd5b506101b160048036038101906101ac9190612451565b610702565b6040516101c093929190613177565b60405180910390f35b3480156101d557600080fd5b506101de6107c6565b6040516101eb9190612e8f565b60405180910390f35b61020e600480360381019061020991906129cc565b6107ec565b005b34801561021c57600080fd5b50610237600480360381019061023291906122e6565b610f97565b604051610247949392919061305c565b60405180910390f35b34801561025c57600080fd5b5061027760048036038101906102729190612965565b61105e565b005b610293600480360381019061028e9190612451565b611164565b005b6102af60048036038101906102aa919061248d565b61125c565b6040516102bf94939291906131bc565b60405180910390f35b3480156102d457600080fd5b506102ef60048036038101906102ea91906122e6565b611534565b6040516102fc919061336b565b60405180910390f35b34801561031157600080fd5b5061031a6115e8565b604051610328929190613386565b60405180910390f35b34801561033d57600080fd5b50610358600480360381019061035391906122e6565b611699565b604051610365919061336b565b60405180910390f35b610388600480360381019061038391906123ae565b61174d565b005b34801561039657600080fd5b506103b160048036038101906103ac9190612505565b61184a565b6040516103c396959493929190612f63565b60405180910390f35b6103e660048036038101906103e191906127bc565b61191a565b005b3480156103f457600080fd5b5061040f600480360381019061040a91906122e6565b611a81565b60405161041f94939291906130af565b60405180910390f35b34801561043457600080fd5b5061044f600480360381019061044a919061230f565b611b47565b60405161045c919061336b565b60405180910390f35b34801561047157600080fd5b5061047a611bfe565b6040516104879190612ec5565b60405180910390f35b34801561049c57600080fd5b506104b760048036038101906104b29190612505565b611c24565b005b6104d360048036038101906104ce9190612451565b611e10565b6040516104e09190612e74565b60405180910390f35b3480156104f557600080fd5b50610510600480360381019061050b9190612505565b611f0e565b005b6000600183141561056957678ac7230489e80000341015610568576040517f08c379a000000000000000000000000000000000000000000000000000000000815260040161055f9061330b565b60405180910390fd5b5b60008211156105e357813410156105b5576040517f08c379a00000000000000000000000000000000000000000000000000000000081526004016105ac906132eb565b60405180910390fd5b6105e2600760009054906101000a900473ffffffffffffffffffffffffffffffffffffffff16338461174d565b5b6000600160009054906101000a900473ffffffffffffffffffffffffffffffffffffffff1673ffffffffffffffffffffffffffffffffffffffff1663aded60393387876040518463ffffffff1660e01b815260040161064493929190612dc1565b602060405180830381600087803b15801561065e57600080fd5b505af1158015610672573d6000803e3d6000fd5b505050506040513d601f19601f8201168201806040525081019061069691906124dc565b90507f7f9ecb5a097a48ba760452c7dc9a9b85f16117e64abb0d9248a484a582bb286685826040516106c99291906130fb565b60405180910390a1809150509392505050565b600360009054906101000a900473ffffffffffffffffffffffffffffffffffffffff1681565b6060806000600160009054906101000a900473ffffffffffffffffffffffffffffffffffffffff1673ffffffffffffffffffffffffffffffffffffffff1663331723eb86866040518363ffffffff1660e01b8152600401610764929190612e4b565b60006040518083038186803b15801561077c57600080fd5b505afa158015610790573d6000803e3d6000fd5b505050506040513d6000823e3d601f19601f820116820180604052508101906107b9919061283b565b9250925092509250925092565b600260009054906101000a900473ffffffffffffffffffffffffffffffffffffffff1681565b60001515600160009054906101000a900473ffffffffffffffffffffffffffffffffffffffff1673ffffffffffffffffffffffffffffffffffffffff16635f9d8de6336040518263ffffffff1660e01b815260040161084b9190612cd1565b60206040518083038186803b15801561086357600080fd5b505afa158015610877573d6000803e3d6000fd5b505050506040513d601f19601f8201168201806040525081019061089b91906124dc565b1515146108dd576040517f08c379a00000000000000000000000000000000000000000000000000000000081526004016108d49061334b565b60405180910390fd5b600080600080600360009054906101000a900473ffffffffffffffffffffffffffffffffffffffff1673ffffffffffffffffffffffffffffffffffffffff1663b1a68ff2896040518263ffffffff1660e01b815260040161093e9190612ee0565b608060405180830381600087803b15801561095857600080fd5b505af115801561096c573d6000803e3d6000fd5b505050506040513d601f19601f82011682018060405250810190610990919061234b565b9350935093509350600160009054906101000a900473ffffffffffffffffffffffffffffffffffffffff1673ffffffffffffffffffffffffffffffffffffffff16638ab7ad7785896040518363ffffffff1660e01b81526004016109f5929190612e4b565b600060405180830381600087803b158015610a0f57600080fd5b505af1158015610a23573d6000803e3d6000fd5b50505050600160009054906101000a900473ffffffffffffffffffffffffffffffffffffffff1673ffffffffffffffffffffffffffffffffffffffff1663dfe7669d84886040518363ffffffff1660e01b8152600401610a84929190612e4b565b600060405180830381600087803b158015610a9e57600080fd5b505af1158015610ab2573d6000803e3d6000fd5b5050505084610ac033611534565b1015610b01576040517f08c379a0000000000000000000000000000000000000000000000000000000008152600401610af89061332b565b60405180910390fd5b6000600360009054906101000a900473ffffffffffffffffffffffffffffffffffffffff1673ffffffffffffffffffffffffffffffffffffffff1663d182dbcd8a6040518263ffffffff1660e01b8152600401610b5e9190612ee0565b60206040518083038186803b158015610b7657600080fd5b505afa158015610b8a573d6000803e3d6000fd5b505050506040513d601f19601f82011682018060405250810190610bae9190612a47565b905060008290506000600260009054906101000a900473ffffffffffffffffffffffffffffffffffffffff1673ffffffffffffffffffffffffffffffffffffffff166365609516856004546040518363ffffffff1660e01b8152600401610c169291906133b6565b60206040518083038186803b158015610c2e57600080fd5b505afa158015610c42573d6000803e3d6000fd5b505050506040513d601f19601f82011682018060405250810190610c669190612a47565b90508082610c749190613566565b91506000600260009054906101000a900473ffffffffffffffffffffffffffffffffffffffff1673ffffffffffffffffffffffffffffffffffffffff1663221c9cfe866005546040518363ffffffff1660e01b8152600401610cd79291906133b6565b60206040518083038186803b158015610cef57600080fd5b505afa158015610d03573d6000803e3d6000fd5b505050506040513d601f19601f82011682018060405250810190610d279190612a47565b90508083610d359190613566565b92503481610d4391906134b6565b90508673ffffffffffffffffffffffffffffffffffffffff166108fc829081150290604051600060405180830381858888f19350505050158015610d8b573d6000803e3d6000fd5b506000891115610e4857600660009054906101000a900473ffffffffffffffffffffffffffffffffffffffff1673ffffffffffffffffffffffffffffffffffffffff166323b872dd87898c6040518463ffffffff1660e01b8152600401610df493929190612d15565b602060405180830381600087803b158015610e0e57600080fd5b505af1158015610e22573d6000803e3d6000fd5b505050506040513d601f19601f82011682018060405250810190610e4691906124dc565b505b6000841115610f0857600660009054906101000a900473ffffffffffffffffffffffffffffffffffffffff1673ffffffffffffffffffffffffffffffffffffffff166323b872dd878a876040518463ffffffff1660e01b8152600401610eb093929190612d15565b602060405180830381600087803b158015610eca57600080fd5b505af1158015610ede573d6000803e3d6000fd5b505050506040513d601f19601f82011682018060405250810190610f0291906124dc565b50610f50565b8773ffffffffffffffffffffffffffffffffffffffff166108fc849081150290604051600060405180830381858888f19350505050158015610f4e573d6000803e3d6000fd5b505b7f292961d24e58ea05a8b5bca78932ec898d03d1646fb56c0f81495770e5872d098382604051610f819291906133b6565b60405180910390a1505050505050505050505050565b6060600060606000600160009054906101000a900473ffffffffffffffffffffffffffffffffffffffff1673ffffffffffffffffffffffffffffffffffffffff16636386c1c7866040518263ffffffff1660e01b8152600401610ffa9190612cd1565b60006040518083038186803b15801561101257600080fd5b505afa158015611026573d6000803e3d6000fd5b505050506040513d6000823e3d601f19601f8201168201806040525081019061104f9190612617565b93509350935093509193509193565b6000806000600160009054906101000a900473ffffffffffffffffffffffffffffffffffffffff1673ffffffffffffffffffffffffffffffffffffffff1663debd2ec4338888886040518563ffffffff1660e01b81526004016110c49493929190612dff565b600060405180830381600087803b1580156110de57600080fd5b505af11580156110f2573d6000803e3d6000fd5b505050506040513d6000823e3d601f19601f8201168201806040525081019061111b9190612725565b9250925092507fe591a00874db47ebb9c845e5d6550ba44f9b94231216d912524a6b01cf64c3628383836040516111549392919061312b565b60405180910390a1505050505050565b6000600660009054906101000a900473ffffffffffffffffffffffffffffffffffffffff1673ffffffffffffffffffffffffffffffffffffffff1663a9059cbb84846040518363ffffffff1660e01b81526004016111c3929190612e4b565b602060405180830381600087803b1580156111dd57600080fd5b505af11580156111f1573d6000803e3d6000fd5b505050506040513d601f19601f8201168201806040525081019061121591906124dc565b90508015611257577fbdbbb9910baae524fdb61a2b98c4264b1b7c7dd08291b66731a279ab74fa778f838360405161124e929190612e4b565b60405180910390a15b505050565b60608060006060600080600080600160009054906101000a900473ffffffffffffffffffffffffffffffffffffffff1673ffffffffffffffffffffffffffffffffffffffff1663f0645d7a338d8d6040518463ffffffff1660e01b81526004016112c893929190612d15565b60006040518083038186803b1580156112e057600080fd5b505afa1580156112f4573d6000803e3d6000fd5b505050506040513d6000823e3d601f19601f8201168201806040525081019061131d9190612617565b9350935093509350803410158061133c5750806113398a6120fa565b10155b61137b576040517f08c379a0000000000000000000000000000000000000000000000000000000008152600401611372906132cb565b60405180910390fd5b600080600080600160009054906101000a900473ffffffffffffffffffffffffffffffffffffffff1673ffffffffffffffffffffffffffffffffffffffff166384a101cd89338a8a8a6040518663ffffffff1660e01b81526004016113e4959493929190612f02565b600060405180830381600087803b1580156113fe57600080fd5b505af1158015611412573d6000803e3d6000fd5b505050506040513d6000823e3d601f19601f8201168201806040525081019061143b91906128ba565b935093509350935060008d11156114dc57600360009054906101000a900473ffffffffffffffffffffffffffffffffffffffff1673ffffffffffffffffffffffffffffffffffffffff16639b4708d1858f6040518363ffffffff1660e01b81526004016114a9929190613216565b600060405180830381600087803b1580156114c357600080fd5b505af11580156114d7573d6000803e3d6000fd5b505050505b7f8e1877496607c24fc170bde9db9a8cc815be5b7017482f5770386dd5f0a47b8a84838360405161150f93929190613246565b60405180910390a1838383839b509b509b509b50505050505050505093509350935093565b6000600660009054906101000a900473ffffffffffffffffffffffffffffffffffffffff1673ffffffffffffffffffffffffffffffffffffffff166370a08231836040518263ffffffff1660e01b81526004016115919190612cd1565b60206040518083038186803b1580156115a957600080fd5b505afa1580156115bd573d6000803e3d6000fd5b505050506040513d601f19601f820116820180604052508101906115e19190612a47565b9050919050565b60006060600160009054906101000a900473ffffffffffffffffffffffffffffffffffffffff1673ffffffffffffffffffffffffffffffffffffffff1663707715046040518163ffffffff1660e01b815260040160006040518083038186803b15801561165457600080fd5b505afa158015611668573d6000803e3d6000fd5b505050506040513d6000823e3d601f19601f820116820180604052508101906116919190612a70565b915091509091565b6000600360009054906101000a900473ffffffffffffffffffffffffffffffffffffffff1673ffffffffffffffffffffffffffffffffffffffff166395f9eb8f836040518263ffffffff1660e01b81526004016116f69190612cd1565b60206040518083038186803b15801561170e57600080fd5b505afa158015611722573d6000803e3d6000fd5b505050506040513d601f19601f820116820180604052508101906117469190612a47565b9050919050565b6000600660009054906101000a900473ffffffffffffffffffffffffffffffffffffffff1673ffffffffffffffffffffffffffffffffffffffff166323b872dd8585856040518463ffffffff1660e01b81526004016117ae93929190612d15565b602060405180830381600087803b1580156117c857600080fd5b505af11580156117dc573d6000803e3d6000fd5b505050506040513d601f19601f8201168201806040525081019061180091906124dc565b90508015611844577f3ae895b079028f50d70d4fdc12d6bbad245651b4fbe50d7a931752330a025dec84848460405161183b93929190612d15565b60405180910390a15b50505050565b6060600080606060006060600360009054906101000a900473ffffffffffffffffffffffffffffffffffffffff1673ffffffffffffffffffffffffffffffffffffffff16637ab8ae16886040518263ffffffff1660e01b81526004016118b09190612ee0565b60006040518083038186803b1580156118c857600080fd5b505afa1580156118dc573d6000803e3d6000fd5b505050506040513d6000823e3d601f19601f820116820180604052508101906119059190612546565b95509550955095509550955091939550919395565b6000600160009054906101000a900473ffffffffffffffffffffffffffffffffffffffff1673ffffffffffffffffffffffffffffffffffffffff1663096309233386866040518463ffffffff1660e01b815260040161197b93929190612d7c565b602060405180830381600087803b15801561199557600080fd5b505af11580156119a9573d6000803e3d6000fd5b505050506040513d601f19601f820116820180604052508101906119cd91906124dc565b90507f1fec3d043cdeae56abac63b9485c8e810e01d8caf5281e06e2a78cbb82b9f562843383604051611a0293929190612fd9565b60405180910390a16000341015611a4e576040517f08c379a0000000000000000000000000000000000000000000000000000000008152600401611a45906132ab565b60405180910390fd5b611a7b600760009054906101000a900473ffffffffffffffffffffffffffffffffffffffff16338461174d565b50505050565b60606000806000600160009054906101000a900473ffffffffffffffffffffffffffffffffffffffff1673ffffffffffffffffffffffffffffffffffffffff1663d8c01ed1866040518263ffffffff1660e01b8152600401611ae39190612cd1565b60006040518083038186803b158015611afb57600080fd5b505afa158015611b0f573d6000803e3d6000fd5b505050506040513d6000823e3d601f19601f82011682018060405250810190611b3891906126aa565b93509350935093509193509193565b6000600660009054906101000a900473ffffffffffffffffffffffffffffffffffffffff1673ffffffffffffffffffffffffffffffffffffffff1663dd62ed3e84846040518363ffffffff1660e01b8152600401611ba6929190612cec565b60206040518083038186803b158015611bbe57600080fd5b505afa158015611bd2573d6000803e3d6000fd5b505050506040513d601f19601f82011682018060405250810190611bf69190612a47565b905092915050565b600160009054906101000a900473ffffffffffffffffffffffffffffffffffffffff1681565b60011515600160009054906101000a900473ffffffffffffffffffffffffffffffffffffffff1673ffffffffffffffffffffffffffffffffffffffff16635f9d8de6336040518263ffffffff1660e01b8152600401611c839190612cd1565b60206040518083038186803b158015611c9b57600080fd5b505afa158015611caf573d6000803e3d6000fd5b505050506040513d601f19601f82011682018060405250810190611cd391906124dc565b151514611d15576040517f08c379a0000000000000000000000000000000000000000000000000000000008152600401611d0c9061328b565b60405180910390fd5b600080600360009054906101000a900473ffffffffffffffffffffffffffffffffffffffff1673ffffffffffffffffffffffffffffffffffffffff166357c8666933856040518363ffffffff1660e01b8152600401611d75929190612d4c565b600060405180830381600087803b158015611d8f57600080fd5b505af1158015611da3573d6000803e3d6000fd5b505050506040513d6000823e3d601f19601f82011682018060405250810190611dcc91906123fd565b915091507ff77ddd1c4747d74e4d857ae1988928cd346feca8a5f694b0c39f7f53e5193580838383604051611e0393929190613017565b60405180910390a1505050565b600080600660009054906101000a900473ffffffffffffffffffffffffffffffffffffffff1673ffffffffffffffffffffffffffffffffffffffff1663095ea7b385856040518363ffffffff1660e01b8152600401611e70929190612e4b565b602060405180830381600087803b158015611e8a57600080fd5b505af1158015611e9e573d6000803e3d6000fd5b505050506040513d601f19601f82011682018060405250810190611ec291906124dc565b90508015611f04577fbab4e436a1f75e4f561126509ef0a39ce3a8c2c0d42e0269a857bee6d508d9008484604051611efb929190612e4b565b60405180910390a15b8091505092915050565b60011515600160009054906101000a900473ffffffffffffffffffffffffffffffffffffffff1673ffffffffffffffffffffffffffffffffffffffff16635f9d8de6336040518263ffffffff1660e01b8152600401611f6d9190612cd1565b60206040518083038186803b158015611f8557600080fd5b505afa158015611f99573d6000803e3d6000fd5b505050506040513d601f19601f82011682018060405250810190611fbd91906124dc565b151514611fff576040517f08c379a0000000000000000000000000000000000000000000000000000000008152600401611ff69061328b565b60405180910390fd5b600080600360009054906101000a900473ffffffffffffffffffffffffffffffffffffffff1673ffffffffffffffffffffffffffffffffffffffff1663748f9f1233856040518363ffffffff1660e01b815260040161205f929190612d4c565b600060405180830381600087803b15801561207957600080fd5b505af115801561208d573d6000803e3d6000fd5b505050506040513d6000823e3d601f19601f820116820180604052508101906120b691906123fd565b915091507ff14b427b14da887f90611136a5e3ceba24d441e75254f1f8900c678af0ad48508383836040516120ed93929190613017565b60405180910390a1505050565b6000670de0b6b3a764000082612110919061350c565b9050919050565b600061212a61212584613404565b6133df565b9050808382526020820190508285602086028201111561214957600080fd5b60005b85811015612179578161215f8882612214565b84526020840193506020830192505060018101905061214c565b5050509392505050565b600061219661219184613430565b6133df565b9050828152602081018484840111156121ae57600080fd5b6121b984828561364e565b509392505050565b60006121d46121cf84613430565b6133df565b9050828152602081018484840111156121ec57600080fd5b6121f784828561365d565b509392505050565b60008135905061220e81613933565b92915050565b60008151905061222381613933565b92915050565b600082601f83011261223a57600080fd5b815161224a848260208601612117565b91505092915050565b6000815190506122628161394a565b92915050565b600082601f83011261227957600080fd5b8135612289848260208601612183565b91505092915050565b600082601f8301126122a357600080fd5b81516122b38482602086016121c1565b91505092915050565b6000813590506122cb81613961565b92915050565b6000815190506122e081613961565b92915050565b6000602082840312156122f857600080fd5b6000612306848285016121ff565b91505092915050565b6000806040838503121561232257600080fd5b6000612330858286016121ff565b9250506020612341858286016121ff565b9150509250929050565b6000806000806080858703121561236157600080fd5b600061236f87828801612214565b945050602061238087828801612214565b935050604061239187828801612214565b92505060606123a2878288016122d1565b91505092959194509250565b6000806000606084860312156123c357600080fd5b60006123d1868287016121ff565b93505060206123e2868287016121ff565b92505060406123f3868287016122bc565b9150509250925092565b6000806040838503121561241057600080fd5b600061241e85828601612214565b925050602083015167ffffffffffffffff81111561243b57600080fd5b61244785828601612292565b9150509250929050565b6000806040838503121561246457600080fd5b6000612472858286016121ff565b9250506020612483858286016122bc565b9150509250929050565b6000806000606084860312156124a257600080fd5b60006124b0868287016121ff565b93505060206124c1868287016122bc565b92505060406124d2868287016122bc565b9150509250925092565b6000602082840312156124ee57600080fd5b60006124fc84828501612253565b91505092915050565b60006020828403121561251757600080fd5b600082013567ffffffffffffffff81111561253157600080fd5b61253d84828501612268565b91505092915050565b60008060008060008060c0878903121561255f57600080fd5b600087015167ffffffffffffffff81111561257957600080fd5b61258589828a01612292565b965050602061259689828a01612214565b95505060406125a789828a01612214565b945050606087015167ffffffffffffffff8111156125c457600080fd5b6125d089828a01612292565b93505060806125e189828a016122d1565b92505060a087015167ffffffffffffffff8111156125fe57600080fd5b61260a89828a01612292565b9150509295509295509295565b6000806000806080858703121561262d57600080fd5b600085015167ffffffffffffffff81111561264757600080fd5b61265387828801612292565b945050602061266487828801612214565b935050604085015167ffffffffffffffff81111561268157600080fd5b61268d87828801612292565b925050606061269e878288016122d1565b91505092959194509250565b600080600080608085870312156126c057600080fd5b600085015167ffffffffffffffff8111156126da57600080fd5b6126e687828801612292565b94505060206126f787828801612214565b9350506040612708878288016122d1565b9250506060612719878288016122d1565b91505092959194509250565b60008060006060848603121561273a57600080fd5b600084015167ffffffffffffffff81111561275457600080fd5b61276086828701612292565b935050602084015167ffffffffffffffff81111561277d57600080fd5b61278986828701612292565b925050604084015167ffffffffffffffff8111156127a657600080fd5b6127b286828701612292565b9150509250925092565b6000806000606084860312156127d157600080fd5b600084013567ffffffffffffffff8111156127eb57600080fd5b6127f786828701612268565b935050602084013567ffffffffffffffff81111561281457600080fd5b61282086828701612268565b9250506040612831868287016122bc565b9150509250925092565b60008060006060848603121561285057600080fd5b600084015167ffffffffffffffff81111561286a57600080fd5b61287686828701612292565b935050602084015167ffffffffffffffff81111561289357600080fd5b61289f86828701612292565b92505060406128b0868287016122d1565b9150509250925092565b600080600080608085870312156128d057600080fd5b600085015167ffffffffffffffff8111156128ea57600080fd5b6128f687828801612292565b945050602085015167ffffffffffffffff81111561291357600080fd5b61291f87828801612292565b9350506040612930878288016122d1565b925050606085015167ffffffffffffffff81111561294d57600080fd5b61295987828801612292565b91505092959194509250565b60008060006060848603121561297a57600080fd5b600084013567ffffffffffffffff81111561299457600080fd5b6129a086828701612268565b93505060206129b1868287016122bc565b92505060406129c2868287016122bc565b9150509250925092565b600080600080608085870312156129e257600080fd5b600085013567ffffffffffffffff8111156129fc57600080fd5b612a0887828801612268565b9450506020612a19878288016122bc565b9350506040612a2a878288016122bc565b9250506060612a3b878288016122bc565b91505092959194509250565b600060208284031215612a5957600080fd5b6000612a67848285016122d1565b91505092915050565b60008060408385031215612a8357600080fd5b6000612a91858286016122d1565b925050602083015167ffffffffffffffff811115612aae57600080fd5b612aba85828601612229565b9150509250929050565b6000612ad08383612adc565b60208301905092915050565b612ae58161359a565b82525050565b612af48161359a565b82525050565b6000612b0582613471565b612b0f8185613494565b9350612b1a83613461565b8060005b83811015612b4b578151612b328882612ac4565b9750612b3d83613487565b925050600181019050612b1e565b5085935050505092915050565b612b61816135ac565b82525050565b612b70816135e2565b82525050565b612b7f81613606565b82525050565b612b8e8161362a565b82525050565b6000612b9f8261347c565b612ba981856134a5565b9350612bb981856020860161365d565b612bc28161371f565b840191505092915050565b6000612bda604e836134a5565b9150612be582613730565b606082019050919050565b6000612bfd6027836134a5565b9150612c08826137a5565b604082019050919050565b6000612c206028836134a5565b9150612c2b826137f4565b604082019050919050565b6000612c43601b836134a5565b9150612c4e82613843565b602082019050919050565b6000612c66602a836134a5565b9150612c718261386c565b604082019050919050565b6000612c896019836134a5565b9150612c94826138bb565b602082019050919050565b6000612cac6039836134a5565b9150612cb7826138e4565b604082019050919050565b612ccb816135d8565b82525050565b6000602082019050612ce66000830184612aeb565b92915050565b6000604082019050612d016000830185612aeb565b612d0e6020830184612aeb565b9392505050565b6000606082019050612d2a6000830186612aeb565b612d376020830185612aeb565b612d446040830184612cc2565b949350505050565b6000604082019050612d616000830185612aeb565b8181036020830152612d738184612b94565b90509392505050565b6000606082019050612d916000830186612aeb565b8181036020830152612da38185612b94565b90508181036040830152612db78184612b94565b9050949350505050565b6000606082019050612dd66000830186612aeb565b8181036020830152612de88185612b94565b9050612df76040830184612cc2565b949350505050565b6000608082019050612e146000830187612aeb565b8181036020830152612e268186612b94565b9050612e356040830185612cc2565b612e426060830184612cc2565b95945050505050565b6000604082019050612e606000830185612aeb565b612e6d6020830184612cc2565b9392505050565b6000602082019050612e896000830184612b58565b92915050565b6000602082019050612ea46000830184612b67565b92915050565b6000602082019050612ebf6000830184612b76565b92915050565b6000602082019050612eda6000830184612b85565b92915050565b60006020820190508181036000830152612efa8184612b94565b905092915050565b600060a0820190508181036000830152612f1c8188612b94565b9050612f2b6020830187612aeb565b612f386040830186612aeb565b8181036060830152612f4a8185612b94565b9050612f596080830184612cc2565b9695505050505050565b600060c0820190508181036000830152612f7d8189612b94565b9050612f8c6020830188612aeb565b612f996040830187612aeb565b8181036060830152612fab8186612b94565b9050612fba6080830185612cc2565b81810360a0830152612fcc8184612b94565b9050979650505050505050565b60006060820190508181036000830152612ff38186612b94565b90506130026020830185612aeb565b61300f6040830184612b58565b949350505050565b600060608201905081810360008301526130318186612b94565b90506130406020830185612aeb565b81810360408301526130528184612b94565b9050949350505050565b600060808201905081810360008301526130768187612b94565b90506130856020830186612aeb565b81810360408301526130978185612b94565b90506130a66060830184612cc2565b95945050505050565b600060808201905081810360008301526130c98187612b94565b90506130d86020830186612aeb565b6130e56040830185612cc2565b6130f26060830184612cc2565b95945050505050565b600060408201905081810360008301526131158185612b94565b90506131246020830184612b58565b9392505050565b600060608201905081810360008301526131458186612b94565b905081810360208301526131598185612b94565b9050818103604083015261316d8184612b94565b9050949350505050565b600060608201905081810360008301526131918186612b94565b905081810360208301526131a58185612b94565b90506131b46040830184612cc2565b949350505050565b600060808201905081810360008301526131d68187612b94565b905081810360208301526131ea8186612b94565b90506131f96040830185612cc2565b818103606083015261320b8184612b94565b905095945050505050565b600060408201905081810360008301526132308185612b94565b905061323f6020830184612cc2565b9392505050565b600060608201905081810360008301526132608186612b94565b905061326f6020830185612cc2565b81810360408301526132818184612b94565b9050949350505050565b600060208201905081810360008301526132a481612bcd565b9050919050565b600060208201905081810360008301526132c481612bf0565b9050919050565b600060208201905081810360008301526132e481612c13565b9050919050565b6000602082019050818103600083015261330481612c36565b9050919050565b6000602082019050818103600083015261332481612c59565b9050919050565b6000602082019050818103600083015261334481612c7c565b9050919050565b6000602082019050818103600083015261336481612c9f565b9050919050565b60006020820190506133806000830184612cc2565b92915050565b600060408201905061339b6000830185612cc2565b81810360208301526133ad8184612afa565b90509392505050565b60006040820190506133cb6000830185612cc2565b6133d86020830184612cc2565b9392505050565b60006133e96133fa565b90506133f58282613690565b919050565b6000604051905090565b600067ffffffffffffffff82111561341f5761341e6136f0565b5b602082029050602081019050919050565b600067ffffffffffffffff82111561344b5761344a6136f0565b5b6134548261371f565b9050602081019050919050565b6000819050602082019050919050565b600081519050919050565b600081519050919050565b6000602082019050919050565b600082825260208201905092915050565b600082825260208201905092915050565b60006134c1826135d8565b91506134cc836135d8565b9250827fffffffffffffffffffffffffffffffffffffffffffffffffffffffffffffffff03821115613501576135006136c1565b5b828201905092915050565b6000613517826135d8565b9150613522836135d8565b9250817fffffffffffffffffffffffffffffffffffffffffffffffffffffffffffffffff048311821515161561355b5761355a6136c1565b5b828202905092915050565b6000613571826135d8565b915061357c836135d8565b92508282101561358f5761358e6136c1565b5b828203905092915050565b60006135a5826135b8565b9050919050565b60008115159050919050565b600073ffffffffffffffffffffffffffffffffffffffff82169050919050565b6000819050919050565b60006135ed826135f4565b9050919050565b60006135ff826135b8565b9050919050565b600061361182613618565b9050919050565b6000613623826135b8565b9050919050565b60006136358261363c565b9050919050565b6000613647826135b8565b9050919050565b82818337600083830152505050565b60005b8381101561367b578082015181840152602081019050613660565b8381111561368a576000848401525b50505050565b6136998261371f565b810181811067ffffffffffffffff821117156136b8576136b76136f0565b5b80604052505050565b7f4e487b7100000000000000000000000000000000000000000000000000000000600052601160045260246000fd5b7f4e487b7100000000000000000000000000000000000000000000000000000000600052604160045260246000fd5b6000601f19601f8301169050919050565b7f55736572206973206e6f7420612044656c6976657279206167656e742e204f6e60008201527f6c792044656c6976657279206167656e74732063616e2062652061737369676e60208201527f656420666f6f64206f726465722e000000000000000000000000000000000000604082015250565b7f52657374617572616e74206d757374207374616b65206d6f7265207468616e2060008201527f3020657468657200000000000000000000000000000000000000000000000000602082015250565b7f4e6f7420656e6f756768206d6f6e69657320746f20636f766572206f7264657260008201527f20616d6f756e742e000000000000000000000000000000000000000000000000602082015250565b7f4574686572206d757374206d6174636820746f6b656e5374616b650000000000600082015250565b7f44656c6976657279204167656e74206d757374207374616b65206d696e696d7560008201527f6d20313020657468657200000000000000000000000000000000000000000000602082015250565b7f4e6f7420456e6f75676820746f6b656e7320746f207469702e00000000000000600082015250565b7f5573657220697320612044656c6976657279206167656e742e204f6e6c79206360008201527f7573746f6d6572732063616e2061636365737320746869732e00000000000000602082015250565b61393c8161359a565b811461394757600080fd5b50565b613953816135ac565b811461395e57600080fd5b50565b61396a816135d8565b811461397557600080fd5b5056fea264697066735822122020012bf87cd40f14dfa722791ca478f6cd1557419e36c473f7e9c10d08a15d2264736f6c63430008030033",
  "immutableReferences": {},
  "source": "pragma solidity ^0.8.1;\n// pragma solidity 0.7.6;\n// \"SPDX-License-Identifier: UNLICENSED\"\n\nimport \"@openzeppelin/contracts/token/ERC20/IERC20.sol\";\n\nimport \"./helpers_interface.sol\";\nimport \"./registration_interface.sol\";\nimport \"./orders_interface.sol\";\n\n\ncontract Foodiez {\n    \n    address ownerAddress;\n\n    // FoodiezRegistration public _foodiezRegistration;\n    // FoodiezHelpers public _foodiezHelpers;\n    // FoodiezOrders public _foodiezOrders;\n    \n    FoodiezRegistrationInterface public _foodiezRegistration;\n    FoodiezHelpersInterface public _foodiezHelpers;\n    FoodiezOrdersInterface public _foodiezOrders;\n\n    /*************Variables and Event Emitter***********************************************************/\n    \n    uint NetworkServiceFee = 2;\n    uint DeliveryFlatFee = 2;\n\n    event UserRegisteredEvent(string userName, bool isRegistered);\n    event UserInfoEvent(string name, address usrAddress, string usrType, uint256 rating);\n    event RestaurantRegistered(string restaurantName, address rAddress, bool isRegistered);\n    event ItemAddedEvent(string restaurantId, string itemId, string itemName);\n    event OrderPlaced(string orderId, uint total, string orderStatus);\n    event OrderAssignedToDriver(string orderId, address driverAddress, string orderStatus);\n    event OrderDeliveredToUser(string orderId, address driverAddress, string orderStatus);\n    event orderDeliveryConfirmedEvent(uint restaurantTotal, uint deliveryTotal);\n    \n    event AccountApproved(address account, uint256 allowance);\n    event AmountTransferedToAccount(address account, uint256 amount);\n    event TransferedSenderToRecipient(address sender, address recipient, uint256 amount);\n    \n    /*************Token Setup *************************/\n    IERC20 token;\n    \n    address payable owner;\n    \n    mapping (address => uint256) private _balances;\n\n    mapping (address => mapping (address => uint256)) private _allowances;\n    \n    \n    /************Constructor / Modifiers /  contract address setters*********************************************/\n    constructor(FoodiezRegistrationInterface _registerAddress, FoodiezHelpersInterface _helperAddress, FoodiezOrdersInterface _orderAddress, address _token) {\n        ownerAddress = msg.sender;\n        _foodiezHelpers = _helperAddress;\n        _foodiezRegistration = _registerAddress;\n        _foodiezOrders = _orderAddress;\n        \n        _foodiezRegistration.setParentContract(address(this));\n        _foodiezOrders.setParentContract(address(this));\n        \n        owner = payable(msg.sender); // Token deploy address;\n        token = IERC20(_token);\n    }\n\n    modifier OnlyOwner(){\n        require(msg.sender == ownerAddress, \"Foodiez Registration - Only Owner can call this function\");\n        _; // this underscore is requierd otherwise compiler will break;\n    }\n\n    modifier isDeliveryCheck(){\n        require( _foodiezRegistration.checkUserDelivery(msg.sender) == true, \"User is not a Delivery agent. Only Delivery agents can be assigned food order.\");\n        _;\n    }\n    \n    modifier isUserCheck(){\n        require( _foodiezRegistration.checkUserDelivery(msg.sender) == false, \"User is a Delivery agent. Only customers can access this.\");\n        _;\n    }\n\n    /*************Token Functions******************************************/\n    \n    function tokenApproveAccount(address _address, uint256 amount) public payable returns (bool){\n        \n        bool isApproved = token.approve(_address, amount);\n        if(isApproved) emit AccountApproved(_address, amount);\n        return isApproved;\n    }\n    \n    function allowance(address own, address spender) public view returns (uint256){\n        return token.allowance(own, spender);\n    }\n    \n    function getTokenBalanceOf(address _address) public view returns (uint256){\n        return token.balanceOf(_address);\n    }\n    \n    function tokenTransfer(address recipient, uint256 amount) public payable {\n        bool tokenTransfered = token.transfer(recipient, amount);\n        if(tokenTransfered) emit AmountTransferedToAccount(recipient, amount);\n    }\n    \n    function tokenTransferFrom(address sender, address recipient, uint256 amount) public payable {\n        \n        bool tokenTransfered = token.transferFrom(sender, recipient, amount);\n        \n        \n        if(tokenTransfered) emit TransferedSenderToRecipient(sender, recipient, amount);\n    }\n    \n    /*****************Registration of User ( customer and delivery ) and Restaurant *********************/\n    function userRegister(string memory name, uint uType, uint256 amountStake) public payable returns(bool isSuccess){\n        if(uType == 1) { \n            require(msg.value >= 10 ether, \"Delivery Agent must stake minimum 10 ether\"); \n        }\n        \n        // bool success = tokenApproveAccount(msg.sender, amountStake ); // approval of account to be done directly at tokenContract\n        if(amountStake > 0){\n            require(msg.value >= amountStake, \"Ether must match tokenStake\");\n            tokenTransferFrom(owner, msg.sender, amountStake);\n        }\n        \n        bool isRegistered = _foodiezRegistration.userRegistration(msg.sender, name, uType); // setup token here\n        emit UserRegisteredEvent( name, isRegistered);\n        return isRegistered;\n    }\n    \n    function getUserInfo(address _address) public view returns (string memory usrName, address usrAddress, string memory usrType, uint256 rating){\n        \n        return _foodiezRegistration.getUserInfo(_address);\n        \n    }\n    \n    function registerRestaurant(string memory _name, string memory _rId, uint256 amountStake) public payable{\n        \n        bool isRegistered = _foodiezRegistration.createRestaurant(msg.sender, _name, _rId);\n        emit RestaurantRegistered(_name, msg.sender, isRegistered);\n        \n        //token register and purchase\n        require(msg.value >= 0, \"Restaurant must stake more than 0 ether\");\n        // bool success = tokenApproveAccount(msg.sender, amountStake);\n        tokenTransferFrom(owner, msg.sender, amountStake);\n    }\n    \n    function addMenuItems(string memory _itemName, uint _type, uint _price) public {\n        (string memory rId, string memory uniqueId, string memory itemName) = _foodiezRegistration.addMenuItems(msg.sender, _itemName, _type, _price);\n        \n        emit ItemAddedEvent(rId, uniqueId, itemName);\n    }\n    \n    function getRestaurantMenu(address _restaurantAddress, uint _itemNumber) public view returns(string memory itemName, string memory itemType, uint256 itemPrice){\n        return _foodiezRegistration.getRestaurantMenu(_restaurantAddress, _itemNumber);\n    } \n    \n    function getrestaurantInfo(address _restaurantAddress) public view returns(string memory rId, address rAddress, uint256 rItems, uint256 rating){\n        return _foodiezRegistration.getrestaurantInfo(_restaurantAddress);\n    }\n\n    function getAllRestaurants() public view returns(uint256 count, address[] memory restAddresses){\n        return _foodiezRegistration.getTotalRestaurants();\n    }\n    \n    /************Foodiez Orders Vars and Functions**********************/\n    function placeOrder(address _restaurantAddress, uint _itemNum, uint tokenPay) public payable returns (string memory uOrderId, string memory orderItemName, uint256 orderTotal, string memory orderStatus){\n        \n        (string memory rId, address restaurantAddress, string memory itemName, uint totalPrice) = _foodiezRegistration.getOrderTotal(msg.sender, _restaurantAddress, _itemNum);\n        \n        //check for required ether \n        require(msg.value >= totalPrice || weiConverter(tokenPay) >= totalPrice , \"Not enough monies to cover order amount.\");\n        (string memory uniqueId, string memory oItemName, uint256 total, string memory status) = _foodiezRegistration.createFoodOrder(rId, msg.sender, restaurantAddress, itemName, totalPrice);\n        \n        \n        if(tokenPay > 0) {\n            _foodiezOrders.setTokenPayOrder(uniqueId, tokenPay);\n            // transfer(address(this), tokenPay);\n        }\n\n        emit OrderPlaced(uniqueId, total, status);\n        return (uniqueId, oItemName, total, status);\n    }\n\n    function getAllUserOrders(address _userAddress) public view returns (uint256 total){\n        return _foodiezOrders.getAllUserOrders(_userAddress);\n    }\n\n    \n    \n    function getOrderStatus(string memory userOrderId) public view returns (string memory orderId, address userAddress, address driverAddress, string memory items, uint256 total, string memory status){\n        return _foodiezOrders.getUserOrderStatus(userOrderId);\n    }\n    \n    function assignToDriver(string memory userOrderId) public isDeliveryCheck {\n        \n        (address driverAddress, string memory status) = _foodiezOrders.assignOrderToDriver(msg.sender, userOrderId);\n        emit OrderAssignedToDriver(userOrderId,driverAddress, status);\n    }\n    \n    function driverDelieveredOrder(string memory userOrderId) public isDeliveryCheck {\n        \n        (address driverAddress, string memory status) = _foodiezOrders.driverDelieveredOrder(msg.sender, userOrderId);\n        emit OrderDeliveredToUser(userOrderId,driverAddress, status);\n    }\n    \n    function orderDeliveryConfirmed(string memory userOrderId, uint _restaurantRating, uint _deliveryRating, uint tokenTip ) public isUserCheck payable{\n         \n         (address restaurantAddress, address deliveryAddress, address userAddress, uint total ) = _foodiezOrders.orderDeliveryConfirmed(userOrderId);\n        \n        //ratings for restaurant and drivers\n        _foodiezRegistration.addRestaurantRating(restaurantAddress, _restaurantRating);\n        \n        _foodiezRegistration.addDriverRating(deliveryAddress, _deliveryRating);\n         \n        // payment \n        require(getTokenBalanceOf(msg.sender) >= tokenTip, \"Not Enough tokens to tip.\");\n        \n        uint256 tokenPay = _foodiezOrders.getTokenPayOrder(userOrderId);\n        \n         uint finalOrderTotal = total;\n        // take out service fee from total\n        uint serviceFee = _foodiezHelpers.calcServiceFee(total, NetworkServiceFee);\n        finalOrderTotal -= serviceFee;\n            \n        // driver fee + any tips go to \n        uint driverTotal = _foodiezHelpers.calcDriverFlatFee(total, DeliveryFlatFee); \n        finalOrderTotal -= driverTotal; \n        \n        \n        driverTotal += msg.value;\n        \n        // transfer driver money\n        payable(deliveryAddress).transfer(driverTotal);\n        if(tokenTip > 0) {\n            token.transferFrom(userAddress, deliveryAddress, tokenTip);\n        }\n        \n        // transfer rest money\n        if(tokenPay > 0){\n            token.transferFrom(userAddress, restaurantAddress, tokenPay);\n        }else {\n            payable(restaurantAddress).transfer(finalOrderTotal);   \n        }\n        \n        emit orderDeliveryConfirmedEvent(finalOrderTotal, driverTotal);\n    }\n\n    \n    function weiConverter(uint256 tokenPay) internal pure returns(uint){\n        return tokenPay * 10**18;\n    }\n}",
  "sourcePath": "/home/dinesh/Blockchain-Projects/EthereumSolidityProject/contracts/parent.sol",
  "compiler": {
    "name": "solc",
    "version": "0.8.3+commit.8d00100c.Emscripten.clang"
  },
  "schemaVersion": "3.3.3",
  "updatedAt": "2021-04-03T02:57:33.870Z",
  "networkType": "ethereum",
  "devdoc": {
    "kind": "dev",
    "methods": {},
    "version": 1
  },
  "userdoc": {
    "kind": "user",
    "methods": {},
    "version": 1
  }
}