{
  "contractName": "FoodiezHelpers",
  "abi": [
    {
      "inputs": [
        {
          "internalType": "uint256",
          "name": "v",
          "type": "uint256"
        }
      ],
      "name": "uint2str",
      "outputs": [
        {
          "internalType": "string",
          "name": "",
          "type": "string"
        }
      ],
      "stateMutability": "pure",
      "type": "function",
      "constant": true
    },
    {
      "inputs": [
        {
          "internalType": "uint256",
          "name": "_amount",
          "type": "uint256"
        },
        {
          "internalType": "uint256",
          "name": "_networkServiceFee",
          "type": "uint256"
        }
      ],
      "name": "calcServiceFee",
      "outputs": [
        {
          "internalType": "uint256",
          "name": "",
          "type": "uint256"
        }
      ],
      "stateMutability": "pure",
      "type": "function",
      "constant": true
    },
    {
      "inputs": [
        {
          "internalType": "uint256",
          "name": "_amount",
          "type": "uint256"
        },
        {
          "internalType": "uint256",
          "name": "_driverFlatFee",
          "type": "uint256"
        }
      ],
      "name": "calcDriverFlatFee",
      "outputs": [
        {
          "internalType": "uint256",
          "name": "",
          "type": "uint256"
        }
      ],
      "stateMutability": "pure",
      "type": "function",
      "constant": true
    },
    {
      "inputs": [
        {
          "internalType": "uint256",
          "name": "oneStar",
          "type": "uint256"
        },
        {
          "internalType": "uint256",
          "name": "twoStar",
          "type": "uint256"
        },
        {
          "internalType": "uint256",
          "name": "threeStar",
          "type": "uint256"
        },
        {
          "internalType": "uint256",
          "name": "fourStar",
          "type": "uint256"
        },
        {
          "internalType": "uint256",
          "name": "fiveStar",
          "type": "uint256"
        }
      ],
      "name": "calcWeightedAvg",
      "outputs": [
        {
          "internalType": "uint256",
          "name": "",
          "type": "uint256"
        }
      ],
      "stateMutability": "pure",
      "type": "function",
      "constant": true
    },
    {
      "inputs": [
        {
          "internalType": "uint256",
          "name": "inWei",
          "type": "uint256"
        }
      ],
      "name": "weiToEther",
      "outputs": [
        {
          "internalType": "uint256",
          "name": "",
          "type": "uint256"
        }
      ],
      "stateMutability": "pure",
      "type": "function",
      "constant": true
    },
    {
      "inputs": [
        {
          "internalType": "uint256",
          "name": "inEth",
          "type": "uint256"
        }
      ],
      "name": "etherToWei",
      "outputs": [
        {
          "internalType": "uint256",
          "name": "",
          "type": "uint256"
        }
      ],
      "stateMutability": "pure",
      "type": "function",
      "constant": true
    }
  ],
  "bytecode": "0x608060405234801561001057600080fd5b50610986806100206000396000f3fe608060405234801561001057600080fd5b50600436106100625760003560e01c8063221c9cfe1461006757806344a3878c1461009757806365609516146100c7578063d0eff891146100f7578063d8916bb914610127578063f76f950e14610157575b600080fd5b610081600480360381019061007c91906105aa565b610187565b60405161008e91906106c7565b60405180910390f35b6100b160048036038101906100ac91906105e6565b6101a9565b6040516100be91906106c7565b60405180910390f35b6100e160048036038101906100dc91906105aa565b610267565b6040516100ee91906106c7565b60405180910390f35b610111600480360381019061010c9190610581565b610289565b60405161011e91906106c7565b60405180910390f35b610141600480360381019061013c9190610581565b6102ab565b60405161014e91906106c7565b60405180910390f35b610171600480360381019061016c9190610581565b6102cd565b60405161017e91906106a5565b60405180910390f35b6000606482846101979190610785565b6101a19190610754565b905092915050565b6000808260056101b99190610785565b8460046101c69190610785565b8660036101d39190610785565b8860026101e09190610785565b8a60016101ed9190610785565b6101f791906106fe565b61020191906106fe565b61020b91906106fe565b61021591906106fe565b90506000838587898b61022891906106fe565b61023291906106fe565b61023c91906106fe565b61024691906106fe565b9050600081836102569190610754565b905080935050505095945050505050565b6000606482846102779190610785565b6102819190610754565b905092915050565b600080670de0b6b3a7640000905080836102a39190610754565b915050919050565b600080670de0b6b3a7640000905080836102c59190610785565b915050919050565b606060006064905060008167ffffffffffffffff811115610317577f4e487b7100000000000000000000000000000000000000000000000000000000600052604160045260246000fd5b6040519080825280601f01601f1916602001820160405280156103495781602001600182028036833780820191505090505b50905060005b60008514610401576000600a866103669190610899565b9050600a866103759190610754565b955080603061038491906106fe565b60f81b83838061039390610850565b9450815181106103cc577f4e487b7100000000000000000000000000000000000000000000000000000000600052603260045260246000fd5b60200101907effffffffffffffffffffffffffffffffffffffffffffffffffffffffffffff1916908160001a9053505061034f565b60008167ffffffffffffffff811115610443577f4e487b7100000000000000000000000000000000000000000000000000000000600052604160045260246000fd5b6040519080825280601f01601f1916602001820160405280156104755781602001600182028036833780820191505090505b50905060005b8281101561055957836001828561049291906107df565b61049c91906107df565b815181106104d3577f4e487b7100000000000000000000000000000000000000000000000000000000600052603260045260246000fd5b602001015160f81c60f81b828281518110610517577f4e487b7100000000000000000000000000000000000000000000000000000000600052603260045260246000fd5b60200101907effffffffffffffffffffffffffffffffffffffffffffffffffffffffffffff1916908160001a905350808061055190610850565b91505061047b565b5060008190508095505050505050919050565b60008135905061057b81610939565b92915050565b60006020828403121561059357600080fd5b60006105a18482850161056c565b91505092915050565b600080604083850312156105bd57600080fd5b60006105cb8582860161056c565b92505060206105dc8582860161056c565b9150509250929050565b600080600080600060a086880312156105fe57600080fd5b600061060c8882890161056c565b955050602061061d8882890161056c565b945050604061062e8882890161056c565b935050606061063f8882890161056c565b92505060806106508882890161056c565b9150509295509295909350565b6000610668826106e2565b61067281856106ed565b935061068281856020860161081d565b61068b81610928565b840191505092915050565b61069f81610813565b82525050565b600060208201905081810360008301526106bf818461065d565b905092915050565b60006020820190506106dc6000830184610696565b92915050565b600081519050919050565b600082825260208201905092915050565b600061070982610813565b915061071483610813565b9250827fffffffffffffffffffffffffffffffffffffffffffffffffffffffffffffffff03821115610749576107486108ca565b5b828201905092915050565b600061075f82610813565b915061076a83610813565b92508261077a576107796108f9565b5b828204905092915050565b600061079082610813565b915061079b83610813565b9250817fffffffffffffffffffffffffffffffffffffffffffffffffffffffffffffffff04831182151516156107d4576107d36108ca565b5b828202905092915050565b60006107ea82610813565b91506107f583610813565b925082821015610808576108076108ca565b5b828203905092915050565b6000819050919050565b60005b8381101561083b578082015181840152602081019050610820565b8381111561084a576000848401525b50505050565b600061085b82610813565b91507fffffffffffffffffffffffffffffffffffffffffffffffffffffffffffffffff82141561088e5761088d6108ca565b5b600182019050919050565b60006108a482610813565b91506108af83610813565b9250826108bf576108be6108f9565b5b828206905092915050565b7f4e487b7100000000000000000000000000000000000000000000000000000000600052601160045260246000fd5b7f4e487b7100000000000000000000000000000000000000000000000000000000600052601260045260246000fd5b6000601f19601f8301169050919050565b61094281610813565b811461094d57600080fd5b5056fea2646970667358221220ec3254a8c0a98f0c986cef10a959048bd7cfc4f9f4b675a843e83796285134d664736f6c63430008030033",
  "immutableReferences": {},
  "source": "pragma solidity ^0.8.1;\n// pragma solidity 0.7.6;\n// \"SPDX-License-Identifier: UNLICENSED\"\n\ncontract FoodiezHelpers{\n    function uint2str(uint v) public pure returns (string memory) {\n        uint maxlength = 100;\n        bytes memory reversed = new bytes(maxlength);\n        uint i = 0;\n        while (v != 0) {\n            uint remainder = v % 10;\n            v = v / 10;\n            reversed[i++] = bytes1(uint8(48 + remainder));\n        }\n        bytes memory s = new bytes(i); // i + 1 is inefficient\n        for (uint j = 0; j < i; j++) {\n            s[j] = reversed[i - j - 1]; // to avoid the off-by-one error\n        }\n        string memory str = string(s);  // memory isn't implicitly convertible to storage\n        return str;\n    }\n\n        \n    // function uint2str(uint _i) public pure returns (string memory _uintAsString) {\n    //     if (_i == 0) {\n    //     return \"0\";\n    //     }\n        \n    //     uint j = _i;\n    //     uint len;\n        \n    //     while (j != 0) {\n    //         len++;\n    //         j /= 10;\n    //     }\n    //     bytes memory bstr = new bytes(len);\n    //     uint k = len - 1;\n    //     while (_i != 0) {\n    //         bstr[k--] = bytes1(uint8(48 + _i % 10));\n    //         _i /= 10;\n    //     }\n    //     return string(bstr);\n    // }\n    \n    // functions to calculate service fee and driver fee\n    function calcServiceFee(uint _amount, uint _networkServiceFee) public pure returns(uint){\n        \n        // uint serviceFeePercentage = NetworkServiceFee /100;\n        \n        return (_amount * _networkServiceFee) / 100;\n        \n    }\n    \n    function calcDriverFlatFee(uint _amount, uint _driverFlatFee) public pure returns(uint){\n        \n        // uint driverFeePercentage = DriverFlatFee /100;\n        \n        return (_amount * _driverFlatFee) / 100;\n        \n    }\n    \n    function calcWeightedAvg(uint oneStar, uint twoStar, uint threeStar, uint fourStar, uint fiveStar) public pure returns (uint){\n        uint weightPerRating = 1*oneStar + 2*twoStar + 3*threeStar + 4*fourStar + 5*fiveStar;\n        uint totalRatingCount = oneStar + twoStar + threeStar + fourStar + fiveStar;\n        uint averageRating = weightPerRating / totalRatingCount;\n        \n        return averageRating;\n        \n    }\n\n    function weiToEther(uint inWei) public pure returns (uint){\n        uint oneEth = 1000000000000000000; //inWei\n        return (inWei / oneEth);\n    }\n\n    function etherToWei(uint inEth) public pure returns (uint){\n        uint oneEth = 1000000000000000000;\n        return (inEth * oneEth);\n    }\n}",
  "sourcePath": "/home/dinesh/Blockchain-Projects/EthereumSolidityProject/contracts/helpers.sol",
  "compiler": {
    "name": "solc",
    "version": "0.8.3+commit.8d00100c.Emscripten.clang"
  },
  "schemaVersion": "3.3.3",
  "updatedAt": "2021-04-03T02:57:33.929Z",
  "networkType": "ethereum",
  "devdoc": {
    "kind": "dev",
    "methods": {},
    "version": 1
  },
  "userdoc": {
    "kind": "user",
    "methods": {},
    "version": 1
  }
}