{
  "contractName": "Foodiez",
  "abi": [
    {
      "inputs": [
        {
          "internalType": "contract FoodiezRegistrationInterface",
          "name": "_registerAddress",
          "type": "address"
        },
        {
          "internalType": "contract FoodiezHelpersInterface",
          "name": "_helperAddress",
          "type": "address"
        },
        {
          "internalType": "contract FoodiezOrdersInterface",
          "name": "_orderAddress",
          "type": "address"
        },
        {
          "internalType": "address",
          "name": "_token",
          "type": "address"
        }
      ],
      "stateMutability": "nonpayable",
      "type": "constructor"
    },
    {
      "anonymous": false,
      "inputs": [
        {
          "indexed": false,
          "internalType": "address",
          "name": "account",
          "type": "address"
        },
        {
          "indexed": false,
          "internalType": "uint256",
          "name": "allowance",
          "type": "uint256"
        }
      ],
      "name": "AccountApproved",
      "type": "event"
    },
    {
      "anonymous": false,
      "inputs": [
        {
          "indexed": false,
          "internalType": "address",
          "name": "account",
          "type": "address"
        },
        {
          "indexed": false,
          "internalType": "uint256",
          "name": "amount",
          "type": "uint256"
        }
      ],
      "name": "AmountTransferedToAccount",
      "type": "event"
    },
    {
      "anonymous": false,
      "inputs": [
        {
          "indexed": false,
          "internalType": "string",
          "name": "restaurantId",
          "type": "string"
        },
        {
          "indexed": false,
          "internalType": "string",
          "name": "itemId",
          "type": "string"
        },
        {
          "indexed": false,
          "internalType": "string",
          "name": "itemName",
          "type": "string"
        }
      ],
      "name": "ItemAddedEvent",
      "type": "event"
    },
    {
      "anonymous": false,
      "inputs": [
        {
          "indexed": false,
          "internalType": "string",
          "name": "orderId",
          "type": "string"
        },
        {
          "indexed": false,
          "internalType": "address",
          "name": "driverAddress",
          "type": "address"
        },
        {
          "indexed": false,
          "internalType": "string",
          "name": "orderStatus",
          "type": "string"
        }
      ],
      "name": "OrderAssignedToDriver",
      "type": "event"
    },
    {
      "anonymous": false,
      "inputs": [
        {
          "indexed": false,
          "internalType": "string",
          "name": "orderId",
          "type": "string"
        },
        {
          "indexed": false,
          "internalType": "address",
          "name": "driverAddress",
          "type": "address"
        },
        {
          "indexed": false,
          "internalType": "string",
          "name": "orderStatus",
          "type": "string"
        }
      ],
      "name": "OrderDeliveredToUser",
      "type": "event"
    },
    {
      "anonymous": false,
      "inputs": [
        {
          "indexed": false,
          "internalType": "string",
          "name": "orderId",
          "type": "string"
        },
        {
          "indexed": false,
          "internalType": "uint256",
          "name": "total",
          "type": "uint256"
        },
        {
          "indexed": false,
          "internalType": "string",
          "name": "orderStatus",
          "type": "string"
        }
      ],
      "name": "OrderPlaced",
      "type": "event"
    },
    {
      "anonymous": false,
      "inputs": [
        {
          "indexed": false,
          "internalType": "string",
          "name": "restaurantName",
          "type": "string"
        },
        {
          "indexed": false,
          "internalType": "address",
          "name": "rAddress",
          "type": "address"
        },
        {
          "indexed": false,
          "internalType": "bool",
          "name": "isRegistered",
          "type": "bool"
        }
      ],
      "name": "RestaurantRegistered",
      "type": "event"
    },
    {
      "anonymous": false,
      "inputs": [
        {
          "indexed": false,
          "internalType": "address",
          "name": "sender",
          "type": "address"
        },
        {
          "indexed": false,
          "internalType": "address",
          "name": "recipient",
          "type": "address"
        },
        {
          "indexed": false,
          "internalType": "uint256",
          "name": "amount",
          "type": "uint256"
        }
      ],
      "name": "TransferedSenderToRecipient",
      "type": "event"
    },
    {
      "anonymous": false,
      "inputs": [
        {
          "indexed": false,
          "internalType": "string",
          "name": "name",
          "type": "string"
        },
        {
          "indexed": false,
          "internalType": "address",
          "name": "usrAddress",
          "type": "address"
        },
        {
          "indexed": false,
          "internalType": "string",
          "name": "usrType",
          "type": "string"
        },
        {
          "indexed": false,
          "internalType": "uint256",
          "name": "rating",
          "type": "uint256"
        }
      ],
      "name": "UserInfoEvent",
      "type": "event"
    },
    {
      "anonymous": false,
      "inputs": [
        {
          "indexed": false,
          "internalType": "string",
          "name": "userName",
          "type": "string"
        },
        {
          "indexed": false,
          "internalType": "bool",
          "name": "isRegistered",
          "type": "bool"
        }
      ],
      "name": "UserRegisteredEvent",
      "type": "event"
    },
    {
      "anonymous": false,
      "inputs": [
        {
          "indexed": false,
          "internalType": "uint256",
          "name": "restaurantTotal",
          "type": "uint256"
        },
        {
          "indexed": false,
          "internalType": "uint256",
          "name": "deliveryTotal",
          "type": "uint256"
        }
      ],
      "name": "orderDeliveryConfirmedEvent",
      "type": "event"
    },
    {
      "inputs": [],
      "name": "_foodiezHelpers",
      "outputs": [
        {
          "internalType": "contract FoodiezHelpersInterface",
          "name": "",
          "type": "address"
        }
      ],
      "stateMutability": "view",
      "type": "function",
      "constant": true
    },
    {
      "inputs": [],
      "name": "_foodiezOrders",
      "outputs": [
        {
          "internalType": "contract FoodiezOrdersInterface",
          "name": "",
          "type": "address"
        }
      ],
      "stateMutability": "view",
      "type": "function",
      "constant": true
    },
    {
      "inputs": [],
      "name": "_foodiezRegistration",
      "outputs": [
        {
          "internalType": "contract FoodiezRegistrationInterface",
          "name": "",
          "type": "address"
        }
      ],
      "stateMutability": "view",
      "type": "function",
      "constant": true
    },
    {
      "inputs": [
        {
          "internalType": "address",
          "name": "_address",
          "type": "address"
        },
        {
          "internalType": "uint256",
          "name": "amount",
          "type": "uint256"
        }
      ],
      "name": "tokenApproveAccount",
      "outputs": [
        {
          "internalType": "bool",
          "name": "",
          "type": "bool"
        }
      ],
      "stateMutability": "payable",
      "type": "function",
      "payable": true
    },
    {
      "inputs": [
        {
          "internalType": "address",
          "name": "own",
          "type": "address"
        },
        {
          "internalType": "address",
          "name": "spender",
          "type": "address"
        }
      ],
      "name": "allowance",
      "outputs": [
        {
          "internalType": "uint256",
          "name": "",
          "type": "uint256"
        }
      ],
      "stateMutability": "view",
      "type": "function",
      "constant": true
    },
    {
      "inputs": [
        {
          "internalType": "address",
          "name": "_address",
          "type": "address"
        }
      ],
      "name": "getTokenBalanceOf",
      "outputs": [
        {
          "internalType": "uint256",
          "name": "",
          "type": "uint256"
        }
      ],
      "stateMutability": "view",
      "type": "function",
      "constant": true
    },
    {
      "inputs": [
        {
          "internalType": "address",
          "name": "recipient",
          "type": "address"
        },
        {
          "internalType": "uint256",
          "name": "amount",
          "type": "uint256"
        }
      ],
      "name": "tokenTransfer",
      "outputs": [],
      "stateMutability": "payable",
      "type": "function",
      "payable": true
    },
    {
      "inputs": [
        {
          "internalType": "address",
          "name": "sender",
          "type": "address"
        },
        {
          "internalType": "address",
          "name": "recipient",
          "type": "address"
        },
        {
          "internalType": "uint256",
          "name": "amount",
          "type": "uint256"
        }
      ],
      "name": "tokenTransferFrom",
      "outputs": [],
      "stateMutability": "payable",
      "type": "function",
      "payable": true
    },
    {
      "inputs": [
        {
          "internalType": "string",
          "name": "name",
          "type": "string"
        },
        {
          "internalType": "uint256",
          "name": "uType",
          "type": "uint256"
        },
        {
          "internalType": "uint256",
          "name": "amountStake",
          "type": "uint256"
        }
      ],
      "name": "userRegister",
      "outputs": [
        {
          "internalType": "bool",
          "name": "isSuccess",
          "type": "bool"
        }
      ],
      "stateMutability": "payable",
      "type": "function",
      "payable": true
    },
    {
      "inputs": [
        {
          "internalType": "address",
          "name": "_address",
          "type": "address"
        }
      ],
      "name": "getUserInfo",
      "outputs": [
        {
          "internalType": "string",
          "name": "usrName",
          "type": "string"
        },
        {
          "internalType": "address",
          "name": "usrAddress",
          "type": "address"
        },
        {
          "internalType": "string",
          "name": "usrType",
          "type": "string"
        },
        {
          "internalType": "uint256",
          "name": "rating",
          "type": "uint256"
        }
      ],
      "stateMutability": "view",
      "type": "function",
      "constant": true
    },
    {
      "inputs": [
        {
          "internalType": "string",
          "name": "_name",
          "type": "string"
        },
        {
          "internalType": "string",
          "name": "_rId",
          "type": "string"
        },
        {
          "internalType": "uint256",
          "name": "amountStake",
          "type": "uint256"
        }
      ],
      "name": "registerRestaurant",
      "outputs": [],
      "stateMutability": "payable",
      "type": "function",
      "payable": true
    },
    {
      "inputs": [
        {
          "internalType": "string",
          "name": "_itemName",
          "type": "string"
        },
        {
          "internalType": "uint256",
          "name": "_type",
          "type": "uint256"
        },
        {
          "internalType": "uint256",
          "name": "_price",
          "type": "uint256"
        }
      ],
      "name": "addMenuItems",
      "outputs": [],
      "stateMutability": "nonpayable",
      "type": "function"
    },
    {
      "inputs": [
        {
          "internalType": "address",
          "name": "_restaurantAddress",
          "type": "address"
        },
        {
          "internalType": "uint256",
          "name": "_itemNumber",
          "type": "uint256"
        }
      ],
      "name": "getRestaurantMenu",
      "outputs": [
        {
          "internalType": "string",
          "name": "itemName",
          "type": "string"
        },
        {
          "internalType": "string",
          "name": "itemType",
          "type": "string"
        },
        {
          "internalType": "uint256",
          "name": "itemPrice",
          "type": "uint256"
        }
      ],
      "stateMutability": "view",
      "type": "function",
      "constant": true
    },
    {
      "inputs": [
        {
          "internalType": "address",
          "name": "_restaurantAddress",
          "type": "address"
        }
      ],
      "name": "getrestaurantInfo",
      "outputs": [
        {
          "internalType": "string",
          "name": "rId",
          "type": "string"
        },
        {
          "internalType": "address",
          "name": "rAddress",
          "type": "address"
        },
        {
          "internalType": "uint256",
          "name": "rItems",
          "type": "uint256"
        },
        {
          "internalType": "uint256",
          "name": "rating",
          "type": "uint256"
        }
      ],
      "stateMutability": "view",
      "type": "function",
      "constant": true
    },
    {
      "inputs": [],
      "name": "getAllRestaurants",
      "outputs": [
        {
          "internalType": "uint256",
          "name": "",
          "type": "uint256"
        },
        {
          "internalType": "address[]",
          "name": "restAddresses",
          "type": "address[]"
        }
      ],
      "stateMutability": "view",
      "type": "function",
      "constant": true
    },
    {
      "inputs": [
        {
          "internalType": "address",
          "name": "_restaurantAddress",
          "type": "address"
        },
        {
          "internalType": "uint256",
          "name": "_itemNum",
          "type": "uint256"
        },
        {
          "internalType": "uint256",
          "name": "tokenPay",
          "type": "uint256"
        }
      ],
      "name": "placeOrder",
      "outputs": [
        {
          "internalType": "string",
          "name": "uOrderId",
          "type": "string"
        },
        {
          "internalType": "string",
          "name": "orderItemName",
          "type": "string"
        },
        {
          "internalType": "uint256",
          "name": "orderTotal",
          "type": "uint256"
        },
        {
          "internalType": "string",
          "name": "orderStatus",
          "type": "string"
        }
      ],
      "stateMutability": "payable",
      "type": "function",
      "payable": true
    },
    {
      "inputs": [],
      "name": "getAllUserOrders",
      "outputs": [
        {
          "internalType": "uint256",
          "name": "total",
          "type": "uint256"
        },
        {
          "internalType": "string[]",
          "name": "userOrders",
          "type": "string[]"
        }
      ],
      "stateMutability": "view",
      "type": "function",
      "constant": true
    },
    {
      "inputs": [
        {
          "internalType": "string",
          "name": "userOrderId",
          "type": "string"
        }
      ],
      "name": "getOrderStatus",
      "outputs": [
        {
          "internalType": "string",
          "name": "orderId",
          "type": "string"
        },
        {
          "internalType": "address",
          "name": "userAddress",
          "type": "address"
        },
        {
          "internalType": "address",
          "name": "driverAddress",
          "type": "address"
        },
        {
          "internalType": "string",
          "name": "items",
          "type": "string"
        },
        {
          "internalType": "uint256",
          "name": "total",
          "type": "uint256"
        },
        {
          "internalType": "string",
          "name": "status",
          "type": "string"
        }
      ],
      "stateMutability": "view",
      "type": "function",
      "constant": true
    },
    {
      "inputs": [
        {
          "internalType": "string",
          "name": "userOrderId",
          "type": "string"
        }
      ],
      "name": "assignToDriver",
      "outputs": [],
      "stateMutability": "nonpayable",
      "type": "function"
    },
    {
      "inputs": [
        {
          "internalType": "string",
          "name": "userOrderId",
          "type": "string"
        }
      ],
      "name": "driverDelieveredOrder",
      "outputs": [],
      "stateMutability": "nonpayable",
      "type": "function"
    },
    {
      "inputs": [
        {
          "internalType": "string",
          "name": "userOrderId",
          "type": "string"
        },
        {
          "internalType": "uint256",
          "name": "_restaurantRating",
          "type": "uint256"
        },
        {
          "internalType": "uint256",
          "name": "_deliveryRating",
          "type": "uint256"
        },
        {
          "internalType": "uint256",
          "name": "tokenTip",
          "type": "uint256"
        }
      ],
      "name": "orderDeliveryConfirmed",
      "outputs": [],
      "stateMutability": "payable",
      "type": "function",
      "payable": true
    }
  ],
  "bytecode": "0x6080604052600260045560026005553480156200001b57600080fd5b50604051620042bf380380620042bf833981810160405281019062000041919062000410565b336000806101000a81548173ffffffffffffffffffffffffffffffffffffffff021916908373ffffffffffffffffffffffffffffffffffffffff16021790555082600260006101000a81548173ffffffffffffffffffffffffffffffffffffffff021916908373ffffffffffffffffffffffffffffffffffffffff16021790555083600160006101000a81548173ffffffffffffffffffffffffffffffffffffffff021916908373ffffffffffffffffffffffffffffffffffffffff16021790555081600360006101000a81548173ffffffffffffffffffffffffffffffffffffffff021916908373ffffffffffffffffffffffffffffffffffffffff160217905550600160009054906101000a900473ffffffffffffffffffffffffffffffffffffffff1673ffffffffffffffffffffffffffffffffffffffff1663765ccb6b306040518263ffffffff1660e01b8152600401620001a19190620004d2565b600060405180830381600087803b158015620001bc57600080fd5b505af1158015620001d1573d6000803e3d6000fd5b505050506040513d6000823e3d601f19601f82011682018060405250810190620001fc91906200047c565b50600360009054906101000a900473ffffffffffffffffffffffffffffffffffffffff1673ffffffffffffffffffffffffffffffffffffffff1663765ccb6b306040518263ffffffff1660e01b81526004016200025a9190620004d2565b600060405180830381600087803b1580156200027557600080fd5b505af11580156200028a573d6000803e3d6000fd5b505050506040513d6000823e3d601f19601f82011682018060405250810190620002b591906200047c565b5033600760006101000a81548173ffffffffffffffffffffffffffffffffffffffff021916908373ffffffffffffffffffffffffffffffffffffffff16021790555080600660006101000a81548173ffffffffffffffffffffffffffffffffffffffff021916908373ffffffffffffffffffffffffffffffffffffffff16021790555050505050620006d2565b600062000359620003538462000518565b620004ef565b9050828152602081018484840111156200037257600080fd5b6200037f848285620005be565b509392505050565b60008151905062000398816200066a565b92915050565b600081519050620003af8162000684565b92915050565b600081519050620003c6816200069e565b92915050565b600081519050620003dd81620006b8565b92915050565b600082601f830112620003f557600080fd5b81516200040784826020860162000342565b91505092915050565b600080600080608085870312156200042757600080fd5b60006200043787828801620003cc565b94505060206200044a878288016200039e565b93505060406200045d87828801620003b5565b9250506060620004708782880162000387565b91505092959194509250565b6000602082840312156200048f57600080fd5b600082015167ffffffffffffffff811115620004aa57600080fd5b620004b884828501620003e3565b91505092915050565b620004cc816200054e565b82525050565b6000602082019050620004e96000830184620004c1565b92915050565b6000620004fb6200050e565b9050620005098282620005f4565b919050565b6000604051905090565b600067ffffffffffffffff8211156200053657620005356200062a565b5b620005418262000659565b9050602081019050919050565b60006200055b826200059e565b9050919050565b60006200056f826200054e565b9050919050565b600062000583826200054e565b9050919050565b600062000597826200054e565b9050919050565b600073ffffffffffffffffffffffffffffffffffffffff82169050919050565b60005b83811015620005de578082015181840152602081019050620005c1565b83811115620005ee576000848401525b50505050565b620005ff8262000659565b810181811067ffffffffffffffff821117156200062157620006206200062a565b5b80604052505050565b7f4e487b7100000000000000000000000000000000000000000000000000000000600052604160045260246000fd5b6000601f19601f8301169050919050565b62000675816200054e565b81146200068157600080fd5b50565b6200068f8162000562565b81146200069b57600080fd5b50565b620006a98162000576565b8114620006b557600080fd5b50565b620006c3816200058a565b8114620006cf57600080fd5b50565b613bdd80620006e26000396000f3fe60806040526004361061012a5760003560e01c806387734400116100ab578063d8c01ed11161006f578063d8c01ed1146103d7578063dd62ed3e14610417578063e1eb4abc14610454578063e523d1321461047f578063e77c719e146104a8578063e79034a8146104d85761012a565b806387734400146103055780638f79b93e14610331578063961974ba1461035d578063aedfb5d314610379578063c6f4dc37146103bb5761012a565b80636386c1c7116100f25780636386c1c71461021057806366a257c41461025057806368cdafe61461027957806377e16afe1461029557806383894548146102c85761012a565b80631de3b27d1461012f5780632d9ee1d11461015f578063331723eb1461018a578063617aada9146101c9578063623bb431146101f4575b600080fd5b610149600480360381019061014491906129d8565b610501565b6040516101569190612ffd565b60405180910390f35b34801561016b57600080fd5b506101746106cb565b6040516101819190613033565b60405180910390f35b34801561019657600080fd5b506101b160048036038101906101ac91906124c4565b6106f1565b6040516101c093929190613300565b60405180910390f35b3480156101d557600080fd5b506101de6107b5565b6040516101eb9190613018565b60405180910390f35b61020e60048036038101906102099190612a3f565b6107db565b005b34801561021c57600080fd5b5061023760048036038101906102329190612359565b610f86565b60405161024794939291906131e5565b60405180910390f35b34801561025c57600080fd5b50610277600480360381019061027291906129d8565b61104d565b005b610293600480360381019061028e91906124c4565b611153565b005b6102af60048036038101906102aa9190612500565b61124b565b6040516102bf9493929190613345565b60405180910390f35b3480156102d457600080fd5b506102ef60048036038101906102ea9190612359565b611523565b6040516102fc91906134f4565b60405180910390f35b34801561031157600080fd5b5061031a6115d7565b60405161032892919061350f565b60405180910390f35b34801561033d57600080fd5b50610346611688565b60405161035492919061353f565b60405180910390f35b61037760048036038101906103729190612421565b611739565b005b34801561038557600080fd5b506103a0600480360381019061039b9190612578565b611836565b6040516103b2969594939291906130ec565b60405180910390f35b6103d560048036038101906103d0919061282f565b611906565b005b3480156103e357600080fd5b506103fe60048036038101906103f99190612359565b611a6d565b60405161040e9493929190613238565b60405180910390f35b34801561042357600080fd5b5061043e60048036038101906104399190612382565b611b33565b60405161044b91906134f4565b60405180910390f35b34801561046057600080fd5b50610469611bea565b604051610476919061304e565b60405180910390f35b34801561048b57600080fd5b506104a660048036038101906104a19190612578565b611c10565b005b6104c260048036038101906104bd91906124c4565b611dfc565b6040516104cf9190612ffd565b60405180910390f35b3480156104e457600080fd5b506104ff60048036038101906104fa9190612578565b611efa565b005b6000600183141561055857678ac7230489e80000341015610557576040517f08c379a000000000000000000000000000000000000000000000000000000000815260040161054e90613494565b60405180910390fd5b5b60008211156105d257813410156105a4576040517f08c379a000000000000000000000000000000000000000000000000000000000815260040161059b90613474565b60405180910390fd5b6105d1600760009054906101000a900473ffffffffffffffffffffffffffffffffffffffff163384611739565b5b6000600160009054906101000a900473ffffffffffffffffffffffffffffffffffffffff1673ffffffffffffffffffffffffffffffffffffffff1663aded60393387876040518463ffffffff1660e01b815260040161063393929190612f4a565b602060405180830381600087803b15801561064d57600080fd5b505af1158015610661573d6000803e3d6000fd5b505050506040513d601f19601f82011682018060405250810190610685919061254f565b90507f7f9ecb5a097a48ba760452c7dc9a9b85f16117e64abb0d9248a484a582bb286685826040516106b8929190613284565b60405180910390a1809150509392505050565b600360009054906101000a900473ffffffffffffffffffffffffffffffffffffffff1681565b6060806000600160009054906101000a900473ffffffffffffffffffffffffffffffffffffffff1673ffffffffffffffffffffffffffffffffffffffff1663331723eb86866040518363ffffffff1660e01b8152600401610753929190612fd4565b60006040518083038186803b15801561076b57600080fd5b505afa15801561077f573d6000803e3d6000fd5b505050506040513d6000823e3d601f19601f820116820180604052508101906107a891906128ae565b9250925092509250925092565b600260009054906101000a900473ffffffffffffffffffffffffffffffffffffffff1681565b60001515600160009054906101000a900473ffffffffffffffffffffffffffffffffffffffff1673ffffffffffffffffffffffffffffffffffffffff16635f9d8de6336040518263ffffffff1660e01b815260040161083a9190612e5a565b60206040518083038186803b15801561085257600080fd5b505afa158015610866573d6000803e3d6000fd5b505050506040513d601f19601f8201168201806040525081019061088a919061254f565b1515146108cc576040517f08c379a00000000000000000000000000000000000000000000000000000000081526004016108c3906134d4565b60405180910390fd5b600080600080600360009054906101000a900473ffffffffffffffffffffffffffffffffffffffff1673ffffffffffffffffffffffffffffffffffffffff1663b1a68ff2896040518263ffffffff1660e01b815260040161092d9190613069565b608060405180830381600087803b15801561094757600080fd5b505af115801561095b573d6000803e3d6000fd5b505050506040513d601f19601f8201168201806040525081019061097f91906123be565b9350935093509350600160009054906101000a900473ffffffffffffffffffffffffffffffffffffffff1673ffffffffffffffffffffffffffffffffffffffff16638ab7ad7785896040518363ffffffff1660e01b81526004016109e4929190612fd4565b600060405180830381600087803b1580156109fe57600080fd5b505af1158015610a12573d6000803e3d6000fd5b50505050600160009054906101000a900473ffffffffffffffffffffffffffffffffffffffff1673ffffffffffffffffffffffffffffffffffffffff1663dfe7669d84886040518363ffffffff1660e01b8152600401610a73929190612fd4565b600060405180830381600087803b158015610a8d57600080fd5b505af1158015610aa1573d6000803e3d6000fd5b5050505084610aaf33611523565b1015610af0576040517f08c379a0000000000000000000000000000000000000000000000000000000008152600401610ae7906134b4565b60405180910390fd5b6000600360009054906101000a900473ffffffffffffffffffffffffffffffffffffffff1673ffffffffffffffffffffffffffffffffffffffff1663d182dbcd8a6040518263ffffffff1660e01b8152600401610b4d9190613069565b60206040518083038186803b158015610b6557600080fd5b505afa158015610b79573d6000803e3d6000fd5b505050506040513d601f19601f82011682018060405250810190610b9d9190612aba565b905060008290506000600260009054906101000a900473ffffffffffffffffffffffffffffffffffffffff1673ffffffffffffffffffffffffffffffffffffffff166365609516856004546040518363ffffffff1660e01b8152600401610c0592919061356f565b60206040518083038186803b158015610c1d57600080fd5b505afa158015610c31573d6000803e3d6000fd5b505050506040513d601f19601f82011682018060405250810190610c559190612aba565b90508082610c639190613795565b91506000600260009054906101000a900473ffffffffffffffffffffffffffffffffffffffff1673ffffffffffffffffffffffffffffffffffffffff1663221c9cfe866005546040518363ffffffff1660e01b8152600401610cc692919061356f565b60206040518083038186803b158015610cde57600080fd5b505afa158015610cf2573d6000803e3d6000fd5b505050506040513d601f19601f82011682018060405250810190610d169190612aba565b90508083610d249190613795565b92503481610d3291906136e5565b90508673ffffffffffffffffffffffffffffffffffffffff166108fc829081150290604051600060405180830381858888f19350505050158015610d7a573d6000803e3d6000fd5b506000891115610e3757600660009054906101000a900473ffffffffffffffffffffffffffffffffffffffff1673ffffffffffffffffffffffffffffffffffffffff166323b872dd87898c6040518463ffffffff1660e01b8152600401610de393929190612e9e565b602060405180830381600087803b158015610dfd57600080fd5b505af1158015610e11573d6000803e3d6000fd5b505050506040513d601f19601f82011682018060405250810190610e35919061254f565b505b6000841115610ef757600660009054906101000a900473ffffffffffffffffffffffffffffffffffffffff1673ffffffffffffffffffffffffffffffffffffffff166323b872dd878a876040518463ffffffff1660e01b8152600401610e9f93929190612e9e565b602060405180830381600087803b158015610eb957600080fd5b505af1158015610ecd573d6000803e3d6000fd5b505050506040513d601f19601f82011682018060405250810190610ef1919061254f565b50610f3f565b8773ffffffffffffffffffffffffffffffffffffffff166108fc849081150290604051600060405180830381858888f19350505050158015610f3d573d6000803e3d6000fd5b505b7f292961d24e58ea05a8b5bca78932ec898d03d1646fb56c0f81495770e5872d098382604051610f7092919061356f565b60405180910390a1505050505050505050505050565b6060600060606000600160009054906101000a900473ffffffffffffffffffffffffffffffffffffffff1673ffffffffffffffffffffffffffffffffffffffff16636386c1c7866040518263ffffffff1660e01b8152600401610fe99190612e5a565b60006040518083038186803b15801561100157600080fd5b505afa158015611015573d6000803e3d6000fd5b505050506040513d6000823e3d601f19601f8201168201806040525081019061103e919061268a565b93509350935093509193509193565b6000806000600160009054906101000a900473ffffffffffffffffffffffffffffffffffffffff1673ffffffffffffffffffffffffffffffffffffffff1663debd2ec4338888886040518563ffffffff1660e01b81526004016110b39493929190612f88565b600060405180830381600087803b1580156110cd57600080fd5b505af11580156110e1573d6000803e3d6000fd5b505050506040513d6000823e3d601f19601f8201168201806040525081019061110a9190612798565b9250925092507fe591a00874db47ebb9c845e5d6550ba44f9b94231216d912524a6b01cf64c362838383604051611143939291906132b4565b60405180910390a1505050505050565b6000600660009054906101000a900473ffffffffffffffffffffffffffffffffffffffff1673ffffffffffffffffffffffffffffffffffffffff1663a9059cbb84846040518363ffffffff1660e01b81526004016111b2929190612fd4565b602060405180830381600087803b1580156111cc57600080fd5b505af11580156111e0573d6000803e3d6000fd5b505050506040513d601f19601f82011682018060405250810190611204919061254f565b90508015611246577fbdbbb9910baae524fdb61a2b98c4264b1b7c7dd08291b66731a279ab74fa778f838360405161123d929190612fd4565b60405180910390a15b505050565b60608060006060600080600080600160009054906101000a900473ffffffffffffffffffffffffffffffffffffffff1673ffffffffffffffffffffffffffffffffffffffff1663f0645d7a338d8d6040518463ffffffff1660e01b81526004016112b793929190612e9e565b60006040518083038186803b1580156112cf57600080fd5b505afa1580156112e3573d6000803e3d6000fd5b505050506040513d6000823e3d601f19601f8201168201806040525081019061130c919061268a565b9350935093509350803410158061132b5750806113288a6120e6565b10155b61136a576040517f08c379a000000000000000000000000000000000000000000000000000000000815260040161136190613454565b60405180910390fd5b600080600080600160009054906101000a900473ffffffffffffffffffffffffffffffffffffffff1673ffffffffffffffffffffffffffffffffffffffff166384a101cd89338a8a8a6040518663ffffffff1660e01b81526004016113d395949392919061308b565b600060405180830381600087803b1580156113ed57600080fd5b505af1158015611401573d6000803e3d6000fd5b505050506040513d6000823e3d601f19601f8201168201806040525081019061142a919061292d565b935093509350935060008d11156114cb57600360009054906101000a900473ffffffffffffffffffffffffffffffffffffffff1673ffffffffffffffffffffffffffffffffffffffff16639b4708d1858f6040518363ffffffff1660e01b815260040161149892919061339f565b600060405180830381600087803b1580156114b257600080fd5b505af11580156114c6573d6000803e3d6000fd5b505050505b7f8e1877496607c24fc170bde9db9a8cc815be5b7017482f5770386dd5f0a47b8a8483836040516114fe939291906133cf565b60405180910390a1838383839b509b509b509b50505050505050505093509350935093565b6000600660009054906101000a900473ffffffffffffffffffffffffffffffffffffffff1673ffffffffffffffffffffffffffffffffffffffff166370a08231836040518263ffffffff1660e01b81526004016115809190612e5a565b60206040518083038186803b15801561159857600080fd5b505afa1580156115ac573d6000803e3d6000fd5b505050506040513d601f19601f820116820180604052508101906115d09190612aba565b9050919050565b60006060600160009054906101000a900473ffffffffffffffffffffffffffffffffffffffff1673ffffffffffffffffffffffffffffffffffffffff1663707715046040518163ffffffff1660e01b815260040160006040518083038186803b15801561164357600080fd5b505afa158015611657573d6000803e3d6000fd5b505050506040513d6000823e3d601f19601f820116820180604052508101906116809190612ae3565b915091509091565b60006060600360009054906101000a900473ffffffffffffffffffffffffffffffffffffffff1673ffffffffffffffffffffffffffffffffffffffff16638f79b93e6040518163ffffffff1660e01b815260040160006040518083038186803b1580156116f457600080fd5b505afa158015611708573d6000803e3d6000fd5b505050506040513d6000823e3d601f19601f820116820180604052508101906117319190612b37565b915091509091565b6000600660009054906101000a900473ffffffffffffffffffffffffffffffffffffffff1673ffffffffffffffffffffffffffffffffffffffff166323b872dd8585856040518463ffffffff1660e01b815260040161179a93929190612e9e565b602060405180830381600087803b1580156117b457600080fd5b505af11580156117c8573d6000803e3d6000fd5b505050506040513d601f19601f820116820180604052508101906117ec919061254f565b90508015611830577f3ae895b079028f50d70d4fdc12d6bbad245651b4fbe50d7a931752330a025dec84848460405161182793929190612e9e565b60405180910390a15b50505050565b6060600080606060006060600360009054906101000a900473ffffffffffffffffffffffffffffffffffffffff1673ffffffffffffffffffffffffffffffffffffffff16637ab8ae16886040518263ffffffff1660e01b815260040161189c9190613069565b60006040518083038186803b1580156118b457600080fd5b505afa1580156118c8573d6000803e3d6000fd5b505050506040513d6000823e3d601f19601f820116820180604052508101906118f191906125b9565b95509550955095509550955091939550919395565b6000600160009054906101000a900473ffffffffffffffffffffffffffffffffffffffff1673ffffffffffffffffffffffffffffffffffffffff1663096309233386866040518463ffffffff1660e01b815260040161196793929190612f05565b602060405180830381600087803b15801561198157600080fd5b505af1158015611995573d6000803e3d6000fd5b505050506040513d601f19601f820116820180604052508101906119b9919061254f565b90507f1fec3d043cdeae56abac63b9485c8e810e01d8caf5281e06e2a78cbb82b9f5628433836040516119ee93929190613162565b60405180910390a16000341015611a3a576040517f08c379a0000000000000000000000000000000000000000000000000000000008152600401611a3190613434565b60405180910390fd5b611a67600760009054906101000a900473ffffffffffffffffffffffffffffffffffffffff163384611739565b50505050565b60606000806000600160009054906101000a900473ffffffffffffffffffffffffffffffffffffffff1673ffffffffffffffffffffffffffffffffffffffff1663d8c01ed1866040518263ffffffff1660e01b8152600401611acf9190612e5a565b60006040518083038186803b158015611ae757600080fd5b505afa158015611afb573d6000803e3d6000fd5b505050506040513d6000823e3d601f19601f82011682018060405250810190611b24919061271d565b93509350935093509193509193565b6000600660009054906101000a900473ffffffffffffffffffffffffffffffffffffffff1673ffffffffffffffffffffffffffffffffffffffff1663dd62ed3e84846040518363ffffffff1660e01b8152600401611b92929190612e75565b60206040518083038186803b158015611baa57600080fd5b505afa158015611bbe573d6000803e3d6000fd5b505050506040513d601f19601f82011682018060405250810190611be29190612aba565b905092915050565b600160009054906101000a900473ffffffffffffffffffffffffffffffffffffffff1681565b60011515600160009054906101000a900473ffffffffffffffffffffffffffffffffffffffff1673ffffffffffffffffffffffffffffffffffffffff16635f9d8de6336040518263ffffffff1660e01b8152600401611c6f9190612e5a565b60206040518083038186803b158015611c8757600080fd5b505afa158015611c9b573d6000803e3d6000fd5b505050506040513d601f19601f82011682018060405250810190611cbf919061254f565b151514611d01576040517f08c379a0000000000000000000000000000000000000000000000000000000008152600401611cf890613414565b60405180910390fd5b600080600360009054906101000a900473ffffffffffffffffffffffffffffffffffffffff1673ffffffffffffffffffffffffffffffffffffffff166357c8666933856040518363ffffffff1660e01b8152600401611d61929190612ed5565b600060405180830381600087803b158015611d7b57600080fd5b505af1158015611d8f573d6000803e3d6000fd5b505050506040513d6000823e3d601f19601f82011682018060405250810190611db89190612470565b915091507ff77ddd1c4747d74e4d857ae1988928cd346feca8a5f694b0c39f7f53e5193580838383604051611def939291906131a0565b60405180910390a1505050565b600080600660009054906101000a900473ffffffffffffffffffffffffffffffffffffffff1673ffffffffffffffffffffffffffffffffffffffff1663095ea7b385856040518363ffffffff1660e01b8152600401611e5c929190612fd4565b602060405180830381600087803b158015611e7657600080fd5b505af1158015611e8a573d6000803e3d6000fd5b505050506040513d601f19601f82011682018060405250810190611eae919061254f565b90508015611ef0577fbab4e436a1f75e4f561126509ef0a39ce3a8c2c0d42e0269a857bee6d508d9008484604051611ee7929190612fd4565b60405180910390a15b8091505092915050565b60011515600160009054906101000a900473ffffffffffffffffffffffffffffffffffffffff1673ffffffffffffffffffffffffffffffffffffffff16635f9d8de6336040518263ffffffff1660e01b8152600401611f599190612e5a565b60206040518083038186803b158015611f7157600080fd5b505afa158015611f85573d6000803e3d6000fd5b505050506040513d601f19601f82011682018060405250810190611fa9919061254f565b151514611feb576040517f08c379a0000000000000000000000000000000000000000000000000000000008152600401611fe290613414565b60405180910390fd5b600080600360009054906101000a900473ffffffffffffffffffffffffffffffffffffffff1673ffffffffffffffffffffffffffffffffffffffff1663748f9f1233856040518363ffffffff1660e01b815260040161204b929190612ed5565b600060405180830381600087803b15801561206557600080fd5b505af1158015612079573d6000803e3d6000fd5b505050506040513d6000823e3d601f19601f820116820180604052508101906120a29190612470565b915091507ff14b427b14da887f90611136a5e3ceba24d441e75254f1f8900c678af0ad48508383836040516120d9939291906131a0565b60405180910390a1505050565b6000670de0b6b3a7640000826120fc919061373b565b9050919050565b6000612116612111846135bd565b613598565b9050808382526020820190508285602086028201111561213557600080fd5b60005b85811015612165578161214b888261225d565b845260208401935060208301925050600181019050612138565b5050509392505050565b600061218261217d846135e9565b613598565b9050808382526020820190508260005b858110156121c257815185016121a88882612305565b845260208401935060208301925050600181019050612192565b5050509392505050565b60006121df6121da84613615565b613598565b9050828152602081018484840111156121f757600080fd5b61220284828561387d565b509392505050565b600061221d61221884613615565b613598565b90508281526020810184848401111561223557600080fd5b61224084828561388c565b509392505050565b60008135905061225781613b62565b92915050565b60008151905061226c81613b62565b92915050565b600082601f83011261228357600080fd5b8151612293848260208601612103565b91505092915050565b600082601f8301126122ad57600080fd5b81516122bd84826020860161216f565b91505092915050565b6000815190506122d581613b79565b92915050565b600082601f8301126122ec57600080fd5b81356122fc8482602086016121cc565b91505092915050565b600082601f83011261231657600080fd5b815161232684826020860161220a565b91505092915050565b60008135905061233e81613b90565b92915050565b60008151905061235381613b90565b92915050565b60006020828403121561236b57600080fd5b600061237984828501612248565b91505092915050565b6000806040838503121561239557600080fd5b60006123a385828601612248565b92505060206123b485828601612248565b9150509250929050565b600080600080608085870312156123d457600080fd5b60006123e28782880161225d565b94505060206123f38782880161225d565b93505060406124048782880161225d565b925050606061241587828801612344565b91505092959194509250565b60008060006060848603121561243657600080fd5b600061244486828701612248565b935050602061245586828701612248565b92505060406124668682870161232f565b9150509250925092565b6000806040838503121561248357600080fd5b60006124918582860161225d565b925050602083015167ffffffffffffffff8111156124ae57600080fd5b6124ba85828601612305565b9150509250929050565b600080604083850312156124d757600080fd5b60006124e585828601612248565b92505060206124f68582860161232f565b9150509250929050565b60008060006060848603121561251557600080fd5b600061252386828701612248565b93505060206125348682870161232f565b92505060406125458682870161232f565b9150509250925092565b60006020828403121561256157600080fd5b600061256f848285016122c6565b91505092915050565b60006020828403121561258a57600080fd5b600082013567ffffffffffffffff8111156125a457600080fd5b6125b0848285016122db565b91505092915050565b60008060008060008060c087890312156125d257600080fd5b600087015167ffffffffffffffff8111156125ec57600080fd5b6125f889828a01612305565b965050602061260989828a0161225d565b955050604061261a89828a0161225d565b945050606087015167ffffffffffffffff81111561263757600080fd5b61264389828a01612305565b935050608061265489828a01612344565b92505060a087015167ffffffffffffffff81111561267157600080fd5b61267d89828a01612305565b9150509295509295509295565b600080600080608085870312156126a057600080fd5b600085015167ffffffffffffffff8111156126ba57600080fd5b6126c687828801612305565b94505060206126d78782880161225d565b935050604085015167ffffffffffffffff8111156126f457600080fd5b61270087828801612305565b925050606061271187828801612344565b91505092959194509250565b6000806000806080858703121561273357600080fd5b600085015167ffffffffffffffff81111561274d57600080fd5b61275987828801612305565b945050602061276a8782880161225d565b935050604061277b87828801612344565b925050606061278c87828801612344565b91505092959194509250565b6000806000606084860312156127ad57600080fd5b600084015167ffffffffffffffff8111156127c757600080fd5b6127d386828701612305565b935050602084015167ffffffffffffffff8111156127f057600080fd5b6127fc86828701612305565b925050604084015167ffffffffffffffff81111561281957600080fd5b61282586828701612305565b9150509250925092565b60008060006060848603121561284457600080fd5b600084013567ffffffffffffffff81111561285e57600080fd5b61286a868287016122db565b935050602084013567ffffffffffffffff81111561288757600080fd5b612893868287016122db565b92505060406128a48682870161232f565b9150509250925092565b6000806000606084860312156128c357600080fd5b600084015167ffffffffffffffff8111156128dd57600080fd5b6128e986828701612305565b935050602084015167ffffffffffffffff81111561290657600080fd5b61291286828701612305565b925050604061292386828701612344565b9150509250925092565b6000806000806080858703121561294357600080fd5b600085015167ffffffffffffffff81111561295d57600080fd5b61296987828801612305565b945050602085015167ffffffffffffffff81111561298657600080fd5b61299287828801612305565b93505060406129a387828801612344565b925050606085015167ffffffffffffffff8111156129c057600080fd5b6129cc87828801612305565b91505092959194509250565b6000806000606084860312156129ed57600080fd5b600084013567ffffffffffffffff811115612a0757600080fd5b612a13868287016122db565b9350506020612a248682870161232f565b9250506040612a358682870161232f565b9150509250925092565b60008060008060808587031215612a5557600080fd5b600085013567ffffffffffffffff811115612a6f57600080fd5b612a7b878288016122db565b9450506020612a8c8782880161232f565b9350506040612a9d8782880161232f565b9250506060612aae8782880161232f565b91505092959194509250565b600060208284031215612acc57600080fd5b6000612ada84828501612344565b91505092915050565b60008060408385031215612af657600080fd5b6000612b0485828601612344565b925050602083015167ffffffffffffffff811115612b2157600080fd5b612b2d85828601612272565b9150509250929050565b60008060408385031215612b4a57600080fd5b6000612b5885828601612344565b925050602083015167ffffffffffffffff811115612b7557600080fd5b612b818582860161229c565b9150509250929050565b6000612b978383612bb7565b60208301905092915050565b6000612baf8383612ce4565b905092915050565b612bc0816137c9565b82525050565b612bcf816137c9565b82525050565b6000612be082613666565b612bea81856136a1565b9350612bf583613646565b8060005b83811015612c26578151612c0d8882612b8b565b9750612c1883613687565b925050600181019050612bf9565b5085935050505092915050565b6000612c3e82613671565b612c4881856136b2565b935083602082028501612c5a85613656565b8060005b85811015612c965784840389528151612c778582612ba3565b9450612c8283613694565b925060208a01995050600181019050612c5e565b50829750879550505050505092915050565b612cb1816137db565b82525050565b612cc081613811565b82525050565b612ccf81613835565b82525050565b612cde81613859565b82525050565b6000612cef8261367c565b612cf981856136c3565b9350612d0981856020860161388c565b612d128161394e565b840191505092915050565b6000612d288261367c565b612d3281856136d4565b9350612d4281856020860161388c565b612d4b8161394e565b840191505092915050565b6000612d63604e836136d4565b9150612d6e8261395f565b606082019050919050565b6000612d866027836136d4565b9150612d91826139d4565b604082019050919050565b6000612da96028836136d4565b9150612db482613a23565b604082019050919050565b6000612dcc601b836136d4565b9150612dd782613a72565b602082019050919050565b6000612def602a836136d4565b9150612dfa82613a9b565b604082019050919050565b6000612e126019836136d4565b9150612e1d82613aea565b602082019050919050565b6000612e356039836136d4565b9150612e4082613b13565b604082019050919050565b612e5481613807565b82525050565b6000602082019050612e6f6000830184612bc6565b92915050565b6000604082019050612e8a6000830185612bc6565b612e976020830184612bc6565b9392505050565b6000606082019050612eb36000830186612bc6565b612ec06020830185612bc6565b612ecd6040830184612e4b565b949350505050565b6000604082019050612eea6000830185612bc6565b8181036020830152612efc8184612d1d565b90509392505050565b6000606082019050612f1a6000830186612bc6565b8181036020830152612f2c8185612d1d565b90508181036040830152612f408184612d1d565b9050949350505050565b6000606082019050612f5f6000830186612bc6565b8181036020830152612f718185612d1d565b9050612f806040830184612e4b565b949350505050565b6000608082019050612f9d6000830187612bc6565b8181036020830152612faf8186612d1d565b9050612fbe6040830185612e4b565b612fcb6060830184612e4b565b95945050505050565b6000604082019050612fe96000830185612bc6565b612ff66020830184612e4b565b9392505050565b60006020820190506130126000830184612ca8565b92915050565b600060208201905061302d6000830184612cb7565b92915050565b60006020820190506130486000830184612cc6565b92915050565b60006020820190506130636000830184612cd5565b92915050565b600060208201905081810360008301526130838184612d1d565b905092915050565b600060a08201905081810360008301526130a58188612d1d565b90506130b46020830187612bc6565b6130c16040830186612bc6565b81810360608301526130d38185612d1d565b90506130e26080830184612e4b565b9695505050505050565b600060c08201905081810360008301526131068189612d1d565b90506131156020830188612bc6565b6131226040830187612bc6565b81810360608301526131348186612d1d565b90506131436080830185612e4b565b81810360a08301526131558184612d1d565b9050979650505050505050565b6000606082019050818103600083015261317c8186612d1d565b905061318b6020830185612bc6565b6131986040830184612ca8565b949350505050565b600060608201905081810360008301526131ba8186612d1d565b90506131c96020830185612bc6565b81810360408301526131db8184612d1d565b9050949350505050565b600060808201905081810360008301526131ff8187612d1d565b905061320e6020830186612bc6565b81810360408301526132208185612d1d565b905061322f6060830184612e4b565b95945050505050565b600060808201905081810360008301526132528187612d1d565b90506132616020830186612bc6565b61326e6040830185612e4b565b61327b6060830184612e4b565b95945050505050565b6000604082019050818103600083015261329e8185612d1d565b90506132ad6020830184612ca8565b9392505050565b600060608201905081810360008301526132ce8186612d1d565b905081810360208301526132e28185612d1d565b905081810360408301526132f68184612d1d565b9050949350505050565b6000606082019050818103600083015261331a8186612d1d565b9050818103602083015261332e8185612d1d565b905061333d6040830184612e4b565b949350505050565b6000608082019050818103600083015261335f8187612d1d565b905081810360208301526133738186612d1d565b90506133826040830185612e4b565b81810360608301526133948184612d1d565b905095945050505050565b600060408201905081810360008301526133b98185612d1d565b90506133c86020830184612e4b565b9392505050565b600060608201905081810360008301526133e98186612d1d565b90506133f86020830185612e4b565b818103604083015261340a8184612d1d565b9050949350505050565b6000602082019050818103600083015261342d81612d56565b9050919050565b6000602082019050818103600083015261344d81612d79565b9050919050565b6000602082019050818103600083015261346d81612d9c565b9050919050565b6000602082019050818103600083015261348d81612dbf565b9050919050565b600060208201905081810360008301526134ad81612de2565b9050919050565b600060208201905081810360008301526134cd81612e05565b9050919050565b600060208201905081810360008301526134ed81612e28565b9050919050565b60006020820190506135096000830184612e4b565b92915050565b60006040820190506135246000830185612e4b565b81810360208301526135368184612bd5565b90509392505050565b60006040820190506135546000830185612e4b565b81810360208301526135668184612c33565b90509392505050565b60006040820190506135846000830185612e4b565b6135916020830184612e4b565b9392505050565b60006135a26135b3565b90506135ae82826138bf565b919050565b6000604051905090565b600067ffffffffffffffff8211156135d8576135d761391f565b5b602082029050602081019050919050565b600067ffffffffffffffff8211156136045761360361391f565b5b602082029050602081019050919050565b600067ffffffffffffffff8211156136305761362f61391f565b5b6136398261394e565b9050602081019050919050565b6000819050602082019050919050565b6000819050602082019050919050565b600081519050919050565b600081519050919050565b600081519050919050565b6000602082019050919050565b6000602082019050919050565b600082825260208201905092915050565b600082825260208201905092915050565b600082825260208201905092915050565b600082825260208201905092915050565b60006136f082613807565b91506136fb83613807565b9250827fffffffffffffffffffffffffffffffffffffffffffffffffffffffffffffffff038211156137305761372f6138f0565b5b828201905092915050565b600061374682613807565b915061375183613807565b9250817fffffffffffffffffffffffffffffffffffffffffffffffffffffffffffffffff048311821515161561378a576137896138f0565b5b828202905092915050565b60006137a082613807565b91506137ab83613807565b9250828210156137be576137bd6138f0565b5b828203905092915050565b60006137d4826137e7565b9050919050565b60008115159050919050565b600073ffffffffffffffffffffffffffffffffffffffff82169050919050565b6000819050919050565b600061381c82613823565b9050919050565b600061382e826137e7565b9050919050565b600061384082613847565b9050919050565b6000613852826137e7565b9050919050565b60006138648261386b565b9050919050565b6000613876826137e7565b9050919050565b82818337600083830152505050565b60005b838110156138aa57808201518184015260208101905061388f565b838111156138b9576000848401525b50505050565b6138c88261394e565b810181811067ffffffffffffffff821117156138e7576138e661391f565b5b80604052505050565b7f4e487b7100000000000000000000000000000000000000000000000000000000600052601160045260246000fd5b7f4e487b7100000000000000000000000000000000000000000000000000000000600052604160045260246000fd5b6000601f19601f8301169050919050565b7f55736572206973206e6f7420612044656c6976657279206167656e742e204f6e60008201527f6c792044656c6976657279206167656e74732063616e2062652061737369676e60208201527f656420666f6f64206f726465722e000000000000000000000000000000000000604082015250565b7f52657374617572616e74206d757374207374616b65206d6f7265207468616e2060008201527f3020657468657200000000000000000000000000000000000000000000000000602082015250565b7f4e6f7420656e6f756768206d6f6e69657320746f20636f766572206f7264657260008201527f20616d6f756e742e000000000000000000000000000000000000000000000000602082015250565b7f4574686572206d757374206d6174636820746f6b656e5374616b650000000000600082015250565b7f44656c6976657279204167656e74206d757374207374616b65206d696e696d7560008201527f6d20313020657468657200000000000000000000000000000000000000000000602082015250565b7f4e6f7420456e6f75676820746f6b656e7320746f207469702e00000000000000600082015250565b7f5573657220697320612044656c6976657279206167656e742e204f6e6c79206360008201527f7573746f6d6572732063616e2061636365737320746869732e00000000000000602082015250565b613b6b816137c9565b8114613b7657600080fd5b50565b613b82816137db565b8114613b8d57600080fd5b50565b613b9981613807565b8114613ba457600080fd5b5056fea264697066735822122063ebfe88508de27532a6cf4793fa7b66f9d469f98f9909a18e5f5b3e4ae693c464736f6c63430008030033",
  "immutableReferences": {},
  "source": "pragma solidity ^0.8.1;\n// pragma solidity 0.7.6;\n// \"SPDX-License-Identifier: UNLICENSED\"\n\nimport \"@openzeppelin/contracts/token/ERC20/IERC20.sol\";\n\nimport \"./helpers_interface.sol\";\nimport \"./registration_interface.sol\";\nimport \"./orders_interface.sol\";\n\n\ncontract Foodiez {\n    \n    address ownerAddress;\n\n    // FoodiezRegistration public _foodiezRegistration;\n    // FoodiezHelpers public _foodiezHelpers;\n    // FoodiezOrders public _foodiezOrders;\n    \n    FoodiezRegistrationInterface public _foodiezRegistration;\n    FoodiezHelpersInterface public _foodiezHelpers;\n    FoodiezOrdersInterface public _foodiezOrders;\n\n    /*************Variables and Event Emitter***********************************************************/\n    \n    uint NetworkServiceFee = 2;\n    uint DeliveryFlatFee = 2;\n\n    event UserRegisteredEvent(string userName, bool isRegistered);\n    event UserInfoEvent(string name, address usrAddress, string usrType, uint256 rating);\n    event RestaurantRegistered(string restaurantName, address rAddress, bool isRegistered);\n    event ItemAddedEvent(string restaurantId, string itemId, string itemName);\n    event OrderPlaced(string orderId, uint total, string orderStatus);\n    event OrderAssignedToDriver(string orderId, address driverAddress, string orderStatus);\n    event OrderDeliveredToUser(string orderId, address driverAddress, string orderStatus);\n    event orderDeliveryConfirmedEvent(uint restaurantTotal, uint deliveryTotal);\n    \n    event AccountApproved(address account, uint256 allowance);\n    event AmountTransferedToAccount(address account, uint256 amount);\n    event TransferedSenderToRecipient(address sender, address recipient, uint256 amount);\n    \n    /*************Token Setup *************************/\n    IERC20 token;\n    \n    address payable owner;\n    \n    mapping (address => uint256) private _balances;\n\n    mapping (address => mapping (address => uint256)) private _allowances;\n    \n    \n    /************Constructor / Modifiers /  contract address setters*********************************************/\n    constructor(FoodiezRegistrationInterface _registerAddress, FoodiezHelpersInterface _helperAddress, FoodiezOrdersInterface _orderAddress, address _token) {\n        ownerAddress = msg.sender;\n        _foodiezHelpers = _helperAddress;\n        _foodiezRegistration = _registerAddress;\n        _foodiezOrders = _orderAddress;\n        \n        _foodiezRegistration.setParentContract(address(this));\n        _foodiezOrders.setParentContract(address(this));\n        \n        owner = payable(msg.sender); // Token deploy address;\n        token = IERC20(_token);\n    }\n\n    modifier OnlyOwner(){\n        require(msg.sender == ownerAddress, \"Foodiez Registration - Only Owner can call this function\");\n        _; // this underscore is requierd otherwise compiler will break;\n    }\n\n    modifier isDeliveryCheck(){\n        require( _foodiezRegistration.checkUserDelivery(msg.sender) == true, \"User is not a Delivery agent. Only Delivery agents can be assigned food order.\");\n        _;\n    }\n    \n    modifier isUserCheck(){\n        require( _foodiezRegistration.checkUserDelivery(msg.sender) == false, \"User is a Delivery agent. Only customers can access this.\");\n        _;\n    }\n\n    /*************Token Functions******************************************/\n    \n    function tokenApproveAccount(address _address, uint256 amount) public payable returns (bool){\n        \n        bool isApproved = token.approve(_address, amount);\n        if(isApproved) emit AccountApproved(_address, amount);\n        return isApproved;\n    }\n    \n    function allowance(address own, address spender) public view returns (uint256){\n        return token.allowance(own, spender);\n    }\n    \n    function getTokenBalanceOf(address _address) public view returns (uint256){\n        return token.balanceOf(_address);\n    }\n    \n    function tokenTransfer(address recipient, uint256 amount) public payable {\n        bool tokenTransfered = token.transfer(recipient, amount);\n        if(tokenTransfered) emit AmountTransferedToAccount(recipient, amount);\n    }\n    \n    function tokenTransferFrom(address sender, address recipient, uint256 amount) public payable {\n        \n        bool tokenTransfered = token.transferFrom(sender, recipient, amount);\n        \n        \n        if(tokenTransfered) emit TransferedSenderToRecipient(sender, recipient, amount);\n    }\n    \n    /*****************Registration of User ( customer and delivery ) and Restaurant *********************/\n    function userRegister(string memory name, uint uType, uint256 amountStake) public payable returns(bool isSuccess){\n        if(uType == 1) { \n            require(msg.value >= 10 ether, \"Delivery Agent must stake minimum 10 ether\"); \n        }\n        \n        // bool success = tokenApproveAccount(msg.sender, amountStake ); // approval of account to be done directly at tokenContract\n        if(amountStake > 0){\n            require(msg.value >= amountStake, \"Ether must match tokenStake\");\n            tokenTransferFrom(owner, msg.sender, amountStake);\n        }\n        \n        bool isRegistered = _foodiezRegistration.userRegistration(msg.sender, name, uType); // setup token here\n        emit UserRegisteredEvent( name, isRegistered);\n        return isRegistered;\n    }\n    \n    function getUserInfo(address _address) public view returns (string memory usrName, address usrAddress, string memory usrType, uint256 rating){\n        \n        return _foodiezRegistration.getUserInfo(_address);\n        \n    }\n    \n    function registerRestaurant(string memory _name, string memory _rId, uint256 amountStake) public payable{\n        \n        bool isRegistered = _foodiezRegistration.createRestaurant(msg.sender, _name, _rId);\n        emit RestaurantRegistered(_name, msg.sender, isRegistered);\n        \n        //token register and purchase\n        require(msg.value >= 0, \"Restaurant must stake more than 0 ether\");\n        // bool success = tokenApproveAccount(msg.sender, amountStake);\n        tokenTransferFrom(owner, msg.sender, amountStake);\n    }\n    \n    function addMenuItems(string memory _itemName, uint _type, uint _price) public {\n        (string memory rId, string memory uniqueId, string memory itemName) = _foodiezRegistration.addMenuItems(msg.sender, _itemName, _type, _price);\n        \n        emit ItemAddedEvent(rId, uniqueId, itemName);\n    }\n    \n    function getRestaurantMenu(address _restaurantAddress, uint _itemNumber) public view returns(string memory itemName, string memory itemType, uint256 itemPrice){\n        return _foodiezRegistration.getRestaurantMenu(_restaurantAddress, _itemNumber);\n    } \n    \n    function getrestaurantInfo(address _restaurantAddress) public view returns(string memory rId, address rAddress, uint256 rItems, uint256 rating){\n        return _foodiezRegistration.getrestaurantInfo(_restaurantAddress);\n    }\n\n    function getAllRestaurants() public view returns(uint256, address[] memory restAddresses){\n        return _foodiezRegistration.getTotalRestaurants();\n    }\n    \n    /************Foodiez Orders Vars and Functions**********************/\n    function placeOrder(address _restaurantAddress, uint _itemNum, uint tokenPay) public payable returns (string memory uOrderId, string memory orderItemName, uint256 orderTotal, string memory orderStatus){\n        \n        (string memory rId, address restaurantAddress, string memory itemName, uint totalPrice) = _foodiezRegistration.getOrderTotal(msg.sender, _restaurantAddress, _itemNum);\n        \n        //check for required ether \n        require(msg.value >= totalPrice || weiConverter(tokenPay) >= totalPrice , \"Not enough monies to cover order amount.\");\n        (string memory uniqueId, string memory oItemName, uint256 total, string memory status) = _foodiezRegistration.createFoodOrder(rId, msg.sender, restaurantAddress, itemName, totalPrice);\n        \n        \n        if(tokenPay > 0) {\n            _foodiezOrders.setTokenPayOrder(uniqueId, tokenPay);\n            // transfer(address(this), tokenPay);\n        }\n\n        emit OrderPlaced(uniqueId, total, status);\n        return (uniqueId, oItemName, total, status);\n    }\n\n    function getAllUserOrders() public view returns (uint256 total, string[] memory userOrders){\n        return _foodiezOrders.getAllUserOrders();\n    }\n    \n    function getOrderStatus(string memory userOrderId) public view returns (string memory orderId, address userAddress, address driverAddress, string memory items, uint256 total, string memory status){\n        return _foodiezOrders.getUserOrderStatus(userOrderId);\n    }\n    \n    function assignToDriver(string memory userOrderId) public isDeliveryCheck {\n        \n        (address driverAddress, string memory status) = _foodiezOrders.assignOrderToDriver(msg.sender, userOrderId);\n        emit OrderAssignedToDriver(userOrderId,driverAddress, status);\n    }\n    \n    function driverDelieveredOrder(string memory userOrderId) public isDeliveryCheck {\n        \n        (address driverAddress, string memory status) = _foodiezOrders.driverDelieveredOrder(msg.sender, userOrderId);\n        emit OrderDeliveredToUser(userOrderId,driverAddress, status);\n    }\n    \n    function orderDeliveryConfirmed(string memory userOrderId, uint _restaurantRating, uint _deliveryRating, uint tokenTip ) public isUserCheck payable{\n         \n         (address restaurantAddress, address deliveryAddress, address userAddress, uint total ) = _foodiezOrders.orderDeliveryConfirmed(userOrderId);\n        \n        //ratings for restaurant and drivers\n        _foodiezRegistration.addRestaurantRating(restaurantAddress, _restaurantRating);\n        \n        _foodiezRegistration.addDriverRating(deliveryAddress, _deliveryRating);\n         \n        // payment \n        require(getTokenBalanceOf(msg.sender) >= tokenTip, \"Not Enough tokens to tip.\");\n        \n        uint256 tokenPay = _foodiezOrders.getTokenPayOrder(userOrderId);\n        \n         uint finalOrderTotal = total;\n        // take out service fee from total\n        uint serviceFee = _foodiezHelpers.calcServiceFee(total, NetworkServiceFee);\n        finalOrderTotal -= serviceFee;\n            \n        // driver fee + any tips go to \n        uint driverTotal = _foodiezHelpers.calcDriverFlatFee(total, DeliveryFlatFee); \n        finalOrderTotal -= driverTotal; \n        \n        \n        driverTotal += msg.value;\n        \n        // transfer driver money\n        payable(deliveryAddress).transfer(driverTotal);\n        if(tokenTip > 0) {\n            token.transferFrom(userAddress, deliveryAddress, tokenTip);\n        }\n        \n        // transfer rest money\n        if(tokenPay > 0){\n            token.transferFrom(userAddress, restaurantAddress, tokenPay);\n        }else {\n            payable(restaurantAddress).transfer(finalOrderTotal);   \n        }\n        \n        emit orderDeliveryConfirmedEvent(finalOrderTotal, driverTotal);\n    }\n\n    \n    function weiConverter(uint256 tokenPay) internal pure returns(uint){\n        return tokenPay * 10**18;\n    }\n}",
  "sourcePath": "/home/dinesh/Blockchain-Projects/EthereumSolidityProject/contracts/parent.sol",
  "compiler": {
    "name": "solc",
    "version": "0.8.3+commit.8d00100c.Emscripten.clang"
  },
  "schemaVersion": "3.3.3",
  "updatedAt": "2021-04-02T05:33:50.486Z",
  "networkType": "ethereum",
  "devdoc": {
    "kind": "dev",
    "methods": {},
    "version": 1
  },
  "userdoc": {
    "kind": "user",
    "methods": {},
    "version": 1
  }
}