{
  "contractName": "Foodiez",
  "abi": [
    {
      "inputs": [
        {
          "internalType": "contract FoodiezRegistrationInterface",
          "name": "_registerAddress",
          "type": "address"
        },
        {
          "internalType": "contract FoodiezHelpersInterface",
          "name": "_helperAddress",
          "type": "address"
        },
        {
          "internalType": "contract FoodiezOrdersInterface",
          "name": "_orderAddress",
          "type": "address"
        },
        {
          "internalType": "address",
          "name": "_token",
          "type": "address"
        }
      ],
      "stateMutability": "nonpayable",
      "type": "constructor"
    },
    {
      "anonymous": false,
      "inputs": [
        {
          "indexed": false,
          "internalType": "address",
          "name": "account",
          "type": "address"
        },
        {
          "indexed": false,
          "internalType": "uint256",
          "name": "allowance",
          "type": "uint256"
        }
      ],
      "name": "AccountApproved",
      "type": "event"
    },
    {
      "anonymous": false,
      "inputs": [
        {
          "indexed": false,
          "internalType": "address",
          "name": "account",
          "type": "address"
        },
        {
          "indexed": false,
          "internalType": "uint256",
          "name": "amount",
          "type": "uint256"
        }
      ],
      "name": "AmountTransferedToAccount",
      "type": "event"
    },
    {
      "anonymous": false,
      "inputs": [
        {
          "indexed": false,
          "internalType": "string",
          "name": "restaurantId",
          "type": "string"
        },
        {
          "indexed": false,
          "internalType": "string",
          "name": "itemId",
          "type": "string"
        },
        {
          "indexed": false,
          "internalType": "string",
          "name": "itemName",
          "type": "string"
        }
      ],
      "name": "ItemAddedEvent",
      "type": "event"
    },
    {
      "anonymous": false,
      "inputs": [
        {
          "indexed": false,
          "internalType": "string",
          "name": "orderId",
          "type": "string"
        },
        {
          "indexed": false,
          "internalType": "address",
          "name": "driverAddress",
          "type": "address"
        },
        {
          "indexed": false,
          "internalType": "string",
          "name": "orderStatus",
          "type": "string"
        }
      ],
      "name": "OrderAssignedToDriver",
      "type": "event"
    },
    {
      "anonymous": false,
      "inputs": [
        {
          "indexed": false,
          "internalType": "string",
          "name": "orderId",
          "type": "string"
        },
        {
          "indexed": false,
          "internalType": "address",
          "name": "driverAddress",
          "type": "address"
        },
        {
          "indexed": false,
          "internalType": "string",
          "name": "orderStatus",
          "type": "string"
        }
      ],
      "name": "OrderDeliveredToUser",
      "type": "event"
    },
    {
      "anonymous": false,
      "inputs": [
        {
          "indexed": false,
          "internalType": "string",
          "name": "orderId",
          "type": "string"
        },
        {
          "indexed": false,
          "internalType": "string",
          "name": "orderStatus",
          "type": "string"
        }
      ],
      "name": "OrderPlaced",
      "type": "event"
    },
    {
      "anonymous": false,
      "inputs": [
        {
          "indexed": false,
          "internalType": "string",
          "name": "restaurantName",
          "type": "string"
        },
        {
          "indexed": false,
          "internalType": "address",
          "name": "rAddress",
          "type": "address"
        },
        {
          "indexed": false,
          "internalType": "bool",
          "name": "isRegistered",
          "type": "bool"
        }
      ],
      "name": "RestaurantRegistered",
      "type": "event"
    },
    {
      "anonymous": false,
      "inputs": [
        {
          "indexed": false,
          "internalType": "address",
          "name": "sender",
          "type": "address"
        },
        {
          "indexed": false,
          "internalType": "address",
          "name": "recipient",
          "type": "address"
        },
        {
          "indexed": false,
          "internalType": "uint256",
          "name": "amount",
          "type": "uint256"
        }
      ],
      "name": "TransferedSenderToRecipient",
      "type": "event"
    },
    {
      "anonymous": false,
      "inputs": [
        {
          "indexed": false,
          "internalType": "string",
          "name": "name",
          "type": "string"
        },
        {
          "indexed": false,
          "internalType": "address",
          "name": "usrAddress",
          "type": "address"
        },
        {
          "indexed": false,
          "internalType": "string",
          "name": "usrType",
          "type": "string"
        },
        {
          "indexed": false,
          "internalType": "uint256",
          "name": "rating",
          "type": "uint256"
        }
      ],
      "name": "UserInfoEvent",
      "type": "event"
    },
    {
      "anonymous": false,
      "inputs": [
        {
          "indexed": false,
          "internalType": "string",
          "name": "userName",
          "type": "string"
        },
        {
          "indexed": false,
          "internalType": "bool",
          "name": "isRegistered",
          "type": "bool"
        }
      ],
      "name": "UserRegisteredEvent",
      "type": "event"
    },
    {
      "anonymous": false,
      "inputs": [
        {
          "indexed": false,
          "internalType": "uint256",
          "name": "restaurantTotal",
          "type": "uint256"
        },
        {
          "indexed": false,
          "internalType": "uint256",
          "name": "deliveryTotal",
          "type": "uint256"
        }
      ],
      "name": "orderDeliveryConfirmedEvent",
      "type": "event"
    },
    {
      "inputs": [],
      "name": "_foodiezHelpers",
      "outputs": [
        {
          "internalType": "contract FoodiezHelpersInterface",
          "name": "",
          "type": "address"
        }
      ],
      "stateMutability": "view",
      "type": "function",
      "constant": true
    },
    {
      "inputs": [],
      "name": "_foodiezOrders",
      "outputs": [
        {
          "internalType": "contract FoodiezOrdersInterface",
          "name": "",
          "type": "address"
        }
      ],
      "stateMutability": "view",
      "type": "function",
      "constant": true
    },
    {
      "inputs": [],
      "name": "_foodiezRegistration",
      "outputs": [
        {
          "internalType": "contract FoodiezRegistrationInterface",
          "name": "",
          "type": "address"
        }
      ],
      "stateMutability": "view",
      "type": "function",
      "constant": true
    },
    {
      "inputs": [
        {
          "internalType": "address",
          "name": "_address",
          "type": "address"
        },
        {
          "internalType": "uint256",
          "name": "amount",
          "type": "uint256"
        }
      ],
      "name": "tokenApproveAccount",
      "outputs": [
        {
          "internalType": "bool",
          "name": "",
          "type": "bool"
        }
      ],
      "stateMutability": "payable",
      "type": "function",
      "payable": true
    },
    {
      "inputs": [
        {
          "internalType": "address",
          "name": "own",
          "type": "address"
        },
        {
          "internalType": "address",
          "name": "spender",
          "type": "address"
        }
      ],
      "name": "allowance",
      "outputs": [
        {
          "internalType": "uint256",
          "name": "",
          "type": "uint256"
        }
      ],
      "stateMutability": "view",
      "type": "function",
      "constant": true
    },
    {
      "inputs": [
        {
          "internalType": "address",
          "name": "_address",
          "type": "address"
        }
      ],
      "name": "getTokenBalanceOf",
      "outputs": [
        {
          "internalType": "uint256",
          "name": "",
          "type": "uint256"
        }
      ],
      "stateMutability": "view",
      "type": "function",
      "constant": true
    },
    {
      "inputs": [
        {
          "internalType": "address",
          "name": "recipient",
          "type": "address"
        },
        {
          "internalType": "uint256",
          "name": "amount",
          "type": "uint256"
        }
      ],
      "name": "tokenTransfer",
      "outputs": [],
      "stateMutability": "payable",
      "type": "function",
      "payable": true
    },
    {
      "inputs": [
        {
          "internalType": "address",
          "name": "sender",
          "type": "address"
        },
        {
          "internalType": "address",
          "name": "recipient",
          "type": "address"
        },
        {
          "internalType": "uint256",
          "name": "amount",
          "type": "uint256"
        }
      ],
      "name": "tokenTransferFrom",
      "outputs": [],
      "stateMutability": "payable",
      "type": "function",
      "payable": true
    },
    {
      "inputs": [
        {
          "internalType": "string",
          "name": "name",
          "type": "string"
        },
        {
          "internalType": "string",
          "name": "userId",
          "type": "string"
        },
        {
          "internalType": "uint256",
          "name": "uType",
          "type": "uint256"
        },
        {
          "internalType": "uint256",
          "name": "amountStake",
          "type": "uint256"
        }
      ],
      "name": "userRegister",
      "outputs": [
        {
          "internalType": "bool",
          "name": "isSuccess",
          "type": "bool"
        }
      ],
      "stateMutability": "payable",
      "type": "function",
      "payable": true
    },
    {
      "inputs": [
        {
          "internalType": "address",
          "name": "_address",
          "type": "address"
        }
      ],
      "name": "getUserInfo",
      "outputs": [
        {
          "internalType": "string",
          "name": "usrName",
          "type": "string"
        },
        {
          "internalType": "string",
          "name": "usrId",
          "type": "string"
        },
        {
          "internalType": "string",
          "name": "usrType",
          "type": "string"
        },
        {
          "internalType": "uint256",
          "name": "rating",
          "type": "uint256"
        }
      ],
      "stateMutability": "view",
      "type": "function",
      "constant": true
    },
    {
      "inputs": [
        {
          "internalType": "string",
          "name": "_name",
          "type": "string"
        },
        {
          "internalType": "string",
          "name": "_rId",
          "type": "string"
        },
        {
          "internalType": "uint256",
          "name": "amountStake",
          "type": "uint256"
        }
      ],
      "name": "registerRestaurant",
      "outputs": [],
      "stateMutability": "payable",
      "type": "function",
      "payable": true
    },
    {
      "inputs": [
        {
          "internalType": "string",
          "name": "_itemName",
          "type": "string"
        },
        {
          "internalType": "uint256",
          "name": "_type",
          "type": "uint256"
        },
        {
          "internalType": "uint256",
          "name": "_price",
          "type": "uint256"
        }
      ],
      "name": "addMenuItems",
      "outputs": [],
      "stateMutability": "nonpayable",
      "type": "function"
    },
    {
      "inputs": [
        {
          "internalType": "address",
          "name": "_restaurantAddress",
          "type": "address"
        },
        {
          "internalType": "uint256",
          "name": "_itemNumber",
          "type": "uint256"
        }
      ],
      "name": "getRestaurantMenu",
      "outputs": [
        {
          "internalType": "string",
          "name": "itemName",
          "type": "string"
        },
        {
          "internalType": "string",
          "name": "itemType",
          "type": "string"
        },
        {
          "internalType": "uint256",
          "name": "itemPrice",
          "type": "uint256"
        }
      ],
      "stateMutability": "view",
      "type": "function",
      "constant": true
    },
    {
      "inputs": [
        {
          "internalType": "address",
          "name": "_restaurantAddress",
          "type": "address"
        }
      ],
      "name": "getrestaurantInfo",
      "outputs": [
        {
          "internalType": "string",
          "name": "rId",
          "type": "string"
        },
        {
          "internalType": "address",
          "name": "rAddress",
          "type": "address"
        },
        {
          "internalType": "uint256",
          "name": "rItems",
          "type": "uint256"
        },
        {
          "internalType": "uint256",
          "name": "rating",
          "type": "uint256"
        }
      ],
      "stateMutability": "view",
      "type": "function",
      "constant": true
    },
    {
      "inputs": [],
      "name": "getAllRestaurants",
      "outputs": [
        {
          "internalType": "uint256",
          "name": "count",
          "type": "uint256"
        },
        {
          "internalType": "address[]",
          "name": "restAddresses",
          "type": "address[]"
        }
      ],
      "stateMutability": "view",
      "type": "function",
      "constant": true
    },
    {
      "inputs": [
        {
          "internalType": "address",
          "name": "_restaurantAddress",
          "type": "address"
        },
        {
          "internalType": "uint256[]",
          "name": "_itemNum",
          "type": "uint256[]"
        }
      ],
      "name": "orderTotal",
      "outputs": [
        {
          "internalType": "uint256",
          "name": "totalPrice",
          "type": "uint256"
        }
      ],
      "stateMutability": "view",
      "type": "function",
      "constant": true
    },
    {
      "inputs": [
        {
          "internalType": "address",
          "name": "_restaurantAddress",
          "type": "address"
        },
        {
          "internalType": "string[]",
          "name": "itemNames",
          "type": "string[]"
        },
        {
          "internalType": "uint256",
          "name": "totalPrice",
          "type": "uint256"
        },
        {
          "internalType": "uint256",
          "name": "tokenPay",
          "type": "uint256"
        }
      ],
      "name": "placeOrder",
      "outputs": [
        {
          "internalType": "string",
          "name": "uOrderId",
          "type": "string"
        },
        {
          "internalType": "string",
          "name": "orderStatus",
          "type": "string"
        }
      ],
      "stateMutability": "payable",
      "type": "function",
      "payable": true
    },
    {
      "inputs": [],
      "name": "getUserOrders",
      "outputs": [
        {
          "internalType": "uint256",
          "name": "",
          "type": "uint256"
        }
      ],
      "stateMutability": "view",
      "type": "function",
      "constant": true
    },
    {
      "inputs": [],
      "name": "getAllOrders",
      "outputs": [
        {
          "internalType": "string[]",
          "name": "allOrders",
          "type": "string[]"
        }
      ],
      "stateMutability": "view",
      "type": "function",
      "constant": true
    },
    {
      "inputs": [
        {
          "internalType": "string",
          "name": "userOrderId",
          "type": "string"
        }
      ],
      "name": "getOrderStatus",
      "outputs": [
        {
          "internalType": "string",
          "name": "orderId",
          "type": "string"
        },
        {
          "internalType": "address",
          "name": "userAddress",
          "type": "address"
        },
        {
          "internalType": "address",
          "name": "driverAddress",
          "type": "address"
        },
        {
          "internalType": "string[]",
          "name": "items",
          "type": "string[]"
        },
        {
          "internalType": "uint256",
          "name": "total",
          "type": "uint256"
        },
        {
          "internalType": "string",
          "name": "status",
          "type": "string"
        }
      ],
      "stateMutability": "view",
      "type": "function",
      "constant": true
    },
    {
      "inputs": [
        {
          "internalType": "string",
          "name": "userOrderId",
          "type": "string"
        }
      ],
      "name": "assignToDriver",
      "outputs": [],
      "stateMutability": "nonpayable",
      "type": "function"
    },
    {
      "inputs": [
        {
          "internalType": "string",
          "name": "userOrderId",
          "type": "string"
        }
      ],
      "name": "driverDelieveredOrder",
      "outputs": [],
      "stateMutability": "nonpayable",
      "type": "function"
    },
    {
      "inputs": [
        {
          "internalType": "string",
          "name": "userOrderId",
          "type": "string"
        },
        {
          "internalType": "uint256",
          "name": "_restaurantRating",
          "type": "uint256"
        },
        {
          "internalType": "uint256",
          "name": "_deliveryRating",
          "type": "uint256"
        },
        {
          "internalType": "uint256",
          "name": "tokenTip",
          "type": "uint256"
        }
      ],
      "name": "orderDeliveryConfirmed",
      "outputs": [],
      "stateMutability": "payable",
      "type": "function",
      "payable": true
    }
  ],
  "bytecode": "0x6080604052600260045560026005553480156200001b57600080fd5b506040516200467438038062004674833981810160405281019062000041919062000410565b336000806101000a81548173ffffffffffffffffffffffffffffffffffffffff021916908373ffffffffffffffffffffffffffffffffffffffff16021790555082600260006101000a81548173ffffffffffffffffffffffffffffffffffffffff021916908373ffffffffffffffffffffffffffffffffffffffff16021790555083600160006101000a81548173ffffffffffffffffffffffffffffffffffffffff021916908373ffffffffffffffffffffffffffffffffffffffff16021790555081600360006101000a81548173ffffffffffffffffffffffffffffffffffffffff021916908373ffffffffffffffffffffffffffffffffffffffff160217905550600160009054906101000a900473ffffffffffffffffffffffffffffffffffffffff1673ffffffffffffffffffffffffffffffffffffffff1663765ccb6b306040518263ffffffff1660e01b8152600401620001a19190620004d2565b600060405180830381600087803b158015620001bc57600080fd5b505af1158015620001d1573d6000803e3d6000fd5b505050506040513d6000823e3d601f19601f82011682018060405250810190620001fc91906200047c565b50600360009054906101000a900473ffffffffffffffffffffffffffffffffffffffff1673ffffffffffffffffffffffffffffffffffffffff1663765ccb6b306040518263ffffffff1660e01b81526004016200025a9190620004d2565b600060405180830381600087803b1580156200027557600080fd5b505af11580156200028a573d6000803e3d6000fd5b505050506040513d6000823e3d601f19601f82011682018060405250810190620002b591906200047c565b5033600760006101000a81548173ffffffffffffffffffffffffffffffffffffffff021916908373ffffffffffffffffffffffffffffffffffffffff16021790555080600660006101000a81548173ffffffffffffffffffffffffffffffffffffffff021916908373ffffffffffffffffffffffffffffffffffffffff16021790555050505050620006d2565b600062000359620003538462000518565b620004ef565b9050828152602081018484840111156200037257600080fd5b6200037f848285620005be565b509392505050565b60008151905062000398816200066a565b92915050565b600081519050620003af8162000684565b92915050565b600081519050620003c6816200069e565b92915050565b600081519050620003dd81620006b8565b92915050565b600082601f830112620003f557600080fd5b81516200040784826020860162000342565b91505092915050565b600080600080608085870312156200042757600080fd5b60006200043787828801620003cc565b94505060206200044a878288016200039e565b93505060406200045d87828801620003b5565b9250506060620004708782880162000387565b91505092959194509250565b6000602082840312156200048f57600080fd5b600082015167ffffffffffffffff811115620004aa57600080fd5b620004b884828501620003e3565b91505092915050565b620004cc816200054e565b82525050565b6000602082019050620004e96000830184620004c1565b92915050565b6000620004fb6200050e565b9050620005098282620005f4565b919050565b6000604051905090565b600067ffffffffffffffff8211156200053657620005356200062a565b5b620005418262000659565b9050602081019050919050565b60006200055b826200059e565b9050919050565b60006200056f826200054e565b9050919050565b600062000583826200054e565b9050919050565b600062000597826200054e565b9050919050565b600073ffffffffffffffffffffffffffffffffffffffff82169050919050565b60005b83811015620005de578082015181840152602081019050620005c1565b83811115620005ee576000848401525b50505050565b620005ff8262000659565b810181811067ffffffffffffffff821117156200062157620006206200062a565b5b80604052505050565b7f4e487b7100000000000000000000000000000000000000000000000000000000600052604160045260246000fd5b6000601f19601f8301169050919050565b62000675816200054e565b81146200068157600080fd5b50565b6200068f8162000562565b81146200069b57600080fd5b50565b620006a98162000576565b8114620006b557600080fd5b50565b620006c3816200058a565b8114620006cf57600080fd5b50565b613f9280620006e26000396000f3fe6080604052600436106101405760003560e01c806387734400116100b6578063dd62ed3e1161006f578063dd62ed3e14610462578063e1eb4abc1461049f578063e523d132146104ca578063e77c719e146104f3578063e79034a814610523578063ed0c07681461054c57610140565b8063877344001461034b578063961974ba14610377578063aedfb5d314610393578063b8c00b1e146103d5578063c6f4dc3714610406578063d8c01ed11461042257610140565b8063623bb43111610108578063623bb431146102425780636386c1c71461025e57806366a257c41461029e57806368cdafe6146102c75780637bea0d1c146102e3578063838945481461030e57610140565b80631c7e3b05146101455780631e4b919b146101825780632d9ee1d1146101ad578063331723eb146101d8578063617aada914610217575b600080fd5b34801561015157600080fd5b5061016c6004803603810190610167919061270e565b61057c565b6040516101799190613874565b60405180910390f35b34801561018e57600080fd5b50610197610635565b6040516101a49190613874565b60405180910390f35b3480156101b957600080fd5b506101c26106ec565b6040516101cf9190613475565b60405180910390f35b3480156101e457600080fd5b506101ff60048036038101906101fa91906127b6565b610712565b60405161020e9392919061371f565b60405180910390f35b34801561022357600080fd5b5061022c6107d6565b604051610239919061345a565b60405180910390f35b61025c60048036038101906102579190612d8f565b6107fc565b005b34801561026a57600080fd5b506102856004803603810190610280919061257c565b610fa2565b60405161029594939291906136c5565b60405180910390f35b3480156102aa57600080fd5b506102c560048036038101906102c09190612d28565b611068565b005b6102e160048036038101906102dc91906127b6565b61116e565b005b3480156102ef57600080fd5b506102f8611266565b604051610305919061341d565b60405180910390f35b34801561031a57600080fd5b506103356004803603810190610330919061257c565b611312565b6040516103429190613874565b60405180910390f35b34801561035757600080fd5b506103606113c6565b60405161036e92919061388f565b60405180910390f35b610391600480360381019061038c9190612644565b611477565b005b34801561039f57600080fd5b506103ba60048036038101906103b5919061285c565b611574565b6040516103cc969594939291906134cd565b60405180910390f35b6103ef60048036038101906103ea9190612693565b611644565b6040516103fd929190613642565b60405180910390f35b610420600480360381019061041b9190612b97565b61183f565b005b34801561042e57600080fd5b506104496004803603810190610444919061257c565b6119a6565b60405161045994939291906135c6565b60405180910390f35b34801561046e57600080fd5b50610489600480360381019061048491906125a5565b611a6c565b6040516104969190613874565b60405180910390f35b3480156104ab57600080fd5b506104b4611b23565b6040516104c19190613490565b60405180910390f35b3480156104d657600080fd5b506104f160048036038101906104ec919061285c565b611b49565b005b61050d600480360381019061050891906127b6565b611d35565b60405161051a919061343f565b60405180910390f35b34801561052f57600080fd5b5061054a6004803603810190610545919061285c565b611e33565b005b61056660048036038101906105619190612c95565b61201f565b604051610573919061343f565b60405180910390f35b6000600160009054906101000a900473ffffffffffffffffffffffffffffffffffffffff1673ffffffffffffffffffffffffffffffffffffffff166340ecc0573385856040518463ffffffff1660e01b81526004016105dd9392919061326b565b60206040518083038186803b1580156105f557600080fd5b505afa158015610609573d6000803e3d6000fd5b505050506040513d601f19601f8201168201806040525081019061062d9190612e0a565b905092915050565b600080600160009054906101000a900473ffffffffffffffffffffffffffffffffffffffff1673ffffffffffffffffffffffffffffffffffffffff166363c69f08336040518263ffffffff1660e01b815260040161069391906131db565b60206040518083038186803b1580156106ab57600080fd5b505afa1580156106bf573d6000803e3d6000fd5b505050506040513d601f19601f820116820180604052508101906106e39190612e0a565b90508091505090565b600360009054906101000a900473ffffffffffffffffffffffffffffffffffffffff1681565b6060806000600160009054906101000a900473ffffffffffffffffffffffffffffffffffffffff1673ffffffffffffffffffffffffffffffffffffffff1663331723eb86866040518363ffffffff1660e01b81526004016107749291906133f4565b60006040518083038186803b15801561078c57600080fd5b505afa1580156107a0573d6000803e3d6000fd5b505050506040513d6000823e3d601f19601f820116820180604052508101906107c99190612c16565b9250925092509250925092565b600260009054906101000a900473ffffffffffffffffffffffffffffffffffffffff1681565b60001515600160009054906101000a900473ffffffffffffffffffffffffffffffffffffffff1673ffffffffffffffffffffffffffffffffffffffff16635f9d8de6336040518263ffffffff1660e01b815260040161085b91906131db565b60206040518083038186803b15801561087357600080fd5b505afa158015610887573d6000803e3d6000fd5b505050506040513d601f19601f820116820180604052508101906108ab9190612833565b1515146108ed576040517f08c379a00000000000000000000000000000000000000000000000000000000081526004016108e490613854565b60405180910390fd5b600080600080600360009054906101000a900473ffffffffffffffffffffffffffffffffffffffff1673ffffffffffffffffffffffffffffffffffffffff1663b1a68ff2896040518263ffffffff1660e01b815260040161094e91906134ab565b608060405180830381600087803b15801561096857600080fd5b505af115801561097c573d6000803e3d6000fd5b505050506040513d601f19601f820116820180604052508101906109a091906125e1565b9350935093509350600160009054906101000a900473ffffffffffffffffffffffffffffffffffffffff1673ffffffffffffffffffffffffffffffffffffffff16638ab7ad7785896040518363ffffffff1660e01b8152600401610a059291906133f4565b600060405180830381600087803b158015610a1f57600080fd5b505af1158015610a33573d6000803e3d6000fd5b50505050600160009054906101000a900473ffffffffffffffffffffffffffffffffffffffff1673ffffffffffffffffffffffffffffffffffffffff1663dfe7669d84886040518363ffffffff1660e01b8152600401610a949291906133f4565b600060405180830381600087803b158015610aae57600080fd5b505af1158015610ac2573d6000803e3d6000fd5b5050505084610ad083611312565b1015610b11576040517f08c379a0000000000000000000000000000000000000000000000000000000008152600401610b0890613834565b60405180910390fd5b6000600360009054906101000a900473ffffffffffffffffffffffffffffffffffffffff1673ffffffffffffffffffffffffffffffffffffffff1663d182dbcd8a6040518263ffffffff1660e01b8152600401610b6e91906134ab565b60206040518083038186803b158015610b8657600080fd5b505afa158015610b9a573d6000803e3d6000fd5b505050506040513d601f19601f82011682018060405250810190610bbe9190612e0a565b905060008290506000600260009054906101000a900473ffffffffffffffffffffffffffffffffffffffff1673ffffffffffffffffffffffffffffffffffffffff166365609516856004546040518363ffffffff1660e01b8152600401610c269291906138bf565b60206040518083038186803b158015610c3e57600080fd5b505afa158015610c52573d6000803e3d6000fd5b505050506040513d601f19601f82011682018060405250810190610c769190612e0a565b90508082610c849190613b4a565b91506000600260009054906101000a900473ffffffffffffffffffffffffffffffffffffffff1673ffffffffffffffffffffffffffffffffffffffff1663221c9cfe866005546040518363ffffffff1660e01b8152600401610ce79291906138bf565b60206040518083038186803b158015610cff57600080fd5b505afa158015610d13573d6000803e3d6000fd5b505050506040513d601f19601f82011682018060405250810190610d379190612e0a565b90508083610d459190613b4a565b92503481610d539190613a9a565b90506000891115610e1157600660009054906101000a900473ffffffffffffffffffffffffffffffffffffffff1673ffffffffffffffffffffffffffffffffffffffff166323b872dd87898c6040518463ffffffff1660e01b8152600401610dbd939291906132a9565b602060405180830381600087803b158015610dd757600080fd5b505af1158015610deb573d6000803e3d6000fd5b505050506040513d601f19601f82011682018060405250810190610e0f9190612833565b505b6000841115610ecd57600660009054906101000a900473ffffffffffffffffffffffffffffffffffffffff1673ffffffffffffffffffffffffffffffffffffffff166323b872dd878a876040518463ffffffff1660e01b8152600401610e79939291906132a9565b602060405180830381600087803b158015610e9357600080fd5b505af1158015610ea7573d6000803e3d6000fd5b505050506040513d601f19601f82011682018060405250810190610ecb9190612833565b505b8673ffffffffffffffffffffffffffffffffffffffff166108fc829081150290604051600060405180830381858888f19350505050158015610f13573d6000803e3d6000fd5b508773ffffffffffffffffffffffffffffffffffffffff166108fc849081150290604051600060405180830381858888f19350505050158015610f5a573d6000803e3d6000fd5b507f292961d24e58ea05a8b5bca78932ec898d03d1646fb56c0f81495770e5872d098382604051610f8c9291906138bf565b60405180910390a1505050505050505050505050565b60608060606000600160009054906101000a900473ffffffffffffffffffffffffffffffffffffffff1673ffffffffffffffffffffffffffffffffffffffff16636386c1c7866040518263ffffffff1660e01b815260040161100491906131db565b60006040518083038186803b15801561101c57600080fd5b505afa158015611030573d6000803e3d6000fd5b505050506040513d6000823e3d601f19601f820116820180604052508101906110599190612aec565b93509350935093509193509193565b6000806000600160009054906101000a900473ffffffffffffffffffffffffffffffffffffffff1673ffffffffffffffffffffffffffffffffffffffff1663debd2ec4338888886040518563ffffffff1660e01b81526004016110ce94939291906133a8565b600060405180830381600087803b1580156110e857600080fd5b505af11580156110fc573d6000803e3d6000fd5b505050506040513d6000823e3d601f19601f820116820180604052508101906111259190612a55565b9250925092507fe591a00874db47ebb9c845e5d6550ba44f9b94231216d912524a6b01cf64c36283838360405161115e93929190613679565b60405180910390a1505050505050565b6000600660009054906101000a900473ffffffffffffffffffffffffffffffffffffffff1673ffffffffffffffffffffffffffffffffffffffff1663a9059cbb84846040518363ffffffff1660e01b81526004016111cd9291906133f4565b602060405180830381600087803b1580156111e757600080fd5b505af11580156111fb573d6000803e3d6000fd5b505050506040513d601f19601f8201168201806040525081019061121f9190612833565b90508015611261577fbdbbb9910baae524fdb61a2b98c4264b1b7c7dd08291b66731a279ab74fa778f83836040516112589291906133f4565b60405180910390a15b505050565b6060600360009054906101000a900473ffffffffffffffffffffffffffffffffffffffff1673ffffffffffffffffffffffffffffffffffffffff16633dfbbad46040518163ffffffff1660e01b815260040160006040518083038186803b1580156112d057600080fd5b505afa1580156112e4573d6000803e3d6000fd5b505050506040513d6000823e3d601f19601f8201168201806040525081019061130d91906127f2565b905090565b6000600660009054906101000a900473ffffffffffffffffffffffffffffffffffffffff1673ffffffffffffffffffffffffffffffffffffffff166370a08231836040518263ffffffff1660e01b815260040161136f91906131db565b60206040518083038186803b15801561138757600080fd5b505afa15801561139b573d6000803e3d6000fd5b505050506040513d601f19601f820116820180604052508101906113bf9190612e0a565b9050919050565b60006060600160009054906101000a900473ffffffffffffffffffffffffffffffffffffffff1673ffffffffffffffffffffffffffffffffffffffff1663707715046040518163ffffffff1660e01b815260040160006040518083038186803b15801561143257600080fd5b505afa158015611446573d6000803e3d6000fd5b505050506040513d6000823e3d601f19601f8201168201806040525081019061146f9190612e33565b915091509091565b6000600660009054906101000a900473ffffffffffffffffffffffffffffffffffffffff1673ffffffffffffffffffffffffffffffffffffffff166323b872dd8585856040518463ffffffff1660e01b81526004016114d8939291906132a9565b602060405180830381600087803b1580156114f257600080fd5b505af1158015611506573d6000803e3d6000fd5b505050506040513d601f19601f8201168201806040525081019061152a9190612833565b9050801561156e577f3ae895b079028f50d70d4fdc12d6bbad245651b4fbe50d7a931752330a025dec848484604051611565939291906132a9565b60405180910390a15b50505050565b6060600080606060006060600360009054906101000a900473ffffffffffffffffffffffffffffffffffffffff1673ffffffffffffffffffffffffffffffffffffffff16637ab8ae16886040518263ffffffff1660e01b81526004016115da91906134ab565b60006040518083038186803b1580156115f257600080fd5b505afa158015611606573d6000803e3d6000fd5b505050506040513d6000823e3d601f19601f8201168201806040525081019061162f919061289d565b95509550955095509550955091939550919395565b606080833410158061165e57508361165b846121ec565b10155b61169d576040517f08c379a0000000000000000000000000000000000000000000000000000000008152600401611694906137d4565b60405180910390fd5b600080600160009054906101000a900473ffffffffffffffffffffffffffffffffffffffff1673ffffffffffffffffffffffffffffffffffffffff1663e6612812338a8a8a6040518563ffffffff1660e01b8152600401611701949392919061321f565b600060405180830381600087803b15801561171b57600080fd5b505af115801561172f573d6000803e3d6000fd5b505050506040513d6000823e3d601f19601f8201168201806040525081019061175891906129e9565b9150915060008511156117f557600360009054906101000a900473ffffffffffffffffffffffffffffffffffffffff1673ffffffffffffffffffffffffffffffffffffffff16639b4708d183876040518363ffffffff1660e01b81526004016117c2929190613764565b600060405180830381600087803b1580156117dc57600080fd5b505af11580156117f0573d6000803e3d6000fd5b505050505b7f2bc0c755dcb34ed5aadb1531e628205826424d623bb3759337b05818af7f4a4b8282604051611826929190613642565b60405180910390a1818193509350505094509492505050565b6000600160009054906101000a900473ffffffffffffffffffffffffffffffffffffffff1673ffffffffffffffffffffffffffffffffffffffff1663096309233386866040518463ffffffff1660e01b81526004016118a093929190613310565b602060405180830381600087803b1580156118ba57600080fd5b505af11580156118ce573d6000803e3d6000fd5b505050506040513d601f19601f820116820180604052508101906118f29190612833565b90507f1fec3d043cdeae56abac63b9485c8e810e01d8caf5281e06e2a78cbb82b9f56284338360405161192793929190613543565b60405180910390a16000341015611973576040517f08c379a000000000000000000000000000000000000000000000000000000000815260040161196a906137b4565b60405180910390fd5b6119a0600760009054906101000a900473ffffffffffffffffffffffffffffffffffffffff163384611477565b50505050565b60606000806000600160009054906101000a900473ffffffffffffffffffffffffffffffffffffffff1673ffffffffffffffffffffffffffffffffffffffff1663d8c01ed1866040518263ffffffff1660e01b8152600401611a0891906131db565b60006040518083038186803b158015611a2057600080fd5b505afa158015611a34573d6000803e3d6000fd5b505050506040513d6000823e3d601f19601f82011682018060405250810190611a5d919061296e565b93509350935093509193509193565b6000600660009054906101000a900473ffffffffffffffffffffffffffffffffffffffff1673ffffffffffffffffffffffffffffffffffffffff1663dd62ed3e84846040518363ffffffff1660e01b8152600401611acb9291906131f6565b60206040518083038186803b158015611ae357600080fd5b505afa158015611af7573d6000803e3d6000fd5b505050506040513d601f19601f82011682018060405250810190611b1b9190612e0a565b905092915050565b600160009054906101000a900473ffffffffffffffffffffffffffffffffffffffff1681565b60011515600160009054906101000a900473ffffffffffffffffffffffffffffffffffffffff1673ffffffffffffffffffffffffffffffffffffffff16635f9d8de6336040518263ffffffff1660e01b8152600401611ba891906131db565b60206040518083038186803b158015611bc057600080fd5b505afa158015611bd4573d6000803e3d6000fd5b505050506040513d601f19601f82011682018060405250810190611bf89190612833565b151514611c3a576040517f08c379a0000000000000000000000000000000000000000000000000000000008152600401611c3190613794565b60405180910390fd5b600080600360009054906101000a900473ffffffffffffffffffffffffffffffffffffffff1673ffffffffffffffffffffffffffffffffffffffff166357c8666933856040518363ffffffff1660e01b8152600401611c9a9291906132e0565b600060405180830381600087803b158015611cb457600080fd5b505af1158015611cc8573d6000803e3d6000fd5b505050506040513d6000823e3d601f19601f82011682018060405250810190611cf19190612762565b915091507ff77ddd1c4747d74e4d857ae1988928cd346feca8a5f694b0c39f7f53e5193580838383604051611d2893929190613581565b60405180910390a1505050565b600080600660009054906101000a900473ffffffffffffffffffffffffffffffffffffffff1673ffffffffffffffffffffffffffffffffffffffff1663095ea7b385856040518363ffffffff1660e01b8152600401611d959291906133f4565b602060405180830381600087803b158015611daf57600080fd5b505af1158015611dc3573d6000803e3d6000fd5b505050506040513d601f19601f82011682018060405250810190611de79190612833565b90508015611e29577fbab4e436a1f75e4f561126509ef0a39ce3a8c2c0d42e0269a857bee6d508d9008484604051611e209291906133f4565b60405180910390a15b8091505092915050565b60011515600160009054906101000a900473ffffffffffffffffffffffffffffffffffffffff1673ffffffffffffffffffffffffffffffffffffffff16635f9d8de6336040518263ffffffff1660e01b8152600401611e9291906131db565b60206040518083038186803b158015611eaa57600080fd5b505afa158015611ebe573d6000803e3d6000fd5b505050506040513d601f19601f82011682018060405250810190611ee29190612833565b151514611f24576040517f08c379a0000000000000000000000000000000000000000000000000000000008152600401611f1b90613794565b60405180910390fd5b600080600360009054906101000a900473ffffffffffffffffffffffffffffffffffffffff1673ffffffffffffffffffffffffffffffffffffffff1663748f9f1233856040518363ffffffff1660e01b8152600401611f849291906132e0565b600060405180830381600087803b158015611f9e57600080fd5b505af1158015611fb2573d6000803e3d6000fd5b505050506040513d6000823e3d601f19601f82011682018060405250810190611fdb9190612762565b915091507ff14b427b14da887f90611136a5e3ceba24d441e75254f1f8900c678af0ad485083838360405161201293929190613581565b60405180910390a1505050565b6000600183141561207657678ac7230489e80000341015612075576040517f08c379a000000000000000000000000000000000000000000000000000000000815260040161206c90613814565b60405180910390fd5b5b60008211156120f057813410156120c2576040517f08c379a00000000000000000000000000000000000000000000000000000000081526004016120b9906137f4565b60405180910390fd5b6120ef600760009054906101000a900473ffffffffffffffffffffffffffffffffffffffff163384611477565b5b6000600160009054906101000a900473ffffffffffffffffffffffffffffffffffffffff1673ffffffffffffffffffffffffffffffffffffffff1663a3305e0c338888886040518563ffffffff1660e01b81526004016121539493929190613355565b602060405180830381600087803b15801561216d57600080fd5b505af1158015612181573d6000803e3d6000fd5b505050506040513d601f19601f820116820180604052508101906121a59190612833565b90507f7f9ecb5a097a48ba760452c7dc9a9b85f16117e64abb0d9248a484a582bb286686826040516121d8929190613612565b60405180910390a180915050949350505050565b6000670de0b6b3a7640000826122029190613af0565b9050919050565b600061221c6122178461390d565b6138e8565b9050808382526020820190508285602086028201111561223b57600080fd5b60005b8581101561226b5781612251888261242c565b84526020840193506020830192505060018101905061223e565b5050509392505050565b600061228861228384613939565b6138e8565b9050808382526020820190508260005b858110156122c857813585016122ae88826124fe565b845260208401935060208301925050600181019050612298565b5050509392505050565b60006122e56122e084613939565b6138e8565b9050808382526020820190508260005b85811015612325578151850161230b8882612528565b8452602084019350602083019250506001810190506122f5565b5050509392505050565b600061234261233d84613965565b6138e8565b9050808382526020820190508285602086028201111561236157600080fd5b60005b8581101561239157816123778882612552565b845260208401935060208301925050600181019050612364565b5050509392505050565b60006123ae6123a984613991565b6138e8565b9050828152602081018484840111156123c657600080fd5b6123d1848285613c32565b509392505050565b60006123ec6123e784613991565b6138e8565b90508281526020810184848401111561240457600080fd5b61240f848285613c41565b509392505050565b60008135905061242681613f17565b92915050565b60008151905061243b81613f17565b92915050565b600082601f83011261245257600080fd5b8151612462848260208601612209565b91505092915050565b600082601f83011261247c57600080fd5b813561248c848260208601612275565b91505092915050565b600082601f8301126124a657600080fd5b81516124b68482602086016122d2565b91505092915050565b600082601f8301126124d057600080fd5b81356124e084826020860161232f565b91505092915050565b6000815190506124f881613f2e565b92915050565b600082601f83011261250f57600080fd5b813561251f84826020860161239b565b91505092915050565b600082601f83011261253957600080fd5b81516125498482602086016123d9565b91505092915050565b60008135905061256181613f45565b92915050565b60008151905061257681613f45565b92915050565b60006020828403121561258e57600080fd5b600061259c84828501612417565b91505092915050565b600080604083850312156125b857600080fd5b60006125c685828601612417565b92505060206125d785828601612417565b9150509250929050565b600080600080608085870312156125f757600080fd5b60006126058782880161242c565b94505060206126168782880161242c565b93505060406126278782880161242c565b925050606061263887828801612567565b91505092959194509250565b60008060006060848603121561265957600080fd5b600061266786828701612417565b935050602061267886828701612417565b925050604061268986828701612552565b9150509250925092565b600080600080608085870312156126a957600080fd5b60006126b787828801612417565b945050602085013567ffffffffffffffff8111156126d457600080fd5b6126e08782880161246b565b93505060406126f187828801612552565b925050606061270287828801612552565b91505092959194509250565b6000806040838503121561272157600080fd5b600061272f85828601612417565b925050602083013567ffffffffffffffff81111561274c57600080fd5b612758858286016124bf565b9150509250929050565b6000806040838503121561277557600080fd5b60006127838582860161242c565b925050602083015167ffffffffffffffff8111156127a057600080fd5b6127ac85828601612528565b9150509250929050565b600080604083850312156127c957600080fd5b60006127d785828601612417565b92505060206127e885828601612552565b9150509250929050565b60006020828403121561280457600080fd5b600082015167ffffffffffffffff81111561281e57600080fd5b61282a84828501612495565b91505092915050565b60006020828403121561284557600080fd5b6000612853848285016124e9565b91505092915050565b60006020828403121561286e57600080fd5b600082013567ffffffffffffffff81111561288857600080fd5b612894848285016124fe565b91505092915050565b60008060008060008060c087890312156128b657600080fd5b600087015167ffffffffffffffff8111156128d057600080fd5b6128dc89828a01612528565b96505060206128ed89828a0161242c565b95505060406128fe89828a0161242c565b945050606087015167ffffffffffffffff81111561291b57600080fd5b61292789828a01612495565b935050608061293889828a01612567565b92505060a087015167ffffffffffffffff81111561295557600080fd5b61296189828a01612528565b9150509295509295509295565b6000806000806080858703121561298457600080fd5b600085015167ffffffffffffffff81111561299e57600080fd5b6129aa87828801612528565b94505060206129bb8782880161242c565b93505060406129cc87828801612567565b92505060606129dd87828801612567565b91505092959194509250565b600080604083850312156129fc57600080fd5b600083015167ffffffffffffffff811115612a1657600080fd5b612a2285828601612528565b925050602083015167ffffffffffffffff811115612a3f57600080fd5b612a4b85828601612528565b9150509250929050565b600080600060608486031215612a6a57600080fd5b600084015167ffffffffffffffff811115612a8457600080fd5b612a9086828701612528565b935050602084015167ffffffffffffffff811115612aad57600080fd5b612ab986828701612528565b925050604084015167ffffffffffffffff811115612ad657600080fd5b612ae286828701612528565b9150509250925092565b60008060008060808587031215612b0257600080fd5b600085015167ffffffffffffffff811115612b1c57600080fd5b612b2887828801612528565b945050602085015167ffffffffffffffff811115612b4557600080fd5b612b5187828801612528565b935050604085015167ffffffffffffffff811115612b6e57600080fd5b612b7a87828801612528565b9250506060612b8b87828801612567565b91505092959194509250565b600080600060608486031215612bac57600080fd5b600084013567ffffffffffffffff811115612bc657600080fd5b612bd2868287016124fe565b935050602084013567ffffffffffffffff811115612bef57600080fd5b612bfb868287016124fe565b9250506040612c0c86828701612552565b9150509250925092565b600080600060608486031215612c2b57600080fd5b600084015167ffffffffffffffff811115612c4557600080fd5b612c5186828701612528565b935050602084015167ffffffffffffffff811115612c6e57600080fd5b612c7a86828701612528565b9250506040612c8b86828701612567565b9150509250925092565b60008060008060808587031215612cab57600080fd5b600085013567ffffffffffffffff811115612cc557600080fd5b612cd1878288016124fe565b945050602085013567ffffffffffffffff811115612cee57600080fd5b612cfa878288016124fe565b9350506040612d0b87828801612552565b9250506060612d1c87828801612552565b91505092959194509250565b600080600060608486031215612d3d57600080fd5b600084013567ffffffffffffffff811115612d5757600080fd5b612d63868287016124fe565b9350506020612d7486828701612552565b9250506040612d8586828701612552565b9150509250925092565b60008060008060808587031215612da557600080fd5b600085013567ffffffffffffffff811115612dbf57600080fd5b612dcb878288016124fe565b9450506020612ddc87828801612552565b9350506040612ded87828801612552565b9250506060612dfe87828801612552565b91505092959194509250565b600060208284031215612e1c57600080fd5b6000612e2a84828501612567565b91505092915050565b60008060408385031215612e4657600080fd5b6000612e5485828601612567565b925050602083015167ffffffffffffffff811115612e7157600080fd5b612e7d85828601612441565b9150509250929050565b6000612e938383612ecb565b60208301905092915050565b6000612eab8383613056565b905092915050565b6000612ebf83836131bd565b60208301905092915050565b612ed481613b7e565b82525050565b612ee381613b7e565b82525050565b6000612ef4826139f2565b612efe8185613a45565b9350612f09836139c2565b8060005b83811015612f3a578151612f218882612e87565b9750612f2c83613a1e565b925050600181019050612f0d565b5085935050505092915050565b6000612f52826139fd565b612f5c8185613a56565b935083602082028501612f6e856139d2565b8060005b85811015612faa5784840389528151612f8b8582612e9f565b9450612f9683613a2b565b925060208a01995050600181019050612f72565b50829750879550505050505092915050565b6000612fc782613a08565b612fd18185613a67565b9350612fdc836139e2565b8060005b8381101561300d578151612ff48882612eb3565b9750612fff83613a38565b925050600181019050612fe0565b5085935050505092915050565b61302381613b90565b82525050565b61303281613bc6565b82525050565b61304181613bea565b82525050565b61305081613c0e565b82525050565b600061306182613a13565b61306b8185613a78565b935061307b818560208601613c41565b61308481613d03565b840191505092915050565b600061309a82613a13565b6130a48185613a89565b93506130b4818560208601613c41565b6130bd81613d03565b840191505092915050565b60006130d5604e83613a89565b91506130e082613d14565b606082019050919050565b60006130f8602783613a89565b915061310382613d89565b604082019050919050565b600061311b602883613a89565b915061312682613dd8565b604082019050919050565b600061313e601b83613a89565b915061314982613e27565b602082019050919050565b6000613161602a83613a89565b915061316c82613e50565b604082019050919050565b6000613184601983613a89565b915061318f82613e9f565b602082019050919050565b60006131a7603983613a89565b91506131b282613ec8565b604082019050919050565b6131c681613bbc565b82525050565b6131d581613bbc565b82525050565b60006020820190506131f06000830184612eda565b92915050565b600060408201905061320b6000830185612eda565b6132186020830184612eda565b9392505050565b60006080820190506132346000830187612eda565b6132416020830186612eda565b81810360408301526132538185612f47565b905061326260608301846131cc565b95945050505050565b60006060820190506132806000830186612eda565b61328d6020830185612eda565b818103604083015261329f8184612fbc565b9050949350505050565b60006060820190506132be6000830186612eda565b6132cb6020830185612eda565b6132d860408301846131cc565b949350505050565b60006040820190506132f56000830185612eda565b8181036020830152613307818461308f565b90509392505050565b60006060820190506133256000830186612eda565b8181036020830152613337818561308f565b9050818103604083015261334b818461308f565b9050949350505050565b600060808201905061336a6000830187612eda565b818103602083015261337c818661308f565b90508181036040830152613390818561308f565b905061339f60608301846131cc565b95945050505050565b60006080820190506133bd6000830187612eda565b81810360208301526133cf818661308f565b90506133de60408301856131cc565b6133eb60608301846131cc565b95945050505050565b60006040820190506134096000830185612eda565b61341660208301846131cc565b9392505050565b600060208201905081810360008301526134378184612f47565b905092915050565b6000602082019050613454600083018461301a565b92915050565b600060208201905061346f6000830184613029565b92915050565b600060208201905061348a6000830184613038565b92915050565b60006020820190506134a56000830184613047565b92915050565b600060208201905081810360008301526134c5818461308f565b905092915050565b600060c08201905081810360008301526134e7818961308f565b90506134f66020830188612eda565b6135036040830187612eda565b81810360608301526135158186612f47565b905061352460808301856131cc565b81810360a0830152613536818461308f565b9050979650505050505050565b6000606082019050818103600083015261355d818661308f565b905061356c6020830185612eda565b613579604083018461301a565b949350505050565b6000606082019050818103600083015261359b818661308f565b90506135aa6020830185612eda565b81810360408301526135bc818461308f565b9050949350505050565b600060808201905081810360008301526135e0818761308f565b90506135ef6020830186612eda565b6135fc60408301856131cc565b61360960608301846131cc565b95945050505050565b6000604082019050818103600083015261362c818561308f565b905061363b602083018461301a565b9392505050565b6000604082019050818103600083015261365c818561308f565b90508181036020830152613670818461308f565b90509392505050565b60006060820190508181036000830152613693818661308f565b905081810360208301526136a7818561308f565b905081810360408301526136bb818461308f565b9050949350505050565b600060808201905081810360008301526136df818761308f565b905081810360208301526136f3818661308f565b90508181036040830152613707818561308f565b905061371660608301846131cc565b95945050505050565b60006060820190508181036000830152613739818661308f565b9050818103602083015261374d818561308f565b905061375c60408301846131cc565b949350505050565b6000604082019050818103600083015261377e818561308f565b905061378d60208301846131cc565b9392505050565b600060208201905081810360008301526137ad816130c8565b9050919050565b600060208201905081810360008301526137cd816130eb565b9050919050565b600060208201905081810360008301526137ed8161310e565b9050919050565b6000602082019050818103600083015261380d81613131565b9050919050565b6000602082019050818103600083015261382d81613154565b9050919050565b6000602082019050818103600083015261384d81613177565b9050919050565b6000602082019050818103600083015261386d8161319a565b9050919050565b600060208201905061388960008301846131cc565b92915050565b60006040820190506138a460008301856131cc565b81810360208301526138b68184612ee9565b90509392505050565b60006040820190506138d460008301856131cc565b6138e160208301846131cc565b9392505050565b60006138f2613903565b90506138fe8282613c74565b919050565b6000604051905090565b600067ffffffffffffffff82111561392857613927613cd4565b5b602082029050602081019050919050565b600067ffffffffffffffff82111561395457613953613cd4565b5b602082029050602081019050919050565b600067ffffffffffffffff8211156139805761397f613cd4565b5b602082029050602081019050919050565b600067ffffffffffffffff8211156139ac576139ab613cd4565b5b6139b582613d03565b9050602081019050919050565b6000819050602082019050919050565b6000819050602082019050919050565b6000819050602082019050919050565b600081519050919050565b600081519050919050565b600081519050919050565b600081519050919050565b6000602082019050919050565b6000602082019050919050565b6000602082019050919050565b600082825260208201905092915050565b600082825260208201905092915050565b600082825260208201905092915050565b600082825260208201905092915050565b600082825260208201905092915050565b6000613aa582613bbc565b9150613ab083613bbc565b9250827fffffffffffffffffffffffffffffffffffffffffffffffffffffffffffffffff03821115613ae557613ae4613ca5565b5b828201905092915050565b6000613afb82613bbc565b9150613b0683613bbc565b9250817fffffffffffffffffffffffffffffffffffffffffffffffffffffffffffffffff0483118215151615613b3f57613b3e613ca5565b5b828202905092915050565b6000613b5582613bbc565b9150613b6083613bbc565b925082821015613b7357613b72613ca5565b5b828203905092915050565b6000613b8982613b9c565b9050919050565b60008115159050919050565b600073ffffffffffffffffffffffffffffffffffffffff82169050919050565b6000819050919050565b6000613bd182613bd8565b9050919050565b6000613be382613b9c565b9050919050565b6000613bf582613bfc565b9050919050565b6000613c0782613b9c565b9050919050565b6000613c1982613c20565b9050919050565b6000613c2b82613b9c565b9050919050565b82818337600083830152505050565b60005b83811015613c5f578082015181840152602081019050613c44565b83811115613c6e576000848401525b50505050565b613c7d82613d03565b810181811067ffffffffffffffff82111715613c9c57613c9b613cd4565b5b80604052505050565b7f4e487b7100000000000000000000000000000000000000000000000000000000600052601160045260246000fd5b7f4e487b7100000000000000000000000000000000000000000000000000000000600052604160045260246000fd5b6000601f19601f8301169050919050565b7f55736572206973206e6f7420612044656c6976657279206167656e742e204f6e60008201527f6c792044656c6976657279206167656e74732063616e2062652061737369676e60208201527f656420666f6f64206f726465722e000000000000000000000000000000000000604082015250565b7f52657374617572616e74206d757374207374616b65206d6f7265207468616e2060008201527f3020657468657200000000000000000000000000000000000000000000000000602082015250565b7f4e6f7420656e6f756768206d6f6e69657320746f20636f766572206f7264657260008201527f20616d6f756e742e000000000000000000000000000000000000000000000000602082015250565b7f4574686572206d757374206d6174636820746f6b656e5374616b650000000000600082015250565b7f44656c6976657279204167656e74206d757374207374616b65206d696e696d7560008201527f6d20313020657468657200000000000000000000000000000000000000000000602082015250565b7f4e6f7420456e6f75676820746f6b656e7320746f207469702e00000000000000600082015250565b7f5573657220697320612044656c6976657279206167656e742e204f6e6c79206360008201527f7573746f6d6572732063616e2061636365737320746869732e00000000000000602082015250565b613f2081613b7e565b8114613f2b57600080fd5b50565b613f3781613b90565b8114613f4257600080fd5b50565b613f4e81613bbc565b8114613f5957600080fd5b5056fea264697066735822122090a5d6c4632f30ec155373a6d00d7443b70953365022eaa001dfe35c921ab85564736f6c63430008030033",
  "immutableReferences": {},
  "source": "pragma solidity ^0.8.1;\n// pragma solidity 0.7.6;\n// \"SPDX-License-Identifier: UNLICENSED\"\n\nimport \"@openzeppelin/contracts/token/ERC20/IERC20.sol\";\n\nimport \"./helpers_interface.sol\";\nimport \"./registration_interface.sol\";\nimport \"./orders_interface.sol\";\n\n\ncontract Foodiez {\n    \n    address ownerAddress;\n\n    // FoodiezRegistration public _foodiezRegistration;\n    // FoodiezHelpers public _foodiezHelpers;\n    // FoodiezOrders public _foodiezOrders;\n    \n    FoodiezRegistrationInterface public _foodiezRegistration;\n    FoodiezHelpersInterface public _foodiezHelpers;\n    FoodiezOrdersInterface public _foodiezOrders;\n\n    /*************Variables and Event Emitter***********************************************************/\n    \n    uint NetworkServiceFee = 2;\n    uint DeliveryFlatFee = 2;\n\n    event UserRegisteredEvent(string userName, bool isRegistered);\n    event UserInfoEvent(string name, address usrAddress, string usrType, uint256 rating);\n    event RestaurantRegistered(string restaurantName, address rAddress, bool isRegistered);\n    event ItemAddedEvent(string restaurantId, string itemId, string itemName);\n    event OrderPlaced(string orderId, string orderStatus);\n    event OrderAssignedToDriver(string orderId, address driverAddress, string orderStatus);\n    event OrderDeliveredToUser(string orderId, address driverAddress, string orderStatus);\n    event orderDeliveryConfirmedEvent(uint restaurantTotal, uint deliveryTotal);\n    \n    event AccountApproved(address account, uint256 allowance);\n    event AmountTransferedToAccount(address account, uint256 amount);\n    event TransferedSenderToRecipient(address sender, address recipient, uint256 amount);\n    \n    /*************Token Setup *************************/\n    IERC20 token;\n    \n    address payable owner;\n    \n    mapping (address => uint256) private _balances;\n\n    mapping (address => mapping (address => uint256)) private _allowances;\n    \n    \n    /************Constructor / Modifiers /  contract address setters*********************************************/\n    constructor(FoodiezRegistrationInterface _registerAddress, FoodiezHelpersInterface _helperAddress, FoodiezOrdersInterface _orderAddress, address _token) {\n        ownerAddress = msg.sender;\n        _foodiezHelpers = _helperAddress;\n        _foodiezRegistration = _registerAddress;\n        _foodiezOrders = _orderAddress;\n        \n        _foodiezRegistration.setParentContract(address(this));\n        _foodiezOrders.setParentContract(address(this));\n        \n        owner = payable(msg.sender); // Token deploy address;\n        token = IERC20(_token);\n    }\n\n    modifier OnlyOwner(){\n        require(msg.sender == ownerAddress, \"Foodiez Registration - Only Owner can call this function\");\n        _; // this underscore is requierd otherwise compiler will break;\n    }\n\n    modifier isDeliveryCheck(){\n        require( _foodiezRegistration.checkUserDelivery(msg.sender) == true, \"User is not a Delivery agent. Only Delivery agents can be assigned food order.\");\n        _;\n    }\n    \n    modifier isUserCheck(){\n        require( _foodiezRegistration.checkUserDelivery(msg.sender) == false, \"User is a Delivery agent. Only customers can access this.\");\n        _;\n    }\n\n    /*************Token Functions******************************************/\n    \n    function tokenApproveAccount(address _address, uint256 amount) public payable returns (bool){\n        \n        bool isApproved = token.approve(_address, amount);\n        if(isApproved) emit AccountApproved(_address, amount);\n        return isApproved;\n    }\n    \n    function allowance(address own, address spender) public view returns (uint256){\n        return token.allowance(own, spender);\n    }\n    \n    function getTokenBalanceOf(address _address) public view returns (uint256){\n        return token.balanceOf(_address);\n    }\n    \n    function tokenTransfer(address recipient, uint256 amount) public payable {\n        bool tokenTransfered = token.transfer(recipient, amount);\n        if(tokenTransfered) emit AmountTransferedToAccount(recipient, amount);\n    }\n    \n    function tokenTransferFrom(address sender, address recipient, uint256 amount) public payable {\n        \n        bool tokenTransfered = token.transferFrom(sender, recipient, amount);\n        \n        \n        if(tokenTransfered) emit TransferedSenderToRecipient(sender, recipient, amount);\n    }\n    \n    /*****************Registration of User ( customer and delivery ) and Restaurant *********************/\n    function userRegister(string memory name, string memory userId, uint uType, uint256 amountStake) public payable returns(bool isSuccess){\n        if(uType == 1) { \n            require(msg.value >= 10 ether, \"Delivery Agent must stake minimum 10 ether\"); \n        }\n        \n        // bool success = tokenApproveAccount(msg.sender, amountStake ); // approval of account to be done directly at tokenContract\n        if(amountStake > 0){\n            require(msg.value >= amountStake, \"Ether must match tokenStake\");\n            tokenTransferFrom(owner, msg.sender, amountStake);\n        }\n        \n        bool isRegistered = _foodiezRegistration.userRegistration(msg.sender, name, userId, uType); // setup token here\n        emit UserRegisteredEvent( name, isRegistered);\n        return isRegistered;\n    }\n    \n    function getUserInfo(address _address) public view returns (string memory usrName, string memory usrId, string memory usrType, uint256 rating){\n        \n        return _foodiezRegistration.getUserInfo(_address);\n        \n    }\n    \n    function registerRestaurant(string memory _name, string memory _rId, uint256 amountStake) public payable{\n        \n        bool isRegistered = _foodiezRegistration.createRestaurant(msg.sender, _name, _rId);\n        emit RestaurantRegistered(_name, msg.sender, isRegistered);\n        \n        //token register and purchase\n        require(msg.value >= 0, \"Restaurant must stake more than 0 ether\");\n        // bool success = tokenApproveAccount(msg.sender, amountStake);\n        tokenTransferFrom(owner, msg.sender, amountStake);\n    }\n    \n    function addMenuItems(string memory _itemName, uint _type, uint _price) public {\n        (string memory rId, string memory uniqueId, string memory itemName) = _foodiezRegistration.addMenuItems(msg.sender, _itemName, _type, _price);\n        \n        emit ItemAddedEvent(rId, uniqueId, itemName);\n    }\n    \n    function getRestaurantMenu(address _restaurantAddress, uint _itemNumber) public view returns(string memory itemName, string memory itemType, uint256 itemPrice){\n        return _foodiezRegistration.getRestaurantMenu(_restaurantAddress, _itemNumber);\n    } \n    \n    function getrestaurantInfo(address _restaurantAddress) public view returns(string memory rId, address rAddress, uint256 rItems, uint256 rating){\n        return _foodiezRegistration.getrestaurantInfo(_restaurantAddress);\n    }\n\n    function getAllRestaurants() public view returns(uint256 count, address[] memory restAddresses){\n        return _foodiezRegistration.getTotalRestaurants();\n    }\n    \n    /************Foodiez Orders Vars and Functions**********************/\n    function orderTotal(address _restaurantAddress, uint[] memory _itemNum) public view returns (uint totalPrice){\n        \n        return _foodiezRegistration.getOrderTotal(msg.sender, _restaurantAddress, _itemNum);\n    }\n\n    function placeOrder(address _restaurantAddress, string[] memory itemNames, uint totalPrice, uint tokenPay) public payable returns (string memory uOrderId, string memory orderStatus){\n        \n        //check for required ether \n        require(msg.value >= totalPrice || weiConverter(tokenPay) >= totalPrice , \"Not enough monies to cover order amount.\");\n        (string memory uniqueId, string memory status) = _foodiezRegistration.createFoodOrder(msg.sender, _restaurantAddress, itemNames, totalPrice);\n        \n        \n        if(tokenPay > 0) {\n            _foodiezOrders.setTokenPayOrder(uniqueId, tokenPay);\n            // transfer(address(this), tokenPay);\n        }\n\n        emit OrderPlaced(uniqueId, status);\n        return (uniqueId, status);\n    }\n\n    function getUserOrders() public view returns (uint256){\n        (uint256 usrOrderCount) = _foodiezRegistration.getUserOrders(msg.sender);\n        return usrOrderCount;\n    }\n\n    function getAllOrders() public view returns (string[] memory allOrders){\n        return _foodiezOrders.getAllOrder();\n    }\n\n    function getOrderStatus(string memory userOrderId) public view returns (string memory orderId, address userAddress, address driverAddress, string[] memory items, uint256 total, string memory status){\n        return _foodiezOrders.getUserOrderStatus(userOrderId);\n    }\n    \n    function assignToDriver(string memory userOrderId) public isDeliveryCheck {\n        \n        (address driverAddress, string memory status) = _foodiezOrders.assignOrderToDriver(msg.sender, userOrderId);\n        emit OrderAssignedToDriver(userOrderId,driverAddress, status);\n    }\n    \n    function driverDelieveredOrder(string memory userOrderId) public isDeliveryCheck {\n        \n        (address driverAddress, string memory status) = _foodiezOrders.driverDelieveredOrder(msg.sender, userOrderId);\n        emit OrderDeliveredToUser(userOrderId,driverAddress, status);\n    }\n    \n    function orderDeliveryConfirmed(string memory userOrderId, uint _restaurantRating, uint _deliveryRating, uint tokenTip ) public isUserCheck payable{\n         \n         (address restaurantAddress, address deliveryAddress, address userAddress, uint total ) = _foodiezOrders.orderDeliveryConfirmed(userOrderId);\n        \n        //ratings for restaurant and drivers\n        _foodiezRegistration.addRestaurantRating(restaurantAddress, _restaurantRating);\n        \n        _foodiezRegistration.addDriverRating(deliveryAddress, _deliveryRating);\n         \n        // payment \n        require(getTokenBalanceOf(userAddress) >= tokenTip, \"Not Enough tokens to tip.\");\n        \n        uint256 tokenPay = _foodiezOrders.getTokenPayOrder(userOrderId);\n        \n         uint finalOrderTotal = total;\n        // take out service fee from total\n        uint serviceFee = _foodiezHelpers.calcServiceFee(total, NetworkServiceFee);\n        finalOrderTotal -= serviceFee;\n            \n        // driver fee + any tips go to \n        uint driverTotal = _foodiezHelpers.calcDriverFlatFee(total, DeliveryFlatFee); \n        finalOrderTotal -= driverTotal; \n        \n        \n        driverTotal += msg.value;\n\n        // if token tip or token pay present make the transfer\n        if(tokenTip > 0) {\n            token.transferFrom(userAddress, deliveryAddress, tokenTip);\n            // token.transferFrom(userAddress, owner, tokenTip);\n            // token.transferFrom(owner, deliveryAddress, tokenTip);\n        }\n        if(tokenPay > 0){\n            token.transferFrom(userAddress, restaurantAddress, tokenPay);\n            // token.transferFrom(userAddress, owner, tokenTip);\n            // token.transferFrom(owner, restaurantAddress, tokenTip);\n        }\n\n        // transfer all other monies\n        // transfer driver money\n        payable(deliveryAddress).transfer(driverTotal);\n        \n        // transfer rest money\n        payable(restaurantAddress).transfer(finalOrderTotal);   \n        \n        emit orderDeliveryConfirmedEvent(finalOrderTotal, driverTotal);\n    }\n\n    \n    function weiConverter(uint256 tokenPay) internal pure returns(uint){\n        return tokenPay * 10**18;\n    }\n}",
  "sourcePath": "/home/dinesh/Blockchain-Projects/EthereumSolidityProject/contracts/parent.sol",
  "compiler": {
    "name": "solc",
    "version": "0.8.3+commit.8d00100c.Emscripten.clang"
  },
  "schemaVersion": "3.3.3",
  "updatedAt": "2021-04-07T19:38:35.886Z",
  "networkType": "ethereum",
  "devdoc": {
    "kind": "dev",
    "methods": {},
    "version": 1
  },
  "userdoc": {
    "kind": "user",
    "methods": {},
    "version": 1
  }
}