{
  "contractName": "FoodiezOrders",
  "abi": [
    {
      "anonymous": false,
      "inputs": [
        {
          "indexed": false,
          "internalType": "uint256",
          "name": "value",
          "type": "uint256"
        },
        {
          "indexed": false,
          "internalType": "address",
          "name": "sender",
          "type": "address"
        }
      ],
      "name": "OrderAssignedToDriver",
      "type": "event"
    },
    {
      "anonymous": false,
      "inputs": [
        {
          "indexed": false,
          "internalType": "bytes",
          "name": "data",
          "type": "bytes"
        },
        {
          "indexed": false,
          "internalType": "address",
          "name": "sender",
          "type": "address"
        }
      ],
      "name": "OrderDeliveredToCustomer",
      "type": "event"
    },
    {
      "inputs": [],
      "name": "parentContractAddress",
      "outputs": [
        {
          "internalType": "address",
          "name": "",
          "type": "address"
        }
      ],
      "stateMutability": "view",
      "type": "function",
      "constant": true
    },
    {
      "inputs": [],
      "name": "registerContractAddress",
      "outputs": [
        {
          "internalType": "address",
          "name": "",
          "type": "address"
        }
      ],
      "stateMutability": "view",
      "type": "function",
      "constant": true
    },
    {
      "inputs": [
        {
          "internalType": "address",
          "name": "_address",
          "type": "address"
        }
      ],
      "name": "setParentContract",
      "outputs": [
        {
          "internalType": "string",
          "name": "",
          "type": "string"
        }
      ],
      "stateMutability": "nonpayable",
      "type": "function"
    },
    {
      "inputs": [
        {
          "internalType": "address",
          "name": "_address",
          "type": "address"
        }
      ],
      "name": "setRegisterContract",
      "outputs": [
        {
          "internalType": "string",
          "name": "",
          "type": "string"
        }
      ],
      "stateMutability": "nonpayable",
      "type": "function"
    },
    {
      "inputs": [
        {
          "internalType": "string",
          "name": "_uniqueUserOrderId",
          "type": "string"
        },
        {
          "internalType": "string",
          "name": "_rId",
          "type": "string"
        },
        {
          "internalType": "address",
          "name": "_restaurantAddress",
          "type": "address"
        },
        {
          "internalType": "address",
          "name": "_userAddress",
          "type": "address"
        },
        {
          "internalType": "string[]",
          "name": "_itemName",
          "type": "string[]"
        },
        {
          "internalType": "uint256",
          "name": "_total",
          "type": "uint256"
        }
      ],
      "name": "createFoodOrderEntry",
      "outputs": [
        {
          "internalType": "string",
          "name": "",
          "type": "string"
        },
        {
          "internalType": "string",
          "name": "",
          "type": "string"
        }
      ],
      "stateMutability": "payable",
      "type": "function",
      "payable": true
    },
    {
      "inputs": [
        {
          "internalType": "string",
          "name": "userOrderId",
          "type": "string"
        }
      ],
      "name": "getUserOrderStatus",
      "outputs": [
        {
          "internalType": "string",
          "name": "",
          "type": "string"
        },
        {
          "internalType": "address",
          "name": "",
          "type": "address"
        },
        {
          "internalType": "address",
          "name": "",
          "type": "address"
        },
        {
          "internalType": "string[]",
          "name": "",
          "type": "string[]"
        },
        {
          "internalType": "uint256",
          "name": "",
          "type": "uint256"
        },
        {
          "internalType": "string",
          "name": "",
          "type": "string"
        }
      ],
      "stateMutability": "view",
      "type": "function",
      "constant": true
    },
    {
      "inputs": [],
      "name": "getAllOrder",
      "outputs": [
        {
          "internalType": "string[]",
          "name": "allOrders",
          "type": "string[]"
        }
      ],
      "stateMutability": "view",
      "type": "function",
      "constant": true
    },
    {
      "inputs": [
        {
          "internalType": "address",
          "name": "_deliveryAddress",
          "type": "address"
        },
        {
          "internalType": "string",
          "name": "userOrderId",
          "type": "string"
        }
      ],
      "name": "assignOrderToDriver",
      "outputs": [
        {
          "internalType": "address",
          "name": "",
          "type": "address"
        },
        {
          "internalType": "string",
          "name": "",
          "type": "string"
        }
      ],
      "stateMutability": "nonpayable",
      "type": "function"
    },
    {
      "inputs": [
        {
          "internalType": "address",
          "name": "_deliveryAddress",
          "type": "address"
        },
        {
          "internalType": "string",
          "name": "userOrderId",
          "type": "string"
        }
      ],
      "name": "driverDelieveredOrder",
      "outputs": [
        {
          "internalType": "address",
          "name": "",
          "type": "address"
        },
        {
          "internalType": "string",
          "name": "",
          "type": "string"
        }
      ],
      "stateMutability": "nonpayable",
      "type": "function"
    },
    {
      "inputs": [
        {
          "internalType": "string",
          "name": "userOrderId",
          "type": "string"
        }
      ],
      "name": "orderDeliveryConfirmed",
      "outputs": [
        {
          "internalType": "address",
          "name": "",
          "type": "address"
        },
        {
          "internalType": "address",
          "name": "",
          "type": "address"
        },
        {
          "internalType": "address",
          "name": "",
          "type": "address"
        },
        {
          "internalType": "uint256",
          "name": "",
          "type": "uint256"
        }
      ],
      "stateMutability": "nonpayable",
      "type": "function"
    },
    {
      "inputs": [
        {
          "internalType": "string",
          "name": "_uniqueOrderId",
          "type": "string"
        },
        {
          "internalType": "uint256",
          "name": "tokenPay",
          "type": "uint256"
        }
      ],
      "name": "setTokenPayOrder",
      "outputs": [],
      "stateMutability": "nonpayable",
      "type": "function"
    },
    {
      "inputs": [
        {
          "internalType": "string",
          "name": "_uniqueOrderId",
          "type": "string"
        }
      ],
      "name": "getTokenPayOrder",
      "outputs": [
        {
          "internalType": "uint256",
          "name": "",
          "type": "uint256"
        }
      ],
      "stateMutability": "view",
      "type": "function",
      "constant": true
    }
  ],
  "bytecode": "0x60806040526000600160146101000a81548160ff0219169083151502179055506000600160156101000a81548160ff02191690831515021790555060006007556002600855600260095534801561005557600080fd5b50613db5806100656000396000f3fe6080604052600436106100a75760003560e01c8063ae596d4e11610064578063ae596d4e146101fb578063b1a68ff214610226578063c25783f714610266578063d182dbcd14610291578063e150a2e8146102ce578063e1729ae21461030b576100a7565b80633dfbbad4146100ac57806357c86669146100d7578063748f9f1214610115578063765ccb6b146101535780637ab8ae16146101905780639b4708d1146101d2575b600080fd5b3480156100b857600080fd5b506100c161033c565b6040516100ce91906137cb565b60405180910390f35b3480156100e357600080fd5b506100fe60048036038101906100f99190613371565b6104fb565b60405161010c92919061379b565b60405180910390f35b34801561012157600080fd5b5061013c60048036038101906101379190613371565b610ed6565b60405161014a92919061379b565b60405180910390f35b34801561015f57600080fd5b5061017a60048036038101906101759190613348565b611806565b60405161018791906137ed565b60405180910390f35b34801561019c57600080fd5b506101b760048036038101906101b291906133c5565b6118d8565b6040516101c99695949392919061380f565b60405180910390f35b3480156101de57600080fd5b506101f960048036038101906101f491906134d7565b611dfb565b005b34801561020757600080fd5b50610210611f08565b60405161021d919061373b565b60405180910390f35b34801561023257600080fd5b5061024d600480360381019061024891906133c5565b611f2c565b60405161025d9493929190613756565b60405180910390f35b34801561027257600080fd5b5061027b61265c565b604051610288919061373b565b60405180910390f35b34801561029d57600080fd5b506102b860048036038101906102b391906133c5565b612682565b6040516102c5919061395c565b60405180910390f35b3480156102da57600080fd5b506102f560048036038101906102f09190613348565b612797565b60405161030291906137ed565b60405180910390f35b61032560048036038101906103209190613406565b61286a565b604051610333929190613885565b60405180910390f35b606060008054906101000a900473ffffffffffffffffffffffffffffffffffffffff1673ffffffffffffffffffffffffffffffffffffffff163373ffffffffffffffffffffffffffffffffffffffff1614806103e55750600160009054906101000a900473ffffffffffffffffffffffffffffffffffffffff1673ffffffffffffffffffffffffffffffffffffffff163373ffffffffffffffffffffffffffffffffffffffff16145b610424576040517f08c379a000000000000000000000000000000000000000000000000000000000815260040161041b9061393c565b60405180910390fd5b6006805480602002602001604051908101604052809291908181526020016000905b828210156104f257838290600052602060002001805461046590613ae8565b80601f016020809104026020016040519081016040528092919081815260200182805461049190613ae8565b80156104de5780601f106104b3576101008083540402835291602001916104de565b820191906000526020600020905b8154815290600101906020018083116104c157829003601f168201915b505050505081526020019060010190610446565b50505050905090565b6000606060008054906101000a900473ffffffffffffffffffffffffffffffffffffffff1673ffffffffffffffffffffffffffffffffffffffff163373ffffffffffffffffffffffffffffffffffffffff1614806105a65750600160009054906101000a900473ffffffffffffffffffffffffffffffffffffffff1673ffffffffffffffffffffffffffffffffffffffff163373ffffffffffffffffffffffffffffffffffffffff16145b6105e5576040517f08c379a00000000000000000000000000000000000000000000000000000000081526004016105dc9061393c565b60405180910390fd5b60006002846040516105f79190613724565b90815260200160405180910390206040518061010001604052908160008201805461062190613ae8565b80601f016020809104026020016040519081016040528092919081815260200182805461064d90613ae8565b801561069a5780601f1061066f5761010080835404028352916020019161069a565b820191906000526020600020905b81548152906001019060200180831161067d57829003601f168201915b505050505081526020016001820180546106b390613ae8565b80601f01602080910402602001604051908101604052809291908181526020018280546106df90613ae8565b801561072c5780601f106107015761010080835404028352916020019161072c565b820191906000526020600020905b81548152906001019060200180831161070f57829003601f168201915b505050505081526020016002820160009054906101000a900473ffffffffffffffffffffffffffffffffffffffff1673ffffffffffffffffffffffffffffffffffffffff1673ffffffffffffffffffffffffffffffffffffffff1681526020016003820160009054906101000a900473ffffffffffffffffffffffffffffffffffffffff1673ffffffffffffffffffffffffffffffffffffffff1673ffffffffffffffffffffffffffffffffffffffff1681526020016004820160009054906101000a900473ffffffffffffffffffffffffffffffffffffffff1673ffffffffffffffffffffffffffffffffffffffff1673ffffffffffffffffffffffffffffffffffffffff16815260200160058201805480602002602001604051908101604052809291908181526020016000905b8282101561090857838290600052602060002001805461087b90613ae8565b80601f01602080910402602001604051908101604052809291908181526020018280546108a790613ae8565b80156108f45780601f106108c9576101008083540402835291602001916108f4565b820191906000526020600020905b8154815290600101906020018083116108d757829003601f168201915b50505050508152602001906001019061085c565b505050508152602001600682015481526020016007820160009054906101000a900460ff166003811115610965577f4e487b7100000000000000000000000000000000000000000000000000000000600052602160045260246000fd5b600381111561099d577f4e487b7100000000000000000000000000000000000000000000000000000000600052602160045260246000fd5b815250509050600073ffffffffffffffffffffffffffffffffffffffff16816080015173ffffffffffffffffffffffffffffffffffffffff1614610a16576040517f08c379a0000000000000000000000000000000000000000000000000000000008152600401610a0d906138dc565b60405180910390fd5b84816080019073ffffffffffffffffffffffffffffffffffffffff16908173ffffffffffffffffffffffffffffffffffffffff168152505060016003811115610a88577f4e487b7100000000000000000000000000000000000000000000000000000000600052602160045260246000fd5b8160e001906003811115610ac5577f4e487b7100000000000000000000000000000000000000000000000000000000600052602160045260246000fd5b90816003811115610aff577f4e487b7100000000000000000000000000000000000000000000000000000000600052602160045260246000fd5b8152505080600285604051610b149190613724565b90815260200160405180910390206000820151816000019080519060200190610b3e9291906130c8565b506020820151816001019080519060200190610b5b9291906130c8565b5060408201518160020160006101000a81548173ffffffffffffffffffffffffffffffffffffffff021916908373ffffffffffffffffffffffffffffffffffffffff16021790555060608201518160030160006101000a81548173ffffffffffffffffffffffffffffffffffffffff021916908373ffffffffffffffffffffffffffffffffffffffff16021790555060808201518160040160006101000a81548173ffffffffffffffffffffffffffffffffffffffff021916908373ffffffffffffffffffffffffffffffffffffffff16021790555060a0820151816005019080519060200190610c4d92919061314e565b5060c0820151816006015560e08201518160070160006101000a81548160ff02191690836003811115610ca9577f4e487b7100000000000000000000000000000000000000000000000000000000600052602160045260246000fd5b021790555090505080600460008773ffffffffffffffffffffffffffffffffffffffff1673ffffffffffffffffffffffffffffffffffffffff1681526020019081526020016000206000820151816000019080519060200190610d0d9291906130c8565b506020820151816001019080519060200190610d2a9291906130c8565b5060408201518160020160006101000a81548173ffffffffffffffffffffffffffffffffffffffff021916908373ffffffffffffffffffffffffffffffffffffffff16021790555060608201518160030160006101000a81548173ffffffffffffffffffffffffffffffffffffffff021916908373ffffffffffffffffffffffffffffffffffffffff16021790555060808201518160040160006101000a81548173ffffffffffffffffffffffffffffffffffffffff021916908373ffffffffffffffffffffffffffffffffffffffff16021790555060a0820151816005019080519060200190610e1c92919061314e565b5060c0820151816006015560e08201518160070160006101000a81548160ff02191690836003811115610e78577f4e487b7100000000000000000000000000000000000000000000000000000000600052602160045260246000fd5b02179055509050508060800151610eca8260e001516003811115610ec5577f4e487b7100000000000000000000000000000000000000000000000000000000600052602160045260246000fd5b612cd8565b92509250509250929050565b6000606060008054906101000a900473ffffffffffffffffffffffffffffffffffffffff1673ffffffffffffffffffffffffffffffffffffffff163373ffffffffffffffffffffffffffffffffffffffff161480610f815750600160009054906101000a900473ffffffffffffffffffffffffffffffffffffffff1673ffffffffffffffffffffffffffffffffffffffff163373ffffffffffffffffffffffffffffffffffffffff16145b610fc0576040517f08c379a0000000000000000000000000000000000000000000000000000000008152600401610fb79061393c565b60405180910390fd5b6000600284604051610fd29190613724565b908152602001604051809103902060405180610100016040529081600082018054610ffc90613ae8565b80601f016020809104026020016040519081016040528092919081815260200182805461102890613ae8565b80156110755780601f1061104a57610100808354040283529160200191611075565b820191906000526020600020905b81548152906001019060200180831161105857829003601f168201915b5050505050815260200160018201805461108e90613ae8565b80601f01602080910402602001604051908101604052809291908181526020018280546110ba90613ae8565b80156111075780601f106110dc57610100808354040283529160200191611107565b820191906000526020600020905b8154815290600101906020018083116110ea57829003601f168201915b505050505081526020016002820160009054906101000a900473ffffffffffffffffffffffffffffffffffffffff1673ffffffffffffffffffffffffffffffffffffffff1673ffffffffffffffffffffffffffffffffffffffff1681526020016003820160009054906101000a900473ffffffffffffffffffffffffffffffffffffffff1673ffffffffffffffffffffffffffffffffffffffff1673ffffffffffffffffffffffffffffffffffffffff1681526020016004820160009054906101000a900473ffffffffffffffffffffffffffffffffffffffff1673ffffffffffffffffffffffffffffffffffffffff1673ffffffffffffffffffffffffffffffffffffffff16815260200160058201805480602002602001604051908101604052809291908181526020016000905b828210156112e357838290600052602060002001805461125690613ae8565b80601f016020809104026020016040519081016040528092919081815260200182805461128290613ae8565b80156112cf5780601f106112a4576101008083540402835291602001916112cf565b820191906000526020600020905b8154815290600101906020018083116112b257829003601f168201915b505050505081526020019060010190611237565b505050508152602001600682015481526020016007820160009054906101000a900460ff166003811115611340577f4e487b7100000000000000000000000000000000000000000000000000000000600052602160045260246000fd5b6003811115611378577f4e487b7100000000000000000000000000000000000000000000000000000000600052602160045260246000fd5b815250509050600260038111156113b8577f4e487b7100000000000000000000000000000000000000000000000000000000600052602160045260246000fd5b8160e0019060038111156113f5577f4e487b7100000000000000000000000000000000000000000000000000000000600052602160045260246000fd5b9081600381111561142f577f4e487b7100000000000000000000000000000000000000000000000000000000600052602160045260246000fd5b81525050806002856040516114449190613724565b9081526020016040518091039020600082015181600001908051906020019061146e9291906130c8565b50602082015181600101908051906020019061148b9291906130c8565b5060408201518160020160006101000a81548173ffffffffffffffffffffffffffffffffffffffff021916908373ffffffffffffffffffffffffffffffffffffffff16021790555060608201518160030160006101000a81548173ffffffffffffffffffffffffffffffffffffffff021916908373ffffffffffffffffffffffffffffffffffffffff16021790555060808201518160040160006101000a81548173ffffffffffffffffffffffffffffffffffffffff021916908373ffffffffffffffffffffffffffffffffffffffff16021790555060a082015181600501908051906020019061157d92919061314e565b5060c0820151816006015560e08201518160070160006101000a81548160ff021916908360038111156115d9577f4e487b7100000000000000000000000000000000000000000000000000000000600052602160045260246000fd5b021790555090505080600460008773ffffffffffffffffffffffffffffffffffffffff1673ffffffffffffffffffffffffffffffffffffffff168152602001908152602001600020600082015181600001908051906020019061163d9291906130c8565b50602082015181600101908051906020019061165a9291906130c8565b5060408201518160020160006101000a81548173ffffffffffffffffffffffffffffffffffffffff021916908373ffffffffffffffffffffffffffffffffffffffff16021790555060608201518160030160006101000a81548173ffffffffffffffffffffffffffffffffffffffff021916908373ffffffffffffffffffffffffffffffffffffffff16021790555060808201518160040160006101000a81548173ffffffffffffffffffffffffffffffffffffffff021916908373ffffffffffffffffffffffffffffffffffffffff16021790555060a082015181600501908051906020019061174c92919061314e565b5060c0820151816006015560e08201518160070160006101000a81548160ff021916908360038111156117a8577f4e487b7100000000000000000000000000000000000000000000000000000000600052602160045260246000fd5b021790555090505080608001516117fa8260e0015160038111156117f5577f4e487b7100000000000000000000000000000000000000000000000000000000600052602160045260246000fd5b612cd8565b92509250509250929050565b606060001515600160149054906101000a900460ff1615151461185e576040517f08c379a00000000000000000000000000000000000000000000000000000000081526004016118559061391c565b60405180910390fd5b816000806101000a81548173ffffffffffffffffffffffffffffffffffffffff021916908373ffffffffffffffffffffffffffffffffffffffff16021790555060018060146101000a81548160ff0219169083151502179055506040518060600160405280602b8152602001613d28602b91399050919050565b606060008060606000606060008054906101000a900473ffffffffffffffffffffffffffffffffffffffff1673ffffffffffffffffffffffffffffffffffffffff163373ffffffffffffffffffffffffffffffffffffffff16148061198a5750600160009054906101000a900473ffffffffffffffffffffffffffffffffffffffff1673ffffffffffffffffffffffffffffffffffffffff163373ffffffffffffffffffffffffffffffffffffffff16145b6119c9576040517f08c379a00000000000000000000000000000000000000000000000000000000081526004016119c09061393c565b60405180910390fd5b60006002886040516119db9190613724565b908152602001604051809103902060405180610100016040529081600082018054611a0590613ae8565b80601f0160208091040260200160405190810160405280929190818152602001828054611a3190613ae8565b8015611a7e5780601f10611a5357610100808354040283529160200191611a7e565b820191906000526020600020905b815481529060010190602001808311611a6157829003601f168201915b50505050508152602001600182018054611a9790613ae8565b80601f0160208091040260200160405190810160405280929190818152602001828054611ac390613ae8565b8015611b105780601f10611ae557610100808354040283529160200191611b10565b820191906000526020600020905b815481529060010190602001808311611af357829003601f168201915b505050505081526020016002820160009054906101000a900473ffffffffffffffffffffffffffffffffffffffff1673ffffffffffffffffffffffffffffffffffffffff1673ffffffffffffffffffffffffffffffffffffffff1681526020016003820160009054906101000a900473ffffffffffffffffffffffffffffffffffffffff1673ffffffffffffffffffffffffffffffffffffffff1673ffffffffffffffffffffffffffffffffffffffff1681526020016004820160009054906101000a900473ffffffffffffffffffffffffffffffffffffffff1673ffffffffffffffffffffffffffffffffffffffff1673ffffffffffffffffffffffffffffffffffffffff16815260200160058201805480602002602001604051908101604052809291908181526020016000905b82821015611cec578382906000526020600020018054611c5f90613ae8565b80601f0160208091040260200160405190810160405280929190818152602001828054611c8b90613ae8565b8015611cd85780601f10611cad57610100808354040283529160200191611cd8565b820191906000526020600020905b815481529060010190602001808311611cbb57829003601f168201915b505050505081526020019060010190611c40565b505050508152602001600682015481526020016007820160009054906101000a900460ff166003811115611d49577f4e487b7100000000000000000000000000000000000000000000000000000000600052602160045260246000fd5b6003811115611d81577f4e487b7100000000000000000000000000000000000000000000000000000000600052602160045260246000fd5b8152505090508060000151816060015182608001518360a001518460c00151611de58660e001516003811115611de0577f4e487b7100000000000000000000000000000000000000000000000000000000600052602160045260246000fd5b612cd8565b9650965096509650965096505091939550919395565b60008054906101000a900473ffffffffffffffffffffffffffffffffffffffff1673ffffffffffffffffffffffffffffffffffffffff163373ffffffffffffffffffffffffffffffffffffffff161480611ea25750600160009054906101000a900473ffffffffffffffffffffffffffffffffffffffff1673ffffffffffffffffffffffffffffffffffffffff163373ffffffffffffffffffffffffffffffffffffffff16145b611ee1576040517f08c379a0000000000000000000000000000000000000000000000000000000008152600401611ed89061393c565b60405180910390fd5b80600583604051611ef29190613724565b9081526020016040518091039020819055505050565b60008054906101000a900473ffffffffffffffffffffffffffffffffffffffff1681565b60008060008060008054906101000a900473ffffffffffffffffffffffffffffffffffffffff1673ffffffffffffffffffffffffffffffffffffffff163373ffffffffffffffffffffffffffffffffffffffff161480611fd95750600160009054906101000a900473ffffffffffffffffffffffffffffffffffffffff1673ffffffffffffffffffffffffffffffffffffffff163373ffffffffffffffffffffffffffffffffffffffff16145b612018576040517f08c379a000000000000000000000000000000000000000000000000000000000815260040161200f9061393c565b60405180910390fd5b600060028660405161202a9190613724565b90815260200160405180910390206040518061010001604052908160008201805461205490613ae8565b80601f016020809104026020016040519081016040528092919081815260200182805461208090613ae8565b80156120cd5780601f106120a2576101008083540402835291602001916120cd565b820191906000526020600020905b8154815290600101906020018083116120b057829003601f168201915b505050505081526020016001820180546120e690613ae8565b80601f016020809104026020016040519081016040528092919081815260200182805461211290613ae8565b801561215f5780601f106121345761010080835404028352916020019161215f565b820191906000526020600020905b81548152906001019060200180831161214257829003601f168201915b505050505081526020016002820160009054906101000a900473ffffffffffffffffffffffffffffffffffffffff1673ffffffffffffffffffffffffffffffffffffffff1673ffffffffffffffffffffffffffffffffffffffff1681526020016003820160009054906101000a900473ffffffffffffffffffffffffffffffffffffffff1673ffffffffffffffffffffffffffffffffffffffff1673ffffffffffffffffffffffffffffffffffffffff1681526020016004820160009054906101000a900473ffffffffffffffffffffffffffffffffffffffff1673ffffffffffffffffffffffffffffffffffffffff1673ffffffffffffffffffffffffffffffffffffffff16815260200160058201805480602002602001604051908101604052809291908181526020016000905b8282101561233b5783829060005260206000200180546122ae90613ae8565b80601f01602080910402602001604051908101604052809291908181526020018280546122da90613ae8565b80156123275780601f106122fc57610100808354040283529160200191612327565b820191906000526020600020905b81548152906001019060200180831161230a57829003601f168201915b50505050508152602001906001019061228f565b505050508152602001600682015481526020016007820160009054906101000a900460ff166003811115612398577f4e487b7100000000000000000000000000000000000000000000000000000000600052602160045260246000fd5b60038111156123d0577f4e487b7100000000000000000000000000000000000000000000000000000000600052602160045260246000fd5b81525050905060038081111561240f577f4e487b7100000000000000000000000000000000000000000000000000000000600052602160045260246000fd5b8160e00190600381111561244c577f4e487b7100000000000000000000000000000000000000000000000000000000600052602160045260246000fd5b90816003811115612486577f4e487b7100000000000000000000000000000000000000000000000000000000600052602160045260246000fd5b815250508060028760405161249b9190613724565b908152602001604051809103902060008201518160000190805190602001906124c59291906130c8565b5060208201518160010190805190602001906124e29291906130c8565b5060408201518160020160006101000a81548173ffffffffffffffffffffffffffffffffffffffff021916908373ffffffffffffffffffffffffffffffffffffffff16021790555060608201518160030160006101000a81548173ffffffffffffffffffffffffffffffffffffffff021916908373ffffffffffffffffffffffffffffffffffffffff16021790555060808201518160040160006101000a81548173ffffffffffffffffffffffffffffffffffffffff021916908373ffffffffffffffffffffffffffffffffffffffff16021790555060a08201518160050190805190602001906125d492919061314e565b5060c0820151816006015560e08201518160070160006101000a81548160ff02191690836003811115612630577f4e487b7100000000000000000000000000000000000000000000000000000000600052602160045260246000fd5b02179055509050508060400151816080015182606001518360c001519450945094509450509193509193565b600160009054906101000a900473ffffffffffffffffffffffffffffffffffffffff1681565b60008060009054906101000a900473ffffffffffffffffffffffffffffffffffffffff1673ffffffffffffffffffffffffffffffffffffffff163373ffffffffffffffffffffffffffffffffffffffff16148061272c5750600160009054906101000a900473ffffffffffffffffffffffffffffffffffffffff1673ffffffffffffffffffffffffffffffffffffffff163373ffffffffffffffffffffffffffffffffffffffff16145b61276b576040517f08c379a00000000000000000000000000000000000000000000000000000000081526004016127629061393c565b60405180910390fd5b600060058360405161277d9190613724565b908152602001604051809103902054905080915050919050565b606060001515600160159054906101000a900460ff161515146127ef576040517f08c379a00000000000000000000000000000000000000000000000000000000081526004016127e6906138fc565b60405180910390fd5b81600160006101000a81548173ffffffffffffffffffffffffffffffffffffffff021916908373ffffffffffffffffffffffffffffffffffffffff16021790555060018060156101000a81548160ff0219169083151502179055506040518060600160405280602d8152602001613d53602d91399050919050565b60608060008054906101000a900473ffffffffffffffffffffffffffffffffffffffff1673ffffffffffffffffffffffffffffffffffffffff163373ffffffffffffffffffffffffffffffffffffffff1614806129145750600160009054906101000a900473ffffffffffffffffffffffffffffffffffffffff1673ffffffffffffffffffffffffffffffffffffffff163373ffffffffffffffffffffffffffffffffffffffff16145b612953576040517f08c379a000000000000000000000000000000000000000000000000000000000815260040161294a9061393c565b60405180910390fd5b60001515612960896130a3565b1515146129a2576040517f08c379a0000000000000000000000000000000000000000000000000000000008152600401612999906138bc565b60405180910390fd5b60006040518061010001604052808a81526020018981526020018873ffffffffffffffffffffffffffffffffffffffff1681526020018773ffffffffffffffffffffffffffffffffffffffff168152602001600073ffffffffffffffffffffffffffffffffffffffff16815260200186815260200185815260200160006003811115612a57577f4e487b7100000000000000000000000000000000000000000000000000000000600052602160045260246000fd5b6003811115612a8f577f4e487b7100000000000000000000000000000000000000000000000000000000600052602160045260246000fd5b81525090508060028a604051612aa59190613724565b90815260200160405180910390206000820151816000019080519060200190612acf9291906130c8565b506020820151816001019080519060200190612aec9291906130c8565b5060408201518160020160006101000a81548173ffffffffffffffffffffffffffffffffffffffff021916908373ffffffffffffffffffffffffffffffffffffffff16021790555060608201518160030160006101000a81548173ffffffffffffffffffffffffffffffffffffffff021916908373ffffffffffffffffffffffffffffffffffffffff16021790555060808201518160040160006101000a81548173ffffffffffffffffffffffffffffffffffffffff021916908373ffffffffffffffffffffffffffffffffffffffff16021790555060a0820151816005019080519060200190612bde92919061314e565b5060c0820151816006015560e08201518160070160006101000a81548160ff02191690836003811115612c3a577f4e487b7100000000000000000000000000000000000000000000000000000000600052602160045260246000fd5b0217905550905050600689908060018154018082558091505060019003906000526020600020016000909190919091509080519060200190612c7d9291906130c8565b508060000151612cc88260e001516003811115612cc3577f4e487b7100000000000000000000000000000000000000000000000000000000600052602160045260246000fd5b612cd8565b9250925050965096945050505050565b60608160ff166003811115612d16577f4e487b7100000000000000000000000000000000000000000000000000000000600052602160045260246000fd5b6003811115612d4e577f4e487b7100000000000000000000000000000000000000000000000000000000600052602160045260246000fd5b60006003811115612d88577f4e487b7100000000000000000000000000000000000000000000000000000000600052602160045260246000fd5b1415612dcb576040518060400160405280600781526020017f4f72646572656400000000000000000000000000000000000000000000000000815250905061309e565b8160ff166003811115612e07577f4e487b7100000000000000000000000000000000000000000000000000000000600052602160045260246000fd5b6003811115612e3f577f4e487b7100000000000000000000000000000000000000000000000000000000600052602160045260246000fd5b60016003811115612e79577f4e487b7100000000000000000000000000000000000000000000000000000000600052602160045260246000fd5b1415612ebc576040518060400160405280600981526020017f496e5472616e7369740000000000000000000000000000000000000000000000815250905061309e565b8160ff166003811115612ef8577f4e487b7100000000000000000000000000000000000000000000000000000000600052602160045260246000fd5b6003811115612f30577f4e487b7100000000000000000000000000000000000000000000000000000000600052602160045260246000fd5b60026003811115612f6a577f4e487b7100000000000000000000000000000000000000000000000000000000600052602160045260246000fd5b1415612fad576040518060400160405280600981526020017f44656c6976657265640000000000000000000000000000000000000000000000815250905061309e565b8160ff166003811115612fe9577f4e487b7100000000000000000000000000000000000000000000000000000000600052602160045260246000fd5b6003811115613021577f4e487b7100000000000000000000000000000000000000000000000000000000600052602160045260246000fd5b60038081111561305a577f4e487b7100000000000000000000000000000000000000000000000000000000600052602160045260246000fd5b141561309d576040518060400160405280600981526020017f436f6d706c657465640000000000000000000000000000000000000000000000815250905061309e565b5b919050565b6000808290506000815114156130bd5760019150506130c3565b60009150505b919050565b8280546130d490613ae8565b90600052602060002090601f0160209004810192826130f6576000855561313d565b82601f1061310f57805160ff191683800117855561313d565b8280016001018555821561313d579182015b8281111561313c578251825591602001919060010190613121565b5b50905061314a91906131ae565b5090565b82805482825590600052602060002090810192821561319d579160200282015b8281111561319c57825182908051906020019061318c9291906130c8565b509160200191906001019061316e565b5b5090506131aa91906131cb565b5090565b5b808211156131c75760008160009055506001016131af565b5090565b5b808211156131eb57600081816131e291906131ef565b506001016131cc565b5090565b5080546131fb90613ae8565b6000825580601f1061320d575061322c565b601f01602090049060005260206000209081019061322b91906131ae565b5b50565b600061324261323d8461399c565b613977565b9050808382526020820190508260005b8581101561328257813585016132688882613309565b845260208401935060208301925050600181019050613252565b5050509392505050565b600061329f61329a846139c8565b613977565b9050828152602081018484840111156132b757600080fd5b6132c2848285613aa6565b509392505050565b6000813590506132d981613cf9565b92915050565b600082601f8301126132f057600080fd5b813561330084826020860161322f565b91505092915050565b600082601f83011261331a57600080fd5b813561332a84826020860161328c565b91505092915050565b60008135905061334281613d10565b92915050565b60006020828403121561335a57600080fd5b6000613368848285016132ca565b91505092915050565b6000806040838503121561338457600080fd5b6000613392858286016132ca565b925050602083013567ffffffffffffffff8111156133af57600080fd5b6133bb85828601613309565b9150509250929050565b6000602082840312156133d757600080fd5b600082013567ffffffffffffffff8111156133f157600080fd5b6133fd84828501613309565b91505092915050565b60008060008060008060c0878903121561341f57600080fd5b600087013567ffffffffffffffff81111561343957600080fd5b61344589828a01613309565b965050602087013567ffffffffffffffff81111561346257600080fd5b61346e89828a01613309565b955050604061347f89828a016132ca565b945050606061349089828a016132ca565b935050608087013567ffffffffffffffff8111156134ad57600080fd5b6134b989828a016132df565b92505060a06134ca89828a01613333565b9150509295509295509295565b600080604083850312156134ea57600080fd5b600083013567ffffffffffffffff81111561350457600080fd5b61351085828601613309565b925050602061352185828601613333565b9150509250929050565b600061353783836135c3565b905092915050565b61354881613a6a565b82525050565b600061355982613a09565b6135638185613a2c565b935083602082028501613575856139f9565b8060005b858110156135b15784840389528151613592858261352b565b945061359d83613a1f565b925060208a01995050600181019050613579565b50829750879550505050505092915050565b60006135ce82613a14565b6135d88185613a3d565b93506135e8818560208601613ab5565b6135f181613ba9565b840191505092915050565b600061360782613a14565b6136118185613a4e565b9350613621818560208601613ab5565b61362a81613ba9565b840191505092915050565b600061364082613a14565b61364a8185613a5f565b935061365a818560208601613ab5565b80840191505092915050565b6000613673601c83613a4e565b915061367e82613bba565b602082019050919050565b6000613696601983613a4e565b91506136a182613be3565b602082019050919050565b60006136b9603883613a4e565b91506136c482613c0c565b604082019050919050565b60006136dc603683613a4e565b91506136e782613c5b565b604082019050919050565b60006136ff602183613a4e565b915061370a82613caa565b604082019050919050565b61371e81613a9c565b82525050565b60006137308284613635565b915081905092915050565b6000602082019050613750600083018461353f565b92915050565b600060808201905061376b600083018761353f565b613778602083018661353f565b613785604083018561353f565b6137926060830184613715565b95945050505050565b60006040820190506137b0600083018561353f565b81810360208301526137c281846135fc565b90509392505050565b600060208201905081810360008301526137e5818461354e565b905092915050565b6000602082019050818103600083015261380781846135fc565b905092915050565b600060c082019050818103600083015261382981896135fc565b9050613838602083018861353f565b613845604083018761353f565b8181036060830152613857818661354e565b90506138666080830185613715565b81810360a083015261387881846135fc565b9050979650505050505050565b6000604082019050818103600083015261389f81856135fc565b905081810360208301526138b381846135fc565b90509392505050565b600060208201905081810360008301526138d581613666565b9050919050565b600060208201905081810360008301526138f581613689565b9050919050565b60006020820190508181036000830152613915816136ac565b9050919050565b60006020820190508181036000830152613935816136cf565b9050919050565b60006020820190508181036000830152613955816136f2565b9050919050565b60006020820190506139716000830184613715565b92915050565b6000613981613992565b905061398d8282613b1a565b919050565b6000604051905090565b600067ffffffffffffffff8211156139b7576139b6613b7a565b5b602082029050602081019050919050565b600067ffffffffffffffff8211156139e3576139e2613b7a565b5b6139ec82613ba9565b9050602081019050919050565b6000819050602082019050919050565b600081519050919050565b600081519050919050565b6000602082019050919050565b600082825260208201905092915050565b600082825260208201905092915050565b600082825260208201905092915050565b600081905092915050565b6000613a7582613a7c565b9050919050565b600073ffffffffffffffffffffffffffffffffffffffff82169050919050565b6000819050919050565b82818337600083830152505050565b60005b83811015613ad3578082015181840152602081019050613ab8565b83811115613ae2576000848401525b50505050565b60006002820490506001821680613b0057607f821691505b60208210811415613b1457613b13613b4b565b5b50919050565b613b2382613ba9565b810181811067ffffffffffffffff82111715613b4257613b41613b7a565b5b80604052505050565b7f4e487b7100000000000000000000000000000000000000000000000000000000600052602260045260246000fd5b7f4e487b7100000000000000000000000000000000000000000000000000000000600052604160045260246000fd5b6000601f19601f8301169050919050565b7f756e69717565206f72646572206964206973206e6f742073656e742e00000000600082015250565b7f4f7264657220697320616c72656164792061737369676e656400000000000000600082015250565b7f466f6f6469657a204f7264657273202d20526567697374657220616c7265616460008201527f79207365742e2043616e6e6f74206265204368616e6765640000000000000000602082015250565b7f466f6f6469657a204f7264657273202d20506172656e7420616c72656164792060008201527f7365742e2043616e6e6f74206265204368616e67656400000000000000000000602082015250565b7f4f6e6c79204f776e65722063616e2063616c6c20746869732066756e6374696f60008201527f6e00000000000000000000000000000000000000000000000000000000000000602082015250565b613d0281613a6a565b8114613d0d57600080fd5b50565b613d1981613a9c565b8114613d2457600080fd5b5056fe466f6f6469657a204f726465727320706172656e7420636f6e74726163742061646472657373207365742e466f6f6469657a204f726465727320726567697374657220636f6e74726163742061646472657373207365742ea2646970667358221220a7dc67de4255ea9097b61fc697cd0d389e925a6b9de4b608406385361c30aa0c64736f6c63430008030033",
  "immutableReferences": {},
  "source": "pragma solidity ^0.8.1;\n// pragma solidity 0.7.6;\n// \"SPDX-License-Identifier: UNLICENSED\"\n\ncontract FoodiezOrders {\n    \n    /************************ Unique Address to be used for Customer, Restaurant and Delivery Driver******************/\n    address public parentContractAddress;\n    address public registerContractAddress;\n    bool isParentContractSet = false;\n    bool isRegisterContract = false;\n    \n    function setParentContract(address _address) public returns(string memory) {\n        require(isParentContractSet == false,\"Foodiez Orders - Parent already set. Cannot be Changed\");\n        parentContractAddress = _address;\n        isParentContractSet = true;\n        \n        return(\"Foodiez Orders parent contract address set.\");\n    }\n    \n    function setRegisterContract(address _address) public returns(string memory) {\n        require(isRegisterContract == false,\"Foodiez Orders - Register already set. Cannot be Changed\");\n        registerContractAddress = _address;\n        isRegisterContract = true;\n        \n        return(\"Foodiez Orders register contract address set.\");\n    }\n    \n    modifier OnlyParent(){\n        require(msg.sender == parentContractAddress || msg.sender == registerContractAddress, \"Only Owner can call this function\");\n        _; // this underscore is requierd otherwise compiler will break;\n    }\n     \n     //Account creation all users will have default 0 tokens. \n     // Customer will earn token by making puchases\n     //Drivers will earn tokens in the form of tips ( from customers ) or by refering new drivers\n     \n     enum OrderStatus {Ordered, InTransit, Delivered, Completed}\n     \n     struct Order{\n         string orderId;\n         string restaurantId;\n         address restaurantAddress;\n         address userAddress;\n         address driverAddress;\n         string[] items;\n         uint total;\n         OrderStatus status;\n     }\n     \n     mapping(string => Order) UserOrders; // unique user order id to order.\n     mapping(address => uint256) UserOrderCount;\n     mapping(address => Order) DriverOrderAssignment; // order assigned to driver. \n     mapping(string => uint256) OrderIdTokenPay;\n     \n     string[] AllOrderIds;\n     uint256 orderTotalCount = 0;\n     \n     uint NetworkServiceFee = 2;\n     uint DriverFlatFee = 2;\n     \n     \n     /*******Events *************/\n     event OrderAssignedToDriver(uint value, address sender);\n     event OrderDeliveredToCustomer(bytes data, address sender);\n     \n    /**************************User Food Orders***************************************************************************************************************************************/\n    function createFoodOrderEntry( string memory _uniqueUserOrderId, string memory _rId, address _restaurantAddress, address _userAddress, string[] memory _itemName, uint _total) \n    public payable OnlyParent returns(string memory, string memory) {\n\n        require(checkIsStringEmpty(_uniqueUserOrderId) == false , \"unique order id is not sent.\");\n\n        Order memory order = Order(_uniqueUserOrderId, _rId, _restaurantAddress, _userAddress,address(0x0), _itemName, _total, OrderStatus(0));\n        UserOrders[_uniqueUserOrderId] = order;\n        AllOrderIds.push(_uniqueUserOrderId);\n\n        return( order.orderId, getOrderStatusFriendly(uint8(order.status)) );\n    }\n    \n    function getUserOrderStatus(string memory userOrderId) public view OnlyParent returns(string memory, address, address, string[] memory, uint256, string memory){\n        Order memory order = UserOrders[userOrderId];\n        \n        return (order.orderId, order.userAddress, order.driverAddress, order.items, order.total, getOrderStatusFriendly(uint8(order.status)));\n    }\n\n    function getAllOrder() public view OnlyParent returns( string[] memory allOrders){\n        return AllOrderIds;\n    }\n     \n     \n     /**************************Food Orders assignment and delivery*******************************************************************/\n    function assignOrderToDriver(address _deliveryAddress, string memory userOrderId) public OnlyParent returns (address, string memory){\n         //check user order to see if driverAddress is set already\n         Order memory order = UserOrders[userOrderId];\n         require(order.driverAddress == address(0x0), \"Order is already assigned\");\n         \n         order.driverAddress = _deliveryAddress;\n         order.status = OrderStatus(1);\n         UserOrders[userOrderId] = order;\n         DriverOrderAssignment[_deliveryAddress] = order;\n         // stake token so that driver cant cheat the customer\n         \n         return(order.driverAddress, getOrderStatusFriendly(uint8(order.status)) );\n         \n    }\n     \n    function driverDelieveredOrder(address _deliveryAddress, string memory userOrderId) public OnlyParent returns (address, string memory){\n\n         Order memory order = UserOrders[userOrderId];\n         order.status = OrderStatus(2);\n         UserOrders[userOrderId] = order;\n         \n         DriverOrderAssignment[_deliveryAddress] = order;\n         \n         return(order.driverAddress, getOrderStatusFriendly(uint8(order.status)) );\n    }\n     \n    function orderDeliveryConfirmed(string memory userOrderId ) public  OnlyParent returns (address, address, address, uint ){\n        Order memory order = UserOrders[userOrderId];\n        order.status = OrderStatus(3);\n        UserOrders[userOrderId] = order;\n        \n    \n    return (payable(order.restaurantAddress), payable(order.driverAddress), payable(order.userAddress), order.total );\n    \n    //  orderPayments(order.total , payable(order.restaurantAddress), payable(order.driverAddress), msg.value, order.restaurantId, _restaurantRating);\n    }\n     \n    /*************************************Order Helpers ************************************************************************/\n    function getOrderStatusFriendly(uint8 _orderStatus) internal pure returns (string memory status) {\n        \n        if(OrderStatus.Ordered == OrderStatus(_orderStatus) ) return \"Ordered\";\n        if(OrderStatus.InTransit == OrderStatus(_orderStatus) ) return \"InTransit\";\n        if(OrderStatus.Delivered == OrderStatus(_orderStatus) ) return \"Delivered\";\n        if(OrderStatus.Completed == OrderStatus(_orderStatus) ) return \"Completed\";\n    }\n    \n    function setTokenPayOrder(string memory _uniqueOrderId, uint256 tokenPay) public OnlyParent {\n        OrderIdTokenPay[_uniqueOrderId] = tokenPay;\n    }\n    \n    function getTokenPayOrder(string memory _uniqueOrderId) public view OnlyParent returns(uint256){\n        uint256 tokenPay = OrderIdTokenPay[_uniqueOrderId];\n        return tokenPay;\n    }\n    \n    function checkIsStringEmpty(string memory stringToTest) internal pure returns (bool){\n        bytes memory checkString = bytes(stringToTest);\n        if(checkString.length == 0){\n            return true;\n        }else{\n            return false;\n        }\n    }\n}",
  "sourcePath": "/home/dinesh/Blockchain-Projects/EthereumSolidityProject/contracts/orders.sol",
  "compiler": {
    "name": "solc",
    "version": "0.8.3+commit.8d00100c.Emscripten.clang"
  },
  "schemaVersion": "3.3.3",
  "updatedAt": "2021-04-10T14:53:10.502Z",
  "networkType": "ethereum",
  "devdoc": {
    "kind": "dev",
    "methods": {},
    "version": 1
  },
  "userdoc": {
    "kind": "user",
    "methods": {},
    "version": 1
  }
}