{
  "contractName": "FoodiezHelpers",
  "abi": [
    {
      "inputs": [
        {
          "internalType": "uint256",
          "name": "v",
          "type": "uint256"
        }
      ],
      "name": "uint2str",
      "outputs": [
        {
          "internalType": "string",
          "name": "",
          "type": "string"
        }
      ],
      "stateMutability": "pure",
      "type": "function",
      "constant": true
    },
    {
      "inputs": [
        {
          "internalType": "uint256",
          "name": "_amount",
          "type": "uint256"
        },
        {
          "internalType": "uint256",
          "name": "_networkServiceFee",
          "type": "uint256"
        }
      ],
      "name": "calcServiceFee",
      "outputs": [
        {
          "internalType": "uint256",
          "name": "",
          "type": "uint256"
        }
      ],
      "stateMutability": "pure",
      "type": "function",
      "constant": true
    },
    {
      "inputs": [
        {
          "internalType": "uint256",
          "name": "_amount",
          "type": "uint256"
        },
        {
          "internalType": "uint256",
          "name": "_driverFlatFee",
          "type": "uint256"
        }
      ],
      "name": "calcDriverFlatFee",
      "outputs": [
        {
          "internalType": "uint256",
          "name": "",
          "type": "uint256"
        }
      ],
      "stateMutability": "pure",
      "type": "function",
      "constant": true
    },
    {
      "inputs": [
        {
          "internalType": "uint256",
          "name": "oneStar",
          "type": "uint256"
        },
        {
          "internalType": "uint256",
          "name": "twoStar",
          "type": "uint256"
        },
        {
          "internalType": "uint256",
          "name": "threeStar",
          "type": "uint256"
        },
        {
          "internalType": "uint256",
          "name": "fourStar",
          "type": "uint256"
        },
        {
          "internalType": "uint256",
          "name": "fiveStar",
          "type": "uint256"
        }
      ],
      "name": "calcWeightedAvg",
      "outputs": [
        {
          "internalType": "uint256",
          "name": "",
          "type": "uint256"
        }
      ],
      "stateMutability": "pure",
      "type": "function",
      "constant": true
    },
    {
      "inputs": [
        {
          "internalType": "uint256",
          "name": "inWei",
          "type": "uint256"
        }
      ],
      "name": "weiToEther",
      "outputs": [
        {
          "internalType": "uint256",
          "name": "",
          "type": "uint256"
        }
      ],
      "stateMutability": "pure",
      "type": "function",
      "constant": true
    },
    {
      "inputs": [
        {
          "internalType": "uint256",
          "name": "inEth",
          "type": "uint256"
        }
      ],
      "name": "etherToWei",
      "outputs": [
        {
          "internalType": "uint256",
          "name": "",
          "type": "uint256"
        }
      ],
      "stateMutability": "pure",
      "type": "function",
      "constant": true
    },
    {
      "inputs": [
        {
          "internalType": "uint8",
          "name": "_usrType",
          "type": "uint8"
        }
      ],
      "name": "getUserTypeFriendly",
      "outputs": [
        {
          "internalType": "string",
          "name": "userType",
          "type": "string"
        }
      ],
      "stateMutability": "pure",
      "type": "function",
      "constant": true
    },
    {
      "inputs": [
        {
          "internalType": "uint8",
          "name": "_menuType",
          "type": "uint8"
        }
      ],
      "name": "getMenuTypeFriendly",
      "outputs": [
        {
          "internalType": "string",
          "name": "userType",
          "type": "string"
        }
      ],
      "stateMutability": "pure",
      "type": "function",
      "constant": true
    }
  ],
  "bytecode": "0x608060405234801561001057600080fd5b50610f78806100206000396000f3fe608060405234801561001057600080fd5b50600436106100885760003560e01c8063d0eff8911161005b578063d0eff8911461014d578063d8916bb91461017d578063dfe11da3146101ad578063f76f950e146101dd57610088565b8063221c9cfe1461008d57806344a3878c146100bd57806348002cc0146100ed578063656095161461011d575b600080fd5b6100a760048036038101906100a29190610b4f565b61020d565b6040516100b49190610c95565b60405180910390f35b6100d760048036038101906100d29190610b8b565b61022f565b6040516100e49190610c95565b60405180910390f35b61010760048036038101906101029190610c02565b6102ed565b6040516101149190610c73565b60405180910390f35b61013760048036038101906101329190610b4f565b6105c7565b6040516101449190610c95565b60405180910390f35b61016760048036038101906101629190610b26565b6105e9565b6040516101749190610c95565b60405180910390f35b61019760048036038101906101929190610b26565b61060b565b6040516101a49190610c95565b60405180910390f35b6101c760048036038101906101c29190610c02565b61062d565b6040516101d49190610c73565b60405180910390f35b6101f760048036038101906101f29190610b26565b610816565b6040516102049190610c73565b60405180910390f35b60006064828461021d9190610d53565b6102279190610d22565b905092915050565b60008082600561023f9190610d53565b84600461024c9190610d53565b8660036102599190610d53565b8860026102669190610d53565b8a60016102739190610d53565b61027d9190610ccc565b6102879190610ccc565b6102919190610ccc565b61029b9190610ccc565b90506000838587898b6102ae9190610ccc565b6102b89190610ccc565b6102c29190610ccc565b6102cc9190610ccc565b9050600081836102dc9190610d22565b905080935050505095945050505050565b60608160ff16600281111561032b577f4e487b7100000000000000000000000000000000000000000000000000000000600052602160045260246000fd5b6002811115610363577f4e487b7100000000000000000000000000000000000000000000000000000000600052602160045260246000fd5b6000600281111561039d577f4e487b7100000000000000000000000000000000000000000000000000000000600052602160045260246000fd5b14156103e0576040518060400160405280600981526020017f4170706574697a6572000000000000000000000000000000000000000000000081525090506105c2565b8160ff16600281111561041c577f4e487b7100000000000000000000000000000000000000000000000000000000600052602160045260246000fd5b6002811115610454577f4e487b7100000000000000000000000000000000000000000000000000000000600052602160045260246000fd5b6001600281111561048e577f4e487b7100000000000000000000000000000000000000000000000000000000600052602160045260246000fd5b14156104d1576040518060400160405280600481526020017f4d61696e0000000000000000000000000000000000000000000000000000000081525090506105c2565b8160ff16600281111561050d577f4e487b7100000000000000000000000000000000000000000000000000000000600052602160045260246000fd5b6002811115610545577f4e487b7100000000000000000000000000000000000000000000000000000000600052602160045260246000fd5b60028081111561057e577f4e487b7100000000000000000000000000000000000000000000000000000000600052602160045260246000fd5b14156105c1576040518060400160405280600681526020017f446573657274000000000000000000000000000000000000000000000000000081525090506105c2565b5b919050565b6000606482846105d79190610d53565b6105e19190610d22565b905092915050565b600080670de0b6b3a7640000905080836106039190610d22565b915050919050565b600080670de0b6b3a7640000905080836106259190610d53565b915050919050565b60608160ff16600181111561066b577f4e487b7100000000000000000000000000000000000000000000000000000000600052602160045260246000fd5b60018111156106a3577f4e487b7100000000000000000000000000000000000000000000000000000000600052602160045260246000fd5b600060018111156106dd577f4e487b7100000000000000000000000000000000000000000000000000000000600052602160045260246000fd5b1415610720576040518060400160405280600881526020017f437573746f6d65720000000000000000000000000000000000000000000000008152509050610811565b8160ff16600181111561075c577f4e487b7100000000000000000000000000000000000000000000000000000000600052602160045260246000fd5b6001811115610794577f4e487b7100000000000000000000000000000000000000000000000000000000600052602160045260246000fd5b6001808111156107cd577f4e487b7100000000000000000000000000000000000000000000000000000000600052602160045260246000fd5b1415610810576040518060400160405280600881526020017f44656c69766572790000000000000000000000000000000000000000000000008152509050610811565b5b919050565b6060600082141561085e576040518060400160405280600181526020017f30000000000000000000000000000000000000000000000000000000000000008152509050610af7565b60006064905060008167ffffffffffffffff8111156108a6577f4e487b7100000000000000000000000000000000000000000000000000000000600052604160045260246000fd5b6040519080825280601f01601f1916602001820160405280156108d85781602001600182028036833780820191505090505b50905060005b60008514610990576000600a866108f59190610e74565b9050600a866109049190610d22565b95508060306109139190610ccc565b60f81b83838061092290610e2b565b94508151811061095b577f4e487b7100000000000000000000000000000000000000000000000000000000600052603260045260246000fd5b60200101907effffffffffffffffffffffffffffffffffffffffffffffffffffffffffffff1916908160001a905350506108de565b60008167ffffffffffffffff8111156109d2577f4e487b7100000000000000000000000000000000000000000000000000000000600052604160045260246000fd5b6040519080825280601f01601f191660200182016040528015610a045781602001600182028036833780820191505090505b50905060005b82811015610ae8578360018285610a219190610dad565b610a2b9190610dad565b81518110610a62577f4e487b7100000000000000000000000000000000000000000000000000000000600052603260045260246000fd5b602001015160f81c60f81b828281518110610aa6577f4e487b7100000000000000000000000000000000000000000000000000000000600052603260045260246000fd5b60200101907effffffffffffffffffffffffffffffffffffffffffffffffffffffffffffff1916908160001a9053508080610ae090610e2b565b915050610a0a565b50600081905080955050505050505b919050565b600081359050610b0b81610f14565b92915050565b600081359050610b2081610f2b565b92915050565b600060208284031215610b3857600080fd5b6000610b4684828501610afc565b91505092915050565b60008060408385031215610b6257600080fd5b6000610b7085828601610afc565b9250506020610b8185828601610afc565b9150509250929050565b600080600080600060a08688031215610ba357600080fd5b6000610bb188828901610afc565b9550506020610bc288828901610afc565b9450506040610bd388828901610afc565b9350506060610be488828901610afc565b9250506080610bf588828901610afc565b9150509295509295909350565b600060208284031215610c1457600080fd5b6000610c2284828501610b11565b91505092915050565b6000610c3682610cb0565b610c408185610cbb565b9350610c50818560208601610df8565b610c5981610f03565b840191505092915050565b610c6d81610de1565b82525050565b60006020820190508181036000830152610c8d8184610c2b565b905092915050565b6000602082019050610caa6000830184610c64565b92915050565b600081519050919050565b600082825260208201905092915050565b6000610cd782610de1565b9150610ce283610de1565b9250827fffffffffffffffffffffffffffffffffffffffffffffffffffffffffffffffff03821115610d1757610d16610ea5565b5b828201905092915050565b6000610d2d82610de1565b9150610d3883610de1565b925082610d4857610d47610ed4565b5b828204905092915050565b6000610d5e82610de1565b9150610d6983610de1565b9250817fffffffffffffffffffffffffffffffffffffffffffffffffffffffffffffffff0483118215151615610da257610da1610ea5565b5b828202905092915050565b6000610db882610de1565b9150610dc383610de1565b925082821015610dd657610dd5610ea5565b5b828203905092915050565b6000819050919050565b600060ff82169050919050565b60005b83811015610e16578082015181840152602081019050610dfb565b83811115610e25576000848401525b50505050565b6000610e3682610de1565b91507fffffffffffffffffffffffffffffffffffffffffffffffffffffffffffffffff821415610e6957610e68610ea5565b5b600182019050919050565b6000610e7f82610de1565b9150610e8a83610de1565b925082610e9a57610e99610ed4565b5b828206905092915050565b7f4e487b7100000000000000000000000000000000000000000000000000000000600052601160045260246000fd5b7f4e487b7100000000000000000000000000000000000000000000000000000000600052601260045260246000fd5b6000601f19601f8301169050919050565b610f1d81610de1565b8114610f2857600080fd5b50565b610f3481610deb565b8114610f3f57600080fd5b5056fea26469706673582212206ac63d80898a7c95aa9a6229f8c6c08015af731e029fdf985c00955231cf395a64736f6c63430008030033",
  "immutableReferences": {},
  "source": "pragma solidity ^0.8.1;\n// pragma solidity 0.7.6;\n// \"SPDX-License-Identifier: UNLICENSED\"\n\ncontract FoodiezHelpers{\n\n    enum UserType { Customer, Delivery } // 0 , 1\n    enum MenuType { Appetizer, Main, Desert }\n\n    function uint2str(uint v) public pure returns (string memory) {\n        if(v == 0){\n            return '0';\n        }\n        uint maxlength = 100;\n        bytes memory reversed = new bytes(maxlength);\n        uint i = 0;\n        while (v != 0) {\n            uint remainder = v % 10;\n            v = v / 10;\n            reversed[i++] = bytes1(uint8(48 + remainder));\n        }\n        bytes memory s = new bytes(i); // i + 1 is inefficient\n        for (uint j = 0; j < i; j++) {\n            s[j] = reversed[i - j - 1]; // to avoid the off-by-one error\n        }\n        string memory str = string(s);  // memory isn't implicitly convertible to storage\n        return str;\n    }\n\n        \n    // function uint2str(uint _i) public pure returns (string memory _uintAsString) {\n    //     if (_i == 0) {\n    //     return \"0\";\n    //     }\n        \n    //     uint j = _i;\n    //     uint len;\n        \n    //     while (j != 0) {\n    //         len++;\n    //         j /= 10;\n    //     }\n    //     bytes memory bstr = new bytes(len);\n    //     uint k = len - 1;\n    //     while (_i != 0) {\n    //         bstr[k--] = bytes1(uint8(48 + _i % 10));\n    //         _i /= 10;\n    //     }\n    //     return string(bstr);\n    // }\n    \n    // functions to calculate service fee and driver fee\n    function calcServiceFee(uint _amount, uint _networkServiceFee) public pure returns(uint){\n        \n        // uint serviceFeePercentage = NetworkServiceFee /100;\n        \n        return (_amount * _networkServiceFee) / 100;\n        \n    }\n    \n    function calcDriverFlatFee(uint _amount, uint _driverFlatFee) public pure returns(uint){\n        \n        // uint driverFeePercentage = DriverFlatFee /100;\n        \n        return (_amount * _driverFlatFee) / 100;\n        \n    }\n    \n    function calcWeightedAvg(uint oneStar, uint twoStar, uint threeStar, uint fourStar, uint fiveStar) public pure returns (uint){\n        uint weightPerRating = 1*oneStar + 2*twoStar + 3*threeStar + 4*fourStar + 5*fiveStar;\n        uint totalRatingCount = oneStar + twoStar + threeStar + fourStar + fiveStar;\n        uint averageRating = weightPerRating / totalRatingCount;\n        \n        return averageRating;\n        \n    }\n\n    function weiToEther(uint inWei) public pure returns (uint){\n        uint oneEth = 1000000000000000000; //inWei\n        return (inWei / oneEth);\n    }\n\n    function etherToWei(uint inEth) public pure returns (uint){\n        uint oneEth = 1000000000000000000;\n        return (inEth * oneEth);\n    }\n\n    function getUserTypeFriendly(uint8 _usrType) public pure returns (string memory userType) {\n        \n        if(UserType.Customer == UserType(_usrType) ) return \"Customer\";\n        if(UserType.Delivery == UserType(_usrType)) return \"Delivery\";\n    }\n    \n    function getMenuTypeFriendly(uint8 _menuType) public pure returns (string memory userType) {\n        \n        if(MenuType.Appetizer == MenuType(_menuType) ) return \"Appetizer\";\n        if(MenuType.Main == MenuType(_menuType) ) return \"Main\";\n        if(MenuType.Desert == MenuType(_menuType)) return \"Desert\";\n    }\n}",
  "sourcePath": "/home/dinesh/Blockchain-Projects/EthereumSolidityProject/contracts/helpers.sol",
  "compiler": {
    "name": "solc",
    "version": "0.8.3+commit.8d00100c.Emscripten.clang"
  },
  "schemaVersion": "3.3.3",
  "updatedAt": "2021-04-05T00:21:08.358Z",
  "networkType": "ethereum",
  "devdoc": {
    "kind": "dev",
    "methods": {},
    "version": 1
  },
  "userdoc": {
    "kind": "user",
    "methods": {},
    "version": 1
  }
}