{
  "contractName": "FoodiezOrders",
  "abi": [
    {
      "anonymous": false,
      "inputs": [
        {
          "indexed": false,
          "internalType": "uint256",
          "name": "value",
          "type": "uint256"
        },
        {
          "indexed": false,
          "internalType": "address",
          "name": "sender",
          "type": "address"
        }
      ],
      "name": "OrderAssignedToDriver",
      "type": "event"
    },
    {
      "anonymous": false,
      "inputs": [
        {
          "indexed": false,
          "internalType": "bytes",
          "name": "data",
          "type": "bytes"
        },
        {
          "indexed": false,
          "internalType": "address",
          "name": "sender",
          "type": "address"
        }
      ],
      "name": "OrderDeliveredToCustomer",
      "type": "event"
    },
    {
      "inputs": [],
      "name": "parentContractAddress",
      "outputs": [
        {
          "internalType": "address",
          "name": "",
          "type": "address"
        }
      ],
      "stateMutability": "view",
      "type": "function",
      "constant": true
    },
    {
      "inputs": [],
      "name": "registerContractAddress",
      "outputs": [
        {
          "internalType": "address",
          "name": "",
          "type": "address"
        }
      ],
      "stateMutability": "view",
      "type": "function",
      "constant": true
    },
    {
      "inputs": [
        {
          "internalType": "address",
          "name": "_address",
          "type": "address"
        }
      ],
      "name": "setParentContract",
      "outputs": [
        {
          "internalType": "string",
          "name": "",
          "type": "string"
        }
      ],
      "stateMutability": "nonpayable",
      "type": "function"
    },
    {
      "inputs": [
        {
          "internalType": "address",
          "name": "_address",
          "type": "address"
        }
      ],
      "name": "setRegisterContract",
      "outputs": [
        {
          "internalType": "string",
          "name": "",
          "type": "string"
        }
      ],
      "stateMutability": "nonpayable",
      "type": "function"
    },
    {
      "inputs": [
        {
          "internalType": "string",
          "name": "_uniqueUserOrderId",
          "type": "string"
        },
        {
          "internalType": "string",
          "name": "_rId",
          "type": "string"
        },
        {
          "internalType": "address",
          "name": "_restaurantAddress",
          "type": "address"
        },
        {
          "internalType": "address",
          "name": "_userAddress",
          "type": "address"
        },
        {
          "internalType": "string[]",
          "name": "_itemName",
          "type": "string[]"
        },
        {
          "internalType": "uint256",
          "name": "_total",
          "type": "uint256"
        }
      ],
      "name": "createFoodOrderEntry",
      "outputs": [
        {
          "internalType": "string",
          "name": "",
          "type": "string"
        },
        {
          "internalType": "string",
          "name": "",
          "type": "string"
        }
      ],
      "stateMutability": "payable",
      "type": "function",
      "payable": true
    },
    {
      "inputs": [
        {
          "internalType": "string",
          "name": "userOrderId",
          "type": "string"
        }
      ],
      "name": "getUserOrderStatus",
      "outputs": [
        {
          "internalType": "string",
          "name": "",
          "type": "string"
        },
        {
          "internalType": "address",
          "name": "",
          "type": "address"
        },
        {
          "internalType": "address",
          "name": "",
          "type": "address"
        },
        {
          "internalType": "string[]",
          "name": "",
          "type": "string[]"
        },
        {
          "internalType": "uint256",
          "name": "",
          "type": "uint256"
        },
        {
          "internalType": "string",
          "name": "",
          "type": "string"
        }
      ],
      "stateMutability": "view",
      "type": "function",
      "constant": true
    },
    {
      "inputs": [
        {
          "internalType": "address",
          "name": "_deliveryAddress",
          "type": "address"
        },
        {
          "internalType": "string",
          "name": "userOrderId",
          "type": "string"
        }
      ],
      "name": "assignOrderToDriver",
      "outputs": [
        {
          "internalType": "address",
          "name": "",
          "type": "address"
        },
        {
          "internalType": "string",
          "name": "",
          "type": "string"
        }
      ],
      "stateMutability": "nonpayable",
      "type": "function"
    },
    {
      "inputs": [
        {
          "internalType": "address",
          "name": "_deliveryAddress",
          "type": "address"
        },
        {
          "internalType": "string",
          "name": "userOrderId",
          "type": "string"
        }
      ],
      "name": "driverDelieveredOrder",
      "outputs": [
        {
          "internalType": "address",
          "name": "",
          "type": "address"
        },
        {
          "internalType": "string",
          "name": "",
          "type": "string"
        }
      ],
      "stateMutability": "nonpayable",
      "type": "function"
    },
    {
      "inputs": [
        {
          "internalType": "string",
          "name": "userOrderId",
          "type": "string"
        }
      ],
      "name": "orderDeliveryConfirmed",
      "outputs": [
        {
          "internalType": "address",
          "name": "",
          "type": "address"
        },
        {
          "internalType": "address",
          "name": "",
          "type": "address"
        },
        {
          "internalType": "address",
          "name": "",
          "type": "address"
        },
        {
          "internalType": "uint256",
          "name": "",
          "type": "uint256"
        }
      ],
      "stateMutability": "nonpayable",
      "type": "function"
    },
    {
      "inputs": [
        {
          "internalType": "string",
          "name": "_uniqueOrderId",
          "type": "string"
        },
        {
          "internalType": "uint256",
          "name": "tokenPay",
          "type": "uint256"
        }
      ],
      "name": "setTokenPayOrder",
      "outputs": [],
      "stateMutability": "nonpayable",
      "type": "function"
    },
    {
      "inputs": [
        {
          "internalType": "string",
          "name": "_uniqueOrderId",
          "type": "string"
        }
      ],
      "name": "getTokenPayOrder",
      "outputs": [
        {
          "internalType": "uint256",
          "name": "",
          "type": "uint256"
        }
      ],
      "stateMutability": "view",
      "type": "function",
      "constant": true
    }
  ],
  "bytecode": "0x60806040526000600160146101000a81548160ff0219169083151502179055506000600160156101000a81548160ff02191690831515021790555060006006556002600755600260085534801561005557600080fd5b50613b62806100656000396000f3fe60806040526004361061009c5760003560e01c8063ae596d4e11610064578063ae596d4e146101c5578063b1a68ff2146101f0578063c25783f714610230578063d182dbcd1461025b578063e150a2e814610298578063e1729ae2146102d55761009c565b806357c86669146100a1578063748f9f12146100df578063765ccb6b1461011d5780637ab8ae161461015a5780639b4708d11461019c575b600080fd5b3480156100ad57600080fd5b506100c860048036038101906100c39190613140565b610306565b6040516100d692919061356a565b60405180910390f35b3480156100eb57600080fd5b5061010660048036038101906101019190613140565b610ce1565b60405161011492919061356a565b60405180910390f35b34801561012957600080fd5b50610144600480360381019061013f9190613117565b611611565b604051610151919061359a565b60405180910390f35b34801561016657600080fd5b50610181600480360381019061017c9190613194565b6116e3565b604051610193969594939291906135bc565b60405180910390f35b3480156101a857600080fd5b506101c360048036038101906101be91906132a6565b611c06565b005b3480156101d157600080fd5b506101da611d13565b6040516101e7919061350a565b60405180910390f35b3480156101fc57600080fd5b5061021760048036038101906102129190613194565b611d37565b6040516102279493929190613525565b60405180910390f35b34801561023c57600080fd5b50610245612467565b604051610252919061350a565b60405180910390f35b34801561026757600080fd5b50610282600480360381019061027d9190613194565b61248d565b60405161028f9190613709565b60405180910390f35b3480156102a457600080fd5b506102bf60048036038101906102ba9190613117565b6125a2565b6040516102cc919061359a565b60405180910390f35b6102ef60048036038101906102ea91906131d5565b612675565b6040516102fd929190613632565b60405180910390f35b6000606060008054906101000a900473ffffffffffffffffffffffffffffffffffffffff1673ffffffffffffffffffffffffffffffffffffffff163373ffffffffffffffffffffffffffffffffffffffff1614806103b15750600160009054906101000a900473ffffffffffffffffffffffffffffffffffffffff1673ffffffffffffffffffffffffffffffffffffffff163373ffffffffffffffffffffffffffffffffffffffff16145b6103f0576040517f08c379a00000000000000000000000000000000000000000000000000000000081526004016103e7906136e9565b60405180910390fd5b600060028460405161040291906134f3565b90815260200160405180910390206040518061010001604052908160008201805461042c90613895565b80601f016020809104026020016040519081016040528092919081815260200182805461045890613895565b80156104a55780601f1061047a576101008083540402835291602001916104a5565b820191906000526020600020905b81548152906001019060200180831161048857829003601f168201915b505050505081526020016001820180546104be90613895565b80601f01602080910402602001604051908101604052809291908181526020018280546104ea90613895565b80156105375780601f1061050c57610100808354040283529160200191610537565b820191906000526020600020905b81548152906001019060200180831161051a57829003601f168201915b505050505081526020016002820160009054906101000a900473ffffffffffffffffffffffffffffffffffffffff1673ffffffffffffffffffffffffffffffffffffffff1673ffffffffffffffffffffffffffffffffffffffff1681526020016003820160009054906101000a900473ffffffffffffffffffffffffffffffffffffffff1673ffffffffffffffffffffffffffffffffffffffff1673ffffffffffffffffffffffffffffffffffffffff1681526020016004820160009054906101000a900473ffffffffffffffffffffffffffffffffffffffff1673ffffffffffffffffffffffffffffffffffffffff1673ffffffffffffffffffffffffffffffffffffffff16815260200160058201805480602002602001604051908101604052809291908181526020016000905b8282101561071357838290600052602060002001805461068690613895565b80601f01602080910402602001604051908101604052809291908181526020018280546106b290613895565b80156106ff5780601f106106d4576101008083540402835291602001916106ff565b820191906000526020600020905b8154815290600101906020018083116106e257829003601f168201915b505050505081526020019060010190610667565b505050508152602001600682015481526020016007820160009054906101000a900460ff166003811115610770577f4e487b7100000000000000000000000000000000000000000000000000000000600052602160045260246000fd5b60038111156107a8577f4e487b7100000000000000000000000000000000000000000000000000000000600052602160045260246000fd5b815250509050600073ffffffffffffffffffffffffffffffffffffffff16816080015173ffffffffffffffffffffffffffffffffffffffff1614610821576040517f08c379a000000000000000000000000000000000000000000000000000000000815260040161081890613689565b60405180910390fd5b84816080019073ffffffffffffffffffffffffffffffffffffffff16908173ffffffffffffffffffffffffffffffffffffffff168152505060016003811115610893577f4e487b7100000000000000000000000000000000000000000000000000000000600052602160045260246000fd5b8160e0019060038111156108d0577f4e487b7100000000000000000000000000000000000000000000000000000000600052602160045260246000fd5b9081600381111561090a577f4e487b7100000000000000000000000000000000000000000000000000000000600052602160045260246000fd5b815250508060028560405161091f91906134f3565b90815260200160405180910390206000820151816000019080519060200190610949929190612e97565b506020820151816001019080519060200190610966929190612e97565b5060408201518160020160006101000a81548173ffffffffffffffffffffffffffffffffffffffff021916908373ffffffffffffffffffffffffffffffffffffffff16021790555060608201518160030160006101000a81548173ffffffffffffffffffffffffffffffffffffffff021916908373ffffffffffffffffffffffffffffffffffffffff16021790555060808201518160040160006101000a81548173ffffffffffffffffffffffffffffffffffffffff021916908373ffffffffffffffffffffffffffffffffffffffff16021790555060a0820151816005019080519060200190610a58929190612f1d565b5060c0820151816006015560e08201518160070160006101000a81548160ff02191690836003811115610ab4577f4e487b7100000000000000000000000000000000000000000000000000000000600052602160045260246000fd5b021790555090505080600460008773ffffffffffffffffffffffffffffffffffffffff1673ffffffffffffffffffffffffffffffffffffffff1681526020019081526020016000206000820151816000019080519060200190610b18929190612e97565b506020820151816001019080519060200190610b35929190612e97565b5060408201518160020160006101000a81548173ffffffffffffffffffffffffffffffffffffffff021916908373ffffffffffffffffffffffffffffffffffffffff16021790555060608201518160030160006101000a81548173ffffffffffffffffffffffffffffffffffffffff021916908373ffffffffffffffffffffffffffffffffffffffff16021790555060808201518160040160006101000a81548173ffffffffffffffffffffffffffffffffffffffff021916908373ffffffffffffffffffffffffffffffffffffffff16021790555060a0820151816005019080519060200190610c27929190612f1d565b5060c0820151816006015560e08201518160070160006101000a81548160ff02191690836003811115610c83577f4e487b7100000000000000000000000000000000000000000000000000000000600052602160045260246000fd5b02179055509050508060800151610cd58260e001516003811115610cd0577f4e487b7100000000000000000000000000000000000000000000000000000000600052602160045260246000fd5b612aa7565b92509250509250929050565b6000606060008054906101000a900473ffffffffffffffffffffffffffffffffffffffff1673ffffffffffffffffffffffffffffffffffffffff163373ffffffffffffffffffffffffffffffffffffffff161480610d8c5750600160009054906101000a900473ffffffffffffffffffffffffffffffffffffffff1673ffffffffffffffffffffffffffffffffffffffff163373ffffffffffffffffffffffffffffffffffffffff16145b610dcb576040517f08c379a0000000000000000000000000000000000000000000000000000000008152600401610dc2906136e9565b60405180910390fd5b6000600284604051610ddd91906134f3565b908152602001604051809103902060405180610100016040529081600082018054610e0790613895565b80601f0160208091040260200160405190810160405280929190818152602001828054610e3390613895565b8015610e805780601f10610e5557610100808354040283529160200191610e80565b820191906000526020600020905b815481529060010190602001808311610e6357829003601f168201915b50505050508152602001600182018054610e9990613895565b80601f0160208091040260200160405190810160405280929190818152602001828054610ec590613895565b8015610f125780601f10610ee757610100808354040283529160200191610f12565b820191906000526020600020905b815481529060010190602001808311610ef557829003601f168201915b505050505081526020016002820160009054906101000a900473ffffffffffffffffffffffffffffffffffffffff1673ffffffffffffffffffffffffffffffffffffffff1673ffffffffffffffffffffffffffffffffffffffff1681526020016003820160009054906101000a900473ffffffffffffffffffffffffffffffffffffffff1673ffffffffffffffffffffffffffffffffffffffff1673ffffffffffffffffffffffffffffffffffffffff1681526020016004820160009054906101000a900473ffffffffffffffffffffffffffffffffffffffff1673ffffffffffffffffffffffffffffffffffffffff1673ffffffffffffffffffffffffffffffffffffffff16815260200160058201805480602002602001604051908101604052809291908181526020016000905b828210156110ee57838290600052602060002001805461106190613895565b80601f016020809104026020016040519081016040528092919081815260200182805461108d90613895565b80156110da5780601f106110af576101008083540402835291602001916110da565b820191906000526020600020905b8154815290600101906020018083116110bd57829003601f168201915b505050505081526020019060010190611042565b505050508152602001600682015481526020016007820160009054906101000a900460ff16600381111561114b577f4e487b7100000000000000000000000000000000000000000000000000000000600052602160045260246000fd5b6003811115611183577f4e487b7100000000000000000000000000000000000000000000000000000000600052602160045260246000fd5b815250509050600260038111156111c3577f4e487b7100000000000000000000000000000000000000000000000000000000600052602160045260246000fd5b8160e001906003811115611200577f4e487b7100000000000000000000000000000000000000000000000000000000600052602160045260246000fd5b9081600381111561123a577f4e487b7100000000000000000000000000000000000000000000000000000000600052602160045260246000fd5b815250508060028560405161124f91906134f3565b90815260200160405180910390206000820151816000019080519060200190611279929190612e97565b506020820151816001019080519060200190611296929190612e97565b5060408201518160020160006101000a81548173ffffffffffffffffffffffffffffffffffffffff021916908373ffffffffffffffffffffffffffffffffffffffff16021790555060608201518160030160006101000a81548173ffffffffffffffffffffffffffffffffffffffff021916908373ffffffffffffffffffffffffffffffffffffffff16021790555060808201518160040160006101000a81548173ffffffffffffffffffffffffffffffffffffffff021916908373ffffffffffffffffffffffffffffffffffffffff16021790555060a0820151816005019080519060200190611388929190612f1d565b5060c0820151816006015560e08201518160070160006101000a81548160ff021916908360038111156113e4577f4e487b7100000000000000000000000000000000000000000000000000000000600052602160045260246000fd5b021790555090505080600460008773ffffffffffffffffffffffffffffffffffffffff1673ffffffffffffffffffffffffffffffffffffffff1681526020019081526020016000206000820151816000019080519060200190611448929190612e97565b506020820151816001019080519060200190611465929190612e97565b5060408201518160020160006101000a81548173ffffffffffffffffffffffffffffffffffffffff021916908373ffffffffffffffffffffffffffffffffffffffff16021790555060608201518160030160006101000a81548173ffffffffffffffffffffffffffffffffffffffff021916908373ffffffffffffffffffffffffffffffffffffffff16021790555060808201518160040160006101000a81548173ffffffffffffffffffffffffffffffffffffffff021916908373ffffffffffffffffffffffffffffffffffffffff16021790555060a0820151816005019080519060200190611557929190612f1d565b5060c0820151816006015560e08201518160070160006101000a81548160ff021916908360038111156115b3577f4e487b7100000000000000000000000000000000000000000000000000000000600052602160045260246000fd5b021790555090505080608001516116058260e001516003811115611600577f4e487b7100000000000000000000000000000000000000000000000000000000600052602160045260246000fd5b612aa7565b92509250509250929050565b606060001515600160149054906101000a900460ff16151514611669576040517f08c379a0000000000000000000000000000000000000000000000000000000008152600401611660906136c9565b60405180910390fd5b816000806101000a81548173ffffffffffffffffffffffffffffffffffffffff021916908373ffffffffffffffffffffffffffffffffffffffff16021790555060018060146101000a81548160ff0219169083151502179055506040518060600160405280602b8152602001613ad5602b91399050919050565b606060008060606000606060008054906101000a900473ffffffffffffffffffffffffffffffffffffffff1673ffffffffffffffffffffffffffffffffffffffff163373ffffffffffffffffffffffffffffffffffffffff1614806117955750600160009054906101000a900473ffffffffffffffffffffffffffffffffffffffff1673ffffffffffffffffffffffffffffffffffffffff163373ffffffffffffffffffffffffffffffffffffffff16145b6117d4576040517f08c379a00000000000000000000000000000000000000000000000000000000081526004016117cb906136e9565b60405180910390fd5b60006002886040516117e691906134f3565b90815260200160405180910390206040518061010001604052908160008201805461181090613895565b80601f016020809104026020016040519081016040528092919081815260200182805461183c90613895565b80156118895780601f1061185e57610100808354040283529160200191611889565b820191906000526020600020905b81548152906001019060200180831161186c57829003601f168201915b505050505081526020016001820180546118a290613895565b80601f01602080910402602001604051908101604052809291908181526020018280546118ce90613895565b801561191b5780601f106118f05761010080835404028352916020019161191b565b820191906000526020600020905b8154815290600101906020018083116118fe57829003601f168201915b505050505081526020016002820160009054906101000a900473ffffffffffffffffffffffffffffffffffffffff1673ffffffffffffffffffffffffffffffffffffffff1673ffffffffffffffffffffffffffffffffffffffff1681526020016003820160009054906101000a900473ffffffffffffffffffffffffffffffffffffffff1673ffffffffffffffffffffffffffffffffffffffff1673ffffffffffffffffffffffffffffffffffffffff1681526020016004820160009054906101000a900473ffffffffffffffffffffffffffffffffffffffff1673ffffffffffffffffffffffffffffffffffffffff1673ffffffffffffffffffffffffffffffffffffffff16815260200160058201805480602002602001604051908101604052809291908181526020016000905b82821015611af7578382906000526020600020018054611a6a90613895565b80601f0160208091040260200160405190810160405280929190818152602001828054611a9690613895565b8015611ae35780601f10611ab857610100808354040283529160200191611ae3565b820191906000526020600020905b815481529060010190602001808311611ac657829003601f168201915b505050505081526020019060010190611a4b565b505050508152602001600682015481526020016007820160009054906101000a900460ff166003811115611b54577f4e487b7100000000000000000000000000000000000000000000000000000000600052602160045260246000fd5b6003811115611b8c577f4e487b7100000000000000000000000000000000000000000000000000000000600052602160045260246000fd5b8152505090508060000151816060015182608001518360a001518460c00151611bf08660e001516003811115611beb577f4e487b7100000000000000000000000000000000000000000000000000000000600052602160045260246000fd5b612aa7565b9650965096509650965096505091939550919395565b60008054906101000a900473ffffffffffffffffffffffffffffffffffffffff1673ffffffffffffffffffffffffffffffffffffffff163373ffffffffffffffffffffffffffffffffffffffff161480611cad5750600160009054906101000a900473ffffffffffffffffffffffffffffffffffffffff1673ffffffffffffffffffffffffffffffffffffffff163373ffffffffffffffffffffffffffffffffffffffff16145b611cec576040517f08c379a0000000000000000000000000000000000000000000000000000000008152600401611ce3906136e9565b60405180910390fd5b80600583604051611cfd91906134f3565b9081526020016040518091039020819055505050565b60008054906101000a900473ffffffffffffffffffffffffffffffffffffffff1681565b60008060008060008054906101000a900473ffffffffffffffffffffffffffffffffffffffff1673ffffffffffffffffffffffffffffffffffffffff163373ffffffffffffffffffffffffffffffffffffffff161480611de45750600160009054906101000a900473ffffffffffffffffffffffffffffffffffffffff1673ffffffffffffffffffffffffffffffffffffffff163373ffffffffffffffffffffffffffffffffffffffff16145b611e23576040517f08c379a0000000000000000000000000000000000000000000000000000000008152600401611e1a906136e9565b60405180910390fd5b6000600286604051611e3591906134f3565b908152602001604051809103902060405180610100016040529081600082018054611e5f90613895565b80601f0160208091040260200160405190810160405280929190818152602001828054611e8b90613895565b8015611ed85780601f10611ead57610100808354040283529160200191611ed8565b820191906000526020600020905b815481529060010190602001808311611ebb57829003601f168201915b50505050508152602001600182018054611ef190613895565b80601f0160208091040260200160405190810160405280929190818152602001828054611f1d90613895565b8015611f6a5780601f10611f3f57610100808354040283529160200191611f6a565b820191906000526020600020905b815481529060010190602001808311611f4d57829003601f168201915b505050505081526020016002820160009054906101000a900473ffffffffffffffffffffffffffffffffffffffff1673ffffffffffffffffffffffffffffffffffffffff1673ffffffffffffffffffffffffffffffffffffffff1681526020016003820160009054906101000a900473ffffffffffffffffffffffffffffffffffffffff1673ffffffffffffffffffffffffffffffffffffffff1673ffffffffffffffffffffffffffffffffffffffff1681526020016004820160009054906101000a900473ffffffffffffffffffffffffffffffffffffffff1673ffffffffffffffffffffffffffffffffffffffff1673ffffffffffffffffffffffffffffffffffffffff16815260200160058201805480602002602001604051908101604052809291908181526020016000905b828210156121465783829060005260206000200180546120b990613895565b80601f01602080910402602001604051908101604052809291908181526020018280546120e590613895565b80156121325780601f1061210757610100808354040283529160200191612132565b820191906000526020600020905b81548152906001019060200180831161211557829003601f168201915b50505050508152602001906001019061209a565b505050508152602001600682015481526020016007820160009054906101000a900460ff1660038111156121a3577f4e487b7100000000000000000000000000000000000000000000000000000000600052602160045260246000fd5b60038111156121db577f4e487b7100000000000000000000000000000000000000000000000000000000600052602160045260246000fd5b81525050905060038081111561221a577f4e487b7100000000000000000000000000000000000000000000000000000000600052602160045260246000fd5b8160e001906003811115612257577f4e487b7100000000000000000000000000000000000000000000000000000000600052602160045260246000fd5b90816003811115612291577f4e487b7100000000000000000000000000000000000000000000000000000000600052602160045260246000fd5b81525050806002876040516122a691906134f3565b908152602001604051809103902060008201518160000190805190602001906122d0929190612e97565b5060208201518160010190805190602001906122ed929190612e97565b5060408201518160020160006101000a81548173ffffffffffffffffffffffffffffffffffffffff021916908373ffffffffffffffffffffffffffffffffffffffff16021790555060608201518160030160006101000a81548173ffffffffffffffffffffffffffffffffffffffff021916908373ffffffffffffffffffffffffffffffffffffffff16021790555060808201518160040160006101000a81548173ffffffffffffffffffffffffffffffffffffffff021916908373ffffffffffffffffffffffffffffffffffffffff16021790555060a08201518160050190805190602001906123df929190612f1d565b5060c0820151816006015560e08201518160070160006101000a81548160ff0219169083600381111561243b577f4e487b7100000000000000000000000000000000000000000000000000000000600052602160045260246000fd5b02179055509050508060400151816080015182606001518360c001519450945094509450509193509193565b600160009054906101000a900473ffffffffffffffffffffffffffffffffffffffff1681565b60008060009054906101000a900473ffffffffffffffffffffffffffffffffffffffff1673ffffffffffffffffffffffffffffffffffffffff163373ffffffffffffffffffffffffffffffffffffffff1614806125375750600160009054906101000a900473ffffffffffffffffffffffffffffffffffffffff1673ffffffffffffffffffffffffffffffffffffffff163373ffffffffffffffffffffffffffffffffffffffff16145b612576576040517f08c379a000000000000000000000000000000000000000000000000000000000815260040161256d906136e9565b60405180910390fd5b600060058360405161258891906134f3565b908152602001604051809103902054905080915050919050565b606060001515600160159054906101000a900460ff161515146125fa576040517f08c379a00000000000000000000000000000000000000000000000000000000081526004016125f1906136a9565b60405180910390fd5b81600160006101000a81548173ffffffffffffffffffffffffffffffffffffffff021916908373ffffffffffffffffffffffffffffffffffffffff16021790555060018060156101000a81548160ff0219169083151502179055506040518060600160405280602d8152602001613b00602d91399050919050565b60608060008054906101000a900473ffffffffffffffffffffffffffffffffffffffff1673ffffffffffffffffffffffffffffffffffffffff163373ffffffffffffffffffffffffffffffffffffffff16148061271f5750600160009054906101000a900473ffffffffffffffffffffffffffffffffffffffff1673ffffffffffffffffffffffffffffffffffffffff163373ffffffffffffffffffffffffffffffffffffffff16145b61275e576040517f08c379a0000000000000000000000000000000000000000000000000000000008152600401612755906136e9565b60405180910390fd5b6000151561276b89612e72565b1515146127ad576040517f08c379a00000000000000000000000000000000000000000000000000000000081526004016127a490613669565b60405180910390fd5b60006040518061010001604052808a81526020018981526020018873ffffffffffffffffffffffffffffffffffffffff1681526020018773ffffffffffffffffffffffffffffffffffffffff168152602001600073ffffffffffffffffffffffffffffffffffffffff16815260200186815260200185815260200160006003811115612862577f4e487b7100000000000000000000000000000000000000000000000000000000600052602160045260246000fd5b600381111561289a577f4e487b7100000000000000000000000000000000000000000000000000000000600052602160045260246000fd5b81525090508060028a6040516128b091906134f3565b908152602001604051809103902060008201518160000190805190602001906128da929190612e97565b5060208201518160010190805190602001906128f7929190612e97565b5060408201518160020160006101000a81548173ffffffffffffffffffffffffffffffffffffffff021916908373ffffffffffffffffffffffffffffffffffffffff16021790555060608201518160030160006101000a81548173ffffffffffffffffffffffffffffffffffffffff021916908373ffffffffffffffffffffffffffffffffffffffff16021790555060808201518160040160006101000a81548173ffffffffffffffffffffffffffffffffffffffff021916908373ffffffffffffffffffffffffffffffffffffffff16021790555060a08201518160050190805190602001906129e9929190612f1d565b5060c0820151816006015560e08201518160070160006101000a81548160ff02191690836003811115612a45577f4e487b7100000000000000000000000000000000000000000000000000000000600052602160045260246000fd5b02179055509050508060000151612a978260e001516003811115612a92577f4e487b7100000000000000000000000000000000000000000000000000000000600052602160045260246000fd5b612aa7565b9250925050965096945050505050565b60608160ff166003811115612ae5577f4e487b7100000000000000000000000000000000000000000000000000000000600052602160045260246000fd5b6003811115612b1d577f4e487b7100000000000000000000000000000000000000000000000000000000600052602160045260246000fd5b60006003811115612b57577f4e487b7100000000000000000000000000000000000000000000000000000000600052602160045260246000fd5b1415612b9a576040518060400160405280600781526020017f4f726465726564000000000000000000000000000000000000000000000000008152509050612e6d565b8160ff166003811115612bd6577f4e487b7100000000000000000000000000000000000000000000000000000000600052602160045260246000fd5b6003811115612c0e577f4e487b7100000000000000000000000000000000000000000000000000000000600052602160045260246000fd5b60016003811115612c48577f4e487b7100000000000000000000000000000000000000000000000000000000600052602160045260246000fd5b1415612c8b576040518060400160405280600981526020017f496e5472616e73697400000000000000000000000000000000000000000000008152509050612e6d565b8160ff166003811115612cc7577f4e487b7100000000000000000000000000000000000000000000000000000000600052602160045260246000fd5b6003811115612cff577f4e487b7100000000000000000000000000000000000000000000000000000000600052602160045260246000fd5b60026003811115612d39577f4e487b7100000000000000000000000000000000000000000000000000000000600052602160045260246000fd5b1415612d7c576040518060400160405280600981526020017f44656c69766572656400000000000000000000000000000000000000000000008152509050612e6d565b8160ff166003811115612db8577f4e487b7100000000000000000000000000000000000000000000000000000000600052602160045260246000fd5b6003811115612df0577f4e487b7100000000000000000000000000000000000000000000000000000000600052602160045260246000fd5b600380811115612e29577f4e487b7100000000000000000000000000000000000000000000000000000000600052602160045260246000fd5b1415612e6c576040518060400160405280600981526020017f436f6d706c6574656400000000000000000000000000000000000000000000008152509050612e6d565b5b919050565b600080829050600081511415612e8c576001915050612e92565b60009150505b919050565b828054612ea390613895565b90600052602060002090601f016020900481019282612ec55760008555612f0c565b82601f10612ede57805160ff1916838001178555612f0c565b82800160010185558215612f0c579182015b82811115612f0b578251825591602001919060010190612ef0565b5b509050612f199190612f7d565b5090565b828054828255906000526020600020908101928215612f6c579160200282015b82811115612f6b578251829080519060200190612f5b929190612e97565b5091602001919060010190612f3d565b5b509050612f799190612f9a565b5090565b5b80821115612f96576000816000905550600101612f7e565b5090565b5b80821115612fba5760008181612fb19190612fbe565b50600101612f9b565b5090565b508054612fca90613895565b6000825580601f10612fdc5750612ffb565b601f016020900490600052602060002090810190612ffa9190612f7d565b5b50565b600061301161300c84613749565b613724565b9050808382526020820190508260005b85811015613051578135850161303788826130d8565b845260208401935060208301925050600181019050613021565b5050509392505050565b600061306e61306984613775565b613724565b90508281526020810184848401111561308657600080fd5b613091848285613853565b509392505050565b6000813590506130a881613aa6565b92915050565b600082601f8301126130bf57600080fd5b81356130cf848260208601612ffe565b91505092915050565b600082601f8301126130e957600080fd5b81356130f984826020860161305b565b91505092915050565b60008135905061311181613abd565b92915050565b60006020828403121561312957600080fd5b600061313784828501613099565b91505092915050565b6000806040838503121561315357600080fd5b600061316185828601613099565b925050602083013567ffffffffffffffff81111561317e57600080fd5b61318a858286016130d8565b9150509250929050565b6000602082840312156131a657600080fd5b600082013567ffffffffffffffff8111156131c057600080fd5b6131cc848285016130d8565b91505092915050565b60008060008060008060c087890312156131ee57600080fd5b600087013567ffffffffffffffff81111561320857600080fd5b61321489828a016130d8565b965050602087013567ffffffffffffffff81111561323157600080fd5b61323d89828a016130d8565b955050604061324e89828a01613099565b945050606061325f89828a01613099565b935050608087013567ffffffffffffffff81111561327c57600080fd5b61328889828a016130ae565b92505060a061329989828a01613102565b9150509295509295509295565b600080604083850312156132b957600080fd5b600083013567ffffffffffffffff8111156132d357600080fd5b6132df858286016130d8565b92505060206132f085828601613102565b9150509250929050565b60006133068383613392565b905092915050565b61331781613817565b82525050565b6000613328826137b6565b61333281856137d9565b935083602082028501613344856137a6565b8060005b85811015613380578484038952815161336185826132fa565b945061336c836137cc565b925060208a01995050600181019050613348565b50829750879550505050505092915050565b600061339d826137c1565b6133a781856137ea565b93506133b7818560208601613862565b6133c081613956565b840191505092915050565b60006133d6826137c1565b6133e081856137fb565b93506133f0818560208601613862565b6133f981613956565b840191505092915050565b600061340f826137c1565b613419818561380c565b9350613429818560208601613862565b80840191505092915050565b6000613442601c836137fb565b915061344d82613967565b602082019050919050565b60006134656019836137fb565b915061347082613990565b602082019050919050565b60006134886038836137fb565b9150613493826139b9565b604082019050919050565b60006134ab6036836137fb565b91506134b682613a08565b604082019050919050565b60006134ce6021836137fb565b91506134d982613a57565b604082019050919050565b6134ed81613849565b82525050565b60006134ff8284613404565b915081905092915050565b600060208201905061351f600083018461330e565b92915050565b600060808201905061353a600083018761330e565b613547602083018661330e565b613554604083018561330e565b61356160608301846134e4565b95945050505050565b600060408201905061357f600083018561330e565b818103602083015261359181846133cb565b90509392505050565b600060208201905081810360008301526135b481846133cb565b905092915050565b600060c08201905081810360008301526135d681896133cb565b90506135e5602083018861330e565b6135f2604083018761330e565b8181036060830152613604818661331d565b905061361360808301856134e4565b81810360a083015261362581846133cb565b9050979650505050505050565b6000604082019050818103600083015261364c81856133cb565b9050818103602083015261366081846133cb565b90509392505050565b6000602082019050818103600083015261368281613435565b9050919050565b600060208201905081810360008301526136a281613458565b9050919050565b600060208201905081810360008301526136c28161347b565b9050919050565b600060208201905081810360008301526136e28161349e565b9050919050565b60006020820190508181036000830152613702816134c1565b9050919050565b600060208201905061371e60008301846134e4565b92915050565b600061372e61373f565b905061373a82826138c7565b919050565b6000604051905090565b600067ffffffffffffffff82111561376457613763613927565b5b602082029050602081019050919050565b600067ffffffffffffffff8211156137905761378f613927565b5b61379982613956565b9050602081019050919050565b6000819050602082019050919050565b600081519050919050565b600081519050919050565b6000602082019050919050565b600082825260208201905092915050565b600082825260208201905092915050565b600082825260208201905092915050565b600081905092915050565b600061382282613829565b9050919050565b600073ffffffffffffffffffffffffffffffffffffffff82169050919050565b6000819050919050565b82818337600083830152505050565b60005b83811015613880578082015181840152602081019050613865565b8381111561388f576000848401525b50505050565b600060028204905060018216806138ad57607f821691505b602082108114156138c1576138c06138f8565b5b50919050565b6138d082613956565b810181811067ffffffffffffffff821117156138ef576138ee613927565b5b80604052505050565b7f4e487b7100000000000000000000000000000000000000000000000000000000600052602260045260246000fd5b7f4e487b7100000000000000000000000000000000000000000000000000000000600052604160045260246000fd5b6000601f19601f8301169050919050565b7f756e69717565206f72646572206964206973206e6f742073656e742e00000000600082015250565b7f4f7264657220697320616c72656164792061737369676e656400000000000000600082015250565b7f466f6f6469657a204f7264657273202d20526567697374657220616c7265616460008201527f79207365742e2043616e6e6f74206265204368616e6765640000000000000000602082015250565b7f466f6f6469657a204f7264657273202d20506172656e7420616c72656164792060008201527f7365742e2043616e6e6f74206265204368616e67656400000000000000000000602082015250565b7f4f6e6c79204f776e65722063616e2063616c6c20746869732066756e6374696f60008201527f6e00000000000000000000000000000000000000000000000000000000000000602082015250565b613aaf81613817565b8114613aba57600080fd5b50565b613ac681613849565b8114613ad157600080fd5b5056fe466f6f6469657a204f726465727320706172656e7420636f6e74726163742061646472657373207365742e466f6f6469657a204f726465727320726567697374657220636f6e74726163742061646472657373207365742ea26469706673582212201bf98b2808d0062ecc3a63de1db0bf6e71fc83d5ae9c5533126b08012f0281a164736f6c63430008030033",
  "immutableReferences": {},
  "source": "pragma solidity ^0.8.1;\n// pragma solidity 0.7.6;\n// \"SPDX-License-Identifier: UNLICENSED\"\n\ncontract FoodiezOrders {\n    \n    /************************ Unique Address to be used for Customer, Restaurant and Delivery Driver******************/\n    address public parentContractAddress;\n    address public registerContractAddress;\n    bool isParentContractSet = false;\n    bool isRegisterContract = false;\n    \n    function setParentContract(address _address) public returns(string memory) {\n        require(isParentContractSet == false,\"Foodiez Orders - Parent already set. Cannot be Changed\");\n        parentContractAddress = _address;\n        isParentContractSet = true;\n        \n        return(\"Foodiez Orders parent contract address set.\");\n    }\n    \n    function setRegisterContract(address _address) public returns(string memory) {\n        require(isRegisterContract == false,\"Foodiez Orders - Register already set. Cannot be Changed\");\n        registerContractAddress = _address;\n        isRegisterContract = true;\n        \n        return(\"Foodiez Orders register contract address set.\");\n    }\n    \n    modifier OnlyParent(){\n        require(msg.sender == parentContractAddress || msg.sender == registerContractAddress, \"Only Owner can call this function\");\n        _; // this underscore is requierd otherwise compiler will break;\n    }\n     \n     //Account creation all users will have default 0 tokens. \n     // Customer will earn token by making puchases\n     //Drivers will earn tokens in the form of tips ( from customers ) or by refering new drivers\n     \n     enum OrderStatus {Ordered, InTransit, Delivered, Completed}\n     \n     struct Order{\n         string orderId;\n         string restaurantId;\n         address restaurantAddress;\n         address userAddress;\n         address driverAddress;\n         string[] items;\n         uint total;\n         OrderStatus status;\n     }\n     \n     mapping(string => Order) UserOrders; // unique user order id to order.\n     mapping(address => uint256) UserOrderCount;\n     mapping(address => Order) DriverOrderAssignment; // order assigned to driver. \n     mapping(string => uint256) OrderIdTokenPay;\n     \n     uint256 orderTotalCount = 0;\n     \n     uint NetworkServiceFee = 2;\n     uint DriverFlatFee = 2;\n     \n     \n     /*******Events *************/\n     event OrderAssignedToDriver(uint value, address sender);\n     event OrderDeliveredToCustomer(bytes data, address sender);\n     \n    /**************************User Food Orders***************************************************************************************************************************************/\n    function createFoodOrderEntry( string memory _uniqueUserOrderId, string memory _rId, address _restaurantAddress, address _userAddress, string[] memory _itemName, uint _total) \n    public payable OnlyParent returns(string memory, string memory) {\n\n        require(checkIsStringEmpty(_uniqueUserOrderId) == false , \"unique order id is not sent.\");\n\n        Order memory order = Order(_uniqueUserOrderId, _rId, _restaurantAddress, _userAddress,address(0x0), _itemName, _total, OrderStatus(0));\n        UserOrders[_uniqueUserOrderId] = order;\n\n        return( order.orderId, getOrderStatusFriendly(uint8(order.status)) );\n    }\n    \n    function getUserOrderStatus(string memory userOrderId) public view OnlyParent returns(string memory, address, address, string[] memory, uint256, string memory){\n        Order memory order = UserOrders[userOrderId];\n        \n        return (order.orderId, order.userAddress, order.driverAddress, order.items, order.total, getOrderStatusFriendly(uint8(order.status)));\n    }\n     \n     \n     /**************************Food Orders assignment and delivery*******************************************************************/\n    function assignOrderToDriver(address _deliveryAddress, string memory userOrderId) public OnlyParent returns (address, string memory){\n         //check user order to see if driverAddress is set already\n         Order memory order = UserOrders[userOrderId];\n         require(order.driverAddress == address(0x0), \"Order is already assigned\");\n         \n         order.driverAddress = _deliveryAddress;\n         order.status = OrderStatus(1);\n         UserOrders[userOrderId] = order;\n         DriverOrderAssignment[_deliveryAddress] = order;\n         // stake token so that driver cant cheat the customer\n         \n         return(order.driverAddress, getOrderStatusFriendly(uint8(order.status)) );\n         \n    }\n     \n    function driverDelieveredOrder(address _deliveryAddress, string memory userOrderId) public OnlyParent returns (address, string memory){\n\n         Order memory order = UserOrders[userOrderId];\n         order.status = OrderStatus(2);\n         UserOrders[userOrderId] = order;\n         \n         DriverOrderAssignment[_deliveryAddress] = order;\n         \n         return(order.driverAddress, getOrderStatusFriendly(uint8(order.status)) );\n    }\n     \n    function orderDeliveryConfirmed(string memory userOrderId ) public  OnlyParent returns (address, address, address, uint ){\n        Order memory order = UserOrders[userOrderId];\n        order.status = OrderStatus(3);\n        UserOrders[userOrderId] = order;\n        \n    \n    return (payable(order.restaurantAddress), payable(order.driverAddress), payable(order.userAddress), order.total );\n    \n    //  orderPayments(order.total , payable(order.restaurantAddress), payable(order.driverAddress), msg.value, order.restaurantId, _restaurantRating);\n    }\n     \n    /*************************************Order Helpers ************************************************************************/\n    function getOrderStatusFriendly(uint8 _orderStatus) internal pure returns (string memory status) {\n        \n        if(OrderStatus.Ordered == OrderStatus(_orderStatus) ) return \"Ordered\";\n        if(OrderStatus.InTransit == OrderStatus(_orderStatus) ) return \"InTransit\";\n        if(OrderStatus.Delivered == OrderStatus(_orderStatus) ) return \"Delivered\";\n        if(OrderStatus.Completed == OrderStatus(_orderStatus) ) return \"Completed\";\n    }\n    \n    function setTokenPayOrder(string memory _uniqueOrderId, uint256 tokenPay) public OnlyParent {\n        OrderIdTokenPay[_uniqueOrderId] = tokenPay;\n    }\n    \n    function getTokenPayOrder(string memory _uniqueOrderId) public view OnlyParent returns(uint256){\n        uint256 tokenPay = OrderIdTokenPay[_uniqueOrderId];\n        return tokenPay;\n    }\n    \n    function checkIsStringEmpty(string memory stringToTest) internal pure returns (bool){\n        bytes memory checkString = bytes(stringToTest);\n        if(checkString.length == 0){\n            return true;\n        }else{\n            return false;\n        }\n    }\n}",
  "sourcePath": "/home/dinesh/Blockchain-Projects/EthereumSolidityProject/contracts/orders.sol",
  "compiler": {
    "name": "solc",
    "version": "0.8.3+commit.8d00100c.Emscripten.clang"
  },
  "schemaVersion": "3.3.3",
  "updatedAt": "2021-04-05T00:21:08.335Z",
  "networkType": "ethereum",
  "devdoc": {
    "kind": "dev",
    "methods": {},
    "version": 1
  },
  "userdoc": {
    "kind": "user",
    "methods": {},
    "version": 1
  }
}