{
  "contractName": "Foodiez",
  "abi": [
    {
      "inputs": [
        {
          "internalType": "contract FoodiezRegistrationInterface",
          "name": "_registerAddress",
          "type": "address"
        },
        {
          "internalType": "contract FoodiezHelpersInterface",
          "name": "_helperAddress",
          "type": "address"
        },
        {
          "internalType": "contract FoodiezOrdersInterface",
          "name": "_orderAddress",
          "type": "address"
        },
        {
          "internalType": "address",
          "name": "_token",
          "type": "address"
        }
      ],
      "stateMutability": "nonpayable",
      "type": "constructor"
    },
    {
      "anonymous": false,
      "inputs": [
        {
          "indexed": false,
          "internalType": "address",
          "name": "account",
          "type": "address"
        },
        {
          "indexed": false,
          "internalType": "uint256",
          "name": "allowance",
          "type": "uint256"
        }
      ],
      "name": "AccountApproved",
      "type": "event"
    },
    {
      "anonymous": false,
      "inputs": [
        {
          "indexed": false,
          "internalType": "address",
          "name": "account",
          "type": "address"
        },
        {
          "indexed": false,
          "internalType": "uint256",
          "name": "amount",
          "type": "uint256"
        }
      ],
      "name": "AmountTransferedToAccount",
      "type": "event"
    },
    {
      "anonymous": false,
      "inputs": [
        {
          "indexed": false,
          "internalType": "string",
          "name": "restaurantId",
          "type": "string"
        },
        {
          "indexed": false,
          "internalType": "string",
          "name": "itemId",
          "type": "string"
        },
        {
          "indexed": false,
          "internalType": "string",
          "name": "itemName",
          "type": "string"
        }
      ],
      "name": "ItemAddedEvent",
      "type": "event"
    },
    {
      "anonymous": false,
      "inputs": [
        {
          "indexed": false,
          "internalType": "string",
          "name": "orderId",
          "type": "string"
        },
        {
          "indexed": false,
          "internalType": "address",
          "name": "driverAddress",
          "type": "address"
        },
        {
          "indexed": false,
          "internalType": "string",
          "name": "orderStatus",
          "type": "string"
        }
      ],
      "name": "OrderAssignedToDriver",
      "type": "event"
    },
    {
      "anonymous": false,
      "inputs": [
        {
          "indexed": false,
          "internalType": "string",
          "name": "orderId",
          "type": "string"
        },
        {
          "indexed": false,
          "internalType": "address",
          "name": "driverAddress",
          "type": "address"
        },
        {
          "indexed": false,
          "internalType": "string",
          "name": "orderStatus",
          "type": "string"
        }
      ],
      "name": "OrderDeliveredToUser",
      "type": "event"
    },
    {
      "anonymous": false,
      "inputs": [
        {
          "indexed": false,
          "internalType": "string",
          "name": "orderId",
          "type": "string"
        },
        {
          "indexed": false,
          "internalType": "string",
          "name": "orderStatus",
          "type": "string"
        }
      ],
      "name": "OrderPlaced",
      "type": "event"
    },
    {
      "anonymous": false,
      "inputs": [
        {
          "indexed": false,
          "internalType": "string",
          "name": "restaurantName",
          "type": "string"
        },
        {
          "indexed": false,
          "internalType": "address",
          "name": "rAddress",
          "type": "address"
        },
        {
          "indexed": false,
          "internalType": "bool",
          "name": "isRegistered",
          "type": "bool"
        }
      ],
      "name": "RestaurantRegistered",
      "type": "event"
    },
    {
      "anonymous": false,
      "inputs": [
        {
          "indexed": false,
          "internalType": "address",
          "name": "sender",
          "type": "address"
        },
        {
          "indexed": false,
          "internalType": "address",
          "name": "recipient",
          "type": "address"
        },
        {
          "indexed": false,
          "internalType": "uint256",
          "name": "amount",
          "type": "uint256"
        }
      ],
      "name": "TransferedSenderToRecipient",
      "type": "event"
    },
    {
      "anonymous": false,
      "inputs": [
        {
          "indexed": false,
          "internalType": "string",
          "name": "name",
          "type": "string"
        },
        {
          "indexed": false,
          "internalType": "address",
          "name": "usrAddress",
          "type": "address"
        },
        {
          "indexed": false,
          "internalType": "string",
          "name": "usrType",
          "type": "string"
        },
        {
          "indexed": false,
          "internalType": "uint256",
          "name": "rating",
          "type": "uint256"
        }
      ],
      "name": "UserInfoEvent",
      "type": "event"
    },
    {
      "anonymous": false,
      "inputs": [
        {
          "indexed": false,
          "internalType": "string",
          "name": "userName",
          "type": "string"
        },
        {
          "indexed": false,
          "internalType": "bool",
          "name": "isRegistered",
          "type": "bool"
        }
      ],
      "name": "UserRegisteredEvent",
      "type": "event"
    },
    {
      "anonymous": false,
      "inputs": [
        {
          "indexed": false,
          "internalType": "uint256",
          "name": "total",
          "type": "uint256"
        },
        {
          "indexed": false,
          "internalType": "uint256",
          "name": "restaurantTotal",
          "type": "uint256"
        },
        {
          "indexed": false,
          "internalType": "uint256",
          "name": "deliveryTotal",
          "type": "uint256"
        }
      ],
      "name": "orderDeliveryConfirmedEvent",
      "type": "event"
    },
    {
      "inputs": [],
      "name": "_foodiezHelpers",
      "outputs": [
        {
          "internalType": "contract FoodiezHelpersInterface",
          "name": "",
          "type": "address"
        }
      ],
      "stateMutability": "view",
      "type": "function",
      "constant": true
    },
    {
      "inputs": [],
      "name": "_foodiezOrders",
      "outputs": [
        {
          "internalType": "contract FoodiezOrdersInterface",
          "name": "",
          "type": "address"
        }
      ],
      "stateMutability": "view",
      "type": "function",
      "constant": true
    },
    {
      "inputs": [],
      "name": "_foodiezRegistration",
      "outputs": [
        {
          "internalType": "contract FoodiezRegistrationInterface",
          "name": "",
          "type": "address"
        }
      ],
      "stateMutability": "view",
      "type": "function",
      "constant": true
    },
    {
      "inputs": [
        {
          "internalType": "address",
          "name": "_address",
          "type": "address"
        },
        {
          "internalType": "uint256",
          "name": "amount",
          "type": "uint256"
        }
      ],
      "name": "tokenApproveAccount",
      "outputs": [
        {
          "internalType": "bool",
          "name": "",
          "type": "bool"
        }
      ],
      "stateMutability": "payable",
      "type": "function",
      "payable": true
    },
    {
      "inputs": [
        {
          "internalType": "address",
          "name": "own",
          "type": "address"
        },
        {
          "internalType": "address",
          "name": "spender",
          "type": "address"
        }
      ],
      "name": "allowance",
      "outputs": [
        {
          "internalType": "uint256",
          "name": "",
          "type": "uint256"
        }
      ],
      "stateMutability": "view",
      "type": "function",
      "constant": true
    },
    {
      "inputs": [
        {
          "internalType": "address",
          "name": "_address",
          "type": "address"
        }
      ],
      "name": "getTokenBalanceOf",
      "outputs": [
        {
          "internalType": "uint256",
          "name": "",
          "type": "uint256"
        }
      ],
      "stateMutability": "view",
      "type": "function",
      "constant": true
    },
    {
      "inputs": [
        {
          "internalType": "address",
          "name": "recipient",
          "type": "address"
        },
        {
          "internalType": "uint256",
          "name": "amount",
          "type": "uint256"
        }
      ],
      "name": "tokenTransfer",
      "outputs": [],
      "stateMutability": "payable",
      "type": "function",
      "payable": true
    },
    {
      "inputs": [
        {
          "internalType": "address",
          "name": "sender",
          "type": "address"
        },
        {
          "internalType": "address",
          "name": "recipient",
          "type": "address"
        },
        {
          "internalType": "uint256",
          "name": "amount",
          "type": "uint256"
        }
      ],
      "name": "tokenTransferFrom",
      "outputs": [],
      "stateMutability": "payable",
      "type": "function",
      "payable": true
    },
    {
      "inputs": [
        {
          "internalType": "string",
          "name": "name",
          "type": "string"
        },
        {
          "internalType": "string",
          "name": "userId",
          "type": "string"
        },
        {
          "internalType": "uint256",
          "name": "uType",
          "type": "uint256"
        },
        {
          "internalType": "uint256",
          "name": "amountStake",
          "type": "uint256"
        }
      ],
      "name": "userRegister",
      "outputs": [
        {
          "internalType": "bool",
          "name": "isSuccess",
          "type": "bool"
        }
      ],
      "stateMutability": "payable",
      "type": "function",
      "payable": true
    },
    {
      "inputs": [
        {
          "internalType": "address",
          "name": "_address",
          "type": "address"
        }
      ],
      "name": "getUserInfo",
      "outputs": [
        {
          "internalType": "string",
          "name": "usrName",
          "type": "string"
        },
        {
          "internalType": "string",
          "name": "usrId",
          "type": "string"
        },
        {
          "internalType": "string",
          "name": "usrType",
          "type": "string"
        },
        {
          "internalType": "uint256",
          "name": "rating",
          "type": "uint256"
        }
      ],
      "stateMutability": "view",
      "type": "function",
      "constant": true
    },
    {
      "inputs": [
        {
          "internalType": "string",
          "name": "_name",
          "type": "string"
        },
        {
          "internalType": "string",
          "name": "_rId",
          "type": "string"
        },
        {
          "internalType": "uint256",
          "name": "amountStake",
          "type": "uint256"
        }
      ],
      "name": "registerRestaurant",
      "outputs": [],
      "stateMutability": "payable",
      "type": "function",
      "payable": true
    },
    {
      "inputs": [
        {
          "internalType": "string",
          "name": "_itemName",
          "type": "string"
        },
        {
          "internalType": "uint256",
          "name": "_type",
          "type": "uint256"
        },
        {
          "internalType": "uint256",
          "name": "_price",
          "type": "uint256"
        }
      ],
      "name": "addMenuItems",
      "outputs": [],
      "stateMutability": "nonpayable",
      "type": "function"
    },
    {
      "inputs": [
        {
          "internalType": "address",
          "name": "_restaurantAddress",
          "type": "address"
        },
        {
          "internalType": "uint256",
          "name": "_itemNumber",
          "type": "uint256"
        }
      ],
      "name": "getRestaurantMenu",
      "outputs": [
        {
          "internalType": "string",
          "name": "itemName",
          "type": "string"
        },
        {
          "internalType": "string",
          "name": "itemType",
          "type": "string"
        },
        {
          "internalType": "uint256",
          "name": "itemPrice",
          "type": "uint256"
        }
      ],
      "stateMutability": "view",
      "type": "function",
      "constant": true
    },
    {
      "inputs": [
        {
          "internalType": "address",
          "name": "_restaurantAddress",
          "type": "address"
        }
      ],
      "name": "getrestaurantInfo",
      "outputs": [
        {
          "internalType": "string",
          "name": "rId",
          "type": "string"
        },
        {
          "internalType": "address",
          "name": "rAddress",
          "type": "address"
        },
        {
          "internalType": "uint256",
          "name": "rItems",
          "type": "uint256"
        },
        {
          "internalType": "uint256",
          "name": "rating",
          "type": "uint256"
        }
      ],
      "stateMutability": "view",
      "type": "function",
      "constant": true
    },
    {
      "inputs": [],
      "name": "getAllRestaurants",
      "outputs": [
        {
          "internalType": "uint256",
          "name": "count",
          "type": "uint256"
        },
        {
          "internalType": "address[]",
          "name": "restAddresses",
          "type": "address[]"
        }
      ],
      "stateMutability": "view",
      "type": "function",
      "constant": true
    },
    {
      "inputs": [
        {
          "internalType": "address",
          "name": "_restaurantAddress",
          "type": "address"
        },
        {
          "internalType": "uint256[]",
          "name": "_itemNum",
          "type": "uint256[]"
        }
      ],
      "name": "orderTotal",
      "outputs": [
        {
          "internalType": "uint256",
          "name": "totalPrice",
          "type": "uint256"
        }
      ],
      "stateMutability": "view",
      "type": "function",
      "constant": true
    },
    {
      "inputs": [
        {
          "internalType": "address",
          "name": "_restaurantAddress",
          "type": "address"
        },
        {
          "internalType": "string[]",
          "name": "itemNames",
          "type": "string[]"
        },
        {
          "internalType": "uint256",
          "name": "totalPrice",
          "type": "uint256"
        },
        {
          "internalType": "uint256",
          "name": "tokenPay",
          "type": "uint256"
        }
      ],
      "name": "placeOrder",
      "outputs": [
        {
          "internalType": "string",
          "name": "uOrderId",
          "type": "string"
        },
        {
          "internalType": "string",
          "name": "orderStatus",
          "type": "string"
        }
      ],
      "stateMutability": "payable",
      "type": "function",
      "payable": true
    },
    {
      "inputs": [],
      "name": "getUserOrders",
      "outputs": [
        {
          "internalType": "uint256",
          "name": "",
          "type": "uint256"
        }
      ],
      "stateMutability": "view",
      "type": "function",
      "constant": true
    },
    {
      "inputs": [],
      "name": "getAllOrders",
      "outputs": [
        {
          "internalType": "string[]",
          "name": "allOrders",
          "type": "string[]"
        }
      ],
      "stateMutability": "view",
      "type": "function",
      "constant": true
    },
    {
      "inputs": [
        {
          "internalType": "string",
          "name": "userOrderId",
          "type": "string"
        }
      ],
      "name": "getOrderStatus",
      "outputs": [
        {
          "internalType": "string",
          "name": "orderId",
          "type": "string"
        },
        {
          "internalType": "address",
          "name": "userAddress",
          "type": "address"
        },
        {
          "internalType": "address",
          "name": "driverAddress",
          "type": "address"
        },
        {
          "internalType": "string[]",
          "name": "items",
          "type": "string[]"
        },
        {
          "internalType": "uint256",
          "name": "total",
          "type": "uint256"
        },
        {
          "internalType": "string",
          "name": "status",
          "type": "string"
        }
      ],
      "stateMutability": "view",
      "type": "function",
      "constant": true
    },
    {
      "inputs": [
        {
          "internalType": "string",
          "name": "userOrderId",
          "type": "string"
        }
      ],
      "name": "assignToDriver",
      "outputs": [],
      "stateMutability": "nonpayable",
      "type": "function"
    },
    {
      "inputs": [
        {
          "internalType": "string",
          "name": "userOrderId",
          "type": "string"
        }
      ],
      "name": "driverDelieveredOrder",
      "outputs": [],
      "stateMutability": "nonpayable",
      "type": "function"
    },
    {
      "inputs": [
        {
          "internalType": "string",
          "name": "userOrderId",
          "type": "string"
        },
        {
          "internalType": "uint256",
          "name": "_restaurantRating",
          "type": "uint256"
        },
        {
          "internalType": "uint256",
          "name": "_deliveryRating",
          "type": "uint256"
        },
        {
          "internalType": "uint256",
          "name": "tokenTip",
          "type": "uint256"
        }
      ],
      "name": "orderDeliveryConfirmed",
      "outputs": [],
      "stateMutability": "payable",
      "type": "function",
      "payable": true
    }
  ],
  "bytecode": "0x6080604052600260045560026005553480156200001b57600080fd5b50604051620046ad380380620046ad833981810160405281019062000041919062000410565b336000806101000a81548173ffffffffffffffffffffffffffffffffffffffff021916908373ffffffffffffffffffffffffffffffffffffffff16021790555082600260006101000a81548173ffffffffffffffffffffffffffffffffffffffff021916908373ffffffffffffffffffffffffffffffffffffffff16021790555083600160006101000a81548173ffffffffffffffffffffffffffffffffffffffff021916908373ffffffffffffffffffffffffffffffffffffffff16021790555081600360006101000a81548173ffffffffffffffffffffffffffffffffffffffff021916908373ffffffffffffffffffffffffffffffffffffffff160217905550600160009054906101000a900473ffffffffffffffffffffffffffffffffffffffff1673ffffffffffffffffffffffffffffffffffffffff1663765ccb6b306040518263ffffffff1660e01b8152600401620001a19190620004d2565b600060405180830381600087803b158015620001bc57600080fd5b505af1158015620001d1573d6000803e3d6000fd5b505050506040513d6000823e3d601f19601f82011682018060405250810190620001fc91906200047c565b50600360009054906101000a900473ffffffffffffffffffffffffffffffffffffffff1673ffffffffffffffffffffffffffffffffffffffff1663765ccb6b306040518263ffffffff1660e01b81526004016200025a9190620004d2565b600060405180830381600087803b1580156200027557600080fd5b505af11580156200028a573d6000803e3d6000fd5b505050506040513d6000823e3d601f19601f82011682018060405250810190620002b591906200047c565b5033600760006101000a81548173ffffffffffffffffffffffffffffffffffffffff021916908373ffffffffffffffffffffffffffffffffffffffff16021790555080600660006101000a81548173ffffffffffffffffffffffffffffffffffffffff021916908373ffffffffffffffffffffffffffffffffffffffff16021790555050505050620006d2565b600062000359620003538462000518565b620004ef565b9050828152602081018484840111156200037257600080fd5b6200037f848285620005be565b509392505050565b60008151905062000398816200066a565b92915050565b600081519050620003af8162000684565b92915050565b600081519050620003c6816200069e565b92915050565b600081519050620003dd81620006b8565b92915050565b600082601f830112620003f557600080fd5b81516200040784826020860162000342565b91505092915050565b600080600080608085870312156200042757600080fd5b60006200043787828801620003cc565b94505060206200044a878288016200039e565b93505060406200045d87828801620003b5565b9250506060620004708782880162000387565b91505092959194509250565b6000602082840312156200048f57600080fd5b600082015167ffffffffffffffff811115620004aa57600080fd5b620004b884828501620003e3565b91505092915050565b620004cc816200054e565b82525050565b6000602082019050620004e96000830184620004c1565b92915050565b6000620004fb6200050e565b9050620005098282620005f4565b919050565b6000604051905090565b600067ffffffffffffffff8211156200053657620005356200062a565b5b620005418262000659565b9050602081019050919050565b60006200055b826200059e565b9050919050565b60006200056f826200054e565b9050919050565b600062000583826200054e565b9050919050565b600062000597826200054e565b9050919050565b600073ffffffffffffffffffffffffffffffffffffffff82169050919050565b60005b83811015620005de578082015181840152602081019050620005c1565b83811115620005ee576000848401525b50505050565b620005ff8262000659565b810181811067ffffffffffffffff821117156200062157620006206200062a565b5b80604052505050565b7f4e487b7100000000000000000000000000000000000000000000000000000000600052604160045260246000fd5b6000601f19601f8301169050919050565b62000675816200054e565b81146200068157600080fd5b50565b6200068f8162000562565b81146200069b57600080fd5b50565b620006a98162000576565b8114620006b557600080fd5b50565b620006c3816200058a565b8114620006cf57600080fd5b50565b613fcb80620006e26000396000f3fe6080604052600436106101405760003560e01c806387734400116100b6578063dd62ed3e1161006f578063dd62ed3e14610462578063e1eb4abc1461049f578063e523d132146104ca578063e77c719e146104f3578063e79034a814610523578063ed0c07681461054c57610140565b8063877344001461034b578063961974ba14610377578063aedfb5d314610393578063b8c00b1e146103d5578063c6f4dc3714610406578063d8c01ed11461042257610140565b8063623bb43111610108578063623bb431146102425780636386c1c71461025e57806366a257c41461029e57806368cdafe6146102c75780637bea0d1c146102e3578063838945481461030e57610140565b80631c7e3b05146101455780631e4b919b146101825780632d9ee1d1146101ad578063331723eb146101d8578063617aada914610217575b600080fd5b34801561015157600080fd5b5061016c60048036038101906101679190612710565b61057c565b6040516101799190613876565b60405180910390f35b34801561018e57600080fd5b50610197610635565b6040516101a49190613876565b60405180910390f35b3480156101b957600080fd5b506101c26106ec565b6040516101cf9190613477565b60405180910390f35b3480156101e457600080fd5b506101ff60048036038101906101fa91906127b8565b610712565b60405161020e93929190613721565b60405180910390f35b34801561022357600080fd5b5061022c6107d6565b604051610239919061345c565b60405180910390f35b61025c60048036038101906102579190612d91565b6107fc565b005b34801561026a57600080fd5b506102856004803603810190610280919061257e565b610fa4565b60405161029594939291906136c7565b60405180910390f35b3480156102aa57600080fd5b506102c560048036038101906102c09190612d2a565b61106a565b005b6102e160048036038101906102dc91906127b8565b611170565b005b3480156102ef57600080fd5b506102f8611268565b604051610305919061341f565b60405180910390f35b34801561031a57600080fd5b506103356004803603810190610330919061257e565b611314565b6040516103429190613876565b60405180910390f35b34801561035757600080fd5b506103606113c8565b60405161036e929190613891565b60405180910390f35b610391600480360381019061038c9190612646565b611479565b005b34801561039f57600080fd5b506103ba60048036038101906103b5919061285e565b611576565b6040516103cc969594939291906134cf565b60405180910390f35b6103ef60048036038101906103ea9190612695565b611646565b6040516103fd929190613644565b60405180910390f35b610420600480360381019061041b9190612b99565b611841565b005b34801561042e57600080fd5b506104496004803603810190610444919061257e565b6119a8565b60405161045994939291906135c8565b60405180910390f35b34801561046e57600080fd5b50610489600480360381019061048491906125a7565b611a6e565b6040516104969190613876565b60405180910390f35b3480156104ab57600080fd5b506104b4611b25565b6040516104c19190613492565b60405180910390f35b3480156104d657600080fd5b506104f160048036038101906104ec919061285e565b611b4b565b005b61050d600480360381019061050891906127b8565b611d37565b60405161051a9190613441565b60405180910390f35b34801561052f57600080fd5b5061054a6004803603810190610545919061285e565b611e35565b005b61056660048036038101906105619190612c97565b612021565b6040516105739190613441565b60405180910390f35b6000600160009054906101000a900473ffffffffffffffffffffffffffffffffffffffff1673ffffffffffffffffffffffffffffffffffffffff166340ecc0573385856040518463ffffffff1660e01b81526004016105dd9392919061326d565b60206040518083038186803b1580156105f557600080fd5b505afa158015610609573d6000803e3d6000fd5b505050506040513d601f19601f8201168201806040525081019061062d9190612e0c565b905092915050565b600080600160009054906101000a900473ffffffffffffffffffffffffffffffffffffffff1673ffffffffffffffffffffffffffffffffffffffff166363c69f08336040518263ffffffff1660e01b815260040161069391906131dd565b60206040518083038186803b1580156106ab57600080fd5b505afa1580156106bf573d6000803e3d6000fd5b505050506040513d601f19601f820116820180604052508101906106e39190612e0c565b90508091505090565b600360009054906101000a900473ffffffffffffffffffffffffffffffffffffffff1681565b6060806000600160009054906101000a900473ffffffffffffffffffffffffffffffffffffffff1673ffffffffffffffffffffffffffffffffffffffff1663331723eb86866040518363ffffffff1660e01b81526004016107749291906133f6565b60006040518083038186803b15801561078c57600080fd5b505afa1580156107a0573d6000803e3d6000fd5b505050506040513d6000823e3d601f19601f820116820180604052508101906107c99190612c18565b9250925092509250925092565b600260009054906101000a900473ffffffffffffffffffffffffffffffffffffffff1681565b60001515600160009054906101000a900473ffffffffffffffffffffffffffffffffffffffff1673ffffffffffffffffffffffffffffffffffffffff16635f9d8de6336040518263ffffffff1660e01b815260040161085b91906131dd565b60206040518083038186803b15801561087357600080fd5b505afa158015610887573d6000803e3d6000fd5b505050506040513d601f19601f820116820180604052508101906108ab9190612835565b1515146108ed576040517f08c379a00000000000000000000000000000000000000000000000000000000081526004016108e490613856565b60405180910390fd5b600080600080600360009054906101000a900473ffffffffffffffffffffffffffffffffffffffff1673ffffffffffffffffffffffffffffffffffffffff1663b1a68ff2896040518263ffffffff1660e01b815260040161094e91906134ad565b608060405180830381600087803b15801561096857600080fd5b505af115801561097c573d6000803e3d6000fd5b505050506040513d601f19601f820116820180604052508101906109a091906125e3565b9350935093509350600160009054906101000a900473ffffffffffffffffffffffffffffffffffffffff1673ffffffffffffffffffffffffffffffffffffffff16638ab7ad7785896040518363ffffffff1660e01b8152600401610a059291906133f6565b600060405180830381600087803b158015610a1f57600080fd5b505af1158015610a33573d6000803e3d6000fd5b50505050600160009054906101000a900473ffffffffffffffffffffffffffffffffffffffff1673ffffffffffffffffffffffffffffffffffffffff1663dfe7669d84886040518363ffffffff1660e01b8152600401610a949291906133f6565b600060405180830381600087803b158015610aae57600080fd5b505af1158015610ac2573d6000803e3d6000fd5b5050505084610ad083611314565b1015610b11576040517f08c379a0000000000000000000000000000000000000000000000000000000008152600401610b0890613836565b60405180910390fd5b6000600360009054906101000a900473ffffffffffffffffffffffffffffffffffffffff1673ffffffffffffffffffffffffffffffffffffffff1663d182dbcd8a6040518263ffffffff1660e01b8152600401610b6e91906134ad565b60206040518083038186803b158015610b8657600080fd5b505afa158015610b9a573d6000803e3d6000fd5b505050506040513d601f19601f82011682018060405250810190610bbe9190612e0c565b905060008290506000600260009054906101000a900473ffffffffffffffffffffffffffffffffffffffff1673ffffffffffffffffffffffffffffffffffffffff166365609516856004546040518363ffffffff1660e01b8152600401610c269291906138c1565b60206040518083038186803b158015610c3e57600080fd5b505afa158015610c52573d6000803e3d6000fd5b505050506040513d601f19601f82011682018060405250810190610c769190612e0c565b90508082610c849190613b83565b91506000600260009054906101000a900473ffffffffffffffffffffffffffffffffffffffff1673ffffffffffffffffffffffffffffffffffffffff1663221c9cfe866005546040518363ffffffff1660e01b8152600401610ce79291906138c1565b60206040518083038186803b158015610cff57600080fd5b505afa158015610d13573d6000803e3d6000fd5b505050506040513d601f19601f82011682018060405250810190610d379190612e0c565b90508083610d459190613b83565b92503481610d539190613ad3565b90506000891115610e1157600660009054906101000a900473ffffffffffffffffffffffffffffffffffffffff1673ffffffffffffffffffffffffffffffffffffffff166323b872dd87898c6040518463ffffffff1660e01b8152600401610dbd939291906132ab565b602060405180830381600087803b158015610dd757600080fd5b505af1158015610deb573d6000803e3d6000fd5b505050506040513d601f19601f82011682018060405250810190610e0f9190612835565b505b6000841115610ecd57600660009054906101000a900473ffffffffffffffffffffffffffffffffffffffff1673ffffffffffffffffffffffffffffffffffffffff166323b872dd878a876040518463ffffffff1660e01b8152600401610e79939291906132ab565b602060405180830381600087803b158015610e9357600080fd5b505af1158015610ea7573d6000803e3d6000fd5b505050506040513d601f19601f82011682018060405250810190610ecb9190612835565b505b8673ffffffffffffffffffffffffffffffffffffffff166108fc829081150290604051600060405180830381858888f19350505050158015610f13573d6000803e3d6000fd5b508773ffffffffffffffffffffffffffffffffffffffff166108fc849081150290604051600060405180830381858888f19350505050158015610f5a573d6000803e3d6000fd5b507f19d9a35c8bfdc8a0fb076616a4df32d4f0110fc033ca4ca40519537ea79493cf858483604051610f8e939291906138ea565b60405180910390a1505050505050505050505050565b60608060606000600160009054906101000a900473ffffffffffffffffffffffffffffffffffffffff1673ffffffffffffffffffffffffffffffffffffffff16636386c1c7866040518263ffffffff1660e01b815260040161100691906131dd565b60006040518083038186803b15801561101e57600080fd5b505afa158015611032573d6000803e3d6000fd5b505050506040513d6000823e3d601f19601f8201168201806040525081019061105b9190612aee565b93509350935093509193509193565b6000806000600160009054906101000a900473ffffffffffffffffffffffffffffffffffffffff1673ffffffffffffffffffffffffffffffffffffffff1663debd2ec4338888886040518563ffffffff1660e01b81526004016110d094939291906133aa565b600060405180830381600087803b1580156110ea57600080fd5b505af11580156110fe573d6000803e3d6000fd5b505050506040513d6000823e3d601f19601f820116820180604052508101906111279190612a57565b9250925092507fe591a00874db47ebb9c845e5d6550ba44f9b94231216d912524a6b01cf64c3628383836040516111609392919061367b565b60405180910390a1505050505050565b6000600660009054906101000a900473ffffffffffffffffffffffffffffffffffffffff1673ffffffffffffffffffffffffffffffffffffffff1663a9059cbb84846040518363ffffffff1660e01b81526004016111cf9291906133f6565b602060405180830381600087803b1580156111e957600080fd5b505af11580156111fd573d6000803e3d6000fd5b505050506040513d601f19601f820116820180604052508101906112219190612835565b90508015611263577fbdbbb9910baae524fdb61a2b98c4264b1b7c7dd08291b66731a279ab74fa778f838360405161125a9291906133f6565b60405180910390a15b505050565b6060600360009054906101000a900473ffffffffffffffffffffffffffffffffffffffff1673ffffffffffffffffffffffffffffffffffffffff16633dfbbad46040518163ffffffff1660e01b815260040160006040518083038186803b1580156112d257600080fd5b505afa1580156112e6573d6000803e3d6000fd5b505050506040513d6000823e3d601f19601f8201168201806040525081019061130f91906127f4565b905090565b6000600660009054906101000a900473ffffffffffffffffffffffffffffffffffffffff1673ffffffffffffffffffffffffffffffffffffffff166370a08231836040518263ffffffff1660e01b815260040161137191906131dd565b60206040518083038186803b15801561138957600080fd5b505afa15801561139d573d6000803e3d6000fd5b505050506040513d601f19601f820116820180604052508101906113c19190612e0c565b9050919050565b60006060600160009054906101000a900473ffffffffffffffffffffffffffffffffffffffff1673ffffffffffffffffffffffffffffffffffffffff1663707715046040518163ffffffff1660e01b815260040160006040518083038186803b15801561143457600080fd5b505afa158015611448573d6000803e3d6000fd5b505050506040513d6000823e3d601f19601f820116820180604052508101906114719190612e35565b915091509091565b6000600660009054906101000a900473ffffffffffffffffffffffffffffffffffffffff1673ffffffffffffffffffffffffffffffffffffffff166323b872dd8585856040518463ffffffff1660e01b81526004016114da939291906132ab565b602060405180830381600087803b1580156114f457600080fd5b505af1158015611508573d6000803e3d6000fd5b505050506040513d601f19601f8201168201806040525081019061152c9190612835565b90508015611570577f3ae895b079028f50d70d4fdc12d6bbad245651b4fbe50d7a931752330a025dec848484604051611567939291906132ab565b60405180910390a15b50505050565b6060600080606060006060600360009054906101000a900473ffffffffffffffffffffffffffffffffffffffff1673ffffffffffffffffffffffffffffffffffffffff16637ab8ae16886040518263ffffffff1660e01b81526004016115dc91906134ad565b60006040518083038186803b1580156115f457600080fd5b505afa158015611608573d6000803e3d6000fd5b505050506040513d6000823e3d601f19601f82011682018060405250810190611631919061289f565b95509550955095509550955091939550919395565b606080833410158061166057508361165d846121ee565b10155b61169f576040517f08c379a0000000000000000000000000000000000000000000000000000000008152600401611696906137d6565b60405180910390fd5b600080600160009054906101000a900473ffffffffffffffffffffffffffffffffffffffff1673ffffffffffffffffffffffffffffffffffffffff1663e6612812338a8a8a6040518563ffffffff1660e01b81526004016117039493929190613221565b600060405180830381600087803b15801561171d57600080fd5b505af1158015611731573d6000803e3d6000fd5b505050506040513d6000823e3d601f19601f8201168201806040525081019061175a91906129eb565b9150915060008511156117f757600360009054906101000a900473ffffffffffffffffffffffffffffffffffffffff1673ffffffffffffffffffffffffffffffffffffffff16639b4708d183876040518363ffffffff1660e01b81526004016117c4929190613766565b600060405180830381600087803b1580156117de57600080fd5b505af11580156117f2573d6000803e3d6000fd5b505050505b7f2bc0c755dcb34ed5aadb1531e628205826424d623bb3759337b05818af7f4a4b8282604051611828929190613644565b60405180910390a1818193509350505094509492505050565b6000600160009054906101000a900473ffffffffffffffffffffffffffffffffffffffff1673ffffffffffffffffffffffffffffffffffffffff1663096309233386866040518463ffffffff1660e01b81526004016118a293929190613312565b602060405180830381600087803b1580156118bc57600080fd5b505af11580156118d0573d6000803e3d6000fd5b505050506040513d601f19601f820116820180604052508101906118f49190612835565b90507f1fec3d043cdeae56abac63b9485c8e810e01d8caf5281e06e2a78cbb82b9f56284338360405161192993929190613545565b60405180910390a16000341015611975576040517f08c379a000000000000000000000000000000000000000000000000000000000815260040161196c906137b6565b60405180910390fd5b6119a2600760009054906101000a900473ffffffffffffffffffffffffffffffffffffffff163384611479565b50505050565b60606000806000600160009054906101000a900473ffffffffffffffffffffffffffffffffffffffff1673ffffffffffffffffffffffffffffffffffffffff1663d8c01ed1866040518263ffffffff1660e01b8152600401611a0a91906131dd565b60006040518083038186803b158015611a2257600080fd5b505afa158015611a36573d6000803e3d6000fd5b505050506040513d6000823e3d601f19601f82011682018060405250810190611a5f9190612970565b93509350935093509193509193565b6000600660009054906101000a900473ffffffffffffffffffffffffffffffffffffffff1673ffffffffffffffffffffffffffffffffffffffff1663dd62ed3e84846040518363ffffffff1660e01b8152600401611acd9291906131f8565b60206040518083038186803b158015611ae557600080fd5b505afa158015611af9573d6000803e3d6000fd5b505050506040513d601f19601f82011682018060405250810190611b1d9190612e0c565b905092915050565b600160009054906101000a900473ffffffffffffffffffffffffffffffffffffffff1681565b60011515600160009054906101000a900473ffffffffffffffffffffffffffffffffffffffff1673ffffffffffffffffffffffffffffffffffffffff16635f9d8de6336040518263ffffffff1660e01b8152600401611baa91906131dd565b60206040518083038186803b158015611bc257600080fd5b505afa158015611bd6573d6000803e3d6000fd5b505050506040513d601f19601f82011682018060405250810190611bfa9190612835565b151514611c3c576040517f08c379a0000000000000000000000000000000000000000000000000000000008152600401611c3390613796565b60405180910390fd5b600080600360009054906101000a900473ffffffffffffffffffffffffffffffffffffffff1673ffffffffffffffffffffffffffffffffffffffff166357c8666933856040518363ffffffff1660e01b8152600401611c9c9291906132e2565b600060405180830381600087803b158015611cb657600080fd5b505af1158015611cca573d6000803e3d6000fd5b505050506040513d6000823e3d601f19601f82011682018060405250810190611cf39190612764565b915091507ff77ddd1c4747d74e4d857ae1988928cd346feca8a5f694b0c39f7f53e5193580838383604051611d2a93929190613583565b60405180910390a1505050565b600080600660009054906101000a900473ffffffffffffffffffffffffffffffffffffffff1673ffffffffffffffffffffffffffffffffffffffff1663095ea7b385856040518363ffffffff1660e01b8152600401611d979291906133f6565b602060405180830381600087803b158015611db157600080fd5b505af1158015611dc5573d6000803e3d6000fd5b505050506040513d601f19601f82011682018060405250810190611de99190612835565b90508015611e2b577fbab4e436a1f75e4f561126509ef0a39ce3a8c2c0d42e0269a857bee6d508d9008484604051611e229291906133f6565b60405180910390a15b8091505092915050565b60011515600160009054906101000a900473ffffffffffffffffffffffffffffffffffffffff1673ffffffffffffffffffffffffffffffffffffffff16635f9d8de6336040518263ffffffff1660e01b8152600401611e9491906131dd565b60206040518083038186803b158015611eac57600080fd5b505afa158015611ec0573d6000803e3d6000fd5b505050506040513d601f19601f82011682018060405250810190611ee49190612835565b151514611f26576040517f08c379a0000000000000000000000000000000000000000000000000000000008152600401611f1d90613796565b60405180910390fd5b600080600360009054906101000a900473ffffffffffffffffffffffffffffffffffffffff1673ffffffffffffffffffffffffffffffffffffffff1663748f9f1233856040518363ffffffff1660e01b8152600401611f869291906132e2565b600060405180830381600087803b158015611fa057600080fd5b505af1158015611fb4573d6000803e3d6000fd5b505050506040513d6000823e3d601f19601f82011682018060405250810190611fdd9190612764565b915091507ff14b427b14da887f90611136a5e3ceba24d441e75254f1f8900c678af0ad485083838360405161201493929190613583565b60405180910390a1505050565b6000600183141561207857678ac7230489e80000341015612077576040517f08c379a000000000000000000000000000000000000000000000000000000000815260040161206e90613816565b60405180910390fd5b5b60008211156120f257813410156120c4576040517f08c379a00000000000000000000000000000000000000000000000000000000081526004016120bb906137f6565b60405180910390fd5b6120f1600760009054906101000a900473ffffffffffffffffffffffffffffffffffffffff163384611479565b5b6000600160009054906101000a900473ffffffffffffffffffffffffffffffffffffffff1673ffffffffffffffffffffffffffffffffffffffff1663a3305e0c338888886040518563ffffffff1660e01b81526004016121559493929190613357565b602060405180830381600087803b15801561216f57600080fd5b505af1158015612183573d6000803e3d6000fd5b505050506040513d601f19601f820116820180604052508101906121a79190612835565b90507f7f9ecb5a097a48ba760452c7dc9a9b85f16117e64abb0d9248a484a582bb286686826040516121da929190613614565b60405180910390a180915050949350505050565b6000670de0b6b3a7640000826122049190613b29565b9050919050565b600061221e61221984613946565b613921565b9050808382526020820190508285602086028201111561223d57600080fd5b60005b8581101561226d5781612253888261242e565b845260208401935060208301925050600181019050612240565b5050509392505050565b600061228a61228584613972565b613921565b9050808382526020820190508260005b858110156122ca57813585016122b08882612500565b84526020840193506020830192505060018101905061229a565b5050509392505050565b60006122e76122e284613972565b613921565b9050808382526020820190508260005b85811015612327578151850161230d888261252a565b8452602084019350602083019250506001810190506122f7565b5050509392505050565b600061234461233f8461399e565b613921565b9050808382526020820190508285602086028201111561236357600080fd5b60005b8581101561239357816123798882612554565b845260208401935060208301925050600181019050612366565b5050509392505050565b60006123b06123ab846139ca565b613921565b9050828152602081018484840111156123c857600080fd5b6123d3848285613c6b565b509392505050565b60006123ee6123e9846139ca565b613921565b90508281526020810184848401111561240657600080fd5b612411848285613c7a565b509392505050565b60008135905061242881613f50565b92915050565b60008151905061243d81613f50565b92915050565b600082601f83011261245457600080fd5b815161246484826020860161220b565b91505092915050565b600082601f83011261247e57600080fd5b813561248e848260208601612277565b91505092915050565b600082601f8301126124a857600080fd5b81516124b88482602086016122d4565b91505092915050565b600082601f8301126124d257600080fd5b81356124e2848260208601612331565b91505092915050565b6000815190506124fa81613f67565b92915050565b600082601f83011261251157600080fd5b813561252184826020860161239d565b91505092915050565b600082601f83011261253b57600080fd5b815161254b8482602086016123db565b91505092915050565b60008135905061256381613f7e565b92915050565b60008151905061257881613f7e565b92915050565b60006020828403121561259057600080fd5b600061259e84828501612419565b91505092915050565b600080604083850312156125ba57600080fd5b60006125c885828601612419565b92505060206125d985828601612419565b9150509250929050565b600080600080608085870312156125f957600080fd5b60006126078782880161242e565b94505060206126188782880161242e565b93505060406126298782880161242e565b925050606061263a87828801612569565b91505092959194509250565b60008060006060848603121561265b57600080fd5b600061266986828701612419565b935050602061267a86828701612419565b925050604061268b86828701612554565b9150509250925092565b600080600080608085870312156126ab57600080fd5b60006126b987828801612419565b945050602085013567ffffffffffffffff8111156126d657600080fd5b6126e28782880161246d565b93505060406126f387828801612554565b925050606061270487828801612554565b91505092959194509250565b6000806040838503121561272357600080fd5b600061273185828601612419565b925050602083013567ffffffffffffffff81111561274e57600080fd5b61275a858286016124c1565b9150509250929050565b6000806040838503121561277757600080fd5b60006127858582860161242e565b925050602083015167ffffffffffffffff8111156127a257600080fd5b6127ae8582860161252a565b9150509250929050565b600080604083850312156127cb57600080fd5b60006127d985828601612419565b92505060206127ea85828601612554565b9150509250929050565b60006020828403121561280657600080fd5b600082015167ffffffffffffffff81111561282057600080fd5b61282c84828501612497565b91505092915050565b60006020828403121561284757600080fd5b6000612855848285016124eb565b91505092915050565b60006020828403121561287057600080fd5b600082013567ffffffffffffffff81111561288a57600080fd5b61289684828501612500565b91505092915050565b60008060008060008060c087890312156128b857600080fd5b600087015167ffffffffffffffff8111156128d257600080fd5b6128de89828a0161252a565b96505060206128ef89828a0161242e565b955050604061290089828a0161242e565b945050606087015167ffffffffffffffff81111561291d57600080fd5b61292989828a01612497565b935050608061293a89828a01612569565b92505060a087015167ffffffffffffffff81111561295757600080fd5b61296389828a0161252a565b9150509295509295509295565b6000806000806080858703121561298657600080fd5b600085015167ffffffffffffffff8111156129a057600080fd5b6129ac8782880161252a565b94505060206129bd8782880161242e565b93505060406129ce87828801612569565b92505060606129df87828801612569565b91505092959194509250565b600080604083850312156129fe57600080fd5b600083015167ffffffffffffffff811115612a1857600080fd5b612a248582860161252a565b925050602083015167ffffffffffffffff811115612a4157600080fd5b612a4d8582860161252a565b9150509250929050565b600080600060608486031215612a6c57600080fd5b600084015167ffffffffffffffff811115612a8657600080fd5b612a928682870161252a565b935050602084015167ffffffffffffffff811115612aaf57600080fd5b612abb8682870161252a565b925050604084015167ffffffffffffffff811115612ad857600080fd5b612ae48682870161252a565b9150509250925092565b60008060008060808587031215612b0457600080fd5b600085015167ffffffffffffffff811115612b1e57600080fd5b612b2a8782880161252a565b945050602085015167ffffffffffffffff811115612b4757600080fd5b612b538782880161252a565b935050604085015167ffffffffffffffff811115612b7057600080fd5b612b7c8782880161252a565b9250506060612b8d87828801612569565b91505092959194509250565b600080600060608486031215612bae57600080fd5b600084013567ffffffffffffffff811115612bc857600080fd5b612bd486828701612500565b935050602084013567ffffffffffffffff811115612bf157600080fd5b612bfd86828701612500565b9250506040612c0e86828701612554565b9150509250925092565b600080600060608486031215612c2d57600080fd5b600084015167ffffffffffffffff811115612c4757600080fd5b612c538682870161252a565b935050602084015167ffffffffffffffff811115612c7057600080fd5b612c7c8682870161252a565b9250506040612c8d86828701612569565b9150509250925092565b60008060008060808587031215612cad57600080fd5b600085013567ffffffffffffffff811115612cc757600080fd5b612cd387828801612500565b945050602085013567ffffffffffffffff811115612cf057600080fd5b612cfc87828801612500565b9350506040612d0d87828801612554565b9250506060612d1e87828801612554565b91505092959194509250565b600080600060608486031215612d3f57600080fd5b600084013567ffffffffffffffff811115612d5957600080fd5b612d6586828701612500565b9350506020612d7686828701612554565b9250506040612d8786828701612554565b9150509250925092565b60008060008060808587031215612da757600080fd5b600085013567ffffffffffffffff811115612dc157600080fd5b612dcd87828801612500565b9450506020612dde87828801612554565b9350506040612def87828801612554565b9250506060612e0087828801612554565b91505092959194509250565b600060208284031215612e1e57600080fd5b6000612e2c84828501612569565b91505092915050565b60008060408385031215612e4857600080fd5b6000612e5685828601612569565b925050602083015167ffffffffffffffff811115612e7357600080fd5b612e7f85828601612443565b9150509250929050565b6000612e958383612ecd565b60208301905092915050565b6000612ead8383613058565b905092915050565b6000612ec183836131bf565b60208301905092915050565b612ed681613bb7565b82525050565b612ee581613bb7565b82525050565b6000612ef682613a2b565b612f008185613a7e565b9350612f0b836139fb565b8060005b83811015612f3c578151612f238882612e89565b9750612f2e83613a57565b925050600181019050612f0f565b5085935050505092915050565b6000612f5482613a36565b612f5e8185613a8f565b935083602082028501612f7085613a0b565b8060005b85811015612fac5784840389528151612f8d8582612ea1565b9450612f9883613a64565b925060208a01995050600181019050612f74565b50829750879550505050505092915050565b6000612fc982613a41565b612fd38185613aa0565b9350612fde83613a1b565b8060005b8381101561300f578151612ff68882612eb5565b975061300183613a71565b925050600181019050612fe2565b5085935050505092915050565b61302581613bc9565b82525050565b61303481613bff565b82525050565b61304381613c23565b82525050565b61305281613c47565b82525050565b600061306382613a4c565b61306d8185613ab1565b935061307d818560208601613c7a565b61308681613d3c565b840191505092915050565b600061309c82613a4c565b6130a68185613ac2565b93506130b6818560208601613c7a565b6130bf81613d3c565b840191505092915050565b60006130d7604e83613ac2565b91506130e282613d4d565b606082019050919050565b60006130fa602783613ac2565b915061310582613dc2565b604082019050919050565b600061311d602883613ac2565b915061312882613e11565b604082019050919050565b6000613140601b83613ac2565b915061314b82613e60565b602082019050919050565b6000613163602a83613ac2565b915061316e82613e89565b604082019050919050565b6000613186601983613ac2565b915061319182613ed8565b602082019050919050565b60006131a9603983613ac2565b91506131b482613f01565b604082019050919050565b6131c881613bf5565b82525050565b6131d781613bf5565b82525050565b60006020820190506131f26000830184612edc565b92915050565b600060408201905061320d6000830185612edc565b61321a6020830184612edc565b9392505050565b60006080820190506132366000830187612edc565b6132436020830186612edc565b81810360408301526132558185612f49565b905061326460608301846131ce565b95945050505050565b60006060820190506132826000830186612edc565b61328f6020830185612edc565b81810360408301526132a18184612fbe565b9050949350505050565b60006060820190506132c06000830186612edc565b6132cd6020830185612edc565b6132da60408301846131ce565b949350505050565b60006040820190506132f76000830185612edc565b81810360208301526133098184613091565b90509392505050565b60006060820190506133276000830186612edc565b81810360208301526133398185613091565b9050818103604083015261334d8184613091565b9050949350505050565b600060808201905061336c6000830187612edc565b818103602083015261337e8186613091565b905081810360408301526133928185613091565b90506133a160608301846131ce565b95945050505050565b60006080820190506133bf6000830187612edc565b81810360208301526133d18186613091565b90506133e060408301856131ce565b6133ed60608301846131ce565b95945050505050565b600060408201905061340b6000830185612edc565b61341860208301846131ce565b9392505050565b600060208201905081810360008301526134398184612f49565b905092915050565b6000602082019050613456600083018461301c565b92915050565b6000602082019050613471600083018461302b565b92915050565b600060208201905061348c600083018461303a565b92915050565b60006020820190506134a76000830184613049565b92915050565b600060208201905081810360008301526134c78184613091565b905092915050565b600060c08201905081810360008301526134e98189613091565b90506134f86020830188612edc565b6135056040830187612edc565b81810360608301526135178186612f49565b905061352660808301856131ce565b81810360a08301526135388184613091565b9050979650505050505050565b6000606082019050818103600083015261355f8186613091565b905061356e6020830185612edc565b61357b604083018461301c565b949350505050565b6000606082019050818103600083015261359d8186613091565b90506135ac6020830185612edc565b81810360408301526135be8184613091565b9050949350505050565b600060808201905081810360008301526135e28187613091565b90506135f16020830186612edc565b6135fe60408301856131ce565b61360b60608301846131ce565b95945050505050565b6000604082019050818103600083015261362e8185613091565b905061363d602083018461301c565b9392505050565b6000604082019050818103600083015261365e8185613091565b905081810360208301526136728184613091565b90509392505050565b600060608201905081810360008301526136958186613091565b905081810360208301526136a98185613091565b905081810360408301526136bd8184613091565b9050949350505050565b600060808201905081810360008301526136e18187613091565b905081810360208301526136f58186613091565b905081810360408301526137098185613091565b905061371860608301846131ce565b95945050505050565b6000606082019050818103600083015261373b8186613091565b9050818103602083015261374f8185613091565b905061375e60408301846131ce565b949350505050565b600060408201905081810360008301526137808185613091565b905061378f60208301846131ce565b9392505050565b600060208201905081810360008301526137af816130ca565b9050919050565b600060208201905081810360008301526137cf816130ed565b9050919050565b600060208201905081810360008301526137ef81613110565b9050919050565b6000602082019050818103600083015261380f81613133565b9050919050565b6000602082019050818103600083015261382f81613156565b9050919050565b6000602082019050818103600083015261384f81613179565b9050919050565b6000602082019050818103600083015261386f8161319c565b9050919050565b600060208201905061388b60008301846131ce565b92915050565b60006040820190506138a660008301856131ce565b81810360208301526138b88184612eeb565b90509392505050565b60006040820190506138d660008301856131ce565b6138e360208301846131ce565b9392505050565b60006060820190506138ff60008301866131ce565b61390c60208301856131ce565b61391960408301846131ce565b949350505050565b600061392b61393c565b90506139378282613cad565b919050565b6000604051905090565b600067ffffffffffffffff82111561396157613960613d0d565b5b602082029050602081019050919050565b600067ffffffffffffffff82111561398d5761398c613d0d565b5b602082029050602081019050919050565b600067ffffffffffffffff8211156139b9576139b8613d0d565b5b602082029050602081019050919050565b600067ffffffffffffffff8211156139e5576139e4613d0d565b5b6139ee82613d3c565b9050602081019050919050565b6000819050602082019050919050565b6000819050602082019050919050565b6000819050602082019050919050565b600081519050919050565b600081519050919050565b600081519050919050565b600081519050919050565b6000602082019050919050565b6000602082019050919050565b6000602082019050919050565b600082825260208201905092915050565b600082825260208201905092915050565b600082825260208201905092915050565b600082825260208201905092915050565b600082825260208201905092915050565b6000613ade82613bf5565b9150613ae983613bf5565b9250827fffffffffffffffffffffffffffffffffffffffffffffffffffffffffffffffff03821115613b1e57613b1d613cde565b5b828201905092915050565b6000613b3482613bf5565b9150613b3f83613bf5565b9250817fffffffffffffffffffffffffffffffffffffffffffffffffffffffffffffffff0483118215151615613b7857613b77613cde565b5b828202905092915050565b6000613b8e82613bf5565b9150613b9983613bf5565b925082821015613bac57613bab613cde565b5b828203905092915050565b6000613bc282613bd5565b9050919050565b60008115159050919050565b600073ffffffffffffffffffffffffffffffffffffffff82169050919050565b6000819050919050565b6000613c0a82613c11565b9050919050565b6000613c1c82613bd5565b9050919050565b6000613c2e82613c35565b9050919050565b6000613c4082613bd5565b9050919050565b6000613c5282613c59565b9050919050565b6000613c6482613bd5565b9050919050565b82818337600083830152505050565b60005b83811015613c98578082015181840152602081019050613c7d565b83811115613ca7576000848401525b50505050565b613cb682613d3c565b810181811067ffffffffffffffff82111715613cd557613cd4613d0d565b5b80604052505050565b7f4e487b7100000000000000000000000000000000000000000000000000000000600052601160045260246000fd5b7f4e487b7100000000000000000000000000000000000000000000000000000000600052604160045260246000fd5b6000601f19601f8301169050919050565b7f55736572206973206e6f7420612044656c6976657279206167656e742e204f6e60008201527f6c792044656c6976657279206167656e74732063616e2062652061737369676e60208201527f656420666f6f64206f726465722e000000000000000000000000000000000000604082015250565b7f52657374617572616e74206d757374207374616b65206d6f7265207468616e2060008201527f3020657468657200000000000000000000000000000000000000000000000000602082015250565b7f4e6f7420656e6f756768206d6f6e69657320746f20636f766572206f7264657260008201527f20616d6f756e742e000000000000000000000000000000000000000000000000602082015250565b7f4574686572206d757374206d6174636820746f6b656e5374616b650000000000600082015250565b7f44656c6976657279204167656e74206d757374207374616b65206d696e696d7560008201527f6d20313020657468657200000000000000000000000000000000000000000000602082015250565b7f4e6f7420456e6f75676820746f6b656e7320746f207469702e00000000000000600082015250565b7f5573657220697320612044656c6976657279206167656e742e204f6e6c79206360008201527f7573746f6d6572732063616e2061636365737320746869732e00000000000000602082015250565b613f5981613bb7565b8114613f6457600080fd5b50565b613f7081613bc9565b8114613f7b57600080fd5b50565b613f8781613bf5565b8114613f9257600080fd5b5056fea264697066735822122031c4edfc6a2bdabf77c1bbef83312f45b1651dcc4cc62dedfcf372404944b1c864736f6c63430008030033",
  "immutableReferences": {},
  "source": "pragma solidity ^0.8.1;\n// pragma solidity 0.7.6;\n// \"SPDX-License-Identifier: UNLICENSED\"\n\nimport \"@openzeppelin/contracts/token/ERC20/IERC20.sol\";\n\nimport \"./helpers_interface.sol\";\nimport \"./registration_interface.sol\";\nimport \"./orders_interface.sol\";\n\n\ncontract Foodiez {\n    \n    address ownerAddress;\n\n    // FoodiezRegistration public _foodiezRegistration;\n    // FoodiezHelpers public _foodiezHelpers;\n    // FoodiezOrders public _foodiezOrders;\n    \n    FoodiezRegistrationInterface public _foodiezRegistration;\n    FoodiezHelpersInterface public _foodiezHelpers;\n    FoodiezOrdersInterface public _foodiezOrders;\n\n    /*************Variables and Event Emitter***********************************************************/\n    \n    uint NetworkServiceFee = 2;\n    uint DeliveryFlatFee = 2;\n\n    event UserRegisteredEvent(string userName, bool isRegistered);\n    event UserInfoEvent(string name, address usrAddress, string usrType, uint256 rating);\n    event RestaurantRegistered(string restaurantName, address rAddress, bool isRegistered);\n    event ItemAddedEvent(string restaurantId, string itemId, string itemName);\n    event OrderPlaced(string orderId, string orderStatus);\n    event OrderAssignedToDriver(string orderId, address driverAddress, string orderStatus);\n    event OrderDeliveredToUser(string orderId, address driverAddress, string orderStatus);\n    event orderDeliveryConfirmedEvent(uint total, uint restaurantTotal, uint deliveryTotal);\n    \n    event AccountApproved(address account, uint256 allowance);\n    event AmountTransferedToAccount(address account, uint256 amount);\n    event TransferedSenderToRecipient(address sender, address recipient, uint256 amount);\n    \n    /*************Token Setup *************************/\n    IERC20 token;\n    \n    address payable owner;\n    \n    mapping (address => uint256) private _balances;\n\n    mapping (address => mapping (address => uint256)) private _allowances;\n    \n    \n    /************Constructor / Modifiers /  contract address setters*********************************************/\n    constructor(FoodiezRegistrationInterface _registerAddress, FoodiezHelpersInterface _helperAddress, FoodiezOrdersInterface _orderAddress, address _token) {\n        ownerAddress = msg.sender;\n        _foodiezHelpers = _helperAddress;\n        _foodiezRegistration = _registerAddress;\n        _foodiezOrders = _orderAddress;\n        \n        _foodiezRegistration.setParentContract(address(this));\n        _foodiezOrders.setParentContract(address(this));\n        \n        owner = payable(msg.sender); // Token deploy address;\n        token = IERC20(_token);\n    }\n\n    modifier OnlyOwner(){\n        require(msg.sender == ownerAddress, \"Foodiez Registration - Only Owner can call this function\");\n        _; // this underscore is requierd otherwise compiler will break;\n    }\n\n    modifier isDeliveryCheck(){\n        require( _foodiezRegistration.checkUserDelivery(msg.sender) == true, \"User is not a Delivery agent. Only Delivery agents can be assigned food order.\");\n        _;\n    }\n    \n    modifier isUserCheck(){\n        require( _foodiezRegistration.checkUserDelivery(msg.sender) == false, \"User is a Delivery agent. Only customers can access this.\");\n        _;\n    }\n\n    /*************Token Functions******************************************/\n    \n    function tokenApproveAccount(address _address, uint256 amount) public payable returns (bool){\n        \n        bool isApproved = token.approve(_address, amount);\n        if(isApproved) emit AccountApproved(_address, amount);\n        return isApproved;\n    }\n    \n    function allowance(address own, address spender) public view returns (uint256){\n        return token.allowance(own, spender);\n    }\n    \n    function getTokenBalanceOf(address _address) public view returns (uint256){\n        return token.balanceOf(_address);\n    }\n    \n    function tokenTransfer(address recipient, uint256 amount) public payable {\n        bool tokenTransfered = token.transfer(recipient, amount);\n        if(tokenTransfered) emit AmountTransferedToAccount(recipient, amount);\n    }\n    \n    function tokenTransferFrom(address sender, address recipient, uint256 amount) public payable {\n        \n        bool tokenTransfered = token.transferFrom(sender, recipient, amount);\n        \n        \n        if(tokenTransfered) emit TransferedSenderToRecipient(sender, recipient, amount);\n    }\n    \n    /*****************Registration of User ( customer and delivery ) and Restaurant *********************/\n    function userRegister(string memory name, string memory userId, uint uType, uint256 amountStake) public payable returns(bool isSuccess){\n        if(uType == 1) { \n            require(msg.value >= 10 ether, \"Delivery Agent must stake minimum 10 ether\"); \n        }\n        \n        // bool success = tokenApproveAccount(msg.sender, amountStake ); // approval of account to be done directly at tokenContract\n        if(amountStake > 0){\n            require(msg.value >= amountStake, \"Ether must match tokenStake\");\n            tokenTransferFrom(owner, msg.sender, amountStake);\n        }\n        \n        bool isRegistered = _foodiezRegistration.userRegistration(msg.sender, name, userId, uType); // setup token here\n        emit UserRegisteredEvent( name, isRegistered);\n        return isRegistered;\n    }\n    \n    function getUserInfo(address _address) public view returns (string memory usrName, string memory usrId, string memory usrType, uint256 rating){\n        \n        return _foodiezRegistration.getUserInfo(_address);\n        \n    }\n    \n    function registerRestaurant(string memory _name, string memory _rId, uint256 amountStake) public payable{\n        \n        bool isRegistered = _foodiezRegistration.createRestaurant(msg.sender, _name, _rId);\n        emit RestaurantRegistered(_name, msg.sender, isRegistered);\n        \n        //token register and purchase\n        require(msg.value >= 0, \"Restaurant must stake more than 0 ether\");\n        // bool success = tokenApproveAccount(msg.sender, amountStake);\n        tokenTransferFrom(owner, msg.sender, amountStake);\n    }\n    \n    function addMenuItems(string memory _itemName, uint _type, uint _price) public {\n        (string memory rId, string memory uniqueId, string memory itemName) = _foodiezRegistration.addMenuItems(msg.sender, _itemName, _type, _price);\n        \n        emit ItemAddedEvent(rId, uniqueId, itemName);\n    }\n    \n    function getRestaurantMenu(address _restaurantAddress, uint _itemNumber) public view returns(string memory itemName, string memory itemType, uint256 itemPrice){\n        return _foodiezRegistration.getRestaurantMenu(_restaurantAddress, _itemNumber);\n    } \n    \n    function getrestaurantInfo(address _restaurantAddress) public view returns(string memory rId, address rAddress, uint256 rItems, uint256 rating){\n        return _foodiezRegistration.getrestaurantInfo(_restaurantAddress);\n    }\n\n    function getAllRestaurants() public view returns(uint256 count, address[] memory restAddresses){\n        return _foodiezRegistration.getTotalRestaurants();\n    }\n    \n    /************Foodiez Orders Vars and Functions**********************/\n    function orderTotal(address _restaurantAddress, uint[] memory _itemNum) public view returns (uint totalPrice){\n        \n        return _foodiezRegistration.getOrderTotal(msg.sender, _restaurantAddress, _itemNum);\n    }\n\n    function placeOrder(address _restaurantAddress, string[] memory itemNames, uint totalPrice, uint tokenPay) public payable returns (string memory uOrderId, string memory orderStatus){\n        \n        //check for required ether \n        require(msg.value >= totalPrice || weiConverter(tokenPay) >= totalPrice , \"Not enough monies to cover order amount.\");\n        (string memory uniqueId, string memory status) = _foodiezRegistration.createFoodOrder(msg.sender, _restaurantAddress, itemNames, totalPrice);\n        \n        \n        if(tokenPay > 0) {\n            _foodiezOrders.setTokenPayOrder(uniqueId, tokenPay);\n            // transfer(address(this), tokenPay);\n        }\n\n        emit OrderPlaced(uniqueId, status);\n        return (uniqueId, status);\n    }\n\n    function getUserOrders() public view returns (uint256){\n        (uint256 usrOrderCount) = _foodiezRegistration.getUserOrders(msg.sender);\n        return usrOrderCount;\n    }\n\n    function getAllOrders() public view returns (string[] memory allOrders){\n        return _foodiezOrders.getAllOrder();\n    }\n\n    function getOrderStatus(string memory userOrderId) public view returns (string memory orderId, address userAddress, address driverAddress, string[] memory items, uint256 total, string memory status){\n        return _foodiezOrders.getUserOrderStatus(userOrderId);\n    }\n    \n    function assignToDriver(string memory userOrderId) public isDeliveryCheck {\n        \n        (address driverAddress, string memory status) = _foodiezOrders.assignOrderToDriver(msg.sender, userOrderId);\n        emit OrderAssignedToDriver(userOrderId,driverAddress, status);\n    }\n    \n    function driverDelieveredOrder(string memory userOrderId) public isDeliveryCheck {\n        \n        (address driverAddress, string memory status) = _foodiezOrders.driverDelieveredOrder(msg.sender, userOrderId);\n        emit OrderDeliveredToUser(userOrderId,driverAddress, status);\n    }\n    \n    function orderDeliveryConfirmed(string memory userOrderId, uint _restaurantRating, uint _deliveryRating, uint tokenTip ) public isUserCheck payable{\n         \n         (address restaurantAddress, address deliveryAddress, address userAddress, uint total ) = _foodiezOrders.orderDeliveryConfirmed(userOrderId);\n        \n        //ratings for restaurant and drivers\n        _foodiezRegistration.addRestaurantRating(restaurantAddress, _restaurantRating);\n        \n        _foodiezRegistration.addDriverRating(deliveryAddress, _deliveryRating);\n         \n        // payment \n        require(getTokenBalanceOf(userAddress) >= tokenTip, \"Not Enough tokens to tip.\");\n        \n        uint256 tokenPay = _foodiezOrders.getTokenPayOrder(userOrderId);\n        \n         uint finalOrderTotal = total;\n        // take out service fee from total\n        uint serviceFee = _foodiezHelpers.calcServiceFee(total, NetworkServiceFee);\n        finalOrderTotal -= serviceFee;\n            \n        // driver fee + any tips go to \n        uint driverTotal = _foodiezHelpers.calcDriverFlatFee(total, DeliveryFlatFee); \n        finalOrderTotal -= driverTotal; \n        \n        \n        driverTotal += msg.value; // adding tip from user to driver\n\n        // if token tip or token pay present make the transfer\n        if(tokenTip > 0) {\n            token.transferFrom(userAddress, deliveryAddress, tokenTip);\n            // token.transferFrom(userAddress, owner, tokenTip);\n            // token.transferFrom(owner, deliveryAddress, tokenTip);\n        }\n        if(tokenPay > 0){\n            token.transferFrom(userAddress, restaurantAddress, tokenPay);\n            // token.transferFrom(userAddress, owner, tokenTip);\n            // token.transferFrom(owner, restaurantAddress, tokenTip);\n        }\n\n        // transfer all other monies\n        // transfer driver money\n        payable(deliveryAddress).transfer(driverTotal);\n        \n        // transfer rest money\n        payable(restaurantAddress).transfer(finalOrderTotal);   \n        \n        emit orderDeliveryConfirmedEvent(total, finalOrderTotal, driverTotal);\n    }\n\n    \n    function weiConverter(uint256 tokenPay) internal pure returns(uint){\n        return tokenPay * 10**18;\n    }\n}",
  "sourcePath": "/home/dinesh/Blockchain-Projects/EthereumSolidityProject/contracts/parent.sol",
  "compiler": {
    "name": "solc",
    "version": "0.8.3+commit.8d00100c.Emscripten.clang"
  },
  "schemaVersion": "3.3.3",
  "updatedAt": "2021-04-10T14:53:10.391Z",
  "networkType": "ethereum",
  "devdoc": {
    "kind": "dev",
    "methods": {},
    "version": 1
  },
  "userdoc": {
    "kind": "user",
    "methods": {},
    "version": 1
  }
}