{
  "contractName": "FoodiezRegistration",
  "abi": [
    {
      "inputs": [
        {
          "internalType": "contract FoodiezHelpersInterface",
          "name": "_helperAddress",
          "type": "address"
        },
        {
          "internalType": "contract FoodiezOrdersInterface",
          "name": "_orderAddress",
          "type": "address"
        }
      ],
      "stateMutability": "nonpayable",
      "type": "constructor"
    },
    {
      "inputs": [],
      "name": "_foodiezHelpers",
      "outputs": [
        {
          "internalType": "contract FoodiezHelpersInterface",
          "name": "",
          "type": "address"
        }
      ],
      "stateMutability": "view",
      "type": "function",
      "constant": true
    },
    {
      "inputs": [],
      "name": "_foodiezOrders",
      "outputs": [
        {
          "internalType": "contract FoodiezOrdersInterface",
          "name": "",
          "type": "address"
        }
      ],
      "stateMutability": "view",
      "type": "function",
      "constant": true
    },
    {
      "inputs": [],
      "name": "parentContractAddress",
      "outputs": [
        {
          "internalType": "address",
          "name": "",
          "type": "address"
        }
      ],
      "stateMutability": "view",
      "type": "function",
      "constant": true
    },
    {
      "inputs": [
        {
          "internalType": "address",
          "name": "_address",
          "type": "address"
        }
      ],
      "name": "setParentContract",
      "outputs": [
        {
          "internalType": "string",
          "name": "",
          "type": "string"
        }
      ],
      "stateMutability": "nonpayable",
      "type": "function"
    },
    {
      "inputs": [
        {
          "internalType": "address",
          "name": "_address",
          "type": "address"
        },
        {
          "internalType": "string",
          "name": "name",
          "type": "string"
        },
        {
          "internalType": "string",
          "name": "userId",
          "type": "string"
        },
        {
          "internalType": "uint256",
          "name": "uType",
          "type": "uint256"
        }
      ],
      "name": "userRegistration",
      "outputs": [
        {
          "internalType": "bool",
          "name": "",
          "type": "bool"
        }
      ],
      "stateMutability": "nonpayable",
      "type": "function"
    },
    {
      "inputs": [
        {
          "internalType": "address",
          "name": "_address",
          "type": "address"
        }
      ],
      "name": "getUserInfo",
      "outputs": [
        {
          "internalType": "string",
          "name": "",
          "type": "string"
        },
        {
          "internalType": "string",
          "name": "",
          "type": "string"
        },
        {
          "internalType": "string",
          "name": "",
          "type": "string"
        },
        {
          "internalType": "uint256",
          "name": "",
          "type": "uint256"
        }
      ],
      "stateMutability": "view",
      "type": "function",
      "constant": true
    },
    {
      "inputs": [
        {
          "internalType": "address",
          "name": "_address",
          "type": "address"
        },
        {
          "internalType": "string",
          "name": "_name",
          "type": "string"
        },
        {
          "internalType": "string",
          "name": "_rId",
          "type": "string"
        }
      ],
      "name": "createRestaurant",
      "outputs": [
        {
          "internalType": "bool",
          "name": "",
          "type": "bool"
        }
      ],
      "stateMutability": "nonpayable",
      "type": "function"
    },
    {
      "inputs": [
        {
          "internalType": "address",
          "name": "_address",
          "type": "address"
        },
        {
          "internalType": "string",
          "name": "_itemName",
          "type": "string"
        },
        {
          "internalType": "uint256",
          "name": "_type",
          "type": "uint256"
        },
        {
          "internalType": "uint256",
          "name": "_price",
          "type": "uint256"
        }
      ],
      "name": "addMenuItems",
      "outputs": [
        {
          "internalType": "string",
          "name": "",
          "type": "string"
        },
        {
          "internalType": "string",
          "name": "",
          "type": "string"
        },
        {
          "internalType": "string",
          "name": "",
          "type": "string"
        }
      ],
      "stateMutability": "nonpayable",
      "type": "function"
    },
    {
      "inputs": [
        {
          "internalType": "address",
          "name": "_restaurantAddress",
          "type": "address"
        },
        {
          "internalType": "uint256",
          "name": "_itemNumber",
          "type": "uint256"
        }
      ],
      "name": "getRestaurantMenu",
      "outputs": [
        {
          "internalType": "string",
          "name": "",
          "type": "string"
        },
        {
          "internalType": "string",
          "name": "",
          "type": "string"
        },
        {
          "internalType": "uint256",
          "name": "",
          "type": "uint256"
        }
      ],
      "stateMutability": "view",
      "type": "function",
      "constant": true
    },
    {
      "inputs": [
        {
          "internalType": "address",
          "name": "_restaurantAddress",
          "type": "address"
        }
      ],
      "name": "getrestaurantInfo",
      "outputs": [
        {
          "internalType": "string",
          "name": "",
          "type": "string"
        },
        {
          "internalType": "address",
          "name": "",
          "type": "address"
        },
        {
          "internalType": "uint256",
          "name": "",
          "type": "uint256"
        },
        {
          "internalType": "uint256",
          "name": "",
          "type": "uint256"
        }
      ],
      "stateMutability": "view",
      "type": "function",
      "constant": true
    },
    {
      "inputs": [],
      "name": "getTotalRestaurants",
      "outputs": [
        {
          "internalType": "uint256",
          "name": "",
          "type": "uint256"
        },
        {
          "internalType": "address[]",
          "name": "restAddresses",
          "type": "address[]"
        }
      ],
      "stateMutability": "view",
      "type": "function",
      "constant": true
    },
    {
      "inputs": [
        {
          "internalType": "address",
          "name": "_userAddress",
          "type": "address"
        },
        {
          "internalType": "address",
          "name": "_address",
          "type": "address"
        },
        {
          "internalType": "uint256[]",
          "name": "_itemNum",
          "type": "uint256[]"
        }
      ],
      "name": "getOrderTotal",
      "outputs": [
        {
          "internalType": "uint256",
          "name": "",
          "type": "uint256"
        }
      ],
      "stateMutability": "view",
      "type": "function",
      "constant": true
    },
    {
      "inputs": [
        {
          "internalType": "address",
          "name": "userAddress",
          "type": "address"
        },
        {
          "internalType": "address",
          "name": "restaurantAddress",
          "type": "address"
        },
        {
          "internalType": "string[]",
          "name": "itemName",
          "type": "string[]"
        },
        {
          "internalType": "uint256",
          "name": "totalPrice",
          "type": "uint256"
        }
      ],
      "name": "createFoodOrder",
      "outputs": [
        {
          "internalType": "string",
          "name": "",
          "type": "string"
        },
        {
          "internalType": "string",
          "name": "",
          "type": "string"
        }
      ],
      "stateMutability": "payable",
      "type": "function",
      "payable": true
    },
    {
      "inputs": [
        {
          "internalType": "address",
          "name": "_userAddress",
          "type": "address"
        }
      ],
      "name": "getUserOrders",
      "outputs": [
        {
          "internalType": "uint256",
          "name": "",
          "type": "uint256"
        }
      ],
      "stateMutability": "view",
      "type": "function",
      "constant": true
    },
    {
      "inputs": [
        {
          "internalType": "address",
          "name": "_restaurantAddress",
          "type": "address"
        },
        {
          "internalType": "uint256",
          "name": "_restaurantRating",
          "type": "uint256"
        }
      ],
      "name": "addRestaurantRating",
      "outputs": [],
      "stateMutability": "nonpayable",
      "type": "function"
    },
    {
      "inputs": [
        {
          "internalType": "address",
          "name": "_address",
          "type": "address"
        },
        {
          "internalType": "uint256",
          "name": "_deliveryRating",
          "type": "uint256"
        }
      ],
      "name": "addDriverRating",
      "outputs": [],
      "stateMutability": "nonpayable",
      "type": "function"
    },
    {
      "inputs": [
        {
          "internalType": "address",
          "name": "_address",
          "type": "address"
        }
      ],
      "name": "checkUserDelivery",
      "outputs": [
        {
          "internalType": "bool",
          "name": "",
          "type": "bool"
        }
      ],
      "stateMutability": "view",
      "type": "function",
      "constant": true
    },
    {
      "inputs": [
        {
          "internalType": "address",
          "name": "_restaurantAddress",
          "type": "address"
        },
        {
          "internalType": "uint256",
          "name": "_itemNumber",
          "type": "uint256"
        }
      ],
      "name": "getItemInfo",
      "outputs": [
        {
          "internalType": "string",
          "name": "",
          "type": "string"
        },
        {
          "internalType": "uint256",
          "name": "",
          "type": "uint256"
        }
      ],
      "stateMutability": "view",
      "type": "function",
      "constant": true
    },
    {
      "inputs": [],
      "name": "getOrderCount",
      "outputs": [
        {
          "internalType": "uint256",
          "name": "",
          "type": "uint256"
        }
      ],
      "stateMutability": "view",
      "type": "function",
      "constant": true
    }
  ],
  "bytecode": "0x60806040526000600360146101000a81548160ff0219169083151502179055506000600c556002600d556002600e553480156200003b57600080fd5b506040516200641a3803806200641a833981810160405281019062000061919062000284565b33600260006101000a81548173ffffffffffffffffffffffffffffffffffffffff021916908373ffffffffffffffffffffffffffffffffffffffff160217905550816000806101000a81548173ffffffffffffffffffffffffffffffffffffffff021916908373ffffffffffffffffffffffffffffffffffffffff16021790555080600160006101000a81548173ffffffffffffffffffffffffffffffffffffffff021916908373ffffffffffffffffffffffffffffffffffffffff160217905550600160009054906101000a900473ffffffffffffffffffffffffffffffffffffffff1673ffffffffffffffffffffffffffffffffffffffff1663e150a2e8306040518263ffffffff1660e01b81526004016200018091906200031b565b600060405180830381600087803b1580156200019b57600080fd5b505af1158015620001b0573d6000803e3d6000fd5b505050506040513d6000823e3d601f19601f82011682018060405250810190620001db9190620002c5565b505050620004d3565b6000620001fb620001f58462000361565b62000338565b9050828152602081018484840111156200021457600080fd5b62000221848285620003f3565b509392505050565b6000815190506200023a816200049f565b92915050565b6000815190506200025181620004b9565b92915050565b600082601f8301126200026957600080fd5b81516200027b848260208601620001e4565b91505092915050565b600080604083850312156200029857600080fd5b6000620002a88582860162000229565b9250506020620002bb8582860162000240565b9150509250929050565b600060208284031215620002d857600080fd5b600082015167ffffffffffffffff811115620002f357600080fd5b620003018482850162000257565b91505092915050565b620003158162000397565b82525050565b60006020820190506200033260008301846200030a565b92915050565b60006200034462000357565b905062000352828262000429565b919050565b6000604051905090565b600067ffffffffffffffff8211156200037f576200037e6200045f565b5b6200038a826200048e565b9050602081019050919050565b6000620003a482620003d3565b9050919050565b6000620003b88262000397565b9050919050565b6000620003cc8262000397565b9050919050565b600073ffffffffffffffffffffffffffffffffffffffff82169050919050565b60005b8381101562000413578082015181840152602081019050620003f6565b8381111562000423576000848401525b50505050565b62000434826200048e565b810181811067ffffffffffffffff821117156200045657620004556200045f565b5b80604052505050565b7f4e487b7100000000000000000000000000000000000000000000000000000000600052604160045260246000fd5b6000601f19601f8301169050919050565b620004aa81620003ab565b8114620004b657600080fd5b50565b620004c481620003bf565b8114620004d057600080fd5b50565b615f3780620004e36000396000f3fe6080604052600436106101145760003560e01c806370771504116100a0578063ae596d4e11610064578063ae596d4e1461041a578063d8c01ed114610445578063debd2ec414610485578063dfe7669d146104c4578063e6612812146104ed57610114565b80637077150414610320578063765ccb6b1461034c5780638ab7ad77146103895780638d0a5fbb146103b2578063a3305e0c146103dd57610114565b806340ecc057116100e757806340ecc057146101fe5780635f9d8de61461023b578063617aada9146102785780636386c1c7146102a357806363c69f08146102e357610114565b806309630923146101195780632cfff5d6146101565780632d9ee1d114610194578063331723eb146101bf575b600080fd5b34801561012557600080fd5b50610140600480360381019061013b9190614d9e565b61051e565b60405161014d9190615492565b60405180910390f35b34801561016257600080fd5b5061017d60048036038101906101789190614f2b565b61087e565b60405161018b9291906156e9565b60405180910390f35b3480156101a057600080fd5b506101a9610d5c565b6040516101b691906154c8565b60405180910390f35b3480156101cb57600080fd5b506101e660048036038101906101e19190614f2b565b610d82565b6040516101f59392919061562e565b60405180910390f35b34801561020a57600080fd5b5061022560048036038101906102209190614d37565b6113dd565b60405161023291906157f9565b60405180910390f35b34801561024757600080fd5b50610262600480360381019061025d9190614c93565b611b2c565b60405161026f9190615492565b60405180910390f35b34801561028457600080fd5b5061028d611dfb565b60405161029a91906154ad565b60405180910390f35b3480156102af57600080fd5b506102ca60048036038101906102c59190614c93565b611e1f565b6040516102da94939291906155d4565b60405180910390f35b3480156102ef57600080fd5b5061030a60048036038101906103059190614c93565b612282565b60405161031791906157f9565b60405180910390f35b34801561032c57600080fd5b5061033561235b565b604051610343929190615814565b60405180910390f35b34801561035857600080fd5b50610373600480360381019061036e9190614c93565b612487565b60405161038091906154e3565b60405180910390f35b34801561039557600080fd5b506103b060048036038101906103ab9190614f2b565b61255b565b005b3480156103be57600080fd5b506103c7612c4d565b6040516103d491906157f9565b60405180910390f35b3480156103e957600080fd5b5061040460048036038101906103ff9190614e1d565b612c57565b6040516104119190615492565b60405180910390f35b34801561042657600080fd5b5061042f61309c565b60405161043c9190615477565b60405180910390f35b34801561045157600080fd5b5061046c60048036038101906104679190614c93565b6130c2565b60405161047c9493929190615505565b60405180910390f35b34801561049157600080fd5b506104ac60048036038101906104a79190614eb0565b61349c565b6040516104bb93929190615588565b60405180910390f35b3480156104d057600080fd5b506104eb60048036038101906104e69190614f2b565b613a25565b005b61050760048036038101906105029190614cbc565b6140ea565b604051610515929190615551565b60405180910390f35b6000600360009054906101000a900473ffffffffffffffffffffffffffffffffffffffff1673ffffffffffffffffffffffffffffffffffffffff163373ffffffffffffffffffffffffffffffffffffffff16146105b0576040517f08c379a00000000000000000000000000000000000000000000000000000000081526004016105a790615799565b60405180910390fd5b600015156105bd85614452565b1515146105ff576040517f08c379a00000000000000000000000000000000000000000000000000000000081526004016105f6906157b9565b60405180910390fd5b606060006040518060e001604052808773ffffffffffffffffffffffffffffffffffffffff168152602001868152602001858152602001600081526020016000815260200183815260200160011515815250905080600860008873ffffffffffffffffffffffffffffffffffffffff1673ffffffffffffffffffffffffffffffffffffffff16815260200190815260200160002060008201518160000160006101000a81548173ffffffffffffffffffffffffffffffffffffffff021916908373ffffffffffffffffffffffffffffffffffffffff16021790555060208201518160010190805190602001906106f692919061480b565b50604082015181600201908051906020019061071392919061480b565b50606082015181600301556080820151816004015560a0820151816005019080519060200190610744929190614891565b5060c08201518160060160006101000a81548160ff0219169083151502179055509050506007869080600181540180825580915050600190039060005260206000200160009091909190916101000a81548173ffffffffffffffffffffffffffffffffffffffff021916908373ffffffffffffffffffffffffffffffffffffffff16021790555060006040518060a00160405280600081526020016000815260200160008152602001600081526020016000815250905080600960008973ffffffffffffffffffffffffffffffffffffffff1673ffffffffffffffffffffffffffffffffffffffff1681526020019081526020016000206000820151816000015560208201518160010155604082015181600201556060820151816003015560808201518160040155905050600193505050509392505050565b606060006001151561088f85614452565b1515146108d1576040517f08c379a00000000000000000000000000000000000000000000000000000000081526004016108c890615739565b60405180910390fd5b6000600860008673ffffffffffffffffffffffffffffffffffffffff1673ffffffffffffffffffffffffffffffffffffffff1681526020019081526020016000206040518060e00160405290816000820160009054906101000a900473ffffffffffffffffffffffffffffffffffffffff1673ffffffffffffffffffffffffffffffffffffffff1673ffffffffffffffffffffffffffffffffffffffff16815260200160018201805461098390615b7d565b80601f01602080910402602001604051908101604052809291908181526020018280546109af90615b7d565b80156109fc5780601f106109d1576101008083540402835291602001916109fc565b820191906000526020600020905b8154815290600101906020018083116109df57829003601f168201915b50505050508152602001600282018054610a1590615b7d565b80601f0160208091040260200160405190810160405280929190818152602001828054610a4190615b7d565b8015610a8e5780601f10610a6357610100808354040283529160200191610a8e565b820191906000526020600020905b815481529060010190602001808311610a7157829003601f168201915b50505050508152602001600382015481526020016004820154815260200160058201805480602002602001604051908101604052809291908181526020016000905b82821015610b7c578382906000526020600020018054610aef90615b7d565b80601f0160208091040260200160405190810160405280929190818152602001828054610b1b90615b7d565b8015610b685780601f10610b3d57610100808354040283529160200191610b68565b820191906000526020600020905b815481529060010190602001808311610b4b57829003601f168201915b505050505081526020019060010190610ad0565b5050505081526020016006820160009054906101000a900460ff161515151581525050905060008160a0015190506000600a828781518110610be7577f4e487b7100000000000000000000000000000000000000000000000000000000600052603260045260246000fd5b6020026020010151604051610bfc919061543c565b908152602001604051809103902060405180608001604052908160008201548152602001600182018054610c2f90615b7d565b80601f0160208091040260200160405190810160405280929190818152602001828054610c5b90615b7d565b8015610ca85780601f10610c7d57610100808354040283529160200191610ca8565b820191906000526020600020905b815481529060010190602001808311610c8b57829003601f168201915b505050505081526020016002820160009054906101000a900460ff166002811115610cfc577f4e487b7100000000000000000000000000000000000000000000000000000000600052602160045260246000fd5b6002811115610d34577f4e487b7100000000000000000000000000000000000000000000000000000000600052602160045260246000fd5b8152602001600382015481525050905080602001518160600151945094505050509250929050565b600160009054906101000a900473ffffffffffffffffffffffffffffffffffffffff1681565b6060806000600360009054906101000a900473ffffffffffffffffffffffffffffffffffffffff1673ffffffffffffffffffffffffffffffffffffffff163373ffffffffffffffffffffffffffffffffffffffff1614610e17576040517f08c379a0000000000000000000000000000000000000000000000000000000008152600401610e0e90615799565b60405180910390fd5b60011515610e2486614452565b151514610e66576040517f08c379a0000000000000000000000000000000000000000000000000000000008152600401610e5d90615739565b60405180910390fd5b6000600860008773ffffffffffffffffffffffffffffffffffffffff1673ffffffffffffffffffffffffffffffffffffffff1681526020019081526020016000206040518060e00160405290816000820160009054906101000a900473ffffffffffffffffffffffffffffffffffffffff1673ffffffffffffffffffffffffffffffffffffffff1673ffffffffffffffffffffffffffffffffffffffff168152602001600182018054610f1890615b7d565b80601f0160208091040260200160405190810160405280929190818152602001828054610f4490615b7d565b8015610f915780601f10610f6657610100808354040283529160200191610f91565b820191906000526020600020905b815481529060010190602001808311610f7457829003601f168201915b50505050508152602001600282018054610faa90615b7d565b80601f0160208091040260200160405190810160405280929190818152602001828054610fd690615b7d565b80156110235780601f10610ff857610100808354040283529160200191611023565b820191906000526020600020905b81548152906001019060200180831161100657829003601f168201915b50505050508152602001600382015481526020016004820154815260200160058201805480602002602001604051908101604052809291908181526020016000905b8282101561111157838290600052602060002001805461108490615b7d565b80601f01602080910402602001604051908101604052809291908181526020018280546110b090615b7d565b80156110fd5780601f106110d2576101008083540402835291602001916110fd565b820191906000526020600020905b8154815290600101906020018083116110e057829003601f168201915b505050505081526020019060010190611065565b5050505081526020016006820160009054906101000a900460ff161515151581525050905060008160a0015190506000600a82888151811061117c577f4e487b7100000000000000000000000000000000000000000000000000000000600052603260045260246000fd5b6020026020010151604051611191919061543c565b9081526020016040518091039020604051806080016040529081600082015481526020016001820180546111c490615b7d565b80601f01602080910402602001604051908101604052809291908181526020018280546111f090615b7d565b801561123d5780601f106112125761010080835404028352916020019161123d565b820191906000526020600020905b81548152906001019060200180831161122057829003601f168201915b505050505081526020016002820160009054906101000a900460ff166002811115611291577f4e487b7100000000000000000000000000000000000000000000000000000000600052602160045260246000fd5b60028111156112c9577f4e487b7100000000000000000000000000000000000000000000000000000000600052602160045260246000fd5b81526020016003820154815250509050806020015160008054906101000a900473ffffffffffffffffffffffffffffffffffffffff1673ffffffffffffffffffffffffffffffffffffffff166348002cc083604001516002811115611357577f4e487b7100000000000000000000000000000000000000000000000000000000600052602160045260246000fd5b6040518263ffffffff1660e01b815260040161137391906158c0565b60006040518083038186803b15801561138b57600080fd5b505afa15801561139f573d6000803e3d6000fd5b505050506040513d6000823e3d601f19601f820116820180604052508101906113c89190614f67565b82606001519550955095505050509250925092565b6000600360009054906101000a900473ffffffffffffffffffffffffffffffffffffffff1673ffffffffffffffffffffffffffffffffffffffff163373ffffffffffffffffffffffffffffffffffffffff161461146f576040517f08c379a000000000000000000000000000000000000000000000000000000000815260040161146690615799565b60405180910390fd5b6001151561147c85614730565b1515146114be576040517f08c379a00000000000000000000000000000000000000000000000000000000081526004016114b590615759565b60405180910390fd5b600080600860008673ffffffffffffffffffffffffffffffffffffffff1673ffffffffffffffffffffffffffffffffffffffff1681526020019081526020016000206040518060e00160405290816000820160009054906101000a900473ffffffffffffffffffffffffffffffffffffffff1673ffffffffffffffffffffffffffffffffffffffff1673ffffffffffffffffffffffffffffffffffffffff16815260200160018201805461157190615b7d565b80601f016020809104026020016040519081016040528092919081815260200182805461159d90615b7d565b80156115ea5780601f106115bf576101008083540402835291602001916115ea565b820191906000526020600020905b8154815290600101906020018083116115cd57829003601f168201915b5050505050815260200160028201805461160390615b7d565b80601f016020809104026020016040519081016040528092919081815260200182805461162f90615b7d565b801561167c5780601f106116515761010080835404028352916020019161167c565b820191906000526020600020905b81548152906001019060200180831161165f57829003601f168201915b50505050508152602001600382015481526020016004820154815260200160058201805480602002602001604051908101604052809291908181526020016000905b8282101561176a5783829060005260206000200180546116dd90615b7d565b80601f016020809104026020016040519081016040528092919081815260200182805461170990615b7d565b80156117565780601f1061172b57610100808354040283529160200191611756565b820191906000526020600020905b81548152906001019060200180831161173957829003601f168201915b5050505050815260200190600101906116be565b5050505081526020016006820160009054906101000a900460ff161515151581525050905060008160a00151905060005b85518110156119a4576000600a838884815181106117e2577f4e487b7100000000000000000000000000000000000000000000000000000000600052603260045260246000fd5b602002602001015181518110611821577f4e487b7100000000000000000000000000000000000000000000000000000000600052603260045260246000fd5b6020026020010151604051611836919061543c565b90815260200160405180910390206040518060800160405290816000820154815260200160018201805461186990615b7d565b80601f016020809104026020016040519081016040528092919081815260200182805461189590615b7d565b80156118e25780601f106118b7576101008083540402835291602001916118e2565b820191906000526020600020905b8154815290600101906020018083116118c557829003601f168201915b505050505081526020016002820160009054906101000a900460ff166002811115611936577f4e487b7100000000000000000000000000000000000000000000000000000000600052602160045260246000fd5b600281111561196e577f4e487b7100000000000000000000000000000000000000000000000000000000600052602160045260246000fd5b8152602001600382015481525050905080606001518561198e9190615a48565b945050808061199c90615be0565b91505061179b565b50600083905060008054906101000a900473ffffffffffffffffffffffffffffffffffffffff1673ffffffffffffffffffffffffffffffffffffffff16636560951682600d546040518363ffffffff1660e01b8152600401611a07929190615844565b60206040518083038186803b158015611a1f57600080fd5b505afa158015611a33573d6000803e3d6000fd5b505050506040513d601f19601f82011682018060405250810190611a579190615014565b84611a629190615a48565b935060008054906101000a900473ffffffffffffffffffffffffffffffffffffffff1673ffffffffffffffffffffffffffffffffffffffff1663221c9cfe82600e546040518363ffffffff1660e01b8152600401611ac1929190615844565b60206040518083038186803b158015611ad957600080fd5b505afa158015611aed573d6000803e3d6000fd5b505050506040513d601f19601f82011682018060405250810190611b119190615014565b84611b1c9190615a48565b9350839450505050509392505050565b600080600460008473ffffffffffffffffffffffffffffffffffffffff1673ffffffffffffffffffffffffffffffffffffffff1681526020019081526020016000206040518060c0016040529081600082018054611b8990615b7d565b80601f0160208091040260200160405190810160405280929190818152602001828054611bb590615b7d565b8015611c025780601f10611bd757610100808354040283529160200191611c02565b820191906000526020600020905b815481529060010190602001808311611be557829003601f168201915b50505050508152602001600182018054611c1b90615b7d565b80601f0160208091040260200160405190810160405280929190818152602001828054611c4790615b7d565b8015611c945780601f10611c6957610100808354040283529160200191611c94565b820191906000526020600020905b815481529060010190602001808311611c7757829003601f168201915b505050505081526020016002820160009054906101000a900473ffffffffffffffffffffffffffffffffffffffff1673ffffffffffffffffffffffffffffffffffffffff1673ffffffffffffffffffffffffffffffffffffffff1681526020016002820160149054906101000a900460ff166001811115611d3e577f4e487b7100000000000000000000000000000000000000000000000000000000600052602160045260246000fd5b6001811115611d76577f4e487b7100000000000000000000000000000000000000000000000000000000600052602160045260246000fd5b8152602001600382015481526020016004820160009054906101000a900460ff1615151515815250509050600181606001516001811115611de0577f4e487b7100000000000000000000000000000000000000000000000000000000600052602160045260246000fd5b1415611df0576001915050611df6565b60009150505b919050565b60008054906101000a900473ffffffffffffffffffffffffffffffffffffffff1681565b60608060606000600360009054906101000a900473ffffffffffffffffffffffffffffffffffffffff1673ffffffffffffffffffffffffffffffffffffffff163373ffffffffffffffffffffffffffffffffffffffff1614611eb6576040517f08c379a0000000000000000000000000000000000000000000000000000000008152600401611ead90615799565b60405180910390fd5b60011515611ec386614730565b151514611f05576040517f08c379a0000000000000000000000000000000000000000000000000000000008152600401611efc90615719565b60405180910390fd5b6000600460008773ffffffffffffffffffffffffffffffffffffffff1673ffffffffffffffffffffffffffffffffffffffff1681526020019081526020016000206040518060c0016040529081600082018054611f6190615b7d565b80601f0160208091040260200160405190810160405280929190818152602001828054611f8d90615b7d565b8015611fda5780601f10611faf57610100808354040283529160200191611fda565b820191906000526020600020905b815481529060010190602001808311611fbd57829003601f168201915b50505050508152602001600182018054611ff390615b7d565b80601f016020809104026020016040519081016040528092919081815260200182805461201f90615b7d565b801561206c5780601f106120415761010080835404028352916020019161206c565b820191906000526020600020905b81548152906001019060200180831161204f57829003601f168201915b505050505081526020016002820160009054906101000a900473ffffffffffffffffffffffffffffffffffffffff1673ffffffffffffffffffffffffffffffffffffffff1673ffffffffffffffffffffffffffffffffffffffff1681526020016002820160149054906101000a900460ff166001811115612116577f4e487b7100000000000000000000000000000000000000000000000000000000600052602160045260246000fd5b600181111561214e577f4e487b7100000000000000000000000000000000000000000000000000000000600052602160045260246000fd5b8152602001600382015481526020016004820160009054906101000a900460ff16151515158152505090508060000151816020015160008054906101000a900473ffffffffffffffffffffffffffffffffffffffff1673ffffffffffffffffffffffffffffffffffffffff1663dfe11da3846060015160018111156121fc577f4e487b7100000000000000000000000000000000000000000000000000000000600052602160045260246000fd5b6040518263ffffffff1660e01b815260040161221891906158c0565b60006040518083038186803b15801561223057600080fd5b505afa158015612244573d6000803e3d6000fd5b505050506040513d6000823e3d601f19601f8201168201806040525081019061226d9190614f67565b83608001519450945094509450509193509193565b6000600360009054906101000a900473ffffffffffffffffffffffffffffffffffffffff1673ffffffffffffffffffffffffffffffffffffffff163373ffffffffffffffffffffffffffffffffffffffff1614612314576040517f08c379a000000000000000000000000000000000000000000000000000000000815260040161230b90615799565b60405180910390fd5b600560008373ffffffffffffffffffffffffffffffffffffffff1673ffffffffffffffffffffffffffffffffffffffff168152602001908152602001600020549050919050565b60006060600360009054906101000a900473ffffffffffffffffffffffffffffffffffffffff1673ffffffffffffffffffffffffffffffffffffffff163373ffffffffffffffffffffffffffffffffffffffff16146123ef576040517f08c379a00000000000000000000000000000000000000000000000000000000081526004016123e690615799565b60405180910390fd5b60078054905060078080548060200260200160405190810160405280929190818152602001828054801561247857602002820191906000526020600020905b8160009054906101000a900473ffffffffffffffffffffffffffffffffffffffff1673ffffffffffffffffffffffffffffffffffffffff168152602001906001019080831161242e575b50505050509050915091509091565b606060001515600360149054906101000a900460ff161515146124df576040517f08c379a00000000000000000000000000000000000000000000000000000000081526004016124d690615779565b60405180910390fd5b81600360006101000a81548173ffffffffffffffffffffffffffffffffffffffff021916908373ffffffffffffffffffffffffffffffffffffffff1602179055506001600360146101000a81548160ff0219169083151502179055506040518060600160405280602b8152602001615ed7602b91399050919050565b600360009054906101000a900473ffffffffffffffffffffffffffffffffffffffff1673ffffffffffffffffffffffffffffffffffffffff163373ffffffffffffffffffffffffffffffffffffffff16146125eb576040517f08c379a00000000000000000000000000000000000000000000000000000000081526004016125e290615799565b60405180910390fd5b6000600960008473ffffffffffffffffffffffffffffffffffffffff1673ffffffffffffffffffffffffffffffffffffffff1681526020019081526020016000206040518060a0016040529081600082015481526020016001820154815260200160028201548152602001600382015481526020016004820154815250509050600182141561268f5780600001805180919061268690615be0565b8152505061271f565b60028214156126b3578060200180518091906126aa90615be0565b8152505061271e565b60038214156126d7578060400180518091906126ce90615be0565b8152505061271d565b60048214156126fb578060600180518091906126f290615be0565b8152505061271c565b600582141561271b5780608001805180919061271690615be0565b815250505b5b5b5b5b80600960008573ffffffffffffffffffffffffffffffffffffffff1673ffffffffffffffffffffffffffffffffffffffff16815260200190815260200160002060008201518160000155602082015181600101556040820151816002015560608201518160030155608082015181600401559050506000600860008573ffffffffffffffffffffffffffffffffffffffff1673ffffffffffffffffffffffffffffffffffffffff1681526020019081526020016000206040518060e00160405290816000820160009054906101000a900473ffffffffffffffffffffffffffffffffffffffff1673ffffffffffffffffffffffffffffffffffffffff1673ffffffffffffffffffffffffffffffffffffffff16815260200160018201805461284690615b7d565b80601f016020809104026020016040519081016040528092919081815260200182805461287290615b7d565b80156128bf5780601f10612894576101008083540402835291602001916128bf565b820191906000526020600020905b8154815290600101906020018083116128a257829003601f168201915b505050505081526020016002820180546128d890615b7d565b80601f016020809104026020016040519081016040528092919081815260200182805461290490615b7d565b80156129515780601f1061292657610100808354040283529160200191612951565b820191906000526020600020905b81548152906001019060200180831161293457829003601f168201915b50505050508152602001600382015481526020016004820154815260200160058201805480602002602001604051908101604052809291908181526020016000905b82821015612a3f5783829060005260206000200180546129b290615b7d565b80601f01602080910402602001604051908101604052809291908181526020018280546129de90615b7d565b8015612a2b5780601f10612a0057610100808354040283529160200191612a2b565b820191906000526020600020905b815481529060010190602001808311612a0e57829003601f168201915b505050505081526020019060010190612993565b5050505081526020016006820160009054906101000a900460ff161515151581525050905060008054906101000a900473ffffffffffffffffffffffffffffffffffffffff1673ffffffffffffffffffffffffffffffffffffffff166344a3878c836000015184602001518560400151866060015187608001516040518663ffffffff1660e01b8152600401612ad995949392919061586d565b60206040518083038186803b158015612af157600080fd5b505afa158015612b05573d6000803e3d6000fd5b505050506040513d601f19601f82011682018060405250810190612b299190615014565b81608001818152505080600860008673ffffffffffffffffffffffffffffffffffffffff1673ffffffffffffffffffffffffffffffffffffffff16815260200190815260200160002060008201518160000160006101000a81548173ffffffffffffffffffffffffffffffffffffffff021916908373ffffffffffffffffffffffffffffffffffffffff1602179055506020820151816001019080519060200190612bd592919061480b565b506040820151816002019080519060200190612bf292919061480b565b50606082015181600301556080820151816004015560a0820151816005019080519060200190612c23929190614891565b5060c08201518160060160006101000a81548160ff02191690831515021790555090505050505050565b6000600c54905090565b6000600360009054906101000a900473ffffffffffffffffffffffffffffffffffffffff1673ffffffffffffffffffffffffffffffffffffffff163373ffffffffffffffffffffffffffffffffffffffff1614612ce9576040517f08c379a0000000000000000000000000000000000000000000000000000000008152600401612ce090615799565b60405180910390fd5b60001515612cf686614730565b151514612d38576040517f08c379a0000000000000000000000000000000000000000000000000000000008152600401612d2f906157d9565b60405180910390fd5b60006040518060c001604052808681526020018581526020018773ffffffffffffffffffffffffffffffffffffffff168152602001846001811115612da6577f4e487b7100000000000000000000000000000000000000000000000000000000600052602160045260246000fd5b6001811115612dde577f4e487b7100000000000000000000000000000000000000000000000000000000600052602160045260246000fd5b81526020016000815260200160011515815250905080600460008873ffffffffffffffffffffffffffffffffffffffff1673ffffffffffffffffffffffffffffffffffffffff1681526020019081526020016000206000820151816000019080519060200190612e4f92919061480b565b506020820151816001019080519060200190612e6c92919061480b565b5060408201518160020160006101000a81548173ffffffffffffffffffffffffffffffffffffffff021916908373ffffffffffffffffffffffffffffffffffffffff16021790555060608201518160020160146101000a81548160ff02191690836001811115612f05577f4e487b7100000000000000000000000000000000000000000000000000000000600052602160045260246000fd5b02179055506080820151816003015560a08201518160040160006101000a81548160ff0219169083151502179055509050506000600560008873ffffffffffffffffffffffffffffffffffffffff1673ffffffffffffffffffffffffffffffffffffffff168152602001908152602001600020819055506006869080600181540180825580915050600190039060005260206000200160009091909190916101000a81548173ffffffffffffffffffffffffffffffffffffffff021916908373ffffffffffffffffffffffffffffffffffffffff160217905550600183141561308f5760006040518060a00160405280600081526020016000815260200160008152602001600081526020016000815250905080600b60008973ffffffffffffffffffffffffffffffffffffffff1673ffffffffffffffffffffffffffffffffffffffff1681526020019081526020016000206000820151816000015560208201518160010155604082015181600201556060820151816003015560808201518160040155905050505b6001915050949350505050565b600360009054906101000a900473ffffffffffffffffffffffffffffffffffffffff1681565b60606000806000600360009054906101000a900473ffffffffffffffffffffffffffffffffffffffff1673ffffffffffffffffffffffffffffffffffffffff163373ffffffffffffffffffffffffffffffffffffffff1614613159576040517f08c379a000000000000000000000000000000000000000000000000000000000815260040161315090615799565b60405180910390fd5b6001151561316686614452565b1515146131a8576040517f08c379a000000000000000000000000000000000000000000000000000000000815260040161319f90615739565b60405180910390fd5b6000600860008773ffffffffffffffffffffffffffffffffffffffff1673ffffffffffffffffffffffffffffffffffffffff1681526020019081526020016000206040518060e00160405290816000820160009054906101000a900473ffffffffffffffffffffffffffffffffffffffff1673ffffffffffffffffffffffffffffffffffffffff1673ffffffffffffffffffffffffffffffffffffffff16815260200160018201805461325a90615b7d565b80601f016020809104026020016040519081016040528092919081815260200182805461328690615b7d565b80156132d35780601f106132a8576101008083540402835291602001916132d3565b820191906000526020600020905b8154815290600101906020018083116132b657829003601f168201915b505050505081526020016002820180546132ec90615b7d565b80601f016020809104026020016040519081016040528092919081815260200182805461331890615b7d565b80156133655780601f1061333a57610100808354040283529160200191613365565b820191906000526020600020905b81548152906001019060200180831161334857829003601f168201915b50505050508152602001600382015481526020016004820154815260200160058201805480602002602001604051908101604052809291908181526020016000905b828210156134535783829060005260206000200180546133c690615b7d565b80601f01602080910402602001604051908101604052809291908181526020018280546133f290615b7d565b801561343f5780601f106134145761010080835404028352916020019161343f565b820191906000526020600020905b81548152906001019060200180831161342257829003601f168201915b5050505050815260200190600101906133a7565b5050505081526020016006820160009054906101000a900460ff161515151581525050905080604001518160000151826060015183608001519450945094509450509193509193565b6060806060600360009054906101000a900473ffffffffffffffffffffffffffffffffffffffff1673ffffffffffffffffffffffffffffffffffffffff163373ffffffffffffffffffffffffffffffffffffffff1614613531576040517f08c379a000000000000000000000000000000000000000000000000000000000815260040161352890615799565b60405180910390fd5b6001151561353e88614452565b151514613580576040517f08c379a000000000000000000000000000000000000000000000000000000000815260040161357790615739565b60405180910390fd5b6000600860008973ffffffffffffffffffffffffffffffffffffffff1673ffffffffffffffffffffffffffffffffffffffff168152602001908152602001600020905060008060009054906101000a900473ffffffffffffffffffffffffffffffffffffffff1673ffffffffffffffffffffffffffffffffffffffff1663f76f950e83600301546040518263ffffffff1660e01b815260040161362391906157f9565b60006040518083038186803b15801561363b57600080fd5b505afa15801561364f573d6000803e3d6000fd5b505050506040513d6000823e3d601f19601f820116820180604052508101906136789190614f67565b905060008260020182604051602001613692929190615453565b604051602081830303815290604052905060006040518060800160405280856003015481526020018b81526020018a60028111156136f9577f4e487b7100000000000000000000000000000000000000000000000000000000600052602160045260246000fd5b6002811115613731577f4e487b7100000000000000000000000000000000000000000000000000000000600052602160045260246000fd5b815260200189815250905080600a8360405161374d919061543c565b908152602001604051809103902060008201518160000155602082015181600101908051906020019061378192919061480b565b5060408201518160020160006101000a81548160ff021916908360028111156137d3577f4e487b7100000000000000000000000000000000000000000000000000000000600052602160045260246000fd5b021790555060608201518160030155905050836005018290806001815401808255809150506001900390600052602060002001600090919091909150908051906020019061382292919061480b565b5083600301600081548092919061383890615be0565b919050555083600860008d73ffffffffffffffffffffffffffffffffffffffff1673ffffffffffffffffffffffffffffffffffffffff1681526020019081526020016000206000820160009054906101000a900473ffffffffffffffffffffffffffffffffffffffff168160000160006101000a81548173ffffffffffffffffffffffffffffffffffffffff021916908373ffffffffffffffffffffffffffffffffffffffff16021790555060018201816001019080546138f890615b7d565b6139039291906148f1565b50600282018160020190805461391890615b7d565b6139239291906148f1565b506003820154816003015560048201548160040155600582018160050190805461394e92919061497e565b506006820160009054906101000a900460ff168160060160006101000a81548160ff02191690831515021790555090505083600201828b82805461399190615b7d565b80601f01602080910402602001604051908101604052809291908181526020018280546139bd90615b7d565b8015613a0a5780601f106139df57610100808354040283529160200191613a0a565b820191906000526020600020905b8154815290600101906020018083116139ed57829003601f168201915b50505050509250965096509650505050509450945094915050565b600360009054906101000a900473ffffffffffffffffffffffffffffffffffffffff1673ffffffffffffffffffffffffffffffffffffffff163373ffffffffffffffffffffffffffffffffffffffff1614613ab5576040517f08c379a0000000000000000000000000000000000000000000000000000000008152600401613aac90615799565b60405180910390fd5b6000600b60008473ffffffffffffffffffffffffffffffffffffffff1673ffffffffffffffffffffffffffffffffffffffff1681526020019081526020016000206040518060a00160405290816000820154815260200160018201548152602001600282015481526020016003820154815260200160048201548152505090506001821415613b5957806000018051809190613b5090615be0565b81525050613be9565b6002821415613b7d57806020018051809190613b7490615be0565b81525050613be8565b6003821415613ba157806040018051809190613b9890615be0565b81525050613be7565b6004821415613bc557806060018051809190613bbc90615be0565b81525050613be6565b6005821415613be557806080018051809190613be090615be0565b815250505b5b5b5b5b80600b60008573ffffffffffffffffffffffffffffffffffffffff1673ffffffffffffffffffffffffffffffffffffffff16815260200190815260200160002060008201518160000155602082015181600101556040820151816002015560608201518160030155608082015181600401559050506000600460008573ffffffffffffffffffffffffffffffffffffffff1673ffffffffffffffffffffffffffffffffffffffff1681526020019081526020016000206040518060c0016040529081600082018054613cba90615b7d565b80601f0160208091040260200160405190810160405280929190818152602001828054613ce690615b7d565b8015613d335780601f10613d0857610100808354040283529160200191613d33565b820191906000526020600020905b815481529060010190602001808311613d1657829003601f168201915b50505050508152602001600182018054613d4c90615b7d565b80601f0160208091040260200160405190810160405280929190818152602001828054613d7890615b7d565b8015613dc55780601f10613d9a57610100808354040283529160200191613dc5565b820191906000526020600020905b815481529060010190602001808311613da857829003601f168201915b505050505081526020016002820160009054906101000a900473ffffffffffffffffffffffffffffffffffffffff1673ffffffffffffffffffffffffffffffffffffffff1673ffffffffffffffffffffffffffffffffffffffff1681526020016002820160149054906101000a900460ff166001811115613e6f577f4e487b7100000000000000000000000000000000000000000000000000000000600052602160045260246000fd5b6001811115613ea7577f4e487b7100000000000000000000000000000000000000000000000000000000600052602160045260246000fd5b8152602001600382015481526020016004820160009054906101000a900460ff161515151581525050905060008054906101000a900473ffffffffffffffffffffffffffffffffffffffff1673ffffffffffffffffffffffffffffffffffffffff166344a3878c836000015184602001518560400151866060015187608001516040518663ffffffff1660e01b8152600401613f4795949392919061586d565b60206040518083038186803b158015613f5f57600080fd5b505afa158015613f73573d6000803e3d6000fd5b505050506040513d601f19601f82011682018060405250810190613f979190615014565b81608001818152505080600460008673ffffffffffffffffffffffffffffffffffffffff1673ffffffffffffffffffffffffffffffffffffffff1681526020019081526020016000206000820151816000019080519060200190613ffc92919061480b565b50602082015181600101908051906020019061401992919061480b565b5060408201518160020160006101000a81548173ffffffffffffffffffffffffffffffffffffffff021916908373ffffffffffffffffffffffffffffffffffffffff16021790555060608201518160020160146101000a81548160ff021916908360018111156140b2577f4e487b7100000000000000000000000000000000000000000000000000000000600052602160045260246000fd5b02179055506080820151816003015560a08201518160040160006101000a81548160ff02191690831515021790555090505050505050565b606080600360009054906101000a900473ffffffffffffffffffffffffffffffffffffffff1673ffffffffffffffffffffffffffffffffffffffff163373ffffffffffffffffffffffffffffffffffffffff161461417d576040517f08c379a000000000000000000000000000000000000000000000000000000000815260040161417490615799565b60405180910390fd5b6000600560008873ffffffffffffffffffffffffffffffffffffffff1673ffffffffffffffffffffffffffffffffffffffff16815260200190815260200160002054905060008060009054906101000a900473ffffffffffffffffffffffffffffffffffffffff1673ffffffffffffffffffffffffffffffffffffffff1663f76f950e836040518263ffffffff1660e01b815260040161421d91906157f9565b60006040518083038186803b15801561423557600080fd5b505afa158015614249573d6000803e3d6000fd5b505050506040513d6000823e3d601f19601f820116820180604052508101906142729190614f67565b90506000600460008a73ffffffffffffffffffffffffffffffffffffffff1673ffffffffffffffffffffffffffffffffffffffff168152602001908152602001600020600101826040516020016142ca929190615453565b604051602081830303815290604052905082806142e690615be0565b935050600c60008154809291906142fc90615be0565b919050555082600560008b73ffffffffffffffffffffffffffffffffffffffff1673ffffffffffffffffffffffffffffffffffffffff16815260200190815260200160002081905550600160009054906101000a900473ffffffffffffffffffffffffffffffffffffffff1673ffffffffffffffffffffffffffffffffffffffff1663e1729ae282600860008c73ffffffffffffffffffffffffffffffffffffffff1673ffffffffffffffffffffffffffffffffffffffff1681526020019081526020016000206002018b8d8c8c6040518763ffffffff1660e01b81526004016143eb96959493929190615673565b600060405180830381600087803b15801561440557600080fd5b505af1158015614419573d6000803e3d6000fd5b505050506040513d6000823e3d601f19601f820116820180604052508101906144429190614fa8565b9450945050505094509492505050565b600080600860008473ffffffffffffffffffffffffffffffffffffffff1673ffffffffffffffffffffffffffffffffffffffff1681526020019081526020016000206040518060e00160405290816000820160009054906101000a900473ffffffffffffffffffffffffffffffffffffffff1673ffffffffffffffffffffffffffffffffffffffff1673ffffffffffffffffffffffffffffffffffffffff16815260200160018201805461450590615b7d565b80601f016020809104026020016040519081016040528092919081815260200182805461453190615b7d565b801561457e5780601f106145535761010080835404028352916020019161457e565b820191906000526020600020905b81548152906001019060200180831161456157829003601f168201915b5050505050815260200160028201805461459790615b7d565b80601f01602080910402602001604051908101604052809291908181526020018280546145c390615b7d565b80156146105780601f106145e557610100808354040283529160200191614610565b820191906000526020600020905b8154815290600101906020018083116145f357829003601f168201915b50505050508152602001600382015481526020016004820154815260200160058201805480602002602001604051908101604052809291908181526020016000905b828210156146fe57838290600052602060002001805461467190615b7d565b80601f016020809104026020016040519081016040528092919081815260200182805461469d90615b7d565b80156146ea5780601f106146bf576101008083540402835291602001916146ea565b820191906000526020600020905b8154815290600101906020018083116146cd57829003601f168201915b505050505081526020019060010190614652565b5050505081526020016006820160009054906101000a900460ff16151515158152505090508060c00151915050919050565b600080600090505b6006805490508160ff161015614800578273ffffffffffffffffffffffffffffffffffffffff1660068260ff168154811061479c577f4e487b7100000000000000000000000000000000000000000000000000000000600052603260045260246000fd5b9060005260206000200160009054906101000a900473ffffffffffffffffffffffffffffffffffffffff1673ffffffffffffffffffffffffffffffffffffffff1614156147ed576001915050614806565b80806147f890615c29565b915050614738565b50600090505b919050565b82805461481790615b7d565b90600052602060002090601f0160209004810192826148395760008555614880565b82601f1061485257805160ff1916838001178555614880565b82800160010185558215614880579182015b8281111561487f578251825591602001919060010190614864565b5b50905061488d91906149e6565b5090565b8280548282559060005260206000209081019282156148e0579160200282015b828111156148df5782518290805190602001906148cf92919061480b565b50916020019190600101906148b1565b5b5090506148ed9190614a03565b5090565b8280546148fd90615b7d565b90600052602060002090601f01602090048101928261491f576000855561496d565b82601f10614930578054855561496d565b8280016001018555821561496d57600052602060002091601f016020900482015b8281111561496c578254825591600101919060010190614951565b5b50905061497a91906149e6565b5090565b8280548282559060005260206000209081019282156149d55760005260206000209182015b828111156149d45782829080546149b990615b7d565b6149c49291906148f1565b50916001019190600101906149a3565b5b5090506149e29190614a03565b5090565b5b808211156149ff5760008160009055506001016149e7565b5090565b5b80821115614a235760008181614a1a9190614a27565b50600101614a04565b5090565b508054614a3390615b7d565b6000825580601f10614a455750614a64565b601f016020900490600052602060002090810190614a6391906149e6565b5b50565b6000614a7a614a7584615900565b6158db565b9050808382526020820190508260005b85811015614aba5781358501614aa08882614c15565b845260208401935060208301925050600181019050614a8a565b5050509392505050565b6000614ad7614ad28461592c565b6158db565b90508083825260208201905082856020860282011115614af657600080fd5b60005b85811015614b265781614b0c8882614c69565b845260208401935060208301925050600181019050614af9565b5050509392505050565b6000614b43614b3e84615958565b6158db565b905082815260208101848484011115614b5b57600080fd5b614b66848285615b3b565b509392505050565b6000614b81614b7c84615958565b6158db565b905082815260208101848484011115614b9957600080fd5b614ba4848285615b4a565b509392505050565b600081359050614bbb81615ea8565b92915050565b600082601f830112614bd257600080fd5b8135614be2848260208601614a67565b91505092915050565b600082601f830112614bfc57600080fd5b8135614c0c848260208601614ac4565b91505092915050565b600082601f830112614c2657600080fd5b8135614c36848260208601614b30565b91505092915050565b600082601f830112614c5057600080fd5b8151614c60848260208601614b6e565b91505092915050565b600081359050614c7881615ebf565b92915050565b600081519050614c8d81615ebf565b92915050565b600060208284031215614ca557600080fd5b6000614cb384828501614bac565b91505092915050565b60008060008060808587031215614cd257600080fd5b6000614ce087828801614bac565b9450506020614cf187828801614bac565b935050604085013567ffffffffffffffff811115614d0e57600080fd5b614d1a87828801614bc1565b9250506060614d2b87828801614c69565b91505092959194509250565b600080600060608486031215614d4c57600080fd5b6000614d5a86828701614bac565b9350506020614d6b86828701614bac565b925050604084013567ffffffffffffffff811115614d8857600080fd5b614d9486828701614beb565b9150509250925092565b600080600060608486031215614db357600080fd5b6000614dc186828701614bac565b935050602084013567ffffffffffffffff811115614dde57600080fd5b614dea86828701614c15565b925050604084013567ffffffffffffffff811115614e0757600080fd5b614e1386828701614c15565b9150509250925092565b60008060008060808587031215614e3357600080fd5b6000614e4187828801614bac565b945050602085013567ffffffffffffffff811115614e5e57600080fd5b614e6a87828801614c15565b935050604085013567ffffffffffffffff811115614e8757600080fd5b614e9387828801614c15565b9250506060614ea487828801614c69565b91505092959194509250565b60008060008060808587031215614ec657600080fd5b6000614ed487828801614bac565b945050602085013567ffffffffffffffff811115614ef157600080fd5b614efd87828801614c15565b9350506040614f0e87828801614c69565b9250506060614f1f87828801614c69565b91505092959194509250565b60008060408385031215614f3e57600080fd5b6000614f4c85828601614bac565b9250506020614f5d85828601614c69565b9150509250929050565b600060208284031215614f7957600080fd5b600082015167ffffffffffffffff811115614f9357600080fd5b614f9f84828501614c3f565b91505092915050565b60008060408385031215614fbb57600080fd5b600083015167ffffffffffffffff811115614fd557600080fd5b614fe185828601614c3f565b925050602083015167ffffffffffffffff811115614ffe57600080fd5b61500a85828601614c3f565b9150509250929050565b60006020828403121561502657600080fd5b600061503484828501614c7e565b91505092915050565b60006150498383615069565b60208301905092915050565b60006150618383615187565b905092915050565b61507281615a9e565b82525050565b61508181615a9e565b82525050565b6000615092826159be565b61509c81856159f9565b93506150a783615989565b8060005b838110156150d85781516150bf888261503d565b97506150ca836159df565b9250506001810190506150ab565b5085935050505092915050565b60006150f0826159c9565b6150fa8185615a0a565b93508360208202850161510c85615999565b8060005b8581101561514857848403895281516151298582615055565b9450615134836159ec565b925060208a01995050600181019050615110565b50829750879550505050505092915050565b61516381615ab0565b82525050565b61517281615af3565b82525050565b61518181615b17565b82525050565b6000615192826159d4565b61519c8185615a1b565b93506151ac818560208601615b4a565b6151b581615ce0565b840191505092915050565b60006151cb826159d4565b6151d58185615a2c565b93506151e5818560208601615b4a565b6151ee81615ce0565b840191505092915050565b6000615204826159d4565b61520e8185615a3d565b935061521e818560208601615b4a565b80840191505092915050565b6000815461523781615b7d565b6152418186615a2c565b9450600182166000811461525c576001811461526e576152a1565b60ff19831686526020860193506152a1565b615277856159a9565b60005b838110156152995781548189015260018201915060208101905061527a565b808801955050505b50505092915050565b600081546152b781615b7d565b6152c18186615a3d565b945060018216600081146152dc57600181146152ed57615320565b60ff19831686528186019350615320565b6152f6856159a9565b60005b83811015615318578154818901526001820191506020810190506152f9565b838801955050505b50505092915050565b6000615336601583615a2c565b915061534182615cf1565b602082019050919050565b6000615359601d83615a2c565b915061536482615d1a565b602082019050919050565b600061537c602783615a2c565b915061538782615d43565b604082019050919050565b600061539f603c83615a2c565b91506153aa82615d92565b604082019050919050565b60006153c2603883615a2c565b91506153cd82615de1565b604082019050919050565b60006153e5602183615a2c565b91506153f082615e30565b604082019050919050565b6000615408601783615a2c565b915061541382615e7f565b602082019050919050565b61542781615adc565b82525050565b61543681615ae6565b82525050565b600061544882846151f9565b915081905092915050565b600061545f82856152aa565b915061546b82846151f9565b91508190509392505050565b600060208201905061548c6000830184615078565b92915050565b60006020820190506154a7600083018461515a565b92915050565b60006020820190506154c26000830184615169565b92915050565b60006020820190506154dd6000830184615178565b92915050565b600060208201905081810360008301526154fd81846151c0565b905092915050565b6000608082019050818103600083015261551f81876151c0565b905061552e6020830186615078565b61553b604083018561541e565b615548606083018461541e565b95945050505050565b6000604082019050818103600083015261556b81856151c0565b9050818103602083015261557f81846151c0565b90509392505050565b600060608201905081810360008301526155a281866151c0565b905081810360208301526155b681856151c0565b905081810360408301526155ca81846151c0565b9050949350505050565b600060808201905081810360008301526155ee81876151c0565b9050818103602083015261560281866151c0565b9050818103604083015261561681856151c0565b9050615625606083018461541e565b95945050505050565b6000606082019050818103600083015261564881866151c0565b9050818103602083015261565c81856151c0565b905061566b604083018461541e565b949350505050565b600060c082019050818103600083015261568d81896151c0565b905081810360208301526156a1818861522a565b90506156b06040830187615078565b6156bd6060830186615078565b81810360808301526156cf81856150e5565b90506156de60a083018461541e565b979650505050505050565b6000604082019050818103600083015261570381856151c0565b9050615712602083018461541e565b9392505050565b6000602082019050818103600083015261573281615329565b9050919050565b600060208201905081810360008301526157528161534c565b9050919050565b600060208201905081810360008301526157728161536f565b9050919050565b6000602082019050818103600083015261579281615392565b9050919050565b600060208201905081810360008301526157b2816153b5565b9050919050565b600060208201905081810360008301526157d2816153d8565b9050919050565b600060208201905081810360008301526157f2816153fb565b9050919050565b600060208201905061580e600083018461541e565b92915050565b6000604082019050615829600083018561541e565b818103602083015261583b8184615087565b90509392505050565b6000604082019050615859600083018561541e565b615866602083018461541e565b9392505050565b600060a082019050615882600083018861541e565b61588f602083018761541e565b61589c604083018661541e565b6158a9606083018561541e565b6158b6608083018461541e565b9695505050505050565b60006020820190506158d5600083018461542d565b92915050565b60006158e56158f6565b90506158f18282615baf565b919050565b6000604051905090565b600067ffffffffffffffff82111561591b5761591a615cb1565b5b602082029050602081019050919050565b600067ffffffffffffffff82111561594757615946615cb1565b5b602082029050602081019050919050565b600067ffffffffffffffff82111561597357615972615cb1565b5b61597c82615ce0565b9050602081019050919050565b6000819050602082019050919050565b6000819050602082019050919050565b60008190508160005260206000209050919050565b600081519050919050565b600081519050919050565b600081519050919050565b6000602082019050919050565b6000602082019050919050565b600082825260208201905092915050565b600082825260208201905092915050565b600082825260208201905092915050565b600082825260208201905092915050565b600081905092915050565b6000615a5382615adc565b9150615a5e83615adc565b9250827fffffffffffffffffffffffffffffffffffffffffffffffffffffffffffffffff03821115615a9357615a92615c53565b5b828201905092915050565b6000615aa982615abc565b9050919050565b60008115159050919050565b600073ffffffffffffffffffffffffffffffffffffffff82169050919050565b6000819050919050565b600060ff82169050919050565b6000615afe82615b05565b9050919050565b6000615b1082615abc565b9050919050565b6000615b2282615b29565b9050919050565b6000615b3482615abc565b9050919050565b82818337600083830152505050565b60005b83811015615b68578082015181840152602081019050615b4d565b83811115615b77576000848401525b50505050565b60006002820490506001821680615b9557607f821691505b60208210811415615ba957615ba8615c82565b5b50919050565b615bb882615ce0565b810181811067ffffffffffffffff82111715615bd757615bd6615cb1565b5b80604052505050565b6000615beb82615adc565b91507fffffffffffffffffffffffffffffffffffffffffffffffffffffffffffffffff821415615c1e57615c1d615c53565b5b600182019050919050565b6000615c3482615ae6565b915060ff821415615c4857615c47615c53565b5b600182019050919050565b7f4e487b7100000000000000000000000000000000000000000000000000000000600052601160045260246000fd5b7f4e487b7100000000000000000000000000000000000000000000000000000000600052602260045260246000fd5b7f4e487b7100000000000000000000000000000000000000000000000000000000600052604160045260246000fd5b6000601f19601f8301169050919050565b7f557365722064617461206e6f7420666f756e6421200000000000000000000000600082015250565b7f52657374617572616e74206973206e6f7420726567697374657265642e000000600082015250565b7f55736572206d757374207265676973746572206265666f726520706c6163696e60008201527f67206f7264657200000000000000000000000000000000000000000000000000602082015250565b7f466f6f6469657a20526567697374726174696f6e202d20506172656e7420616c60008201527f7265616479207365742e2043616e6e6f74206265204368616e67656400000000602082015250565b7f466f6f6469657a20526567697374726174696f6e202d204f6e6c79204f776e6560008201527f722063616e2063616c6c20746869732066756e6374696f6e0000000000000000602082015250565b7f52657374617572616e7420697320616c7265616479207265676973746572656460008201527f2e00000000000000000000000000000000000000000000000000000000000000602082015250565b7f5573657220416c72656164792072656769737465726564000000000000000000600082015250565b615eb181615a9e565b8114615ebc57600080fd5b50565b615ec881615adc565b8114615ed357600080fd5b5056fe466f6f6469657a204f726465727320706172656e7420636f6e74726163742061646472657373207365742ea26469706673582212204fb57445a344126071dee3b0599503ce9ed7f9d3d3238c421be0ff93dfebe01964736f6c63430008030033",
  "immutableReferences": {},
  "source": "pragma solidity ^0.8.1;\n// pragma solidity 0.7.6;\n// \"SPDX-License-Identifier: UNLICENSED\"\n\nimport \"./helpers_interface.sol\";\nimport \"./orders_interface.sol\";\n\n\ncontract FoodiezRegistration {\n    \n    // FoodiezHelpers public _foodiezHelpers;\n    // FoodiezOrders public _foodiezOrders;\n    FoodiezHelpersInterface public _foodiezHelpers;\n    FoodiezOrdersInterface public _foodiezOrders;\n\n    address ownerAddress;\n\n    address public parentContractAddress;\n    bool isParentContractSet = false;\n    \n    constructor(FoodiezHelpersInterface _helperAddress, FoodiezOrdersInterface _orderAddress) {\n        ownerAddress = msg.sender;\n        _foodiezHelpers = _helperAddress;\n        _foodiezOrders = _orderAddress;\n        \n        _foodiezOrders.setRegisterContract(address(this));\n    }\n    \n    \n    /************User and mapping**********************/\n    enum UserType { Customer, Delivery } // 0 , 1\n    struct User {\n        string name;\n        string userId;\n        address userAddress;\n        UserType usrType;\n        uint256 rating;\n        bool isRegistered;\n    }\n     \n    // address to registered user mapping.\n    mapping(address => User) registeredUserMapping;\n    mapping(address => uint256) userOrderCount;\n    address[] RegisteredUserAddresses;\n    \n    /************Restaurant and mapping**********************/\n    struct Restaurant {\n        address restaurantAddress;\n        string name;\n        string rId;\n        uint noOfItems;\n        uint rating;\n        string[] itemNames;\n        bool isRegistered;\n    } \n    \n    enum MenuType { Appetizer, Main, Desert }\n    struct MenuItem{\n        uint itemNum;\n        string name;\n        MenuType itemType;\n        uint256 price;\n    }\n    \n    struct Rating{\n        uint oneStar;\n        uint twoStar;\n        uint threeStar;\n        uint fourStar;\n        uint fiveStar;\n    } \n    \n    address[] RestaurantCount;\n    \n    mapping(address => Restaurant) RestaurantMapping;\n    mapping(address => Rating) RestaurantRating;\n    mapping(string => MenuItem) RestaurantMenuItems; // restaurantIds to menu items\n    mapping(address => Rating) DriverRating;\n    \n    uint256 orderTotalCount = 0;\n     \n    uint NetworkServiceFee = 2;\n    uint DeliveryFlatFee = 2;\n    \n    /************Modifiers *************************************************/\n    modifier OnlyParent(){\n        require(msg.sender == parentContractAddress, \"Foodiez Registration - Only Owner can call this function\");\n        _; // this underscore is requierd otherwise compiler will break;\n    }\n\n    modifier OnlyOwner(){\n        require(msg.sender == ownerAddress, \"Foodiez Registration - Only Owner can call this function\");\n        _; // this underscore is requierd otherwise compiler will break;\n    }\n\n    modifier isDeliveryCheck(){\n        User memory u = registeredUserMapping[msg.sender];\n        require(uint(UserType(u.usrType))== 1, \"User is not a Delivery agent. Only Delivery agents can be assigned food order.\");\n        \n        _;\n    }\n    \n    /************Address setters for helper / order contracts *************************************************/\n    function setParentContract(address _address) public returns(string memory) {\n        require(isParentContractSet == false,\"Foodiez Registration - Parent already set. Cannot be Changed\");\n        parentContractAddress = _address;\n        isParentContractSet = true;\n        \n        return(\"Foodiez Orders parent contract address set.\");\n    }\n\n    /************User and Restaurant***********************************************/\n    \n    // User Registration\n    function userRegistration(address _address, string memory name, string memory userId, uint uType) public OnlyParent returns (bool) {\n         require(isUserRegistered(_address) == false, \"User Already registered\");\n        \n        // task: check is user is already registered, is yes then return message already registered\n        User memory u = User(name, userId, _address, UserType(uType), 0, true);\n        registeredUserMapping[_address] = u;\n        userOrderCount[_address] = 0;\n        RegisteredUserAddresses.push(_address);\n        \n        if(uType == 1){\n            // Create default ratings for delivery\n            Rating memory rating = Rating(0,0,0,0,0);\n            DriverRating[_address] = rating;\n        } \n        return true;\n     }\n    function getUserInfo(address _address) public OnlyParent view returns(string memory, string memory, string memory, uint256 ){\n        require(isUserRegistered(_address) == true, \"User data not found! \");\n        \n        User memory usr = registeredUserMapping[_address];\n         \n        return(usr.name, usr.userId, _foodiezHelpers.getUserTypeFriendly(uint8(usr.usrType)), usr.rating);\n         \n     }\n    \n    // Restaurant and Items Registration \n    \n    function createRestaurant(address _address, string memory _name, string memory _rId) public OnlyParent returns(bool) {\n        require(isRestaurantRegistered(_address) == false, \"Restaurant is already registered.\");\n        \n        // Create new Restaurant\n        string[] memory itemNames; // init for empty array;\n        Restaurant memory m = Restaurant(_address, _name, _rId, 0, 0, itemNames,true);\n        \n        RestaurantMapping[_address] = m;\n        RestaurantCount.push(_address);\n        \n        // Create default ratings for Restaurant\n        Rating memory rating = Rating(0,0,0,0,0);\n        RestaurantRating[_address] = rating;\n        \n        return true;\n    }\n\n    function addMenuItems(address _address, string memory _itemName, uint _type, uint _price) public OnlyParent returns (string memory, string memory, string memory) {\n        // only allowed by restaurants address that are already registered.\n        require(isRestaurantRegistered(_address) == true, \"Restaurant is not registered.\");\n        \n        Restaurant storage rest = RestaurantMapping[_address];\n        \n        // create unique id from itemName and num ( itemNumberCount)\n        string memory uni = _foodiezHelpers.uint2str(rest.noOfItems);\n        string memory uniqueId = string(abi.encodePacked(rest.rId, uni));\n        \n        MenuItem memory mItem = MenuItem(rest.noOfItems, _itemName, MenuType(_type), _price);\n        \n        RestaurantMenuItems[uniqueId] = mItem;\n        rest.itemNames.push(uniqueId);\n        rest.noOfItems++;\n        RestaurantMapping[_address] = rest;\n        \n        return (rest.rId, uniqueId, _itemName);\n    }\n    \n    function getRestaurantMenu(address _restaurantAddress, uint _itemNumber) public OnlyParent view returns(string memory, string memory, uint256){\n        require(isRestaurantRegistered(_restaurantAddress) == true, \"Restaurant is not registered.\");\n        \n        Restaurant memory rest = RestaurantMapping[_restaurantAddress];\n        \n        string[] memory menuItems = rest.itemNames;\n        \n        MenuItem memory item = RestaurantMenuItems[menuItems[_itemNumber]];\n        return(item.name,  _foodiezHelpers.getMenuTypeFriendly(uint8(item.itemType)) , item.price);\n        \n    }\n    \n    function getrestaurantInfo(address _restaurantAddress) public OnlyParent view returns(string memory, address, uint256, uint256){\n        require(isRestaurantRegistered(_restaurantAddress) == true, \"Restaurant is not registered.\");\n        \n        Restaurant memory rest = RestaurantMapping[_restaurantAddress];\n        return(rest.rId, rest.restaurantAddress, rest.noOfItems, rest.rating);\n    }\n\n    function getTotalRestaurants() public OnlyParent view returns (uint256, address[] memory restAddresses){\n        return (RestaurantCount.length, RestaurantCount);\n    }\n    \n    /*************Orders Functions********************************************************************/\n    function getOrderTotal(address _userAddress, address _address, uint[] memory _itemNum) public view OnlyParent returns(uint){\n        require(isUserRegistered(_userAddress) == true, \"User must register before placing order\");\n        uint totalPrice = 0;\n        // get restaurant\n        Restaurant memory rest = RestaurantMapping[_address];\n        \n        string[] memory menuItems = rest.itemNames;\n        for(uint i = 0;i < _itemNum.length; i++){\n            MenuItem memory m = RestaurantMenuItems[menuItems[_itemNum[i]]];\n            totalPrice += m.price;\n        }\n        \n        // calculate total bill\n        uint tempTotal = totalPrice;\n        totalPrice += _foodiezHelpers.calcServiceFee(tempTotal, NetworkServiceFee);\n        totalPrice += _foodiezHelpers.calcDriverFlatFee(tempTotal, DeliveryFlatFee);\n        \n        return (totalPrice);\n    }\n    \n    function createFoodOrder(address userAddress, address restaurantAddress, string[] memory itemName, uint totalPrice) public payable OnlyParent returns (string memory, string memory){\n        \n        /****** create unique userOrderId*****/\n        // get user data \n        // User memory _regUser = registeredUserMapping[userAddress];\n        \n        uint256 count =  userOrderCount[userAddress];\n        string memory orderNumString = _foodiezHelpers.uint2str(count);\n        string memory uniqueUserOrderId = string(abi.encodePacked( registeredUserMapping[userAddress].userId, orderNumString) );\n\n        count++;\n        orderTotalCount++;\n        userOrderCount[userAddress] = count;\n\n        return _foodiezOrders.createFoodOrderEntry(uniqueUserOrderId, RestaurantMapping[restaurantAddress].rId, restaurantAddress, userAddress, itemName, totalPrice);\n    }\n\n    function getUserOrders(address _userAddress) public view OnlyParent returns (uint256){\n        return userOrderCount[_userAddress];\n    }\n    \n    function addRestaurantRating(address _restaurantAddress, uint _restaurantRating) public OnlyParent {\n        Rating memory r = RestaurantRating[_restaurantAddress];\n        \n        if(_restaurantRating == 1){\n            r.oneStar++;\n        }else if(_restaurantRating == 2){\n            r.twoStar++;\n        }else if(_restaurantRating == 3){\n            r.threeStar++;\n        }else if(_restaurantRating == 4){\n            r.fourStar++;\n        }else if(_restaurantRating == 5){\n            r.fiveStar++;\n        }\n        \n        // calculate the weighted average\n        RestaurantRating[_restaurantAddress] = r;\n        \n        Restaurant memory res = RestaurantMapping[_restaurantAddress];\n        res.rating = _foodiezHelpers.calcWeightedAvg(r.oneStar, r.twoStar, r.threeStar, r.fourStar, r.fiveStar);\n        RestaurantMapping[_restaurantAddress] = res;\n    }\n    \n    function addDriverRating(address _address, uint _deliveryRating) public OnlyParent {\n        Rating memory r = DriverRating[_address];\n         \n        if(_deliveryRating == 1){\n            r.oneStar++;\n        }else if(_deliveryRating == 2){\n            r.twoStar++;\n        }else if(_deliveryRating == 3){\n            r.threeStar++;\n        }else if(_deliveryRating == 4){\n            r.fourStar++;\n        }else if(_deliveryRating == 5){\n            r.fiveStar++;\n        }\n\n        DriverRating[_address] = r;\n         \n        User memory usr = registeredUserMapping[_address];\n        usr.rating = _foodiezHelpers.calcWeightedAvg(r.oneStar, r.twoStar, r.threeStar, r.fourStar, r.fiveStar);\n        registeredUserMapping[_address] = usr;\n    }\n    \n    \n    /*************Registration Helpers********************************************************************/\n    function isUserRegistered( address _address) internal view returns (bool) {\n         \n        for( uint8 j = 0; j < RegisteredUserAddresses.length; j++){\n             \n            if(RegisteredUserAddresses[j] == _address){\n                return (true); // user is registered.\n            }\n        }\n        return (false); // user is not registered.\n    }\n    \n    function checkUserDelivery(address _address) public view returns (bool){\n        User memory u = registeredUserMapping[_address];\n        \n        if(uint(UserType(u.usrType))== 1) return true;\n        \n        return false;\n    }\n    \n    function isRestaurantRegistered ( address _address) internal view returns (bool) {\n        Restaurant memory m = RestaurantMapping[_address];\n        \n        return (m.isRegistered);\n    }\n    \n    // function getrestaurantInfo()\n    \n    function getItemInfo(address _restaurantAddress, uint _itemNumber) public view returns(string memory, uint){\n        require(isRestaurantRegistered(_restaurantAddress) == true, \"Restaurant is not registered.\");\n        \n        Restaurant memory rest = RestaurantMapping[_restaurantAddress];\n        \n        string[] memory menuItems = rest.itemNames;\n        \n        MenuItem memory item = RestaurantMenuItems[menuItems[_itemNumber]];\n        return(item.name, item.price);\n    }\n    \n    function getOrderCount() public view returns(uint){\n        return orderTotalCount;\n    }\n    \n    function checkIsStringEmpty(string memory stringToTest) internal pure returns (bool){\n        bytes memory checkString = bytes(stringToTest);\n        if(checkString.length == 0){\n            return true;\n        }else{\n            return false;\n        }\n    }\n}",
  "sourcePath": "/home/dinesh/Blockchain-Projects/EthereumSolidityProject/contracts/registration.sol",
  "compiler": {
    "name": "solc",
    "version": "0.8.3+commit.8d00100c.Emscripten.clang"
  },
  "schemaVersion": "3.3.3",
  "updatedAt": "2021-04-07T19:38:35.925Z",
  "networkType": "ethereum",
  "devdoc": {
    "kind": "dev",
    "methods": {},
    "version": 1
  },
  "userdoc": {
    "kind": "user",
    "methods": {},
    "version": 1
  }
}