{
  "contractName": "Foodiez",
  "abi": [
    {
      "inputs": [
        {
          "internalType": "contract FoodiezRegistrationInterface",
          "name": "_registerAddress",
          "type": "address"
        },
        {
          "internalType": "contract FoodiezHelpersInterface",
          "name": "_helperAddress",
          "type": "address"
        },
        {
          "internalType": "contract FoodiezOrdersInterface",
          "name": "_orderAddress",
          "type": "address"
        },
        {
          "internalType": "address",
          "name": "_token",
          "type": "address"
        }
      ],
      "stateMutability": "nonpayable",
      "type": "constructor"
    },
    {
      "anonymous": false,
      "inputs": [
        {
          "indexed": false,
          "internalType": "address",
          "name": "account",
          "type": "address"
        },
        {
          "indexed": false,
          "internalType": "uint256",
          "name": "allowance",
          "type": "uint256"
        }
      ],
      "name": "AccountApproved",
      "type": "event"
    },
    {
      "anonymous": false,
      "inputs": [
        {
          "indexed": false,
          "internalType": "address",
          "name": "account",
          "type": "address"
        },
        {
          "indexed": false,
          "internalType": "uint256",
          "name": "amount",
          "type": "uint256"
        }
      ],
      "name": "AmountTransferedToAccount",
      "type": "event"
    },
    {
      "anonymous": false,
      "inputs": [
        {
          "indexed": false,
          "internalType": "string",
          "name": "restaurantId",
          "type": "string"
        },
        {
          "indexed": false,
          "internalType": "string",
          "name": "itemId",
          "type": "string"
        },
        {
          "indexed": false,
          "internalType": "string",
          "name": "itemName",
          "type": "string"
        }
      ],
      "name": "ItemAddedEvent",
      "type": "event"
    },
    {
      "anonymous": false,
      "inputs": [
        {
          "indexed": false,
          "internalType": "string",
          "name": "orderId",
          "type": "string"
        },
        {
          "indexed": false,
          "internalType": "address",
          "name": "driverAddress",
          "type": "address"
        },
        {
          "indexed": false,
          "internalType": "string",
          "name": "orderStatus",
          "type": "string"
        }
      ],
      "name": "OrderAssignedToDriver",
      "type": "event"
    },
    {
      "anonymous": false,
      "inputs": [
        {
          "indexed": false,
          "internalType": "string",
          "name": "orderId",
          "type": "string"
        },
        {
          "indexed": false,
          "internalType": "address",
          "name": "driverAddress",
          "type": "address"
        },
        {
          "indexed": false,
          "internalType": "string",
          "name": "orderStatus",
          "type": "string"
        }
      ],
      "name": "OrderDeliveredToUser",
      "type": "event"
    },
    {
      "anonymous": false,
      "inputs": [
        {
          "indexed": false,
          "internalType": "string",
          "name": "orderId",
          "type": "string"
        },
        {
          "indexed": false,
          "internalType": "string",
          "name": "orderStatus",
          "type": "string"
        }
      ],
      "name": "OrderPlaced",
      "type": "event"
    },
    {
      "anonymous": false,
      "inputs": [
        {
          "indexed": false,
          "internalType": "string",
          "name": "restaurantName",
          "type": "string"
        },
        {
          "indexed": false,
          "internalType": "address",
          "name": "rAddress",
          "type": "address"
        },
        {
          "indexed": false,
          "internalType": "bool",
          "name": "isRegistered",
          "type": "bool"
        }
      ],
      "name": "RestaurantRegistered",
      "type": "event"
    },
    {
      "anonymous": false,
      "inputs": [
        {
          "indexed": false,
          "internalType": "address",
          "name": "sender",
          "type": "address"
        },
        {
          "indexed": false,
          "internalType": "address",
          "name": "recipient",
          "type": "address"
        },
        {
          "indexed": false,
          "internalType": "uint256",
          "name": "amount",
          "type": "uint256"
        }
      ],
      "name": "TransferedSenderToRecipient",
      "type": "event"
    },
    {
      "anonymous": false,
      "inputs": [
        {
          "indexed": false,
          "internalType": "string",
          "name": "name",
          "type": "string"
        },
        {
          "indexed": false,
          "internalType": "address",
          "name": "usrAddress",
          "type": "address"
        },
        {
          "indexed": false,
          "internalType": "string",
          "name": "usrType",
          "type": "string"
        },
        {
          "indexed": false,
          "internalType": "uint256",
          "name": "rating",
          "type": "uint256"
        }
      ],
      "name": "UserInfoEvent",
      "type": "event"
    },
    {
      "anonymous": false,
      "inputs": [
        {
          "indexed": false,
          "internalType": "string",
          "name": "userName",
          "type": "string"
        },
        {
          "indexed": false,
          "internalType": "bool",
          "name": "isRegistered",
          "type": "bool"
        }
      ],
      "name": "UserRegisteredEvent",
      "type": "event"
    },
    {
      "anonymous": false,
      "inputs": [
        {
          "indexed": false,
          "internalType": "uint256",
          "name": "restaurantTotal",
          "type": "uint256"
        },
        {
          "indexed": false,
          "internalType": "uint256",
          "name": "deliveryTotal",
          "type": "uint256"
        }
      ],
      "name": "orderDeliveryConfirmedEvent",
      "type": "event"
    },
    {
      "inputs": [],
      "name": "_foodiezHelpers",
      "outputs": [
        {
          "internalType": "contract FoodiezHelpersInterface",
          "name": "",
          "type": "address"
        }
      ],
      "stateMutability": "view",
      "type": "function",
      "constant": true
    },
    {
      "inputs": [],
      "name": "_foodiezOrders",
      "outputs": [
        {
          "internalType": "contract FoodiezOrdersInterface",
          "name": "",
          "type": "address"
        }
      ],
      "stateMutability": "view",
      "type": "function",
      "constant": true
    },
    {
      "inputs": [],
      "name": "_foodiezRegistration",
      "outputs": [
        {
          "internalType": "contract FoodiezRegistrationInterface",
          "name": "",
          "type": "address"
        }
      ],
      "stateMutability": "view",
      "type": "function",
      "constant": true
    },
    {
      "inputs": [
        {
          "internalType": "address",
          "name": "_address",
          "type": "address"
        },
        {
          "internalType": "uint256",
          "name": "amount",
          "type": "uint256"
        }
      ],
      "name": "tokenApproveAccount",
      "outputs": [
        {
          "internalType": "bool",
          "name": "",
          "type": "bool"
        }
      ],
      "stateMutability": "payable",
      "type": "function",
      "payable": true
    },
    {
      "inputs": [
        {
          "internalType": "address",
          "name": "own",
          "type": "address"
        },
        {
          "internalType": "address",
          "name": "spender",
          "type": "address"
        }
      ],
      "name": "allowance",
      "outputs": [
        {
          "internalType": "uint256",
          "name": "",
          "type": "uint256"
        }
      ],
      "stateMutability": "view",
      "type": "function",
      "constant": true
    },
    {
      "inputs": [
        {
          "internalType": "address",
          "name": "_address",
          "type": "address"
        }
      ],
      "name": "getTokenBalanceOf",
      "outputs": [
        {
          "internalType": "uint256",
          "name": "",
          "type": "uint256"
        }
      ],
      "stateMutability": "view",
      "type": "function",
      "constant": true
    },
    {
      "inputs": [
        {
          "internalType": "address",
          "name": "recipient",
          "type": "address"
        },
        {
          "internalType": "uint256",
          "name": "amount",
          "type": "uint256"
        }
      ],
      "name": "tokenTransfer",
      "outputs": [],
      "stateMutability": "payable",
      "type": "function",
      "payable": true
    },
    {
      "inputs": [
        {
          "internalType": "address",
          "name": "sender",
          "type": "address"
        },
        {
          "internalType": "address",
          "name": "recipient",
          "type": "address"
        },
        {
          "internalType": "uint256",
          "name": "amount",
          "type": "uint256"
        }
      ],
      "name": "tokenTransferFrom",
      "outputs": [],
      "stateMutability": "payable",
      "type": "function",
      "payable": true
    },
    {
      "inputs": [
        {
          "internalType": "string",
          "name": "name",
          "type": "string"
        },
        {
          "internalType": "string",
          "name": "userId",
          "type": "string"
        },
        {
          "internalType": "uint256",
          "name": "uType",
          "type": "uint256"
        },
        {
          "internalType": "uint256",
          "name": "amountStake",
          "type": "uint256"
        }
      ],
      "name": "userRegister",
      "outputs": [
        {
          "internalType": "bool",
          "name": "isSuccess",
          "type": "bool"
        }
      ],
      "stateMutability": "payable",
      "type": "function",
      "payable": true
    },
    {
      "inputs": [
        {
          "internalType": "address",
          "name": "_address",
          "type": "address"
        }
      ],
      "name": "getUserInfo",
      "outputs": [
        {
          "internalType": "string",
          "name": "usrName",
          "type": "string"
        },
        {
          "internalType": "string",
          "name": "usrId",
          "type": "string"
        },
        {
          "internalType": "string",
          "name": "usrType",
          "type": "string"
        },
        {
          "internalType": "uint256",
          "name": "rating",
          "type": "uint256"
        }
      ],
      "stateMutability": "view",
      "type": "function",
      "constant": true
    },
    {
      "inputs": [
        {
          "internalType": "string",
          "name": "_name",
          "type": "string"
        },
        {
          "internalType": "string",
          "name": "_rId",
          "type": "string"
        },
        {
          "internalType": "uint256",
          "name": "amountStake",
          "type": "uint256"
        }
      ],
      "name": "registerRestaurant",
      "outputs": [],
      "stateMutability": "payable",
      "type": "function",
      "payable": true
    },
    {
      "inputs": [
        {
          "internalType": "string",
          "name": "_itemName",
          "type": "string"
        },
        {
          "internalType": "uint256",
          "name": "_type",
          "type": "uint256"
        },
        {
          "internalType": "uint256",
          "name": "_price",
          "type": "uint256"
        }
      ],
      "name": "addMenuItems",
      "outputs": [],
      "stateMutability": "nonpayable",
      "type": "function"
    },
    {
      "inputs": [
        {
          "internalType": "address",
          "name": "_restaurantAddress",
          "type": "address"
        },
        {
          "internalType": "uint256",
          "name": "_itemNumber",
          "type": "uint256"
        }
      ],
      "name": "getRestaurantMenu",
      "outputs": [
        {
          "internalType": "string",
          "name": "itemName",
          "type": "string"
        },
        {
          "internalType": "string",
          "name": "itemType",
          "type": "string"
        },
        {
          "internalType": "uint256",
          "name": "itemPrice",
          "type": "uint256"
        }
      ],
      "stateMutability": "view",
      "type": "function",
      "constant": true
    },
    {
      "inputs": [
        {
          "internalType": "address",
          "name": "_restaurantAddress",
          "type": "address"
        }
      ],
      "name": "getrestaurantInfo",
      "outputs": [
        {
          "internalType": "string",
          "name": "rId",
          "type": "string"
        },
        {
          "internalType": "address",
          "name": "rAddress",
          "type": "address"
        },
        {
          "internalType": "uint256",
          "name": "rItems",
          "type": "uint256"
        },
        {
          "internalType": "uint256",
          "name": "rating",
          "type": "uint256"
        }
      ],
      "stateMutability": "view",
      "type": "function",
      "constant": true
    },
    {
      "inputs": [],
      "name": "getAllRestaurants",
      "outputs": [
        {
          "internalType": "uint256",
          "name": "count",
          "type": "uint256"
        },
        {
          "internalType": "address[]",
          "name": "restAddresses",
          "type": "address[]"
        }
      ],
      "stateMutability": "view",
      "type": "function",
      "constant": true
    },
    {
      "inputs": [
        {
          "internalType": "address",
          "name": "_restaurantAddress",
          "type": "address"
        },
        {
          "internalType": "uint256[]",
          "name": "_itemNum",
          "type": "uint256[]"
        }
      ],
      "name": "orderTotal",
      "outputs": [
        {
          "internalType": "uint256",
          "name": "totalPrice",
          "type": "uint256"
        }
      ],
      "stateMutability": "view",
      "type": "function",
      "constant": true
    },
    {
      "inputs": [
        {
          "internalType": "address",
          "name": "_restaurantAddress",
          "type": "address"
        },
        {
          "internalType": "string[]",
          "name": "itemNames",
          "type": "string[]"
        },
        {
          "internalType": "uint256",
          "name": "totalPrice",
          "type": "uint256"
        },
        {
          "internalType": "uint256",
          "name": "tokenPay",
          "type": "uint256"
        }
      ],
      "name": "placeOrder",
      "outputs": [
        {
          "internalType": "string",
          "name": "uOrderId",
          "type": "string"
        },
        {
          "internalType": "string",
          "name": "orderStatus",
          "type": "string"
        }
      ],
      "stateMutability": "payable",
      "type": "function",
      "payable": true
    },
    {
      "inputs": [],
      "name": "getUserOrders",
      "outputs": [
        {
          "internalType": "uint256",
          "name": "",
          "type": "uint256"
        }
      ],
      "stateMutability": "view",
      "type": "function",
      "constant": true
    },
    {
      "inputs": [
        {
          "internalType": "string",
          "name": "userOrderId",
          "type": "string"
        }
      ],
      "name": "getOrderStatus",
      "outputs": [
        {
          "internalType": "string",
          "name": "orderId",
          "type": "string"
        },
        {
          "internalType": "address",
          "name": "userAddress",
          "type": "address"
        },
        {
          "internalType": "address",
          "name": "driverAddress",
          "type": "address"
        },
        {
          "internalType": "string[]",
          "name": "items",
          "type": "string[]"
        },
        {
          "internalType": "uint256",
          "name": "total",
          "type": "uint256"
        },
        {
          "internalType": "string",
          "name": "status",
          "type": "string"
        }
      ],
      "stateMutability": "view",
      "type": "function",
      "constant": true
    },
    {
      "inputs": [
        {
          "internalType": "string",
          "name": "userOrderId",
          "type": "string"
        }
      ],
      "name": "assignToDriver",
      "outputs": [],
      "stateMutability": "nonpayable",
      "type": "function"
    },
    {
      "inputs": [
        {
          "internalType": "string",
          "name": "userOrderId",
          "type": "string"
        }
      ],
      "name": "driverDelieveredOrder",
      "outputs": [],
      "stateMutability": "nonpayable",
      "type": "function"
    },
    {
      "inputs": [
        {
          "internalType": "string",
          "name": "userOrderId",
          "type": "string"
        },
        {
          "internalType": "uint256",
          "name": "_restaurantRating",
          "type": "uint256"
        },
        {
          "internalType": "uint256",
          "name": "_deliveryRating",
          "type": "uint256"
        },
        {
          "internalType": "uint256",
          "name": "tokenTip",
          "type": "uint256"
        }
      ],
      "name": "orderDeliveryConfirmed",
      "outputs": [],
      "stateMutability": "payable",
      "type": "function",
      "payable": true
    }
  ],
  "bytecode": "0x6080604052600260045560026005553480156200001b57600080fd5b506040516200453438038062004534833981810160405281019062000041919062000410565b336000806101000a81548173ffffffffffffffffffffffffffffffffffffffff021916908373ffffffffffffffffffffffffffffffffffffffff16021790555082600260006101000a81548173ffffffffffffffffffffffffffffffffffffffff021916908373ffffffffffffffffffffffffffffffffffffffff16021790555083600160006101000a81548173ffffffffffffffffffffffffffffffffffffffff021916908373ffffffffffffffffffffffffffffffffffffffff16021790555081600360006101000a81548173ffffffffffffffffffffffffffffffffffffffff021916908373ffffffffffffffffffffffffffffffffffffffff160217905550600160009054906101000a900473ffffffffffffffffffffffffffffffffffffffff1673ffffffffffffffffffffffffffffffffffffffff1663765ccb6b306040518263ffffffff1660e01b8152600401620001a19190620004d2565b600060405180830381600087803b158015620001bc57600080fd5b505af1158015620001d1573d6000803e3d6000fd5b505050506040513d6000823e3d601f19601f82011682018060405250810190620001fc91906200047c565b50600360009054906101000a900473ffffffffffffffffffffffffffffffffffffffff1673ffffffffffffffffffffffffffffffffffffffff1663765ccb6b306040518263ffffffff1660e01b81526004016200025a9190620004d2565b600060405180830381600087803b1580156200027557600080fd5b505af11580156200028a573d6000803e3d6000fd5b505050506040513d6000823e3d601f19601f82011682018060405250810190620002b591906200047c565b5033600760006101000a81548173ffffffffffffffffffffffffffffffffffffffff021916908373ffffffffffffffffffffffffffffffffffffffff16021790555080600660006101000a81548173ffffffffffffffffffffffffffffffffffffffff021916908373ffffffffffffffffffffffffffffffffffffffff16021790555050505050620006d2565b600062000359620003538462000518565b620004ef565b9050828152602081018484840111156200037257600080fd5b6200037f848285620005be565b509392505050565b60008151905062000398816200066a565b92915050565b600081519050620003af8162000684565b92915050565b600081519050620003c6816200069e565b92915050565b600081519050620003dd81620006b8565b92915050565b600082601f830112620003f557600080fd5b81516200040784826020860162000342565b91505092915050565b600080600080608085870312156200042757600080fd5b60006200043787828801620003cc565b94505060206200044a878288016200039e565b93505060406200045d87828801620003b5565b9250506060620004708782880162000387565b91505092959194509250565b6000602082840312156200048f57600080fd5b600082015167ffffffffffffffff811115620004aa57600080fd5b620004b884828501620003e3565b91505092915050565b620004cc816200054e565b82525050565b6000602082019050620004e96000830184620004c1565b92915050565b6000620004fb6200050e565b9050620005098282620005f4565b919050565b6000604051905090565b600067ffffffffffffffff8211156200053657620005356200062a565b5b620005418262000659565b9050602081019050919050565b60006200055b826200059e565b9050919050565b60006200056f826200054e565b9050919050565b600062000583826200054e565b9050919050565b600062000597826200054e565b9050919050565b600073ffffffffffffffffffffffffffffffffffffffff82169050919050565b60005b83811015620005de578082015181840152602081019050620005c1565b83811115620005ee576000848401525b50505050565b620005ff8262000659565b810181811067ffffffffffffffff821117156200062157620006206200062a565b5b80604052505050565b7f4e487b7100000000000000000000000000000000000000000000000000000000600052604160045260246000fd5b6000601f19601f8301169050919050565b62000675816200054e565b81146200068157600080fd5b50565b6200068f8162000562565b81146200069b57600080fd5b50565b620006a98162000576565b8114620006b557600080fd5b50565b620006c3816200058a565b8114620006cf57600080fd5b50565b613e5280620006e26000396000f3fe6080604052600436106101355760003560e01c8063961974ba116100ab578063dd62ed3e1161006f578063dd62ed3e1461042c578063e1eb4abc14610469578063e523d13214610494578063e77c719e146104bd578063e79034a8146104ed578063ed0c07681461051657610135565b8063961974ba14610341578063aedfb5d31461035d578063b8c00b1e1461039f578063c6f4dc37146103d0578063d8c01ed1146103ec57610135565b8063623bb431116100fd578063623bb431146102375780636386c1c71461025357806366a257c41461029357806368cdafe6146102bc57806383894548146102d8578063877344001461031557610135565b80631c7e3b051461013a5780631e4b919b146101775780632d9ee1d1146101a2578063331723eb146101cd578063617aada91461020c575b600080fd5b34801561014657600080fd5b50610161600480360381019061015c9190612631565b610546565b60405161016e9190613734565b60405180910390f35b34801561018357600080fd5b5061018c6105ff565b6040516101999190613734565b60405180910390f35b3480156101ae57600080fd5b506101b76106b6565b6040516101c49190613335565b60405180910390f35b3480156101d957600080fd5b506101f460048036038101906101ef91906126d9565b6106dc565b604051610203939291906135df565b60405180910390f35b34801561021857600080fd5b506102216107a0565b60405161022e919061331a565b60405180910390f35b610251600480360381019061024c9190612c71565b6107c6565b005b34801561025f57600080fd5b5061027a6004803603810190610275919061249f565b610f71565b60405161028a9493929190613585565b60405180910390f35b34801561029f57600080fd5b506102ba60048036038101906102b59190612c0a565b611037565b005b6102d660048036038101906102d191906126d9565b61113d565b005b3480156102e457600080fd5b506102ff60048036038101906102fa919061249f565b611235565b60405161030c9190613734565b60405180910390f35b34801561032157600080fd5b5061032a6112e9565b60405161033892919061374f565b60405180910390f35b61035b60048036038101906103569190612567565b61139a565b005b34801561036957600080fd5b50610384600480360381019061037f919061273e565b611497565b6040516103969695949392919061338d565b60405180910390f35b6103b960048036038101906103b491906125b6565b611567565b6040516103c7929190613502565b60405180910390f35b6103ea60048036038101906103e59190612a79565b611762565b005b3480156103f857600080fd5b50610413600480360381019061040e919061249f565b6118c9565b6040516104239493929190613486565b60405180910390f35b34801561043857600080fd5b50610453600480360381019061044e91906124c8565b61198f565b6040516104609190613734565b60405180910390f35b34801561047557600080fd5b5061047e611a46565b60405161048b9190613350565b60405180910390f35b3480156104a057600080fd5b506104bb60048036038101906104b6919061273e565b611a6c565b005b6104d760048036038101906104d291906126d9565b611c58565b6040516104e491906132ff565b60405180910390f35b3480156104f957600080fd5b50610514600480360381019061050f919061273e565b611d56565b005b610530600480360381019061052b9190612b77565b611f42565b60405161053d91906132ff565b60405180910390f35b6000600160009054906101000a900473ffffffffffffffffffffffffffffffffffffffff1673ffffffffffffffffffffffffffffffffffffffff166340ecc0573385856040518463ffffffff1660e01b81526004016105a79392919061314d565b60206040518083038186803b1580156105bf57600080fd5b505afa1580156105d3573d6000803e3d6000fd5b505050506040513d601f19601f820116820180604052508101906105f79190612cec565b905092915050565b600080600160009054906101000a900473ffffffffffffffffffffffffffffffffffffffff1673ffffffffffffffffffffffffffffffffffffffff166363c69f08336040518263ffffffff1660e01b815260040161065d91906130bd565b60206040518083038186803b15801561067557600080fd5b505afa158015610689573d6000803e3d6000fd5b505050506040513d601f19601f820116820180604052508101906106ad9190612cec565b90508091505090565b600360009054906101000a900473ffffffffffffffffffffffffffffffffffffffff1681565b6060806000600160009054906101000a900473ffffffffffffffffffffffffffffffffffffffff1673ffffffffffffffffffffffffffffffffffffffff1663331723eb86866040518363ffffffff1660e01b815260040161073e9291906132d6565b60006040518083038186803b15801561075657600080fd5b505afa15801561076a573d6000803e3d6000fd5b505050506040513d6000823e3d601f19601f820116820180604052508101906107939190612af8565b9250925092509250925092565b600260009054906101000a900473ffffffffffffffffffffffffffffffffffffffff1681565b60001515600160009054906101000a900473ffffffffffffffffffffffffffffffffffffffff1673ffffffffffffffffffffffffffffffffffffffff16635f9d8de6336040518263ffffffff1660e01b815260040161082591906130bd565b60206040518083038186803b15801561083d57600080fd5b505afa158015610851573d6000803e3d6000fd5b505050506040513d601f19601f820116820180604052508101906108759190612715565b1515146108b7576040517f08c379a00000000000000000000000000000000000000000000000000000000081526004016108ae90613714565b60405180910390fd5b600080600080600360009054906101000a900473ffffffffffffffffffffffffffffffffffffffff1673ffffffffffffffffffffffffffffffffffffffff1663b1a68ff2896040518263ffffffff1660e01b8152600401610918919061336b565b608060405180830381600087803b15801561093257600080fd5b505af1158015610946573d6000803e3d6000fd5b505050506040513d601f19601f8201168201806040525081019061096a9190612504565b9350935093509350600160009054906101000a900473ffffffffffffffffffffffffffffffffffffffff1673ffffffffffffffffffffffffffffffffffffffff16638ab7ad7785896040518363ffffffff1660e01b81526004016109cf9291906132d6565b600060405180830381600087803b1580156109e957600080fd5b505af11580156109fd573d6000803e3d6000fd5b50505050600160009054906101000a900473ffffffffffffffffffffffffffffffffffffffff1673ffffffffffffffffffffffffffffffffffffffff1663dfe7669d84886040518363ffffffff1660e01b8152600401610a5e9291906132d6565b600060405180830381600087803b158015610a7857600080fd5b505af1158015610a8c573d6000803e3d6000fd5b5050505084610a9a33611235565b1015610adb576040517f08c379a0000000000000000000000000000000000000000000000000000000008152600401610ad2906136f4565b60405180910390fd5b6000600360009054906101000a900473ffffffffffffffffffffffffffffffffffffffff1673ffffffffffffffffffffffffffffffffffffffff1663d182dbcd8a6040518263ffffffff1660e01b8152600401610b38919061336b565b60206040518083038186803b158015610b5057600080fd5b505afa158015610b64573d6000803e3d6000fd5b505050506040513d601f19601f82011682018060405250810190610b889190612cec565b905060008290506000600260009054906101000a900473ffffffffffffffffffffffffffffffffffffffff1673ffffffffffffffffffffffffffffffffffffffff166365609516856004546040518363ffffffff1660e01b8152600401610bf092919061377f565b60206040518083038186803b158015610c0857600080fd5b505afa158015610c1c573d6000803e3d6000fd5b505050506040513d601f19601f82011682018060405250810190610c409190612cec565b90508082610c4e9190613a0a565b91506000600260009054906101000a900473ffffffffffffffffffffffffffffffffffffffff1673ffffffffffffffffffffffffffffffffffffffff1663221c9cfe866005546040518363ffffffff1660e01b8152600401610cb192919061377f565b60206040518083038186803b158015610cc957600080fd5b505afa158015610cdd573d6000803e3d6000fd5b505050506040513d601f19601f82011682018060405250810190610d019190612cec565b90508083610d0f9190613a0a565b92503481610d1d919061395a565b90508673ffffffffffffffffffffffffffffffffffffffff166108fc829081150290604051600060405180830381858888f19350505050158015610d65573d6000803e3d6000fd5b506000891115610e2257600660009054906101000a900473ffffffffffffffffffffffffffffffffffffffff1673ffffffffffffffffffffffffffffffffffffffff166323b872dd87898c6040518463ffffffff1660e01b8152600401610dce9392919061318b565b602060405180830381600087803b158015610de857600080fd5b505af1158015610dfc573d6000803e3d6000fd5b505050506040513d601f19601f82011682018060405250810190610e209190612715565b505b6000841115610ee257600660009054906101000a900473ffffffffffffffffffffffffffffffffffffffff1673ffffffffffffffffffffffffffffffffffffffff166323b872dd878a876040518463ffffffff1660e01b8152600401610e8a9392919061318b565b602060405180830381600087803b158015610ea457600080fd5b505af1158015610eb8573d6000803e3d6000fd5b505050506040513d601f19601f82011682018060405250810190610edc9190612715565b50610f2a565b8773ffffffffffffffffffffffffffffffffffffffff166108fc849081150290604051600060405180830381858888f19350505050158015610f28573d6000803e3d6000fd5b505b7f292961d24e58ea05a8b5bca78932ec898d03d1646fb56c0f81495770e5872d098382604051610f5b92919061377f565b60405180910390a1505050505050505050505050565b60608060606000600160009054906101000a900473ffffffffffffffffffffffffffffffffffffffff1673ffffffffffffffffffffffffffffffffffffffff16636386c1c7866040518263ffffffff1660e01b8152600401610fd391906130bd565b60006040518083038186803b158015610feb57600080fd5b505afa158015610fff573d6000803e3d6000fd5b505050506040513d6000823e3d601f19601f8201168201806040525081019061102891906129ce565b93509350935093509193509193565b6000806000600160009054906101000a900473ffffffffffffffffffffffffffffffffffffffff1673ffffffffffffffffffffffffffffffffffffffff1663debd2ec4338888886040518563ffffffff1660e01b815260040161109d949392919061328a565b600060405180830381600087803b1580156110b757600080fd5b505af11580156110cb573d6000803e3d6000fd5b505050506040513d6000823e3d601f19601f820116820180604052508101906110f49190612937565b9250925092507fe591a00874db47ebb9c845e5d6550ba44f9b94231216d912524a6b01cf64c36283838360405161112d93929190613539565b60405180910390a1505050505050565b6000600660009054906101000a900473ffffffffffffffffffffffffffffffffffffffff1673ffffffffffffffffffffffffffffffffffffffff1663a9059cbb84846040518363ffffffff1660e01b815260040161119c9291906132d6565b602060405180830381600087803b1580156111b657600080fd5b505af11580156111ca573d6000803e3d6000fd5b505050506040513d601f19601f820116820180604052508101906111ee9190612715565b90508015611230577fbdbbb9910baae524fdb61a2b98c4264b1b7c7dd08291b66731a279ab74fa778f83836040516112279291906132d6565b60405180910390a15b505050565b6000600660009054906101000a900473ffffffffffffffffffffffffffffffffffffffff1673ffffffffffffffffffffffffffffffffffffffff166370a08231836040518263ffffffff1660e01b815260040161129291906130bd565b60206040518083038186803b1580156112aa57600080fd5b505afa1580156112be573d6000803e3d6000fd5b505050506040513d601f19601f820116820180604052508101906112e29190612cec565b9050919050565b60006060600160009054906101000a900473ffffffffffffffffffffffffffffffffffffffff1673ffffffffffffffffffffffffffffffffffffffff1663707715046040518163ffffffff1660e01b815260040160006040518083038186803b15801561135557600080fd5b505afa158015611369573d6000803e3d6000fd5b505050506040513d6000823e3d601f19601f820116820180604052508101906113929190612d15565b915091509091565b6000600660009054906101000a900473ffffffffffffffffffffffffffffffffffffffff1673ffffffffffffffffffffffffffffffffffffffff166323b872dd8585856040518463ffffffff1660e01b81526004016113fb9392919061318b565b602060405180830381600087803b15801561141557600080fd5b505af1158015611429573d6000803e3d6000fd5b505050506040513d601f19601f8201168201806040525081019061144d9190612715565b90508015611491577f3ae895b079028f50d70d4fdc12d6bbad245651b4fbe50d7a931752330a025dec8484846040516114889392919061318b565b60405180910390a15b50505050565b6060600080606060006060600360009054906101000a900473ffffffffffffffffffffffffffffffffffffffff1673ffffffffffffffffffffffffffffffffffffffff16637ab8ae16886040518263ffffffff1660e01b81526004016114fd919061336b565b60006040518083038186803b15801561151557600080fd5b505afa158015611529573d6000803e3d6000fd5b505050506040513d6000823e3d601f19601f82011682018060405250810190611552919061277f565b95509550955095509550955091939550919395565b606080833410158061158157508361157e8461210f565b10155b6115c0576040517f08c379a00000000000000000000000000000000000000000000000000000000081526004016115b790613694565b60405180910390fd5b600080600160009054906101000a900473ffffffffffffffffffffffffffffffffffffffff1673ffffffffffffffffffffffffffffffffffffffff1663e6612812338a8a8a6040518563ffffffff1660e01b81526004016116249493929190613101565b600060405180830381600087803b15801561163e57600080fd5b505af1158015611652573d6000803e3d6000fd5b505050506040513d6000823e3d601f19601f8201168201806040525081019061167b91906128cb565b91509150600085111561171857600360009054906101000a900473ffffffffffffffffffffffffffffffffffffffff1673ffffffffffffffffffffffffffffffffffffffff16639b4708d183876040518363ffffffff1660e01b81526004016116e5929190613624565b600060405180830381600087803b1580156116ff57600080fd5b505af1158015611713573d6000803e3d6000fd5b505050505b7f2bc0c755dcb34ed5aadb1531e628205826424d623bb3759337b05818af7f4a4b8282604051611749929190613502565b60405180910390a1818193509350505094509492505050565b6000600160009054906101000a900473ffffffffffffffffffffffffffffffffffffffff1673ffffffffffffffffffffffffffffffffffffffff1663096309233386866040518463ffffffff1660e01b81526004016117c3939291906131f2565b602060405180830381600087803b1580156117dd57600080fd5b505af11580156117f1573d6000803e3d6000fd5b505050506040513d601f19601f820116820180604052508101906118159190612715565b90507f1fec3d043cdeae56abac63b9485c8e810e01d8caf5281e06e2a78cbb82b9f56284338360405161184a93929190613403565b60405180910390a16000341015611896576040517f08c379a000000000000000000000000000000000000000000000000000000000815260040161188d90613674565b60405180910390fd5b6118c3600760009054906101000a900473ffffffffffffffffffffffffffffffffffffffff16338461139a565b50505050565b60606000806000600160009054906101000a900473ffffffffffffffffffffffffffffffffffffffff1673ffffffffffffffffffffffffffffffffffffffff1663d8c01ed1866040518263ffffffff1660e01b815260040161192b91906130bd565b60006040518083038186803b15801561194357600080fd5b505afa158015611957573d6000803e3d6000fd5b505050506040513d6000823e3d601f19601f820116820180604052508101906119809190612850565b93509350935093509193509193565b6000600660009054906101000a900473ffffffffffffffffffffffffffffffffffffffff1673ffffffffffffffffffffffffffffffffffffffff1663dd62ed3e84846040518363ffffffff1660e01b81526004016119ee9291906130d8565b60206040518083038186803b158015611a0657600080fd5b505afa158015611a1a573d6000803e3d6000fd5b505050506040513d601f19601f82011682018060405250810190611a3e9190612cec565b905092915050565b600160009054906101000a900473ffffffffffffffffffffffffffffffffffffffff1681565b60011515600160009054906101000a900473ffffffffffffffffffffffffffffffffffffffff1673ffffffffffffffffffffffffffffffffffffffff16635f9d8de6336040518263ffffffff1660e01b8152600401611acb91906130bd565b60206040518083038186803b158015611ae357600080fd5b505afa158015611af7573d6000803e3d6000fd5b505050506040513d601f19601f82011682018060405250810190611b1b9190612715565b151514611b5d576040517f08c379a0000000000000000000000000000000000000000000000000000000008152600401611b5490613654565b60405180910390fd5b600080600360009054906101000a900473ffffffffffffffffffffffffffffffffffffffff1673ffffffffffffffffffffffffffffffffffffffff166357c8666933856040518363ffffffff1660e01b8152600401611bbd9291906131c2565b600060405180830381600087803b158015611bd757600080fd5b505af1158015611beb573d6000803e3d6000fd5b505050506040513d6000823e3d601f19601f82011682018060405250810190611c149190612685565b915091507ff77ddd1c4747d74e4d857ae1988928cd346feca8a5f694b0c39f7f53e5193580838383604051611c4b93929190613441565b60405180910390a1505050565b600080600660009054906101000a900473ffffffffffffffffffffffffffffffffffffffff1673ffffffffffffffffffffffffffffffffffffffff1663095ea7b385856040518363ffffffff1660e01b8152600401611cb89291906132d6565b602060405180830381600087803b158015611cd257600080fd5b505af1158015611ce6573d6000803e3d6000fd5b505050506040513d601f19601f82011682018060405250810190611d0a9190612715565b90508015611d4c577fbab4e436a1f75e4f561126509ef0a39ce3a8c2c0d42e0269a857bee6d508d9008484604051611d439291906132d6565b60405180910390a15b8091505092915050565b60011515600160009054906101000a900473ffffffffffffffffffffffffffffffffffffffff1673ffffffffffffffffffffffffffffffffffffffff16635f9d8de6336040518263ffffffff1660e01b8152600401611db591906130bd565b60206040518083038186803b158015611dcd57600080fd5b505afa158015611de1573d6000803e3d6000fd5b505050506040513d601f19601f82011682018060405250810190611e059190612715565b151514611e47576040517f08c379a0000000000000000000000000000000000000000000000000000000008152600401611e3e90613654565b60405180910390fd5b600080600360009054906101000a900473ffffffffffffffffffffffffffffffffffffffff1673ffffffffffffffffffffffffffffffffffffffff1663748f9f1233856040518363ffffffff1660e01b8152600401611ea79291906131c2565b600060405180830381600087803b158015611ec157600080fd5b505af1158015611ed5573d6000803e3d6000fd5b505050506040513d6000823e3d601f19601f82011682018060405250810190611efe9190612685565b915091507ff14b427b14da887f90611136a5e3ceba24d441e75254f1f8900c678af0ad4850838383604051611f3593929190613441565b60405180910390a1505050565b60006001831415611f9957678ac7230489e80000341015611f98576040517f08c379a0000000000000000000000000000000000000000000000000000000008152600401611f8f906136d4565b60405180910390fd5b5b60008211156120135781341015611fe5576040517f08c379a0000000000000000000000000000000000000000000000000000000008152600401611fdc906136b4565b60405180910390fd5b612012600760009054906101000a900473ffffffffffffffffffffffffffffffffffffffff16338461139a565b5b6000600160009054906101000a900473ffffffffffffffffffffffffffffffffffffffff1673ffffffffffffffffffffffffffffffffffffffff1663a3305e0c338888886040518563ffffffff1660e01b81526004016120769493929190613237565b602060405180830381600087803b15801561209057600080fd5b505af11580156120a4573d6000803e3d6000fd5b505050506040513d601f19601f820116820180604052508101906120c89190612715565b90507f7f9ecb5a097a48ba760452c7dc9a9b85f16117e64abb0d9248a484a582bb286686826040516120fb9291906134d2565b60405180910390a180915050949350505050565b6000670de0b6b3a76400008261212591906139b0565b9050919050565b600061213f61213a846137cd565b6137a8565b9050808382526020820190508285602086028201111561215e57600080fd5b60005b8581101561218e5781612174888261234f565b845260208401935060208301925050600181019050612161565b5050509392505050565b60006121ab6121a6846137f9565b6137a8565b9050808382526020820190508260005b858110156121eb57813585016121d18882612421565b8452602084019350602083019250506001810190506121bb565b5050509392505050565b6000612208612203846137f9565b6137a8565b9050808382526020820190508260005b85811015612248578151850161222e888261244b565b845260208401935060208301925050600181019050612218565b5050509392505050565b600061226561226084613825565b6137a8565b9050808382526020820190508285602086028201111561228457600080fd5b60005b858110156122b4578161229a8882612475565b845260208401935060208301925050600181019050612287565b5050509392505050565b60006122d16122cc84613851565b6137a8565b9050828152602081018484840111156122e957600080fd5b6122f4848285613af2565b509392505050565b600061230f61230a84613851565b6137a8565b90508281526020810184848401111561232757600080fd5b612332848285613b01565b509392505050565b60008135905061234981613dd7565b92915050565b60008151905061235e81613dd7565b92915050565b600082601f83011261237557600080fd5b815161238584826020860161212c565b91505092915050565b600082601f83011261239f57600080fd5b81356123af848260208601612198565b91505092915050565b600082601f8301126123c957600080fd5b81516123d98482602086016121f5565b91505092915050565b600082601f8301126123f357600080fd5b8135612403848260208601612252565b91505092915050565b60008151905061241b81613dee565b92915050565b600082601f83011261243257600080fd5b81356124428482602086016122be565b91505092915050565b600082601f83011261245c57600080fd5b815161246c8482602086016122fc565b91505092915050565b60008135905061248481613e05565b92915050565b60008151905061249981613e05565b92915050565b6000602082840312156124b157600080fd5b60006124bf8482850161233a565b91505092915050565b600080604083850312156124db57600080fd5b60006124e98582860161233a565b92505060206124fa8582860161233a565b9150509250929050565b6000806000806080858703121561251a57600080fd5b60006125288782880161234f565b94505060206125398782880161234f565b935050604061254a8782880161234f565b925050606061255b8782880161248a565b91505092959194509250565b60008060006060848603121561257c57600080fd5b600061258a8682870161233a565b935050602061259b8682870161233a565b92505060406125ac86828701612475565b9150509250925092565b600080600080608085870312156125cc57600080fd5b60006125da8782880161233a565b945050602085013567ffffffffffffffff8111156125f757600080fd5b6126038782880161238e565b935050604061261487828801612475565b925050606061262587828801612475565b91505092959194509250565b6000806040838503121561264457600080fd5b60006126528582860161233a565b925050602083013567ffffffffffffffff81111561266f57600080fd5b61267b858286016123e2565b9150509250929050565b6000806040838503121561269857600080fd5b60006126a68582860161234f565b925050602083015167ffffffffffffffff8111156126c357600080fd5b6126cf8582860161244b565b9150509250929050565b600080604083850312156126ec57600080fd5b60006126fa8582860161233a565b925050602061270b85828601612475565b9150509250929050565b60006020828403121561272757600080fd5b60006127358482850161240c565b91505092915050565b60006020828403121561275057600080fd5b600082013567ffffffffffffffff81111561276a57600080fd5b61277684828501612421565b91505092915050565b60008060008060008060c0878903121561279857600080fd5b600087015167ffffffffffffffff8111156127b257600080fd5b6127be89828a0161244b565b96505060206127cf89828a0161234f565b95505060406127e089828a0161234f565b945050606087015167ffffffffffffffff8111156127fd57600080fd5b61280989828a016123b8565b935050608061281a89828a0161248a565b92505060a087015167ffffffffffffffff81111561283757600080fd5b61284389828a0161244b565b9150509295509295509295565b6000806000806080858703121561286657600080fd5b600085015167ffffffffffffffff81111561288057600080fd5b61288c8782880161244b565b945050602061289d8782880161234f565b93505060406128ae8782880161248a565b92505060606128bf8782880161248a565b91505092959194509250565b600080604083850312156128de57600080fd5b600083015167ffffffffffffffff8111156128f857600080fd5b6129048582860161244b565b925050602083015167ffffffffffffffff81111561292157600080fd5b61292d8582860161244b565b9150509250929050565b60008060006060848603121561294c57600080fd5b600084015167ffffffffffffffff81111561296657600080fd5b6129728682870161244b565b935050602084015167ffffffffffffffff81111561298f57600080fd5b61299b8682870161244b565b925050604084015167ffffffffffffffff8111156129b857600080fd5b6129c48682870161244b565b9150509250925092565b600080600080608085870312156129e457600080fd5b600085015167ffffffffffffffff8111156129fe57600080fd5b612a0a8782880161244b565b945050602085015167ffffffffffffffff811115612a2757600080fd5b612a338782880161244b565b935050604085015167ffffffffffffffff811115612a5057600080fd5b612a5c8782880161244b565b9250506060612a6d8782880161248a565b91505092959194509250565b600080600060608486031215612a8e57600080fd5b600084013567ffffffffffffffff811115612aa857600080fd5b612ab486828701612421565b935050602084013567ffffffffffffffff811115612ad157600080fd5b612add86828701612421565b9250506040612aee86828701612475565b9150509250925092565b600080600060608486031215612b0d57600080fd5b600084015167ffffffffffffffff811115612b2757600080fd5b612b338682870161244b565b935050602084015167ffffffffffffffff811115612b5057600080fd5b612b5c8682870161244b565b9250506040612b6d8682870161248a565b9150509250925092565b60008060008060808587031215612b8d57600080fd5b600085013567ffffffffffffffff811115612ba757600080fd5b612bb387828801612421565b945050602085013567ffffffffffffffff811115612bd057600080fd5b612bdc87828801612421565b9350506040612bed87828801612475565b9250506060612bfe87828801612475565b91505092959194509250565b600080600060608486031215612c1f57600080fd5b600084013567ffffffffffffffff811115612c3957600080fd5b612c4586828701612421565b9350506020612c5686828701612475565b9250506040612c6786828701612475565b9150509250925092565b60008060008060808587031215612c8757600080fd5b600085013567ffffffffffffffff811115612ca157600080fd5b612cad87828801612421565b9450506020612cbe87828801612475565b9350506040612ccf87828801612475565b9250506060612ce087828801612475565b91505092959194509250565b600060208284031215612cfe57600080fd5b6000612d0c8482850161248a565b91505092915050565b60008060408385031215612d2857600080fd5b6000612d368582860161248a565b925050602083015167ffffffffffffffff811115612d5357600080fd5b612d5f85828601612364565b9150509250929050565b6000612d758383612dad565b60208301905092915050565b6000612d8d8383612f38565b905092915050565b6000612da1838361309f565b60208301905092915050565b612db681613a3e565b82525050565b612dc581613a3e565b82525050565b6000612dd6826138b2565b612de08185613905565b9350612deb83613882565b8060005b83811015612e1c578151612e038882612d69565b9750612e0e836138de565b925050600181019050612def565b5085935050505092915050565b6000612e34826138bd565b612e3e8185613916565b935083602082028501612e5085613892565b8060005b85811015612e8c5784840389528151612e6d8582612d81565b9450612e78836138eb565b925060208a01995050600181019050612e54565b50829750879550505050505092915050565b6000612ea9826138c8565b612eb38185613927565b9350612ebe836138a2565b8060005b83811015612eef578151612ed68882612d95565b9750612ee1836138f8565b925050600181019050612ec2565b5085935050505092915050565b612f0581613a50565b82525050565b612f1481613a86565b82525050565b612f2381613aaa565b82525050565b612f3281613ace565b82525050565b6000612f43826138d3565b612f4d8185613938565b9350612f5d818560208601613b01565b612f6681613bc3565b840191505092915050565b6000612f7c826138d3565b612f868185613949565b9350612f96818560208601613b01565b612f9f81613bc3565b840191505092915050565b6000612fb7604e83613949565b9150612fc282613bd4565b606082019050919050565b6000612fda602783613949565b9150612fe582613c49565b604082019050919050565b6000612ffd602883613949565b915061300882613c98565b604082019050919050565b6000613020601b83613949565b915061302b82613ce7565b602082019050919050565b6000613043602a83613949565b915061304e82613d10565b604082019050919050565b6000613066601983613949565b915061307182613d5f565b602082019050919050565b6000613089603983613949565b915061309482613d88565b604082019050919050565b6130a881613a7c565b82525050565b6130b781613a7c565b82525050565b60006020820190506130d26000830184612dbc565b92915050565b60006040820190506130ed6000830185612dbc565b6130fa6020830184612dbc565b9392505050565b60006080820190506131166000830187612dbc565b6131236020830186612dbc565b81810360408301526131358185612e29565b905061314460608301846130ae565b95945050505050565b60006060820190506131626000830186612dbc565b61316f6020830185612dbc565b81810360408301526131818184612e9e565b9050949350505050565b60006060820190506131a06000830186612dbc565b6131ad6020830185612dbc565b6131ba60408301846130ae565b949350505050565b60006040820190506131d76000830185612dbc565b81810360208301526131e98184612f71565b90509392505050565b60006060820190506132076000830186612dbc565b81810360208301526132198185612f71565b9050818103604083015261322d8184612f71565b9050949350505050565b600060808201905061324c6000830187612dbc565b818103602083015261325e8186612f71565b905081810360408301526132728185612f71565b905061328160608301846130ae565b95945050505050565b600060808201905061329f6000830187612dbc565b81810360208301526132b18186612f71565b90506132c060408301856130ae565b6132cd60608301846130ae565b95945050505050565b60006040820190506132eb6000830185612dbc565b6132f860208301846130ae565b9392505050565b60006020820190506133146000830184612efc565b92915050565b600060208201905061332f6000830184612f0b565b92915050565b600060208201905061334a6000830184612f1a565b92915050565b60006020820190506133656000830184612f29565b92915050565b600060208201905081810360008301526133858184612f71565b905092915050565b600060c08201905081810360008301526133a78189612f71565b90506133b66020830188612dbc565b6133c36040830187612dbc565b81810360608301526133d58186612e29565b90506133e460808301856130ae565b81810360a08301526133f68184612f71565b9050979650505050505050565b6000606082019050818103600083015261341d8186612f71565b905061342c6020830185612dbc565b6134396040830184612efc565b949350505050565b6000606082019050818103600083015261345b8186612f71565b905061346a6020830185612dbc565b818103604083015261347c8184612f71565b9050949350505050565b600060808201905081810360008301526134a08187612f71565b90506134af6020830186612dbc565b6134bc60408301856130ae565b6134c960608301846130ae565b95945050505050565b600060408201905081810360008301526134ec8185612f71565b90506134fb6020830184612efc565b9392505050565b6000604082019050818103600083015261351c8185612f71565b905081810360208301526135308184612f71565b90509392505050565b600060608201905081810360008301526135538186612f71565b905081810360208301526135678185612f71565b9050818103604083015261357b8184612f71565b9050949350505050565b6000608082019050818103600083015261359f8187612f71565b905081810360208301526135b38186612f71565b905081810360408301526135c78185612f71565b90506135d660608301846130ae565b95945050505050565b600060608201905081810360008301526135f98186612f71565b9050818103602083015261360d8185612f71565b905061361c60408301846130ae565b949350505050565b6000604082019050818103600083015261363e8185612f71565b905061364d60208301846130ae565b9392505050565b6000602082019050818103600083015261366d81612faa565b9050919050565b6000602082019050818103600083015261368d81612fcd565b9050919050565b600060208201905081810360008301526136ad81612ff0565b9050919050565b600060208201905081810360008301526136cd81613013565b9050919050565b600060208201905081810360008301526136ed81613036565b9050919050565b6000602082019050818103600083015261370d81613059565b9050919050565b6000602082019050818103600083015261372d8161307c565b9050919050565b600060208201905061374960008301846130ae565b92915050565b600060408201905061376460008301856130ae565b81810360208301526137768184612dcb565b90509392505050565b600060408201905061379460008301856130ae565b6137a160208301846130ae565b9392505050565b60006137b26137c3565b90506137be8282613b34565b919050565b6000604051905090565b600067ffffffffffffffff8211156137e8576137e7613b94565b5b602082029050602081019050919050565b600067ffffffffffffffff82111561381457613813613b94565b5b602082029050602081019050919050565b600067ffffffffffffffff8211156138405761383f613b94565b5b602082029050602081019050919050565b600067ffffffffffffffff82111561386c5761386b613b94565b5b61387582613bc3565b9050602081019050919050565b6000819050602082019050919050565b6000819050602082019050919050565b6000819050602082019050919050565b600081519050919050565b600081519050919050565b600081519050919050565b600081519050919050565b6000602082019050919050565b6000602082019050919050565b6000602082019050919050565b600082825260208201905092915050565b600082825260208201905092915050565b600082825260208201905092915050565b600082825260208201905092915050565b600082825260208201905092915050565b600061396582613a7c565b915061397083613a7c565b9250827fffffffffffffffffffffffffffffffffffffffffffffffffffffffffffffffff038211156139a5576139a4613b65565b5b828201905092915050565b60006139bb82613a7c565b91506139c683613a7c565b9250817fffffffffffffffffffffffffffffffffffffffffffffffffffffffffffffffff04831182151516156139ff576139fe613b65565b5b828202905092915050565b6000613a1582613a7c565b9150613a2083613a7c565b925082821015613a3357613a32613b65565b5b828203905092915050565b6000613a4982613a5c565b9050919050565b60008115159050919050565b600073ffffffffffffffffffffffffffffffffffffffff82169050919050565b6000819050919050565b6000613a9182613a98565b9050919050565b6000613aa382613a5c565b9050919050565b6000613ab582613abc565b9050919050565b6000613ac782613a5c565b9050919050565b6000613ad982613ae0565b9050919050565b6000613aeb82613a5c565b9050919050565b82818337600083830152505050565b60005b83811015613b1f578082015181840152602081019050613b04565b83811115613b2e576000848401525b50505050565b613b3d82613bc3565b810181811067ffffffffffffffff82111715613b5c57613b5b613b94565b5b80604052505050565b7f4e487b7100000000000000000000000000000000000000000000000000000000600052601160045260246000fd5b7f4e487b7100000000000000000000000000000000000000000000000000000000600052604160045260246000fd5b6000601f19601f8301169050919050565b7f55736572206973206e6f7420612044656c6976657279206167656e742e204f6e60008201527f6c792044656c6976657279206167656e74732063616e2062652061737369676e60208201527f656420666f6f64206f726465722e000000000000000000000000000000000000604082015250565b7f52657374617572616e74206d757374207374616b65206d6f7265207468616e2060008201527f3020657468657200000000000000000000000000000000000000000000000000602082015250565b7f4e6f7420656e6f756768206d6f6e69657320746f20636f766572206f7264657260008201527f20616d6f756e742e000000000000000000000000000000000000000000000000602082015250565b7f4574686572206d757374206d6174636820746f6b656e5374616b650000000000600082015250565b7f44656c6976657279204167656e74206d757374207374616b65206d696e696d7560008201527f6d20313020657468657200000000000000000000000000000000000000000000602082015250565b7f4e6f7420456e6f75676820746f6b656e7320746f207469702e00000000000000600082015250565b7f5573657220697320612044656c6976657279206167656e742e204f6e6c79206360008201527f7573746f6d6572732063616e2061636365737320746869732e00000000000000602082015250565b613de081613a3e565b8114613deb57600080fd5b50565b613df781613a50565b8114613e0257600080fd5b50565b613e0e81613a7c565b8114613e1957600080fd5b5056fea2646970667358221220c92187bf71c1837bb75e7b50cd7cdb07890c6a798b2a1e568deb3e06e91b254d64736f6c63430008030033",
  "immutableReferences": {},
  "source": "pragma solidity ^0.8.1;\n// pragma solidity 0.7.6;\n// \"SPDX-License-Identifier: UNLICENSED\"\n\nimport \"@openzeppelin/contracts/token/ERC20/IERC20.sol\";\n\nimport \"./helpers_interface.sol\";\nimport \"./registration_interface.sol\";\nimport \"./orders_interface.sol\";\n\n\ncontract Foodiez {\n    \n    address ownerAddress;\n\n    // FoodiezRegistration public _foodiezRegistration;\n    // FoodiezHelpers public _foodiezHelpers;\n    // FoodiezOrders public _foodiezOrders;\n    \n    FoodiezRegistrationInterface public _foodiezRegistration;\n    FoodiezHelpersInterface public _foodiezHelpers;\n    FoodiezOrdersInterface public _foodiezOrders;\n\n    /*************Variables and Event Emitter***********************************************************/\n    \n    uint NetworkServiceFee = 2;\n    uint DeliveryFlatFee = 2;\n\n    event UserRegisteredEvent(string userName, bool isRegistered);\n    event UserInfoEvent(string name, address usrAddress, string usrType, uint256 rating);\n    event RestaurantRegistered(string restaurantName, address rAddress, bool isRegistered);\n    event ItemAddedEvent(string restaurantId, string itemId, string itemName);\n    event OrderPlaced(string orderId, string orderStatus);\n    event OrderAssignedToDriver(string orderId, address driverAddress, string orderStatus);\n    event OrderDeliveredToUser(string orderId, address driverAddress, string orderStatus);\n    event orderDeliveryConfirmedEvent(uint restaurantTotal, uint deliveryTotal);\n    \n    event AccountApproved(address account, uint256 allowance);\n    event AmountTransferedToAccount(address account, uint256 amount);\n    event TransferedSenderToRecipient(address sender, address recipient, uint256 amount);\n    \n    /*************Token Setup *************************/\n    IERC20 token;\n    \n    address payable owner;\n    \n    mapping (address => uint256) private _balances;\n\n    mapping (address => mapping (address => uint256)) private _allowances;\n    \n    \n    /************Constructor / Modifiers /  contract address setters*********************************************/\n    constructor(FoodiezRegistrationInterface _registerAddress, FoodiezHelpersInterface _helperAddress, FoodiezOrdersInterface _orderAddress, address _token) {\n        ownerAddress = msg.sender;\n        _foodiezHelpers = _helperAddress;\n        _foodiezRegistration = _registerAddress;\n        _foodiezOrders = _orderAddress;\n        \n        _foodiezRegistration.setParentContract(address(this));\n        _foodiezOrders.setParentContract(address(this));\n        \n        owner = payable(msg.sender); // Token deploy address;\n        token = IERC20(_token);\n    }\n\n    modifier OnlyOwner(){\n        require(msg.sender == ownerAddress, \"Foodiez Registration - Only Owner can call this function\");\n        _; // this underscore is requierd otherwise compiler will break;\n    }\n\n    modifier isDeliveryCheck(){\n        require( _foodiezRegistration.checkUserDelivery(msg.sender) == true, \"User is not a Delivery agent. Only Delivery agents can be assigned food order.\");\n        _;\n    }\n    \n    modifier isUserCheck(){\n        require( _foodiezRegistration.checkUserDelivery(msg.sender) == false, \"User is a Delivery agent. Only customers can access this.\");\n        _;\n    }\n\n    /*************Token Functions******************************************/\n    \n    function tokenApproveAccount(address _address, uint256 amount) public payable returns (bool){\n        \n        bool isApproved = token.approve(_address, amount);\n        if(isApproved) emit AccountApproved(_address, amount);\n        return isApproved;\n    }\n    \n    function allowance(address own, address spender) public view returns (uint256){\n        return token.allowance(own, spender);\n    }\n    \n    function getTokenBalanceOf(address _address) public view returns (uint256){\n        return token.balanceOf(_address);\n    }\n    \n    function tokenTransfer(address recipient, uint256 amount) public payable {\n        bool tokenTransfered = token.transfer(recipient, amount);\n        if(tokenTransfered) emit AmountTransferedToAccount(recipient, amount);\n    }\n    \n    function tokenTransferFrom(address sender, address recipient, uint256 amount) public payable {\n        \n        bool tokenTransfered = token.transferFrom(sender, recipient, amount);\n        \n        \n        if(tokenTransfered) emit TransferedSenderToRecipient(sender, recipient, amount);\n    }\n    \n    /*****************Registration of User ( customer and delivery ) and Restaurant *********************/\n    function userRegister(string memory name, string memory userId, uint uType, uint256 amountStake) public payable returns(bool isSuccess){\n        if(uType == 1) { \n            require(msg.value >= 10 ether, \"Delivery Agent must stake minimum 10 ether\"); \n        }\n        \n        // bool success = tokenApproveAccount(msg.sender, amountStake ); // approval of account to be done directly at tokenContract\n        if(amountStake > 0){\n            require(msg.value >= amountStake, \"Ether must match tokenStake\");\n            tokenTransferFrom(owner, msg.sender, amountStake);\n        }\n        \n        bool isRegistered = _foodiezRegistration.userRegistration(msg.sender, name, userId, uType); // setup token here\n        emit UserRegisteredEvent( name, isRegistered);\n        return isRegistered;\n    }\n    \n    function getUserInfo(address _address) public view returns (string memory usrName, string memory usrId, string memory usrType, uint256 rating){\n        \n        return _foodiezRegistration.getUserInfo(_address);\n        \n    }\n    \n    function registerRestaurant(string memory _name, string memory _rId, uint256 amountStake) public payable{\n        \n        bool isRegistered = _foodiezRegistration.createRestaurant(msg.sender, _name, _rId);\n        emit RestaurantRegistered(_name, msg.sender, isRegistered);\n        \n        //token register and purchase\n        require(msg.value >= 0, \"Restaurant must stake more than 0 ether\");\n        // bool success = tokenApproveAccount(msg.sender, amountStake);\n        tokenTransferFrom(owner, msg.sender, amountStake);\n    }\n    \n    function addMenuItems(string memory _itemName, uint _type, uint _price) public {\n        (string memory rId, string memory uniqueId, string memory itemName) = _foodiezRegistration.addMenuItems(msg.sender, _itemName, _type, _price);\n        \n        emit ItemAddedEvent(rId, uniqueId, itemName);\n    }\n    \n    function getRestaurantMenu(address _restaurantAddress, uint _itemNumber) public view returns(string memory itemName, string memory itemType, uint256 itemPrice){\n        return _foodiezRegistration.getRestaurantMenu(_restaurantAddress, _itemNumber);\n    } \n    \n    function getrestaurantInfo(address _restaurantAddress) public view returns(string memory rId, address rAddress, uint256 rItems, uint256 rating){\n        return _foodiezRegistration.getrestaurantInfo(_restaurantAddress);\n    }\n\n    function getAllRestaurants() public view returns(uint256 count, address[] memory restAddresses){\n        return _foodiezRegistration.getTotalRestaurants();\n    }\n    \n    /************Foodiez Orders Vars and Functions**********************/\n    function orderTotal(address _restaurantAddress, uint[] memory _itemNum) public view returns (uint totalPrice){\n        \n        return _foodiezRegistration.getOrderTotal(msg.sender, _restaurantAddress, _itemNum);\n    }\n\n    function placeOrder(address _restaurantAddress, string[] memory itemNames, uint totalPrice, uint tokenPay) public payable returns (string memory uOrderId, string memory orderStatus){\n        \n        //check for required ether \n        require(msg.value >= totalPrice || weiConverter(tokenPay) >= totalPrice , \"Not enough monies to cover order amount.\");\n        (string memory uniqueId, string memory status) = _foodiezRegistration.createFoodOrder(msg.sender, _restaurantAddress, itemNames, totalPrice);\n        \n        \n        if(tokenPay > 0) {\n            _foodiezOrders.setTokenPayOrder(uniqueId, tokenPay);\n            // transfer(address(this), tokenPay);\n        }\n\n        emit OrderPlaced(uniqueId, status);\n        return (uniqueId, status);\n    }\n\n    function getUserOrders() public view returns (uint256){\n        (uint256 usrOrderCount) = _foodiezRegistration.getUserOrders(msg.sender);\n        return usrOrderCount;\n    }\n\n    function getOrderStatus(string memory userOrderId) public view returns (string memory orderId, address userAddress, address driverAddress, string[] memory items, uint256 total, string memory status){\n        return _foodiezOrders.getUserOrderStatus(userOrderId);\n    }\n    \n    function assignToDriver(string memory userOrderId) public isDeliveryCheck {\n        \n        (address driverAddress, string memory status) = _foodiezOrders.assignOrderToDriver(msg.sender, userOrderId);\n        emit OrderAssignedToDriver(userOrderId,driverAddress, status);\n    }\n    \n    function driverDelieveredOrder(string memory userOrderId) public isDeliveryCheck {\n        \n        (address driverAddress, string memory status) = _foodiezOrders.driverDelieveredOrder(msg.sender, userOrderId);\n        emit OrderDeliveredToUser(userOrderId,driverAddress, status);\n    }\n    \n    function orderDeliveryConfirmed(string memory userOrderId, uint _restaurantRating, uint _deliveryRating, uint tokenTip ) public isUserCheck payable{\n         \n         (address restaurantAddress, address deliveryAddress, address userAddress, uint total ) = _foodiezOrders.orderDeliveryConfirmed(userOrderId);\n        \n        //ratings for restaurant and drivers\n        _foodiezRegistration.addRestaurantRating(restaurantAddress, _restaurantRating);\n        \n        _foodiezRegistration.addDriverRating(deliveryAddress, _deliveryRating);\n         \n        // payment \n        require(getTokenBalanceOf(msg.sender) >= tokenTip, \"Not Enough tokens to tip.\");\n        \n        uint256 tokenPay = _foodiezOrders.getTokenPayOrder(userOrderId);\n        \n         uint finalOrderTotal = total;\n        // take out service fee from total\n        uint serviceFee = _foodiezHelpers.calcServiceFee(total, NetworkServiceFee);\n        finalOrderTotal -= serviceFee;\n            \n        // driver fee + any tips go to \n        uint driverTotal = _foodiezHelpers.calcDriverFlatFee(total, DeliveryFlatFee); \n        finalOrderTotal -= driverTotal; \n        \n        \n        driverTotal += msg.value;\n        \n        // transfer driver money\n        payable(deliveryAddress).transfer(driverTotal);\n        if(tokenTip > 0) {\n            token.transferFrom(userAddress, deliveryAddress, tokenTip);\n        }\n        \n        // transfer rest money\n        if(tokenPay > 0){\n            token.transferFrom(userAddress, restaurantAddress, tokenPay);\n        }else {\n            payable(restaurantAddress).transfer(finalOrderTotal);   \n        }\n        \n        emit orderDeliveryConfirmedEvent(finalOrderTotal, driverTotal);\n    }\n\n    \n    function weiConverter(uint256 tokenPay) internal pure returns(uint){\n        return tokenPay * 10**18;\n    }\n}",
  "sourcePath": "/home/dinesh/Blockchain-Projects/EthereumSolidityProject/contracts/parent.sol",
  "compiler": {
    "name": "solc",
    "version": "0.8.3+commit.8d00100c.Emscripten.clang"
  },
  "schemaVersion": "3.3.3",
  "updatedAt": "2021-04-05T00:21:08.240Z",
  "networkType": "ethereum",
  "devdoc": {
    "kind": "dev",
    "methods": {},
    "version": 1
  },
  "userdoc": {
    "kind": "user",
    "methods": {},
    "version": 1
  }
}