{
  "contractName": "FoodiezOrders",
  "abi": [
    {
      "anonymous": false,
      "inputs": [
        {
          "indexed": false,
          "internalType": "uint256",
          "name": "value",
          "type": "uint256"
        },
        {
          "indexed": false,
          "internalType": "address",
          "name": "sender",
          "type": "address"
        }
      ],
      "name": "OrderAssignedToDriver",
      "type": "event"
    },
    {
      "anonymous": false,
      "inputs": [
        {
          "indexed": false,
          "internalType": "bytes",
          "name": "data",
          "type": "bytes"
        },
        {
          "indexed": false,
          "internalType": "address",
          "name": "sender",
          "type": "address"
        }
      ],
      "name": "OrderDeliveredToCustomer",
      "type": "event"
    },
    {
      "inputs": [],
      "name": "parentContractAddress",
      "outputs": [
        {
          "internalType": "address",
          "name": "",
          "type": "address"
        }
      ],
      "stateMutability": "view",
      "type": "function",
      "constant": true
    },
    {
      "inputs": [],
      "name": "registerContractAddress",
      "outputs": [
        {
          "internalType": "address",
          "name": "",
          "type": "address"
        }
      ],
      "stateMutability": "view",
      "type": "function",
      "constant": true
    },
    {
      "inputs": [
        {
          "internalType": "address",
          "name": "_address",
          "type": "address"
        }
      ],
      "name": "setParentContract",
      "outputs": [
        {
          "internalType": "string",
          "name": "",
          "type": "string"
        }
      ],
      "stateMutability": "nonpayable",
      "type": "function"
    },
    {
      "inputs": [
        {
          "internalType": "address",
          "name": "_address",
          "type": "address"
        }
      ],
      "name": "setRegisterContract",
      "outputs": [
        {
          "internalType": "string",
          "name": "",
          "type": "string"
        }
      ],
      "stateMutability": "nonpayable",
      "type": "function"
    },
    {
      "inputs": [
        {
          "internalType": "string",
          "name": "_uniqueOrderId",
          "type": "string"
        },
        {
          "internalType": "string",
          "name": "_rId",
          "type": "string"
        },
        {
          "internalType": "address",
          "name": "_restaurantAddress",
          "type": "address"
        },
        {
          "internalType": "address",
          "name": "_userAddress",
          "type": "address"
        },
        {
          "internalType": "string",
          "name": "_itemName",
          "type": "string"
        },
        {
          "internalType": "uint256",
          "name": "_total",
          "type": "uint256"
        }
      ],
      "name": "createFoodOrderEntry",
      "outputs": [
        {
          "internalType": "string",
          "name": "",
          "type": "string"
        },
        {
          "internalType": "string",
          "name": "",
          "type": "string"
        },
        {
          "internalType": "uint256",
          "name": "",
          "type": "uint256"
        },
        {
          "internalType": "string",
          "name": "",
          "type": "string"
        }
      ],
      "stateMutability": "payable",
      "type": "function",
      "payable": true
    },
    {
      "inputs": [],
      "name": "getAllUserOrders",
      "outputs": [
        {
          "internalType": "uint256",
          "name": "",
          "type": "uint256"
        },
        {
          "internalType": "string[]",
          "name": "userOrders",
          "type": "string[]"
        }
      ],
      "stateMutability": "view",
      "type": "function",
      "constant": true
    },
    {
      "inputs": [
        {
          "internalType": "string",
          "name": "userOrderId",
          "type": "string"
        }
      ],
      "name": "getUserOrderStatus",
      "outputs": [
        {
          "internalType": "string",
          "name": "",
          "type": "string"
        },
        {
          "internalType": "address",
          "name": "",
          "type": "address"
        },
        {
          "internalType": "address",
          "name": "",
          "type": "address"
        },
        {
          "internalType": "string",
          "name": "",
          "type": "string"
        },
        {
          "internalType": "uint256",
          "name": "",
          "type": "uint256"
        },
        {
          "internalType": "string",
          "name": "",
          "type": "string"
        }
      ],
      "stateMutability": "view",
      "type": "function",
      "constant": true
    },
    {
      "inputs": [
        {
          "internalType": "address",
          "name": "_deliveryAddress",
          "type": "address"
        },
        {
          "internalType": "string",
          "name": "userOrderId",
          "type": "string"
        }
      ],
      "name": "assignOrderToDriver",
      "outputs": [
        {
          "internalType": "address",
          "name": "",
          "type": "address"
        },
        {
          "internalType": "string",
          "name": "",
          "type": "string"
        }
      ],
      "stateMutability": "nonpayable",
      "type": "function"
    },
    {
      "inputs": [
        {
          "internalType": "address",
          "name": "_deliveryAddress",
          "type": "address"
        },
        {
          "internalType": "string",
          "name": "userOrderId",
          "type": "string"
        }
      ],
      "name": "driverDelieveredOrder",
      "outputs": [
        {
          "internalType": "address",
          "name": "",
          "type": "address"
        },
        {
          "internalType": "string",
          "name": "",
          "type": "string"
        }
      ],
      "stateMutability": "nonpayable",
      "type": "function"
    },
    {
      "inputs": [
        {
          "internalType": "string",
          "name": "userOrderId",
          "type": "string"
        }
      ],
      "name": "orderDeliveryConfirmed",
      "outputs": [
        {
          "internalType": "address",
          "name": "",
          "type": "address"
        },
        {
          "internalType": "address",
          "name": "",
          "type": "address"
        },
        {
          "internalType": "address",
          "name": "",
          "type": "address"
        },
        {
          "internalType": "uint256",
          "name": "",
          "type": "uint256"
        }
      ],
      "stateMutability": "nonpayable",
      "type": "function"
    },
    {
      "inputs": [
        {
          "internalType": "string",
          "name": "_uniqueOrderId",
          "type": "string"
        },
        {
          "internalType": "uint256",
          "name": "tokenPay",
          "type": "uint256"
        }
      ],
      "name": "setTokenPayOrder",
      "outputs": [],
      "stateMutability": "nonpayable",
      "type": "function"
    },
    {
      "inputs": [
        {
          "internalType": "string",
          "name": "_uniqueOrderId",
          "type": "string"
        }
      ],
      "name": "getTokenPayOrder",
      "outputs": [
        {
          "internalType": "uint256",
          "name": "",
          "type": "uint256"
        }
      ],
      "stateMutability": "view",
      "type": "function",
      "constant": true
    }
  ],
  "bytecode": "0x60806040526000600160146101000a81548160ff0219169083151502179055506000600160156101000a81548160ff02191690831515021790555060006006556002600755600260085534801561005557600080fd5b50613a8c806100656000396000f3fe6080604052600436106100a75760003560e01c80639b4708d1116100645780639b4708d114610206578063ae596d4e1461022f578063b1a68ff21461025a578063c25783f71461029a578063d182dbcd146102c5578063e150a2e814610302576100a7565b80634500901e146100ac57806357c86669146100df578063748f9f121461011d578063765ccb6b1461015b5780637ab8ae16146101985780638f79b93e146101da575b600080fd5b6100c660048036038101906100c19190613144565b61033f565b6040516100d6949392919061357e565b60405180910390f35b3480156100eb57600080fd5b50610106600480360381019061010191906130af565b610766565b6040516101149291906134b6565b60405180910390f35b34801561012957600080fd5b50610144600480360381019061013f91906130af565b6110fa565b6040516101529291906134b6565b60405180910390f35b34801561016757600080fd5b50610182600480360381019061017d9190613086565b6119e3565b60405161018f91906134e6565b60405180910390f35b3480156101a457600080fd5b506101bf60048036038101906101ba9190613103565b611ab5565b6040516101d196959493929190613508565b60405180910390f35b3480156101e657600080fd5b506101ef611f91565b6040516101fd929190613673565b60405180910390f35b34801561021257600080fd5b5061022d60048036038101906102289190613215565b61215e565b005b34801561023b57600080fd5b5061024461226b565b6040516102519190613456565b60405180910390f35b34801561026657600080fd5b50610281600480360381019061027c9190613103565b61228f565b6040516102919493929190613471565b60405180910390f35b3480156102a657600080fd5b506102af612978565b6040516102bc9190613456565b60405180910390f35b3480156102d157600080fd5b506102ec60048036038101906102e79190613103565b61299e565b6040516102f99190613658565b60405180910390f35b34801561030e57600080fd5b5061032960048036038101906103249190613086565b612ab3565b60405161033691906134e6565b60405180910390f35b6060806000606060008054906101000a900473ffffffffffffffffffffffffffffffffffffffff1673ffffffffffffffffffffffffffffffffffffffff163373ffffffffffffffffffffffffffffffffffffffff1614806103ed5750600160009054906101000a900473ffffffffffffffffffffffffffffffffffffffff1673ffffffffffffffffffffffffffffffffffffffff163373ffffffffffffffffffffffffffffffffffffffff16145b61042c576040517f08c379a000000000000000000000000000000000000000000000000000000000815260040161042390613638565b60405180910390fd5b60006040518061010001604052808c81526020018b81526020018a73ffffffffffffffffffffffffffffffffffffffff1681526020018973ffffffffffffffffffffffffffffffffffffffff168152602001600073ffffffffffffffffffffffffffffffffffffffff168152602001888152602001878152602001600060038111156104e1577f4e487b7100000000000000000000000000000000000000000000000000000000600052602160045260246000fd5b6003811115610519577f4e487b7100000000000000000000000000000000000000000000000000000000600052602160045260246000fd5b81525090508060028c60405161052f919061343f565b90815260200160405180910390206000820151816000019080519060200190610559929190612f51565b506020820151816001019080519060200190610576929190612f51565b5060408201518160020160006101000a81548173ffffffffffffffffffffffffffffffffffffffff021916908373ffffffffffffffffffffffffffffffffffffffff16021790555060608201518160030160006101000a81548173ffffffffffffffffffffffffffffffffffffffff021916908373ffffffffffffffffffffffffffffffffffffffff16021790555060808201518160040160006101000a81548173ffffffffffffffffffffffffffffffffffffffff021916908373ffffffffffffffffffffffffffffffffffffffff16021790555060a0820151816005019080519060200190610668929190612f51565b5060c0820151816006015560e08201518160070160006101000a81548160ff021916908360038111156106c4577f4e487b7100000000000000000000000000000000000000000000000000000000600052602160045260246000fd5b021790555090505060058b908060018154018082558091505060019003906000526020600020016000909190919091509080519060200190610707929190612f51565b508a87876107508460e00151600381111561074b577f4e487b7100000000000000000000000000000000000000000000000000000000600052602160045260246000fd5b612b86565b9450945094509450509650965096509692505050565b6000606060008054906101000a900473ffffffffffffffffffffffffffffffffffffffff1673ffffffffffffffffffffffffffffffffffffffff163373ffffffffffffffffffffffffffffffffffffffff1614806108115750600160009054906101000a900473ffffffffffffffffffffffffffffffffffffffff1673ffffffffffffffffffffffffffffffffffffffff163373ffffffffffffffffffffffffffffffffffffffff16145b610850576040517f08c379a000000000000000000000000000000000000000000000000000000000815260040161084790613638565b60405180910390fd5b6000600284604051610862919061343f565b90815260200160405180910390206040518061010001604052908160008201805461088c906137e8565b80601f01602080910402602001604051908101604052809291908181526020018280546108b8906137e8565b80156109055780601f106108da57610100808354040283529160200191610905565b820191906000526020600020905b8154815290600101906020018083116108e857829003601f168201915b5050505050815260200160018201805461091e906137e8565b80601f016020809104026020016040519081016040528092919081815260200182805461094a906137e8565b80156109975780601f1061096c57610100808354040283529160200191610997565b820191906000526020600020905b81548152906001019060200180831161097a57829003601f168201915b505050505081526020016002820160009054906101000a900473ffffffffffffffffffffffffffffffffffffffff1673ffffffffffffffffffffffffffffffffffffffff1673ffffffffffffffffffffffffffffffffffffffff1681526020016003820160009054906101000a900473ffffffffffffffffffffffffffffffffffffffff1673ffffffffffffffffffffffffffffffffffffffff1673ffffffffffffffffffffffffffffffffffffffff1681526020016004820160009054906101000a900473ffffffffffffffffffffffffffffffffffffffff1673ffffffffffffffffffffffffffffffffffffffff1673ffffffffffffffffffffffffffffffffffffffff168152602001600582018054610ab2906137e8565b80601f0160208091040260200160405190810160405280929190818152602001828054610ade906137e8565b8015610b2b5780601f10610b0057610100808354040283529160200191610b2b565b820191906000526020600020905b815481529060010190602001808311610b0e57829003601f168201915b50505050508152602001600682015481526020016007820160009054906101000a900460ff166003811115610b89577f4e487b7100000000000000000000000000000000000000000000000000000000600052602160045260246000fd5b6003811115610bc1577f4e487b7100000000000000000000000000000000000000000000000000000000600052602160045260246000fd5b815250509050600073ffffffffffffffffffffffffffffffffffffffff16816080015173ffffffffffffffffffffffffffffffffffffffff1614610c3a576040517f08c379a0000000000000000000000000000000000000000000000000000000008152600401610c31906135d8565b60405180910390fd5b84816080019073ffffffffffffffffffffffffffffffffffffffff16908173ffffffffffffffffffffffffffffffffffffffff168152505060016003811115610cac577f4e487b7100000000000000000000000000000000000000000000000000000000600052602160045260246000fd5b8160e001906003811115610ce9577f4e487b7100000000000000000000000000000000000000000000000000000000600052602160045260246000fd5b90816003811115610d23577f4e487b7100000000000000000000000000000000000000000000000000000000600052602160045260246000fd5b8152505080600285604051610d38919061343f565b90815260200160405180910390206000820151816000019080519060200190610d62929190612f51565b506020820151816001019080519060200190610d7f929190612f51565b5060408201518160020160006101000a81548173ffffffffffffffffffffffffffffffffffffffff021916908373ffffffffffffffffffffffffffffffffffffffff16021790555060608201518160030160006101000a81548173ffffffffffffffffffffffffffffffffffffffff021916908373ffffffffffffffffffffffffffffffffffffffff16021790555060808201518160040160006101000a81548173ffffffffffffffffffffffffffffffffffffffff021916908373ffffffffffffffffffffffffffffffffffffffff16021790555060a0820151816005019080519060200190610e71929190612f51565b5060c0820151816006015560e08201518160070160006101000a81548160ff02191690836003811115610ecd577f4e487b7100000000000000000000000000000000000000000000000000000000600052602160045260246000fd5b021790555090505080600360008773ffffffffffffffffffffffffffffffffffffffff1673ffffffffffffffffffffffffffffffffffffffff1681526020019081526020016000206000820151816000019080519060200190610f31929190612f51565b506020820151816001019080519060200190610f4e929190612f51565b5060408201518160020160006101000a81548173ffffffffffffffffffffffffffffffffffffffff021916908373ffffffffffffffffffffffffffffffffffffffff16021790555060608201518160030160006101000a81548173ffffffffffffffffffffffffffffffffffffffff021916908373ffffffffffffffffffffffffffffffffffffffff16021790555060808201518160040160006101000a81548173ffffffffffffffffffffffffffffffffffffffff021916908373ffffffffffffffffffffffffffffffffffffffff16021790555060a0820151816005019080519060200190611040929190612f51565b5060c0820151816006015560e08201518160070160006101000a81548160ff0219169083600381111561109c577f4e487b7100000000000000000000000000000000000000000000000000000000600052602160045260246000fd5b021790555090505080608001516110ee8260e0015160038111156110e9577f4e487b7100000000000000000000000000000000000000000000000000000000600052602160045260246000fd5b612b86565b92509250509250929050565b6000606060008054906101000a900473ffffffffffffffffffffffffffffffffffffffff1673ffffffffffffffffffffffffffffffffffffffff163373ffffffffffffffffffffffffffffffffffffffff1614806111a55750600160009054906101000a900473ffffffffffffffffffffffffffffffffffffffff1673ffffffffffffffffffffffffffffffffffffffff163373ffffffffffffffffffffffffffffffffffffffff16145b6111e4576040517f08c379a00000000000000000000000000000000000000000000000000000000081526004016111db90613638565b60405180910390fd5b60006002846040516111f6919061343f565b908152602001604051809103902060405180610100016040529081600082018054611220906137e8565b80601f016020809104026020016040519081016040528092919081815260200182805461124c906137e8565b80156112995780601f1061126e57610100808354040283529160200191611299565b820191906000526020600020905b81548152906001019060200180831161127c57829003601f168201915b505050505081526020016001820180546112b2906137e8565b80601f01602080910402602001604051908101604052809291908181526020018280546112de906137e8565b801561132b5780601f106113005761010080835404028352916020019161132b565b820191906000526020600020905b81548152906001019060200180831161130e57829003601f168201915b505050505081526020016002820160009054906101000a900473ffffffffffffffffffffffffffffffffffffffff1673ffffffffffffffffffffffffffffffffffffffff1673ffffffffffffffffffffffffffffffffffffffff1681526020016003820160009054906101000a900473ffffffffffffffffffffffffffffffffffffffff1673ffffffffffffffffffffffffffffffffffffffff1673ffffffffffffffffffffffffffffffffffffffff1681526020016004820160009054906101000a900473ffffffffffffffffffffffffffffffffffffffff1673ffffffffffffffffffffffffffffffffffffffff1673ffffffffffffffffffffffffffffffffffffffff168152602001600582018054611446906137e8565b80601f0160208091040260200160405190810160405280929190818152602001828054611472906137e8565b80156114bf5780601f10611494576101008083540402835291602001916114bf565b820191906000526020600020905b8154815290600101906020018083116114a257829003601f168201915b50505050508152602001600682015481526020016007820160009054906101000a900460ff16600381111561151d577f4e487b7100000000000000000000000000000000000000000000000000000000600052602160045260246000fd5b6003811115611555577f4e487b7100000000000000000000000000000000000000000000000000000000600052602160045260246000fd5b81525050905060026003811115611595577f4e487b7100000000000000000000000000000000000000000000000000000000600052602160045260246000fd5b8160e0019060038111156115d2577f4e487b7100000000000000000000000000000000000000000000000000000000600052602160045260246000fd5b9081600381111561160c577f4e487b7100000000000000000000000000000000000000000000000000000000600052602160045260246000fd5b8152505080600285604051611621919061343f565b9081526020016040518091039020600082015181600001908051906020019061164b929190612f51565b506020820151816001019080519060200190611668929190612f51565b5060408201518160020160006101000a81548173ffffffffffffffffffffffffffffffffffffffff021916908373ffffffffffffffffffffffffffffffffffffffff16021790555060608201518160030160006101000a81548173ffffffffffffffffffffffffffffffffffffffff021916908373ffffffffffffffffffffffffffffffffffffffff16021790555060808201518160040160006101000a81548173ffffffffffffffffffffffffffffffffffffffff021916908373ffffffffffffffffffffffffffffffffffffffff16021790555060a082015181600501908051906020019061175a929190612f51565b5060c0820151816006015560e08201518160070160006101000a81548160ff021916908360038111156117b6577f4e487b7100000000000000000000000000000000000000000000000000000000600052602160045260246000fd5b021790555090505080600360008773ffffffffffffffffffffffffffffffffffffffff1673ffffffffffffffffffffffffffffffffffffffff168152602001908152602001600020600082015181600001908051906020019061181a929190612f51565b506020820151816001019080519060200190611837929190612f51565b5060408201518160020160006101000a81548173ffffffffffffffffffffffffffffffffffffffff021916908373ffffffffffffffffffffffffffffffffffffffff16021790555060608201518160030160006101000a81548173ffffffffffffffffffffffffffffffffffffffff021916908373ffffffffffffffffffffffffffffffffffffffff16021790555060808201518160040160006101000a81548173ffffffffffffffffffffffffffffffffffffffff021916908373ffffffffffffffffffffffffffffffffffffffff16021790555060a0820151816005019080519060200190611929929190612f51565b5060c0820151816006015560e08201518160070160006101000a81548160ff02191690836003811115611985577f4e487b7100000000000000000000000000000000000000000000000000000000600052602160045260246000fd5b021790555090505080608001516119d78260e0015160038111156119d2577f4e487b7100000000000000000000000000000000000000000000000000000000600052602160045260246000fd5b612b86565b92509250509250929050565b606060001515600160149054906101000a900460ff16151514611a3b576040517f08c379a0000000000000000000000000000000000000000000000000000000008152600401611a3290613618565b60405180910390fd5b816000806101000a81548173ffffffffffffffffffffffffffffffffffffffff021916908373ffffffffffffffffffffffffffffffffffffffff16021790555060018060146101000a81548160ff0219169083151502179055506040518060600160405280602b81526020016139ff602b91399050919050565b606060008060606000606060008054906101000a900473ffffffffffffffffffffffffffffffffffffffff1673ffffffffffffffffffffffffffffffffffffffff163373ffffffffffffffffffffffffffffffffffffffff161480611b675750600160009054906101000a900473ffffffffffffffffffffffffffffffffffffffff1673ffffffffffffffffffffffffffffffffffffffff163373ffffffffffffffffffffffffffffffffffffffff16145b611ba6576040517f08c379a0000000000000000000000000000000000000000000000000000000008152600401611b9d90613638565b60405180910390fd5b6000600288604051611bb8919061343f565b908152602001604051809103902060405180610100016040529081600082018054611be2906137e8565b80601f0160208091040260200160405190810160405280929190818152602001828054611c0e906137e8565b8015611c5b5780601f10611c3057610100808354040283529160200191611c5b565b820191906000526020600020905b815481529060010190602001808311611c3e57829003601f168201915b50505050508152602001600182018054611c74906137e8565b80601f0160208091040260200160405190810160405280929190818152602001828054611ca0906137e8565b8015611ced5780601f10611cc257610100808354040283529160200191611ced565b820191906000526020600020905b815481529060010190602001808311611cd057829003601f168201915b505050505081526020016002820160009054906101000a900473ffffffffffffffffffffffffffffffffffffffff1673ffffffffffffffffffffffffffffffffffffffff1673ffffffffffffffffffffffffffffffffffffffff1681526020016003820160009054906101000a900473ffffffffffffffffffffffffffffffffffffffff1673ffffffffffffffffffffffffffffffffffffffff1673ffffffffffffffffffffffffffffffffffffffff1681526020016004820160009054906101000a900473ffffffffffffffffffffffffffffffffffffffff1673ffffffffffffffffffffffffffffffffffffffff1673ffffffffffffffffffffffffffffffffffffffff168152602001600582018054611e08906137e8565b80601f0160208091040260200160405190810160405280929190818152602001828054611e34906137e8565b8015611e815780601f10611e5657610100808354040283529160200191611e81565b820191906000526020600020905b815481529060010190602001808311611e6457829003601f168201915b50505050508152602001600682015481526020016007820160009054906101000a900460ff166003811115611edf577f4e487b7100000000000000000000000000000000000000000000000000000000600052602160045260246000fd5b6003811115611f17577f4e487b7100000000000000000000000000000000000000000000000000000000600052602160045260246000fd5b8152505090508060000151816060015182608001518360a001518460c00151611f7b8660e001516003811115611f76577f4e487b7100000000000000000000000000000000000000000000000000000000600052602160045260246000fd5b612b86565b9650965096509650965096505091939550919395565b6000606060008054906101000a900473ffffffffffffffffffffffffffffffffffffffff1673ffffffffffffffffffffffffffffffffffffffff163373ffffffffffffffffffffffffffffffffffffffff16148061203c5750600160009054906101000a900473ffffffffffffffffffffffffffffffffffffffff1673ffffffffffffffffffffffffffffffffffffffff163373ffffffffffffffffffffffffffffffffffffffff16145b61207b576040517f08c379a000000000000000000000000000000000000000000000000000000000815260040161207290613638565b60405180910390fd5b600580549050600580805480602002602001604051908101604052809291908181526020016000905b828210156121505783829060005260206000200180546120c3906137e8565b80601f01602080910402602001604051908101604052809291908181526020018280546120ef906137e8565b801561213c5780601f106121115761010080835404028352916020019161213c565b820191906000526020600020905b81548152906001019060200180831161211f57829003601f168201915b5050505050815260200190600101906120a4565b505050509050915091509091565b60008054906101000a900473ffffffffffffffffffffffffffffffffffffffff1673ffffffffffffffffffffffffffffffffffffffff163373ffffffffffffffffffffffffffffffffffffffff1614806122055750600160009054906101000a900473ffffffffffffffffffffffffffffffffffffffff1673ffffffffffffffffffffffffffffffffffffffff163373ffffffffffffffffffffffffffffffffffffffff16145b612244576040517f08c379a000000000000000000000000000000000000000000000000000000000815260040161223b90613638565b60405180910390fd5b80600483604051612255919061343f565b9081526020016040518091039020819055505050565b60008054906101000a900473ffffffffffffffffffffffffffffffffffffffff1681565b60008060008060008054906101000a900473ffffffffffffffffffffffffffffffffffffffff1673ffffffffffffffffffffffffffffffffffffffff163373ffffffffffffffffffffffffffffffffffffffff16148061233c5750600160009054906101000a900473ffffffffffffffffffffffffffffffffffffffff1673ffffffffffffffffffffffffffffffffffffffff163373ffffffffffffffffffffffffffffffffffffffff16145b61237b576040517f08c379a000000000000000000000000000000000000000000000000000000000815260040161237290613638565b60405180910390fd5b600060028660405161238d919061343f565b9081526020016040518091039020604051806101000160405290816000820180546123b7906137e8565b80601f01602080910402602001604051908101604052809291908181526020018280546123e3906137e8565b80156124305780601f1061240557610100808354040283529160200191612430565b820191906000526020600020905b81548152906001019060200180831161241357829003601f168201915b50505050508152602001600182018054612449906137e8565b80601f0160208091040260200160405190810160405280929190818152602001828054612475906137e8565b80156124c25780601f10612497576101008083540402835291602001916124c2565b820191906000526020600020905b8154815290600101906020018083116124a557829003601f168201915b505050505081526020016002820160009054906101000a900473ffffffffffffffffffffffffffffffffffffffff1673ffffffffffffffffffffffffffffffffffffffff1673ffffffffffffffffffffffffffffffffffffffff1681526020016003820160009054906101000a900473ffffffffffffffffffffffffffffffffffffffff1673ffffffffffffffffffffffffffffffffffffffff1673ffffffffffffffffffffffffffffffffffffffff1681526020016004820160009054906101000a900473ffffffffffffffffffffffffffffffffffffffff1673ffffffffffffffffffffffffffffffffffffffff1673ffffffffffffffffffffffffffffffffffffffff1681526020016005820180546125dd906137e8565b80601f0160208091040260200160405190810160405280929190818152602001828054612609906137e8565b80156126565780601f1061262b57610100808354040283529160200191612656565b820191906000526020600020905b81548152906001019060200180831161263957829003601f168201915b50505050508152602001600682015481526020016007820160009054906101000a900460ff1660038111156126b4577f4e487b7100000000000000000000000000000000000000000000000000000000600052602160045260246000fd5b60038111156126ec577f4e487b7100000000000000000000000000000000000000000000000000000000600052602160045260246000fd5b81525050905060038081111561272b577f4e487b7100000000000000000000000000000000000000000000000000000000600052602160045260246000fd5b8160e001906003811115612768577f4e487b7100000000000000000000000000000000000000000000000000000000600052602160045260246000fd5b908160038111156127a2577f4e487b7100000000000000000000000000000000000000000000000000000000600052602160045260246000fd5b81525050806002876040516127b7919061343f565b908152602001604051809103902060008201518160000190805190602001906127e1929190612f51565b5060208201518160010190805190602001906127fe929190612f51565b5060408201518160020160006101000a81548173ffffffffffffffffffffffffffffffffffffffff021916908373ffffffffffffffffffffffffffffffffffffffff16021790555060608201518160030160006101000a81548173ffffffffffffffffffffffffffffffffffffffff021916908373ffffffffffffffffffffffffffffffffffffffff16021790555060808201518160040160006101000a81548173ffffffffffffffffffffffffffffffffffffffff021916908373ffffffffffffffffffffffffffffffffffffffff16021790555060a08201518160050190805190602001906128f0929190612f51565b5060c0820151816006015560e08201518160070160006101000a81548160ff0219169083600381111561294c577f4e487b7100000000000000000000000000000000000000000000000000000000600052602160045260246000fd5b02179055509050508060400151816080015182606001518360c001519450945094509450509193509193565b600160009054906101000a900473ffffffffffffffffffffffffffffffffffffffff1681565b60008060009054906101000a900473ffffffffffffffffffffffffffffffffffffffff1673ffffffffffffffffffffffffffffffffffffffff163373ffffffffffffffffffffffffffffffffffffffff161480612a485750600160009054906101000a900473ffffffffffffffffffffffffffffffffffffffff1673ffffffffffffffffffffffffffffffffffffffff163373ffffffffffffffffffffffffffffffffffffffff16145b612a87576040517f08c379a0000000000000000000000000000000000000000000000000000000008152600401612a7e90613638565b60405180910390fd5b6000600483604051612a99919061343f565b908152602001604051809103902054905080915050919050565b606060001515600160159054906101000a900460ff16151514612b0b576040517f08c379a0000000000000000000000000000000000000000000000000000000008152600401612b02906135f8565b60405180910390fd5b81600160006101000a81548173ffffffffffffffffffffffffffffffffffffffff021916908373ffffffffffffffffffffffffffffffffffffffff16021790555060018060156101000a81548160ff0219169083151502179055506040518060600160405280602d8152602001613a2a602d91399050919050565b60608160ff166003811115612bc4577f4e487b7100000000000000000000000000000000000000000000000000000000600052602160045260246000fd5b6003811115612bfc577f4e487b7100000000000000000000000000000000000000000000000000000000600052602160045260246000fd5b60006003811115612c36577f4e487b7100000000000000000000000000000000000000000000000000000000600052602160045260246000fd5b1415612c79576040518060400160405280600781526020017f4f726465726564000000000000000000000000000000000000000000000000008152509050612f4c565b8160ff166003811115612cb5577f4e487b7100000000000000000000000000000000000000000000000000000000600052602160045260246000fd5b6003811115612ced577f4e487b7100000000000000000000000000000000000000000000000000000000600052602160045260246000fd5b60016003811115612d27577f4e487b7100000000000000000000000000000000000000000000000000000000600052602160045260246000fd5b1415612d6a576040518060400160405280600981526020017f496e5472616e73697400000000000000000000000000000000000000000000008152509050612f4c565b8160ff166003811115612da6577f4e487b7100000000000000000000000000000000000000000000000000000000600052602160045260246000fd5b6003811115612dde577f4e487b7100000000000000000000000000000000000000000000000000000000600052602160045260246000fd5b60026003811115612e18577f4e487b7100000000000000000000000000000000000000000000000000000000600052602160045260246000fd5b1415612e5b576040518060400160405280600981526020017f44656c69766572656400000000000000000000000000000000000000000000008152509050612f4c565b8160ff166003811115612e97577f4e487b7100000000000000000000000000000000000000000000000000000000600052602160045260246000fd5b6003811115612ecf577f4e487b7100000000000000000000000000000000000000000000000000000000600052602160045260246000fd5b600380811115612f08577f4e487b7100000000000000000000000000000000000000000000000000000000600052602160045260246000fd5b1415612f4b576040518060400160405280600981526020017f436f6d706c6574656400000000000000000000000000000000000000000000008152509050612f4c565b5b919050565b828054612f5d906137e8565b90600052602060002090601f016020900481019282612f7f5760008555612fc6565b82601f10612f9857805160ff1916838001178555612fc6565b82800160010185558215612fc6579182015b82811115612fc5578251825591602001919060010190612faa565b5b509050612fd39190612fd7565b5090565b5b80821115612ff0576000816000905550600101612fd8565b5090565b6000613007613002846136c8565b6136a3565b90508281526020810184848401111561301f57600080fd5b61302a8482856137a6565b509392505050565b600081359050613041816139d0565b92915050565b600082601f83011261305857600080fd5b8135613068848260208601612ff4565b91505092915050565b600081359050613080816139e7565b92915050565b60006020828403121561309857600080fd5b60006130a684828501613032565b91505092915050565b600080604083850312156130c257600080fd5b60006130d085828601613032565b925050602083013567ffffffffffffffff8111156130ed57600080fd5b6130f985828601613047565b9150509250929050565b60006020828403121561311557600080fd5b600082013567ffffffffffffffff81111561312f57600080fd5b61313b84828501613047565b91505092915050565b60008060008060008060c0878903121561315d57600080fd5b600087013567ffffffffffffffff81111561317757600080fd5b61318389828a01613047565b965050602087013567ffffffffffffffff8111156131a057600080fd5b6131ac89828a01613047565b95505060406131bd89828a01613032565b94505060606131ce89828a01613032565b935050608087013567ffffffffffffffff8111156131eb57600080fd5b6131f789828a01613047565b92505060a061320889828a01613071565b9150509295509295509295565b6000806040838503121561322857600080fd5b600083013567ffffffffffffffff81111561324257600080fd5b61324e85828601613047565b925050602061325f85828601613071565b9150509250929050565b60006132758383613301565b905092915050565b6132868161376a565b82525050565b600061329782613709565b6132a1818561372c565b9350836020820285016132b3856136f9565b8060005b858110156132ef57848403895281516132d08582613269565b94506132db8361371f565b925060208a019950506001810190506132b7565b50829750879550505050505092915050565b600061330c82613714565b613316818561373d565b93506133268185602086016137b5565b61332f816138a9565b840191505092915050565b600061334582613714565b61334f818561374e565b935061335f8185602086016137b5565b613368816138a9565b840191505092915050565b600061337e82613714565b613388818561375f565b93506133988185602086016137b5565b80840191505092915050565b60006133b160198361374e565b91506133bc826138ba565b602082019050919050565b60006133d460388361374e565b91506133df826138e3565b604082019050919050565b60006133f760368361374e565b915061340282613932565b604082019050919050565b600061341a60218361374e565b915061342582613981565b604082019050919050565b6134398161379c565b82525050565b600061344b8284613373565b915081905092915050565b600060208201905061346b600083018461327d565b92915050565b6000608082019050613486600083018761327d565b613493602083018661327d565b6134a0604083018561327d565b6134ad6060830184613430565b95945050505050565b60006040820190506134cb600083018561327d565b81810360208301526134dd818461333a565b90509392505050565b60006020820190508181036000830152613500818461333a565b905092915050565b600060c0820190508181036000830152613522818961333a565b9050613531602083018861327d565b61353e604083018761327d565b8181036060830152613550818661333a565b905061355f6080830185613430565b81810360a0830152613571818461333a565b9050979650505050505050565b60006080820190508181036000830152613598818761333a565b905081810360208301526135ac818661333a565b90506135bb6040830185613430565b81810360608301526135cd818461333a565b905095945050505050565b600060208201905081810360008301526135f1816133a4565b9050919050565b60006020820190508181036000830152613611816133c7565b9050919050565b60006020820190508181036000830152613631816133ea565b9050919050565b600060208201905081810360008301526136518161340d565b9050919050565b600060208201905061366d6000830184613430565b92915050565b60006040820190506136886000830185613430565b818103602083015261369a818461328c565b90509392505050565b60006136ad6136be565b90506136b9828261381a565b919050565b6000604051905090565b600067ffffffffffffffff8211156136e3576136e261387a565b5b6136ec826138a9565b9050602081019050919050565b6000819050602082019050919050565b600081519050919050565b600081519050919050565b6000602082019050919050565b600082825260208201905092915050565b600082825260208201905092915050565b600082825260208201905092915050565b600081905092915050565b60006137758261377c565b9050919050565b600073ffffffffffffffffffffffffffffffffffffffff82169050919050565b6000819050919050565b82818337600083830152505050565b60005b838110156137d35780820151818401526020810190506137b8565b838111156137e2576000848401525b50505050565b6000600282049050600182168061380057607f821691505b602082108114156138145761381361384b565b5b50919050565b613823826138a9565b810181811067ffffffffffffffff821117156138425761384161387a565b5b80604052505050565b7f4e487b7100000000000000000000000000000000000000000000000000000000600052602260045260246000fd5b7f4e487b7100000000000000000000000000000000000000000000000000000000600052604160045260246000fd5b6000601f19601f8301169050919050565b7f4f7264657220697320616c72656164792061737369676e656400000000000000600082015250565b7f466f6f6469657a204f7264657273202d20526567697374657220616c7265616460008201527f79207365742e2043616e6e6f74206265204368616e6765640000000000000000602082015250565b7f466f6f6469657a204f7264657273202d20506172656e7420616c72656164792060008201527f7365742e2043616e6e6f74206265204368616e67656400000000000000000000602082015250565b7f4f6e6c79204f776e65722063616e2063616c6c20746869732066756e6374696f60008201527f6e00000000000000000000000000000000000000000000000000000000000000602082015250565b6139d98161376a565b81146139e457600080fd5b50565b6139f08161379c565b81146139fb57600080fd5b5056fe466f6f6469657a204f726465727320706172656e7420636f6e74726163742061646472657373207365742e466f6f6469657a204f726465727320726567697374657220636f6e74726163742061646472657373207365742ea264697066735822122067c6b9c79f1d7e02405c7d098b6ea35559ac9e0fc19fee8df54471de22297db564736f6c63430008030033",
  "immutableReferences": {},
  "source": "pragma solidity ^0.8.1;\n// pragma solidity 0.7.6;\n// \"SPDX-License-Identifier: UNLICENSED\"\n\ncontract FoodiezOrders {\n    \n    /************************ Unique Address to be used for Customer, Restaurant and Delivery Driver******************/\n    address public parentContractAddress;\n    address public registerContractAddress;\n    bool isParentContractSet = false;\n    bool isRegisterContract = false;\n    \n    function setParentContract(address _address) public returns(string memory) {\n        require(isParentContractSet == false,\"Foodiez Orders - Parent already set. Cannot be Changed\");\n        parentContractAddress = _address;\n        isParentContractSet = true;\n        \n        return(\"Foodiez Orders parent contract address set.\");\n    }\n    \n    function setRegisterContract(address _address) public returns(string memory) {\n        require(isRegisterContract == false,\"Foodiez Orders - Register already set. Cannot be Changed\");\n        registerContractAddress = _address;\n        isRegisterContract = true;\n        \n        return(\"Foodiez Orders register contract address set.\");\n    }\n    \n    modifier OnlyParent(){\n        require(msg.sender == parentContractAddress || msg.sender == registerContractAddress, \"Only Owner can call this function\");\n        _; // this underscore is requierd otherwise compiler will break;\n    }\n     \n     //Account creation all users will have default 0 tokens. \n     // Customer will earn token by making puchases\n     //Drivers will earn tokens in the form of tips ( from customers ) or by refering new drivers\n     \n     enum OrderStatus {Ordered, InTransit, Delivered, Completed}\n     \n     struct Order{\n         string orderId;\n         string restaurantId;\n         address restaurantAddress;\n         address userAddress;\n         address driverAddress;\n         string items;\n         uint total;\n         OrderStatus status;\n     }\n     \n     mapping(string => Order) UserOrders; // unique user order id to order.\n     mapping(address => Order) DriverOrderAssignment; // order assigned to driver. \n     mapping(string => uint256) OrderIdTokenPay;\n\n     string[] UserOrderArray;\n     \n     uint256 orderTotalCount = 0;\n     \n     uint NetworkServiceFee = 2;\n     uint DriverFlatFee = 2;\n     \n     \n     /*******Events *************/\n     event OrderAssignedToDriver(uint value, address sender);\n     event OrderDeliveredToCustomer(bytes data, address sender);\n     \n    /**************************User Food Orders***************************************************************************************************************************************/\n    function createFoodOrderEntry( string memory _uniqueOrderId, string memory _rId, address _restaurantAddress, address _userAddress, string memory _itemName, uint _total) \n    public payable OnlyParent returns(string memory, string memory, uint256, string memory) {\n        \n        Order memory order = Order(_uniqueOrderId, _rId, _restaurantAddress, _userAddress,address(0x0), _itemName, _total, OrderStatus(0));\n        UserOrders[_uniqueOrderId] = order;\n        UserOrderArray.push(_uniqueOrderId);\n        \n        return( _uniqueOrderId, _itemName, _total, getOrderStatusFriendly(uint8(order.status)) );\n    }\n\n    function getAllUserOrders() public view OnlyParent returns (uint256, string[] memory userOrders){\n        return (UserOrderArray.length, UserOrderArray);\n    }\n    \n    function getUserOrderStatus(string memory userOrderId) public view OnlyParent returns(string memory, address, address, string memory, uint256, string memory){\n        Order memory order = UserOrders[userOrderId];\n        \n        return (order.orderId, order.userAddress, order.driverAddress, order.items, order.total, getOrderStatusFriendly(uint8(order.status)));\n    }\n     \n     \n     /**************************Food Orders assignment and delivery*******************************************************************/\n    function assignOrderToDriver(address _deliveryAddress, string memory userOrderId) public OnlyParent returns (address, string memory){\n         //check user order to see if driverAddress is set already\n         Order memory order = UserOrders[userOrderId];\n         require(order.driverAddress == address(0x0), \"Order is already assigned\");\n         \n         order.driverAddress = _deliveryAddress;\n         order.status = OrderStatus(1);\n         UserOrders[userOrderId] = order;\n         DriverOrderAssignment[_deliveryAddress] = order;\n         // stake token so that driver cant cheat the customer\n         \n         return(order.driverAddress, getOrderStatusFriendly(uint8(order.status)) );\n         \n    }\n     \n    function driverDelieveredOrder(address _deliveryAddress, string memory userOrderId) public OnlyParent returns (address, string memory){\n\n         Order memory order = UserOrders[userOrderId];\n         order.status = OrderStatus(2);\n         UserOrders[userOrderId] = order;\n         \n         DriverOrderAssignment[_deliveryAddress] = order;\n         \n         return(order.driverAddress, getOrderStatusFriendly(uint8(order.status)) );\n    }\n     \n    function orderDeliveryConfirmed(string memory userOrderId ) public  OnlyParent returns (address, address, address, uint ){\n        Order memory order = UserOrders[userOrderId];\n        order.status = OrderStatus(3);\n        UserOrders[userOrderId] = order;\n        \n    \n    return (payable(order.restaurantAddress), payable(order.driverAddress), payable(order.userAddress), order.total );\n    \n    //  orderPayments(order.total , payable(order.restaurantAddress), payable(order.driverAddress), msg.value, order.restaurantId, _restaurantRating);\n    }\n     \n    /*************************************Order Helpers ************************************************************************/\n    function getOrderStatusFriendly(uint8 _orderStatus) internal pure returns (string memory status) {\n        \n        if(OrderStatus.Ordered == OrderStatus(_orderStatus) ) return \"Ordered\";\n        if(OrderStatus.InTransit == OrderStatus(_orderStatus) ) return \"InTransit\";\n        if(OrderStatus.Delivered == OrderStatus(_orderStatus) ) return \"Delivered\";\n        if(OrderStatus.Completed == OrderStatus(_orderStatus) ) return \"Completed\";\n    }\n    \n    function setTokenPayOrder(string memory _uniqueOrderId, uint256 tokenPay) public OnlyParent {\n        OrderIdTokenPay[_uniqueOrderId] = tokenPay;\n    }\n    \n    function getTokenPayOrder(string memory _uniqueOrderId) public view OnlyParent returns(uint256){\n        uint256 tokenPay = OrderIdTokenPay[_uniqueOrderId];\n        return tokenPay;\n    }\n    \n}",
  "sourcePath": "/home/dinesh/Blockchain-Projects/EthereumSolidityProject/contracts/orders.sol",
  "compiler": {
    "name": "solc",
    "version": "0.8.3+commit.8d00100c.Emscripten.clang"
  },
  "schemaVersion": "3.3.3",
  "updatedAt": "2021-04-02T05:33:50.537Z",
  "networkType": "ethereum",
  "devdoc": {
    "kind": "dev",
    "methods": {},
    "version": 1
  },
  "userdoc": {
    "kind": "user",
    "methods": {},
    "version": 1
  }
}