{
  "contractName": "FoodiezOrders",
  "abi": [
    {
      "anonymous": false,
      "inputs": [
        {
          "indexed": false,
          "internalType": "uint256",
          "name": "value",
          "type": "uint256"
        },
        {
          "indexed": false,
          "internalType": "address",
          "name": "sender",
          "type": "address"
        }
      ],
      "name": "OrderAssignedToDriver",
      "type": "event"
    },
    {
      "anonymous": false,
      "inputs": [
        {
          "indexed": false,
          "internalType": "bytes",
          "name": "data",
          "type": "bytes"
        },
        {
          "indexed": false,
          "internalType": "address",
          "name": "sender",
          "type": "address"
        }
      ],
      "name": "OrderDeliveredToCustomer",
      "type": "event"
    },
    {
      "inputs": [],
      "name": "_foodiezHelpers",
      "outputs": [
        {
          "internalType": "contract FoodiezHelpersInterface",
          "name": "",
          "type": "address"
        }
      ],
      "stateMutability": "view",
      "type": "function"
    },
    {
      "inputs": [],
      "name": "parentContractAddress",
      "outputs": [
        {
          "internalType": "address",
          "name": "",
          "type": "address"
        }
      ],
      "stateMutability": "view",
      "type": "function"
    },
    {
      "inputs": [],
      "name": "registerContractAddress",
      "outputs": [
        {
          "internalType": "address",
          "name": "",
          "type": "address"
        }
      ],
      "stateMutability": "view",
      "type": "function"
    },
    {
      "inputs": [
        {
          "internalType": "address",
          "name": "_address",
          "type": "address"
        }
      ],
      "name": "setParentContract",
      "outputs": [
        {
          "internalType": "string",
          "name": "",
          "type": "string"
        }
      ],
      "stateMutability": "nonpayable",
      "type": "function"
    },
    {
      "inputs": [
        {
          "internalType": "address",
          "name": "_address",
          "type": "address"
        }
      ],
      "name": "setRegisterContract",
      "outputs": [
        {
          "internalType": "string",
          "name": "",
          "type": "string"
        }
      ],
      "stateMutability": "nonpayable",
      "type": "function"
    },
    {
      "inputs": [
        {
          "internalType": "string",
          "name": "_userName",
          "type": "string"
        },
        {
          "internalType": "string",
          "name": "_rId",
          "type": "string"
        },
        {
          "internalType": "address",
          "name": "_restaurantAddress",
          "type": "address"
        },
        {
          "internalType": "address",
          "name": "_userAddress",
          "type": "address"
        },
        {
          "internalType": "string",
          "name": "_itemName",
          "type": "string"
        },
        {
          "internalType": "uint256",
          "name": "_total",
          "type": "uint256"
        }
      ],
      "name": "createFoodOrderEntry",
      "outputs": [
        {
          "internalType": "string",
          "name": "",
          "type": "string"
        },
        {
          "internalType": "string",
          "name": "",
          "type": "string"
        },
        {
          "internalType": "uint256",
          "name": "",
          "type": "uint256"
        },
        {
          "internalType": "string",
          "name": "",
          "type": "string"
        }
      ],
      "stateMutability": "payable",
      "type": "function"
    },
    {
      "inputs": [
        {
          "internalType": "address",
          "name": "_userAddress",
          "type": "address"
        }
      ],
      "name": "getAllUserOrders",
      "outputs": [
        {
          "internalType": "uint256",
          "name": "",
          "type": "uint256"
        }
      ],
      "stateMutability": "view",
      "type": "function"
    },
    {
      "inputs": [
        {
          "internalType": "string",
          "name": "userOrderId",
          "type": "string"
        }
      ],
      "name": "getUserOrderStatus",
      "outputs": [
        {
          "internalType": "string",
          "name": "",
          "type": "string"
        },
        {
          "internalType": "address",
          "name": "",
          "type": "address"
        },
        {
          "internalType": "address",
          "name": "",
          "type": "address"
        },
        {
          "internalType": "string",
          "name": "",
          "type": "string"
        },
        {
          "internalType": "uint256",
          "name": "",
          "type": "uint256"
        },
        {
          "internalType": "string",
          "name": "",
          "type": "string"
        }
      ],
      "stateMutability": "view",
      "type": "function"
    },
    {
      "inputs": [
        {
          "internalType": "address",
          "name": "_deliveryAddress",
          "type": "address"
        },
        {
          "internalType": "string",
          "name": "userOrderId",
          "type": "string"
        }
      ],
      "name": "assignOrderToDriver",
      "outputs": [
        {
          "internalType": "address",
          "name": "",
          "type": "address"
        },
        {
          "internalType": "string",
          "name": "",
          "type": "string"
        }
      ],
      "stateMutability": "nonpayable",
      "type": "function"
    },
    {
      "inputs": [
        {
          "internalType": "address",
          "name": "_deliveryAddress",
          "type": "address"
        },
        {
          "internalType": "string",
          "name": "userOrderId",
          "type": "string"
        }
      ],
      "name": "driverDelieveredOrder",
      "outputs": [
        {
          "internalType": "address",
          "name": "",
          "type": "address"
        },
        {
          "internalType": "string",
          "name": "",
          "type": "string"
        }
      ],
      "stateMutability": "nonpayable",
      "type": "function"
    },
    {
      "inputs": [
        {
          "internalType": "string",
          "name": "userOrderId",
          "type": "string"
        }
      ],
      "name": "orderDeliveryConfirmed",
      "outputs": [
        {
          "internalType": "address",
          "name": "",
          "type": "address"
        },
        {
          "internalType": "address",
          "name": "",
          "type": "address"
        },
        {
          "internalType": "address",
          "name": "",
          "type": "address"
        },
        {
          "internalType": "uint256",
          "name": "",
          "type": "uint256"
        }
      ],
      "stateMutability": "nonpayable",
      "type": "function"
    },
    {
      "inputs": [
        {
          "internalType": "string",
          "name": "_uniqueOrderId",
          "type": "string"
        },
        {
          "internalType": "uint256",
          "name": "tokenPay",
          "type": "uint256"
        }
      ],
      "name": "setTokenPayOrder",
      "outputs": [],
      "stateMutability": "nonpayable",
      "type": "function"
    },
    {
      "inputs": [
        {
          "internalType": "string",
          "name": "_uniqueOrderId",
          "type": "string"
        }
      ],
      "name": "getTokenPayOrder",
      "outputs": [
        {
          "internalType": "uint256",
          "name": "",
          "type": "uint256"
        }
      ],
      "stateMutability": "view",
      "type": "function"
    }
  ],
  "bytecode": "0x60806040526000600260146101000a81548160ff0219169083151502179055506000600260156101000a81548160ff02191690831515021790555060006007556002600855600260095534801561005557600080fd5b50613c02806100656000396000f3fe6080604052600436106100c25760003560e01c806395f9eb8f1161007f578063b1a68ff211610059578063b1a68ff2146102b1578063c25783f7146102f1578063d182dbcd1461031c578063e150a2e814610359576100c2565b806395f9eb8f146102205780639b4708d11461025d578063ae596d4e14610286576100c2565b80634500901e146100c757806357c86669146100fa578063617aada914610138578063748f9f1214610163578063765ccb6b146101a15780637ab8ae16146101de575b600080fd5b6100e160048036038101906100dc919061330c565b610396565b6040516100f194939291906136d2565b60405180910390f35b34801561010657600080fd5b50610121600480360381019061011c9190613236565b6108f4565b60405161012f9291906135ef565b60405180910390f35b34801561014457600080fd5b5061014d611288565b60405161015a919061361f565b60405180910390f35b34801561016f57600080fd5b5061018a60048036038101906101859190613236565b6112ae565b6040516101989291906135ef565b60405180910390f35b3480156101ad57600080fd5b506101c860048036038101906101c3919061320d565b611b97565b6040516101d5919061363a565b60405180910390f35b3480156101ea57600080fd5b506102056004803603810190610200919061328a565b611c6a565b6040516102179695949392919061365c565b60405180910390f35b34801561022c57600080fd5b506102476004803603810190610242919061320d565b612146565b60405161025491906137ac565b60405180910390f35b34801561026957600080fd5b50610284600480360381019061027f91906133dd565b61227c565b005b34801561029257600080fd5b5061029b612389565b6040516102a8919061358f565b60405180910390f35b3480156102bd57600080fd5b506102d860048036038101906102d3919061328a565b6123ad565b6040516102e894939291906135aa565b60405180910390f35b3480156102fd57600080fd5b50610306612a96565b604051610313919061358f565b60405180910390f35b34801561032857600080fd5b50610343600480360381019061033e919061328a565b612abc565b60405161035091906137ac565b60405180910390f35b34801561036557600080fd5b50610380600480360381019061037b919061320d565b612bd1565b60405161038d919061363a565b60405180910390f35b6060806000606060008054906101000a900473ffffffffffffffffffffffffffffffffffffffff1673ffffffffffffffffffffffffffffffffffffffff163373ffffffffffffffffffffffffffffffffffffffff1614806104445750600160009054906101000a900473ffffffffffffffffffffffffffffffffffffffff1673ffffffffffffffffffffffffffffffffffffffff163373ffffffffffffffffffffffffffffffffffffffff16145b610483576040517f08c379a000000000000000000000000000000000000000000000000000000000815260040161047a9061378c565b60405180910390fd5b6000600460008973ffffffffffffffffffffffffffffffffffffffff1673ffffffffffffffffffffffffffffffffffffffff1681526020019081526020016000205490506000600260009054906101000a900473ffffffffffffffffffffffffffffffffffffffff1673ffffffffffffffffffffffffffffffffffffffff1663f76f950e836040518263ffffffff1660e01b815260040161052491906137ac565b60006040518083038186803b15801561053c57600080fd5b505afa158015610550573d6000803e3d6000fd5b505050506040513d6000823e3d601f19601f8201168201806040525081019061057991906132cb565b905060008c8260405160200161059092919061356b565b604051602081830303815290604052905060006040518061010001604052808381526020018e81526020018d73ffffffffffffffffffffffffffffffffffffffff1681526020018c73ffffffffffffffffffffffffffffffffffffffff168152602001600073ffffffffffffffffffffffffffffffffffffffff1681526020018b81526020018a815260200160006003811115610656577f4e487b7100000000000000000000000000000000000000000000000000000000600052602160045260246000fd5b600381111561068e577f4e487b7100000000000000000000000000000000000000000000000000000000600052602160045260246000fd5b8152509050838061069e90613949565b945050806003836040516106b29190613554565b908152602001604051809103902060008201518160000190805190602001906106dc929190613070565b5060208201518160010190805190602001906106f9929190613070565b5060408201518160020160006101000a81548173ffffffffffffffffffffffffffffffffffffffff021916908373ffffffffffffffffffffffffffffffffffffffff16021790555060608201518160030160006101000a81548173ffffffffffffffffffffffffffffffffffffffff021916908373ffffffffffffffffffffffffffffffffffffffff16021790555060808201518160040160006101000a81548173ffffffffffffffffffffffffffffffffffffffff021916908373ffffffffffffffffffffffffffffffffffffffff16021790555060a08201518160050190805190602001906107eb929190613070565b5060c0820151816006015560e08201518160070160006101000a81548160ff02191690836003811115610847577f4e487b7100000000000000000000000000000000000000000000000000000000600052602160045260246000fd5b021790555090505083600460008d73ffffffffffffffffffffffffffffffffffffffff1673ffffffffffffffffffffffffffffffffffffffff16815260200190815260200160002081905550818a8a6108db8460e0015160038111156108d6577f4e487b7100000000000000000000000000000000000000000000000000000000600052602160045260246000fd5b612ca5565b9750975097509750505050509650965096509692505050565b6000606060008054906101000a900473ffffffffffffffffffffffffffffffffffffffff1673ffffffffffffffffffffffffffffffffffffffff163373ffffffffffffffffffffffffffffffffffffffff16148061099f5750600160009054906101000a900473ffffffffffffffffffffffffffffffffffffffff1673ffffffffffffffffffffffffffffffffffffffff163373ffffffffffffffffffffffffffffffffffffffff16145b6109de576040517f08c379a00000000000000000000000000000000000000000000000000000000081526004016109d59061378c565b60405180910390fd5b60006003846040516109f09190613554565b908152602001604051809103902060405180610100016040529081600082018054610a1a906138e6565b80601f0160208091040260200160405190810160405280929190818152602001828054610a46906138e6565b8015610a935780601f10610a6857610100808354040283529160200191610a93565b820191906000526020600020905b815481529060010190602001808311610a7657829003601f168201915b50505050508152602001600182018054610aac906138e6565b80601f0160208091040260200160405190810160405280929190818152602001828054610ad8906138e6565b8015610b255780601f10610afa57610100808354040283529160200191610b25565b820191906000526020600020905b815481529060010190602001808311610b0857829003601f168201915b505050505081526020016002820160009054906101000a900473ffffffffffffffffffffffffffffffffffffffff1673ffffffffffffffffffffffffffffffffffffffff1673ffffffffffffffffffffffffffffffffffffffff1681526020016003820160009054906101000a900473ffffffffffffffffffffffffffffffffffffffff1673ffffffffffffffffffffffffffffffffffffffff1673ffffffffffffffffffffffffffffffffffffffff1681526020016004820160009054906101000a900473ffffffffffffffffffffffffffffffffffffffff1673ffffffffffffffffffffffffffffffffffffffff1673ffffffffffffffffffffffffffffffffffffffff168152602001600582018054610c40906138e6565b80601f0160208091040260200160405190810160405280929190818152602001828054610c6c906138e6565b8015610cb95780601f10610c8e57610100808354040283529160200191610cb9565b820191906000526020600020905b815481529060010190602001808311610c9c57829003601f168201915b50505050508152602001600682015481526020016007820160009054906101000a900460ff166003811115610d17577f4e487b7100000000000000000000000000000000000000000000000000000000600052602160045260246000fd5b6003811115610d4f577f4e487b7100000000000000000000000000000000000000000000000000000000600052602160045260246000fd5b815250509050600073ffffffffffffffffffffffffffffffffffffffff16816080015173ffffffffffffffffffffffffffffffffffffffff1614610dc8576040517f08c379a0000000000000000000000000000000000000000000000000000000008152600401610dbf9061372c565b60405180910390fd5b84816080019073ffffffffffffffffffffffffffffffffffffffff16908173ffffffffffffffffffffffffffffffffffffffff168152505060016003811115610e3a577f4e487b7100000000000000000000000000000000000000000000000000000000600052602160045260246000fd5b8160e001906003811115610e77577f4e487b7100000000000000000000000000000000000000000000000000000000600052602160045260246000fd5b90816003811115610eb1577f4e487b7100000000000000000000000000000000000000000000000000000000600052602160045260246000fd5b8152505080600385604051610ec69190613554565b90815260200160405180910390206000820151816000019080519060200190610ef0929190613070565b506020820151816001019080519060200190610f0d929190613070565b5060408201518160020160006101000a81548173ffffffffffffffffffffffffffffffffffffffff021916908373ffffffffffffffffffffffffffffffffffffffff16021790555060608201518160030160006101000a81548173ffffffffffffffffffffffffffffffffffffffff021916908373ffffffffffffffffffffffffffffffffffffffff16021790555060808201518160040160006101000a81548173ffffffffffffffffffffffffffffffffffffffff021916908373ffffffffffffffffffffffffffffffffffffffff16021790555060a0820151816005019080519060200190610fff929190613070565b5060c0820151816006015560e08201518160070160006101000a81548160ff0219169083600381111561105b577f4e487b7100000000000000000000000000000000000000000000000000000000600052602160045260246000fd5b021790555090505080600560008773ffffffffffffffffffffffffffffffffffffffff1673ffffffffffffffffffffffffffffffffffffffff16815260200190815260200160002060008201518160000190805190602001906110bf929190613070565b5060208201518160010190805190602001906110dc929190613070565b5060408201518160020160006101000a81548173ffffffffffffffffffffffffffffffffffffffff021916908373ffffffffffffffffffffffffffffffffffffffff16021790555060608201518160030160006101000a81548173ffffffffffffffffffffffffffffffffffffffff021916908373ffffffffffffffffffffffffffffffffffffffff16021790555060808201518160040160006101000a81548173ffffffffffffffffffffffffffffffffffffffff021916908373ffffffffffffffffffffffffffffffffffffffff16021790555060a08201518160050190805190602001906111ce929190613070565b5060c0820151816006015560e08201518160070160006101000a81548160ff0219169083600381111561122a577f4e487b7100000000000000000000000000000000000000000000000000000000600052602160045260246000fd5b0217905550905050806080015161127c8260e001516003811115611277577f4e487b7100000000000000000000000000000000000000000000000000000000600052602160045260246000fd5b612ca5565b92509250509250929050565b600260009054906101000a900473ffffffffffffffffffffffffffffffffffffffff1681565b6000606060008054906101000a900473ffffffffffffffffffffffffffffffffffffffff1673ffffffffffffffffffffffffffffffffffffffff163373ffffffffffffffffffffffffffffffffffffffff1614806113595750600160009054906101000a900473ffffffffffffffffffffffffffffffffffffffff1673ffffffffffffffffffffffffffffffffffffffff163373ffffffffffffffffffffffffffffffffffffffff16145b611398576040517f08c379a000000000000000000000000000000000000000000000000000000000815260040161138f9061378c565b60405180910390fd5b60006003846040516113aa9190613554565b9081526020016040518091039020604051806101000160405290816000820180546113d4906138e6565b80601f0160208091040260200160405190810160405280929190818152602001828054611400906138e6565b801561144d5780601f106114225761010080835404028352916020019161144d565b820191906000526020600020905b81548152906001019060200180831161143057829003601f168201915b50505050508152602001600182018054611466906138e6565b80601f0160208091040260200160405190810160405280929190818152602001828054611492906138e6565b80156114df5780601f106114b4576101008083540402835291602001916114df565b820191906000526020600020905b8154815290600101906020018083116114c257829003601f168201915b505050505081526020016002820160009054906101000a900473ffffffffffffffffffffffffffffffffffffffff1673ffffffffffffffffffffffffffffffffffffffff1673ffffffffffffffffffffffffffffffffffffffff1681526020016003820160009054906101000a900473ffffffffffffffffffffffffffffffffffffffff1673ffffffffffffffffffffffffffffffffffffffff1673ffffffffffffffffffffffffffffffffffffffff1681526020016004820160009054906101000a900473ffffffffffffffffffffffffffffffffffffffff1673ffffffffffffffffffffffffffffffffffffffff1673ffffffffffffffffffffffffffffffffffffffff1681526020016005820180546115fa906138e6565b80601f0160208091040260200160405190810160405280929190818152602001828054611626906138e6565b80156116735780601f1061164857610100808354040283529160200191611673565b820191906000526020600020905b81548152906001019060200180831161165657829003601f168201915b50505050508152602001600682015481526020016007820160009054906101000a900460ff1660038111156116d1577f4e487b7100000000000000000000000000000000000000000000000000000000600052602160045260246000fd5b6003811115611709577f4e487b7100000000000000000000000000000000000000000000000000000000600052602160045260246000fd5b81525050905060026003811115611749577f4e487b7100000000000000000000000000000000000000000000000000000000600052602160045260246000fd5b8160e001906003811115611786577f4e487b7100000000000000000000000000000000000000000000000000000000600052602160045260246000fd5b908160038111156117c0577f4e487b7100000000000000000000000000000000000000000000000000000000600052602160045260246000fd5b81525050806003856040516117d59190613554565b908152602001604051809103902060008201518160000190805190602001906117ff929190613070565b50602082015181600101908051906020019061181c929190613070565b5060408201518160020160006101000a81548173ffffffffffffffffffffffffffffffffffffffff021916908373ffffffffffffffffffffffffffffffffffffffff16021790555060608201518160030160006101000a81548173ffffffffffffffffffffffffffffffffffffffff021916908373ffffffffffffffffffffffffffffffffffffffff16021790555060808201518160040160006101000a81548173ffffffffffffffffffffffffffffffffffffffff021916908373ffffffffffffffffffffffffffffffffffffffff16021790555060a082015181600501908051906020019061190e929190613070565b5060c0820151816006015560e08201518160070160006101000a81548160ff0219169083600381111561196a577f4e487b7100000000000000000000000000000000000000000000000000000000600052602160045260246000fd5b021790555090505080600560008773ffffffffffffffffffffffffffffffffffffffff1673ffffffffffffffffffffffffffffffffffffffff16815260200190815260200160002060008201518160000190805190602001906119ce929190613070565b5060208201518160010190805190602001906119eb929190613070565b5060408201518160020160006101000a81548173ffffffffffffffffffffffffffffffffffffffff021916908373ffffffffffffffffffffffffffffffffffffffff16021790555060608201518160030160006101000a81548173ffffffffffffffffffffffffffffffffffffffff021916908373ffffffffffffffffffffffffffffffffffffffff16021790555060808201518160040160006101000a81548173ffffffffffffffffffffffffffffffffffffffff021916908373ffffffffffffffffffffffffffffffffffffffff16021790555060a0820151816005019080519060200190611add929190613070565b5060c0820151816006015560e08201518160070160006101000a81548160ff02191690836003811115611b39577f4e487b7100000000000000000000000000000000000000000000000000000000600052602160045260246000fd5b02179055509050508060800151611b8b8260e001516003811115611b86577f4e487b7100000000000000000000000000000000000000000000000000000000600052602160045260246000fd5b612ca5565b92509250509250929050565b606060001515600260149054906101000a900460ff16151514611bef576040517f08c379a0000000000000000000000000000000000000000000000000000000008152600401611be69061376c565b60405180910390fd5b816000806101000a81548173ffffffffffffffffffffffffffffffffffffffff021916908373ffffffffffffffffffffffffffffffffffffffff1602179055506001600260146101000a81548160ff0219169083151502179055506040518060600160405280602b8152602001613b75602b91399050919050565b606060008060606000606060008054906101000a900473ffffffffffffffffffffffffffffffffffffffff1673ffffffffffffffffffffffffffffffffffffffff163373ffffffffffffffffffffffffffffffffffffffff161480611d1c5750600160009054906101000a900473ffffffffffffffffffffffffffffffffffffffff1673ffffffffffffffffffffffffffffffffffffffff163373ffffffffffffffffffffffffffffffffffffffff16145b611d5b576040517f08c379a0000000000000000000000000000000000000000000000000000000008152600401611d529061378c565b60405180910390fd5b6000600388604051611d6d9190613554565b908152602001604051809103902060405180610100016040529081600082018054611d97906138e6565b80601f0160208091040260200160405190810160405280929190818152602001828054611dc3906138e6565b8015611e105780601f10611de557610100808354040283529160200191611e10565b820191906000526020600020905b815481529060010190602001808311611df357829003601f168201915b50505050508152602001600182018054611e29906138e6565b80601f0160208091040260200160405190810160405280929190818152602001828054611e55906138e6565b8015611ea25780601f10611e7757610100808354040283529160200191611ea2565b820191906000526020600020905b815481529060010190602001808311611e8557829003601f168201915b505050505081526020016002820160009054906101000a900473ffffffffffffffffffffffffffffffffffffffff1673ffffffffffffffffffffffffffffffffffffffff1673ffffffffffffffffffffffffffffffffffffffff1681526020016003820160009054906101000a900473ffffffffffffffffffffffffffffffffffffffff1673ffffffffffffffffffffffffffffffffffffffff1673ffffffffffffffffffffffffffffffffffffffff1681526020016004820160009054906101000a900473ffffffffffffffffffffffffffffffffffffffff1673ffffffffffffffffffffffffffffffffffffffff1673ffffffffffffffffffffffffffffffffffffffff168152602001600582018054611fbd906138e6565b80601f0160208091040260200160405190810160405280929190818152602001828054611fe9906138e6565b80156120365780601f1061200b57610100808354040283529160200191612036565b820191906000526020600020905b81548152906001019060200180831161201957829003601f168201915b50505050508152602001600682015481526020016007820160009054906101000a900460ff166003811115612094577f4e487b7100000000000000000000000000000000000000000000000000000000600052602160045260246000fd5b60038111156120cc577f4e487b7100000000000000000000000000000000000000000000000000000000600052602160045260246000fd5b8152505090508060000151816060015182608001518360a001518460c001516121308660e00151600381111561212b577f4e487b7100000000000000000000000000000000000000000000000000000000600052602160045260246000fd5b612ca5565b9650965096509650965096505091939550919395565b60008060009054906101000a900473ffffffffffffffffffffffffffffffffffffffff1673ffffffffffffffffffffffffffffffffffffffff163373ffffffffffffffffffffffffffffffffffffffff1614806121f05750600160009054906101000a900473ffffffffffffffffffffffffffffffffffffffff1673ffffffffffffffffffffffffffffffffffffffff163373ffffffffffffffffffffffffffffffffffffffff16145b61222f576040517f08c379a00000000000000000000000000000000000000000000000000000000081526004016122269061378c565b60405180910390fd5b6000600460008473ffffffffffffffffffffffffffffffffffffffff1673ffffffffffffffffffffffffffffffffffffffff16815260200190815260200160002054905080915050919050565b60008054906101000a900473ffffffffffffffffffffffffffffffffffffffff1673ffffffffffffffffffffffffffffffffffffffff163373ffffffffffffffffffffffffffffffffffffffff1614806123235750600160009054906101000a900473ffffffffffffffffffffffffffffffffffffffff1673ffffffffffffffffffffffffffffffffffffffff163373ffffffffffffffffffffffffffffffffffffffff16145b612362576040517f08c379a00000000000000000000000000000000000000000000000000000000081526004016123599061378c565b60405180910390fd5b806006836040516123739190613554565b9081526020016040518091039020819055505050565b60008054906101000a900473ffffffffffffffffffffffffffffffffffffffff1681565b60008060008060008054906101000a900473ffffffffffffffffffffffffffffffffffffffff1673ffffffffffffffffffffffffffffffffffffffff163373ffffffffffffffffffffffffffffffffffffffff16148061245a5750600160009054906101000a900473ffffffffffffffffffffffffffffffffffffffff1673ffffffffffffffffffffffffffffffffffffffff163373ffffffffffffffffffffffffffffffffffffffff16145b612499576040517f08c379a00000000000000000000000000000000000000000000000000000000081526004016124909061378c565b60405180910390fd5b60006003866040516124ab9190613554565b9081526020016040518091039020604051806101000160405290816000820180546124d5906138e6565b80601f0160208091040260200160405190810160405280929190818152602001828054612501906138e6565b801561254e5780601f106125235761010080835404028352916020019161254e565b820191906000526020600020905b81548152906001019060200180831161253157829003601f168201915b50505050508152602001600182018054612567906138e6565b80601f0160208091040260200160405190810160405280929190818152602001828054612593906138e6565b80156125e05780601f106125b5576101008083540402835291602001916125e0565b820191906000526020600020905b8154815290600101906020018083116125c357829003601f168201915b505050505081526020016002820160009054906101000a900473ffffffffffffffffffffffffffffffffffffffff1673ffffffffffffffffffffffffffffffffffffffff1673ffffffffffffffffffffffffffffffffffffffff1681526020016003820160009054906101000a900473ffffffffffffffffffffffffffffffffffffffff1673ffffffffffffffffffffffffffffffffffffffff1673ffffffffffffffffffffffffffffffffffffffff1681526020016004820160009054906101000a900473ffffffffffffffffffffffffffffffffffffffff1673ffffffffffffffffffffffffffffffffffffffff1673ffffffffffffffffffffffffffffffffffffffff1681526020016005820180546126fb906138e6565b80601f0160208091040260200160405190810160405280929190818152602001828054612727906138e6565b80156127745780601f1061274957610100808354040283529160200191612774565b820191906000526020600020905b81548152906001019060200180831161275757829003601f168201915b50505050508152602001600682015481526020016007820160009054906101000a900460ff1660038111156127d2577f4e487b7100000000000000000000000000000000000000000000000000000000600052602160045260246000fd5b600381111561280a577f4e487b7100000000000000000000000000000000000000000000000000000000600052602160045260246000fd5b815250509050600380811115612849577f4e487b7100000000000000000000000000000000000000000000000000000000600052602160045260246000fd5b8160e001906003811115612886577f4e487b7100000000000000000000000000000000000000000000000000000000600052602160045260246000fd5b908160038111156128c0577f4e487b7100000000000000000000000000000000000000000000000000000000600052602160045260246000fd5b81525050806003876040516128d59190613554565b908152602001604051809103902060008201518160000190805190602001906128ff929190613070565b50602082015181600101908051906020019061291c929190613070565b5060408201518160020160006101000a81548173ffffffffffffffffffffffffffffffffffffffff021916908373ffffffffffffffffffffffffffffffffffffffff16021790555060608201518160030160006101000a81548173ffffffffffffffffffffffffffffffffffffffff021916908373ffffffffffffffffffffffffffffffffffffffff16021790555060808201518160040160006101000a81548173ffffffffffffffffffffffffffffffffffffffff021916908373ffffffffffffffffffffffffffffffffffffffff16021790555060a0820151816005019080519060200190612a0e929190613070565b5060c0820151816006015560e08201518160070160006101000a81548160ff02191690836003811115612a6a577f4e487b7100000000000000000000000000000000000000000000000000000000600052602160045260246000fd5b02179055509050508060400151816080015182606001518360c001519450945094509450509193509193565b600160009054906101000a900473ffffffffffffffffffffffffffffffffffffffff1681565b60008060009054906101000a900473ffffffffffffffffffffffffffffffffffffffff1673ffffffffffffffffffffffffffffffffffffffff163373ffffffffffffffffffffffffffffffffffffffff161480612b665750600160009054906101000a900473ffffffffffffffffffffffffffffffffffffffff1673ffffffffffffffffffffffffffffffffffffffff163373ffffffffffffffffffffffffffffffffffffffff16145b612ba5576040517f08c379a0000000000000000000000000000000000000000000000000000000008152600401612b9c9061378c565b60405180910390fd5b6000600683604051612bb79190613554565b908152602001604051809103902054905080915050919050565b606060001515600260159054906101000a900460ff16151514612c29576040517f08c379a0000000000000000000000000000000000000000000000000000000008152600401612c209061374c565b60405180910390fd5b81600160006101000a81548173ffffffffffffffffffffffffffffffffffffffff021916908373ffffffffffffffffffffffffffffffffffffffff1602179055506001600260156101000a81548160ff0219169083151502179055506040518060600160405280602d8152602001613ba0602d91399050919050565b60608160ff166003811115612ce3577f4e487b7100000000000000000000000000000000000000000000000000000000600052602160045260246000fd5b6003811115612d1b577f4e487b7100000000000000000000000000000000000000000000000000000000600052602160045260246000fd5b60006003811115612d55577f4e487b7100000000000000000000000000000000000000000000000000000000600052602160045260246000fd5b1415612d98576040518060400160405280600781526020017f4f72646572656400000000000000000000000000000000000000000000000000815250905061306b565b8160ff166003811115612dd4577f4e487b7100000000000000000000000000000000000000000000000000000000600052602160045260246000fd5b6003811115612e0c577f4e487b7100000000000000000000000000000000000000000000000000000000600052602160045260246000fd5b60016003811115612e46577f4e487b7100000000000000000000000000000000000000000000000000000000600052602160045260246000fd5b1415612e89576040518060400160405280600981526020017f496e5472616e7369740000000000000000000000000000000000000000000000815250905061306b565b8160ff166003811115612ec5577f4e487b7100000000000000000000000000000000000000000000000000000000600052602160045260246000fd5b6003811115612efd577f4e487b7100000000000000000000000000000000000000000000000000000000600052602160045260246000fd5b60026003811115612f37577f4e487b7100000000000000000000000000000000000000000000000000000000600052602160045260246000fd5b1415612f7a576040518060400160405280600981526020017f44656c6976657265640000000000000000000000000000000000000000000000815250905061306b565b8160ff166003811115612fb6577f4e487b7100000000000000000000000000000000000000000000000000000000600052602160045260246000fd5b6003811115612fee577f4e487b7100000000000000000000000000000000000000000000000000000000600052602160045260246000fd5b600380811115613027577f4e487b7100000000000000000000000000000000000000000000000000000000600052602160045260246000fd5b141561306a576040518060400160405280600981526020017f436f6d706c657465640000000000000000000000000000000000000000000000815250905061306b565b5b919050565b82805461307c906138e6565b90600052602060002090601f01602090048101928261309e57600085556130e5565b82601f106130b757805160ff19168380011785556130e5565b828001600101855582156130e5579182015b828111156130e45782518255916020019190600101906130c9565b5b5090506130f291906130f6565b5090565b5b8082111561310f5760008160009055506001016130f7565b5090565b6000613126613121846137ec565b6137c7565b90508281526020810184848401111561313e57600080fd5b6131498482856138a4565b509392505050565b600061316461315f846137ec565b6137c7565b90508281526020810184848401111561317c57600080fd5b6131878482856138b3565b509392505050565b60008135905061319e81613b46565b92915050565b600082601f8301126131b557600080fd5b81356131c5848260208601613113565b91505092915050565b600082601f8301126131df57600080fd5b81516131ef848260208601613151565b91505092915050565b60008135905061320781613b5d565b92915050565b60006020828403121561321f57600080fd5b600061322d8482850161318f565b91505092915050565b6000806040838503121561324957600080fd5b60006132578582860161318f565b925050602083013567ffffffffffffffff81111561327457600080fd5b613280858286016131a4565b9150509250929050565b60006020828403121561329c57600080fd5b600082013567ffffffffffffffff8111156132b657600080fd5b6132c2848285016131a4565b91505092915050565b6000602082840312156132dd57600080fd5b600082015167ffffffffffffffff8111156132f757600080fd5b613303848285016131ce565b91505092915050565b60008060008060008060c0878903121561332557600080fd5b600087013567ffffffffffffffff81111561333f57600080fd5b61334b89828a016131a4565b965050602087013567ffffffffffffffff81111561336857600080fd5b61337489828a016131a4565b955050604061338589828a0161318f565b945050606061339689828a0161318f565b935050608087013567ffffffffffffffff8111156133b357600080fd5b6133bf89828a016131a4565b92505060a06133d089828a016131f8565b9150509295509295509295565b600080604083850312156133f057600080fd5b600083013567ffffffffffffffff81111561340a57600080fd5b613416858286016131a4565b9250506020613427858286016131f8565b9150509250929050565b61343a81613844565b82525050565b61344981613880565b82525050565b600061345a8261381d565b6134648185613828565b93506134748185602086016138b3565b61347d81613a1f565b840191505092915050565b60006134938261381d565b61349d8185613839565b93506134ad8185602086016138b3565b80840191505092915050565b60006134c6601983613828565b91506134d182613a30565b602082019050919050565b60006134e9603883613828565b91506134f482613a59565b604082019050919050565b600061350c603683613828565b915061351782613aa8565b604082019050919050565b600061352f602183613828565b915061353a82613af7565b604082019050919050565b61354e81613876565b82525050565b60006135608284613488565b915081905092915050565b60006135778285613488565b91506135838284613488565b91508190509392505050565b60006020820190506135a46000830184613431565b92915050565b60006080820190506135bf6000830187613431565b6135cc6020830186613431565b6135d96040830185613431565b6135e66060830184613545565b95945050505050565b60006040820190506136046000830185613431565b8181036020830152613616818461344f565b90509392505050565b60006020820190506136346000830184613440565b92915050565b60006020820190508181036000830152613654818461344f565b905092915050565b600060c0820190508181036000830152613676818961344f565b90506136856020830188613431565b6136926040830187613431565b81810360608301526136a4818661344f565b90506136b36080830185613545565b81810360a08301526136c5818461344f565b9050979650505050505050565b600060808201905081810360008301526136ec818761344f565b90508181036020830152613700818661344f565b905061370f6040830185613545565b8181036060830152613721818461344f565b905095945050505050565b60006020820190508181036000830152613745816134b9565b9050919050565b60006020820190508181036000830152613765816134dc565b9050919050565b60006020820190508181036000830152613785816134ff565b9050919050565b600060208201905081810360008301526137a581613522565b9050919050565b60006020820190506137c16000830184613545565b92915050565b60006137d16137e2565b90506137dd8282613918565b919050565b6000604051905090565b600067ffffffffffffffff821115613807576138066139f0565b5b61381082613a1f565b9050602081019050919050565b600081519050919050565b600082825260208201905092915050565b600081905092915050565b600061384f82613856565b9050919050565b600073ffffffffffffffffffffffffffffffffffffffff82169050919050565b6000819050919050565b600061388b82613892565b9050919050565b600061389d82613856565b9050919050565b82818337600083830152505050565b60005b838110156138d15780820151818401526020810190506138b6565b838111156138e0576000848401525b50505050565b600060028204905060018216806138fe57607f821691505b60208210811415613912576139116139c1565b5b50919050565b61392182613a1f565b810181811067ffffffffffffffff821117156139405761393f6139f0565b5b80604052505050565b600061395482613876565b91507fffffffffffffffffffffffffffffffffffffffffffffffffffffffffffffffff82141561398757613986613992565b5b600182019050919050565b7f4e487b7100000000000000000000000000000000000000000000000000000000600052601160045260246000fd5b7f4e487b7100000000000000000000000000000000000000000000000000000000600052602260045260246000fd5b7f4e487b7100000000000000000000000000000000000000000000000000000000600052604160045260246000fd5b6000601f19601f8301169050919050565b7f4f7264657220697320616c72656164792061737369676e656400000000000000600082015250565b7f466f6f6469657a204f7264657273202d20526567697374657220616c7265616460008201527f79207365742e2043616e6e6f74206265204368616e6765640000000000000000602082015250565b7f466f6f6469657a204f7264657273202d20506172656e7420616c72656164792060008201527f7365742e2043616e6e6f74206265204368616e67656400000000000000000000602082015250565b7f4f6e6c79204f776e65722063616e2063616c6c20746869732066756e6374696f60008201527f6e00000000000000000000000000000000000000000000000000000000000000602082015250565b613b4f81613844565b8114613b5a57600080fd5b50565b613b6681613876565b8114613b7157600080fd5b5056fe466f6f6469657a204f726465727320706172656e7420636f6e74726163742061646472657373207365742e466f6f6469657a204f726465727320726567697374657220636f6e74726163742061646472657373207365742ea2646970667358221220c8163a78a0ce23cd955a46fa8f912a04af85d81857fef3cbcb41ba38957b662764736f6c63430008030033",
  "immutableReferences": {},
  "source": "pragma solidity ^0.8.1;\n// pragma solidity 0.7.6;\n// \"SPDX-License-Identifier: UNLICENSED\"\nimport \"./helpers_interface.sol\";\n\ncontract FoodiezOrders {\n    \n    /************************ Unique Address to be used for Customer, Restaurant and Delivery Driver******************/\n    address public parentContractAddress;\n    address public registerContractAddress;\n\n    FoodiezHelpersInterface public _foodiezHelpers;\n\n    bool isParentContractSet = false;\n    bool isRegisterContract = false;\n    \n    function setParentContract(address _address) public returns(string memory) {\n        require(isParentContractSet == false,\"Foodiez Orders - Parent already set. Cannot be Changed\");\n        parentContractAddress = _address;\n        isParentContractSet = true;\n        \n        return(\"Foodiez Orders parent contract address set.\");\n    }\n    \n    function setRegisterContract(address _address) public returns(string memory) {\n        require(isRegisterContract == false,\"Foodiez Orders - Register already set. Cannot be Changed\");\n        registerContractAddress = _address;\n        isRegisterContract = true;\n        \n        return(\"Foodiez Orders register contract address set.\");\n    }\n    \n    modifier OnlyParent(){\n        require(msg.sender == parentContractAddress || msg.sender == registerContractAddress, \"Only Owner can call this function\");\n        _; // this underscore is requierd otherwise compiler will break;\n    }\n     \n     //Account creation all users will have default 0 tokens. \n     // Customer will earn token by making puchases\n     //Drivers will earn tokens in the form of tips ( from customers ) or by refering new drivers\n     \n     enum OrderStatus {Ordered, InTransit, Delivered, Completed}\n     \n     struct Order{\n         string orderId;\n         string restaurantId;\n         address restaurantAddress;\n         address userAddress;\n         address driverAddress;\n         string items;\n         uint total;\n         OrderStatus status;\n     }\n     \n     mapping(string => Order) UserOrders; // unique user order id to order.\n     mapping(address => uint256) UserOrderCount;\n     mapping(address => Order) DriverOrderAssignment; // order assigned to driver. \n     mapping(string => uint256) OrderIdTokenPay;\n     \n     uint256 orderTotalCount = 0;\n     \n     uint NetworkServiceFee = 2;\n     uint DriverFlatFee = 2;\n     \n     \n     /*******Events *************/\n     event OrderAssignedToDriver(uint value, address sender);\n     event OrderDeliveredToCustomer(bytes data, address sender);\n     \n    /**************************User Food Orders***************************************************************************************************************************************/\n    function createFoodOrderEntry( string memory _userName, string memory _rId, address _restaurantAddress, address _userAddress, string memory _itemName, uint _total) \n    public payable OnlyParent returns(string memory, string memory, uint256, string memory) {\n        \n        uint256 count = UserOrderCount[_userAddress];\n                \n        string memory orderNumString = _foodiezHelpers.uint2str(count);\n        string memory uniqueUserOrderId = string(abi.encodePacked(_userName, orderNumString));\n\n        Order memory order = Order(uniqueUserOrderId, _rId, _restaurantAddress, _userAddress,address(0x0), _itemName, _total, OrderStatus(0));\n        count++;\n        UserOrders[uniqueUserOrderId] = order;\n        UserOrderCount[_userAddress] = count;\n\n        return( uniqueUserOrderId, _itemName, _total, getOrderStatusFriendly(uint8(order.status)) );\n    }\n\n    function getAllUserOrders(address _userAddress) public view OnlyParent returns (uint256){\n        uint256 userCount = UserOrderCount[_userAddress];\n\n        return (userCount);\n    }\n    \n    function getUserOrderStatus(string memory userOrderId) public view OnlyParent returns(string memory, address, address, string memory, uint256, string memory){\n        Order memory order = UserOrders[userOrderId];\n        \n        return (order.orderId, order.userAddress, order.driverAddress, order.items, order.total, getOrderStatusFriendly(uint8(order.status)));\n    }\n     \n     \n     /**************************Food Orders assignment and delivery*******************************************************************/\n    function assignOrderToDriver(address _deliveryAddress, string memory userOrderId) public OnlyParent returns (address, string memory){\n         //check user order to see if driverAddress is set already\n         Order memory order = UserOrders[userOrderId];\n         require(order.driverAddress == address(0x0), \"Order is already assigned\");\n         \n         order.driverAddress = _deliveryAddress;\n         order.status = OrderStatus(1);\n         UserOrders[userOrderId] = order;\n         DriverOrderAssignment[_deliveryAddress] = order;\n         // stake token so that driver cant cheat the customer\n         \n         return(order.driverAddress, getOrderStatusFriendly(uint8(order.status)) );\n         \n    }\n     \n    function driverDelieveredOrder(address _deliveryAddress, string memory userOrderId) public OnlyParent returns (address, string memory){\n\n         Order memory order = UserOrders[userOrderId];\n         order.status = OrderStatus(2);\n         UserOrders[userOrderId] = order;\n         \n         DriverOrderAssignment[_deliveryAddress] = order;\n         \n         return(order.driverAddress, getOrderStatusFriendly(uint8(order.status)) );\n    }\n     \n    function orderDeliveryConfirmed(string memory userOrderId ) public  OnlyParent returns (address, address, address, uint ){\n        Order memory order = UserOrders[userOrderId];\n        order.status = OrderStatus(3);\n        UserOrders[userOrderId] = order;\n        \n    \n    return (payable(order.restaurantAddress), payable(order.driverAddress), payable(order.userAddress), order.total );\n    \n    //  orderPayments(order.total , payable(order.restaurantAddress), payable(order.driverAddress), msg.value, order.restaurantId, _restaurantRating);\n    }\n     \n    /*************************************Order Helpers ************************************************************************/\n    function getOrderStatusFriendly(uint8 _orderStatus) internal pure returns (string memory status) {\n        \n        if(OrderStatus.Ordered == OrderStatus(_orderStatus) ) return \"Ordered\";\n        if(OrderStatus.InTransit == OrderStatus(_orderStatus) ) return \"InTransit\";\n        if(OrderStatus.Delivered == OrderStatus(_orderStatus) ) return \"Delivered\";\n        if(OrderStatus.Completed == OrderStatus(_orderStatus) ) return \"Completed\";\n    }\n    \n    function setTokenPayOrder(string memory _uniqueOrderId, uint256 tokenPay) public OnlyParent {\n        OrderIdTokenPay[_uniqueOrderId] = tokenPay;\n    }\n    \n    function getTokenPayOrder(string memory _uniqueOrderId) public view OnlyParent returns(uint256){\n        uint256 tokenPay = OrderIdTokenPay[_uniqueOrderId];\n        return tokenPay;\n    }\n    \n}",
  "sourcePath": "/home/dinesh/Blockchain-Projects/EthereumSolidityProject/contracts/orders.sol",
  "compiler": {
    "name": "solc",
    "version": "0.8.3+commit.8d00100c.Emscripten.clang"
  },
  "schemaVersion": "3.3.3",
  "updatedAt": "2021-04-03T03:46:11.498Z",
  "devdoc": {
    "kind": "dev",
    "methods": {},
    "version": 1
  },
  "userdoc": {
    "kind": "user",
    "methods": {},
    "version": 1
  }
}