{
  "contractName": "FoodiezRegistration",
  "abi": [
    {
      "inputs": [
        {
          "internalType": "contract FoodiezHelpersInterface",
          "name": "_helperAddress",
          "type": "address"
        },
        {
          "internalType": "contract FoodiezOrdersInterface",
          "name": "_orderAddress",
          "type": "address"
        }
      ],
      "stateMutability": "nonpayable",
      "type": "constructor"
    },
    {
      "inputs": [],
      "name": "_foodiezHelpers",
      "outputs": [
        {
          "internalType": "contract FoodiezHelpersInterface",
          "name": "",
          "type": "address"
        }
      ],
      "stateMutability": "view",
      "type": "function",
      "constant": true
    },
    {
      "inputs": [],
      "name": "_foodiezOrders",
      "outputs": [
        {
          "internalType": "contract FoodiezOrdersInterface",
          "name": "",
          "type": "address"
        }
      ],
      "stateMutability": "view",
      "type": "function",
      "constant": true
    },
    {
      "inputs": [],
      "name": "parentContractAddress",
      "outputs": [
        {
          "internalType": "address",
          "name": "",
          "type": "address"
        }
      ],
      "stateMutability": "view",
      "type": "function",
      "constant": true
    },
    {
      "inputs": [
        {
          "internalType": "address",
          "name": "_address",
          "type": "address"
        }
      ],
      "name": "setParentContract",
      "outputs": [
        {
          "internalType": "string",
          "name": "",
          "type": "string"
        }
      ],
      "stateMutability": "nonpayable",
      "type": "function"
    },
    {
      "inputs": [
        {
          "internalType": "address",
          "name": "_address",
          "type": "address"
        },
        {
          "internalType": "string",
          "name": "name",
          "type": "string"
        },
        {
          "internalType": "uint256",
          "name": "uType",
          "type": "uint256"
        }
      ],
      "name": "userRegistration",
      "outputs": [
        {
          "internalType": "bool",
          "name": "",
          "type": "bool"
        }
      ],
      "stateMutability": "nonpayable",
      "type": "function"
    },
    {
      "inputs": [
        {
          "internalType": "address",
          "name": "_address",
          "type": "address"
        }
      ],
      "name": "getUserInfo",
      "outputs": [
        {
          "internalType": "string",
          "name": "",
          "type": "string"
        },
        {
          "internalType": "address",
          "name": "",
          "type": "address"
        },
        {
          "internalType": "string",
          "name": "",
          "type": "string"
        },
        {
          "internalType": "uint256",
          "name": "",
          "type": "uint256"
        }
      ],
      "stateMutability": "view",
      "type": "function",
      "constant": true
    },
    {
      "inputs": [
        {
          "internalType": "address",
          "name": "_address",
          "type": "address"
        },
        {
          "internalType": "string",
          "name": "_name",
          "type": "string"
        },
        {
          "internalType": "string",
          "name": "_rId",
          "type": "string"
        }
      ],
      "name": "createRestaurant",
      "outputs": [
        {
          "internalType": "bool",
          "name": "",
          "type": "bool"
        }
      ],
      "stateMutability": "nonpayable",
      "type": "function"
    },
    {
      "inputs": [
        {
          "internalType": "address",
          "name": "_address",
          "type": "address"
        },
        {
          "internalType": "string",
          "name": "_itemName",
          "type": "string"
        },
        {
          "internalType": "uint256",
          "name": "_type",
          "type": "uint256"
        },
        {
          "internalType": "uint256",
          "name": "_price",
          "type": "uint256"
        }
      ],
      "name": "addMenuItems",
      "outputs": [
        {
          "internalType": "string",
          "name": "",
          "type": "string"
        },
        {
          "internalType": "string",
          "name": "",
          "type": "string"
        },
        {
          "internalType": "string",
          "name": "",
          "type": "string"
        }
      ],
      "stateMutability": "nonpayable",
      "type": "function"
    },
    {
      "inputs": [
        {
          "internalType": "address",
          "name": "_restaurantAddress",
          "type": "address"
        },
        {
          "internalType": "uint256",
          "name": "_itemNumber",
          "type": "uint256"
        }
      ],
      "name": "getRestaurantMenu",
      "outputs": [
        {
          "internalType": "string",
          "name": "",
          "type": "string"
        },
        {
          "internalType": "string",
          "name": "",
          "type": "string"
        },
        {
          "internalType": "uint256",
          "name": "",
          "type": "uint256"
        }
      ],
      "stateMutability": "view",
      "type": "function",
      "constant": true
    },
    {
      "inputs": [
        {
          "internalType": "address",
          "name": "_restaurantAddress",
          "type": "address"
        }
      ],
      "name": "getrestaurantInfo",
      "outputs": [
        {
          "internalType": "string",
          "name": "",
          "type": "string"
        },
        {
          "internalType": "address",
          "name": "",
          "type": "address"
        },
        {
          "internalType": "uint256",
          "name": "",
          "type": "uint256"
        },
        {
          "internalType": "uint256",
          "name": "",
          "type": "uint256"
        }
      ],
      "stateMutability": "view",
      "type": "function",
      "constant": true
    },
    {
      "inputs": [],
      "name": "getTotalRestaurants",
      "outputs": [
        {
          "internalType": "uint256",
          "name": "",
          "type": "uint256"
        },
        {
          "internalType": "address[]",
          "name": "restAddresses",
          "type": "address[]"
        }
      ],
      "stateMutability": "view",
      "type": "function",
      "constant": true
    },
    {
      "inputs": [
        {
          "internalType": "address",
          "name": "_userAddress",
          "type": "address"
        },
        {
          "internalType": "address",
          "name": "_address",
          "type": "address"
        },
        {
          "internalType": "uint256",
          "name": "_itemNum",
          "type": "uint256"
        }
      ],
      "name": "getOrderTotal",
      "outputs": [
        {
          "internalType": "string",
          "name": "",
          "type": "string"
        },
        {
          "internalType": "address",
          "name": "",
          "type": "address"
        },
        {
          "internalType": "string",
          "name": "",
          "type": "string"
        },
        {
          "internalType": "uint256",
          "name": "",
          "type": "uint256"
        }
      ],
      "stateMutability": "view",
      "type": "function",
      "constant": true
    },
    {
      "inputs": [
        {
          "internalType": "string",
          "name": "rId",
          "type": "string"
        },
        {
          "internalType": "address",
          "name": "userAddress",
          "type": "address"
        },
        {
          "internalType": "address",
          "name": "restaurantAddress",
          "type": "address"
        },
        {
          "internalType": "string",
          "name": "itemName",
          "type": "string"
        },
        {
          "internalType": "uint256",
          "name": "totalPrice",
          "type": "uint256"
        }
      ],
      "name": "createFoodOrder",
      "outputs": [
        {
          "internalType": "string",
          "name": "",
          "type": "string"
        },
        {
          "internalType": "string",
          "name": "",
          "type": "string"
        },
        {
          "internalType": "uint256",
          "name": "",
          "type": "uint256"
        },
        {
          "internalType": "string",
          "name": "",
          "type": "string"
        }
      ],
      "stateMutability": "payable",
      "type": "function",
      "payable": true
    },
    {
      "inputs": [
        {
          "internalType": "address",
          "name": "_restaurantAddress",
          "type": "address"
        },
        {
          "internalType": "uint256",
          "name": "_restaurantRating",
          "type": "uint256"
        }
      ],
      "name": "addRestaurantRating",
      "outputs": [],
      "stateMutability": "nonpayable",
      "type": "function"
    },
    {
      "inputs": [
        {
          "internalType": "address",
          "name": "_address",
          "type": "address"
        },
        {
          "internalType": "uint256",
          "name": "_deliveryRating",
          "type": "uint256"
        }
      ],
      "name": "addDriverRating",
      "outputs": [],
      "stateMutability": "nonpayable",
      "type": "function"
    },
    {
      "inputs": [
        {
          "internalType": "address",
          "name": "_address",
          "type": "address"
        }
      ],
      "name": "checkUserDelivery",
      "outputs": [
        {
          "internalType": "bool",
          "name": "",
          "type": "bool"
        }
      ],
      "stateMutability": "view",
      "type": "function",
      "constant": true
    },
    {
      "inputs": [
        {
          "internalType": "address",
          "name": "_restaurantAddress",
          "type": "address"
        },
        {
          "internalType": "uint256",
          "name": "_itemNumber",
          "type": "uint256"
        }
      ],
      "name": "getItemInfo",
      "outputs": [
        {
          "internalType": "string",
          "name": "",
          "type": "string"
        },
        {
          "internalType": "uint256",
          "name": "",
          "type": "uint256"
        }
      ],
      "stateMutability": "view",
      "type": "function",
      "constant": true
    },
    {
      "inputs": [],
      "name": "getOrderCount",
      "outputs": [
        {
          "internalType": "uint256",
          "name": "",
          "type": "uint256"
        }
      ],
      "stateMutability": "view",
      "type": "function",
      "constant": true
    },
    {
      "inputs": [],
      "name": "incrementOrderCount",
      "outputs": [],
      "stateMutability": "nonpayable",
      "type": "function"
    }
  ],
  "bytecode": "0x60806040526000600360146101000a81548160ff0219169083151502179055506000600b556002600c556002600d553480156200003b57600080fd5b50604051620061ff380380620061ff833981810160405281019062000061919062000284565b33600260006101000a81548173ffffffffffffffffffffffffffffffffffffffff021916908373ffffffffffffffffffffffffffffffffffffffff160217905550816000806101000a81548173ffffffffffffffffffffffffffffffffffffffff021916908373ffffffffffffffffffffffffffffffffffffffff16021790555080600160006101000a81548173ffffffffffffffffffffffffffffffffffffffff021916908373ffffffffffffffffffffffffffffffffffffffff160217905550600160009054906101000a900473ffffffffffffffffffffffffffffffffffffffff1673ffffffffffffffffffffffffffffffffffffffff1663e150a2e8306040518263ffffffff1660e01b81526004016200018091906200031b565b600060405180830381600087803b1580156200019b57600080fd5b505af1158015620001b0573d6000803e3d6000fd5b505050506040513d6000823e3d601f19601f82011682018060405250810190620001db9190620002c5565b505050620004d3565b6000620001fb620001f58462000361565b62000338565b9050828152602081018484840111156200021457600080fd5b62000221848285620003f3565b509392505050565b6000815190506200023a816200049f565b92915050565b6000815190506200025181620004b9565b92915050565b600082601f8301126200026957600080fd5b81516200027b848260208601620001e4565b91505092915050565b600080604083850312156200029857600080fd5b6000620002a88582860162000229565b9250506020620002bb8582860162000240565b9150509250929050565b600060208284031215620002d857600080fd5b600082015167ffffffffffffffff811115620002f357600080fd5b620003018482850162000257565b91505092915050565b620003158162000397565b82525050565b60006020820190506200033260008301846200030a565b92915050565b60006200034462000357565b905062000352828262000429565b919050565b6000604051905090565b600067ffffffffffffffff8211156200037f576200037e6200045f565b5b6200038a826200048e565b9050602081019050919050565b6000620003a482620003d3565b9050919050565b6000620003b88262000397565b9050919050565b6000620003cc8262000397565b9050919050565b600073ffffffffffffffffffffffffffffffffffffffff82169050919050565b60005b8381101562000413578082015181840152602081019050620003f6565b8381111562000423576000848401525b50505050565b62000434826200048e565b810181811067ffffffffffffffff821117156200045657620004556200045f565b5b80604052505050565b7f4e487b7100000000000000000000000000000000000000000000000000000000600052604160045260246000fd5b6000601f19601f8301169050919050565b620004aa81620003ab565b8114620004b657600080fd5b50565b620004c481620003bf565b8114620004d057600080fd5b50565b615d1c80620004e36000396000f3fe6080604052600436106101145760003560e01c80637aa3eaf0116100a0578063ae596d4e11610064578063ae596d4e146103ea578063d8c01ed114610415578063debd2ec414610455578063dfe7669d14610494578063f0645d7a146104bd57610114565b80637aa3eaf01461030f57806384a101cd146103265780638ab7ad77146103595780638d0a5fbb14610382578063aded6039146103ad57610114565b80635f9d8de6116100e75780635f9d8de6146101fe578063617aada91461023b5780636386c1c71461026657806370771504146102a6578063765ccb6b146102d257610114565b806309630923146101195780632cfff5d6146101565780632d9ee1d114610194578063331723eb146101bf575b600080fd5b34801561012557600080fd5b50610140600480360381019061013b9190614c97565b6104fd565b60405161014d9190615318565b60405180910390f35b34801561016257600080fd5b5061017d60048036038101906101789190614df8565b61085d565b60405161018b92919061558b565b60405180910390f35b3480156101a057600080fd5b506101a9610d3b565b6040516101b6919061534e565b60405180910390f35b3480156101cb57600080fd5b506101e660048036038101906101e19190614df8565b610d61565b6040516101f5939291906154ec565b60405180910390f35b34801561020a57600080fd5b5061022560048036038101906102209190614c1f565b611317565b6040516102329190615318565b60405180910390f35b34801561024757600080fd5b5061025061155e565b60405161025d9190615333565b60405180910390f35b34801561027257600080fd5b5061028d60048036038101906102889190614c1f565b611582565b60405161029d949392919061538b565b60405180910390f35b3480156102b257600080fd5b506102bb6118b9565b6040516102c99291906156b6565b60405180910390f35b3480156102de57600080fd5b506102f960048036038101906102f49190614c1f565b6119e5565b6040516103069190615369565b60405180910390f35b34801561031b57600080fd5b50610324611ab9565b005b610340600480360381019061033b9190614e75565b611ad3565b6040516103509493929190615531565b60405180910390f35b34801561036557600080fd5b50610380600480360381019061037b9190614df8565b611e90565b005b34801561038e57600080fd5b50610397612582565b6040516103a4919061569b565b60405180910390f35b3480156103b957600080fd5b506103d460048036038101906103cf9190614d16565b61258c565b6040516103e19190615318565b60405180910390f35b3480156103f657600080fd5b506103ff612979565b60405161040c91906152fd565b60405180910390f35b34801561042157600080fd5b5061043c60048036038101906104379190614c1f565b61299f565b60405161044c94939291906153de565b60405180910390f35b34801561046157600080fd5b5061047c60048036038101906104779190614d7d565b612d79565b60405161048b939291906154a0565b60405180910390f35b3480156104a057600080fd5b506104bb60048036038101906104b69190614df8565b613302565b005b3480156104c957600080fd5b506104e460048036038101906104df9190614c48565b61392c565b6040516104f4949392919061538b565b60405180910390f35b6000600360009054906101000a900473ffffffffffffffffffffffffffffffffffffffff1673ffffffffffffffffffffffffffffffffffffffff163373ffffffffffffffffffffffffffffffffffffffff161461058f576040517f08c379a00000000000000000000000000000000000000000000000000000000081526004016105869061563b565b60405180910390fd5b6000151561059c85614038565b1515146105de576040517f08c379a00000000000000000000000000000000000000000000000000000000081526004016105d59061565b565b60405180910390fd5b606060006040518060e001604052808773ffffffffffffffffffffffffffffffffffffffff168152602001868152602001858152602001600081526020016000815260200183815260200160011515815250905080600760008873ffffffffffffffffffffffffffffffffffffffff1673ffffffffffffffffffffffffffffffffffffffff16815260200190815260200160002060008201518160000160006101000a81548173ffffffffffffffffffffffffffffffffffffffff021916908373ffffffffffffffffffffffffffffffffffffffff16021790555060208201518160010190805190602001906106d59291906148b4565b5060408201518160020190805190602001906106f29291906148b4565b50606082015181600301556080820151816004015560a082015181600501908051906020019061072392919061493a565b5060c08201518160060160006101000a81548160ff0219169083151502179055509050506006869080600181540180825580915050600190039060005260206000200160009091909190916101000a81548173ffffffffffffffffffffffffffffffffffffffff021916908373ffffffffffffffffffffffffffffffffffffffff16021790555060006040518060a00160405280600081526020016000815260200160008152602001600081526020016000815250905080600860008973ffffffffffffffffffffffffffffffffffffffff1673ffffffffffffffffffffffffffffffffffffffff1681526020019081526020016000206000820151816000015560208201518160010155604082015181600201556060820151816003015560808201518160040155905050600193505050509392505050565b606060006001151561086e85614038565b1515146108b0576040517f08c379a00000000000000000000000000000000000000000000000000000000081526004016108a7906155db565b60405180910390fd5b6000600760008673ffffffffffffffffffffffffffffffffffffffff1673ffffffffffffffffffffffffffffffffffffffff1681526020019081526020016000206040518060e00160405290816000820160009054906101000a900473ffffffffffffffffffffffffffffffffffffffff1673ffffffffffffffffffffffffffffffffffffffff1673ffffffffffffffffffffffffffffffffffffffff16815260200160018201805461096290615962565b80601f016020809104026020016040519081016040528092919081815260200182805461098e90615962565b80156109db5780601f106109b0576101008083540402835291602001916109db565b820191906000526020600020905b8154815290600101906020018083116109be57829003601f168201915b505050505081526020016002820180546109f490615962565b80601f0160208091040260200160405190810160405280929190818152602001828054610a2090615962565b8015610a6d5780601f10610a4257610100808354040283529160200191610a6d565b820191906000526020600020905b815481529060010190602001808311610a5057829003601f168201915b50505050508152602001600382015481526020016004820154815260200160058201805480602002602001604051908101604052809291908181526020016000905b82821015610b5b578382906000526020600020018054610ace90615962565b80601f0160208091040260200160405190810160405280929190818152602001828054610afa90615962565b8015610b475780601f10610b1c57610100808354040283529160200191610b47565b820191906000526020600020905b815481529060010190602001808311610b2a57829003601f168201915b505050505081526020019060010190610aaf565b5050505081526020016006820160009054906101000a900460ff161515151581525050905060008160a00151905060006009828781518110610bc6577f4e487b7100000000000000000000000000000000000000000000000000000000600052603260045260246000fd5b6020026020010151604051610bdb919061529e565b908152602001604051809103902060405180608001604052908160008201548152602001600182018054610c0e90615962565b80601f0160208091040260200160405190810160405280929190818152602001828054610c3a90615962565b8015610c875780601f10610c5c57610100808354040283529160200191610c87565b820191906000526020600020905b815481529060010190602001808311610c6a57829003601f168201915b505050505081526020016002820160009054906101000a900460ff166002811115610cdb577f4e487b7100000000000000000000000000000000000000000000000000000000600052602160045260246000fd5b6002811115610d13577f4e487b7100000000000000000000000000000000000000000000000000000000600052602160045260246000fd5b8152602001600382015481525050905080602001518160600151945094505050509250929050565b600160009054906101000a900473ffffffffffffffffffffffffffffffffffffffff1681565b6060806000600360009054906101000a900473ffffffffffffffffffffffffffffffffffffffff1673ffffffffffffffffffffffffffffffffffffffff163373ffffffffffffffffffffffffffffffffffffffff1614610df6576040517f08c379a0000000000000000000000000000000000000000000000000000000008152600401610ded9061563b565b60405180910390fd5b60011515610e0386614038565b151514610e45576040517f08c379a0000000000000000000000000000000000000000000000000000000008152600401610e3c906155db565b60405180910390fd5b6000600760008773ffffffffffffffffffffffffffffffffffffffff1673ffffffffffffffffffffffffffffffffffffffff1681526020019081526020016000206040518060e00160405290816000820160009054906101000a900473ffffffffffffffffffffffffffffffffffffffff1673ffffffffffffffffffffffffffffffffffffffff1673ffffffffffffffffffffffffffffffffffffffff168152602001600182018054610ef790615962565b80601f0160208091040260200160405190810160405280929190818152602001828054610f2390615962565b8015610f705780601f10610f4557610100808354040283529160200191610f70565b820191906000526020600020905b815481529060010190602001808311610f5357829003601f168201915b50505050508152602001600282018054610f8990615962565b80601f0160208091040260200160405190810160405280929190818152602001828054610fb590615962565b80156110025780601f10610fd757610100808354040283529160200191611002565b820191906000526020600020905b815481529060010190602001808311610fe557829003601f168201915b50505050508152602001600382015481526020016004820154815260200160058201805480602002602001604051908101604052809291908181526020016000905b828210156110f057838290600052602060002001805461106390615962565b80601f016020809104026020016040519081016040528092919081815260200182805461108f90615962565b80156110dc5780601f106110b1576101008083540402835291602001916110dc565b820191906000526020600020905b8154815290600101906020018083116110bf57829003601f168201915b505050505081526020019060010190611044565b5050505081526020016006820160009054906101000a900460ff161515151581525050905060008160a0015190506000600982888151811061115b577f4e487b7100000000000000000000000000000000000000000000000000000000600052603260045260246000fd5b6020026020010151604051611170919061529e565b9081526020016040518091039020604051806080016040529081600082015481526020016001820180546111a390615962565b80601f01602080910402602001604051908101604052809291908181526020018280546111cf90615962565b801561121c5780601f106111f15761010080835404028352916020019161121c565b820191906000526020600020905b8154815290600101906020018083116111ff57829003601f168201915b505050505081526020016002820160009054906101000a900460ff166002811115611270577f4e487b7100000000000000000000000000000000000000000000000000000000600052602160045260246000fd5b60028111156112a8577f4e487b7100000000000000000000000000000000000000000000000000000000600052602160045260246000fd5b815260200160038201548152505090508060200151611302826040015160028111156112fd577f4e487b7100000000000000000000000000000000000000000000000000000000600052602160045260246000fd5b614316565b82606001519550955095505050509250925092565b600080600460008473ffffffffffffffffffffffffffffffffffffffff1673ffffffffffffffffffffffffffffffffffffffff1681526020019081526020016000206040518060c001604052908160008201805461137490615962565b80601f01602080910402602001604051908101604052809291908181526020018280546113a090615962565b80156113ed5780601f106113c2576101008083540402835291602001916113ed565b820191906000526020600020905b8154815290600101906020018083116113d057829003601f168201915b505050505081526020016001820160009054906101000a900473ffffffffffffffffffffffffffffffffffffffff1673ffffffffffffffffffffffffffffffffffffffff1673ffffffffffffffffffffffffffffffffffffffff1681526020016001820160149054906101000a900460ff166001811115611497577f4e487b7100000000000000000000000000000000000000000000000000000000600052602160045260246000fd5b60018111156114cf577f4e487b7100000000000000000000000000000000000000000000000000000000600052602160045260246000fd5b815260200160028201548152602001600382015481526020016004820160009054906101000a900460ff1615151515815250509050600181604001516001811115611543577f4e487b7100000000000000000000000000000000000000000000000000000000600052602160045260246000fd5b1415611553576001915050611559565b60009150505b919050565b60008054906101000a900473ffffffffffffffffffffffffffffffffffffffff1681565b6060600060606000600360009054906101000a900473ffffffffffffffffffffffffffffffffffffffff1673ffffffffffffffffffffffffffffffffffffffff163373ffffffffffffffffffffffffffffffffffffffff161461161a576040517f08c379a00000000000000000000000000000000000000000000000000000000081526004016116119061563b565b60405180910390fd5b60011515611627866145f0565b151514611669576040517f08c379a0000000000000000000000000000000000000000000000000000000008152600401611660906155bb565b60405180910390fd5b6000600460008773ffffffffffffffffffffffffffffffffffffffff1673ffffffffffffffffffffffffffffffffffffffff1681526020019081526020016000206040518060c00160405290816000820180546116c590615962565b80601f01602080910402602001604051908101604052809291908181526020018280546116f190615962565b801561173e5780601f106117135761010080835404028352916020019161173e565b820191906000526020600020905b81548152906001019060200180831161172157829003601f168201915b505050505081526020016001820160009054906101000a900473ffffffffffffffffffffffffffffffffffffffff1673ffffffffffffffffffffffffffffffffffffffff1673ffffffffffffffffffffffffffffffffffffffff1681526020016001820160149054906101000a900460ff1660018111156117e8577f4e487b7100000000000000000000000000000000000000000000000000000000600052602160045260246000fd5b6001811115611820577f4e487b7100000000000000000000000000000000000000000000000000000000600052602160045260246000fd5b815260200160028201548152602001600382015481526020016004820160009054906101000a900460ff1615151515815250509050806000015181602001516118a48360400151600181111561189f577f4e487b7100000000000000000000000000000000000000000000000000000000600052602160045260246000fd5b6146cb565b83606001519450945094509450509193509193565b60006060600360009054906101000a900473ffffffffffffffffffffffffffffffffffffffff1673ffffffffffffffffffffffffffffffffffffffff163373ffffffffffffffffffffffffffffffffffffffff161461194d576040517f08c379a00000000000000000000000000000000000000000000000000000000081526004016119449061563b565b60405180910390fd5b6006805490506006808054806020026020016040519081016040528092919081815260200182805480156119d657602002820191906000526020600020905b8160009054906101000a900473ffffffffffffffffffffffffffffffffffffffff1673ffffffffffffffffffffffffffffffffffffffff168152602001906001019080831161198c575b50505050509050915091509091565b606060001515600360149054906101000a900460ff16151514611a3d576040517f08c379a0000000000000000000000000000000000000000000000000000000008152600401611a349061561b565b60405180910390fd5b81600360006101000a81548173ffffffffffffffffffffffffffffffffffffffff021916908373ffffffffffffffffffffffffffffffffffffffff1602179055506001600360146101000a81548160ff0219169083151502179055506040518060600160405280602b8152602001615cbc602b91399050919050565b600b6000815480929190611acc906159c5565b9190505550565b606080600060606000600460003373ffffffffffffffffffffffffffffffffffffffff1673ffffffffffffffffffffffffffffffffffffffff1681526020019081526020016000206040518060c0016040529081600082018054611b3690615962565b80601f0160208091040260200160405190810160405280929190818152602001828054611b6290615962565b8015611baf5780601f10611b8457610100808354040283529160200191611baf565b820191906000526020600020905b815481529060010190602001808311611b9257829003601f168201915b505050505081526020016001820160009054906101000a900473ffffffffffffffffffffffffffffffffffffffff1673ffffffffffffffffffffffffffffffffffffffff1673ffffffffffffffffffffffffffffffffffffffff1681526020016001820160149054906101000a900460ff166001811115611c59577f4e487b7100000000000000000000000000000000000000000000000000000000600052602160045260246000fd5b6001811115611c91577f4e487b7100000000000000000000000000000000000000000000000000000000600052602160045260246000fd5b815260200160028201548152602001600382015481526020016004820160009054906101000a900460ff161515151581525050905060008060009054906101000a900473ffffffffffffffffffffffffffffffffffffffff1673ffffffffffffffffffffffffffffffffffffffff1663f76f950e600b546040518263ffffffff1660e01b8152600401611d24919061569b565b60006040518083038186803b158015611d3c57600080fd5b505afa158015611d50573d6000803e3d6000fd5b505050506040513d6000823e3d601f19601f82011682018060405250810190611d799190614e34565b90506000826000015182604051602001611d949291906152b5565b6040516020818303038152906040529050600b6000815480929190611db8906159c5565b9190505550600160009054906101000a900473ffffffffffffffffffffffffffffffffffffffff1673ffffffffffffffffffffffffffffffffffffffff16634500901e828e8d8f8e8e6040518763ffffffff1660e01b8152600401611e229695949392919061542a565b600060405180830381600087803b158015611e3c57600080fd5b505af1158015611e50573d6000803e3d6000fd5b505050506040513d6000823e3d601f19601f82011682018060405250810190611e799190614f1c565b965096509650965050505095509550955095915050565b600360009054906101000a900473ffffffffffffffffffffffffffffffffffffffff1673ffffffffffffffffffffffffffffffffffffffff163373ffffffffffffffffffffffffffffffffffffffff1614611f20576040517f08c379a0000000000000000000000000000000000000000000000000000000008152600401611f179061563b565b60405180910390fd5b6000600860008473ffffffffffffffffffffffffffffffffffffffff1673ffffffffffffffffffffffffffffffffffffffff1681526020019081526020016000206040518060a00160405290816000820154815260200160018201548152602001600282015481526020016003820154815260200160048201548152505090506001821415611fc457806000018051809190611fbb906159c5565b81525050612054565b6002821415611fe857806020018051809190611fdf906159c5565b81525050612053565b600382141561200c57806040018051809190612003906159c5565b81525050612052565b600482141561203057806060018051809190612027906159c5565b81525050612051565b60058214156120505780608001805180919061204b906159c5565b815250505b5b5b5b5b80600860008573ffffffffffffffffffffffffffffffffffffffff1673ffffffffffffffffffffffffffffffffffffffff16815260200190815260200160002060008201518160000155602082015181600101556040820151816002015560608201518160030155608082015181600401559050506000600760008573ffffffffffffffffffffffffffffffffffffffff1673ffffffffffffffffffffffffffffffffffffffff1681526020019081526020016000206040518060e00160405290816000820160009054906101000a900473ffffffffffffffffffffffffffffffffffffffff1673ffffffffffffffffffffffffffffffffffffffff1673ffffffffffffffffffffffffffffffffffffffff16815260200160018201805461217b90615962565b80601f01602080910402602001604051908101604052809291908181526020018280546121a790615962565b80156121f45780601f106121c9576101008083540402835291602001916121f4565b820191906000526020600020905b8154815290600101906020018083116121d757829003601f168201915b5050505050815260200160028201805461220d90615962565b80601f016020809104026020016040519081016040528092919081815260200182805461223990615962565b80156122865780601f1061225b57610100808354040283529160200191612286565b820191906000526020600020905b81548152906001019060200180831161226957829003601f168201915b50505050508152602001600382015481526020016004820154815260200160058201805480602002602001604051908101604052809291908181526020016000905b828210156123745783829060005260206000200180546122e790615962565b80601f016020809104026020016040519081016040528092919081815260200182805461231390615962565b80156123605780601f1061233557610100808354040283529160200191612360565b820191906000526020600020905b81548152906001019060200180831161234357829003601f168201915b5050505050815260200190600101906122c8565b5050505081526020016006820160009054906101000a900460ff161515151581525050905060008054906101000a900473ffffffffffffffffffffffffffffffffffffffff1673ffffffffffffffffffffffffffffffffffffffff166344a3878c836000015184602001518560400151866060015187608001516040518663ffffffff1660e01b815260040161240e95949392919061570f565b60206040518083038186803b15801561242657600080fd5b505afa15801561243a573d6000803e3d6000fd5b505050506040513d601f19601f8201168201806040525081019061245e9190614fc7565b81608001818152505080600760008673ffffffffffffffffffffffffffffffffffffffff1673ffffffffffffffffffffffffffffffffffffffff16815260200190815260200160002060008201518160000160006101000a81548173ffffffffffffffffffffffffffffffffffffffff021916908373ffffffffffffffffffffffffffffffffffffffff160217905550602082015181600101908051906020019061250a9291906148b4565b5060408201518160020190805190602001906125279291906148b4565b50606082015181600301556080820151816004015560a082015181600501908051906020019061255892919061493a565b5060c08201518160060160006101000a81548160ff02191690831515021790555090505050505050565b6000600b54905090565b6000600360009054906101000a900473ffffffffffffffffffffffffffffffffffffffff1673ffffffffffffffffffffffffffffffffffffffff163373ffffffffffffffffffffffffffffffffffffffff161461261e576040517f08c379a00000000000000000000000000000000000000000000000000000000081526004016126159061563b565b60405180910390fd5b6000151561262b856145f0565b15151461266d576040517f08c379a00000000000000000000000000000000000000000000000000000000081526004016126649061567b565b60405180910390fd5b60006040518060c001604052808581526020018673ffffffffffffffffffffffffffffffffffffffff1681526020018460018111156126d5577f4e487b7100000000000000000000000000000000000000000000000000000000600052602160045260246000fd5b600181111561270d577f4e487b7100000000000000000000000000000000000000000000000000000000600052602160045260246000fd5b8152602001600081526020016000815260200160011515815250905080600460008773ffffffffffffffffffffffffffffffffffffffff1673ffffffffffffffffffffffffffffffffffffffff16815260200190815260200160002060008201518160000190805190602001906127859291906148b4565b5060208201518160010160006101000a81548173ffffffffffffffffffffffffffffffffffffffff021916908373ffffffffffffffffffffffffffffffffffffffff16021790555060408201518160010160146101000a81548160ff0219169083600181111561281e577f4e487b7100000000000000000000000000000000000000000000000000000000600052602160045260246000fd5b0217905550606082015181600201556080820151816003015560a08201518160040160006101000a81548160ff0219169083151502179055509050506005859080600181540180825580915050600190039060005260206000200160009091909190916101000a81548173ffffffffffffffffffffffffffffffffffffffff021916908373ffffffffffffffffffffffffffffffffffffffff160217905550600183141561296d5760006040518060a00160405280600081526020016000815260200160008152602001600081526020016000815250905080600a60008873ffffffffffffffffffffffffffffffffffffffff1673ffffffffffffffffffffffffffffffffffffffff1681526020019081526020016000206000820151816000015560208201518160010155604082015181600201556060820151816003015560808201518160040155905050505b60019150509392505050565b600360009054906101000a900473ffffffffffffffffffffffffffffffffffffffff1681565b60606000806000600360009054906101000a900473ffffffffffffffffffffffffffffffffffffffff1673ffffffffffffffffffffffffffffffffffffffff163373ffffffffffffffffffffffffffffffffffffffff1614612a36576040517f08c379a0000000000000000000000000000000000000000000000000000000008152600401612a2d9061563b565b60405180910390fd5b60011515612a4386614038565b151514612a85576040517f08c379a0000000000000000000000000000000000000000000000000000000008152600401612a7c906155db565b60405180910390fd5b6000600760008773ffffffffffffffffffffffffffffffffffffffff1673ffffffffffffffffffffffffffffffffffffffff1681526020019081526020016000206040518060e00160405290816000820160009054906101000a900473ffffffffffffffffffffffffffffffffffffffff1673ffffffffffffffffffffffffffffffffffffffff1673ffffffffffffffffffffffffffffffffffffffff168152602001600182018054612b3790615962565b80601f0160208091040260200160405190810160405280929190818152602001828054612b6390615962565b8015612bb05780601f10612b8557610100808354040283529160200191612bb0565b820191906000526020600020905b815481529060010190602001808311612b9357829003601f168201915b50505050508152602001600282018054612bc990615962565b80601f0160208091040260200160405190810160405280929190818152602001828054612bf590615962565b8015612c425780601f10612c1757610100808354040283529160200191612c42565b820191906000526020600020905b815481529060010190602001808311612c2557829003601f168201915b50505050508152602001600382015481526020016004820154815260200160058201805480602002602001604051908101604052809291908181526020016000905b82821015612d30578382906000526020600020018054612ca390615962565b80601f0160208091040260200160405190810160405280929190818152602001828054612ccf90615962565b8015612d1c5780601f10612cf157610100808354040283529160200191612d1c565b820191906000526020600020905b815481529060010190602001808311612cff57829003601f168201915b505050505081526020019060010190612c84565b5050505081526020016006820160009054906101000a900460ff161515151581525050905080604001518160000151826060015183608001519450945094509450509193509193565b6060806060600360009054906101000a900473ffffffffffffffffffffffffffffffffffffffff1673ffffffffffffffffffffffffffffffffffffffff163373ffffffffffffffffffffffffffffffffffffffff1614612e0e576040517f08c379a0000000000000000000000000000000000000000000000000000000008152600401612e059061563b565b60405180910390fd5b60011515612e1b88614038565b151514612e5d576040517f08c379a0000000000000000000000000000000000000000000000000000000008152600401612e54906155db565b60405180910390fd5b6000600760008973ffffffffffffffffffffffffffffffffffffffff1673ffffffffffffffffffffffffffffffffffffffff168152602001908152602001600020905060008060009054906101000a900473ffffffffffffffffffffffffffffffffffffffff1673ffffffffffffffffffffffffffffffffffffffff1663f76f950e83600301546040518263ffffffff1660e01b8152600401612f00919061569b565b60006040518083038186803b158015612f1857600080fd5b505afa158015612f2c573d6000803e3d6000fd5b505050506040513d6000823e3d601f19601f82011682018060405250810190612f559190614e34565b905060008260020182604051602001612f6f9291906152d9565b604051602081830303815290604052905060006040518060800160405280856003015481526020018b81526020018a6002811115612fd6577f4e487b7100000000000000000000000000000000000000000000000000000000600052602160045260246000fd5b600281111561300e577f4e487b7100000000000000000000000000000000000000000000000000000000600052602160045260246000fd5b81526020018981525090508060098360405161302a919061529e565b908152602001604051809103902060008201518160000155602082015181600101908051906020019061305e9291906148b4565b5060408201518160020160006101000a81548160ff021916908360028111156130b0577f4e487b7100000000000000000000000000000000000000000000000000000000600052602160045260246000fd5b02179055506060820151816003015590505083600501829080600181540180825580915050600190039060005260206000200160009091909190915090805190602001906130ff9291906148b4565b50836003016000815480929190613115906159c5565b919050555083600760008d73ffffffffffffffffffffffffffffffffffffffff1673ffffffffffffffffffffffffffffffffffffffff1681526020019081526020016000206000820160009054906101000a900473ffffffffffffffffffffffffffffffffffffffff168160000160006101000a81548173ffffffffffffffffffffffffffffffffffffffff021916908373ffffffffffffffffffffffffffffffffffffffff16021790555060018201816001019080546131d590615962565b6131e092919061499a565b5060028201816002019080546131f590615962565b61320092919061499a565b506003820154816003015560048201548160040155600582018160050190805461322b929190614a27565b506006820160009054906101000a900460ff168160060160006101000a81548160ff02191690831515021790555090505083600201828b82805461326e90615962565b80601f016020809104026020016040519081016040528092919081815260200182805461329a90615962565b80156132e75780601f106132bc576101008083540402835291602001916132e7565b820191906000526020600020905b8154815290600101906020018083116132ca57829003601f168201915b50505050509250965096509650505050509450945094915050565b600360009054906101000a900473ffffffffffffffffffffffffffffffffffffffff1673ffffffffffffffffffffffffffffffffffffffff163373ffffffffffffffffffffffffffffffffffffffff1614613392576040517f08c379a00000000000000000000000000000000000000000000000000000000081526004016133899061563b565b60405180910390fd5b6000600a60008473ffffffffffffffffffffffffffffffffffffffff1673ffffffffffffffffffffffffffffffffffffffff1681526020019081526020016000206040518060a001604052908160008201548152602001600182015481526020016002820154815260200160038201548152602001600482015481525050905060018214156134365780600001805180919061342d906159c5565b815250506134c6565b600282141561345a57806020018051809190613451906159c5565b815250506134c5565b600382141561347e57806040018051809190613475906159c5565b815250506134c4565b60048214156134a257806060018051809190613499906159c5565b815250506134c3565b60058214156134c2578060800180518091906134bd906159c5565b815250505b5b5b5b5b80600a60008573ffffffffffffffffffffffffffffffffffffffff1673ffffffffffffffffffffffffffffffffffffffff16815260200190815260200160002060008201518160000155602082015181600101556040820151816002015560608201518160030155608082015181600401559050506000600460008573ffffffffffffffffffffffffffffffffffffffff1673ffffffffffffffffffffffffffffffffffffffff1681526020019081526020016000206040518060c001604052908160008201805461359790615962565b80601f01602080910402602001604051908101604052809291908181526020018280546135c390615962565b80156136105780601f106135e557610100808354040283529160200191613610565b820191906000526020600020905b8154815290600101906020018083116135f357829003601f168201915b505050505081526020016001820160009054906101000a900473ffffffffffffffffffffffffffffffffffffffff1673ffffffffffffffffffffffffffffffffffffffff1673ffffffffffffffffffffffffffffffffffffffff1681526020016001820160149054906101000a900460ff1660018111156136ba577f4e487b7100000000000000000000000000000000000000000000000000000000600052602160045260246000fd5b60018111156136f2577f4e487b7100000000000000000000000000000000000000000000000000000000600052602160045260246000fd5b815260200160028201548152602001600382015481526020016004820160009054906101000a900460ff161515151581525050905060008054906101000a900473ffffffffffffffffffffffffffffffffffffffff1673ffffffffffffffffffffffffffffffffffffffff166344a3878c836000015184602001518560400151866060015187608001516040518663ffffffff1660e01b815260040161379c95949392919061570f565b60206040518083038186803b1580156137b457600080fd5b505afa1580156137c8573d6000803e3d6000fd5b505050506040513d601f19601f820116820180604052508101906137ec9190614fc7565b81606001818152505080600460008673ffffffffffffffffffffffffffffffffffffffff1673ffffffffffffffffffffffffffffffffffffffff16815260200190815260200160002060008201518160000190805190602001906138519291906148b4565b5060208201518160010160006101000a81548173ffffffffffffffffffffffffffffffffffffffff021916908373ffffffffffffffffffffffffffffffffffffffff16021790555060408201518160010160146101000a81548160ff021916908360018111156138ea577f4e487b7100000000000000000000000000000000000000000000000000000000600052602160045260246000fd5b0217905550606082015181600201556080820151816003015560a08201518160040160006101000a81548160ff02191690831515021790555090505050505050565b6060600060606000600360009054906101000a900473ffffffffffffffffffffffffffffffffffffffff1673ffffffffffffffffffffffffffffffffffffffff163373ffffffffffffffffffffffffffffffffffffffff16146139c4576040517f08c379a00000000000000000000000000000000000000000000000000000000081526004016139bb9061563b565b60405180910390fd5b600115156139d1886145f0565b151514613a13576040517f08c379a0000000000000000000000000000000000000000000000000000000008152600401613a0a906155fb565b60405180910390fd5b600080600760008973ffffffffffffffffffffffffffffffffffffffff1673ffffffffffffffffffffffffffffffffffffffff1681526020019081526020016000206040518060e00160405290816000820160009054906101000a900473ffffffffffffffffffffffffffffffffffffffff1673ffffffffffffffffffffffffffffffffffffffff1673ffffffffffffffffffffffffffffffffffffffff168152602001600182018054613ac690615962565b80601f0160208091040260200160405190810160405280929190818152602001828054613af290615962565b8015613b3f5780601f10613b1457610100808354040283529160200191613b3f565b820191906000526020600020905b815481529060010190602001808311613b2257829003601f168201915b50505050508152602001600282018054613b5890615962565b80601f0160208091040260200160405190810160405280929190818152602001828054613b8490615962565b8015613bd15780601f10613ba657610100808354040283529160200191613bd1565b820191906000526020600020905b815481529060010190602001808311613bb457829003601f168201915b50505050508152602001600382015481526020016004820154815260200160058201805480602002602001604051908101604052809291908181526020016000905b82821015613cbf578382906000526020600020018054613c3290615962565b80601f0160208091040260200160405190810160405280929190818152602001828054613c5e90615962565b8015613cab5780601f10613c8057610100808354040283529160200191613cab565b820191906000526020600020905b815481529060010190602001808311613c8e57829003601f168201915b505050505081526020019060010190613c13565b5050505081526020016006820160009054906101000a900460ff161515151581525050905060008160a00151905060006009828a81518110613d2a577f4e487b7100000000000000000000000000000000000000000000000000000000600052603260045260246000fd5b6020026020010151604051613d3f919061529e565b908152602001604051809103902060405180608001604052908160008201548152602001600182018054613d7290615962565b80601f0160208091040260200160405190810160405280929190818152602001828054613d9e90615962565b8015613deb5780601f10613dc057610100808354040283529160200191613deb565b820191906000526020600020905b815481529060010190602001808311613dce57829003601f168201915b505050505081526020016002820160009054906101000a900460ff166002811115613e3f577f4e487b7100000000000000000000000000000000000000000000000000000000600052602160045260246000fd5b6002811115613e77577f4e487b7100000000000000000000000000000000000000000000000000000000600052602160045260246000fd5b81526020016003820154815250509050806060015184613e97919061582d565b9350600084905060008054906101000a900473ffffffffffffffffffffffffffffffffffffffff1673ffffffffffffffffffffffffffffffffffffffff16636560951682600c546040518363ffffffff1660e01b8152600401613efb9291906156e6565b60206040518083038186803b158015613f1357600080fd5b505afa158015613f27573d6000803e3d6000fd5b505050506040513d601f19601f82011682018060405250810190613f4b9190614fc7565b85613f56919061582d565b945060008054906101000a900473ffffffffffffffffffffffffffffffffffffffff1673ffffffffffffffffffffffffffffffffffffffff1663221c9cfe82600d546040518363ffffffff1660e01b8152600401613fb59291906156e6565b60206040518083038186803b158015613fcd57600080fd5b505afa158015613fe1573d6000803e3d6000fd5b505050506040513d601f19601f820116820180604052508101906140059190614fc7565b85614010919061582d565b9450836040015184600001518360200151879850985098509850505050505093509350935093565b600080600760008473ffffffffffffffffffffffffffffffffffffffff1673ffffffffffffffffffffffffffffffffffffffff1681526020019081526020016000206040518060e00160405290816000820160009054906101000a900473ffffffffffffffffffffffffffffffffffffffff1673ffffffffffffffffffffffffffffffffffffffff1673ffffffffffffffffffffffffffffffffffffffff1681526020016001820180546140eb90615962565b80601f016020809104026020016040519081016040528092919081815260200182805461411790615962565b80156141645780601f1061413957610100808354040283529160200191614164565b820191906000526020600020905b81548152906001019060200180831161414757829003601f168201915b5050505050815260200160028201805461417d90615962565b80601f01602080910402602001604051908101604052809291908181526020018280546141a990615962565b80156141f65780601f106141cb576101008083540402835291602001916141f6565b820191906000526020600020905b8154815290600101906020018083116141d957829003601f168201915b50505050508152602001600382015481526020016004820154815260200160058201805480602002602001604051908101604052809291908181526020016000905b828210156142e457838290600052602060002001805461425790615962565b80601f016020809104026020016040519081016040528092919081815260200182805461428390615962565b80156142d05780601f106142a5576101008083540402835291602001916142d0565b820191906000526020600020905b8154815290600101906020018083116142b357829003601f168201915b505050505081526020019060010190614238565b5050505081526020016006820160009054906101000a900460ff16151515158152505090508060c00151915050919050565b60608160ff166002811115614354577f4e487b7100000000000000000000000000000000000000000000000000000000600052602160045260246000fd5b600281111561438c577f4e487b7100000000000000000000000000000000000000000000000000000000600052602160045260246000fd5b600060028111156143c6577f4e487b7100000000000000000000000000000000000000000000000000000000600052602160045260246000fd5b1415614409576040518060400160405280600981526020017f4170706574697a6572000000000000000000000000000000000000000000000081525090506145eb565b8160ff166002811115614445577f4e487b7100000000000000000000000000000000000000000000000000000000600052602160045260246000fd5b600281111561447d577f4e487b7100000000000000000000000000000000000000000000000000000000600052602160045260246000fd5b600160028111156144b7577f4e487b7100000000000000000000000000000000000000000000000000000000600052602160045260246000fd5b14156144fa576040518060400160405280600481526020017f4d61696e0000000000000000000000000000000000000000000000000000000081525090506145eb565b8160ff166002811115614536577f4e487b7100000000000000000000000000000000000000000000000000000000600052602160045260246000fd5b600281111561456e577f4e487b7100000000000000000000000000000000000000000000000000000000600052602160045260246000fd5b6002808111156145a7577f4e487b7100000000000000000000000000000000000000000000000000000000600052602160045260246000fd5b14156145ea576040518060400160405280600681526020017f446573657274000000000000000000000000000000000000000000000000000081525090506145eb565b5b919050565b600080600090505b6005805490508160ff1610156146c0578273ffffffffffffffffffffffffffffffffffffffff1660058260ff168154811061465c577f4e487b7100000000000000000000000000000000000000000000000000000000600052603260045260246000fd5b9060005260206000200160009054906101000a900473ffffffffffffffffffffffffffffffffffffffff1673ffffffffffffffffffffffffffffffffffffffff1614156146ad5760019150506146c6565b80806146b890615a0e565b9150506145f8565b50600090505b919050565b60608160ff166001811115614709577f4e487b7100000000000000000000000000000000000000000000000000000000600052602160045260246000fd5b6001811115614741577f4e487b7100000000000000000000000000000000000000000000000000000000600052602160045260246000fd5b6000600181111561477b577f4e487b7100000000000000000000000000000000000000000000000000000000600052602160045260246000fd5b14156147be576040518060400160405280600881526020017f437573746f6d657200000000000000000000000000000000000000000000000081525090506148af565b8160ff1660018111156147fa577f4e487b7100000000000000000000000000000000000000000000000000000000600052602160045260246000fd5b6001811115614832577f4e487b7100000000000000000000000000000000000000000000000000000000600052602160045260246000fd5b60018081111561486b577f4e487b7100000000000000000000000000000000000000000000000000000000600052602160045260246000fd5b14156148ae576040518060400160405280600881526020017f44656c697665727900000000000000000000000000000000000000000000000081525090506148af565b5b919050565b8280546148c090615962565b90600052602060002090601f0160209004810192826148e25760008555614929565b82601f106148fb57805160ff1916838001178555614929565b82800160010185558215614929579182015b8281111561492857825182559160200191906001019061490d565b5b5090506149369190614a8f565b5090565b828054828255906000526020600020908101928215614989579160200282015b828111156149885782518290805190602001906149789291906148b4565b509160200191906001019061495a565b5b5090506149969190614aac565b5090565b8280546149a690615962565b90600052602060002090601f0160209004810192826149c85760008555614a16565b82601f106149d95780548555614a16565b82800160010185558215614a1657600052602060002091601f016020900482015b82811115614a155782548255916001019190600101906149fa565b5b509050614a239190614a8f565b5090565b828054828255906000526020600020908101928215614a7e5760005260206000209182015b82811115614a7d578282908054614a6290615962565b614a6d92919061499a565b5091600101919060010190614a4c565b5b509050614a8b9190614aac565b5090565b5b80821115614aa8576000816000905550600101614a90565b5090565b5b80821115614acc5760008181614ac39190614ad0565b50600101614aad565b5090565b508054614adc90615962565b6000825580601f10614aee5750614b0d565b601f016020900490600052602060002090810190614b0c9190614a8f565b5b50565b6000614b23614b1e84615787565b615762565b905082815260208101848484011115614b3b57600080fd5b614b46848285615920565b509392505050565b6000614b61614b5c84615787565b615762565b905082815260208101848484011115614b7957600080fd5b614b8484828561592f565b509392505050565b600081359050614b9b81615c8d565b92915050565b600082601f830112614bb257600080fd5b8135614bc2848260208601614b10565b91505092915050565b600082601f830112614bdc57600080fd5b8151614bec848260208601614b4e565b91505092915050565b600081359050614c0481615ca4565b92915050565b600081519050614c1981615ca4565b92915050565b600060208284031215614c3157600080fd5b6000614c3f84828501614b8c565b91505092915050565b600080600060608486031215614c5d57600080fd5b6000614c6b86828701614b8c565b9350506020614c7c86828701614b8c565b9250506040614c8d86828701614bf5565b9150509250925092565b600080600060608486031215614cac57600080fd5b6000614cba86828701614b8c565b935050602084013567ffffffffffffffff811115614cd757600080fd5b614ce386828701614ba1565b925050604084013567ffffffffffffffff811115614d0057600080fd5b614d0c86828701614ba1565b9150509250925092565b600080600060608486031215614d2b57600080fd5b6000614d3986828701614b8c565b935050602084013567ffffffffffffffff811115614d5657600080fd5b614d6286828701614ba1565b9250506040614d7386828701614bf5565b9150509250925092565b60008060008060808587031215614d9357600080fd5b6000614da187828801614b8c565b945050602085013567ffffffffffffffff811115614dbe57600080fd5b614dca87828801614ba1565b9350506040614ddb87828801614bf5565b9250506060614dec87828801614bf5565b91505092959194509250565b60008060408385031215614e0b57600080fd5b6000614e1985828601614b8c565b9250506020614e2a85828601614bf5565b9150509250929050565b600060208284031215614e4657600080fd5b600082015167ffffffffffffffff811115614e6057600080fd5b614e6c84828501614bcb565b91505092915050565b600080600080600060a08688031215614e8d57600080fd5b600086013567ffffffffffffffff811115614ea757600080fd5b614eb388828901614ba1565b9550506020614ec488828901614b8c565b9450506040614ed588828901614b8c565b935050606086013567ffffffffffffffff811115614ef257600080fd5b614efe88828901614ba1565b9250506080614f0f88828901614bf5565b9150509295509295909350565b60008060008060808587031215614f3257600080fd5b600085015167ffffffffffffffff811115614f4c57600080fd5b614f5887828801614bcb565b945050602085015167ffffffffffffffff811115614f7557600080fd5b614f8187828801614bcb565b9350506040614f9287828801614c0a565b925050606085015167ffffffffffffffff811115614faf57600080fd5b614fbb87828801614bcb565b91505092959194509250565b600060208284031215614fd957600080fd5b6000614fe784828501614c0a565b91505092915050565b6000614ffc8383615008565b60208301905092915050565b61501181615883565b82525050565b61502081615883565b82525050565b6000615031826157dd565b61503b8185615800565b9350615046836157b8565b8060005b8381101561507757815161505e8882614ff0565b9750615069836157f3565b92505060018101905061504a565b5085935050505092915050565b61508d81615895565b82525050565b61509c816158d8565b82525050565b6150ab816158fc565b82525050565b60006150bc826157e8565b6150c68185615811565b93506150d681856020860161592f565b6150df81615ac5565b840191505092915050565b60006150f5826157e8565b6150ff8185615822565b935061510f81856020860161592f565b80840191505092915050565b6000815461512881615962565b6151328186615822565b9450600182166000811461514d576001811461515e57615191565b60ff19831686528186019350615191565b615167856157c8565b60005b838110156151895781548189015260018201915060208101905061516a565b838801955050505b50505092915050565b60006151a7601583615811565b91506151b282615ad6565b602082019050919050565b60006151ca601d83615811565b91506151d582615aff565b602082019050919050565b60006151ed602783615811565b91506151f882615b28565b604082019050919050565b6000615210603c83615811565b915061521b82615b77565b604082019050919050565b6000615233603883615811565b915061523e82615bc6565b604082019050919050565b6000615256602183615811565b915061526182615c15565b604082019050919050565b6000615279601783615811565b915061528482615c64565b602082019050919050565b615298816158c1565b82525050565b60006152aa82846150ea565b915081905092915050565b60006152c182856150ea565b91506152cd82846150ea565b91508190509392505050565b60006152e5828561511b565b91506152f182846150ea565b91508190509392505050565b60006020820190506153126000830184615017565b92915050565b600060208201905061532d6000830184615084565b92915050565b60006020820190506153486000830184615093565b92915050565b600060208201905061536360008301846150a2565b92915050565b6000602082019050818103600083015261538381846150b1565b905092915050565b600060808201905081810360008301526153a581876150b1565b90506153b46020830186615017565b81810360408301526153c681856150b1565b90506153d5606083018461528f565b95945050505050565b600060808201905081810360008301526153f881876150b1565b90506154076020830186615017565b615414604083018561528f565b615421606083018461528f565b95945050505050565b600060c082019050818103600083015261544481896150b1565b9050818103602083015261545881886150b1565b90506154676040830187615017565b6154746060830186615017565b818103608083015261548681856150b1565b905061549560a083018461528f565b979650505050505050565b600060608201905081810360008301526154ba81866150b1565b905081810360208301526154ce81856150b1565b905081810360408301526154e281846150b1565b9050949350505050565b6000606082019050818103600083015261550681866150b1565b9050818103602083015261551a81856150b1565b9050615529604083018461528f565b949350505050565b6000608082019050818103600083015261554b81876150b1565b9050818103602083015261555f81866150b1565b905061556e604083018561528f565b818103606083015261558081846150b1565b905095945050505050565b600060408201905081810360008301526155a581856150b1565b90506155b4602083018461528f565b9392505050565b600060208201905081810360008301526155d48161519a565b9050919050565b600060208201905081810360008301526155f4816151bd565b9050919050565b60006020820190508181036000830152615614816151e0565b9050919050565b6000602082019050818103600083015261563481615203565b9050919050565b6000602082019050818103600083015261565481615226565b9050919050565b6000602082019050818103600083015261567481615249565b9050919050565b600060208201905081810360008301526156948161526c565b9050919050565b60006020820190506156b0600083018461528f565b92915050565b60006040820190506156cb600083018561528f565b81810360208301526156dd8184615026565b90509392505050565b60006040820190506156fb600083018561528f565b615708602083018461528f565b9392505050565b600060a082019050615724600083018861528f565b615731602083018761528f565b61573e604083018661528f565b61574b606083018561528f565b615758608083018461528f565b9695505050505050565b600061576c61577d565b90506157788282615994565b919050565b6000604051905090565b600067ffffffffffffffff8211156157a2576157a1615a96565b5b6157ab82615ac5565b9050602081019050919050565b6000819050602082019050919050565b60008190508160005260206000209050919050565b600081519050919050565b600081519050919050565b6000602082019050919050565b600082825260208201905092915050565b600082825260208201905092915050565b600081905092915050565b6000615838826158c1565b9150615843836158c1565b9250827fffffffffffffffffffffffffffffffffffffffffffffffffffffffffffffffff0382111561587857615877615a38565b5b828201905092915050565b600061588e826158a1565b9050919050565b60008115159050919050565b600073ffffffffffffffffffffffffffffffffffffffff82169050919050565b6000819050919050565b600060ff82169050919050565b60006158e3826158ea565b9050919050565b60006158f5826158a1565b9050919050565b60006159078261590e565b9050919050565b6000615919826158a1565b9050919050565b82818337600083830152505050565b60005b8381101561594d578082015181840152602081019050615932565b8381111561595c576000848401525b50505050565b6000600282049050600182168061597a57607f821691505b6020821081141561598e5761598d615a67565b5b50919050565b61599d82615ac5565b810181811067ffffffffffffffff821117156159bc576159bb615a96565b5b80604052505050565b60006159d0826158c1565b91507fffffffffffffffffffffffffffffffffffffffffffffffffffffffffffffffff821415615a0357615a02615a38565b5b600182019050919050565b6000615a19826158cb565b915060ff821415615a2d57615a2c615a38565b5b600182019050919050565b7f4e487b7100000000000000000000000000000000000000000000000000000000600052601160045260246000fd5b7f4e487b7100000000000000000000000000000000000000000000000000000000600052602260045260246000fd5b7f4e487b7100000000000000000000000000000000000000000000000000000000600052604160045260246000fd5b6000601f19601f8301169050919050565b7f557365722064617461206e6f7420666f756e6421200000000000000000000000600082015250565b7f52657374617572616e74206973206e6f7420726567697374657265642e000000600082015250565b7f55736572206d757374207265676973746572206265666f726520706c6163696e60008201527f67206f7264657200000000000000000000000000000000000000000000000000602082015250565b7f466f6f6469657a20526567697374726174696f6e202d20506172656e7420616c60008201527f7265616479207365742e2043616e6e6f74206265204368616e67656400000000602082015250565b7f466f6f6469657a20526567697374726174696f6e202d204f6e6c79204f776e6560008201527f722063616e2063616c6c20746869732066756e6374696f6e0000000000000000602082015250565b7f52657374617572616e7420697320616c7265616479207265676973746572656460008201527f2e00000000000000000000000000000000000000000000000000000000000000602082015250565b7f5573657220416c72656164792072656769737465726564000000000000000000600082015250565b615c9681615883565b8114615ca157600080fd5b50565b615cad816158c1565b8114615cb857600080fd5b5056fe466f6f6469657a204f726465727320706172656e7420636f6e74726163742061646472657373207365742ea26469706673582212204ab65f90302f79533011bb2a2d5dd4f42eec9619c7ded30367db933923ecd19e64736f6c63430008030033",
  "immutableReferences": {},
  "source": "pragma solidity ^0.8.1;\n// pragma solidity 0.7.6;\n// \"SPDX-License-Identifier: UNLICENSED\"\n\nimport \"./helpers_interface.sol\";\nimport \"./orders_interface.sol\";\n\n\ncontract FoodiezRegistration {\n    \n    // FoodiezHelpers public _foodiezHelpers;\n    // FoodiezOrders public _foodiezOrders;\n    FoodiezHelpersInterface public _foodiezHelpers;\n    FoodiezOrdersInterface public _foodiezOrders;\n\n    address ownerAddress;\n\n    address public parentContractAddress;\n    bool isParentContractSet = false;\n    \n    constructor(FoodiezHelpersInterface _helperAddress, FoodiezOrdersInterface _orderAddress) {\n        ownerAddress = msg.sender;\n        _foodiezHelpers = _helperAddress;\n        _foodiezOrders = _orderAddress;\n        \n        _foodiezOrders.setRegisterContract(address(this));\n    }\n    \n    \n    /************User and mapping**********************/\n    enum UserType { Customer, Delivery } // 0 , 1\n    struct User {\n        string name;\n        address userID;\n        UserType usrType;\n        uint256 rating;\n        uint256 tokens;\n        bool isRegistered;\n    }\n     \n    // address to registered user mapping.\n    mapping(address => User) registeredUserMapping;\n    address[] RegisteredUserAddresses;\n    \n    /************Restaurant and mapping**********************/\n    struct Restaurant {\n        address restaurantAddress;\n        string name;\n        string rId;\n        uint noOfItems;\n        uint rating;\n        string[] itemNames;\n        bool isRegistered;\n    } \n    \n    enum MenuType { Appetizer, Main, Desert }\n    struct MenuItem{\n        uint itemNum;\n        string name;\n        MenuType itemType;\n        uint256 price;\n    }\n    \n    struct Rating{\n        uint oneStar;\n        uint twoStar;\n        uint threeStar;\n        uint fourStar;\n        uint fiveStar;\n    } \n    \n    address[] RestaurantCount;\n    \n    mapping(address => Restaurant) RestaurantMapping;\n    mapping(address => Rating) RestaurantRating;\n    mapping(string => MenuItem) RestaurantMenuItems; // restaurantIds to menu items\n    mapping(address => Rating) DriverRating;\n    \n    uint256 orderTotalCount = 0;\n     \n    uint NetworkServiceFee = 2;\n    uint DeliveryFlatFee = 2;\n    \n    /************Modifiers *************************************************/\n    modifier OnlyParent(){\n        require(msg.sender == parentContractAddress, \"Foodiez Registration - Only Owner can call this function\");\n        _; // this underscore is requierd otherwise compiler will break;\n    }\n\n    modifier OnlyOwner(){\n        require(msg.sender == ownerAddress, \"Foodiez Registration - Only Owner can call this function\");\n        _; // this underscore is requierd otherwise compiler will break;\n    }\n\n    modifier isDeliveryCheck(){\n        User memory u = registeredUserMapping[msg.sender];\n        require(uint(UserType(u.usrType))== 1, \"User is not a Delivery agent. Only Delivery agents can be assigned food order.\");\n        \n        _;\n    }\n    \n    /************Address setters for helper / order contracts *************************************************/\n    function setParentContract(address _address) public returns(string memory) {\n        require(isParentContractSet == false,\"Foodiez Registration - Parent already set. Cannot be Changed\");\n        parentContractAddress = _address;\n        isParentContractSet = true;\n        \n        return(\"Foodiez Orders parent contract address set.\");\n    }\n\n    /************User and Restaurant***********************************************/\n    \n    // User Registration\n    function userRegistration(address _address, string memory name, uint uType) public OnlyParent returns (bool) {\n         require(isUserRegistered(_address) == false, \"User Already registered\");\n        \n        // task: check is user is already registered, is yes then return message already registered\n         \n        User memory u = User(name, _address, UserType(uType), 0, 0, true);\n        registeredUserMapping[_address] = u;\n        RegisteredUserAddresses.push(_address);\n        \n        if(uType == 1){\n            // Create default ratings for delivery\n            Rating memory rating = Rating(0,0,0,0,0);\n            DriverRating[_address] = rating;\n        } \n        \n        return true;\n     }\n     \n    function getUserInfo(address _address) public OnlyParent view returns(string memory, address, string memory, uint256 ){\n        require(isUserRegistered(_address) == true, \"User data not found! \");\n        \n        User memory usr = registeredUserMapping[_address];\n         \n        return(usr.name, usr.userID, getUserTypeFriendly(uint8(usr.usrType)), usr.rating);\n         \n     }\n    \n    // Restaurant and Items Registration \n    function createRestaurant(address _address, string memory _name, string memory _rId) public OnlyParent returns(bool) {\n        require(isRestaurantRegistered(_address) == false, \"Restaurant is already registered.\");\n        \n        // Create new Restaurant\n        string[] memory itemNames; // init for empty array;\n        Restaurant memory m = Restaurant(_address, _name, _rId, 0, 0, itemNames,true);\n        \n        RestaurantMapping[_address] = m;\n        RestaurantCount.push(_address);\n        \n        // Create default ratings for Restaurant\n        Rating memory rating = Rating(0,0,0,0,0);\n        RestaurantRating[_address] = rating;\n        \n        return true;\n    }\n    \n    function addMenuItems(address _address, string memory _itemName, uint _type, uint _price) public OnlyParent returns (string memory, string memory, string memory) {\n        // only allowed by restaurants address that are already registered.\n        require(isRestaurantRegistered(_address) == true, \"Restaurant is not registered.\");\n        \n        Restaurant storage rest = RestaurantMapping[_address];\n        \n        // create unique id from itemName and num ( itemNumberCount)\n        string memory uni = _foodiezHelpers.uint2str(rest.noOfItems);\n        string memory uniqueId = string(abi.encodePacked(rest.rId, uni));\n        \n        MenuItem memory mItem = MenuItem(rest.noOfItems, _itemName, MenuType(_type), _price);\n        \n        RestaurantMenuItems[uniqueId] = mItem;\n        rest.itemNames.push(uniqueId);\n        rest.noOfItems++;\n        RestaurantMapping[_address] = rest;\n        \n        return (rest.rId, uniqueId, _itemName);\n    }\n    \n    function getRestaurantMenu(address _restaurantAddress, uint _itemNumber) public OnlyParent view returns(string memory, string memory, uint256){\n        require(isRestaurantRegistered(_restaurantAddress) == true, \"Restaurant is not registered.\");\n        \n        Restaurant memory rest = RestaurantMapping[_restaurantAddress];\n        \n        string[] memory menuItems = rest.itemNames;\n        \n        MenuItem memory item = RestaurantMenuItems[menuItems[_itemNumber]];\n        return(item.name, getMenuTypeFriendly(uint8(item.itemType)) , item.price);\n        \n    }\n    \n    function getrestaurantInfo(address _restaurantAddress) public OnlyParent view returns(string memory, address, uint256, uint256){\n        require(isRestaurantRegistered(_restaurantAddress) == true, \"Restaurant is not registered.\");\n        \n        Restaurant memory rest = RestaurantMapping[_restaurantAddress];\n        return(rest.rId, rest.restaurantAddress, rest.noOfItems, rest.rating);\n    }\n\n    function getTotalRestaurants() public OnlyParent view returns (uint256, address[] memory restAddresses){\n        return (RestaurantCount.length, RestaurantCount);\n    }\n    \n    /*************Orders Functions********************************************************************/\n    function getOrderTotal(address _userAddress, address _address, uint _itemNum) public view OnlyParent returns(string memory, address, string memory, uint){\n        require(isUserRegistered(_userAddress) == true, \"User must register before placing order\");\n        uint totalPrice = 0;\n        // get restaurant\n        Restaurant memory rest = RestaurantMapping[_address];\n        \n        string[] memory menuItems = rest.itemNames;\n        MenuItem memory m = RestaurantMenuItems[menuItems[_itemNum]];\n        \n        totalPrice += m.price;\n        // calculate total bill\n        uint tempTotal = totalPrice;\n        totalPrice += _foodiezHelpers.calcServiceFee(tempTotal, NetworkServiceFee);\n        totalPrice += _foodiezHelpers.calcDriverFlatFee(tempTotal, DeliveryFlatFee);\n        \n        return ( rest.rId, rest.restaurantAddress, m.name, totalPrice);\n    }\n    \n    function createFoodOrder(string memory rId, address userAddress, address restaurantAddress, string memory itemName, uint totalPrice) public payable returns (string memory, string memory, uint, string memory){\n        \n        /****** create unique userOrderId*****/\n        // get user data \n        User memory _regUser = registeredUserMapping[msg.sender];\n        \n        string memory orderNumString = _foodiezHelpers.uint2str(orderTotalCount);\n        string memory uniqueUserOrderId = string(abi.encodePacked(_regUser.name, orderNumString));\n        orderTotalCount++;\n        \n        return _foodiezOrders.createFoodOrderEntry(uniqueUserOrderId, rId, restaurantAddress, userAddress, itemName, totalPrice);\n        \n    }\n    \n    function addRestaurantRating(address _restaurantAddress, uint _restaurantRating) public OnlyParent {\n        Rating memory r = RestaurantRating[_restaurantAddress];\n        \n        if(_restaurantRating == 1){\n            r.oneStar++;\n        }else if(_restaurantRating == 2){\n            r.twoStar++;\n        }else if(_restaurantRating == 3){\n            r.threeStar++;\n        }else if(_restaurantRating == 4){\n            r.fourStar++;\n        }else if(_restaurantRating == 5){\n            r.fiveStar++;\n        }\n        \n        // calculate the weighted average\n        RestaurantRating[_restaurantAddress] = r;\n        \n        Restaurant memory res = RestaurantMapping[_restaurantAddress];\n        res.rating = _foodiezHelpers.calcWeightedAvg(r.oneStar, r.twoStar, r.threeStar, r.fourStar, r.fiveStar);\n        RestaurantMapping[_restaurantAddress] = res;\n    }\n    \n    function addDriverRating(address _address, uint _deliveryRating) public OnlyParent {\n        Rating memory r = DriverRating[_address];\n         \n        if(_deliveryRating == 1){\n            r.oneStar++;\n        }else if(_deliveryRating == 2){\n            r.twoStar++;\n        }else if(_deliveryRating == 3){\n            r.threeStar++;\n        }else if(_deliveryRating == 4){\n            r.fourStar++;\n        }else if(_deliveryRating == 5){\n            r.fiveStar++;\n        }\n\n        DriverRating[_address] = r;\n         \n        User memory usr = registeredUserMapping[_address];\n        usr.rating = _foodiezHelpers.calcWeightedAvg(r.oneStar, r.twoStar, r.threeStar, r.fourStar, r.fiveStar);\n        registeredUserMapping[_address] = usr;\n    }\n    \n    \n    /*************Registration Helpers********************************************************************/\n    function isUserRegistered( address _address) internal view returns (bool) {\n         \n        for( uint8 j = 0; j < RegisteredUserAddresses.length; j++){\n             \n            if(RegisteredUserAddresses[j] == _address){\n                return (true); // user is registered.\n            }\n        }\n        return (false); // user is not registered.\n    }\n    \n    function checkUserDelivery(address _address) public view returns (bool){\n        User memory u = registeredUserMapping[_address];\n        \n        if(uint(UserType(u.usrType))== 1) return true;\n        \n        return false;\n    }\n    \n    function isRestaurantRegistered ( address _address) internal view returns (bool) {\n        Restaurant memory m = RestaurantMapping[_address];\n        \n        return (m.isRegistered);\n    }\n    \n    // function getrestaurantInfo()\n    \n    function getItemInfo(address _restaurantAddress, uint _itemNumber) public view returns(string memory, uint){\n        require(isRestaurantRegistered(_restaurantAddress) == true, \"Restaurant is not registered.\");\n        \n        Restaurant memory rest = RestaurantMapping[_restaurantAddress];\n        \n        string[] memory menuItems = rest.itemNames;\n        \n        MenuItem memory item = RestaurantMenuItems[menuItems[_itemNumber]];\n        return(item.name, item.price);\n    }\n    \n    function getOrderCount() public view returns(uint){\n        return orderTotalCount;\n    }\n    \n    function incrementOrderCount() public {\n        orderTotalCount++;\n    }\n    \n    function getUserTypeFriendly(uint8 _usrType) internal pure returns (string memory userType) {\n        \n        if(UserType.Customer == UserType(_usrType) ) return \"Customer\";\n        if(UserType.Delivery == UserType(_usrType)) return \"Delivery\";\n    }\n    \n    function getMenuTypeFriendly(uint8 _menuType) internal pure returns (string memory userType) {\n        \n        if(MenuType.Appetizer == MenuType(_menuType) ) return \"Appetizer\";\n        if(MenuType.Main == MenuType(_menuType) ) return \"Main\";\n        if(MenuType.Desert == MenuType(_menuType)) return \"Desert\";\n    }\n    \n}",
  "sourcePath": "/home/dinesh/Blockchain-Projects/EthereumSolidityProject/contracts/registration.sol",
  "compiler": {
    "name": "solc",
    "version": "0.8.3+commit.8d00100c.Emscripten.clang"
  },
  "schemaVersion": "3.3.3",
  "updatedAt": "2021-04-02T05:33:50.511Z",
  "networkType": "ethereum",
  "devdoc": {
    "kind": "dev",
    "methods": {},
    "version": 1
  },
  "userdoc": {
    "kind": "user",
    "methods": {},
    "version": 1
  }
}