{
  "contractName": "FoodiezRegistration",
  "abi": [
    {
      "inputs": [
        {
          "internalType": "contract FoodiezHelpersInterface",
          "name": "_helperAddress",
          "type": "address"
        },
        {
          "internalType": "contract FoodiezOrdersInterface",
          "name": "_orderAddress",
          "type": "address"
        }
      ],
      "stateMutability": "nonpayable",
      "type": "constructor"
    },
    {
      "inputs": [],
      "name": "_foodiezHelpers",
      "outputs": [
        {
          "internalType": "contract FoodiezHelpersInterface",
          "name": "",
          "type": "address"
        }
      ],
      "stateMutability": "view",
      "type": "function",
      "constant": true
    },
    {
      "inputs": [],
      "name": "_foodiezOrders",
      "outputs": [
        {
          "internalType": "contract FoodiezOrdersInterface",
          "name": "",
          "type": "address"
        }
      ],
      "stateMutability": "view",
      "type": "function",
      "constant": true
    },
    {
      "inputs": [],
      "name": "parentContractAddress",
      "outputs": [
        {
          "internalType": "address",
          "name": "",
          "type": "address"
        }
      ],
      "stateMutability": "view",
      "type": "function",
      "constant": true
    },
    {
      "inputs": [
        {
          "internalType": "address",
          "name": "_address",
          "type": "address"
        }
      ],
      "name": "setParentContract",
      "outputs": [
        {
          "internalType": "string",
          "name": "",
          "type": "string"
        }
      ],
      "stateMutability": "nonpayable",
      "type": "function"
    },
    {
      "inputs": [
        {
          "internalType": "address",
          "name": "_address",
          "type": "address"
        },
        {
          "internalType": "string",
          "name": "name",
          "type": "string"
        },
        {
          "internalType": "uint256",
          "name": "uType",
          "type": "uint256"
        }
      ],
      "name": "userRegistration",
      "outputs": [
        {
          "internalType": "bool",
          "name": "",
          "type": "bool"
        }
      ],
      "stateMutability": "nonpayable",
      "type": "function"
    },
    {
      "inputs": [
        {
          "internalType": "address",
          "name": "_address",
          "type": "address"
        }
      ],
      "name": "getUserInfo",
      "outputs": [
        {
          "internalType": "string",
          "name": "",
          "type": "string"
        },
        {
          "internalType": "address",
          "name": "",
          "type": "address"
        },
        {
          "internalType": "string",
          "name": "",
          "type": "string"
        },
        {
          "internalType": "uint256",
          "name": "",
          "type": "uint256"
        }
      ],
      "stateMutability": "view",
      "type": "function",
      "constant": true
    },
    {
      "inputs": [
        {
          "internalType": "address",
          "name": "_address",
          "type": "address"
        },
        {
          "internalType": "string",
          "name": "_name",
          "type": "string"
        },
        {
          "internalType": "string",
          "name": "_rId",
          "type": "string"
        }
      ],
      "name": "createRestaurant",
      "outputs": [
        {
          "internalType": "bool",
          "name": "",
          "type": "bool"
        }
      ],
      "stateMutability": "nonpayable",
      "type": "function"
    },
    {
      "inputs": [
        {
          "internalType": "address",
          "name": "_address",
          "type": "address"
        },
        {
          "internalType": "string",
          "name": "_itemName",
          "type": "string"
        },
        {
          "internalType": "uint256",
          "name": "_type",
          "type": "uint256"
        },
        {
          "internalType": "uint256",
          "name": "_price",
          "type": "uint256"
        }
      ],
      "name": "addMenuItems",
      "outputs": [
        {
          "internalType": "string",
          "name": "",
          "type": "string"
        },
        {
          "internalType": "string",
          "name": "",
          "type": "string"
        },
        {
          "internalType": "string",
          "name": "",
          "type": "string"
        }
      ],
      "stateMutability": "nonpayable",
      "type": "function"
    },
    {
      "inputs": [
        {
          "internalType": "address",
          "name": "_restaurantAddress",
          "type": "address"
        },
        {
          "internalType": "uint256",
          "name": "_itemNumber",
          "type": "uint256"
        }
      ],
      "name": "getRestaurantMenu",
      "outputs": [
        {
          "internalType": "string",
          "name": "",
          "type": "string"
        },
        {
          "internalType": "string",
          "name": "",
          "type": "string"
        },
        {
          "internalType": "uint256",
          "name": "",
          "type": "uint256"
        }
      ],
      "stateMutability": "view",
      "type": "function",
      "constant": true
    },
    {
      "inputs": [
        {
          "internalType": "address",
          "name": "_restaurantAddress",
          "type": "address"
        }
      ],
      "name": "getrestaurantInfo",
      "outputs": [
        {
          "internalType": "string",
          "name": "",
          "type": "string"
        },
        {
          "internalType": "address",
          "name": "",
          "type": "address"
        },
        {
          "internalType": "uint256",
          "name": "",
          "type": "uint256"
        },
        {
          "internalType": "uint256",
          "name": "",
          "type": "uint256"
        }
      ],
      "stateMutability": "view",
      "type": "function",
      "constant": true
    },
    {
      "inputs": [
        {
          "internalType": "address",
          "name": "_userAddress",
          "type": "address"
        },
        {
          "internalType": "address",
          "name": "_address",
          "type": "address"
        },
        {
          "internalType": "uint256",
          "name": "_itemNum",
          "type": "uint256"
        }
      ],
      "name": "getOrderTotal",
      "outputs": [
        {
          "internalType": "string",
          "name": "",
          "type": "string"
        },
        {
          "internalType": "address",
          "name": "",
          "type": "address"
        },
        {
          "internalType": "string",
          "name": "",
          "type": "string"
        },
        {
          "internalType": "uint256",
          "name": "",
          "type": "uint256"
        }
      ],
      "stateMutability": "view",
      "type": "function",
      "constant": true
    },
    {
      "inputs": [
        {
          "internalType": "string",
          "name": "rId",
          "type": "string"
        },
        {
          "internalType": "address",
          "name": "userAddress",
          "type": "address"
        },
        {
          "internalType": "address",
          "name": "restaurantAddress",
          "type": "address"
        },
        {
          "internalType": "string",
          "name": "itemName",
          "type": "string"
        },
        {
          "internalType": "uint256",
          "name": "totalPrice",
          "type": "uint256"
        }
      ],
      "name": "createFoodOrder",
      "outputs": [
        {
          "internalType": "string",
          "name": "",
          "type": "string"
        },
        {
          "internalType": "string",
          "name": "",
          "type": "string"
        },
        {
          "internalType": "uint256",
          "name": "",
          "type": "uint256"
        },
        {
          "internalType": "string",
          "name": "",
          "type": "string"
        }
      ],
      "stateMutability": "payable",
      "type": "function",
      "payable": true
    },
    {
      "inputs": [
        {
          "internalType": "address",
          "name": "_restaurantAddress",
          "type": "address"
        },
        {
          "internalType": "uint256",
          "name": "_restaurantRating",
          "type": "uint256"
        }
      ],
      "name": "addRestaurantRating",
      "outputs": [],
      "stateMutability": "nonpayable",
      "type": "function"
    },
    {
      "inputs": [
        {
          "internalType": "address",
          "name": "_address",
          "type": "address"
        },
        {
          "internalType": "uint256",
          "name": "_deliveryRating",
          "type": "uint256"
        }
      ],
      "name": "addDriverRating",
      "outputs": [],
      "stateMutability": "nonpayable",
      "type": "function"
    },
    {
      "inputs": [
        {
          "internalType": "address",
          "name": "_address",
          "type": "address"
        }
      ],
      "name": "checkUserDelivery",
      "outputs": [
        {
          "internalType": "bool",
          "name": "",
          "type": "bool"
        }
      ],
      "stateMutability": "view",
      "type": "function",
      "constant": true
    },
    {
      "inputs": [
        {
          "internalType": "address",
          "name": "_restaurantAddress",
          "type": "address"
        },
        {
          "internalType": "uint256",
          "name": "_itemNumber",
          "type": "uint256"
        }
      ],
      "name": "getItemInfo",
      "outputs": [
        {
          "internalType": "string",
          "name": "",
          "type": "string"
        },
        {
          "internalType": "uint256",
          "name": "",
          "type": "uint256"
        }
      ],
      "stateMutability": "view",
      "type": "function",
      "constant": true
    },
    {
      "inputs": [],
      "name": "getOrderCount",
      "outputs": [
        {
          "internalType": "uint256",
          "name": "",
          "type": "uint256"
        }
      ],
      "stateMutability": "view",
      "type": "function",
      "constant": true
    },
    {
      "inputs": [],
      "name": "incrementOrderCount",
      "outputs": [],
      "stateMutability": "nonpayable",
      "type": "function"
    }
  ],
  "bytecode": "0x60806040526000600360146101000a81548160ff0219169083151502179055506000600b556002600c556002600d553480156200003b57600080fd5b5060405162005fae38038062005fae833981810160405281019062000061919062000284565b33600260006101000a81548173ffffffffffffffffffffffffffffffffffffffff021916908373ffffffffffffffffffffffffffffffffffffffff160217905550816000806101000a81548173ffffffffffffffffffffffffffffffffffffffff021916908373ffffffffffffffffffffffffffffffffffffffff16021790555080600160006101000a81548173ffffffffffffffffffffffffffffffffffffffff021916908373ffffffffffffffffffffffffffffffffffffffff160217905550600160009054906101000a900473ffffffffffffffffffffffffffffffffffffffff1673ffffffffffffffffffffffffffffffffffffffff1663e150a2e8306040518263ffffffff1660e01b81526004016200018091906200031b565b600060405180830381600087803b1580156200019b57600080fd5b505af1158015620001b0573d6000803e3d6000fd5b505050506040513d6000823e3d601f19601f82011682018060405250810190620001db9190620002c5565b505050620004d3565b6000620001fb620001f58462000361565b62000338565b9050828152602081018484840111156200021457600080fd5b62000221848285620003f3565b509392505050565b6000815190506200023a816200049f565b92915050565b6000815190506200025181620004b9565b92915050565b600082601f8301126200026957600080fd5b81516200027b848260208601620001e4565b91505092915050565b600080604083850312156200029857600080fd5b6000620002a88582860162000229565b9250506020620002bb8582860162000240565b9150509250929050565b600060208284031215620002d857600080fd5b600082015167ffffffffffffffff811115620002f357600080fd5b620003018482850162000257565b91505092915050565b620003158162000397565b82525050565b60006020820190506200033260008301846200030a565b92915050565b60006200034462000357565b905062000352828262000429565b919050565b6000604051905090565b600067ffffffffffffffff8211156200037f576200037e6200045f565b5b6200038a826200048e565b9050602081019050919050565b6000620003a482620003d3565b9050919050565b6000620003b88262000397565b9050919050565b6000620003cc8262000397565b9050919050565b600073ffffffffffffffffffffffffffffffffffffffff82169050919050565b60005b8381101562000413578082015181840152602081019050620003f6565b8381111562000423576000848401525b50505050565b62000434826200048e565b810181811067ffffffffffffffff821117156200045657620004556200045f565b5b80604052505050565b7f4e487b7100000000000000000000000000000000000000000000000000000000600052604160045260246000fd5b6000601f19601f8301169050919050565b620004aa81620003ab565b8114620004b657600080fd5b50565b620004c481620003bf565b8114620004d057600080fd5b50565b615acb80620004e36000396000f3fe6080604052600436106101095760003560e01c806384a101cd11610095578063ae596d4e11610064578063ae596d4e146103b3578063d8c01ed1146103de578063debd2ec41461041e578063dfe7669d1461045d578063f0645d7a1461048657610109565b806384a101cd146102ef5780638ab7ad77146103225780638d0a5fbb1461034b578063aded60391461037657610109565b80635f9d8de6116100dc5780635f9d8de6146101f3578063617aada9146102305780636386c1c71461025b578063765ccb6b1461029b5780637aa3eaf0146102d857610109565b8063096309231461010e5780632cfff5d61461014b5780632d9ee1d114610189578063331723eb146101b4575b600080fd5b34801561011a57600080fd5b5061013560048036038101906101309190614b34565b6104c6565b6040516101429190615130565b60405180910390f35b34801561015757600080fd5b50610172600480360381019061016d9190614c95565b610826565b6040516101809291906153a3565b60405180910390f35b34801561019557600080fd5b5061019e610d04565b6040516101ab9190615166565b60405180910390f35b3480156101c057600080fd5b506101db60048036038101906101d69190614c95565b610d2a565b6040516101ea93929190615304565b60405180910390f35b3480156101ff57600080fd5b5061021a60048036038101906102159190614abc565b6112e0565b6040516102279190615130565b60405180910390f35b34801561023c57600080fd5b50610245611527565b604051610252919061514b565b60405180910390f35b34801561026757600080fd5b50610282600480360381019061027d9190614abc565b61154b565b60405161029294939291906151a3565b60405180910390f35b3480156102a757600080fd5b506102c260048036038101906102bd9190614abc565b611882565b6040516102cf9190615181565b60405180910390f35b3480156102e457600080fd5b506102ed611956565b005b61030960048036038101906103049190614d12565b611970565b6040516103199493929190615349565b60405180910390f35b34801561032e57600080fd5b5061034960048036038101906103449190614c95565b611d2d565b005b34801561035757600080fd5b5061036061241f565b60405161036d91906154b3565b60405180910390f35b34801561038257600080fd5b5061039d60048036038101906103989190614bb3565b612429565b6040516103aa9190615130565b60405180910390f35b3480156103bf57600080fd5b506103c8612816565b6040516103d59190615115565b60405180910390f35b3480156103ea57600080fd5b5061040560048036038101906104009190614abc565b61283c565b60405161041594939291906151f6565b60405180910390f35b34801561042a57600080fd5b5061044560048036038101906104409190614c1a565b612c16565b604051610454939291906152b8565b60405180910390f35b34801561046957600080fd5b50610484600480360381019061047f9190614c95565b61319f565b005b34801561049257600080fd5b506104ad60048036038101906104a89190614ae5565b6137c9565b6040516104bd94939291906151a3565b60405180910390f35b6000600360009054906101000a900473ffffffffffffffffffffffffffffffffffffffff1673ffffffffffffffffffffffffffffffffffffffff163373ffffffffffffffffffffffffffffffffffffffff1614610558576040517f08c379a000000000000000000000000000000000000000000000000000000000815260040161054f90615453565b60405180910390fd5b6000151561056585613ed5565b1515146105a7576040517f08c379a000000000000000000000000000000000000000000000000000000000815260040161059e90615473565b60405180910390fd5b606060006040518060e001604052808773ffffffffffffffffffffffffffffffffffffffff168152602001868152602001858152602001600081526020016000815260200183815260200160011515815250905080600760008873ffffffffffffffffffffffffffffffffffffffff1673ffffffffffffffffffffffffffffffffffffffff16815260200190815260200160002060008201518160000160006101000a81548173ffffffffffffffffffffffffffffffffffffffff021916908373ffffffffffffffffffffffffffffffffffffffff160217905550602082015181600101908051906020019061069e929190614751565b5060408201518160020190805190602001906106bb929190614751565b50606082015181600301556080820151816004015560a08201518160050190805190602001906106ec9291906147d7565b5060c08201518160060160006101000a81548160ff0219169083151502179055509050506006869080600181540180825580915050600190039060005260206000200160009091909190916101000a81548173ffffffffffffffffffffffffffffffffffffffff021916908373ffffffffffffffffffffffffffffffffffffffff16021790555060006040518060a00160405280600081526020016000815260200160008152602001600081526020016000815250905080600860008973ffffffffffffffffffffffffffffffffffffffff1673ffffffffffffffffffffffffffffffffffffffff1681526020019081526020016000206000820151816000015560208201518160010155604082015181600201556060820151816003015560808201518160040155905050600193505050509392505050565b606060006001151561083785613ed5565b151514610879576040517f08c379a0000000000000000000000000000000000000000000000000000000008152600401610870906153f3565b60405180910390fd5b6000600760008673ffffffffffffffffffffffffffffffffffffffff1673ffffffffffffffffffffffffffffffffffffffff1681526020019081526020016000206040518060e00160405290816000820160009054906101000a900473ffffffffffffffffffffffffffffffffffffffff1673ffffffffffffffffffffffffffffffffffffffff1673ffffffffffffffffffffffffffffffffffffffff16815260200160018201805461092b90615711565b80601f016020809104026020016040519081016040528092919081815260200182805461095790615711565b80156109a45780601f10610979576101008083540402835291602001916109a4565b820191906000526020600020905b81548152906001019060200180831161098757829003601f168201915b505050505081526020016002820180546109bd90615711565b80601f01602080910402602001604051908101604052809291908181526020018280546109e990615711565b8015610a365780601f10610a0b57610100808354040283529160200191610a36565b820191906000526020600020905b815481529060010190602001808311610a1957829003601f168201915b50505050508152602001600382015481526020016004820154815260200160058201805480602002602001604051908101604052809291908181526020016000905b82821015610b24578382906000526020600020018054610a9790615711565b80601f0160208091040260200160405190810160405280929190818152602001828054610ac390615711565b8015610b105780601f10610ae557610100808354040283529160200191610b10565b820191906000526020600020905b815481529060010190602001808311610af357829003601f168201915b505050505081526020019060010190610a78565b5050505081526020016006820160009054906101000a900460ff161515151581525050905060008160a00151905060006009828781518110610b8f577f4e487b7100000000000000000000000000000000000000000000000000000000600052603260045260246000fd5b6020026020010151604051610ba491906150b6565b908152602001604051809103902060405180608001604052908160008201548152602001600182018054610bd790615711565b80601f0160208091040260200160405190810160405280929190818152602001828054610c0390615711565b8015610c505780601f10610c2557610100808354040283529160200191610c50565b820191906000526020600020905b815481529060010190602001808311610c3357829003601f168201915b505050505081526020016002820160009054906101000a900460ff166002811115610ca4577f4e487b7100000000000000000000000000000000000000000000000000000000600052602160045260246000fd5b6002811115610cdc577f4e487b7100000000000000000000000000000000000000000000000000000000600052602160045260246000fd5b8152602001600382015481525050905080602001518160600151945094505050509250929050565b600160009054906101000a900473ffffffffffffffffffffffffffffffffffffffff1681565b6060806000600360009054906101000a900473ffffffffffffffffffffffffffffffffffffffff1673ffffffffffffffffffffffffffffffffffffffff163373ffffffffffffffffffffffffffffffffffffffff1614610dbf576040517f08c379a0000000000000000000000000000000000000000000000000000000008152600401610db690615453565b60405180910390fd5b60011515610dcc86613ed5565b151514610e0e576040517f08c379a0000000000000000000000000000000000000000000000000000000008152600401610e05906153f3565b60405180910390fd5b6000600760008773ffffffffffffffffffffffffffffffffffffffff1673ffffffffffffffffffffffffffffffffffffffff1681526020019081526020016000206040518060e00160405290816000820160009054906101000a900473ffffffffffffffffffffffffffffffffffffffff1673ffffffffffffffffffffffffffffffffffffffff1673ffffffffffffffffffffffffffffffffffffffff168152602001600182018054610ec090615711565b80601f0160208091040260200160405190810160405280929190818152602001828054610eec90615711565b8015610f395780601f10610f0e57610100808354040283529160200191610f39565b820191906000526020600020905b815481529060010190602001808311610f1c57829003601f168201915b50505050508152602001600282018054610f5290615711565b80601f0160208091040260200160405190810160405280929190818152602001828054610f7e90615711565b8015610fcb5780601f10610fa057610100808354040283529160200191610fcb565b820191906000526020600020905b815481529060010190602001808311610fae57829003601f168201915b50505050508152602001600382015481526020016004820154815260200160058201805480602002602001604051908101604052809291908181526020016000905b828210156110b957838290600052602060002001805461102c90615711565b80601f016020809104026020016040519081016040528092919081815260200182805461105890615711565b80156110a55780601f1061107a576101008083540402835291602001916110a5565b820191906000526020600020905b81548152906001019060200180831161108857829003601f168201915b50505050508152602001906001019061100d565b5050505081526020016006820160009054906101000a900460ff161515151581525050905060008160a00151905060006009828881518110611124577f4e487b7100000000000000000000000000000000000000000000000000000000600052603260045260246000fd5b602002602001015160405161113991906150b6565b90815260200160405180910390206040518060800160405290816000820154815260200160018201805461116c90615711565b80601f016020809104026020016040519081016040528092919081815260200182805461119890615711565b80156111e55780601f106111ba576101008083540402835291602001916111e5565b820191906000526020600020905b8154815290600101906020018083116111c857829003601f168201915b505050505081526020016002820160009054906101000a900460ff166002811115611239577f4e487b7100000000000000000000000000000000000000000000000000000000600052602160045260246000fd5b6002811115611271577f4e487b7100000000000000000000000000000000000000000000000000000000600052602160045260246000fd5b8152602001600382015481525050905080602001516112cb826040015160028111156112c6577f4e487b7100000000000000000000000000000000000000000000000000000000600052602160045260246000fd5b6141b3565b82606001519550955095505050509250925092565b600080600460008473ffffffffffffffffffffffffffffffffffffffff1673ffffffffffffffffffffffffffffffffffffffff1681526020019081526020016000206040518060c001604052908160008201805461133d90615711565b80601f016020809104026020016040519081016040528092919081815260200182805461136990615711565b80156113b65780601f1061138b576101008083540402835291602001916113b6565b820191906000526020600020905b81548152906001019060200180831161139957829003601f168201915b505050505081526020016001820160009054906101000a900473ffffffffffffffffffffffffffffffffffffffff1673ffffffffffffffffffffffffffffffffffffffff1673ffffffffffffffffffffffffffffffffffffffff1681526020016001820160149054906101000a900460ff166001811115611460577f4e487b7100000000000000000000000000000000000000000000000000000000600052602160045260246000fd5b6001811115611498577f4e487b7100000000000000000000000000000000000000000000000000000000600052602160045260246000fd5b815260200160028201548152602001600382015481526020016004820160009054906101000a900460ff161515151581525050905060018160400151600181111561150c577f4e487b7100000000000000000000000000000000000000000000000000000000600052602160045260246000fd5b141561151c576001915050611522565b60009150505b919050565b60008054906101000a900473ffffffffffffffffffffffffffffffffffffffff1681565b6060600060606000600360009054906101000a900473ffffffffffffffffffffffffffffffffffffffff1673ffffffffffffffffffffffffffffffffffffffff163373ffffffffffffffffffffffffffffffffffffffff16146115e3576040517f08c379a00000000000000000000000000000000000000000000000000000000081526004016115da90615453565b60405180910390fd5b600115156115f08661448d565b151514611632576040517f08c379a0000000000000000000000000000000000000000000000000000000008152600401611629906153d3565b60405180910390fd5b6000600460008773ffffffffffffffffffffffffffffffffffffffff1673ffffffffffffffffffffffffffffffffffffffff1681526020019081526020016000206040518060c001604052908160008201805461168e90615711565b80601f01602080910402602001604051908101604052809291908181526020018280546116ba90615711565b80156117075780601f106116dc57610100808354040283529160200191611707565b820191906000526020600020905b8154815290600101906020018083116116ea57829003601f168201915b505050505081526020016001820160009054906101000a900473ffffffffffffffffffffffffffffffffffffffff1673ffffffffffffffffffffffffffffffffffffffff1673ffffffffffffffffffffffffffffffffffffffff1681526020016001820160149054906101000a900460ff1660018111156117b1577f4e487b7100000000000000000000000000000000000000000000000000000000600052602160045260246000fd5b60018111156117e9577f4e487b7100000000000000000000000000000000000000000000000000000000600052602160045260246000fd5b815260200160028201548152602001600382015481526020016004820160009054906101000a900460ff16151515158152505090508060000151816020015161186d83604001516001811115611868577f4e487b7100000000000000000000000000000000000000000000000000000000600052602160045260246000fd5b614568565b83606001519450945094509450509193509193565b606060001515600360149054906101000a900460ff161515146118da576040517f08c379a00000000000000000000000000000000000000000000000000000000081526004016118d190615433565b60405180910390fd5b81600360006101000a81548173ffffffffffffffffffffffffffffffffffffffff021916908373ffffffffffffffffffffffffffffffffffffffff1602179055506001600360146101000a81548160ff0219169083151502179055506040518060600160405280602b8152602001615a6b602b91399050919050565b600b600081548092919061196990615774565b9190505550565b606080600060606000600460003373ffffffffffffffffffffffffffffffffffffffff1673ffffffffffffffffffffffffffffffffffffffff1681526020019081526020016000206040518060c00160405290816000820180546119d390615711565b80601f01602080910402602001604051908101604052809291908181526020018280546119ff90615711565b8015611a4c5780601f10611a2157610100808354040283529160200191611a4c565b820191906000526020600020905b815481529060010190602001808311611a2f57829003601f168201915b505050505081526020016001820160009054906101000a900473ffffffffffffffffffffffffffffffffffffffff1673ffffffffffffffffffffffffffffffffffffffff1673ffffffffffffffffffffffffffffffffffffffff1681526020016001820160149054906101000a900460ff166001811115611af6577f4e487b7100000000000000000000000000000000000000000000000000000000600052602160045260246000fd5b6001811115611b2e577f4e487b7100000000000000000000000000000000000000000000000000000000600052602160045260246000fd5b815260200160028201548152602001600382015481526020016004820160009054906101000a900460ff161515151581525050905060008060009054906101000a900473ffffffffffffffffffffffffffffffffffffffff1673ffffffffffffffffffffffffffffffffffffffff1663f76f950e600b546040518263ffffffff1660e01b8152600401611bc191906154b3565b60006040518083038186803b158015611bd957600080fd5b505afa158015611bed573d6000803e3d6000fd5b505050506040513d6000823e3d601f19601f82011682018060405250810190611c169190614cd1565b90506000826000015182604051602001611c319291906150cd565b6040516020818303038152906040529050600b6000815480929190611c5590615774565b9190505550600160009054906101000a900473ffffffffffffffffffffffffffffffffffffffff1673ffffffffffffffffffffffffffffffffffffffff16634500901e828e8d8f8e8e6040518763ffffffff1660e01b8152600401611cbf96959493929190615242565b600060405180830381600087803b158015611cd957600080fd5b505af1158015611ced573d6000803e3d6000fd5b505050506040513d6000823e3d601f19601f82011682018060405250810190611d169190614db9565b965096509650965050505095509550955095915050565b600360009054906101000a900473ffffffffffffffffffffffffffffffffffffffff1673ffffffffffffffffffffffffffffffffffffffff163373ffffffffffffffffffffffffffffffffffffffff1614611dbd576040517f08c379a0000000000000000000000000000000000000000000000000000000008152600401611db490615453565b60405180910390fd5b6000600860008473ffffffffffffffffffffffffffffffffffffffff1673ffffffffffffffffffffffffffffffffffffffff1681526020019081526020016000206040518060a00160405290816000820154815260200160018201548152602001600282015481526020016003820154815260200160048201548152505090506001821415611e6157806000018051809190611e5890615774565b81525050611ef1565b6002821415611e8557806020018051809190611e7c90615774565b81525050611ef0565b6003821415611ea957806040018051809190611ea090615774565b81525050611eef565b6004821415611ecd57806060018051809190611ec490615774565b81525050611eee565b6005821415611eed57806080018051809190611ee890615774565b815250505b5b5b5b5b80600860008573ffffffffffffffffffffffffffffffffffffffff1673ffffffffffffffffffffffffffffffffffffffff16815260200190815260200160002060008201518160000155602082015181600101556040820151816002015560608201518160030155608082015181600401559050506000600760008573ffffffffffffffffffffffffffffffffffffffff1673ffffffffffffffffffffffffffffffffffffffff1681526020019081526020016000206040518060e00160405290816000820160009054906101000a900473ffffffffffffffffffffffffffffffffffffffff1673ffffffffffffffffffffffffffffffffffffffff1673ffffffffffffffffffffffffffffffffffffffff16815260200160018201805461201890615711565b80601f016020809104026020016040519081016040528092919081815260200182805461204490615711565b80156120915780601f1061206657610100808354040283529160200191612091565b820191906000526020600020905b81548152906001019060200180831161207457829003601f168201915b505050505081526020016002820180546120aa90615711565b80601f01602080910402602001604051908101604052809291908181526020018280546120d690615711565b80156121235780601f106120f857610100808354040283529160200191612123565b820191906000526020600020905b81548152906001019060200180831161210657829003601f168201915b50505050508152602001600382015481526020016004820154815260200160058201805480602002602001604051908101604052809291908181526020016000905b8282101561221157838290600052602060002001805461218490615711565b80601f01602080910402602001604051908101604052809291908181526020018280546121b090615711565b80156121fd5780601f106121d2576101008083540402835291602001916121fd565b820191906000526020600020905b8154815290600101906020018083116121e057829003601f168201915b505050505081526020019060010190612165565b5050505081526020016006820160009054906101000a900460ff161515151581525050905060008054906101000a900473ffffffffffffffffffffffffffffffffffffffff1673ffffffffffffffffffffffffffffffffffffffff166344a3878c836000015184602001518560400151866060015187608001516040518663ffffffff1660e01b81526004016122ab9594939291906154f7565b60206040518083038186803b1580156122c357600080fd5b505afa1580156122d7573d6000803e3d6000fd5b505050506040513d601f19601f820116820180604052508101906122fb9190614e64565b81608001818152505080600760008673ffffffffffffffffffffffffffffffffffffffff1673ffffffffffffffffffffffffffffffffffffffff16815260200190815260200160002060008201518160000160006101000a81548173ffffffffffffffffffffffffffffffffffffffff021916908373ffffffffffffffffffffffffffffffffffffffff16021790555060208201518160010190805190602001906123a7929190614751565b5060408201518160020190805190602001906123c4929190614751565b50606082015181600301556080820151816004015560a08201518160050190805190602001906123f59291906147d7565b5060c08201518160060160006101000a81548160ff02191690831515021790555090505050505050565b6000600b54905090565b6000600360009054906101000a900473ffffffffffffffffffffffffffffffffffffffff1673ffffffffffffffffffffffffffffffffffffffff163373ffffffffffffffffffffffffffffffffffffffff16146124bb576040517f08c379a00000000000000000000000000000000000000000000000000000000081526004016124b290615453565b60405180910390fd5b600015156124c88561448d565b15151461250a576040517f08c379a000000000000000000000000000000000000000000000000000000000815260040161250190615493565b60405180910390fd5b60006040518060c001604052808581526020018673ffffffffffffffffffffffffffffffffffffffff168152602001846001811115612572577f4e487b7100000000000000000000000000000000000000000000000000000000600052602160045260246000fd5b60018111156125aa577f4e487b7100000000000000000000000000000000000000000000000000000000600052602160045260246000fd5b8152602001600081526020016000815260200160011515815250905080600460008773ffffffffffffffffffffffffffffffffffffffff1673ffffffffffffffffffffffffffffffffffffffff1681526020019081526020016000206000820151816000019080519060200190612622929190614751565b5060208201518160010160006101000a81548173ffffffffffffffffffffffffffffffffffffffff021916908373ffffffffffffffffffffffffffffffffffffffff16021790555060408201518160010160146101000a81548160ff021916908360018111156126bb577f4e487b7100000000000000000000000000000000000000000000000000000000600052602160045260246000fd5b0217905550606082015181600201556080820151816003015560a08201518160040160006101000a81548160ff0219169083151502179055509050506005859080600181540180825580915050600190039060005260206000200160009091909190916101000a81548173ffffffffffffffffffffffffffffffffffffffff021916908373ffffffffffffffffffffffffffffffffffffffff160217905550600183141561280a5760006040518060a00160405280600081526020016000815260200160008152602001600081526020016000815250905080600a60008873ffffffffffffffffffffffffffffffffffffffff1673ffffffffffffffffffffffffffffffffffffffff1681526020019081526020016000206000820151816000015560208201518160010155604082015181600201556060820151816003015560808201518160040155905050505b60019150509392505050565b600360009054906101000a900473ffffffffffffffffffffffffffffffffffffffff1681565b60606000806000600360009054906101000a900473ffffffffffffffffffffffffffffffffffffffff1673ffffffffffffffffffffffffffffffffffffffff163373ffffffffffffffffffffffffffffffffffffffff16146128d3576040517f08c379a00000000000000000000000000000000000000000000000000000000081526004016128ca90615453565b60405180910390fd5b600115156128e086613ed5565b151514612922576040517f08c379a0000000000000000000000000000000000000000000000000000000008152600401612919906153f3565b60405180910390fd5b6000600760008773ffffffffffffffffffffffffffffffffffffffff1673ffffffffffffffffffffffffffffffffffffffff1681526020019081526020016000206040518060e00160405290816000820160009054906101000a900473ffffffffffffffffffffffffffffffffffffffff1673ffffffffffffffffffffffffffffffffffffffff1673ffffffffffffffffffffffffffffffffffffffff1681526020016001820180546129d490615711565b80601f0160208091040260200160405190810160405280929190818152602001828054612a0090615711565b8015612a4d5780601f10612a2257610100808354040283529160200191612a4d565b820191906000526020600020905b815481529060010190602001808311612a3057829003601f168201915b50505050508152602001600282018054612a6690615711565b80601f0160208091040260200160405190810160405280929190818152602001828054612a9290615711565b8015612adf5780601f10612ab457610100808354040283529160200191612adf565b820191906000526020600020905b815481529060010190602001808311612ac257829003601f168201915b50505050508152602001600382015481526020016004820154815260200160058201805480602002602001604051908101604052809291908181526020016000905b82821015612bcd578382906000526020600020018054612b4090615711565b80601f0160208091040260200160405190810160405280929190818152602001828054612b6c90615711565b8015612bb95780601f10612b8e57610100808354040283529160200191612bb9565b820191906000526020600020905b815481529060010190602001808311612b9c57829003601f168201915b505050505081526020019060010190612b21565b5050505081526020016006820160009054906101000a900460ff161515151581525050905080604001518160000151826060015183608001519450945094509450509193509193565b6060806060600360009054906101000a900473ffffffffffffffffffffffffffffffffffffffff1673ffffffffffffffffffffffffffffffffffffffff163373ffffffffffffffffffffffffffffffffffffffff1614612cab576040517f08c379a0000000000000000000000000000000000000000000000000000000008152600401612ca290615453565b60405180910390fd5b60011515612cb888613ed5565b151514612cfa576040517f08c379a0000000000000000000000000000000000000000000000000000000008152600401612cf1906153f3565b60405180910390fd5b6000600760008973ffffffffffffffffffffffffffffffffffffffff1673ffffffffffffffffffffffffffffffffffffffff168152602001908152602001600020905060008060009054906101000a900473ffffffffffffffffffffffffffffffffffffffff1673ffffffffffffffffffffffffffffffffffffffff1663f76f950e83600301546040518263ffffffff1660e01b8152600401612d9d91906154b3565b60006040518083038186803b158015612db557600080fd5b505afa158015612dc9573d6000803e3d6000fd5b505050506040513d6000823e3d601f19601f82011682018060405250810190612df29190614cd1565b905060008260020182604051602001612e0c9291906150f1565b604051602081830303815290604052905060006040518060800160405280856003015481526020018b81526020018a6002811115612e73577f4e487b7100000000000000000000000000000000000000000000000000000000600052602160045260246000fd5b6002811115612eab577f4e487b7100000000000000000000000000000000000000000000000000000000600052602160045260246000fd5b815260200189815250905080600983604051612ec791906150b6565b9081526020016040518091039020600082015181600001556020820151816001019080519060200190612efb929190614751565b5060408201518160020160006101000a81548160ff02191690836002811115612f4d577f4e487b7100000000000000000000000000000000000000000000000000000000600052602160045260246000fd5b0217905550606082015181600301559050508360050182908060018154018082558091505060019003906000526020600020016000909190919091509080519060200190612f9c929190614751565b50836003016000815480929190612fb290615774565b919050555083600760008d73ffffffffffffffffffffffffffffffffffffffff1673ffffffffffffffffffffffffffffffffffffffff1681526020019081526020016000206000820160009054906101000a900473ffffffffffffffffffffffffffffffffffffffff168160000160006101000a81548173ffffffffffffffffffffffffffffffffffffffff021916908373ffffffffffffffffffffffffffffffffffffffff160217905550600182018160010190805461307290615711565b61307d929190614837565b50600282018160020190805461309290615711565b61309d929190614837565b50600382015481600301556004820154816004015560058201816005019080546130c89291906148c4565b506006820160009054906101000a900460ff168160060160006101000a81548160ff02191690831515021790555090505083600201828b82805461310b90615711565b80601f016020809104026020016040519081016040528092919081815260200182805461313790615711565b80156131845780601f1061315957610100808354040283529160200191613184565b820191906000526020600020905b81548152906001019060200180831161316757829003601f168201915b50505050509250965096509650505050509450945094915050565b600360009054906101000a900473ffffffffffffffffffffffffffffffffffffffff1673ffffffffffffffffffffffffffffffffffffffff163373ffffffffffffffffffffffffffffffffffffffff161461322f576040517f08c379a000000000000000000000000000000000000000000000000000000000815260040161322690615453565b60405180910390fd5b6000600a60008473ffffffffffffffffffffffffffffffffffffffff1673ffffffffffffffffffffffffffffffffffffffff1681526020019081526020016000206040518060a001604052908160008201548152602001600182015481526020016002820154815260200160038201548152602001600482015481525050905060018214156132d3578060000180518091906132ca90615774565b81525050613363565b60028214156132f7578060200180518091906132ee90615774565b81525050613362565b600382141561331b5780604001805180919061331290615774565b81525050613361565b600482141561333f5780606001805180919061333690615774565b81525050613360565b600582141561335f5780608001805180919061335a90615774565b815250505b5b5b5b5b80600a60008573ffffffffffffffffffffffffffffffffffffffff1673ffffffffffffffffffffffffffffffffffffffff16815260200190815260200160002060008201518160000155602082015181600101556040820151816002015560608201518160030155608082015181600401559050506000600460008573ffffffffffffffffffffffffffffffffffffffff1673ffffffffffffffffffffffffffffffffffffffff1681526020019081526020016000206040518060c001604052908160008201805461343490615711565b80601f016020809104026020016040519081016040528092919081815260200182805461346090615711565b80156134ad5780601f10613482576101008083540402835291602001916134ad565b820191906000526020600020905b81548152906001019060200180831161349057829003601f168201915b505050505081526020016001820160009054906101000a900473ffffffffffffffffffffffffffffffffffffffff1673ffffffffffffffffffffffffffffffffffffffff1673ffffffffffffffffffffffffffffffffffffffff1681526020016001820160149054906101000a900460ff166001811115613557577f4e487b7100000000000000000000000000000000000000000000000000000000600052602160045260246000fd5b600181111561358f577f4e487b7100000000000000000000000000000000000000000000000000000000600052602160045260246000fd5b815260200160028201548152602001600382015481526020016004820160009054906101000a900460ff161515151581525050905060008054906101000a900473ffffffffffffffffffffffffffffffffffffffff1673ffffffffffffffffffffffffffffffffffffffff166344a3878c836000015184602001518560400151866060015187608001516040518663ffffffff1660e01b81526004016136399594939291906154f7565b60206040518083038186803b15801561365157600080fd5b505afa158015613665573d6000803e3d6000fd5b505050506040513d601f19601f820116820180604052508101906136899190614e64565b81606001818152505080600460008673ffffffffffffffffffffffffffffffffffffffff1673ffffffffffffffffffffffffffffffffffffffff16815260200190815260200160002060008201518160000190805190602001906136ee929190614751565b5060208201518160010160006101000a81548173ffffffffffffffffffffffffffffffffffffffff021916908373ffffffffffffffffffffffffffffffffffffffff16021790555060408201518160010160146101000a81548160ff02191690836001811115613787577f4e487b7100000000000000000000000000000000000000000000000000000000600052602160045260246000fd5b0217905550606082015181600201556080820151816003015560a08201518160040160006101000a81548160ff02191690831515021790555090505050505050565b6060600060606000600360009054906101000a900473ffffffffffffffffffffffffffffffffffffffff1673ffffffffffffffffffffffffffffffffffffffff163373ffffffffffffffffffffffffffffffffffffffff1614613861576040517f08c379a000000000000000000000000000000000000000000000000000000000815260040161385890615453565b60405180910390fd5b6001151561386e8861448d565b1515146138b0576040517f08c379a00000000000000000000000000000000000000000000000000000000081526004016138a790615413565b60405180910390fd5b600080600760008973ffffffffffffffffffffffffffffffffffffffff1673ffffffffffffffffffffffffffffffffffffffff1681526020019081526020016000206040518060e00160405290816000820160009054906101000a900473ffffffffffffffffffffffffffffffffffffffff1673ffffffffffffffffffffffffffffffffffffffff1673ffffffffffffffffffffffffffffffffffffffff16815260200160018201805461396390615711565b80601f016020809104026020016040519081016040528092919081815260200182805461398f90615711565b80156139dc5780601f106139b1576101008083540402835291602001916139dc565b820191906000526020600020905b8154815290600101906020018083116139bf57829003601f168201915b505050505081526020016002820180546139f590615711565b80601f0160208091040260200160405190810160405280929190818152602001828054613a2190615711565b8015613a6e5780601f10613a4357610100808354040283529160200191613a6e565b820191906000526020600020905b815481529060010190602001808311613a5157829003601f168201915b50505050508152602001600382015481526020016004820154815260200160058201805480602002602001604051908101604052809291908181526020016000905b82821015613b5c578382906000526020600020018054613acf90615711565b80601f0160208091040260200160405190810160405280929190818152602001828054613afb90615711565b8015613b485780601f10613b1d57610100808354040283529160200191613b48565b820191906000526020600020905b815481529060010190602001808311613b2b57829003601f168201915b505050505081526020019060010190613ab0565b5050505081526020016006820160009054906101000a900460ff161515151581525050905060008160a00151905060006009828a81518110613bc7577f4e487b7100000000000000000000000000000000000000000000000000000000600052603260045260246000fd5b6020026020010151604051613bdc91906150b6565b908152602001604051809103902060405180608001604052908160008201548152602001600182018054613c0f90615711565b80601f0160208091040260200160405190810160405280929190818152602001828054613c3b90615711565b8015613c885780601f10613c5d57610100808354040283529160200191613c88565b820191906000526020600020905b815481529060010190602001808311613c6b57829003601f168201915b505050505081526020016002820160009054906101000a900460ff166002811115613cdc577f4e487b7100000000000000000000000000000000000000000000000000000000600052602160045260246000fd5b6002811115613d14577f4e487b7100000000000000000000000000000000000000000000000000000000600052602160045260246000fd5b81526020016003820154815250509050806060015184613d3491906155dc565b9350600084905060008054906101000a900473ffffffffffffffffffffffffffffffffffffffff1673ffffffffffffffffffffffffffffffffffffffff16636560951682600c546040518363ffffffff1660e01b8152600401613d989291906154ce565b60206040518083038186803b158015613db057600080fd5b505afa158015613dc4573d6000803e3d6000fd5b505050506040513d601f19601f82011682018060405250810190613de89190614e64565b85613df391906155dc565b945060008054906101000a900473ffffffffffffffffffffffffffffffffffffffff1673ffffffffffffffffffffffffffffffffffffffff1663221c9cfe82600d546040518363ffffffff1660e01b8152600401613e529291906154ce565b60206040518083038186803b158015613e6a57600080fd5b505afa158015613e7e573d6000803e3d6000fd5b505050506040513d601f19601f82011682018060405250810190613ea29190614e64565b85613ead91906155dc565b9450836040015184600001518360200151879850985098509850505050505093509350935093565b600080600760008473ffffffffffffffffffffffffffffffffffffffff1673ffffffffffffffffffffffffffffffffffffffff1681526020019081526020016000206040518060e00160405290816000820160009054906101000a900473ffffffffffffffffffffffffffffffffffffffff1673ffffffffffffffffffffffffffffffffffffffff1673ffffffffffffffffffffffffffffffffffffffff168152602001600182018054613f8890615711565b80601f0160208091040260200160405190810160405280929190818152602001828054613fb490615711565b80156140015780601f10613fd657610100808354040283529160200191614001565b820191906000526020600020905b815481529060010190602001808311613fe457829003601f168201915b5050505050815260200160028201805461401a90615711565b80601f016020809104026020016040519081016040528092919081815260200182805461404690615711565b80156140935780601f1061406857610100808354040283529160200191614093565b820191906000526020600020905b81548152906001019060200180831161407657829003601f168201915b50505050508152602001600382015481526020016004820154815260200160058201805480602002602001604051908101604052809291908181526020016000905b828210156141815783829060005260206000200180546140f490615711565b80601f016020809104026020016040519081016040528092919081815260200182805461412090615711565b801561416d5780601f106141425761010080835404028352916020019161416d565b820191906000526020600020905b81548152906001019060200180831161415057829003601f168201915b5050505050815260200190600101906140d5565b5050505081526020016006820160009054906101000a900460ff16151515158152505090508060c00151915050919050565b60608160ff1660028111156141f1577f4e487b7100000000000000000000000000000000000000000000000000000000600052602160045260246000fd5b6002811115614229577f4e487b7100000000000000000000000000000000000000000000000000000000600052602160045260246000fd5b60006002811115614263577f4e487b7100000000000000000000000000000000000000000000000000000000600052602160045260246000fd5b14156142a6576040518060400160405280600981526020017f4170706574697a657200000000000000000000000000000000000000000000008152509050614488565b8160ff1660028111156142e2577f4e487b7100000000000000000000000000000000000000000000000000000000600052602160045260246000fd5b600281111561431a577f4e487b7100000000000000000000000000000000000000000000000000000000600052602160045260246000fd5b60016002811115614354577f4e487b7100000000000000000000000000000000000000000000000000000000600052602160045260246000fd5b1415614397576040518060400160405280600481526020017f4d61696e000000000000000000000000000000000000000000000000000000008152509050614488565b8160ff1660028111156143d3577f4e487b7100000000000000000000000000000000000000000000000000000000600052602160045260246000fd5b600281111561440b577f4e487b7100000000000000000000000000000000000000000000000000000000600052602160045260246000fd5b600280811115614444577f4e487b7100000000000000000000000000000000000000000000000000000000600052602160045260246000fd5b1415614487576040518060400160405280600681526020017f44657365727400000000000000000000000000000000000000000000000000008152509050614488565b5b919050565b600080600090505b6005805490508160ff16101561455d578273ffffffffffffffffffffffffffffffffffffffff1660058260ff16815481106144f9577f4e487b7100000000000000000000000000000000000000000000000000000000600052603260045260246000fd5b9060005260206000200160009054906101000a900473ffffffffffffffffffffffffffffffffffffffff1673ffffffffffffffffffffffffffffffffffffffff16141561454a576001915050614563565b8080614555906157bd565b915050614495565b50600090505b919050565b60608160ff1660018111156145a6577f4e487b7100000000000000000000000000000000000000000000000000000000600052602160045260246000fd5b60018111156145de577f4e487b7100000000000000000000000000000000000000000000000000000000600052602160045260246000fd5b60006001811115614618577f4e487b7100000000000000000000000000000000000000000000000000000000600052602160045260246000fd5b141561465b576040518060400160405280600881526020017f437573746f6d6572000000000000000000000000000000000000000000000000815250905061474c565b8160ff166001811115614697577f4e487b7100000000000000000000000000000000000000000000000000000000600052602160045260246000fd5b60018111156146cf577f4e487b7100000000000000000000000000000000000000000000000000000000600052602160045260246000fd5b600180811115614708577f4e487b7100000000000000000000000000000000000000000000000000000000600052602160045260246000fd5b141561474b576040518060400160405280600881526020017f44656c6976657279000000000000000000000000000000000000000000000000815250905061474c565b5b919050565b82805461475d90615711565b90600052602060002090601f01602090048101928261477f57600085556147c6565b82601f1061479857805160ff19168380011785556147c6565b828001600101855582156147c6579182015b828111156147c55782518255916020019190600101906147aa565b5b5090506147d3919061492c565b5090565b828054828255906000526020600020908101928215614826579160200282015b82811115614825578251829080519060200190614815929190614751565b50916020019190600101906147f7565b5b5090506148339190614949565b5090565b82805461484390615711565b90600052602060002090601f01602090048101928261486557600085556148b3565b82601f1061487657805485556148b3565b828001600101855582156148b357600052602060002091601f016020900482015b828111156148b2578254825591600101919060010190614897565b5b5090506148c0919061492c565b5090565b82805482825590600052602060002090810192821561491b5760005260206000209182015b8281111561491a5782829080546148ff90615711565b61490a929190614837565b50916001019190600101906148e9565b5b5090506149289190614949565b5090565b5b8082111561494557600081600090555060010161492d565b5090565b5b808211156149695760008181614960919061496d565b5060010161494a565b5090565b50805461497990615711565b6000825580601f1061498b57506149aa565b601f0160209004906000526020600020908101906149a9919061492c565b5b50565b60006149c06149bb8461556f565b61554a565b9050828152602081018484840111156149d857600080fd5b6149e38482856156cf565b509392505050565b60006149fe6149f98461556f565b61554a565b905082815260208101848484011115614a1657600080fd5b614a218482856156de565b509392505050565b600081359050614a3881615a3c565b92915050565b600082601f830112614a4f57600080fd5b8135614a5f8482602086016149ad565b91505092915050565b600082601f830112614a7957600080fd5b8151614a898482602086016149eb565b91505092915050565b600081359050614aa181615a53565b92915050565b600081519050614ab681615a53565b92915050565b600060208284031215614ace57600080fd5b6000614adc84828501614a29565b91505092915050565b600080600060608486031215614afa57600080fd5b6000614b0886828701614a29565b9350506020614b1986828701614a29565b9250506040614b2a86828701614a92565b9150509250925092565b600080600060608486031215614b4957600080fd5b6000614b5786828701614a29565b935050602084013567ffffffffffffffff811115614b7457600080fd5b614b8086828701614a3e565b925050604084013567ffffffffffffffff811115614b9d57600080fd5b614ba986828701614a3e565b9150509250925092565b600080600060608486031215614bc857600080fd5b6000614bd686828701614a29565b935050602084013567ffffffffffffffff811115614bf357600080fd5b614bff86828701614a3e565b9250506040614c1086828701614a92565b9150509250925092565b60008060008060808587031215614c3057600080fd5b6000614c3e87828801614a29565b945050602085013567ffffffffffffffff811115614c5b57600080fd5b614c6787828801614a3e565b9350506040614c7887828801614a92565b9250506060614c8987828801614a92565b91505092959194509250565b60008060408385031215614ca857600080fd5b6000614cb685828601614a29565b9250506020614cc785828601614a92565b9150509250929050565b600060208284031215614ce357600080fd5b600082015167ffffffffffffffff811115614cfd57600080fd5b614d0984828501614a68565b91505092915050565b600080600080600060a08688031215614d2a57600080fd5b600086013567ffffffffffffffff811115614d4457600080fd5b614d5088828901614a3e565b9550506020614d6188828901614a29565b9450506040614d7288828901614a29565b935050606086013567ffffffffffffffff811115614d8f57600080fd5b614d9b88828901614a3e565b9250506080614dac88828901614a92565b9150509295509295909350565b60008060008060808587031215614dcf57600080fd5b600085015167ffffffffffffffff811115614de957600080fd5b614df587828801614a68565b945050602085015167ffffffffffffffff811115614e1257600080fd5b614e1e87828801614a68565b9350506040614e2f87828801614aa7565b925050606085015167ffffffffffffffff811115614e4c57600080fd5b614e5887828801614a68565b91505092959194509250565b600060208284031215614e7657600080fd5b6000614e8484828501614aa7565b91505092915050565b614e9681615632565b82525050565b614ea581615644565b82525050565b614eb481615687565b82525050565b614ec3816156ab565b82525050565b6000614ed4826155b5565b614ede81856155c0565b9350614eee8185602086016156de565b614ef781615874565b840191505092915050565b6000614f0d826155b5565b614f1781856155d1565b9350614f278185602086016156de565b80840191505092915050565b60008154614f4081615711565b614f4a81866155d1565b94506001821660008114614f655760018114614f7657614fa9565b60ff19831686528186019350614fa9565b614f7f856155a0565b60005b83811015614fa157815481890152600182019150602081019050614f82565b838801955050505b50505092915050565b6000614fbf6015836155c0565b9150614fca82615885565b602082019050919050565b6000614fe2601d836155c0565b9150614fed826158ae565b602082019050919050565b60006150056027836155c0565b9150615010826158d7565b604082019050919050565b6000615028603c836155c0565b915061503382615926565b604082019050919050565b600061504b6038836155c0565b915061505682615975565b604082019050919050565b600061506e6021836155c0565b9150615079826159c4565b604082019050919050565b60006150916017836155c0565b915061509c82615a13565b602082019050919050565b6150b081615670565b82525050565b60006150c28284614f02565b915081905092915050565b60006150d98285614f02565b91506150e58284614f02565b91508190509392505050565b60006150fd8285614f33565b91506151098284614f02565b91508190509392505050565b600060208201905061512a6000830184614e8d565b92915050565b60006020820190506151456000830184614e9c565b92915050565b60006020820190506151606000830184614eab565b92915050565b600060208201905061517b6000830184614eba565b92915050565b6000602082019050818103600083015261519b8184614ec9565b905092915050565b600060808201905081810360008301526151bd8187614ec9565b90506151cc6020830186614e8d565b81810360408301526151de8185614ec9565b90506151ed60608301846150a7565b95945050505050565b600060808201905081810360008301526152108187614ec9565b905061521f6020830186614e8d565b61522c60408301856150a7565b61523960608301846150a7565b95945050505050565b600060c082019050818103600083015261525c8189614ec9565b905081810360208301526152708188614ec9565b905061527f6040830187614e8d565b61528c6060830186614e8d565b818103608083015261529e8185614ec9565b90506152ad60a08301846150a7565b979650505050505050565b600060608201905081810360008301526152d28186614ec9565b905081810360208301526152e68185614ec9565b905081810360408301526152fa8184614ec9565b9050949350505050565b6000606082019050818103600083015261531e8186614ec9565b905081810360208301526153328185614ec9565b905061534160408301846150a7565b949350505050565b600060808201905081810360008301526153638187614ec9565b905081810360208301526153778186614ec9565b905061538660408301856150a7565b81810360608301526153988184614ec9565b905095945050505050565b600060408201905081810360008301526153bd8185614ec9565b90506153cc60208301846150a7565b9392505050565b600060208201905081810360008301526153ec81614fb2565b9050919050565b6000602082019050818103600083015261540c81614fd5565b9050919050565b6000602082019050818103600083015261542c81614ff8565b9050919050565b6000602082019050818103600083015261544c8161501b565b9050919050565b6000602082019050818103600083015261546c8161503e565b9050919050565b6000602082019050818103600083015261548c81615061565b9050919050565b600060208201905081810360008301526154ac81615084565b9050919050565b60006020820190506154c860008301846150a7565b92915050565b60006040820190506154e360008301856150a7565b6154f060208301846150a7565b9392505050565b600060a08201905061550c60008301886150a7565b61551960208301876150a7565b61552660408301866150a7565b61553360608301856150a7565b61554060808301846150a7565b9695505050505050565b6000615554615565565b90506155608282615743565b919050565b6000604051905090565b600067ffffffffffffffff82111561558a57615589615845565b5b61559382615874565b9050602081019050919050565b60008190508160005260206000209050919050565b600081519050919050565b600082825260208201905092915050565b600081905092915050565b60006155e782615670565b91506155f283615670565b9250827fffffffffffffffffffffffffffffffffffffffffffffffffffffffffffffffff03821115615627576156266157e7565b5b828201905092915050565b600061563d82615650565b9050919050565b60008115159050919050565b600073ffffffffffffffffffffffffffffffffffffffff82169050919050565b6000819050919050565b600060ff82169050919050565b600061569282615699565b9050919050565b60006156a482615650565b9050919050565b60006156b6826156bd565b9050919050565b60006156c882615650565b9050919050565b82818337600083830152505050565b60005b838110156156fc5780820151818401526020810190506156e1565b8381111561570b576000848401525b50505050565b6000600282049050600182168061572957607f821691505b6020821081141561573d5761573c615816565b5b50919050565b61574c82615874565b810181811067ffffffffffffffff8211171561576b5761576a615845565b5b80604052505050565b600061577f82615670565b91507fffffffffffffffffffffffffffffffffffffffffffffffffffffffffffffffff8214156157b2576157b16157e7565b5b600182019050919050565b60006157c88261567a565b915060ff8214156157dc576157db6157e7565b5b600182019050919050565b7f4e487b7100000000000000000000000000000000000000000000000000000000600052601160045260246000fd5b7f4e487b7100000000000000000000000000000000000000000000000000000000600052602260045260246000fd5b7f4e487b7100000000000000000000000000000000000000000000000000000000600052604160045260246000fd5b6000601f19601f8301169050919050565b7f557365722064617461206e6f7420666f756e6421200000000000000000000000600082015250565b7f52657374617572616e74206973206e6f7420726567697374657265642e000000600082015250565b7f55736572206d757374207265676973746572206265666f726520706c6163696e60008201527f67206f7264657200000000000000000000000000000000000000000000000000602082015250565b7f466f6f6469657a20526567697374726174696f6e202d20506172656e7420616c60008201527f7265616479207365742e2043616e6e6f74206265204368616e67656400000000602082015250565b7f466f6f6469657a20526567697374726174696f6e202d204f6e6c79204f776e6560008201527f722063616e2063616c6c20746869732066756e6374696f6e0000000000000000602082015250565b7f52657374617572616e7420697320616c7265616479207265676973746572656460008201527f2e00000000000000000000000000000000000000000000000000000000000000602082015250565b7f5573657220416c72656164792072656769737465726564000000000000000000600082015250565b615a4581615632565b8114615a5057600080fd5b50565b615a5c81615670565b8114615a6757600080fd5b5056fe466f6f6469657a204f726465727320706172656e7420636f6e74726163742061646472657373207365742ea2646970667358221220b26be987ebe9a012a263857033b261baa373efd8dc24568c8a857928dcaf39cc64736f6c63430008010033",
  "immutableReferences": {},
  "source": "pragma solidity 0.8.1;\n// pragma solidity 0.7.6;\n// \"SPDX-License-Identifier: UNLICENSED\"\n\nimport \"./helpers_interface.sol\";\nimport \"./orders_interface.sol\";\n\n\ncontract FoodiezRegistration {\n    \n    // FoodiezHelpers public _foodiezHelpers;\n    // FoodiezOrders public _foodiezOrders;\n    FoodiezHelpersInterface public _foodiezHelpers;\n    FoodiezOrdersInterface public _foodiezOrders;\n\n    address ownerAddress;\n\n    address public parentContractAddress;\n    bool isParentContractSet = false;\n    \n    constructor(FoodiezHelpersInterface _helperAddress, FoodiezOrdersInterface _orderAddress) {\n        ownerAddress = msg.sender;\n        _foodiezHelpers = _helperAddress;\n        _foodiezOrders = _orderAddress;\n        \n        _foodiezOrders.setRegisterContract(address(this));\n    }\n    \n    \n    /************User and mapping**********************/\n    enum UserType { Customer, Delivery } // 0 , 1\n    struct User {\n        string name;\n        address userID;\n        UserType usrType;\n        uint256 rating;\n        uint256 tokens;\n        bool isRegistered;\n    }\n     \n    // address to registered user mapping.\n    mapping(address => User) registeredUserMapping;\n    address[] RegisteredUserAddresses;\n    \n    /************Restaurant and mapping**********************/\n    struct Restaurant {\n        address restaurantAddress;\n        string name;\n        string rId;\n        uint noOfItems;\n        uint rating;\n        string[] itemNames;\n        bool isRegistered;\n    } \n    \n    enum MenuType { Appetizer, Main, Desert }\n    struct MenuItem{\n        uint itemNum;\n        string name;\n        MenuType itemType;\n        uint256 price;\n    }\n    \n    struct Rating{\n        uint oneStar;\n        uint twoStar;\n        uint threeStar;\n        uint fourStar;\n        uint fiveStar;\n    } \n    \n    address[] RestaurantCount;\n    \n    mapping(address => Restaurant) RestaurantMapping;\n    mapping(address => Rating) RestaurantRating;\n    mapping(string => MenuItem) RestaurantMenuItems; // restaurantIds to menu items\n    mapping(address => Rating) DriverRating;\n    \n    uint256 orderTotalCount = 0;\n     \n    uint NetworkServiceFee = 2;\n    uint DeliveryFlatFee = 2;\n    \n    /************Modifiers *************************************************/\n    modifier OnlyParent(){\n        require(msg.sender == parentContractAddress, \"Foodiez Registration - Only Owner can call this function\");\n        _; // this underscore is requierd otherwise compiler will break;\n    }\n\n    modifier OnlyOwner(){\n        require(msg.sender == ownerAddress, \"Foodiez Registration - Only Owner can call this function\");\n        _; // this underscore is requierd otherwise compiler will break;\n    }\n\n    modifier isDeliveryCheck(){\n        User memory u = registeredUserMapping[msg.sender];\n        require(uint(UserType(u.usrType))== 1, \"User is not a Delivery agent. Only Delivery agents can be assigned food order.\");\n        \n        _;\n    }\n    \n    /************Address setters for helper / order contracts *************************************************/\n    function setParentContract(address _address) public returns(string memory) {\n        require(isParentContractSet == false,\"Foodiez Registration - Parent already set. Cannot be Changed\");\n        parentContractAddress = _address;\n        isParentContractSet = true;\n        \n        return(\"Foodiez Orders parent contract address set.\");\n    }\n\n    /************User and Restaurant***********************************************/\n    \n    // User Registration\n    function userRegistration(address _address, string memory name, uint uType) public OnlyParent returns (bool) {\n         require(isUserRegistered(_address) == false, \"User Already registered\");\n        \n        // task: check is user is already registered, is yes then return message already registered\n         \n        User memory u = User(name, _address, UserType(uType), 0, 0, true);\n        registeredUserMapping[_address] = u;\n        RegisteredUserAddresses.push(_address);\n        \n        if(uType == 1){\n            // Create default ratings for delivery\n            Rating memory rating = Rating(0,0,0,0,0);\n            DriverRating[_address] = rating;\n        } \n        \n        return true;\n     }\n     \n    function getUserInfo(address _address) public OnlyParent view returns(string memory, address, string memory, uint256 ){\n        require(isUserRegistered(_address) == true, \"User data not found! \");\n        \n        User memory usr = registeredUserMapping[_address];\n         \n        return(usr.name, usr.userID, getUserTypeFriendly(uint8(usr.usrType)), usr.rating);\n         \n     }\n    \n    // Restaurant and Items Registration \n    function createRestaurant(address _address, string memory _name, string memory _rId) public OnlyParent returns(bool) {\n        require(isRestaurantRegistered(_address) == false, \"Restaurant is already registered.\");\n        \n        // Create new Restaurant\n        string[] memory itemNames; // init for empty array;\n        Restaurant memory m = Restaurant(_address, _name, _rId, 0, 0, itemNames,true);\n        \n        RestaurantMapping[_address] = m;\n        RestaurantCount.push(_address);\n        \n        // Create default ratings for Restaurant\n        Rating memory rating = Rating(0,0,0,0,0);\n        RestaurantRating[_address] = rating;\n        \n        return true;\n    }\n    \n    function addMenuItems(address _address, string memory _itemName, uint _type, uint _price) public OnlyParent returns (string memory, string memory, string memory) {\n        // only allowed by restaurants address that are already registered.\n        require(isRestaurantRegistered(_address) == true, \"Restaurant is not registered.\");\n        \n        Restaurant storage rest = RestaurantMapping[_address];\n        \n        // create unique id from itemName and num ( itemNumberCount)\n        string memory uni = _foodiezHelpers.uint2str(rest.noOfItems);\n        string memory uniqueId = string(abi.encodePacked(rest.rId, uni));\n        \n        MenuItem memory mItem = MenuItem(rest.noOfItems, _itemName, MenuType(_type), _price);\n        \n        RestaurantMenuItems[uniqueId] = mItem;\n        rest.itemNames.push(uniqueId);\n        rest.noOfItems++;\n        RestaurantMapping[_address] = rest;\n        \n        return (rest.rId, uniqueId, _itemName);\n    }\n    \n    function getRestaurantMenu(address _restaurantAddress, uint _itemNumber) public OnlyParent view returns(string memory, string memory, uint256){\n        require(isRestaurantRegistered(_restaurantAddress) == true, \"Restaurant is not registered.\");\n        \n        Restaurant memory rest = RestaurantMapping[_restaurantAddress];\n        \n        string[] memory menuItems = rest.itemNames;\n        \n        MenuItem memory item = RestaurantMenuItems[menuItems[_itemNumber]];\n        return(item.name, getMenuTypeFriendly(uint8(item.itemType)) , item.price);\n        \n    }\n    \n    function getrestaurantInfo(address _restaurantAddress) public OnlyParent view returns(string memory, address, uint256, uint256){\n        require(isRestaurantRegistered(_restaurantAddress) == true, \"Restaurant is not registered.\");\n        \n        Restaurant memory rest = RestaurantMapping[_restaurantAddress];\n        return(rest.rId, rest.restaurantAddress, rest.noOfItems, rest.rating);\n    }\n    \n    /*************Orders Functions********************************************************************/\n    function getOrderTotal(address _userAddress, address _address, uint _itemNum) public view OnlyParent returns(string memory, address, string memory, uint){\n        require(isUserRegistered(_userAddress) == true, \"User must register before placing order\");\n        uint totalPrice = 0;\n        // get restaurant\n        Restaurant memory rest = RestaurantMapping[_address];\n        \n        string[] memory menuItems = rest.itemNames;\n        MenuItem memory m = RestaurantMenuItems[menuItems[_itemNum]];\n        \n        totalPrice += m.price;\n        // calculate total bill\n        uint tempTotal = totalPrice;\n        totalPrice += _foodiezHelpers.calcServiceFee(tempTotal, NetworkServiceFee);\n        totalPrice += _foodiezHelpers.calcDriverFlatFee(tempTotal, DeliveryFlatFee);\n        \n        return ( rest.rId, rest.restaurantAddress, m.name, totalPrice);\n    }\n    \n    function createFoodOrder(string memory rId, address userAddress, address restaurantAddress, string memory itemName, uint totalPrice) public payable returns (string memory, string memory, uint, string memory){\n        \n        /****** create unique userOrderId*****/\n        // get user data \n        User memory _regUser = registeredUserMapping[msg.sender];\n        \n        string memory orderNumString = _foodiezHelpers.uint2str(orderTotalCount);\n        string memory uniqueUserOrderId = string(abi.encodePacked(_regUser.name, orderNumString));\n        orderTotalCount++;\n        \n        return _foodiezOrders.createFoodOrderEntry(uniqueUserOrderId, rId, restaurantAddress, userAddress, itemName, totalPrice);\n        \n    }\n    \n    function addRestaurantRating(address _restaurantAddress, uint _restaurantRating) public OnlyParent {\n        Rating memory r = RestaurantRating[_restaurantAddress];\n        \n        if(_restaurantRating == 1){\n            r.oneStar++;\n        }else if(_restaurantRating == 2){\n            r.twoStar++;\n        }else if(_restaurantRating == 3){\n            r.threeStar++;\n        }else if(_restaurantRating == 4){\n            r.fourStar++;\n        }else if(_restaurantRating == 5){\n            r.fiveStar++;\n        }\n        \n        // calculate the weighted average\n        RestaurantRating[_restaurantAddress] = r;\n        \n        Restaurant memory res = RestaurantMapping[_restaurantAddress];\n        res.rating = _foodiezHelpers.calcWeightedAvg(r.oneStar, r.twoStar, r.threeStar, r.fourStar, r.fiveStar);\n        RestaurantMapping[_restaurantAddress] = res;\n    }\n    \n    function addDriverRating(address _address, uint _deliveryRating) public OnlyParent {\n        Rating memory r = DriverRating[_address];\n         \n        if(_deliveryRating == 1){\n            r.oneStar++;\n        }else if(_deliveryRating == 2){\n            r.twoStar++;\n        }else if(_deliveryRating == 3){\n            r.threeStar++;\n        }else if(_deliveryRating == 4){\n            r.fourStar++;\n        }else if(_deliveryRating == 5){\n            r.fiveStar++;\n        }\n\n        DriverRating[_address] = r;\n         \n        User memory usr = registeredUserMapping[_address];\n        usr.rating = _foodiezHelpers.calcWeightedAvg(r.oneStar, r.twoStar, r.threeStar, r.fourStar, r.fiveStar);\n        registeredUserMapping[_address] = usr;\n    }\n    \n    \n    /*************Registration Helpers********************************************************************/\n    function isUserRegistered( address _address) internal view returns (bool) {\n         \n        for( uint8 j = 0; j < RegisteredUserAddresses.length; j++){\n             \n            if(RegisteredUserAddresses[j] == _address){\n                return (true); // user is registered.\n            }\n        }\n        return (false); // user is not registered.\n    }\n    \n    function checkUserDelivery(address _address) public view returns (bool){\n        User memory u = registeredUserMapping[_address];\n        \n        if(uint(UserType(u.usrType))== 1) return true;\n        \n        return false;\n    }\n    \n    function isRestaurantRegistered ( address _address) internal view returns (bool) {\n        Restaurant memory m = RestaurantMapping[_address];\n        \n        return (m.isRegistered);\n    }\n    \n    // function getrestaurantInfo()\n    \n    function getItemInfo(address _restaurantAddress, uint _itemNumber) public view returns(string memory, uint){\n        require(isRestaurantRegistered(_restaurantAddress) == true, \"Restaurant is not registered.\");\n        \n        Restaurant memory rest = RestaurantMapping[_restaurantAddress];\n        \n        string[] memory menuItems = rest.itemNames;\n        \n        MenuItem memory item = RestaurantMenuItems[menuItems[_itemNumber]];\n        return(item.name, item.price);\n    }\n    \n    function getOrderCount() public view returns(uint){\n        return orderTotalCount;\n    }\n    \n    function incrementOrderCount() public {\n        orderTotalCount++;\n    }\n    \n    function getUserTypeFriendly(uint8 _usrType) internal pure returns (string memory userType) {\n        \n        if(UserType.Customer == UserType(_usrType) ) return \"Customer\";\n        if(UserType.Delivery == UserType(_usrType)) return \"Delivery\";\n    }\n    \n    function getMenuTypeFriendly(uint8 _menuType) internal pure returns (string memory userType) {\n        \n        if(MenuType.Appetizer == MenuType(_menuType) ) return \"Appetizer\";\n        if(MenuType.Main == MenuType(_menuType) ) return \"Main\";\n        if(MenuType.Desert == MenuType(_menuType)) return \"Desert\";\n    }\n    \n}",
  "sourcePath": "/home/dinesh/Blockchain-Projects/EthereumSolidityProject/contracts/registration.sol",
  "compiler": {
    "name": "solc",
    "version": "0.8.1+commit.df193b15.Emscripten.clang"
  },
  "schemaVersion": "3.3.3",
  "updatedAt": "2021-03-26T06:44:33.302Z",
  "networkType": "ethereum",
  "devdoc": {
    "kind": "dev",
    "methods": {},
    "version": 1
  },
  "userdoc": {
    "kind": "user",
    "methods": {},
    "version": 1
  }
}