{
  "contractName": "Foodiez",
  "abi": [
    {
      "inputs": [
        {
          "internalType": "contract FoodiezRegistrationInterface",
          "name": "_registerAddress",
          "type": "address"
        },
        {
          "internalType": "contract FoodiezHelpersInterface",
          "name": "_helperAddress",
          "type": "address"
        },
        {
          "internalType": "contract FoodiezOrdersInterface",
          "name": "_orderAddress",
          "type": "address"
        },
        {
          "internalType": "address",
          "name": "_token",
          "type": "address"
        }
      ],
      "stateMutability": "nonpayable",
      "type": "constructor"
    },
    {
      "anonymous": false,
      "inputs": [
        {
          "indexed": false,
          "internalType": "address",
          "name": "account",
          "type": "address"
        },
        {
          "indexed": false,
          "internalType": "uint256",
          "name": "allowance",
          "type": "uint256"
        }
      ],
      "name": "AccountApproved",
      "type": "event"
    },
    {
      "anonymous": false,
      "inputs": [
        {
          "indexed": false,
          "internalType": "address",
          "name": "account",
          "type": "address"
        },
        {
          "indexed": false,
          "internalType": "uint256",
          "name": "amount",
          "type": "uint256"
        }
      ],
      "name": "AmountTransferedToAccount",
      "type": "event"
    },
    {
      "anonymous": false,
      "inputs": [
        {
          "indexed": false,
          "internalType": "string",
          "name": "restaurantId",
          "type": "string"
        },
        {
          "indexed": false,
          "internalType": "string",
          "name": "itemId",
          "type": "string"
        },
        {
          "indexed": false,
          "internalType": "string",
          "name": "itemName",
          "type": "string"
        }
      ],
      "name": "ItemAddedEvent",
      "type": "event"
    },
    {
      "anonymous": false,
      "inputs": [
        {
          "indexed": false,
          "internalType": "string",
          "name": "orderId",
          "type": "string"
        },
        {
          "indexed": false,
          "internalType": "address",
          "name": "driverAddress",
          "type": "address"
        },
        {
          "indexed": false,
          "internalType": "string",
          "name": "orderStatus",
          "type": "string"
        }
      ],
      "name": "OrderAssignedToDriver",
      "type": "event"
    },
    {
      "anonymous": false,
      "inputs": [
        {
          "indexed": false,
          "internalType": "string",
          "name": "orderId",
          "type": "string"
        },
        {
          "indexed": false,
          "internalType": "address",
          "name": "driverAddress",
          "type": "address"
        },
        {
          "indexed": false,
          "internalType": "string",
          "name": "orderStatus",
          "type": "string"
        }
      ],
      "name": "OrderDeliveredToUser",
      "type": "event"
    },
    {
      "anonymous": false,
      "inputs": [
        {
          "indexed": false,
          "internalType": "string",
          "name": "orderId",
          "type": "string"
        },
        {
          "indexed": false,
          "internalType": "uint256",
          "name": "total",
          "type": "uint256"
        },
        {
          "indexed": false,
          "internalType": "string",
          "name": "orderStatus",
          "type": "string"
        }
      ],
      "name": "OrderPlaced",
      "type": "event"
    },
    {
      "anonymous": false,
      "inputs": [
        {
          "indexed": false,
          "internalType": "string",
          "name": "restaurantName",
          "type": "string"
        },
        {
          "indexed": false,
          "internalType": "address",
          "name": "rAddress",
          "type": "address"
        },
        {
          "indexed": false,
          "internalType": "bool",
          "name": "isRegistered",
          "type": "bool"
        }
      ],
      "name": "RestaurantRegistered",
      "type": "event"
    },
    {
      "anonymous": false,
      "inputs": [
        {
          "indexed": false,
          "internalType": "address",
          "name": "sender",
          "type": "address"
        },
        {
          "indexed": false,
          "internalType": "address",
          "name": "recipient",
          "type": "address"
        },
        {
          "indexed": false,
          "internalType": "uint256",
          "name": "amount",
          "type": "uint256"
        }
      ],
      "name": "TransferedSenderToRecipient",
      "type": "event"
    },
    {
      "anonymous": false,
      "inputs": [
        {
          "indexed": false,
          "internalType": "string",
          "name": "userName",
          "type": "string"
        },
        {
          "indexed": false,
          "internalType": "bool",
          "name": "isRegistered",
          "type": "bool"
        }
      ],
      "name": "UserRegisteredEvent",
      "type": "event"
    },
    {
      "anonymous": false,
      "inputs": [
        {
          "indexed": false,
          "internalType": "uint256",
          "name": "restaurantTotal",
          "type": "uint256"
        },
        {
          "indexed": false,
          "internalType": "uint256",
          "name": "deliveryTotal",
          "type": "uint256"
        }
      ],
      "name": "orderDeliveryConfirmedEvent",
      "type": "event"
    },
    {
      "inputs": [],
      "name": "_foodiezHelpers",
      "outputs": [
        {
          "internalType": "contract FoodiezHelpersInterface",
          "name": "",
          "type": "address"
        }
      ],
      "stateMutability": "view",
      "type": "function"
    },
    {
      "inputs": [],
      "name": "_foodiezOrders",
      "outputs": [
        {
          "internalType": "contract FoodiezOrdersInterface",
          "name": "",
          "type": "address"
        }
      ],
      "stateMutability": "view",
      "type": "function"
    },
    {
      "inputs": [],
      "name": "_foodiezRegistration",
      "outputs": [
        {
          "internalType": "contract FoodiezRegistrationInterface",
          "name": "",
          "type": "address"
        }
      ],
      "stateMutability": "view",
      "type": "function"
    },
    {
      "inputs": [
        {
          "internalType": "address",
          "name": "_address",
          "type": "address"
        },
        {
          "internalType": "uint256",
          "name": "amount",
          "type": "uint256"
        }
      ],
      "name": "tokenApproveAccount",
      "outputs": [
        {
          "internalType": "bool",
          "name": "",
          "type": "bool"
        }
      ],
      "stateMutability": "payable",
      "type": "function"
    },
    {
      "inputs": [
        {
          "internalType": "address",
          "name": "own",
          "type": "address"
        },
        {
          "internalType": "address",
          "name": "spender",
          "type": "address"
        }
      ],
      "name": "allowance",
      "outputs": [
        {
          "internalType": "uint256",
          "name": "",
          "type": "uint256"
        }
      ],
      "stateMutability": "view",
      "type": "function"
    },
    {
      "inputs": [
        {
          "internalType": "address",
          "name": "_address",
          "type": "address"
        }
      ],
      "name": "getTokenBalanceOf",
      "outputs": [
        {
          "internalType": "uint256",
          "name": "",
          "type": "uint256"
        }
      ],
      "stateMutability": "view",
      "type": "function"
    },
    {
      "inputs": [
        {
          "internalType": "address",
          "name": "recipient",
          "type": "address"
        },
        {
          "internalType": "uint256",
          "name": "amount",
          "type": "uint256"
        }
      ],
      "name": "tokenTransfer",
      "outputs": [],
      "stateMutability": "payable",
      "type": "function"
    },
    {
      "inputs": [
        {
          "internalType": "address",
          "name": "sender",
          "type": "address"
        },
        {
          "internalType": "address",
          "name": "recipient",
          "type": "address"
        },
        {
          "internalType": "uint256",
          "name": "amount",
          "type": "uint256"
        }
      ],
      "name": "tokenTransferFrom",
      "outputs": [],
      "stateMutability": "payable",
      "type": "function"
    },
    {
      "inputs": [
        {
          "internalType": "string",
          "name": "name",
          "type": "string"
        },
        {
          "internalType": "uint256",
          "name": "uType",
          "type": "uint256"
        },
        {
          "internalType": "uint256",
          "name": "amountStake",
          "type": "uint256"
        }
      ],
      "name": "userRegister",
      "outputs": [],
      "stateMutability": "payable",
      "type": "function"
    },
    {
      "inputs": [
        {
          "internalType": "address",
          "name": "_address",
          "type": "address"
        }
      ],
      "name": "getUserInfo",
      "outputs": [
        {
          "internalType": "string",
          "name": "",
          "type": "string"
        },
        {
          "internalType": "address",
          "name": "",
          "type": "address"
        },
        {
          "internalType": "string",
          "name": "",
          "type": "string"
        },
        {
          "internalType": "uint256",
          "name": "",
          "type": "uint256"
        }
      ],
      "stateMutability": "view",
      "type": "function"
    },
    {
      "inputs": [
        {
          "internalType": "string",
          "name": "_name",
          "type": "string"
        },
        {
          "internalType": "string",
          "name": "_rId",
          "type": "string"
        },
        {
          "internalType": "uint256",
          "name": "amountStake",
          "type": "uint256"
        }
      ],
      "name": "registerRestaurant",
      "outputs": [],
      "stateMutability": "payable",
      "type": "function"
    },
    {
      "inputs": [
        {
          "internalType": "string",
          "name": "_itemName",
          "type": "string"
        },
        {
          "internalType": "uint256",
          "name": "_type",
          "type": "uint256"
        },
        {
          "internalType": "uint256",
          "name": "_price",
          "type": "uint256"
        }
      ],
      "name": "addMenuItems",
      "outputs": [],
      "stateMutability": "nonpayable",
      "type": "function"
    },
    {
      "inputs": [
        {
          "internalType": "address",
          "name": "_restaurantAddress",
          "type": "address"
        },
        {
          "internalType": "uint256",
          "name": "_itemNumber",
          "type": "uint256"
        }
      ],
      "name": "getRestaurantMenu",
      "outputs": [
        {
          "internalType": "string",
          "name": "",
          "type": "string"
        },
        {
          "internalType": "string",
          "name": "",
          "type": "string"
        },
        {
          "internalType": "uint256",
          "name": "",
          "type": "uint256"
        }
      ],
      "stateMutability": "view",
      "type": "function"
    },
    {
      "inputs": [
        {
          "internalType": "address",
          "name": "_restaurantAddress",
          "type": "address"
        }
      ],
      "name": "getrestaurantInfo",
      "outputs": [
        {
          "internalType": "string",
          "name": "",
          "type": "string"
        },
        {
          "internalType": "address",
          "name": "",
          "type": "address"
        },
        {
          "internalType": "uint256",
          "name": "",
          "type": "uint256"
        },
        {
          "internalType": "uint256",
          "name": "",
          "type": "uint256"
        }
      ],
      "stateMutability": "view",
      "type": "function"
    },
    {
      "inputs": [
        {
          "internalType": "address",
          "name": "_restaurantAddress",
          "type": "address"
        },
        {
          "internalType": "uint256",
          "name": "_itemNum",
          "type": "uint256"
        },
        {
          "internalType": "uint256",
          "name": "tokenPay",
          "type": "uint256"
        }
      ],
      "name": "placeOrder",
      "outputs": [
        {
          "internalType": "string",
          "name": "",
          "type": "string"
        },
        {
          "internalType": "string",
          "name": "",
          "type": "string"
        },
        {
          "internalType": "uint256",
          "name": "",
          "type": "uint256"
        },
        {
          "internalType": "string",
          "name": "",
          "type": "string"
        }
      ],
      "stateMutability": "payable",
      "type": "function"
    },
    {
      "inputs": [
        {
          "internalType": "string",
          "name": "userOrderId",
          "type": "string"
        }
      ],
      "name": "getOrderStatus",
      "outputs": [
        {
          "internalType": "string",
          "name": "",
          "type": "string"
        },
        {
          "internalType": "address",
          "name": "",
          "type": "address"
        },
        {
          "internalType": "address",
          "name": "",
          "type": "address"
        },
        {
          "internalType": "string",
          "name": "",
          "type": "string"
        },
        {
          "internalType": "uint256",
          "name": "",
          "type": "uint256"
        },
        {
          "internalType": "string",
          "name": "",
          "type": "string"
        }
      ],
      "stateMutability": "view",
      "type": "function"
    },
    {
      "inputs": [
        {
          "internalType": "string",
          "name": "userOrderId",
          "type": "string"
        }
      ],
      "name": "assignToDriver",
      "outputs": [],
      "stateMutability": "nonpayable",
      "type": "function"
    },
    {
      "inputs": [
        {
          "internalType": "string",
          "name": "userOrderId",
          "type": "string"
        }
      ],
      "name": "driverDelieveredOrder",
      "outputs": [],
      "stateMutability": "nonpayable",
      "type": "function"
    },
    {
      "inputs": [
        {
          "internalType": "string",
          "name": "userOrderId",
          "type": "string"
        },
        {
          "internalType": "uint256",
          "name": "_restaurantRating",
          "type": "uint256"
        },
        {
          "internalType": "uint256",
          "name": "_deliveryRating",
          "type": "uint256"
        },
        {
          "internalType": "uint256",
          "name": "tokenTip",
          "type": "uint256"
        }
      ],
      "name": "orderDeliveryConfirmed",
      "outputs": [],
      "stateMutability": "payable",
      "type": "function"
    }
  ],
  "bytecode": "0x6080604052600260045560026005553480156200001b57600080fd5b5060405162003c8d38038062003c8d833981810160405281019062000041919062000410565b336000806101000a81548173ffffffffffffffffffffffffffffffffffffffff021916908373ffffffffffffffffffffffffffffffffffffffff16021790555082600260006101000a81548173ffffffffffffffffffffffffffffffffffffffff021916908373ffffffffffffffffffffffffffffffffffffffff16021790555083600160006101000a81548173ffffffffffffffffffffffffffffffffffffffff021916908373ffffffffffffffffffffffffffffffffffffffff16021790555081600360006101000a81548173ffffffffffffffffffffffffffffffffffffffff021916908373ffffffffffffffffffffffffffffffffffffffff160217905550600160009054906101000a900473ffffffffffffffffffffffffffffffffffffffff1673ffffffffffffffffffffffffffffffffffffffff1663765ccb6b306040518263ffffffff1660e01b8152600401620001a19190620004d2565b600060405180830381600087803b158015620001bc57600080fd5b505af1158015620001d1573d6000803e3d6000fd5b505050506040513d6000823e3d601f19601f82011682018060405250810190620001fc91906200047c565b50600360009054906101000a900473ffffffffffffffffffffffffffffffffffffffff1673ffffffffffffffffffffffffffffffffffffffff1663765ccb6b306040518263ffffffff1660e01b81526004016200025a9190620004d2565b600060405180830381600087803b1580156200027557600080fd5b505af11580156200028a573d6000803e3d6000fd5b505050506040513d6000823e3d601f19601f82011682018060405250810190620002b591906200047c565b5033600760006101000a81548173ffffffffffffffffffffffffffffffffffffffff021916908373ffffffffffffffffffffffffffffffffffffffff16021790555080600660006101000a81548173ffffffffffffffffffffffffffffffffffffffff021916908373ffffffffffffffffffffffffffffffffffffffff16021790555050505050620006d2565b600062000359620003538462000518565b620004ef565b9050828152602081018484840111156200037257600080fd5b6200037f848285620005be565b509392505050565b60008151905062000398816200066a565b92915050565b600081519050620003af8162000684565b92915050565b600081519050620003c6816200069e565b92915050565b600081519050620003dd81620006b8565b92915050565b600082601f830112620003f557600080fd5b81516200040784826020860162000342565b91505092915050565b600080600080608085870312156200042757600080fd5b60006200043787828801620003cc565b94505060206200044a878288016200039e565b93505060406200045d87828801620003b5565b9250506060620004708782880162000387565b91505092959194509250565b6000602082840312156200048f57600080fd5b600082015167ffffffffffffffff811115620004aa57600080fd5b620004b884828501620003e3565b91505092915050565b620004cc816200054e565b82525050565b6000602082019050620004e96000830184620004c1565b92915050565b6000620004fb6200050e565b9050620005098282620005f4565b919050565b6000604051905090565b600067ffffffffffffffff8211156200053657620005356200062a565b5b620005418262000659565b9050602081019050919050565b60006200055b826200059e565b9050919050565b60006200056f826200054e565b9050919050565b600062000583826200054e565b9050919050565b600062000597826200054e565b9050919050565b600073ffffffffffffffffffffffffffffffffffffffff82169050919050565b60005b83811015620005de578082015181840152602081019050620005c1565b83811115620005ee576000848401525b50505050565b620005ff8262000659565b810181811067ffffffffffffffff821117156200062157620006206200062a565b5b80604052505050565b7f4e487b7100000000000000000000000000000000000000000000000000000000600052604160045260246000fd5b6000601f19601f8301169050919050565b62000675816200054e565b81146200068157600080fd5b50565b6200068f8162000562565b81146200069b57600080fd5b50565b620006a98162000576565b8114620006b557600080fd5b50565b620006c3816200058a565b8114620006cf57600080fd5b50565b6135ab80620006e26000396000f3fe6080604052600436106101145760003560e01c806383894548116100a0578063dd62ed3e11610064578063dd62ed3e14610395578063e1eb4abc146103d2578063e523d132146103fd578063e77c719e14610426578063e79034a81461045657610114565b8063838945481461029e578063961974ba146102db578063aedfb5d3146102f7578063c6f4dc3714610339578063d8c01ed11461035557610114565b8063623bb431116100e7578063623bb431146101ca5780636386c1c7146101e657806366a257c41461022657806368cdafe61461024f57806377e16afe1461026b57610114565b80631de3b27d146101195780632d9ee1d114610135578063331723eb14610160578063617aada91461019f575b600080fd5b610133600480360381019061012e91906126d0565b61047f565b005b34801561014157600080fd5b5061014a610642565b6040516101579190612b3c565b60405180910390f35b34801561016c57600080fd5b50610187600480360381019061018291906121bc565b610668565b60405161019693929190612e09565b60405180910390f35b3480156101ab57600080fd5b506101b461072c565b6040516101c19190612b21565b60405180910390f35b6101e460048036038101906101df9190612737565b610752565b005b3480156101f257600080fd5b5061020d60048036038101906102089190612051565b610efd565b60405161021d9493929190612cee565b60405180910390f35b34801561023257600080fd5b5061024d600480360381019061024891906126d0565b610fc4565b005b610269600480360381019061026491906121bc565b6110ca565b005b610285600480360381019061028091906121f8565b6111c2565b6040516102959493929190612e4e565b60405180910390f35b3480156102aa57600080fd5b506102c560048036038101906102c09190612051565b61149a565b6040516102d29190612ffd565b60405180910390f35b6102f560048036038101906102f09190612119565b61154e565b005b34801561030357600080fd5b5061031e60048036038101906103199190612270565b61164b565b60405161033096959493929190612bf5565b60405180910390f35b610353600480360381019061034e9190612527565b61171b565b005b34801561036157600080fd5b5061037c60048036038101906103779190612051565b611882565b60405161038c9493929190612d41565b60405180910390f35b3480156103a157600080fd5b506103bc60048036038101906103b7919061207a565b611948565b6040516103c99190612ffd565b60405180910390f35b3480156103de57600080fd5b506103e76119ff565b6040516103f49190612b57565b60405180910390f35b34801561040957600080fd5b50610424600480360381019061041f9190612270565b611a25565b005b610440600480360381019061043b91906121bc565b611c11565b60405161044d9190612b06565b60405180910390f35b34801561046257600080fd5b5061047d60048036038101906104789190612270565b611d0f565b005b60018214156104d457678ac7230489e800003410156104d3576040517f08c379a00000000000000000000000000000000000000000000000000000000081526004016104ca90612f9d565b60405180910390fd5b5b600081111561054e5780341015610520576040517f08c379a000000000000000000000000000000000000000000000000000000000815260040161051790612f7d565b60405180910390fd5b61054d600760009054906101000a900473ffffffffffffffffffffffffffffffffffffffff16338361154e565b5b6000600160009054906101000a900473ffffffffffffffffffffffffffffffffffffffff1673ffffffffffffffffffffffffffffffffffffffff1663aded60393386866040518463ffffffff1660e01b81526004016105af93929190612a53565b602060405180830381600087803b1580156105c957600080fd5b505af11580156105dd573d6000803e3d6000fd5b505050506040513d601f19601f820116820180604052508101906106019190612247565b90507f7f9ecb5a097a48ba760452c7dc9a9b85f16117e64abb0d9248a484a582bb28668482604051610634929190612d8d565b60405180910390a150505050565b600360009054906101000a900473ffffffffffffffffffffffffffffffffffffffff1681565b6060806000600160009054906101000a900473ffffffffffffffffffffffffffffffffffffffff1673ffffffffffffffffffffffffffffffffffffffff1663331723eb86866040518363ffffffff1660e01b81526004016106ca929190612add565b60006040518083038186803b1580156106e257600080fd5b505afa1580156106f6573d6000803e3d6000fd5b505050506040513d6000823e3d601f19601f8201168201806040525081019061071f91906125a6565b9250925092509250925092565b600260009054906101000a900473ffffffffffffffffffffffffffffffffffffffff1681565b60001515600160009054906101000a900473ffffffffffffffffffffffffffffffffffffffff1673ffffffffffffffffffffffffffffffffffffffff16635f9d8de6336040518263ffffffff1660e01b81526004016107b19190612963565b60206040518083038186803b1580156107c957600080fd5b505afa1580156107dd573d6000803e3d6000fd5b505050506040513d601f19601f820116820180604052508101906108019190612247565b151514610843576040517f08c379a000000000000000000000000000000000000000000000000000000000815260040161083a90612fdd565b60405180910390fd5b600080600080600360009054906101000a900473ffffffffffffffffffffffffffffffffffffffff1673ffffffffffffffffffffffffffffffffffffffff1663b1a68ff2896040518263ffffffff1660e01b81526004016108a49190612b72565b608060405180830381600087803b1580156108be57600080fd5b505af11580156108d2573d6000803e3d6000fd5b505050506040513d601f19601f820116820180604052508101906108f691906120b6565b9350935093509350600160009054906101000a900473ffffffffffffffffffffffffffffffffffffffff1673ffffffffffffffffffffffffffffffffffffffff16638ab7ad7785896040518363ffffffff1660e01b815260040161095b929190612add565b600060405180830381600087803b15801561097557600080fd5b505af1158015610989573d6000803e3d6000fd5b50505050600160009054906101000a900473ffffffffffffffffffffffffffffffffffffffff1673ffffffffffffffffffffffffffffffffffffffff1663dfe7669d84886040518363ffffffff1660e01b81526004016109ea929190612add565b600060405180830381600087803b158015610a0457600080fd5b505af1158015610a18573d6000803e3d6000fd5b5050505084610a263361149a565b1015610a67576040517f08c379a0000000000000000000000000000000000000000000000000000000008152600401610a5e90612fbd565b60405180910390fd5b6000600360009054906101000a900473ffffffffffffffffffffffffffffffffffffffff1673ffffffffffffffffffffffffffffffffffffffff1663d182dbcd8a6040518263ffffffff1660e01b8152600401610ac49190612b72565b60206040518083038186803b158015610adc57600080fd5b505afa158015610af0573d6000803e3d6000fd5b505050506040513d601f19601f82011682018060405250810190610b1491906127b2565b905060008290506000600260009054906101000a900473ffffffffffffffffffffffffffffffffffffffff1673ffffffffffffffffffffffffffffffffffffffff166365609516856004546040518363ffffffff1660e01b8152600401610b7c929190613018565b60206040518083038186803b158015610b9457600080fd5b505afa158015610ba8573d6000803e3d6000fd5b505050506040513d601f19601f82011682018060405250810190610bcc91906127b2565b90508082610bda9190613163565b91506000600260009054906101000a900473ffffffffffffffffffffffffffffffffffffffff1673ffffffffffffffffffffffffffffffffffffffff1663221c9cfe866005546040518363ffffffff1660e01b8152600401610c3d929190613018565b60206040518083038186803b158015610c5557600080fd5b505afa158015610c69573d6000803e3d6000fd5b505050506040513d601f19601f82011682018060405250810190610c8d91906127b2565b90508083610c9b9190613163565b92503481610ca991906130b3565b90508673ffffffffffffffffffffffffffffffffffffffff166108fc829081150290604051600060405180830381858888f19350505050158015610cf1573d6000803e3d6000fd5b506000891115610dae57600660009054906101000a900473ffffffffffffffffffffffffffffffffffffffff1673ffffffffffffffffffffffffffffffffffffffff166323b872dd87898c6040518463ffffffff1660e01b8152600401610d5a939291906129a7565b602060405180830381600087803b158015610d7457600080fd5b505af1158015610d88573d6000803e3d6000fd5b505050506040513d601f19601f82011682018060405250810190610dac9190612247565b505b6000841115610e6e57600660009054906101000a900473ffffffffffffffffffffffffffffffffffffffff1673ffffffffffffffffffffffffffffffffffffffff166323b872dd878a876040518463ffffffff1660e01b8152600401610e16939291906129a7565b602060405180830381600087803b158015610e3057600080fd5b505af1158015610e44573d6000803e3d6000fd5b505050506040513d601f19601f82011682018060405250810190610e689190612247565b50610eb6565b8773ffffffffffffffffffffffffffffffffffffffff166108fc849081150290604051600060405180830381858888f19350505050158015610eb4573d6000803e3d6000fd5b505b7f292961d24e58ea05a8b5bca78932ec898d03d1646fb56c0f81495770e5872d098382604051610ee7929190613018565b60405180910390a1505050505050505050505050565b6060600060606000600160009054906101000a900473ffffffffffffffffffffffffffffffffffffffff1673ffffffffffffffffffffffffffffffffffffffff16636386c1c7866040518263ffffffff1660e01b8152600401610f609190612963565b60006040518083038186803b158015610f7857600080fd5b505afa158015610f8c573d6000803e3d6000fd5b505050506040513d6000823e3d601f19601f82011682018060405250810190610fb59190612382565b93509350935093509193509193565b6000806000600160009054906101000a900473ffffffffffffffffffffffffffffffffffffffff1673ffffffffffffffffffffffffffffffffffffffff1663debd2ec4338888886040518563ffffffff1660e01b815260040161102a9493929190612a91565b600060405180830381600087803b15801561104457600080fd5b505af1158015611058573d6000803e3d6000fd5b505050506040513d6000823e3d601f19601f820116820180604052508101906110819190612490565b9250925092507fe591a00874db47ebb9c845e5d6550ba44f9b94231216d912524a6b01cf64c3628383836040516110ba93929190612dbd565b60405180910390a1505050505050565b6000600660009054906101000a900473ffffffffffffffffffffffffffffffffffffffff1673ffffffffffffffffffffffffffffffffffffffff1663a9059cbb84846040518363ffffffff1660e01b8152600401611129929190612add565b602060405180830381600087803b15801561114357600080fd5b505af1158015611157573d6000803e3d6000fd5b505050506040513d601f19601f8201168201806040525081019061117b9190612247565b905080156111bd577fbdbbb9910baae524fdb61a2b98c4264b1b7c7dd08291b66731a279ab74fa778f83836040516111b4929190612add565b60405180910390a15b505050565b60608060006060600080600080600160009054906101000a900473ffffffffffffffffffffffffffffffffffffffff1673ffffffffffffffffffffffffffffffffffffffff1663f0645d7a338d8d6040518463ffffffff1660e01b815260040161122e939291906129a7565b60006040518083038186803b15801561124657600080fd5b505afa15801561125a573d6000803e3d6000fd5b505050506040513d6000823e3d601f19601f820116820180604052508101906112839190612382565b935093509350935080341015806112a257508061129f8a611efb565b10155b6112e1576040517f08c379a00000000000000000000000000000000000000000000000000000000081526004016112d890612f5d565b60405180910390fd5b600080600080600160009054906101000a900473ffffffffffffffffffffffffffffffffffffffff1673ffffffffffffffffffffffffffffffffffffffff166384a101cd89338a8a8a6040518663ffffffff1660e01b815260040161134a959493929190612b94565b600060405180830381600087803b15801561136457600080fd5b505af1158015611378573d6000803e3d6000fd5b505050506040513d6000823e3d601f19601f820116820180604052508101906113a19190612625565b935093509350935060008d111561144257600360009054906101000a900473ffffffffffffffffffffffffffffffffffffffff1673ffffffffffffffffffffffffffffffffffffffff16639b4708d1858f6040518363ffffffff1660e01b815260040161140f929190612ea8565b600060405180830381600087803b15801561142957600080fd5b505af115801561143d573d6000803e3d6000fd5b505050505b7f8e1877496607c24fc170bde9db9a8cc815be5b7017482f5770386dd5f0a47b8a84838360405161147593929190612ed8565b60405180910390a1838383839b509b509b509b50505050505050505093509350935093565b6000600660009054906101000a900473ffffffffffffffffffffffffffffffffffffffff1673ffffffffffffffffffffffffffffffffffffffff166370a08231836040518263ffffffff1660e01b81526004016114f79190612963565b60206040518083038186803b15801561150f57600080fd5b505afa158015611523573d6000803e3d6000fd5b505050506040513d601f19601f8201168201806040525081019061154791906127b2565b9050919050565b6000600660009054906101000a900473ffffffffffffffffffffffffffffffffffffffff1673ffffffffffffffffffffffffffffffffffffffff166323b872dd8585856040518463ffffffff1660e01b81526004016115af939291906129a7565b602060405180830381600087803b1580156115c957600080fd5b505af11580156115dd573d6000803e3d6000fd5b505050506040513d601f19601f820116820180604052508101906116019190612247565b90508015611645577f3ae895b079028f50d70d4fdc12d6bbad245651b4fbe50d7a931752330a025dec84848460405161163c939291906129a7565b60405180910390a15b50505050565b6060600080606060006060600360009054906101000a900473ffffffffffffffffffffffffffffffffffffffff1673ffffffffffffffffffffffffffffffffffffffff16637ab8ae16886040518263ffffffff1660e01b81526004016116b19190612b72565b60006040518083038186803b1580156116c957600080fd5b505afa1580156116dd573d6000803e3d6000fd5b505050506040513d6000823e3d601f19601f8201168201806040525081019061170691906122b1565b95509550955095509550955091939550919395565b6000600160009054906101000a900473ffffffffffffffffffffffffffffffffffffffff1673ffffffffffffffffffffffffffffffffffffffff1663096309233386866040518463ffffffff1660e01b815260040161177c93929190612a0e565b602060405180830381600087803b15801561179657600080fd5b505af11580156117aa573d6000803e3d6000fd5b505050506040513d601f19601f820116820180604052508101906117ce9190612247565b90507f1fec3d043cdeae56abac63b9485c8e810e01d8caf5281e06e2a78cbb82b9f56284338360405161180393929190612c6b565b60405180910390a1600034101561184f576040517f08c379a000000000000000000000000000000000000000000000000000000000815260040161184690612f3d565b60405180910390fd5b61187c600760009054906101000a900473ffffffffffffffffffffffffffffffffffffffff16338461154e565b50505050565b60606000806000600160009054906101000a900473ffffffffffffffffffffffffffffffffffffffff1673ffffffffffffffffffffffffffffffffffffffff1663d8c01ed1866040518263ffffffff1660e01b81526004016118e49190612963565b60006040518083038186803b1580156118fc57600080fd5b505afa158015611910573d6000803e3d6000fd5b505050506040513d6000823e3d601f19601f820116820180604052508101906119399190612415565b93509350935093509193509193565b6000600660009054906101000a900473ffffffffffffffffffffffffffffffffffffffff1673ffffffffffffffffffffffffffffffffffffffff1663dd62ed3e84846040518363ffffffff1660e01b81526004016119a792919061297e565b60206040518083038186803b1580156119bf57600080fd5b505afa1580156119d3573d6000803e3d6000fd5b505050506040513d601f19601f820116820180604052508101906119f791906127b2565b905092915050565b600160009054906101000a900473ffffffffffffffffffffffffffffffffffffffff1681565b60011515600160009054906101000a900473ffffffffffffffffffffffffffffffffffffffff1673ffffffffffffffffffffffffffffffffffffffff16635f9d8de6336040518263ffffffff1660e01b8152600401611a849190612963565b60206040518083038186803b158015611a9c57600080fd5b505afa158015611ab0573d6000803e3d6000fd5b505050506040513d601f19601f82011682018060405250810190611ad49190612247565b151514611b16576040517f08c379a0000000000000000000000000000000000000000000000000000000008152600401611b0d90612f1d565b60405180910390fd5b600080600360009054906101000a900473ffffffffffffffffffffffffffffffffffffffff1673ffffffffffffffffffffffffffffffffffffffff166357c8666933856040518363ffffffff1660e01b8152600401611b769291906129de565b600060405180830381600087803b158015611b9057600080fd5b505af1158015611ba4573d6000803e3d6000fd5b505050506040513d6000823e3d601f19601f82011682018060405250810190611bcd9190612168565b915091507ff77ddd1c4747d74e4d857ae1988928cd346feca8a5f694b0c39f7f53e5193580838383604051611c0493929190612ca9565b60405180910390a1505050565b600080600660009054906101000a900473ffffffffffffffffffffffffffffffffffffffff1673ffffffffffffffffffffffffffffffffffffffff1663095ea7b385856040518363ffffffff1660e01b8152600401611c71929190612add565b602060405180830381600087803b158015611c8b57600080fd5b505af1158015611c9f573d6000803e3d6000fd5b505050506040513d601f19601f82011682018060405250810190611cc39190612247565b90508015611d05577fbab4e436a1f75e4f561126509ef0a39ce3a8c2c0d42e0269a857bee6d508d9008484604051611cfc929190612add565b60405180910390a15b8091505092915050565b60011515600160009054906101000a900473ffffffffffffffffffffffffffffffffffffffff1673ffffffffffffffffffffffffffffffffffffffff16635f9d8de6336040518263ffffffff1660e01b8152600401611d6e9190612963565b60206040518083038186803b158015611d8657600080fd5b505afa158015611d9a573d6000803e3d6000fd5b505050506040513d601f19601f82011682018060405250810190611dbe9190612247565b151514611e00576040517f08c379a0000000000000000000000000000000000000000000000000000000008152600401611df790612f1d565b60405180910390fd5b600080600360009054906101000a900473ffffffffffffffffffffffffffffffffffffffff1673ffffffffffffffffffffffffffffffffffffffff1663748f9f1233856040518363ffffffff1660e01b8152600401611e609291906129de565b600060405180830381600087803b158015611e7a57600080fd5b505af1158015611e8e573d6000803e3d6000fd5b505050506040513d6000823e3d601f19601f82011682018060405250810190611eb79190612168565b915091507ff14b427b14da887f90611136a5e3ceba24d441e75254f1f8900c678af0ad4850838383604051611eee93929190612ca9565b60405180910390a1505050565b6000670de0b6b3a764000082611f119190613109565b9050919050565b6000611f2b611f2684613066565b613041565b905082815260208101848484011115611f4357600080fd5b611f4e84828561324b565b509392505050565b6000611f69611f6484613066565b613041565b905082815260208101848484011115611f8157600080fd5b611f8c84828561325a565b509392505050565b600081359050611fa381613530565b92915050565b600081519050611fb881613530565b92915050565b600081519050611fcd81613547565b92915050565b600082601f830112611fe457600080fd5b8135611ff4848260208601611f18565b91505092915050565b600082601f83011261200e57600080fd5b815161201e848260208601611f56565b91505092915050565b6000813590506120368161355e565b92915050565b60008151905061204b8161355e565b92915050565b60006020828403121561206357600080fd5b600061207184828501611f94565b91505092915050565b6000806040838503121561208d57600080fd5b600061209b85828601611f94565b92505060206120ac85828601611f94565b9150509250929050565b600080600080608085870312156120cc57600080fd5b60006120da87828801611fa9565b94505060206120eb87828801611fa9565b93505060406120fc87828801611fa9565b925050606061210d8782880161203c565b91505092959194509250565b60008060006060848603121561212e57600080fd5b600061213c86828701611f94565b935050602061214d86828701611f94565b925050604061215e86828701612027565b9150509250925092565b6000806040838503121561217b57600080fd5b600061218985828601611fa9565b925050602083015167ffffffffffffffff8111156121a657600080fd5b6121b285828601611ffd565b9150509250929050565b600080604083850312156121cf57600080fd5b60006121dd85828601611f94565b92505060206121ee85828601612027565b9150509250929050565b60008060006060848603121561220d57600080fd5b600061221b86828701611f94565b935050602061222c86828701612027565b925050604061223d86828701612027565b9150509250925092565b60006020828403121561225957600080fd5b600061226784828501611fbe565b91505092915050565b60006020828403121561228257600080fd5b600082013567ffffffffffffffff81111561229c57600080fd5b6122a884828501611fd3565b91505092915050565b60008060008060008060c087890312156122ca57600080fd5b600087015167ffffffffffffffff8111156122e457600080fd5b6122f089828a01611ffd565b965050602061230189828a01611fa9565b955050604061231289828a01611fa9565b945050606087015167ffffffffffffffff81111561232f57600080fd5b61233b89828a01611ffd565b935050608061234c89828a0161203c565b92505060a087015167ffffffffffffffff81111561236957600080fd5b61237589828a01611ffd565b9150509295509295509295565b6000806000806080858703121561239857600080fd5b600085015167ffffffffffffffff8111156123b257600080fd5b6123be87828801611ffd565b94505060206123cf87828801611fa9565b935050604085015167ffffffffffffffff8111156123ec57600080fd5b6123f887828801611ffd565b92505060606124098782880161203c565b91505092959194509250565b6000806000806080858703121561242b57600080fd5b600085015167ffffffffffffffff81111561244557600080fd5b61245187828801611ffd565b945050602061246287828801611fa9565b93505060406124738782880161203c565b92505060606124848782880161203c565b91505092959194509250565b6000806000606084860312156124a557600080fd5b600084015167ffffffffffffffff8111156124bf57600080fd5b6124cb86828701611ffd565b935050602084015167ffffffffffffffff8111156124e857600080fd5b6124f486828701611ffd565b925050604084015167ffffffffffffffff81111561251157600080fd5b61251d86828701611ffd565b9150509250925092565b60008060006060848603121561253c57600080fd5b600084013567ffffffffffffffff81111561255657600080fd5b61256286828701611fd3565b935050602084013567ffffffffffffffff81111561257f57600080fd5b61258b86828701611fd3565b925050604061259c86828701612027565b9150509250925092565b6000806000606084860312156125bb57600080fd5b600084015167ffffffffffffffff8111156125d557600080fd5b6125e186828701611ffd565b935050602084015167ffffffffffffffff8111156125fe57600080fd5b61260a86828701611ffd565b925050604061261b8682870161203c565b9150509250925092565b6000806000806080858703121561263b57600080fd5b600085015167ffffffffffffffff81111561265557600080fd5b61266187828801611ffd565b945050602085015167ffffffffffffffff81111561267e57600080fd5b61268a87828801611ffd565b935050604061269b8782880161203c565b925050606085015167ffffffffffffffff8111156126b857600080fd5b6126c487828801611ffd565b91505092959194509250565b6000806000606084860312156126e557600080fd5b600084013567ffffffffffffffff8111156126ff57600080fd5b61270b86828701611fd3565b935050602061271c86828701612027565b925050604061272d86828701612027565b9150509250925092565b6000806000806080858703121561274d57600080fd5b600085013567ffffffffffffffff81111561276757600080fd5b61277387828801611fd3565b945050602061278487828801612027565b935050604061279587828801612027565b92505060606127a687828801612027565b91505092959194509250565b6000602082840312156127c457600080fd5b60006127d28482850161203c565b91505092915050565b6127e481613197565b82525050565b6127f3816131a9565b82525050565b612802816131df565b82525050565b61281181613203565b82525050565b61282081613227565b82525050565b600061283182613097565b61283b81856130a2565b935061284b81856020860161325a565b6128548161331c565b840191505092915050565b600061286c604e836130a2565b91506128778261332d565b606082019050919050565b600061288f6027836130a2565b915061289a826133a2565b604082019050919050565b60006128b26028836130a2565b91506128bd826133f1565b604082019050919050565b60006128d5601b836130a2565b91506128e082613440565b602082019050919050565b60006128f8602a836130a2565b915061290382613469565b604082019050919050565b600061291b6019836130a2565b9150612926826134b8565b602082019050919050565b600061293e6039836130a2565b9150612949826134e1565b604082019050919050565b61295d816131d5565b82525050565b600060208201905061297860008301846127db565b92915050565b600060408201905061299360008301856127db565b6129a060208301846127db565b9392505050565b60006060820190506129bc60008301866127db565b6129c960208301856127db565b6129d66040830184612954565b949350505050565b60006040820190506129f360008301856127db565b8181036020830152612a058184612826565b90509392505050565b6000606082019050612a2360008301866127db565b8181036020830152612a358185612826565b90508181036040830152612a498184612826565b9050949350505050565b6000606082019050612a6860008301866127db565b8181036020830152612a7a8185612826565b9050612a896040830184612954565b949350505050565b6000608082019050612aa660008301876127db565b8181036020830152612ab88186612826565b9050612ac76040830185612954565b612ad46060830184612954565b95945050505050565b6000604082019050612af260008301856127db565b612aff6020830184612954565b9392505050565b6000602082019050612b1b60008301846127ea565b92915050565b6000602082019050612b3660008301846127f9565b92915050565b6000602082019050612b516000830184612808565b92915050565b6000602082019050612b6c6000830184612817565b92915050565b60006020820190508181036000830152612b8c8184612826565b905092915050565b600060a0820190508181036000830152612bae8188612826565b9050612bbd60208301876127db565b612bca60408301866127db565b8181036060830152612bdc8185612826565b9050612beb6080830184612954565b9695505050505050565b600060c0820190508181036000830152612c0f8189612826565b9050612c1e60208301886127db565b612c2b60408301876127db565b8181036060830152612c3d8186612826565b9050612c4c6080830185612954565b81810360a0830152612c5e8184612826565b9050979650505050505050565b60006060820190508181036000830152612c858186612826565b9050612c9460208301856127db565b612ca160408301846127ea565b949350505050565b60006060820190508181036000830152612cc38186612826565b9050612cd260208301856127db565b8181036040830152612ce48184612826565b9050949350505050565b60006080820190508181036000830152612d088187612826565b9050612d1760208301866127db565b8181036040830152612d298185612826565b9050612d386060830184612954565b95945050505050565b60006080820190508181036000830152612d5b8187612826565b9050612d6a60208301866127db565b612d776040830185612954565b612d846060830184612954565b95945050505050565b60006040820190508181036000830152612da78185612826565b9050612db660208301846127ea565b9392505050565b60006060820190508181036000830152612dd78186612826565b90508181036020830152612deb8185612826565b90508181036040830152612dff8184612826565b9050949350505050565b60006060820190508181036000830152612e238186612826565b90508181036020830152612e378185612826565b9050612e466040830184612954565b949350505050565b60006080820190508181036000830152612e688187612826565b90508181036020830152612e7c8186612826565b9050612e8b6040830185612954565b8181036060830152612e9d8184612826565b905095945050505050565b60006040820190508181036000830152612ec28185612826565b9050612ed16020830184612954565b9392505050565b60006060820190508181036000830152612ef28186612826565b9050612f016020830185612954565b8181036040830152612f138184612826565b9050949350505050565b60006020820190508181036000830152612f368161285f565b9050919050565b60006020820190508181036000830152612f5681612882565b9050919050565b60006020820190508181036000830152612f76816128a5565b9050919050565b60006020820190508181036000830152612f96816128c8565b9050919050565b60006020820190508181036000830152612fb6816128eb565b9050919050565b60006020820190508181036000830152612fd68161290e565b9050919050565b60006020820190508181036000830152612ff681612931565b9050919050565b60006020820190506130126000830184612954565b92915050565b600060408201905061302d6000830185612954565b61303a6020830184612954565b9392505050565b600061304b61305c565b9050613057828261328d565b919050565b6000604051905090565b600067ffffffffffffffff821115613081576130806132ed565b5b61308a8261331c565b9050602081019050919050565b600081519050919050565b600082825260208201905092915050565b60006130be826131d5565b91506130c9836131d5565b9250827fffffffffffffffffffffffffffffffffffffffffffffffffffffffffffffffff038211156130fe576130fd6132be565b5b828201905092915050565b6000613114826131d5565b915061311f836131d5565b9250817fffffffffffffffffffffffffffffffffffffffffffffffffffffffffffffffff0483118215151615613158576131576132be565b5b828202905092915050565b600061316e826131d5565b9150613179836131d5565b92508282101561318c5761318b6132be565b5b828203905092915050565b60006131a2826131b5565b9050919050565b60008115159050919050565b600073ffffffffffffffffffffffffffffffffffffffff82169050919050565b6000819050919050565b60006131ea826131f1565b9050919050565b60006131fc826131b5565b9050919050565b600061320e82613215565b9050919050565b6000613220826131b5565b9050919050565b600061323282613239565b9050919050565b6000613244826131b5565b9050919050565b82818337600083830152505050565b60005b8381101561327857808201518184015260208101905061325d565b83811115613287576000848401525b50505050565b6132968261331c565b810181811067ffffffffffffffff821117156132b5576132b46132ed565b5b80604052505050565b7f4e487b7100000000000000000000000000000000000000000000000000000000600052601160045260246000fd5b7f4e487b7100000000000000000000000000000000000000000000000000000000600052604160045260246000fd5b6000601f19601f8301169050919050565b7f55736572206973206e6f7420612044656c6976657279206167656e742e204f6e60008201527f6c792044656c6976657279206167656e74732063616e2062652061737369676e60208201527f656420666f6f64206f726465722e000000000000000000000000000000000000604082015250565b7f52657374617572616e74206d757374207374616b65206d6f7265207468616e2060008201527f3020657468657200000000000000000000000000000000000000000000000000602082015250565b7f4e6f7420656e6f756768206d6f6e69657320746f20636f766572206f7264657260008201527f20616d6f756e742e000000000000000000000000000000000000000000000000602082015250565b7f4574686572206d757374206d6174636820746f6b656e5374616b650000000000600082015250565b7f44656c6976657279204167656e74206d757374207374616b65206d696e696d7560008201527f6d20313020657468657200000000000000000000000000000000000000000000602082015250565b7f4e6f7420456e6f75676820746f6b656e7320746f207469702e00000000000000600082015250565b7f5573657220697320612044656c6976657279206167656e742e204f6e6c79206360008201527f7573746f6d6572732063616e2061636365737320746869732e00000000000000602082015250565b61353981613197565b811461354457600080fd5b50565b613550816131a9565b811461355b57600080fd5b50565b613567816131d5565b811461357257600080fd5b5056fea2646970667358221220ebfae7dd9ab44e5b29b0757e2e8de78b13221f3647f771e3b5da59e574d8030964736f6c63430008010033",
  "immutableReferences": {},
  "source": "pragma solidity 0.8.1;\n// pragma solidity 0.7.6;\n// \"SPDX-License-Identifier: UNLICENSED\"\n\nimport \"@openzeppelin/contracts/token/ERC20/IERC20.sol\";\n\nimport \"./helpers_interface.sol\";\nimport \"./registration_interface.sol\";\nimport \"./orders_interface.sol\";\n\n\ncontract Foodiez {\n    \n    address ownerAddress;\n\n    // FoodiezRegistration public _foodiezRegistration;\n    // FoodiezHelpers public _foodiezHelpers;\n    // FoodiezOrders public _foodiezOrders;\n    \n    FoodiezRegistrationInterface public _foodiezRegistration;\n    FoodiezHelpersInterface public _foodiezHelpers;\n    FoodiezOrdersInterface public _foodiezOrders;\n\n    /*************Variables and Event Emitter***********************************************************/\n    \n    uint NetworkServiceFee = 2;\n    uint DeliveryFlatFee = 2;\n    \n    event UserRegisteredEvent(string userName, bool isRegistered);\n    event RestaurantRegistered(string restaurantName, address rAddress, bool isRegistered);\n    event ItemAddedEvent(string restaurantId, string itemId, string itemName);\n    event OrderPlaced(string orderId, uint total, string orderStatus);\n    event OrderAssignedToDriver(string orderId, address driverAddress, string orderStatus);\n    event OrderDeliveredToUser(string orderId, address driverAddress, string orderStatus);\n    event orderDeliveryConfirmedEvent(uint restaurantTotal, uint deliveryTotal);\n    \n    event AccountApproved(address account, uint256 allowance);\n    event AmountTransferedToAccount(address account, uint256 amount);\n    event TransferedSenderToRecipient(address sender, address recipient, uint256 amount);\n    \n    /*************Token Setup *************************/\n    IERC20 token;\n    \n    address payable owner;\n    \n    mapping (address => uint256) private _balances;\n\n    mapping (address => mapping (address => uint256)) private _allowances;\n    \n    \n    /************Constructor / Modifiers /  contract address setters*********************************************/\n    constructor(FoodiezRegistrationInterface _registerAddress, FoodiezHelpersInterface _helperAddress, FoodiezOrdersInterface _orderAddress, address _token) {\n        ownerAddress = msg.sender;\n        _foodiezHelpers = _helperAddress;\n        _foodiezRegistration = _registerAddress;\n        _foodiezOrders = _orderAddress;\n        \n        _foodiezRegistration.setParentContract(address(this));\n        _foodiezOrders.setParentContract(address(this));\n        \n        owner = payable(msg.sender); // Token deploy address;\n        token = IERC20(_token);\n    }\n\n    modifier OnlyOwner(){\n        require(msg.sender == ownerAddress, \"Foodiez Registration - Only Owner can call this function\");\n        _; // this underscore is requierd otherwise compiler will break;\n    }\n\n    modifier isDeliveryCheck(){\n        require( _foodiezRegistration.checkUserDelivery(msg.sender) == true, \"User is not a Delivery agent. Only Delivery agents can be assigned food order.\");\n        _;\n    }\n    \n    modifier isUserCheck(){\n        require( _foodiezRegistration.checkUserDelivery(msg.sender) == false, \"User is a Delivery agent. Only customers can access this.\");\n        _;\n    }\n\n    /*************Token Functions******************************************/\n    \n    function tokenApproveAccount(address _address, uint256 amount) public payable returns (bool){\n        \n        bool isApproved = token.approve(_address, amount);\n        if(isApproved) emit AccountApproved(_address, amount);\n        return isApproved;\n    }\n    \n    function allowance(address own, address spender) public view returns (uint256){\n        return token.allowance(own, spender);\n    }\n    \n    function getTokenBalanceOf(address _address) public view returns (uint256){\n        return token.balanceOf(_address);\n    }\n    \n    function tokenTransfer(address recipient, uint256 amount) public payable {\n        bool tokenTransfered = token.transfer(recipient, amount);\n        if(tokenTransfered) emit AmountTransferedToAccount(recipient, amount);\n    }\n    \n    function tokenTransferFrom(address sender, address recipient, uint256 amount) public payable {\n        \n        bool tokenTransfered = token.transferFrom(sender, recipient, amount);\n        \n        \n        if(tokenTransfered) emit TransferedSenderToRecipient(sender, recipient, amount);\n    }\n    \n    /*****************Registration of User ( customer and delivery ) and Restaurant *********************/\n    function userRegister(string memory name, uint uType, uint256 amountStake) public payable {\n        if(uType == 1) { \n            require(msg.value >= 10 ether, \"Delivery Agent must stake minimum 10 ether\"); \n        }\n        \n        // bool success = tokenApproveAccount(msg.sender, amountStake ); // approval of account to be done directly at tokenContract\n        if(amountStake > 0){\n            require(msg.value >= amountStake, \"Ether must match tokenStake\");\n            tokenTransferFrom(owner, msg.sender, amountStake);\n        }\n        \n        bool isRegistered = _foodiezRegistration.userRegistration(msg.sender, name, uType); // setup token here\n        emit UserRegisteredEvent( name, isRegistered);\n    }\n    \n    function getUserInfo(address _address) public view returns (string memory, address, string memory, uint){\n        return _foodiezRegistration.getUserInfo(_address);\n    }\n    \n    function registerRestaurant(string memory _name, string memory _rId, uint256 amountStake) public payable{\n        \n        bool isRegistered = _foodiezRegistration.createRestaurant(msg.sender, _name, _rId);\n        emit RestaurantRegistered(_name, msg.sender, isRegistered);\n        \n        //token register and purchase\n        require(msg.value >= 0, \"Restaurant must stake more than 0 ether\");\n        // bool success = tokenApproveAccount(msg.sender, amountStake);\n        tokenTransferFrom(owner, msg.sender, amountStake);\n    }\n    \n    function addMenuItems(string memory _itemName, uint _type, uint _price) public {\n        (string memory rId, string memory uniqueId, string memory itemName) = _foodiezRegistration.addMenuItems(msg.sender, _itemName, _type, _price);\n        \n        emit ItemAddedEvent(rId, uniqueId, itemName);\n    }\n    \n    function getRestaurantMenu(address _restaurantAddress, uint _itemNumber) public view returns(string memory, string memory, uint){\n        return _foodiezRegistration.getRestaurantMenu(_restaurantAddress, _itemNumber);\n    } \n    \n    function getrestaurantInfo(address _restaurantAddress) public view returns(string memory, address, uint, uint){\n        return _foodiezRegistration.getrestaurantInfo(_restaurantAddress);\n    }\n    \n    /************Foodiez Orders Vars and Functions**********************/\n    function placeOrder(address _restaurantAddress, uint _itemNum, uint tokenPay) public payable returns (string memory, string memory, uint256, string memory){\n        \n        (string memory rId, address restaurantAddress, string memory itemName, uint totalPrice) = _foodiezRegistration.getOrderTotal(msg.sender, _restaurantAddress, _itemNum);\n        \n        //check for required ether \n        require(msg.value >= totalPrice || weiConverter(tokenPay) >= totalPrice , \"Not enough monies to cover order amount.\");\n        (string memory uniqueId, string memory oItemName, uint256 total, string memory status) = _foodiezRegistration.createFoodOrder(rId, msg.sender, restaurantAddress, itemName, totalPrice);\n        \n        \n        if(tokenPay > 0) {\n            _foodiezOrders.setTokenPayOrder(uniqueId, tokenPay);\n            // transfer(address(this), tokenPay);\n        }\n        \n        emit OrderPlaced(uniqueId, total, status);\n        return (uniqueId, oItemName, total, status);\n    }\n    \n    function getOrderStatus(string memory userOrderId) public view returns (string memory, address, address, string memory, uint256, string memory){\n        return _foodiezOrders.getUserOrderStatus(userOrderId);\n    }\n    \n    function assignToDriver(string memory userOrderId) public isDeliveryCheck {\n        \n        (address driverAddress, string memory status) = _foodiezOrders.assignOrderToDriver(msg.sender, userOrderId);\n        emit OrderAssignedToDriver(userOrderId,driverAddress, status);\n    }\n    \n    function driverDelieveredOrder(string memory userOrderId) public isDeliveryCheck {\n        \n        (address driverAddress, string memory status) = _foodiezOrders.driverDelieveredOrder(msg.sender, userOrderId);\n        emit OrderDeliveredToUser(userOrderId,driverAddress, status);\n    }\n    \n    function orderDeliveryConfirmed(string memory userOrderId, uint _restaurantRating, uint _deliveryRating, uint tokenTip ) public isUserCheck payable{\n         \n         (address restaurantAddress, address deliveryAddress, address userAddress, uint total ) = _foodiezOrders.orderDeliveryConfirmed(userOrderId);\n        \n        //ratings for restaurant and drivers\n        _foodiezRegistration.addRestaurantRating(restaurantAddress, _restaurantRating);\n        \n        _foodiezRegistration.addDriverRating(deliveryAddress, _deliveryRating);\n         \n        // payment \n        require(getTokenBalanceOf(msg.sender) >= tokenTip, \"Not Enough tokens to tip.\");\n        \n        uint256 tokenPay = _foodiezOrders.getTokenPayOrder(userOrderId);\n        \n         uint finalOrderTotal = total;\n        // take out service fee from total\n        uint serviceFee = _foodiezHelpers.calcServiceFee(total, NetworkServiceFee);\n        finalOrderTotal -= serviceFee;\n            \n        // driver fee + any tips go to \n        uint driverTotal = _foodiezHelpers.calcDriverFlatFee(total, DeliveryFlatFee); \n        finalOrderTotal -= driverTotal; \n        \n        \n        driverTotal += msg.value;\n        \n        // transfer driver money\n        payable(deliveryAddress).transfer(driverTotal);\n        if(tokenTip > 0) {\n            token.transferFrom(userAddress, deliveryAddress, tokenTip);\n        }\n        \n        // transfer rest money\n        if(tokenPay > 0){\n            token.transferFrom(userAddress, restaurantAddress, tokenPay);\n        }else {\n            payable(restaurantAddress).transfer(finalOrderTotal);   \n        }\n        \n        emit orderDeliveryConfirmedEvent(finalOrderTotal, driverTotal);\n    }\n\n    \n    function weiConverter(uint256 tokenPay) internal pure returns(uint){\n        return tokenPay * 10**18;\n    }\n}",
  "sourcePath": "/home/dinesh/Blockchain-Projects/EthereumSolidityProject/contracts/parent.sol",
  "compiler": {
    "name": "solc",
    "version": "0.8.1+commit.df193b15.Emscripten.clang"
  },
  "schemaVersion": "3.3.3",
  "updatedAt": "2021-03-26T00:48:46.914Z",
  "devdoc": {
    "kind": "dev",
    "methods": {},
    "version": 1
  },
  "userdoc": {
    "kind": "user",
    "methods": {},
    "version": 1
  }
}