{
  "contractName": "FoodiezOrders",
  "abi": [
    {
      "anonymous": false,
      "inputs": [
        {
          "indexed": false,
          "internalType": "uint256",
          "name": "value",
          "type": "uint256"
        },
        {
          "indexed": false,
          "internalType": "address",
          "name": "sender",
          "type": "address"
        }
      ],
      "name": "OrderAssignedToDriver",
      "type": "event"
    },
    {
      "anonymous": false,
      "inputs": [
        {
          "indexed": false,
          "internalType": "bytes",
          "name": "data",
          "type": "bytes"
        },
        {
          "indexed": false,
          "internalType": "address",
          "name": "sender",
          "type": "address"
        }
      ],
      "name": "OrderDeliveredToCustomer",
      "type": "event"
    },
    {
      "inputs": [],
      "name": "parentContractAddress",
      "outputs": [
        {
          "internalType": "address",
          "name": "",
          "type": "address"
        }
      ],
      "stateMutability": "view",
      "type": "function"
    },
    {
      "inputs": [],
      "name": "registerContractAddress",
      "outputs": [
        {
          "internalType": "address",
          "name": "",
          "type": "address"
        }
      ],
      "stateMutability": "view",
      "type": "function"
    },
    {
      "inputs": [
        {
          "internalType": "address",
          "name": "_address",
          "type": "address"
        }
      ],
      "name": "setParentContract",
      "outputs": [
        {
          "internalType": "string",
          "name": "",
          "type": "string"
        }
      ],
      "stateMutability": "nonpayable",
      "type": "function"
    },
    {
      "inputs": [
        {
          "internalType": "address",
          "name": "_address",
          "type": "address"
        }
      ],
      "name": "setRegisterContract",
      "outputs": [
        {
          "internalType": "string",
          "name": "",
          "type": "string"
        }
      ],
      "stateMutability": "nonpayable",
      "type": "function"
    },
    {
      "inputs": [
        {
          "internalType": "string",
          "name": "_uniqueOrderId",
          "type": "string"
        },
        {
          "internalType": "string",
          "name": "_rId",
          "type": "string"
        },
        {
          "internalType": "address",
          "name": "_restaurantAddress",
          "type": "address"
        },
        {
          "internalType": "address",
          "name": "_userAddress",
          "type": "address"
        },
        {
          "internalType": "string",
          "name": "_itemName",
          "type": "string"
        },
        {
          "internalType": "uint256",
          "name": "_total",
          "type": "uint256"
        }
      ],
      "name": "createFoodOrderEntry",
      "outputs": [
        {
          "internalType": "string",
          "name": "",
          "type": "string"
        },
        {
          "internalType": "string",
          "name": "",
          "type": "string"
        },
        {
          "internalType": "uint256",
          "name": "",
          "type": "uint256"
        },
        {
          "internalType": "string",
          "name": "",
          "type": "string"
        }
      ],
      "stateMutability": "payable",
      "type": "function"
    },
    {
      "inputs": [
        {
          "internalType": "string",
          "name": "userOrderId",
          "type": "string"
        }
      ],
      "name": "getUserOrderStatus",
      "outputs": [
        {
          "internalType": "string",
          "name": "",
          "type": "string"
        },
        {
          "internalType": "address",
          "name": "",
          "type": "address"
        },
        {
          "internalType": "address",
          "name": "",
          "type": "address"
        },
        {
          "internalType": "string",
          "name": "",
          "type": "string"
        },
        {
          "internalType": "uint256",
          "name": "",
          "type": "uint256"
        },
        {
          "internalType": "string",
          "name": "",
          "type": "string"
        }
      ],
      "stateMutability": "view",
      "type": "function"
    },
    {
      "inputs": [
        {
          "internalType": "address",
          "name": "_deliveryAddress",
          "type": "address"
        },
        {
          "internalType": "string",
          "name": "userOrderId",
          "type": "string"
        }
      ],
      "name": "assignOrderToDriver",
      "outputs": [
        {
          "internalType": "address",
          "name": "",
          "type": "address"
        },
        {
          "internalType": "string",
          "name": "",
          "type": "string"
        }
      ],
      "stateMutability": "nonpayable",
      "type": "function"
    },
    {
      "inputs": [
        {
          "internalType": "address",
          "name": "_deliveryAddress",
          "type": "address"
        },
        {
          "internalType": "string",
          "name": "userOrderId",
          "type": "string"
        }
      ],
      "name": "driverDelieveredOrder",
      "outputs": [
        {
          "internalType": "address",
          "name": "",
          "type": "address"
        },
        {
          "internalType": "string",
          "name": "",
          "type": "string"
        }
      ],
      "stateMutability": "nonpayable",
      "type": "function"
    },
    {
      "inputs": [
        {
          "internalType": "string",
          "name": "userOrderId",
          "type": "string"
        }
      ],
      "name": "orderDeliveryConfirmed",
      "outputs": [
        {
          "internalType": "address",
          "name": "",
          "type": "address"
        },
        {
          "internalType": "address",
          "name": "",
          "type": "address"
        },
        {
          "internalType": "address",
          "name": "",
          "type": "address"
        },
        {
          "internalType": "uint256",
          "name": "",
          "type": "uint256"
        }
      ],
      "stateMutability": "nonpayable",
      "type": "function"
    },
    {
      "inputs": [
        {
          "internalType": "string",
          "name": "_uniqueOrderId",
          "type": "string"
        },
        {
          "internalType": "uint256",
          "name": "tokenPay",
          "type": "uint256"
        }
      ],
      "name": "setTokenPayOrder",
      "outputs": [],
      "stateMutability": "nonpayable",
      "type": "function"
    },
    {
      "inputs": [
        {
          "internalType": "string",
          "name": "_uniqueOrderId",
          "type": "string"
        }
      ],
      "name": "getTokenPayOrder",
      "outputs": [
        {
          "internalType": "uint256",
          "name": "",
          "type": "uint256"
        }
      ],
      "stateMutability": "view",
      "type": "function"
    }
  ],
  "bytecode": "0x60806040526000600160146101000a81548160ff0219169083151502179055506000600160156101000a81548160ff02191690831515021790555060006005556002600655600260075534801561005557600080fd5b50613710806100656000396000f3fe60806040526004361061009c5760003560e01c80639b4708d1116100645780639b4708d1146101cf578063ae596d4e146101f8578063b1a68ff214610223578063c25783f714610263578063d182dbcd1461028e578063e150a2e8146102cb5761009c565b80634500901e146100a157806357c86669146100d4578063748f9f1214610112578063765ccb6b146101505780637ab8ae161461018d575b600080fd5b6100bb60048036038101906100b69190612f04565b610308565b6040516100cb949392919061327c565b60405180910390f35b3480156100e057600080fd5b506100fb60048036038101906100f69190612e6f565b6106f3565b6040516101099291906131b4565b60405180910390f35b34801561011e57600080fd5b5061013960048036038101906101349190612e6f565b611087565b6040516101479291906131b4565b60405180910390f35b34801561015c57600080fd5b5061017760048036038101906101729190612e46565b611970565b60405161018491906131e4565b60405180910390f35b34801561019957600080fd5b506101b460048036038101906101af9190612ec3565b611a42565b6040516101c696959493929190613206565b60405180910390f35b3480156101db57600080fd5b506101f660048036038101906101f19190612fd5565b611f1e565b005b34801561020457600080fd5b5061020d61202b565b60405161021a9190613154565b60405180910390f35b34801561022f57600080fd5b5061024a60048036038101906102459190612ec3565b61204f565b60405161025a949392919061316f565b60405180910390f35b34801561026f57600080fd5b50610278612738565b6040516102859190613154565b60405180910390f35b34801561029a57600080fd5b506102b560048036038101906102b09190612ec3565b61275e565b6040516102c29190613356565b60405180910390f35b3480156102d757600080fd5b506102f260048036038101906102ed9190612e46565b612873565b6040516102ff91906131e4565b60405180910390f35b6060806000606060008054906101000a900473ffffffffffffffffffffffffffffffffffffffff1673ffffffffffffffffffffffffffffffffffffffff163373ffffffffffffffffffffffffffffffffffffffff1614806103b65750600160009054906101000a900473ffffffffffffffffffffffffffffffffffffffff1673ffffffffffffffffffffffffffffffffffffffff163373ffffffffffffffffffffffffffffffffffffffff16145b6103f5576040517f08c379a00000000000000000000000000000000000000000000000000000000081526004016103ec90613336565b60405180910390fd5b60006040518061010001604052808c81526020018b81526020018a73ffffffffffffffffffffffffffffffffffffffff1681526020018973ffffffffffffffffffffffffffffffffffffffff168152602001600073ffffffffffffffffffffffffffffffffffffffff168152602001888152602001878152602001600060038111156104aa577f4e487b7100000000000000000000000000000000000000000000000000000000600052602160045260246000fd5b60038111156104e2577f4e487b7100000000000000000000000000000000000000000000000000000000600052602160045260246000fd5b81525090508060028c6040516104f8919061313d565b90815260200160405180910390206000820151816000019080519060200190610522929190612d11565b50602082015181600101908051906020019061053f929190612d11565b5060408201518160020160006101000a81548173ffffffffffffffffffffffffffffffffffffffff021916908373ffffffffffffffffffffffffffffffffffffffff16021790555060608201518160030160006101000a81548173ffffffffffffffffffffffffffffffffffffffff021916908373ffffffffffffffffffffffffffffffffffffffff16021790555060808201518160040160006101000a81548173ffffffffffffffffffffffffffffffffffffffff021916908373ffffffffffffffffffffffffffffffffffffffff16021790555060a0820151816005019080519060200190610631929190612d11565b5060c0820151816006015560e08201518160070160006101000a81548160ff0219169083600381111561068d577f4e487b7100000000000000000000000000000000000000000000000000000000600052602160045260246000fd5b02179055509050508a87876106dd8460e0015160038111156106d8577f4e487b7100000000000000000000000000000000000000000000000000000000600052602160045260246000fd5b612946565b9450945094509450509650965096509692505050565b6000606060008054906101000a900473ffffffffffffffffffffffffffffffffffffffff1673ffffffffffffffffffffffffffffffffffffffff163373ffffffffffffffffffffffffffffffffffffffff16148061079e5750600160009054906101000a900473ffffffffffffffffffffffffffffffffffffffff1673ffffffffffffffffffffffffffffffffffffffff163373ffffffffffffffffffffffffffffffffffffffff16145b6107dd576040517f08c379a00000000000000000000000000000000000000000000000000000000081526004016107d490613336565b60405180910390fd5b60006002846040516107ef919061313d565b9081526020016040518091039020604051806101000160405290816000820180546108199061346c565b80601f01602080910402602001604051908101604052809291908181526020018280546108459061346c565b80156108925780601f1061086757610100808354040283529160200191610892565b820191906000526020600020905b81548152906001019060200180831161087557829003601f168201915b505050505081526020016001820180546108ab9061346c565b80601f01602080910402602001604051908101604052809291908181526020018280546108d79061346c565b80156109245780601f106108f957610100808354040283529160200191610924565b820191906000526020600020905b81548152906001019060200180831161090757829003601f168201915b505050505081526020016002820160009054906101000a900473ffffffffffffffffffffffffffffffffffffffff1673ffffffffffffffffffffffffffffffffffffffff1673ffffffffffffffffffffffffffffffffffffffff1681526020016003820160009054906101000a900473ffffffffffffffffffffffffffffffffffffffff1673ffffffffffffffffffffffffffffffffffffffff1673ffffffffffffffffffffffffffffffffffffffff1681526020016004820160009054906101000a900473ffffffffffffffffffffffffffffffffffffffff1673ffffffffffffffffffffffffffffffffffffffff1673ffffffffffffffffffffffffffffffffffffffff168152602001600582018054610a3f9061346c565b80601f0160208091040260200160405190810160405280929190818152602001828054610a6b9061346c565b8015610ab85780601f10610a8d57610100808354040283529160200191610ab8565b820191906000526020600020905b815481529060010190602001808311610a9b57829003601f168201915b50505050508152602001600682015481526020016007820160009054906101000a900460ff166003811115610b16577f4e487b7100000000000000000000000000000000000000000000000000000000600052602160045260246000fd5b6003811115610b4e577f4e487b7100000000000000000000000000000000000000000000000000000000600052602160045260246000fd5b815250509050600073ffffffffffffffffffffffffffffffffffffffff16816080015173ffffffffffffffffffffffffffffffffffffffff1614610bc7576040517f08c379a0000000000000000000000000000000000000000000000000000000008152600401610bbe906132d6565b60405180910390fd5b84816080019073ffffffffffffffffffffffffffffffffffffffff16908173ffffffffffffffffffffffffffffffffffffffff168152505060016003811115610c39577f4e487b7100000000000000000000000000000000000000000000000000000000600052602160045260246000fd5b8160e001906003811115610c76577f4e487b7100000000000000000000000000000000000000000000000000000000600052602160045260246000fd5b90816003811115610cb0577f4e487b7100000000000000000000000000000000000000000000000000000000600052602160045260246000fd5b8152505080600285604051610cc5919061313d565b90815260200160405180910390206000820151816000019080519060200190610cef929190612d11565b506020820151816001019080519060200190610d0c929190612d11565b5060408201518160020160006101000a81548173ffffffffffffffffffffffffffffffffffffffff021916908373ffffffffffffffffffffffffffffffffffffffff16021790555060608201518160030160006101000a81548173ffffffffffffffffffffffffffffffffffffffff021916908373ffffffffffffffffffffffffffffffffffffffff16021790555060808201518160040160006101000a81548173ffffffffffffffffffffffffffffffffffffffff021916908373ffffffffffffffffffffffffffffffffffffffff16021790555060a0820151816005019080519060200190610dfe929190612d11565b5060c0820151816006015560e08201518160070160006101000a81548160ff02191690836003811115610e5a577f4e487b7100000000000000000000000000000000000000000000000000000000600052602160045260246000fd5b021790555090505080600360008773ffffffffffffffffffffffffffffffffffffffff1673ffffffffffffffffffffffffffffffffffffffff1681526020019081526020016000206000820151816000019080519060200190610ebe929190612d11565b506020820151816001019080519060200190610edb929190612d11565b5060408201518160020160006101000a81548173ffffffffffffffffffffffffffffffffffffffff021916908373ffffffffffffffffffffffffffffffffffffffff16021790555060608201518160030160006101000a81548173ffffffffffffffffffffffffffffffffffffffff021916908373ffffffffffffffffffffffffffffffffffffffff16021790555060808201518160040160006101000a81548173ffffffffffffffffffffffffffffffffffffffff021916908373ffffffffffffffffffffffffffffffffffffffff16021790555060a0820151816005019080519060200190610fcd929190612d11565b5060c0820151816006015560e08201518160070160006101000a81548160ff02191690836003811115611029577f4e487b7100000000000000000000000000000000000000000000000000000000600052602160045260246000fd5b0217905550905050806080015161107b8260e001516003811115611076577f4e487b7100000000000000000000000000000000000000000000000000000000600052602160045260246000fd5b612946565b92509250509250929050565b6000606060008054906101000a900473ffffffffffffffffffffffffffffffffffffffff1673ffffffffffffffffffffffffffffffffffffffff163373ffffffffffffffffffffffffffffffffffffffff1614806111325750600160009054906101000a900473ffffffffffffffffffffffffffffffffffffffff1673ffffffffffffffffffffffffffffffffffffffff163373ffffffffffffffffffffffffffffffffffffffff16145b611171576040517f08c379a000000000000000000000000000000000000000000000000000000000815260040161116890613336565b60405180910390fd5b6000600284604051611183919061313d565b9081526020016040518091039020604051806101000160405290816000820180546111ad9061346c565b80601f01602080910402602001604051908101604052809291908181526020018280546111d99061346c565b80156112265780601f106111fb57610100808354040283529160200191611226565b820191906000526020600020905b81548152906001019060200180831161120957829003601f168201915b5050505050815260200160018201805461123f9061346c565b80601f016020809104026020016040519081016040528092919081815260200182805461126b9061346c565b80156112b85780601f1061128d576101008083540402835291602001916112b8565b820191906000526020600020905b81548152906001019060200180831161129b57829003601f168201915b505050505081526020016002820160009054906101000a900473ffffffffffffffffffffffffffffffffffffffff1673ffffffffffffffffffffffffffffffffffffffff1673ffffffffffffffffffffffffffffffffffffffff1681526020016003820160009054906101000a900473ffffffffffffffffffffffffffffffffffffffff1673ffffffffffffffffffffffffffffffffffffffff1673ffffffffffffffffffffffffffffffffffffffff1681526020016004820160009054906101000a900473ffffffffffffffffffffffffffffffffffffffff1673ffffffffffffffffffffffffffffffffffffffff1673ffffffffffffffffffffffffffffffffffffffff1681526020016005820180546113d39061346c565b80601f01602080910402602001604051908101604052809291908181526020018280546113ff9061346c565b801561144c5780601f106114215761010080835404028352916020019161144c565b820191906000526020600020905b81548152906001019060200180831161142f57829003601f168201915b50505050508152602001600682015481526020016007820160009054906101000a900460ff1660038111156114aa577f4e487b7100000000000000000000000000000000000000000000000000000000600052602160045260246000fd5b60038111156114e2577f4e487b7100000000000000000000000000000000000000000000000000000000600052602160045260246000fd5b81525050905060026003811115611522577f4e487b7100000000000000000000000000000000000000000000000000000000600052602160045260246000fd5b8160e00190600381111561155f577f4e487b7100000000000000000000000000000000000000000000000000000000600052602160045260246000fd5b90816003811115611599577f4e487b7100000000000000000000000000000000000000000000000000000000600052602160045260246000fd5b81525050806002856040516115ae919061313d565b908152602001604051809103902060008201518160000190805190602001906115d8929190612d11565b5060208201518160010190805190602001906115f5929190612d11565b5060408201518160020160006101000a81548173ffffffffffffffffffffffffffffffffffffffff021916908373ffffffffffffffffffffffffffffffffffffffff16021790555060608201518160030160006101000a81548173ffffffffffffffffffffffffffffffffffffffff021916908373ffffffffffffffffffffffffffffffffffffffff16021790555060808201518160040160006101000a81548173ffffffffffffffffffffffffffffffffffffffff021916908373ffffffffffffffffffffffffffffffffffffffff16021790555060a08201518160050190805190602001906116e7929190612d11565b5060c0820151816006015560e08201518160070160006101000a81548160ff02191690836003811115611743577f4e487b7100000000000000000000000000000000000000000000000000000000600052602160045260246000fd5b021790555090505080600360008773ffffffffffffffffffffffffffffffffffffffff1673ffffffffffffffffffffffffffffffffffffffff16815260200190815260200160002060008201518160000190805190602001906117a7929190612d11565b5060208201518160010190805190602001906117c4929190612d11565b5060408201518160020160006101000a81548173ffffffffffffffffffffffffffffffffffffffff021916908373ffffffffffffffffffffffffffffffffffffffff16021790555060608201518160030160006101000a81548173ffffffffffffffffffffffffffffffffffffffff021916908373ffffffffffffffffffffffffffffffffffffffff16021790555060808201518160040160006101000a81548173ffffffffffffffffffffffffffffffffffffffff021916908373ffffffffffffffffffffffffffffffffffffffff16021790555060a08201518160050190805190602001906118b6929190612d11565b5060c0820151816006015560e08201518160070160006101000a81548160ff02191690836003811115611912577f4e487b7100000000000000000000000000000000000000000000000000000000600052602160045260246000fd5b021790555090505080608001516119648260e00151600381111561195f577f4e487b7100000000000000000000000000000000000000000000000000000000600052602160045260246000fd5b612946565b92509250509250929050565b606060001515600160149054906101000a900460ff161515146119c8576040517f08c379a00000000000000000000000000000000000000000000000000000000081526004016119bf90613316565b60405180910390fd5b816000806101000a81548173ffffffffffffffffffffffffffffffffffffffff021916908373ffffffffffffffffffffffffffffffffffffffff16021790555060018060146101000a81548160ff0219169083151502179055506040518060600160405280602b8152602001613683602b91399050919050565b606060008060606000606060008054906101000a900473ffffffffffffffffffffffffffffffffffffffff1673ffffffffffffffffffffffffffffffffffffffff163373ffffffffffffffffffffffffffffffffffffffff161480611af45750600160009054906101000a900473ffffffffffffffffffffffffffffffffffffffff1673ffffffffffffffffffffffffffffffffffffffff163373ffffffffffffffffffffffffffffffffffffffff16145b611b33576040517f08c379a0000000000000000000000000000000000000000000000000000000008152600401611b2a90613336565b60405180910390fd5b6000600288604051611b45919061313d565b908152602001604051809103902060405180610100016040529081600082018054611b6f9061346c565b80601f0160208091040260200160405190810160405280929190818152602001828054611b9b9061346c565b8015611be85780601f10611bbd57610100808354040283529160200191611be8565b820191906000526020600020905b815481529060010190602001808311611bcb57829003601f168201915b50505050508152602001600182018054611c019061346c565b80601f0160208091040260200160405190810160405280929190818152602001828054611c2d9061346c565b8015611c7a5780601f10611c4f57610100808354040283529160200191611c7a565b820191906000526020600020905b815481529060010190602001808311611c5d57829003601f168201915b505050505081526020016002820160009054906101000a900473ffffffffffffffffffffffffffffffffffffffff1673ffffffffffffffffffffffffffffffffffffffff1673ffffffffffffffffffffffffffffffffffffffff1681526020016003820160009054906101000a900473ffffffffffffffffffffffffffffffffffffffff1673ffffffffffffffffffffffffffffffffffffffff1673ffffffffffffffffffffffffffffffffffffffff1681526020016004820160009054906101000a900473ffffffffffffffffffffffffffffffffffffffff1673ffffffffffffffffffffffffffffffffffffffff1673ffffffffffffffffffffffffffffffffffffffff168152602001600582018054611d959061346c565b80601f0160208091040260200160405190810160405280929190818152602001828054611dc19061346c565b8015611e0e5780601f10611de357610100808354040283529160200191611e0e565b820191906000526020600020905b815481529060010190602001808311611df157829003601f168201915b50505050508152602001600682015481526020016007820160009054906101000a900460ff166003811115611e6c577f4e487b7100000000000000000000000000000000000000000000000000000000600052602160045260246000fd5b6003811115611ea4577f4e487b7100000000000000000000000000000000000000000000000000000000600052602160045260246000fd5b8152505090508060000151816060015182608001518360a001518460c00151611f088660e001516003811115611f03577f4e487b7100000000000000000000000000000000000000000000000000000000600052602160045260246000fd5b612946565b9650965096509650965096505091939550919395565b60008054906101000a900473ffffffffffffffffffffffffffffffffffffffff1673ffffffffffffffffffffffffffffffffffffffff163373ffffffffffffffffffffffffffffffffffffffff161480611fc55750600160009054906101000a900473ffffffffffffffffffffffffffffffffffffffff1673ffffffffffffffffffffffffffffffffffffffff163373ffffffffffffffffffffffffffffffffffffffff16145b612004576040517f08c379a0000000000000000000000000000000000000000000000000000000008152600401611ffb90613336565b60405180910390fd5b80600483604051612015919061313d565b9081526020016040518091039020819055505050565b60008054906101000a900473ffffffffffffffffffffffffffffffffffffffff1681565b60008060008060008054906101000a900473ffffffffffffffffffffffffffffffffffffffff1673ffffffffffffffffffffffffffffffffffffffff163373ffffffffffffffffffffffffffffffffffffffff1614806120fc5750600160009054906101000a900473ffffffffffffffffffffffffffffffffffffffff1673ffffffffffffffffffffffffffffffffffffffff163373ffffffffffffffffffffffffffffffffffffffff16145b61213b576040517f08c379a000000000000000000000000000000000000000000000000000000000815260040161213290613336565b60405180910390fd5b600060028660405161214d919061313d565b9081526020016040518091039020604051806101000160405290816000820180546121779061346c565b80601f01602080910402602001604051908101604052809291908181526020018280546121a39061346c565b80156121f05780601f106121c5576101008083540402835291602001916121f0565b820191906000526020600020905b8154815290600101906020018083116121d357829003601f168201915b505050505081526020016001820180546122099061346c565b80601f01602080910402602001604051908101604052809291908181526020018280546122359061346c565b80156122825780601f1061225757610100808354040283529160200191612282565b820191906000526020600020905b81548152906001019060200180831161226557829003601f168201915b505050505081526020016002820160009054906101000a900473ffffffffffffffffffffffffffffffffffffffff1673ffffffffffffffffffffffffffffffffffffffff1673ffffffffffffffffffffffffffffffffffffffff1681526020016003820160009054906101000a900473ffffffffffffffffffffffffffffffffffffffff1673ffffffffffffffffffffffffffffffffffffffff1673ffffffffffffffffffffffffffffffffffffffff1681526020016004820160009054906101000a900473ffffffffffffffffffffffffffffffffffffffff1673ffffffffffffffffffffffffffffffffffffffff1673ffffffffffffffffffffffffffffffffffffffff16815260200160058201805461239d9061346c565b80601f01602080910402602001604051908101604052809291908181526020018280546123c99061346c565b80156124165780601f106123eb57610100808354040283529160200191612416565b820191906000526020600020905b8154815290600101906020018083116123f957829003601f168201915b50505050508152602001600682015481526020016007820160009054906101000a900460ff166003811115612474577f4e487b7100000000000000000000000000000000000000000000000000000000600052602160045260246000fd5b60038111156124ac577f4e487b7100000000000000000000000000000000000000000000000000000000600052602160045260246000fd5b8152505090506003808111156124eb577f4e487b7100000000000000000000000000000000000000000000000000000000600052602160045260246000fd5b8160e001906003811115612528577f4e487b7100000000000000000000000000000000000000000000000000000000600052602160045260246000fd5b90816003811115612562577f4e487b7100000000000000000000000000000000000000000000000000000000600052602160045260246000fd5b8152505080600287604051612577919061313d565b908152602001604051809103902060008201518160000190805190602001906125a1929190612d11565b5060208201518160010190805190602001906125be929190612d11565b5060408201518160020160006101000a81548173ffffffffffffffffffffffffffffffffffffffff021916908373ffffffffffffffffffffffffffffffffffffffff16021790555060608201518160030160006101000a81548173ffffffffffffffffffffffffffffffffffffffff021916908373ffffffffffffffffffffffffffffffffffffffff16021790555060808201518160040160006101000a81548173ffffffffffffffffffffffffffffffffffffffff021916908373ffffffffffffffffffffffffffffffffffffffff16021790555060a08201518160050190805190602001906126b0929190612d11565b5060c0820151816006015560e08201518160070160006101000a81548160ff0219169083600381111561270c577f4e487b7100000000000000000000000000000000000000000000000000000000600052602160045260246000fd5b02179055509050508060400151816080015182606001518360c001519450945094509450509193509193565b600160009054906101000a900473ffffffffffffffffffffffffffffffffffffffff1681565b60008060009054906101000a900473ffffffffffffffffffffffffffffffffffffffff1673ffffffffffffffffffffffffffffffffffffffff163373ffffffffffffffffffffffffffffffffffffffff1614806128085750600160009054906101000a900473ffffffffffffffffffffffffffffffffffffffff1673ffffffffffffffffffffffffffffffffffffffff163373ffffffffffffffffffffffffffffffffffffffff16145b612847576040517f08c379a000000000000000000000000000000000000000000000000000000000815260040161283e90613336565b60405180910390fd5b6000600483604051612859919061313d565b908152602001604051809103902054905080915050919050565b606060001515600160159054906101000a900460ff161515146128cb576040517f08c379a00000000000000000000000000000000000000000000000000000000081526004016128c2906132f6565b60405180910390fd5b81600160006101000a81548173ffffffffffffffffffffffffffffffffffffffff021916908373ffffffffffffffffffffffffffffffffffffffff16021790555060018060156101000a81548160ff0219169083151502179055506040518060600160405280602d81526020016136ae602d91399050919050565b60608160ff166003811115612984577f4e487b7100000000000000000000000000000000000000000000000000000000600052602160045260246000fd5b60038111156129bc577f4e487b7100000000000000000000000000000000000000000000000000000000600052602160045260246000fd5b600060038111156129f6577f4e487b7100000000000000000000000000000000000000000000000000000000600052602160045260246000fd5b1415612a39576040518060400160405280600781526020017f4f726465726564000000000000000000000000000000000000000000000000008152509050612d0c565b8160ff166003811115612a75577f4e487b7100000000000000000000000000000000000000000000000000000000600052602160045260246000fd5b6003811115612aad577f4e487b7100000000000000000000000000000000000000000000000000000000600052602160045260246000fd5b60016003811115612ae7577f4e487b7100000000000000000000000000000000000000000000000000000000600052602160045260246000fd5b1415612b2a576040518060400160405280600981526020017f496e5472616e73697400000000000000000000000000000000000000000000008152509050612d0c565b8160ff166003811115612b66577f4e487b7100000000000000000000000000000000000000000000000000000000600052602160045260246000fd5b6003811115612b9e577f4e487b7100000000000000000000000000000000000000000000000000000000600052602160045260246000fd5b60026003811115612bd8577f4e487b7100000000000000000000000000000000000000000000000000000000600052602160045260246000fd5b1415612c1b576040518060400160405280600981526020017f44656c69766572656400000000000000000000000000000000000000000000008152509050612d0c565b8160ff166003811115612c57577f4e487b7100000000000000000000000000000000000000000000000000000000600052602160045260246000fd5b6003811115612c8f577f4e487b7100000000000000000000000000000000000000000000000000000000600052602160045260246000fd5b600380811115612cc8577f4e487b7100000000000000000000000000000000000000000000000000000000600052602160045260246000fd5b1415612d0b576040518060400160405280600981526020017f436f6d706c6574656400000000000000000000000000000000000000000000008152509050612d0c565b5b919050565b828054612d1d9061346c565b90600052602060002090601f016020900481019282612d3f5760008555612d86565b82601f10612d5857805160ff1916838001178555612d86565b82800160010185558215612d86579182015b82811115612d85578251825591602001919060010190612d6a565b5b509050612d939190612d97565b5090565b5b80821115612db0576000816000905550600101612d98565b5090565b6000612dc7612dc284613396565b613371565b905082815260208101848484011115612ddf57600080fd5b612dea84828561342a565b509392505050565b600081359050612e0181613654565b92915050565b600082601f830112612e1857600080fd5b8135612e28848260208601612db4565b91505092915050565b600081359050612e408161366b565b92915050565b600060208284031215612e5857600080fd5b6000612e6684828501612df2565b91505092915050565b60008060408385031215612e8257600080fd5b6000612e9085828601612df2565b925050602083013567ffffffffffffffff811115612ead57600080fd5b612eb985828601612e07565b9150509250929050565b600060208284031215612ed557600080fd5b600082013567ffffffffffffffff811115612eef57600080fd5b612efb84828501612e07565b91505092915050565b60008060008060008060c08789031215612f1d57600080fd5b600087013567ffffffffffffffff811115612f3757600080fd5b612f4389828a01612e07565b965050602087013567ffffffffffffffff811115612f6057600080fd5b612f6c89828a01612e07565b9550506040612f7d89828a01612df2565b9450506060612f8e89828a01612df2565b935050608087013567ffffffffffffffff811115612fab57600080fd5b612fb789828a01612e07565b92505060a0612fc889828a01612e31565b9150509295509295509295565b60008060408385031215612fe857600080fd5b600083013567ffffffffffffffff81111561300257600080fd5b61300e85828601612e07565b925050602061301f85828601612e31565b9150509250929050565b613032816133ee565b82525050565b6000613043826133c7565b61304d81856133d2565b935061305d818560208601613439565b6130668161352d565b840191505092915050565b600061307c826133c7565b61308681856133e3565b9350613096818560208601613439565b80840191505092915050565b60006130af6019836133d2565b91506130ba8261353e565b602082019050919050565b60006130d26038836133d2565b91506130dd82613567565b604082019050919050565b60006130f56036836133d2565b9150613100826135b6565b604082019050919050565b60006131186021836133d2565b915061312382613605565b604082019050919050565b61313781613420565b82525050565b60006131498284613071565b915081905092915050565b60006020820190506131696000830184613029565b92915050565b60006080820190506131846000830187613029565b6131916020830186613029565b61319e6040830185613029565b6131ab606083018461312e565b95945050505050565b60006040820190506131c96000830185613029565b81810360208301526131db8184613038565b90509392505050565b600060208201905081810360008301526131fe8184613038565b905092915050565b600060c08201905081810360008301526132208189613038565b905061322f6020830188613029565b61323c6040830187613029565b818103606083015261324e8186613038565b905061325d608083018561312e565b81810360a083015261326f8184613038565b9050979650505050505050565b600060808201905081810360008301526132968187613038565b905081810360208301526132aa8186613038565b90506132b9604083018561312e565b81810360608301526132cb8184613038565b905095945050505050565b600060208201905081810360008301526132ef816130a2565b9050919050565b6000602082019050818103600083015261330f816130c5565b9050919050565b6000602082019050818103600083015261332f816130e8565b9050919050565b6000602082019050818103600083015261334f8161310b565b9050919050565b600060208201905061336b600083018461312e565b92915050565b600061337b61338c565b9050613387828261349e565b919050565b6000604051905090565b600067ffffffffffffffff8211156133b1576133b06134fe565b5b6133ba8261352d565b9050602081019050919050565b600081519050919050565b600082825260208201905092915050565b600081905092915050565b60006133f982613400565b9050919050565b600073ffffffffffffffffffffffffffffffffffffffff82169050919050565b6000819050919050565b82818337600083830152505050565b60005b8381101561345757808201518184015260208101905061343c565b83811115613466576000848401525b50505050565b6000600282049050600182168061348457607f821691505b60208210811415613498576134976134cf565b5b50919050565b6134a78261352d565b810181811067ffffffffffffffff821117156134c6576134c56134fe565b5b80604052505050565b7f4e487b7100000000000000000000000000000000000000000000000000000000600052602260045260246000fd5b7f4e487b7100000000000000000000000000000000000000000000000000000000600052604160045260246000fd5b6000601f19601f8301169050919050565b7f4f7264657220697320616c72656164792061737369676e656400000000000000600082015250565b7f466f6f6469657a204f7264657273202d20526567697374657220616c7265616460008201527f79207365742e2043616e6e6f74206265204368616e6765640000000000000000602082015250565b7f466f6f6469657a204f7264657273202d20506172656e7420616c72656164792060008201527f7365742e2043616e6e6f74206265204368616e67656400000000000000000000602082015250565b7f4f6e6c79204f776e65722063616e2063616c6c20746869732066756e6374696f60008201527f6e00000000000000000000000000000000000000000000000000000000000000602082015250565b61365d816133ee565b811461366857600080fd5b50565b61367481613420565b811461367f57600080fd5b5056fe466f6f6469657a204f726465727320706172656e7420636f6e74726163742061646472657373207365742e466f6f6469657a204f726465727320726567697374657220636f6e74726163742061646472657373207365742ea2646970667358221220e03065db0ce62d34a8d3ab935bffdad285f901c8c8226e387780b31a2e3e738b64736f6c63430008010033",
  "immutableReferences": {},
  "source": "pragma solidity 0.8.1;\n// pragma solidity 0.7.6;\n// \"SPDX-License-Identifier: UNLICENSED\"\n\ncontract FoodiezOrders {\n    \n    /************************ Unique Address to be used for Customer, Restaurant and Delivery Driver******************/\n    address public parentContractAddress;\n    address public registerContractAddress;\n    bool isParentContractSet = false;\n    bool isRegisterContract = false;\n    \n    function setParentContract(address _address) public returns(string memory) {\n        require(isParentContractSet == false,\"Foodiez Orders - Parent already set. Cannot be Changed\");\n        parentContractAddress = _address;\n        isParentContractSet = true;\n        \n        return(\"Foodiez Orders parent contract address set.\");\n    }\n    \n    function setRegisterContract(address _address) public returns(string memory) {\n        require(isRegisterContract == false,\"Foodiez Orders - Register already set. Cannot be Changed\");\n        registerContractAddress = _address;\n        isRegisterContract = true;\n        \n        return(\"Foodiez Orders register contract address set.\");\n    }\n    \n    modifier OnlyParent(){\n        require(msg.sender == parentContractAddress || msg.sender == registerContractAddress, \"Only Owner can call this function\");\n        _; // this underscore is requierd otherwise compiler will break;\n    }\n     \n     //Account creation all users will have default 0 tokens. \n     // Customer will earn token by making puchases\n     //Drivers will earn tokens in the form of tips ( from customers ) or by refering new drivers\n     \n     enum OrderStatus {Ordered, InTransit, Delivered, Completed}\n     \n     struct Order{\n         string orderId;\n         string restaurantId;\n         address restaurantAddress;\n         address userAddress;\n         address driverAddress;\n         string items;\n         uint total;\n         OrderStatus status;\n     }\n     \n     mapping(string => Order) UserOrders; // unique user order id to order.\n     mapping(address => Order) DriverOrderAssignment; // order assigned to driver. \n     mapping(string => uint256) OrderIdTokenPay;\n     \n     uint256 orderTotalCount = 0;\n     \n     uint NetworkServiceFee = 2;\n     uint DriverFlatFee = 2;\n     \n     \n     /*******Events *************/\n     event OrderAssignedToDriver(uint value, address sender);\n     event OrderDeliveredToCustomer(bytes data, address sender);\n     \n    /**************************User Food Orders***************************************************************************************************************************************/\n    function createFoodOrderEntry( string memory _uniqueOrderId, string memory _rId, address _restaurantAddress, address _userAddress, string memory _itemName, uint _total) \n    public payable OnlyParent returns(string memory, string memory, uint256, string memory) {\n        \n        Order memory order = Order(_uniqueOrderId, _rId, _restaurantAddress, _userAddress,address(0x0), _itemName, _total, OrderStatus(0));\n        UserOrders[_uniqueOrderId] = order;\n        \n        return( _uniqueOrderId, _itemName, _total, getOrderStatusFriendly(uint8(order.status)) );\n        \n    }\n    \n    function getUserOrderStatus(string memory userOrderId) public view OnlyParent returns(string memory, address, address, string memory, uint256, string memory){\n        Order memory order = UserOrders[userOrderId];\n        \n        return (order.orderId, order.userAddress, order.driverAddress, order.items, order.total, getOrderStatusFriendly(uint8(order.status)));\n    }\n     \n     \n     /**************************Food Orders assignment and delivery*******************************************************************/\n    function assignOrderToDriver(address _deliveryAddress, string memory userOrderId) public OnlyParent returns (address, string memory){\n         //check user order to see if driverAddress is set already\n         Order memory order = UserOrders[userOrderId];\n         require(order.driverAddress == address(0x0), \"Order is already assigned\");\n         \n         order.driverAddress = _deliveryAddress;\n         order.status = OrderStatus(1);\n         UserOrders[userOrderId] = order;\n         DriverOrderAssignment[_deliveryAddress] = order;\n         // stake token so that driver cant cheat the customer\n         \n         return(order.driverAddress, getOrderStatusFriendly(uint8(order.status)) );\n         \n    }\n     \n    function driverDelieveredOrder(address _deliveryAddress, string memory userOrderId) public OnlyParent returns (address, string memory){\n\n         Order memory order = UserOrders[userOrderId];\n         order.status = OrderStatus(2);\n         UserOrders[userOrderId] = order;\n         \n         DriverOrderAssignment[_deliveryAddress] = order;\n         \n         return(order.driverAddress, getOrderStatusFriendly(uint8(order.status)) );\n    }\n     \n    function orderDeliveryConfirmed(string memory userOrderId ) public  OnlyParent returns (address, address, address, uint ){\n        Order memory order = UserOrders[userOrderId];\n        order.status = OrderStatus(3);\n        UserOrders[userOrderId] = order;\n        \n    \n    return (payable(order.restaurantAddress), payable(order.driverAddress), payable(order.userAddress), order.total );\n    \n    //  orderPayments(order.total , payable(order.restaurantAddress), payable(order.driverAddress), msg.value, order.restaurantId, _restaurantRating);\n    }\n     \n    /*************************************Order Helpers ************************************************************************/\n    function getOrderStatusFriendly(uint8 _orderStatus) internal pure returns (string memory status) {\n        \n        if(OrderStatus.Ordered == OrderStatus(_orderStatus) ) return \"Ordered\";\n        if(OrderStatus.InTransit == OrderStatus(_orderStatus) ) return \"InTransit\";\n        if(OrderStatus.Delivered == OrderStatus(_orderStatus) ) return \"Delivered\";\n        if(OrderStatus.Completed == OrderStatus(_orderStatus) ) return \"Completed\";\n    }\n    \n    function setTokenPayOrder(string memory _uniqueOrderId, uint256 tokenPay) public OnlyParent {\n        OrderIdTokenPay[_uniqueOrderId] = tokenPay;\n    }\n    \n    function getTokenPayOrder(string memory _uniqueOrderId) public view OnlyParent returns(uint256){\n        uint256 tokenPay = OrderIdTokenPay[_uniqueOrderId];\n        return tokenPay;\n    }\n    \n}",
  "sourcePath": "/home/dinesh/Blockchain-Projects/EthereumSolidityProject/contracts/orders.sol",
  "compiler": {
    "name": "solc",
    "version": "0.8.1+commit.df193b15.Emscripten.clang"
  },
  "schemaVersion": "3.3.3",
  "updatedAt": "2021-03-26T00:48:46.899Z",
  "devdoc": {
    "kind": "dev",
    "methods": {},
    "version": 1
  },
  "userdoc": {
    "kind": "user",
    "methods": {},
    "version": 1
  }
}