{
  "contractName": "Foodiez",
  "abi": [
    {
      "inputs": [
        {
          "internalType": "contract FoodiezRegistrationInterface",
          "name": "_registerAddress",
          "type": "address"
        },
        {
          "internalType": "contract FoodiezHelpersInterface",
          "name": "_helperAddress",
          "type": "address"
        },
        {
          "internalType": "contract FoodiezOrdersInterface",
          "name": "_orderAddress",
          "type": "address"
        },
        {
          "internalType": "address",
          "name": "_token",
          "type": "address"
        }
      ],
      "stateMutability": "nonpayable",
      "type": "constructor"
    },
    {
      "anonymous": false,
      "inputs": [
        {
          "indexed": false,
          "internalType": "address",
          "name": "account",
          "type": "address"
        },
        {
          "indexed": false,
          "internalType": "uint256",
          "name": "allowance",
          "type": "uint256"
        }
      ],
      "name": "AccountApproved",
      "type": "event"
    },
    {
      "anonymous": false,
      "inputs": [
        {
          "indexed": false,
          "internalType": "address",
          "name": "account",
          "type": "address"
        },
        {
          "indexed": false,
          "internalType": "uint256",
          "name": "amount",
          "type": "uint256"
        }
      ],
      "name": "AmountTransferedToAccount",
      "type": "event"
    },
    {
      "anonymous": false,
      "inputs": [
        {
          "indexed": false,
          "internalType": "string",
          "name": "restaurantId",
          "type": "string"
        },
        {
          "indexed": false,
          "internalType": "string",
          "name": "itemId",
          "type": "string"
        },
        {
          "indexed": false,
          "internalType": "string",
          "name": "itemName",
          "type": "string"
        }
      ],
      "name": "ItemAddedEvent",
      "type": "event"
    },
    {
      "anonymous": false,
      "inputs": [
        {
          "indexed": false,
          "internalType": "string",
          "name": "orderId",
          "type": "string"
        },
        {
          "indexed": false,
          "internalType": "address",
          "name": "driverAddress",
          "type": "address"
        },
        {
          "indexed": false,
          "internalType": "string",
          "name": "orderStatus",
          "type": "string"
        }
      ],
      "name": "OrderAssignedToDriver",
      "type": "event"
    },
    {
      "anonymous": false,
      "inputs": [
        {
          "indexed": false,
          "internalType": "string",
          "name": "orderId",
          "type": "string"
        },
        {
          "indexed": false,
          "internalType": "address",
          "name": "driverAddress",
          "type": "address"
        },
        {
          "indexed": false,
          "internalType": "string",
          "name": "orderStatus",
          "type": "string"
        }
      ],
      "name": "OrderDeliveredToUser",
      "type": "event"
    },
    {
      "anonymous": false,
      "inputs": [
        {
          "indexed": false,
          "internalType": "string",
          "name": "orderId",
          "type": "string"
        },
        {
          "indexed": false,
          "internalType": "uint256",
          "name": "total",
          "type": "uint256"
        },
        {
          "indexed": false,
          "internalType": "string",
          "name": "orderStatus",
          "type": "string"
        }
      ],
      "name": "OrderPlaced",
      "type": "event"
    },
    {
      "anonymous": false,
      "inputs": [
        {
          "indexed": false,
          "internalType": "string",
          "name": "restaurantName",
          "type": "string"
        },
        {
          "indexed": false,
          "internalType": "address",
          "name": "rAddress",
          "type": "address"
        },
        {
          "indexed": false,
          "internalType": "bool",
          "name": "isRegistered",
          "type": "bool"
        }
      ],
      "name": "RestaurantRegistered",
      "type": "event"
    },
    {
      "anonymous": false,
      "inputs": [
        {
          "indexed": false,
          "internalType": "address",
          "name": "sender",
          "type": "address"
        },
        {
          "indexed": false,
          "internalType": "address",
          "name": "recipient",
          "type": "address"
        },
        {
          "indexed": false,
          "internalType": "uint256",
          "name": "amount",
          "type": "uint256"
        }
      ],
      "name": "TransferedSenderToRecipient",
      "type": "event"
    },
    {
      "anonymous": false,
      "inputs": [
        {
          "indexed": false,
          "internalType": "string",
          "name": "userName",
          "type": "string"
        },
        {
          "indexed": false,
          "internalType": "bool",
          "name": "isRegistered",
          "type": "bool"
        }
      ],
      "name": "UserRegisteredEvent",
      "type": "event"
    },
    {
      "anonymous": false,
      "inputs": [
        {
          "indexed": false,
          "internalType": "uint256",
          "name": "restaurantTotal",
          "type": "uint256"
        },
        {
          "indexed": false,
          "internalType": "uint256",
          "name": "deliveryTotal",
          "type": "uint256"
        }
      ],
      "name": "orderDeliveryConfirmedEvent",
      "type": "event"
    },
    {
      "inputs": [],
      "name": "_foodiezHelpers",
      "outputs": [
        {
          "internalType": "contract FoodiezHelpersInterface",
          "name": "",
          "type": "address"
        }
      ],
      "stateMutability": "view",
      "type": "function"
    },
    {
      "inputs": [],
      "name": "_foodiezOrders",
      "outputs": [
        {
          "internalType": "contract FoodiezOrdersInterface",
          "name": "",
          "type": "address"
        }
      ],
      "stateMutability": "view",
      "type": "function"
    },
    {
      "inputs": [],
      "name": "_foodiezRegistration",
      "outputs": [
        {
          "internalType": "contract FoodiezRegistrationInterface",
          "name": "",
          "type": "address"
        }
      ],
      "stateMutability": "view",
      "type": "function"
    },
    {
      "inputs": [
        {
          "internalType": "address",
          "name": "_address",
          "type": "address"
        },
        {
          "internalType": "uint256",
          "name": "amount",
          "type": "uint256"
        }
      ],
      "name": "tokenApproveAccount",
      "outputs": [
        {
          "internalType": "bool",
          "name": "",
          "type": "bool"
        }
      ],
      "stateMutability": "payable",
      "type": "function"
    },
    {
      "inputs": [
        {
          "internalType": "address",
          "name": "own",
          "type": "address"
        },
        {
          "internalType": "address",
          "name": "spender",
          "type": "address"
        }
      ],
      "name": "allowance",
      "outputs": [
        {
          "internalType": "uint256",
          "name": "",
          "type": "uint256"
        }
      ],
      "stateMutability": "view",
      "type": "function"
    },
    {
      "inputs": [
        {
          "internalType": "address",
          "name": "_address",
          "type": "address"
        }
      ],
      "name": "getTokenBalanceOf",
      "outputs": [
        {
          "internalType": "uint256",
          "name": "",
          "type": "uint256"
        }
      ],
      "stateMutability": "view",
      "type": "function"
    },
    {
      "inputs": [
        {
          "internalType": "address",
          "name": "recipient",
          "type": "address"
        },
        {
          "internalType": "uint256",
          "name": "amount",
          "type": "uint256"
        }
      ],
      "name": "tokenTransfer",
      "outputs": [],
      "stateMutability": "payable",
      "type": "function"
    },
    {
      "inputs": [
        {
          "internalType": "address",
          "name": "sender",
          "type": "address"
        },
        {
          "internalType": "address",
          "name": "recipient",
          "type": "address"
        },
        {
          "internalType": "uint256",
          "name": "amount",
          "type": "uint256"
        }
      ],
      "name": "tokenTransferFrom",
      "outputs": [],
      "stateMutability": "payable",
      "type": "function"
    },
    {
      "inputs": [
        {
          "internalType": "string",
          "name": "name",
          "type": "string"
        },
        {
          "internalType": "uint256",
          "name": "uType",
          "type": "uint256"
        },
        {
          "internalType": "uint256",
          "name": "amountStake",
          "type": "uint256"
        }
      ],
      "name": "userRegister",
      "outputs": [],
      "stateMutability": "payable",
      "type": "function"
    },
    {
      "inputs": [
        {
          "internalType": "address",
          "name": "_address",
          "type": "address"
        }
      ],
      "name": "getUserInfo",
      "outputs": [
        {
          "internalType": "string",
          "name": "",
          "type": "string"
        },
        {
          "internalType": "address",
          "name": "",
          "type": "address"
        },
        {
          "internalType": "string",
          "name": "",
          "type": "string"
        },
        {
          "internalType": "uint256",
          "name": "",
          "type": "uint256"
        }
      ],
      "stateMutability": "view",
      "type": "function"
    },
    {
      "inputs": [
        {
          "internalType": "string",
          "name": "_name",
          "type": "string"
        },
        {
          "internalType": "string",
          "name": "_rId",
          "type": "string"
        },
        {
          "internalType": "uint256",
          "name": "amountStake",
          "type": "uint256"
        }
      ],
      "name": "registerRestaurant",
      "outputs": [],
      "stateMutability": "payable",
      "type": "function"
    },
    {
      "inputs": [
        {
          "internalType": "string",
          "name": "_itemName",
          "type": "string"
        },
        {
          "internalType": "uint256",
          "name": "_type",
          "type": "uint256"
        },
        {
          "internalType": "uint256",
          "name": "_price",
          "type": "uint256"
        }
      ],
      "name": "addMenuItems",
      "outputs": [],
      "stateMutability": "nonpayable",
      "type": "function"
    },
    {
      "inputs": [
        {
          "internalType": "address",
          "name": "_restaurantAddress",
          "type": "address"
        },
        {
          "internalType": "uint256",
          "name": "_itemNumber",
          "type": "uint256"
        }
      ],
      "name": "getRestaurantMenu",
      "outputs": [
        {
          "internalType": "string",
          "name": "",
          "type": "string"
        },
        {
          "internalType": "string",
          "name": "",
          "type": "string"
        },
        {
          "internalType": "uint256",
          "name": "",
          "type": "uint256"
        }
      ],
      "stateMutability": "view",
      "type": "function"
    },
    {
      "inputs": [
        {
          "internalType": "address",
          "name": "_restaurantAddress",
          "type": "address"
        }
      ],
      "name": "getrestaurantInfo",
      "outputs": [
        {
          "internalType": "string",
          "name": "",
          "type": "string"
        },
        {
          "internalType": "address",
          "name": "",
          "type": "address"
        },
        {
          "internalType": "uint256",
          "name": "",
          "type": "uint256"
        },
        {
          "internalType": "uint256",
          "name": "",
          "type": "uint256"
        }
      ],
      "stateMutability": "view",
      "type": "function"
    },
    {
      "inputs": [
        {
          "internalType": "address",
          "name": "_restaurantAddress",
          "type": "address"
        },
        {
          "internalType": "uint256",
          "name": "_itemNum",
          "type": "uint256"
        },
        {
          "internalType": "uint256",
          "name": "tokenPay",
          "type": "uint256"
        }
      ],
      "name": "placeOrder",
      "outputs": [
        {
          "internalType": "string",
          "name": "",
          "type": "string"
        },
        {
          "internalType": "string",
          "name": "",
          "type": "string"
        },
        {
          "internalType": "uint256",
          "name": "",
          "type": "uint256"
        },
        {
          "internalType": "string",
          "name": "",
          "type": "string"
        }
      ],
      "stateMutability": "payable",
      "type": "function"
    },
    {
      "inputs": [
        {
          "internalType": "string",
          "name": "userOrderId",
          "type": "string"
        }
      ],
      "name": "getOrderStatus",
      "outputs": [
        {
          "internalType": "string",
          "name": "",
          "type": "string"
        },
        {
          "internalType": "address",
          "name": "",
          "type": "address"
        },
        {
          "internalType": "address",
          "name": "",
          "type": "address"
        },
        {
          "internalType": "string",
          "name": "",
          "type": "string"
        },
        {
          "internalType": "uint256",
          "name": "",
          "type": "uint256"
        },
        {
          "internalType": "string",
          "name": "",
          "type": "string"
        }
      ],
      "stateMutability": "view",
      "type": "function"
    },
    {
      "inputs": [
        {
          "internalType": "string",
          "name": "userOrderId",
          "type": "string"
        }
      ],
      "name": "assignToDriver",
      "outputs": [],
      "stateMutability": "nonpayable",
      "type": "function"
    },
    {
      "inputs": [
        {
          "internalType": "string",
          "name": "userOrderId",
          "type": "string"
        }
      ],
      "name": "driverDelieveredOrder",
      "outputs": [],
      "stateMutability": "nonpayable",
      "type": "function"
    },
    {
      "inputs": [
        {
          "internalType": "string",
          "name": "userOrderId",
          "type": "string"
        },
        {
          "internalType": "uint256",
          "name": "_restaurantRating",
          "type": "uint256"
        },
        {
          "internalType": "uint256",
          "name": "_deliveryRating",
          "type": "uint256"
        },
        {
          "internalType": "uint256",
          "name": "tokenTip",
          "type": "uint256"
        }
      ],
      "name": "orderDeliveryConfirmed",
      "outputs": [],
      "stateMutability": "payable",
      "type": "function"
    }
  ],
  "bytecode": "0x6080604052600260045560026005553480156200001b57600080fd5b5060405162004dce38038062004dce833981810160405260808110156200004157600080fd5b8101908080519060200190929190805190602001909291908051906020019092919080519060200190929190505050336000806101000a81548173ffffffffffffffffffffffffffffffffffffffff021916908373ffffffffffffffffffffffffffffffffffffffff16021790555082600260006101000a81548173ffffffffffffffffffffffffffffffffffffffff021916908373ffffffffffffffffffffffffffffffffffffffff16021790555083600160006101000a81548173ffffffffffffffffffffffffffffffffffffffff021916908373ffffffffffffffffffffffffffffffffffffffff16021790555081600360006101000a81548173ffffffffffffffffffffffffffffffffffffffff021916908373ffffffffffffffffffffffffffffffffffffffff160217905550600160009054906101000a900473ffffffffffffffffffffffffffffffffffffffff1673ffffffffffffffffffffffffffffffffffffffff1663765ccb6b306040518263ffffffff1660e01b8152600401808273ffffffffffffffffffffffffffffffffffffffff168152602001915050600060405180830381600087803b158015620001ff57600080fd5b505af115801562000214573d6000803e3d6000fd5b505050506040513d6000823e3d601f19601f8201168201806040525060208110156200023f57600080fd5b81019080805160405193929190846401000000008211156200026057600080fd5b838201915060208201858111156200027757600080fd5b82518660018202830111640100000000821117156200029557600080fd5b8083526020830192505050908051906020019080838360005b83811015620002cb578082015181840152602081019050620002ae565b50505050905090810190601f168015620002f95780820380516001836020036101000a031916815260200191505b5060405250505050600360009054906101000a900473ffffffffffffffffffffffffffffffffffffffff1673ffffffffffffffffffffffffffffffffffffffff1663765ccb6b306040518263ffffffff1660e01b8152600401808273ffffffffffffffffffffffffffffffffffffffff168152602001915050600060405180830381600087803b1580156200038d57600080fd5b505af1158015620003a2573d6000803e3d6000fd5b505050506040513d6000823e3d601f19601f820116820180604052506020811015620003cd57600080fd5b8101908080516040519392919084640100000000821115620003ee57600080fd5b838201915060208201858111156200040557600080fd5b82518660018202830111640100000000821117156200042357600080fd5b8083526020830192505050908051906020019080838360005b83811015620004595780820151818401526020810190506200043c565b50505050905090810190601f168015620004875780820380516001836020036101000a031916815260200191505b506040525050505033600760006101000a81548173ffffffffffffffffffffffffffffffffffffffff021916908373ffffffffffffffffffffffffffffffffffffffff16021790555080600660006101000a81548173ffffffffffffffffffffffffffffffffffffffff021916908373ffffffffffffffffffffffffffffffffffffffff160217905550505050506148a980620005256000396000f3fe6080604052600436106101145760003560e01c806383894548116100a0578063dd62ed3e11610064578063dd62ed3e14610e3c578063e1eb4abc14610ec1578063e523d13214610f02578063e77c719e14610fca578063e79034a81461102e57610114565b806383894548146108be578063961974ba14610923578063aedfb5d314610991578063c6f4dc3714610beb578063d8c01ed114610d4757610114565b8063623bb431116100e7578063623bb431146103b15780636386c1c71461048a57806366a257c4146105e457806368cdafe6146106c057806377e16afe1461070e57610114565b80631de3b27d146101195780632d9ee1d1146101e8578063331723eb14610229578063617aada914610370575b600080fd5b6101e66004803603606081101561012f57600080fd5b810190808035906020019064010000000081111561014c57600080fd5b82018360208201111561015e57600080fd5b8035906020019184600183028401116401000000008311171561018057600080fd5b91908080601f016020809104026020016040519081016040528093929190818152602001838380828437600081840152601f19601f82011690508083019250505050505050919291929080359060200190929190803590602001909291905050506110f6565b005b3480156101f457600080fd5b506101fd6113f9565b604051808273ffffffffffffffffffffffffffffffffffffffff16815260200191505060405180910390f35b34801561023557600080fd5b506102826004803603604081101561024c57600080fd5b81019080803573ffffffffffffffffffffffffffffffffffffffff1690602001909291908035906020019092919050505061141f565b604051808060200180602001848152602001838103835286818151815260200191508051906020019080838360005b838110156102cc5780820151818401526020810190506102b1565b50505050905090810190601f1680156102f95780820380516001836020036101000a031916815260200191505b50838103825285818151815260200191508051906020019080838360005b83811015610332578082015181840152602081019050610317565b50505050905090810190601f16801561035f5780820380516001836020036101000a031916815260200191505b509550505050505060405180910390f35b34801561037c57600080fd5b5061038561167f565b604051808273ffffffffffffffffffffffffffffffffffffffff16815260200191505060405180910390f35b610488600480360360808110156103c757600080fd5b81019080803590602001906401000000008111156103e457600080fd5b8201836020820111156103f657600080fd5b8035906020019184600183028401116401000000008311171561041857600080fd5b91908080601f016020809104026020016040519081016040528093929190818152602001838380828437600081840152601f19601f8201169050808301925050505050505091929192908035906020019092919080359060200190929190803590602001909291905050506116a5565b005b34801561049657600080fd5b506104d9600480360360208110156104ad57600080fd5b81019080803573ffffffffffffffffffffffffffffffffffffffff16906020019092919050505061204b565b60405180806020018573ffffffffffffffffffffffffffffffffffffffff16815260200180602001848152602001838103835287818151815260200191508051906020019080838360005b8381101561053f578082015181840152602081019050610524565b50505050905090810190601f16801561056c5780820380516001836020036101000a031916815260200191505b50838103825285818151815260200191508051906020019080838360005b838110156105a557808201518184015260208101905061058a565b50505050905090810190601f1680156105d25780820380516001836020036101000a031916815260200191505b50965050505050505060405180910390f35b3480156105f057600080fd5b506106be6004803603606081101561060757600080fd5b810190808035906020019064010000000081111561062457600080fd5b82018360208201111561063657600080fd5b8035906020019184600183028401116401000000008311171561065857600080fd5b91908080601f016020809104026020016040519081016040528093929190818152602001838380828437600081840152601f19601f82011690508083019250505050505050919291929080359060200190929190803590602001909291905050506122b2565b005b61070c600480360360408110156106d657600080fd5b81019080803573ffffffffffffffffffffffffffffffffffffffff169060200190929190803590602001909291905050506127aa565b005b6107646004803603606081101561072457600080fd5b81019080803573ffffffffffffffffffffffffffffffffffffffff16906020019092919080359060200190929190803590602001909291905050506128dd565b60405180806020018060200185815260200180602001848103845288818151815260200191508051906020019080838360005b838110156107b2578082015181840152602081019050610797565b50505050905090810190601f1680156107df5780820380516001836020036101000a031916815260200191505b50848103835287818151815260200191508051906020019080838360005b838110156108185780820151818401526020810190506107fd565b50505050905090810190601f1680156108455780820380516001836020036101000a031916815260200191505b50848103825285818151815260200191508051906020019080838360005b8381101561087e578082015181840152602081019050610863565b50505050905090810190601f1680156108ab5780820380516001836020036101000a031916815260200191505b5097505050505050505060405180910390f35b3480156108ca57600080fd5b5061090d600480360360208110156108e157600080fd5b81019080803573ffffffffffffffffffffffffffffffffffffffff169060200190929190505050613210565b6040518082815260200191505060405180910390f35b61098f6004803603606081101561093957600080fd5b81019080803573ffffffffffffffffffffffffffffffffffffffff169060200190929190803573ffffffffffffffffffffffffffffffffffffffff169060200190929190803590602001909291905050506132dd565b005b34801561099d57600080fd5b50610a57600480360360208110156109b457600080fd5b81019080803590602001906401000000008111156109d157600080fd5b8201836020820111156109e357600080fd5b80359060200191846001830284011164010000000083111715610a0557600080fd5b91908080601f016020809104026020016040519081016040528093929190818152602001838380828437600081840152601f19601f82011690508083019250505050505050919291929050505061344d565b60405180806020018773ffffffffffffffffffffffffffffffffffffffff1681526020018673ffffffffffffffffffffffffffffffffffffffff168152602001806020018581526020018060200184810384528a818151815260200191508051906020019080838360005b83811015610add578082015181840152602081019050610ac2565b50505050905090810190601f168015610b0a5780820380516001836020036101000a031916815260200191505b50848103835287818151815260200191508051906020019080838360005b83811015610b43578082015181840152602081019050610b28565b50505050905090810190601f168015610b705780820380516001836020036101000a031916815260200191505b50848103825285818151815260200191508051906020019080838360005b83811015610ba9578082015181840152602081019050610b8e565b50505050905090810190601f168015610bd65780820380516001836020036101000a031916815260200191505b50995050505050505050505060405180910390f35b610d4560048036036060811015610c0157600080fd5b8101908080359060200190640100000000811115610c1e57600080fd5b820183602082011115610c3057600080fd5b80359060200191846001830284011164010000000083111715610c5257600080fd5b91908080601f016020809104026020016040519081016040528093929190818152602001838380828437600081840152601f19601f82011690508083019250505050505050919291929080359060200190640100000000811115610cb557600080fd5b820183602082011115610cc757600080fd5b80359060200191846001830284011164010000000083111715610ce957600080fd5b91908080601f016020809104026020016040519081016040528093929190818152602001838380828437600081840152601f19601f820116905080830192505050505050509192919290803590602001909291905050506137ca565b005b348015610d5357600080fd5b50610d9660048036036020811015610d6a57600080fd5b81019080803573ffffffffffffffffffffffffffffffffffffffff169060200190929190505050613abf565b60405180806020018573ffffffffffffffffffffffffffffffffffffffff168152602001848152602001838152602001828103825286818151815260200191508051906020019080838360005b83811015610dfe578082015181840152602081019050610de3565b50505050905090810190601f168015610e2b5780820380516001836020036101000a031916815260200191505b509550505050505060405180910390f35b348015610e4857600080fd5b50610eab60048036036040811015610e5f57600080fd5b81019080803573ffffffffffffffffffffffffffffffffffffffff169060200190929190803573ffffffffffffffffffffffffffffffffffffffff169060200190929190505050613c78565b6040518082815260200191505060405180910390f35b348015610ecd57600080fd5b50610ed6613d64565b604051808273ffffffffffffffffffffffffffffffffffffffff16815260200191505060405180910390f35b348015610f0e57600080fd5b50610fc860048036036020811015610f2557600080fd5b8101908080359060200190640100000000811115610f4257600080fd5b820183602082011115610f5457600080fd5b80359060200191846001830284011164010000000083111715610f7657600080fd5b91908080601f016020809104026020016040519081016040528093929190818152602001838380828437600081840152601f19601f820116905080830192505050505050509192919290505050613d8a565b005b61101660048036036040811015610fe057600080fd5b81019080803573ffffffffffffffffffffffffffffffffffffffff169060200190929190803590602001909291905050506141d8565b60405180821515815260200191505060405180910390f35b34801561103a57600080fd5b506110f46004803603602081101561105157600080fd5b810190808035906020019064010000000081111561106e57600080fd5b82018360208201111561108057600080fd5b803590602001918460018302840111640100000000831117156110a257600080fd5b91908080601f016020809104026020016040519081016040528093929190818152602001838380828437600081840152601f19601f820116905080830192505050505050509192919290505050614311565b005b600182141561116157678ac7230489e80000341015611160576040517f08c379a000000000000000000000000000000000000000000000000000000000815260040180806020018281038252602a815260200180614811602a913960400191505060405180910390fd5b5b600081111561120e57803410156111e0576040517f08c379a000000000000000000000000000000000000000000000000000000000815260040180806020018281038252601b8152602001807f4574686572206d757374206d6174636820746f6b656e5374616b65000000000081525060200191505060405180910390fd5b61120d600760009054906101000a900473ffffffffffffffffffffffffffffffffffffffff1633836132dd565b5b6000600160009054906101000a900473ffffffffffffffffffffffffffffffffffffffff1673ffffffffffffffffffffffffffffffffffffffff1663aded60393386866040518463ffffffff1660e01b8152600401808473ffffffffffffffffffffffffffffffffffffffff16815260200180602001838152602001828103825284818151815260200191508051906020019080838360005b838110156112c25780820151818401526020810190506112a7565b50505050905090810190601f1680156112ef5780820380516001836020036101000a031916815260200191505b50945050505050602060405180830381600087803b15801561131057600080fd5b505af1158015611324573d6000803e3d6000fd5b505050506040513d602081101561133a57600080fd5b810190808051906020019092919050505090507f7f9ecb5a097a48ba760452c7dc9a9b85f16117e64abb0d9248a484a582bb2866848260405180806020018315158152602001828103825284818151815260200191508051906020019080838360005b838110156113b857808201518184015260208101905061139d565b50505050905090810190601f1680156113e55780820380516001836020036101000a031916815260200191505b50935050505060405180910390a150505050565b600360009054906101000a900473ffffffffffffffffffffffffffffffffffffffff1681565b6060806000600160009054906101000a900473ffffffffffffffffffffffffffffffffffffffff1673ffffffffffffffffffffffffffffffffffffffff1663331723eb86866040518363ffffffff1660e01b8152600401808373ffffffffffffffffffffffffffffffffffffffff1681526020018281526020019250505060006040518083038186803b1580156114b557600080fd5b505afa1580156114c9573d6000803e3d6000fd5b505050506040513d6000823e3d601f19601f8201168201806040525060608110156114f357600080fd5b810190808051604051939291908464010000000082111561151357600080fd5b8382019150602082018581111561152957600080fd5b825186600182028301116401000000008211171561154657600080fd5b8083526020830192505050908051906020019080838360005b8381101561157a57808201518184015260208101905061155f565b50505050905090810190601f1680156115a75780820380516001836020036101000a031916815260200191505b50604052602001805160405193929190846401000000008211156115ca57600080fd5b838201915060208201858111156115e057600080fd5b82518660018202830111640100000000821117156115fd57600080fd5b8083526020830192505050908051906020019080838360005b83811015611631578082015181840152602081019050611616565b50505050905090810190601f16801561165e5780820380516001836020036101000a031916815260200191505b50604052602001805190602001909291905050509250925092509250925092565b600260009054906101000a900473ffffffffffffffffffffffffffffffffffffffff1681565b60001515600160009054906101000a900473ffffffffffffffffffffffffffffffffffffffff1673ffffffffffffffffffffffffffffffffffffffff16635f9d8de6336040518263ffffffff1660e01b8152600401808273ffffffffffffffffffffffffffffffffffffffff16815260200191505060206040518083038186803b15801561173257600080fd5b505afa158015611746573d6000803e3d6000fd5b505050506040513d602081101561175c57600080fd5b81019080805190602001909291905050501515146117c5576040517f08c379a000000000000000000000000000000000000000000000000000000000815260040180806020018281038252603981526020018061483b6039913960400191505060405180910390fd5b600080600080600360009054906101000a900473ffffffffffffffffffffffffffffffffffffffff1673ffffffffffffffffffffffffffffffffffffffff1663b1a68ff2896040518263ffffffff1660e01b81526004018080602001828103825283818151815260200191508051906020019080838360005b8381101561185957808201518184015260208101905061183e565b50505050905090810190601f1680156118865780820380516001836020036101000a031916815260200191505b5092505050608060405180830381600087803b1580156118a557600080fd5b505af11580156118b9573d6000803e3d6000fd5b505050506040513d60808110156118cf57600080fd5b81019080805190602001909291908051906020019092919080519060200190929190805190602001909291905050509350935093509350600160009054906101000a900473ffffffffffffffffffffffffffffffffffffffff1673ffffffffffffffffffffffffffffffffffffffff16638ab7ad7785896040518363ffffffff1660e01b8152600401808373ffffffffffffffffffffffffffffffffffffffff16815260200182815260200192505050600060405180830381600087803b15801561199957600080fd5b505af11580156119ad573d6000803e3d6000fd5b50505050600160009054906101000a900473ffffffffffffffffffffffffffffffffffffffff1673ffffffffffffffffffffffffffffffffffffffff1663dfe7669d84886040518363ffffffff1660e01b8152600401808373ffffffffffffffffffffffffffffffffffffffff16815260200182815260200192505050600060405180830381600087803b158015611a4457600080fd5b505af1158015611a58573d6000803e3d6000fd5b5050505084611a6633613210565b1015611ada576040517f08c379a00000000000000000000000000000000000000000000000000000000081526004018080602001828103825260198152602001807f4e6f7420456e6f75676820746f6b656e7320746f207469702e0000000000000081525060200191505060405180910390fd5b6000600360009054906101000a900473ffffffffffffffffffffffffffffffffffffffff1673ffffffffffffffffffffffffffffffffffffffff1663d182dbcd8a6040518263ffffffff1660e01b81526004018080602001828103825283818151815260200191508051906020019080838360005b83811015611b6a578082015181840152602081019050611b4f565b50505050905090810190601f168015611b975780820380516001836020036101000a031916815260200191505b509250505060206040518083038186803b158015611bb457600080fd5b505afa158015611bc8573d6000803e3d6000fd5b505050506040513d6020811015611bde57600080fd5b8101908080519060200190929190505050905060008290506000600260009054906101000a900473ffffffffffffffffffffffffffffffffffffffff1673ffffffffffffffffffffffffffffffffffffffff166365609516856004546040518363ffffffff1660e01b8152600401808381526020018281526020019250505060206040518083038186803b158015611c7557600080fd5b505afa158015611c89573d6000803e3d6000fd5b505050506040513d6020811015611c9f57600080fd5b8101908080519060200190929190505050905080820391506000600260009054906101000a900473ffffffffffffffffffffffffffffffffffffffff1673ffffffffffffffffffffffffffffffffffffffff1663221c9cfe866005546040518363ffffffff1660e01b8152600401808381526020018281526020019250505060206040518083038186803b158015611d3657600080fd5b505afa158015611d4a573d6000803e3d6000fd5b505050506040513d6020811015611d6057600080fd5b81019080805190602001909291905050509050808303925034810190508673ffffffffffffffffffffffffffffffffffffffff166108fc829081150290604051600060405180830381858888f19350505050158015611dc3573d6000803e3d6000fd5b506000891115611ebb57600660009054906101000a900473ffffffffffffffffffffffffffffffffffffffff1673ffffffffffffffffffffffffffffffffffffffff166323b872dd87898c6040518463ffffffff1660e01b8152600401808473ffffffffffffffffffffffffffffffffffffffff1681526020018373ffffffffffffffffffffffffffffffffffffffff1681526020018281526020019350505050602060405180830381600087803b158015611e7e57600080fd5b505af1158015611e92573d6000803e3d6000fd5b505050506040513d6020811015611ea857600080fd5b8101908080519060200190929190505050505b6000841115611fb657600660009054906101000a900473ffffffffffffffffffffffffffffffffffffffff1673ffffffffffffffffffffffffffffffffffffffff166323b872dd878a876040518463ffffffff1660e01b8152600401808473ffffffffffffffffffffffffffffffffffffffff1681526020018373ffffffffffffffffffffffffffffffffffffffff1681526020018281526020019350505050602060405180830381600087803b158015611f7557600080fd5b505af1158015611f89573d6000803e3d6000fd5b505050506040513d6020811015611f9f57600080fd5b810190808051906020019092919050505050611ffe565b8773ffffffffffffffffffffffffffffffffffffffff166108fc849081150290604051600060405180830381858888f19350505050158015611ffc573d6000803e3d6000fd5b505b7f292961d24e58ea05a8b5bca78932ec898d03d1646fb56c0f81495770e5872d098382604051808381526020018281526020019250505060405180910390a1505050505050505050505050565b6060600060606000600160009054906101000a900473ffffffffffffffffffffffffffffffffffffffff1673ffffffffffffffffffffffffffffffffffffffff16636386c1c7866040518263ffffffff1660e01b8152600401808273ffffffffffffffffffffffffffffffffffffffff16815260200191505060006040518083038186803b1580156120dc57600080fd5b505afa1580156120f0573d6000803e3d6000fd5b505050506040513d6000823e3d601f19601f82011682018060405250608081101561211a57600080fd5b810190808051604051939291908464010000000082111561213a57600080fd5b8382019150602082018581111561215057600080fd5b825186600182028301116401000000008211171561216d57600080fd5b8083526020830192505050908051906020019080838360005b838110156121a1578082015181840152602081019050612186565b50505050905090810190601f1680156121ce5780820380516001836020036101000a031916815260200191505b5060405260200180519060200190929190805160405193929190846401000000008211156121fb57600080fd5b8382019150602082018581111561221157600080fd5b825186600182028301116401000000008211171561222e57600080fd5b8083526020830192505050908051906020019080838360005b83811015612262578082015181840152602081019050612247565b50505050905090810190601f16801561228f5780820380516001836020036101000a031916815260200191505b506040526020018051906020019092919050505093509350935093509193509193565b6000806000600160009054906101000a900473ffffffffffffffffffffffffffffffffffffffff1673ffffffffffffffffffffffffffffffffffffffff1663debd2ec4338888886040518563ffffffff1660e01b8152600401808573ffffffffffffffffffffffffffffffffffffffff16815260200180602001848152602001838152602001828103825285818151815260200191508051906020019080838360005b83811015612370578082015181840152602081019050612355565b50505050905090810190601f16801561239d5780820380516001836020036101000a031916815260200191505b5095505050505050600060405180830381600087803b1580156123bf57600080fd5b505af11580156123d3573d6000803e3d6000fd5b505050506040513d6000823e3d601f19601f8201168201806040525060608110156123fd57600080fd5b810190808051604051939291908464010000000082111561241d57600080fd5b8382019150602082018581111561243357600080fd5b825186600182028301116401000000008211171561245057600080fd5b8083526020830192505050908051906020019080838360005b83811015612484578082015181840152602081019050612469565b50505050905090810190601f1680156124b15780820380516001836020036101000a031916815260200191505b50604052602001805160405193929190846401000000008211156124d457600080fd5b838201915060208201858111156124ea57600080fd5b825186600182028301116401000000008211171561250757600080fd5b8083526020830192505050908051906020019080838360005b8381101561253b578082015181840152602081019050612520565b50505050905090810190601f1680156125685780820380516001836020036101000a031916815260200191505b506040526020018051604051939291908464010000000082111561258b57600080fd5b838201915060208201858111156125a157600080fd5b82518660018202830111640100000000821117156125be57600080fd5b8083526020830192505050908051906020019080838360005b838110156125f25780820151818401526020810190506125d7565b50505050905090810190601f16801561261f5780820380516001836020036101000a031916815260200191505b506040525050509250925092507fe591a00874db47ebb9c845e5d6550ba44f9b94231216d912524a6b01cf64c36283838360405180806020018060200180602001848103845287818151815260200191508051906020019080838360005b8381101561269857808201518184015260208101905061267d565b50505050905090810190601f1680156126c55780820380516001836020036101000a031916815260200191505b50848103835286818151815260200191508051906020019080838360005b838110156126fe5780820151818401526020810190506126e3565b50505050905090810190601f16801561272b5780820380516001836020036101000a031916815260200191505b50848103825285818151815260200191508051906020019080838360005b83811015612764578082015181840152602081019050612749565b50505050905090810190601f1680156127915780820380516001836020036101000a031916815260200191505b50965050505050505060405180910390a1505050505050565b6000600660009054906101000a900473ffffffffffffffffffffffffffffffffffffffff1673ffffffffffffffffffffffffffffffffffffffff1663a9059cbb84846040518363ffffffff1660e01b8152600401808373ffffffffffffffffffffffffffffffffffffffff16815260200182815260200192505050602060405180830381600087803b15801561283f57600080fd5b505af1158015612853573d6000803e3d6000fd5b505050506040513d602081101561286957600080fd5b8101908080519060200190929190505050905080156128d8577fbdbbb9910baae524fdb61a2b98c4264b1b7c7dd08291b66731a279ab74fa778f8383604051808373ffffffffffffffffffffffffffffffffffffffff1681526020018281526020019250505060405180910390a15b505050565b60608060006060600080600080600160009054906101000a900473ffffffffffffffffffffffffffffffffffffffff1673ffffffffffffffffffffffffffffffffffffffff1663f0645d7a338d8d6040518463ffffffff1660e01b8152600401808473ffffffffffffffffffffffffffffffffffffffff1681526020018373ffffffffffffffffffffffffffffffffffffffff168152602001828152602001935050505060006040518083038186803b15801561299957600080fd5b505afa1580156129ad573d6000803e3d6000fd5b505050506040513d6000823e3d601f19601f8201168201806040525060808110156129d757600080fd5b81019080805160405193929190846401000000008211156129f757600080fd5b83820191506020820185811115612a0d57600080fd5b8251866001820283011164010000000082111715612a2a57600080fd5b8083526020830192505050908051906020019080838360005b83811015612a5e578082015181840152602081019050612a43565b50505050905090810190601f168015612a8b5780820380516001836020036101000a031916815260200191505b506040526020018051906020019092919080516040519392919084640100000000821115612ab857600080fd5b83820191506020820185811115612ace57600080fd5b8251866001820283011164010000000082111715612aeb57600080fd5b8083526020830192505050908051906020019080838360005b83811015612b1f578082015181840152602081019050612b04565b50505050905090810190601f168015612b4c5780820380516001836020036101000a031916815260200191505b506040526020018051906020019092919050505093509350935093508034101580612b7f575080612b7c8a61475f565b10155b612bd4576040517f08c379a00000000000000000000000000000000000000000000000000000000081526004018080602001828103825260288152602001806147e96028913960400191505060405180910390fd5b600080600080600160009054906101000a900473ffffffffffffffffffffffffffffffffffffffff1673ffffffffffffffffffffffffffffffffffffffff166384a101cd89338a8a8a6040518663ffffffff1660e01b815260040180806020018673ffffffffffffffffffffffffffffffffffffffff1681526020018573ffffffffffffffffffffffffffffffffffffffff16815260200180602001848152602001838103835288818151815260200191508051906020019080838360005b83811015612cae578082015181840152602081019050612c93565b50505050905090810190601f168015612cdb5780820380516001836020036101000a031916815260200191505b50838103825285818151815260200191508051906020019080838360005b83811015612d14578082015181840152602081019050612cf9565b50505050905090810190601f168015612d415780820380516001836020036101000a031916815260200191505b50975050505050505050600060405180830381600087803b158015612d6557600080fd5b505af1158015612d79573d6000803e3d6000fd5b505050506040513d6000823e3d601f19601f820116820180604052506080811015612da357600080fd5b8101908080516040519392919084640100000000821115612dc357600080fd5b83820191506020820185811115612dd957600080fd5b8251866001820283011164010000000082111715612df657600080fd5b8083526020830192505050908051906020019080838360005b83811015612e2a578082015181840152602081019050612e0f565b50505050905090810190601f168015612e575780820380516001836020036101000a031916815260200191505b5060405260200180516040519392919084640100000000821115612e7a57600080fd5b83820191506020820185811115612e9057600080fd5b8251866001820283011164010000000082111715612ead57600080fd5b8083526020830192505050908051906020019080838360005b83811015612ee1578082015181840152602081019050612ec6565b50505050905090810190601f168015612f0e5780820380516001836020036101000a031916815260200191505b506040526020018051906020019092919080516040519392919084640100000000821115612f3b57600080fd5b83820191506020820185811115612f5157600080fd5b8251866001820283011164010000000082111715612f6e57600080fd5b8083526020830192505050908051906020019080838360005b83811015612fa2578082015181840152602081019050612f87565b50505050905090810190601f168015612fcf5780820380516001836020036101000a031916815260200191505b50604052505050935093509350935060008d11156130e257600360009054906101000a900473ffffffffffffffffffffffffffffffffffffffff1673ffffffffffffffffffffffffffffffffffffffff16639b4708d1858f6040518363ffffffff1660e01b81526004018080602001838152602001828103825284818151815260200191508051906020019080838360005b8381101561307c578082015181840152602081019050613061565b50505050905090810190601f1680156130a95780820380516001836020036101000a031916815260200191505b509350505050600060405180830381600087803b1580156130c957600080fd5b505af11580156130dd573d6000803e3d6000fd5b505050505b7f8e1877496607c24fc170bde9db9a8cc815be5b7017482f5770386dd5f0a47b8a848383604051808060200184815260200180602001838103835286818151815260200191508051906020019080838360005b83811015613150578082015181840152602081019050613135565b50505050905090810190601f16801561317d5780820380516001836020036101000a031916815260200191505b50838103825284818151815260200191508051906020019080838360005b838110156131b657808201518184015260208101905061319b565b50505050905090810190601f1680156131e35780820380516001836020036101000a031916815260200191505b509550505050505060405180910390a1838383839b509b509b509b50505050505050505093509350935093565b6000600660009054906101000a900473ffffffffffffffffffffffffffffffffffffffff1673ffffffffffffffffffffffffffffffffffffffff166370a08231836040518263ffffffff1660e01b8152600401808273ffffffffffffffffffffffffffffffffffffffff16815260200191505060206040518083038186803b15801561329b57600080fd5b505afa1580156132af573d6000803e3d6000fd5b505050506040513d60208110156132c557600080fd5b81019080805190602001909291905050509050919050565b6000600660009054906101000a900473ffffffffffffffffffffffffffffffffffffffff1673ffffffffffffffffffffffffffffffffffffffff166323b872dd8585856040518463ffffffff1660e01b8152600401808473ffffffffffffffffffffffffffffffffffffffff1681526020018373ffffffffffffffffffffffffffffffffffffffff1681526020018281526020019350505050602060405180830381600087803b15801561339057600080fd5b505af11580156133a4573d6000803e3d6000fd5b505050506040513d60208110156133ba57600080fd5b810190808051906020019092919050505090508015613447577f3ae895b079028f50d70d4fdc12d6bbad245651b4fbe50d7a931752330a025dec848484604051808473ffffffffffffffffffffffffffffffffffffffff1681526020018373ffffffffffffffffffffffffffffffffffffffff168152602001828152602001935050505060405180910390a15b50505050565b6060600080606060006060600360009054906101000a900473ffffffffffffffffffffffffffffffffffffffff1673ffffffffffffffffffffffffffffffffffffffff16637ab8ae16886040518263ffffffff1660e01b81526004018080602001828103825283818151815260200191508051906020019080838360005b838110156134e65780820151818401526020810190506134cb565b50505050905090810190601f1680156135135780820380516001836020036101000a031916815260200191505b509250505060006040518083038186803b15801561353057600080fd5b505afa158015613544573d6000803e3d6000fd5b505050506040513d6000823e3d601f19601f8201168201806040525060c081101561356e57600080fd5b810190808051604051939291908464010000000082111561358e57600080fd5b838201915060208201858111156135a457600080fd5b82518660018202830111640100000000821117156135c157600080fd5b8083526020830192505050908051906020019080838360005b838110156135f55780820151818401526020810190506135da565b50505050905090810190601f1680156136225780820380516001836020036101000a031916815260200191505b5060405260200180519060200190929190805190602001909291908051604051939291908464010000000082111561365957600080fd5b8382019150602082018581111561366f57600080fd5b825186600182028301116401000000008211171561368c57600080fd5b8083526020830192505050908051906020019080838360005b838110156136c05780820151818401526020810190506136a5565b50505050905090810190601f1680156136ed5780820380516001836020036101000a031916815260200191505b50604052602001805190602001909291908051604051939291908464010000000082111561371a57600080fd5b8382019150602082018581111561373057600080fd5b825186600182028301116401000000008211171561374d57600080fd5b8083526020830192505050908051906020019080838360005b83811015613781578082015181840152602081019050613766565b50505050905090810190601f1680156137ae5780820380516001836020036101000a031916815260200191505b5060405250505095509550955095509550955091939550919395565b6000600160009054906101000a900473ffffffffffffffffffffffffffffffffffffffff1673ffffffffffffffffffffffffffffffffffffffff1663096309233386866040518463ffffffff1660e01b8152600401808473ffffffffffffffffffffffffffffffffffffffff1681526020018060200180602001838103835285818151815260200191508051906020019080838360005b8381101561387c578082015181840152602081019050613861565b50505050905090810190601f1680156138a95780820380516001836020036101000a031916815260200191505b50838103825284818151815260200191508051906020019080838360005b838110156138e25780820151818401526020810190506138c7565b50505050905090810190601f16801561390f5780820380516001836020036101000a031916815260200191505b5095505050505050602060405180830381600087803b15801561393157600080fd5b505af1158015613945573d6000803e3d6000fd5b505050506040513d602081101561395b57600080fd5b810190808051906020019092919050505090507f1fec3d043cdeae56abac63b9485c8e810e01d8caf5281e06e2a78cbb82b9f56284338360405180806020018473ffffffffffffffffffffffffffffffffffffffff1681526020018315158152602001828103825285818151815260200191508051906020019080838360005b838110156139f65780820151818401526020810190506139db565b50505050905090810190601f168015613a235780820380516001836020036101000a031916815260200191505b5094505050505060405180910390a16000341015613a8c576040517f08c379a00000000000000000000000000000000000000000000000000000000081526004018080602001828103825260278152602001806147c26027913960400191505060405180910390fd5b613ab9600760009054906101000a900473ffffffffffffffffffffffffffffffffffffffff1633846132dd565b50505050565b60606000806000600160009054906101000a900473ffffffffffffffffffffffffffffffffffffffff1673ffffffffffffffffffffffffffffffffffffffff1663d8c01ed1866040518263ffffffff1660e01b8152600401808273ffffffffffffffffffffffffffffffffffffffff16815260200191505060006040518083038186803b158015613b4f57600080fd5b505afa158015613b63573d6000803e3d6000fd5b505050506040513d6000823e3d601f19601f820116820180604052506080811015613b8d57600080fd5b8101908080516040519392919084640100000000821115613bad57600080fd5b83820191506020820185811115613bc357600080fd5b8251866001820283011164010000000082111715613be057600080fd5b8083526020830192505050908051906020019080838360005b83811015613c14578082015181840152602081019050613bf9565b50505050905090810190601f168015613c415780820380516001836020036101000a031916815260200191505b5060405260200180519060200190929190805190602001909291908051906020019092919050505093509350935093509193509193565b6000600660009054906101000a900473ffffffffffffffffffffffffffffffffffffffff1673ffffffffffffffffffffffffffffffffffffffff1663dd62ed3e84846040518363ffffffff1660e01b8152600401808373ffffffffffffffffffffffffffffffffffffffff1681526020018273ffffffffffffffffffffffffffffffffffffffff1681526020019250505060206040518083038186803b158015613d2157600080fd5b505afa158015613d35573d6000803e3d6000fd5b505050506040513d6020811015613d4b57600080fd5b8101908080519060200190929190505050905092915050565b600160009054906101000a900473ffffffffffffffffffffffffffffffffffffffff1681565b60011515600160009054906101000a900473ffffffffffffffffffffffffffffffffffffffff1673ffffffffffffffffffffffffffffffffffffffff16635f9d8de6336040518263ffffffff1660e01b8152600401808273ffffffffffffffffffffffffffffffffffffffff16815260200191505060206040518083038186803b158015613e1757600080fd5b505afa158015613e2b573d6000803e3d6000fd5b505050506040513d6020811015613e4157600080fd5b8101908080519060200190929190505050151514613eaa576040517f08c379a000000000000000000000000000000000000000000000000000000000815260040180806020018281038252604e815260200180614774604e913960600191505060405180910390fd5b600080600360009054906101000a900473ffffffffffffffffffffffffffffffffffffffff1673ffffffffffffffffffffffffffffffffffffffff166357c8666933856040518363ffffffff1660e01b8152600401808373ffffffffffffffffffffffffffffffffffffffff16815260200180602001828103825283818151815260200191508051906020019080838360005b83811015613f58578082015181840152602081019050613f3d565b50505050905090810190601f168015613f855780820380516001836020036101000a031916815260200191505b509350505050600060405180830381600087803b158015613fa557600080fd5b505af1158015613fb9573d6000803e3d6000fd5b505050506040513d6000823e3d601f19601f820116820180604052506040811015613fe357600080fd5b81019080805190602001909291908051604051939291908464010000000082111561400d57600080fd5b8382019150602082018581111561402357600080fd5b825186600182028301116401000000008211171561404057600080fd5b8083526020830192505050908051906020019080838360005b83811015614074578082015181840152602081019050614059565b50505050905090810190601f1680156140a15780820380516001836020036101000a031916815260200191505b50604052505050915091507ff77ddd1c4747d74e4d857ae1988928cd346feca8a5f694b0c39f7f53e519358083838360405180806020018473ffffffffffffffffffffffffffffffffffffffff16815260200180602001838103835286818151815260200191508051906020019080838360005b83811015614130578082015181840152602081019050614115565b50505050905090810190601f16801561415d5780820380516001836020036101000a031916815260200191505b50838103825284818151815260200191508051906020019080838360005b8381101561419657808201518184015260208101905061417b565b50505050905090810190601f1680156141c35780820380516001836020036101000a031916815260200191505b509550505050505060405180910390a1505050565b600080600660009054906101000a900473ffffffffffffffffffffffffffffffffffffffff1673ffffffffffffffffffffffffffffffffffffffff1663095ea7b385856040518363ffffffff1660e01b8152600401808373ffffffffffffffffffffffffffffffffffffffff16815260200182815260200192505050602060405180830381600087803b15801561426e57600080fd5b505af1158015614282573d6000803e3d6000fd5b505050506040513d602081101561429857600080fd5b810190808051906020019092919050505090508015614307577fbab4e436a1f75e4f561126509ef0a39ce3a8c2c0d42e0269a857bee6d508d9008484604051808373ffffffffffffffffffffffffffffffffffffffff1681526020018281526020019250505060405180910390a15b8091505092915050565b60011515600160009054906101000a900473ffffffffffffffffffffffffffffffffffffffff1673ffffffffffffffffffffffffffffffffffffffff16635f9d8de6336040518263ffffffff1660e01b8152600401808273ffffffffffffffffffffffffffffffffffffffff16815260200191505060206040518083038186803b15801561439e57600080fd5b505afa1580156143b2573d6000803e3d6000fd5b505050506040513d60208110156143c857600080fd5b8101908080519060200190929190505050151514614431576040517f08c379a000000000000000000000000000000000000000000000000000000000815260040180806020018281038252604e815260200180614774604e913960600191505060405180910390fd5b600080600360009054906101000a900473ffffffffffffffffffffffffffffffffffffffff1673ffffffffffffffffffffffffffffffffffffffff1663748f9f1233856040518363ffffffff1660e01b8152600401808373ffffffffffffffffffffffffffffffffffffffff16815260200180602001828103825283818151815260200191508051906020019080838360005b838110156144df5780820151818401526020810190506144c4565b50505050905090810190601f16801561450c5780820380516001836020036101000a031916815260200191505b509350505050600060405180830381600087803b15801561452c57600080fd5b505af1158015614540573d6000803e3d6000fd5b505050506040513d6000823e3d601f19601f82011682018060405250604081101561456a57600080fd5b81019080805190602001909291908051604051939291908464010000000082111561459457600080fd5b838201915060208201858111156145aa57600080fd5b82518660018202830111640100000000821117156145c757600080fd5b8083526020830192505050908051906020019080838360005b838110156145fb5780820151818401526020810190506145e0565b50505050905090810190601f1680156146285780820380516001836020036101000a031916815260200191505b50604052505050915091507ff14b427b14da887f90611136a5e3ceba24d441e75254f1f8900c678af0ad485083838360405180806020018473ffffffffffffffffffffffffffffffffffffffff16815260200180602001838103835286818151815260200191508051906020019080838360005b838110156146b757808201518184015260208101905061469c565b50505050905090810190601f1680156146e45780820380516001836020036101000a031916815260200191505b50838103825284818151815260200191508051906020019080838360005b8381101561471d578082015181840152602081019050614702565b50505050905090810190601f16801561474a5780820380516001836020036101000a031916815260200191505b509550505050505060405180910390a1505050565b6000670de0b6b3a76400008202905091905056fe55736572206973206e6f7420612044656c6976657279206167656e742e204f6e6c792044656c6976657279206167656e74732063616e2062652061737369676e656420666f6f64206f726465722e52657374617572616e74206d757374207374616b65206d6f7265207468616e20302065746865724e6f7420656e6f756768206d6f6e69657320746f20636f766572206f7264657220616d6f756e742e44656c6976657279204167656e74206d757374207374616b65206d696e696d756d2031302065746865725573657220697320612044656c6976657279206167656e742e204f6e6c7920637573746f6d6572732063616e2061636365737320746869732ea264697066735822122042bb8c99c41cef043f3b06845f64d476130ee1d8f8b674832c9073fd5fbb7f5164736f6c63430007060033",
  "immutableReferences": {},
  "source": "pragma solidity 0.7.6;\n// \"SPDX-License-Identifier: UNLICENSED\"\n\nimport \"@openzeppelin/contracts/token/ERC20/IERC20.sol\";\n\nimport \"./helpers_interface.sol\";\nimport \"./registration_interface.sol\";\nimport \"./orders_interface.sol\";\n\n\ncontract Foodiez {\n    \n    address ownerAddress;\n\n    // FoodiezRegistration public _foodiezRegistration;\n    // FoodiezHelpers public _foodiezHelpers;\n    // FoodiezOrders public _foodiezOrders;\n    \n    FoodiezRegistrationInterface public _foodiezRegistration;\n    FoodiezHelpersInterface public _foodiezHelpers;\n    FoodiezOrdersInterface public _foodiezOrders;\n\n    /*************Variables and Event Emitter***********************************************************/\n    \n    uint NetworkServiceFee = 2;\n    uint DeliveryFlatFee = 2;\n    \n    event UserRegisteredEvent(string userName, bool isRegistered);\n    event RestaurantRegistered(string restaurantName, address rAddress, bool isRegistered);\n    event ItemAddedEvent(string restaurantId, string itemId, string itemName);\n    event OrderPlaced(string orderId, uint total, string orderStatus);\n    event OrderAssignedToDriver(string orderId, address driverAddress, string orderStatus);\n    event OrderDeliveredToUser(string orderId, address driverAddress, string orderStatus);\n    event orderDeliveryConfirmedEvent(uint restaurantTotal, uint deliveryTotal);\n    \n    event AccountApproved(address account, uint256 allowance);\n    event AmountTransferedToAccount(address account, uint256 amount);\n    event TransferedSenderToRecipient(address sender, address recipient, uint256 amount);\n    \n    /*************Token Setup *************************/\n    IERC20 token;\n    \n    address payable owner;\n    \n    mapping (address => uint256) private _balances;\n\n    mapping (address => mapping (address => uint256)) private _allowances;\n    \n    \n    /************Constructor / Modifiers /  contract address setters*********************************************/\n    constructor(FoodiezRegistrationInterface _registerAddress, FoodiezHelpersInterface _helperAddress, FoodiezOrdersInterface _orderAddress, address _token) {\n        ownerAddress = msg.sender;\n        _foodiezHelpers = _helperAddress;\n        _foodiezRegistration = _registerAddress;\n        _foodiezOrders = _orderAddress;\n        \n        _foodiezRegistration.setParentContract(address(this));\n        _foodiezOrders.setParentContract(address(this));\n        \n        owner = msg.sender; // Token deploy address;\n        token = IERC20(_token);\n    }\n\n    modifier OnlyOwner(){\n        require(msg.sender == ownerAddress, \"Foodiez Registration - Only Owner can call this function\");\n        _; // this underscore is requierd otherwise compiler will break;\n    }\n\n    modifier isDeliveryCheck(){\n        require( _foodiezRegistration.checkUserDelivery(msg.sender) == true, \"User is not a Delivery agent. Only Delivery agents can be assigned food order.\");\n        _;\n    }\n    \n    modifier isUserCheck(){\n        require( _foodiezRegistration.checkUserDelivery(msg.sender) == false, \"User is a Delivery agent. Only customers can access this.\");\n        _;\n    }\n\n    /*************Token Functions******************************************/\n    \n    function tokenApproveAccount(address _address, uint256 amount) public payable returns (bool){\n        \n        bool isApproved = token.approve(_address, amount);\n        if(isApproved) emit AccountApproved(_address, amount);\n        return isApproved;\n    }\n    \n    function allowance(address own, address spender) public view returns (uint256){\n        return token.allowance(own, spender);\n    }\n    \n    function getTokenBalanceOf(address _address) public view returns (uint256){\n        return token.balanceOf(_address);\n    }\n    \n    function tokenTransfer(address recipient, uint256 amount) public payable {\n        bool tokenTransfered = token.transfer(recipient, amount);\n        if(tokenTransfered) emit AmountTransferedToAccount(recipient, amount);\n    }\n    \n    function tokenTransferFrom(address sender, address recipient, uint256 amount) public payable {\n        \n        bool tokenTransfered = token.transferFrom(sender, recipient, amount);\n        \n        \n        if(tokenTransfered) emit TransferedSenderToRecipient(sender, recipient, amount);\n    }\n    \n    /*****************Registration of User ( customer and delivery ) and Restaurant *********************/\n    function userRegister(string memory name, uint uType, uint256 amountStake) public payable {\n        if(uType == 1) { \n            require(msg.value >= 10 ether, \"Delivery Agent must stake minimum 10 ether\"); \n        }\n        \n        // bool success = tokenApproveAccount(msg.sender, amountStake ); // approval of account to be done directly at tokenContract\n        if(amountStake > 0){\n            require(msg.value >= amountStake, \"Ether must match tokenStake\");\n            tokenTransferFrom(owner, msg.sender, amountStake);\n        }\n        \n        bool isRegistered = _foodiezRegistration.userRegistration(msg.sender, name, uType); // setup token here\n        emit UserRegisteredEvent( name, isRegistered);\n    }\n    \n    function getUserInfo(address _address) public view returns (string memory, address, string memory, uint){\n        return _foodiezRegistration.getUserInfo(_address);\n    }\n    \n    function registerRestaurant(string memory _name, string memory _rId, uint256 amountStake) public payable{\n        \n        bool isRegistered = _foodiezRegistration.createRestaurant(msg.sender, _name, _rId);\n        emit RestaurantRegistered(_name, msg.sender, isRegistered);\n        \n        //token register and purchase\n        require(msg.value >= 0, \"Restaurant must stake more than 0 ether\");\n        // bool success = tokenApproveAccount(msg.sender, amountStake);\n        tokenTransferFrom(owner, msg.sender, amountStake);\n    }\n    \n    function addMenuItems(string memory _itemName, uint _type, uint _price) public {\n        (string memory rId, string memory uniqueId, string memory itemName) = _foodiezRegistration.addMenuItems(msg.sender, _itemName, _type, _price);\n        \n        emit ItemAddedEvent(rId, uniqueId, itemName);\n    }\n    \n    function getRestaurantMenu(address _restaurantAddress, uint _itemNumber) public view returns(string memory, string memory, uint){\n        return _foodiezRegistration.getRestaurantMenu(_restaurantAddress, _itemNumber);\n    } \n    \n    function getrestaurantInfo(address _restaurantAddress) public view returns(string memory, address, uint, uint){\n        return _foodiezRegistration.getrestaurantInfo(_restaurantAddress);\n    }\n    \n    /************Foodiez Orders Vars and Functions**********************/\n    function placeOrder(address _restaurantAddress, uint _itemNum, uint tokenPay) public payable returns (string memory, string memory, uint256, string memory){\n        \n        (string memory rId, address restaurantAddress, string memory itemName, uint totalPrice) = _foodiezRegistration.getOrderTotal(msg.sender, _restaurantAddress, _itemNum);\n        \n        //check for required ether \n        require(msg.value >= totalPrice || weiConverter(tokenPay) >= totalPrice , \"Not enough monies to cover order amount.\");\n        (string memory uniqueId, string memory oItemName, uint256 total, string memory status) = _foodiezRegistration.createFoodOrder(rId, msg.sender, restaurantAddress, itemName, totalPrice);\n        \n        \n        if(tokenPay > 0) {\n            _foodiezOrders.setTokenPayOrder(uniqueId, tokenPay);\n            // transfer(address(this), tokenPay);\n        }\n        \n        emit OrderPlaced(uniqueId, total, status);\n        return (uniqueId, oItemName, total, status);\n    }\n    \n    function getOrderStatus(string memory userOrderId) public view returns (string memory, address, address, string memory, uint256, string memory){\n        return _foodiezOrders.getUserOrderStatus(userOrderId);\n    }\n    \n    function assignToDriver(string memory userOrderId) public isDeliveryCheck {\n        \n        (address driverAddress, string memory status) = _foodiezOrders.assignOrderToDriver(msg.sender, userOrderId);\n        emit OrderAssignedToDriver(userOrderId,driverAddress, status);\n    }\n    \n    function driverDelieveredOrder(string memory userOrderId) public isDeliveryCheck {\n        \n        (address driverAddress, string memory status) = _foodiezOrders.driverDelieveredOrder(msg.sender, userOrderId);\n        emit OrderDeliveredToUser(userOrderId,driverAddress, status);\n    }\n    \n    function orderDeliveryConfirmed(string memory userOrderId, uint _restaurantRating, uint _deliveryRating, uint tokenTip ) public isUserCheck payable{\n         \n         (address restaurantAddress, address deliveryAddress, address userAddress, uint total ) = _foodiezOrders.orderDeliveryConfirmed(userOrderId);\n        \n        //ratings for restaurant and drivers\n        _foodiezRegistration.addRestaurantRating(restaurantAddress, _restaurantRating);\n        \n        _foodiezRegistration.addDriverRating(deliveryAddress, _deliveryRating);\n         \n        // payment \n        require(getTokenBalanceOf(msg.sender) >= tokenTip, \"Not Enough tokens to tip.\");\n        \n        uint256 tokenPay = _foodiezOrders.getTokenPayOrder(userOrderId);\n        \n         uint finalOrderTotal = total;\n        // take out service fee from total\n        uint serviceFee = _foodiezHelpers.calcServiceFee(total, NetworkServiceFee);\n        finalOrderTotal -= serviceFee;\n            \n        // driver fee + any tips go to \n        uint driverTotal = _foodiezHelpers.calcDriverFlatFee(total, DeliveryFlatFee); \n        finalOrderTotal -= driverTotal; \n        \n        \n        driverTotal += msg.value;\n        \n        // transfer driver money\n        payable(deliveryAddress).transfer(driverTotal);\n        if(tokenTip > 0) {\n            token.transferFrom(userAddress, deliveryAddress, tokenTip);\n        }\n        \n        // transfer rest money\n        if(tokenPay > 0){\n            token.transferFrom(userAddress, restaurantAddress, tokenPay);\n        }else {\n            payable(restaurantAddress).transfer(finalOrderTotal);   \n        }\n        \n        emit orderDeliveryConfirmedEvent(finalOrderTotal, driverTotal);\n    }\n\n    \n    function weiConverter(uint256 tokenPay) internal pure returns(uint){\n        return tokenPay * 10**18;\n    }\n}",
  "sourcePath": "/home/dinesh/Blockchain-Projects/Foodiez-Project/contracts/parent.sol",
  "compiler": {
    "name": "solc",
    "version": "0.7.6+commit.7338295f.Emscripten.clang"
  },
  "schemaVersion": "3.3.3",
  "updatedAt": "2021-03-23T17:16:04.600Z",
  "networkType": "ethereum",
  "devdoc": {
    "kind": "dev",
    "methods": {},
    "version": 1
  },
  "userdoc": {
    "kind": "user",
    "methods": {},
    "version": 1
  }
}