{
  "contractName": "FoodiezRegistration",
  "abi": [
    {
      "inputs": [
        {
          "internalType": "contract FoodiezHelpersInterface",
          "name": "_helperAddress",
          "type": "address"
        },
        {
          "internalType": "contract FoodiezOrdersInterface",
          "name": "_orderAddress",
          "type": "address"
        }
      ],
      "stateMutability": "nonpayable",
      "type": "constructor"
    },
    {
      "inputs": [],
      "name": "_foodiezHelpers",
      "outputs": [
        {
          "internalType": "contract FoodiezHelpersInterface",
          "name": "",
          "type": "address"
        }
      ],
      "stateMutability": "view",
      "type": "function"
    },
    {
      "inputs": [],
      "name": "_foodiezOrders",
      "outputs": [
        {
          "internalType": "contract FoodiezOrdersInterface",
          "name": "",
          "type": "address"
        }
      ],
      "stateMutability": "view",
      "type": "function"
    },
    {
      "inputs": [],
      "name": "parentContractAddress",
      "outputs": [
        {
          "internalType": "address",
          "name": "",
          "type": "address"
        }
      ],
      "stateMutability": "view",
      "type": "function"
    },
    {
      "inputs": [
        {
          "internalType": "address",
          "name": "_address",
          "type": "address"
        }
      ],
      "name": "setParentContract",
      "outputs": [
        {
          "internalType": "string",
          "name": "",
          "type": "string"
        }
      ],
      "stateMutability": "nonpayable",
      "type": "function"
    },
    {
      "inputs": [
        {
          "internalType": "address",
          "name": "_address",
          "type": "address"
        },
        {
          "internalType": "string",
          "name": "name",
          "type": "string"
        },
        {
          "internalType": "uint256",
          "name": "uType",
          "type": "uint256"
        }
      ],
      "name": "userRegistration",
      "outputs": [
        {
          "internalType": "bool",
          "name": "",
          "type": "bool"
        }
      ],
      "stateMutability": "nonpayable",
      "type": "function"
    },
    {
      "inputs": [
        {
          "internalType": "address",
          "name": "_address",
          "type": "address"
        }
      ],
      "name": "getUserInfo",
      "outputs": [
        {
          "internalType": "string",
          "name": "",
          "type": "string"
        },
        {
          "internalType": "address",
          "name": "",
          "type": "address"
        },
        {
          "internalType": "string",
          "name": "",
          "type": "string"
        },
        {
          "internalType": "uint256",
          "name": "",
          "type": "uint256"
        }
      ],
      "stateMutability": "view",
      "type": "function"
    },
    {
      "inputs": [
        {
          "internalType": "address",
          "name": "_address",
          "type": "address"
        },
        {
          "internalType": "string",
          "name": "_name",
          "type": "string"
        },
        {
          "internalType": "string",
          "name": "_rId",
          "type": "string"
        }
      ],
      "name": "createRestaurant",
      "outputs": [
        {
          "internalType": "bool",
          "name": "",
          "type": "bool"
        }
      ],
      "stateMutability": "nonpayable",
      "type": "function"
    },
    {
      "inputs": [
        {
          "internalType": "address",
          "name": "_address",
          "type": "address"
        },
        {
          "internalType": "string",
          "name": "_itemName",
          "type": "string"
        },
        {
          "internalType": "uint256",
          "name": "_type",
          "type": "uint256"
        },
        {
          "internalType": "uint256",
          "name": "_price",
          "type": "uint256"
        }
      ],
      "name": "addMenuItems",
      "outputs": [
        {
          "internalType": "string",
          "name": "",
          "type": "string"
        },
        {
          "internalType": "string",
          "name": "",
          "type": "string"
        },
        {
          "internalType": "string",
          "name": "",
          "type": "string"
        }
      ],
      "stateMutability": "nonpayable",
      "type": "function"
    },
    {
      "inputs": [
        {
          "internalType": "address",
          "name": "_restaurantAddress",
          "type": "address"
        },
        {
          "internalType": "uint256",
          "name": "_itemNumber",
          "type": "uint256"
        }
      ],
      "name": "getRestaurantMenu",
      "outputs": [
        {
          "internalType": "string",
          "name": "",
          "type": "string"
        },
        {
          "internalType": "string",
          "name": "",
          "type": "string"
        },
        {
          "internalType": "uint256",
          "name": "",
          "type": "uint256"
        }
      ],
      "stateMutability": "view",
      "type": "function"
    },
    {
      "inputs": [
        {
          "internalType": "address",
          "name": "_restaurantAddress",
          "type": "address"
        }
      ],
      "name": "getrestaurantInfo",
      "outputs": [
        {
          "internalType": "string",
          "name": "",
          "type": "string"
        },
        {
          "internalType": "address",
          "name": "",
          "type": "address"
        },
        {
          "internalType": "uint256",
          "name": "",
          "type": "uint256"
        },
        {
          "internalType": "uint256",
          "name": "",
          "type": "uint256"
        }
      ],
      "stateMutability": "view",
      "type": "function"
    },
    {
      "inputs": [
        {
          "internalType": "address",
          "name": "_userAddress",
          "type": "address"
        },
        {
          "internalType": "address",
          "name": "_address",
          "type": "address"
        },
        {
          "internalType": "uint256",
          "name": "_itemNum",
          "type": "uint256"
        }
      ],
      "name": "getOrderTotal",
      "outputs": [
        {
          "internalType": "string",
          "name": "",
          "type": "string"
        },
        {
          "internalType": "address",
          "name": "",
          "type": "address"
        },
        {
          "internalType": "string",
          "name": "",
          "type": "string"
        },
        {
          "internalType": "uint256",
          "name": "",
          "type": "uint256"
        }
      ],
      "stateMutability": "view",
      "type": "function"
    },
    {
      "inputs": [
        {
          "internalType": "string",
          "name": "rId",
          "type": "string"
        },
        {
          "internalType": "address",
          "name": "userAddress",
          "type": "address"
        },
        {
          "internalType": "address",
          "name": "restaurantAddress",
          "type": "address"
        },
        {
          "internalType": "string",
          "name": "itemName",
          "type": "string"
        },
        {
          "internalType": "uint256",
          "name": "totalPrice",
          "type": "uint256"
        }
      ],
      "name": "createFoodOrder",
      "outputs": [
        {
          "internalType": "string",
          "name": "",
          "type": "string"
        },
        {
          "internalType": "string",
          "name": "",
          "type": "string"
        },
        {
          "internalType": "uint256",
          "name": "",
          "type": "uint256"
        },
        {
          "internalType": "string",
          "name": "",
          "type": "string"
        }
      ],
      "stateMutability": "payable",
      "type": "function"
    },
    {
      "inputs": [
        {
          "internalType": "address",
          "name": "_restaurantAddress",
          "type": "address"
        },
        {
          "internalType": "uint256",
          "name": "_restaurantRating",
          "type": "uint256"
        }
      ],
      "name": "addRestaurantRating",
      "outputs": [],
      "stateMutability": "nonpayable",
      "type": "function"
    },
    {
      "inputs": [
        {
          "internalType": "address",
          "name": "_address",
          "type": "address"
        },
        {
          "internalType": "uint256",
          "name": "_deliveryRating",
          "type": "uint256"
        }
      ],
      "name": "addDriverRating",
      "outputs": [],
      "stateMutability": "nonpayable",
      "type": "function"
    },
    {
      "inputs": [
        {
          "internalType": "address",
          "name": "_address",
          "type": "address"
        }
      ],
      "name": "checkUserDelivery",
      "outputs": [
        {
          "internalType": "bool",
          "name": "",
          "type": "bool"
        }
      ],
      "stateMutability": "view",
      "type": "function"
    },
    {
      "inputs": [
        {
          "internalType": "address",
          "name": "_restaurantAddress",
          "type": "address"
        },
        {
          "internalType": "uint256",
          "name": "_itemNumber",
          "type": "uint256"
        }
      ],
      "name": "getItemInfo",
      "outputs": [
        {
          "internalType": "string",
          "name": "",
          "type": "string"
        },
        {
          "internalType": "uint256",
          "name": "",
          "type": "uint256"
        }
      ],
      "stateMutability": "view",
      "type": "function"
    },
    {
      "inputs": [],
      "name": "getOrderCount",
      "outputs": [
        {
          "internalType": "uint256",
          "name": "",
          "type": "uint256"
        }
      ],
      "stateMutability": "view",
      "type": "function"
    },
    {
      "inputs": [],
      "name": "incrementOrderCount",
      "outputs": [],
      "stateMutability": "nonpayable",
      "type": "function"
    }
  ],
  "bytecode": "0x60806040526000600360146101000a81548160ff0219169083151502179055506000600b556002600c556002600d553480156200003b57600080fd5b506040516200603e3803806200603e833981810160405281019062000061919062000284565b33600260006101000a81548173ffffffffffffffffffffffffffffffffffffffff021916908373ffffffffffffffffffffffffffffffffffffffff160217905550816000806101000a81548173ffffffffffffffffffffffffffffffffffffffff021916908373ffffffffffffffffffffffffffffffffffffffff16021790555080600160006101000a81548173ffffffffffffffffffffffffffffffffffffffff021916908373ffffffffffffffffffffffffffffffffffffffff160217905550600160009054906101000a900473ffffffffffffffffffffffffffffffffffffffff1673ffffffffffffffffffffffffffffffffffffffff1663e150a2e8306040518263ffffffff1660e01b81526004016200018091906200031b565b600060405180830381600087803b1580156200019b57600080fd5b505af1158015620001b0573d6000803e3d6000fd5b505050506040513d6000823e3d601f19601f82011682018060405250810190620001db9190620002c5565b505050620004d3565b6000620001fb620001f58462000361565b62000338565b9050828152602081018484840111156200021457600080fd5b62000221848285620003f3565b509392505050565b6000815190506200023a816200049f565b92915050565b6000815190506200025181620004b9565b92915050565b600082601f8301126200026957600080fd5b81516200027b848260208601620001e4565b91505092915050565b600080604083850312156200029857600080fd5b6000620002a88582860162000229565b9250506020620002bb8582860162000240565b9150509250929050565b600060208284031215620002d857600080fd5b600082015167ffffffffffffffff811115620002f357600080fd5b620003018482850162000257565b91505092915050565b620003158162000397565b82525050565b60006020820190506200033260008301846200030a565b92915050565b60006200034462000357565b905062000352828262000429565b919050565b6000604051905090565b600067ffffffffffffffff8211156200037f576200037e6200045f565b5b6200038a826200048e565b9050602081019050919050565b6000620003a482620003d3565b9050919050565b6000620003b88262000397565b9050919050565b6000620003cc8262000397565b9050919050565b600073ffffffffffffffffffffffffffffffffffffffff82169050919050565b60005b8381101562000413578082015181840152602081019050620003f6565b8381111562000423576000848401525b50505050565b62000434826200048e565b810181811067ffffffffffffffff821117156200045657620004556200045f565b5b80604052505050565b7f4e487b7100000000000000000000000000000000000000000000000000000000600052604160045260246000fd5b6000601f19601f8301169050919050565b620004aa81620003ab565b8114620004b657600080fd5b50565b620004c481620003bf565b8114620004d057600080fd5b50565b615b5b80620004e36000396000f3fe6080604052600436106101095760003560e01c806384a101cd11610095578063ae596d4e11610064578063ae596d4e146103b3578063d8c01ed1146103de578063debd2ec41461041e578063dfe7669d1461045d578063f0645d7a1461048657610109565b806384a101cd146102ef5780638ab7ad77146103225780638d0a5fbb1461034b578063aded60391461037657610109565b80635f9d8de6116100dc5780635f9d8de6146101f3578063617aada9146102305780636386c1c71461025b578063765ccb6b1461029b5780637aa3eaf0146102d857610109565b8063096309231461010e5780632cfff5d61461014b5780632d9ee1d114610189578063331723eb146101b4575b600080fd5b34801561011a57600080fd5b5061013560048036038101906101309190614bc4565b6104c6565b60405161014291906151c0565b60405180910390f35b34801561015757600080fd5b50610172600480360381019061016d9190614d25565b610826565b604051610180929190615433565b60405180910390f35b34801561019557600080fd5b5061019e610d04565b6040516101ab91906151f6565b60405180910390f35b3480156101c057600080fd5b506101db60048036038101906101d69190614d25565b610d2a565b6040516101ea93929190615394565b60405180910390f35b3480156101ff57600080fd5b5061021a60048036038101906102159190614b4c565b6112e0565b60405161022791906151c0565b60405180910390f35b34801561023c57600080fd5b50610245611527565b60405161025291906151db565b60405180910390f35b34801561026757600080fd5b50610282600480360381019061027d9190614b4c565b61154b565b6040516102929493929190615233565b60405180910390f35b3480156102a757600080fd5b506102c260048036038101906102bd9190614b4c565b611882565b6040516102cf9190615211565b60405180910390f35b3480156102e457600080fd5b506102ed6119e6565b005b61030960048036038101906103049190614da2565b611a00565b60405161031994939291906153d9565b60405180910390f35b34801561032e57600080fd5b5061034960048036038101906103449190614d25565b611dbd565b005b34801561035757600080fd5b506103606124af565b60405161036d9190615543565b60405180910390f35b34801561038257600080fd5b5061039d60048036038101906103989190614c43565b6124b9565b6040516103aa91906151c0565b60405180910390f35b3480156103bf57600080fd5b506103c86128a6565b6040516103d591906151a5565b60405180910390f35b3480156103ea57600080fd5b5061040560048036038101906104009190614b4c565b6128cc565b6040516104159493929190615286565b60405180910390f35b34801561042a57600080fd5b5061044560048036038101906104409190614caa565b612ca6565b60405161045493929190615348565b60405180910390f35b34801561046957600080fd5b50610484600480360381019061047f9190614d25565b61322f565b005b34801561049257600080fd5b506104ad60048036038101906104a89190614b75565b613859565b6040516104bd9493929190615233565b60405180910390f35b6000600360009054906101000a900473ffffffffffffffffffffffffffffffffffffffff1673ffffffffffffffffffffffffffffffffffffffff163373ffffffffffffffffffffffffffffffffffffffff1614610558576040517f08c379a000000000000000000000000000000000000000000000000000000000815260040161054f906154e3565b60405180910390fd5b6000151561056585613f65565b1515146105a7576040517f08c379a000000000000000000000000000000000000000000000000000000000815260040161059e90615503565b60405180910390fd5b606060006040518060e001604052808773ffffffffffffffffffffffffffffffffffffffff168152602001868152602001858152602001600081526020016000815260200183815260200160011515815250905080600760008873ffffffffffffffffffffffffffffffffffffffff1673ffffffffffffffffffffffffffffffffffffffff16815260200190815260200160002060008201518160000160006101000a81548173ffffffffffffffffffffffffffffffffffffffff021916908373ffffffffffffffffffffffffffffffffffffffff160217905550602082015181600101908051906020019061069e9291906147e1565b5060408201518160020190805190602001906106bb9291906147e1565b50606082015181600301556080820151816004015560a08201518160050190805190602001906106ec929190614867565b5060c08201518160060160006101000a81548160ff0219169083151502179055509050506006869080600181540180825580915050600190039060005260206000200160009091909190916101000a81548173ffffffffffffffffffffffffffffffffffffffff021916908373ffffffffffffffffffffffffffffffffffffffff16021790555060006040518060a00160405280600081526020016000815260200160008152602001600081526020016000815250905080600860008973ffffffffffffffffffffffffffffffffffffffff1673ffffffffffffffffffffffffffffffffffffffff1681526020019081526020016000206000820151816000015560208201518160010155604082015181600201556060820151816003015560808201518160040155905050600193505050509392505050565b606060006001151561083785613f65565b151514610879576040517f08c379a000000000000000000000000000000000000000000000000000000000815260040161087090615483565b60405180910390fd5b6000600760008673ffffffffffffffffffffffffffffffffffffffff1673ffffffffffffffffffffffffffffffffffffffff1681526020019081526020016000206040518060e00160405290816000820160009054906101000a900473ffffffffffffffffffffffffffffffffffffffff1673ffffffffffffffffffffffffffffffffffffffff1673ffffffffffffffffffffffffffffffffffffffff16815260200160018201805461092b906157a1565b80601f0160208091040260200160405190810160405280929190818152602001828054610957906157a1565b80156109a45780601f10610979576101008083540402835291602001916109a4565b820191906000526020600020905b81548152906001019060200180831161098757829003601f168201915b505050505081526020016002820180546109bd906157a1565b80601f01602080910402602001604051908101604052809291908181526020018280546109e9906157a1565b8015610a365780601f10610a0b57610100808354040283529160200191610a36565b820191906000526020600020905b815481529060010190602001808311610a1957829003601f168201915b50505050508152602001600382015481526020016004820154815260200160058201805480602002602001604051908101604052809291908181526020016000905b82821015610b24578382906000526020600020018054610a97906157a1565b80601f0160208091040260200160405190810160405280929190818152602001828054610ac3906157a1565b8015610b105780601f10610ae557610100808354040283529160200191610b10565b820191906000526020600020905b815481529060010190602001808311610af357829003601f168201915b505050505081526020019060010190610a78565b5050505081526020016006820160009054906101000a900460ff161515151581525050905060008160a00151905060006009828781518110610b8f577f4e487b7100000000000000000000000000000000000000000000000000000000600052603260045260246000fd5b6020026020010151604051610ba49190615146565b908152602001604051809103902060405180608001604052908160008201548152602001600182018054610bd7906157a1565b80601f0160208091040260200160405190810160405280929190818152602001828054610c03906157a1565b8015610c505780601f10610c2557610100808354040283529160200191610c50565b820191906000526020600020905b815481529060010190602001808311610c3357829003601f168201915b505050505081526020016002820160009054906101000a900460ff166002811115610ca4577f4e487b7100000000000000000000000000000000000000000000000000000000600052602160045260246000fd5b6002811115610cdc577f4e487b7100000000000000000000000000000000000000000000000000000000600052602160045260246000fd5b8152602001600382015481525050905080602001518160600151945094505050509250929050565b600160009054906101000a900473ffffffffffffffffffffffffffffffffffffffff1681565b6060806000600360009054906101000a900473ffffffffffffffffffffffffffffffffffffffff1673ffffffffffffffffffffffffffffffffffffffff163373ffffffffffffffffffffffffffffffffffffffff1614610dbf576040517f08c379a0000000000000000000000000000000000000000000000000000000008152600401610db6906154e3565b60405180910390fd5b60011515610dcc86613f65565b151514610e0e576040517f08c379a0000000000000000000000000000000000000000000000000000000008152600401610e0590615483565b60405180910390fd5b6000600760008773ffffffffffffffffffffffffffffffffffffffff1673ffffffffffffffffffffffffffffffffffffffff1681526020019081526020016000206040518060e00160405290816000820160009054906101000a900473ffffffffffffffffffffffffffffffffffffffff1673ffffffffffffffffffffffffffffffffffffffff1673ffffffffffffffffffffffffffffffffffffffff168152602001600182018054610ec0906157a1565b80601f0160208091040260200160405190810160405280929190818152602001828054610eec906157a1565b8015610f395780601f10610f0e57610100808354040283529160200191610f39565b820191906000526020600020905b815481529060010190602001808311610f1c57829003601f168201915b50505050508152602001600282018054610f52906157a1565b80601f0160208091040260200160405190810160405280929190818152602001828054610f7e906157a1565b8015610fcb5780601f10610fa057610100808354040283529160200191610fcb565b820191906000526020600020905b815481529060010190602001808311610fae57829003601f168201915b50505050508152602001600382015481526020016004820154815260200160058201805480602002602001604051908101604052809291908181526020016000905b828210156110b957838290600052602060002001805461102c906157a1565b80601f0160208091040260200160405190810160405280929190818152602001828054611058906157a1565b80156110a55780601f1061107a576101008083540402835291602001916110a5565b820191906000526020600020905b81548152906001019060200180831161108857829003601f168201915b50505050508152602001906001019061100d565b5050505081526020016006820160009054906101000a900460ff161515151581525050905060008160a00151905060006009828881518110611124577f4e487b7100000000000000000000000000000000000000000000000000000000600052603260045260246000fd5b60200260200101516040516111399190615146565b90815260200160405180910390206040518060800160405290816000820154815260200160018201805461116c906157a1565b80601f0160208091040260200160405190810160405280929190818152602001828054611198906157a1565b80156111e55780601f106111ba576101008083540402835291602001916111e5565b820191906000526020600020905b8154815290600101906020018083116111c857829003601f168201915b505050505081526020016002820160009054906101000a900460ff166002811115611239577f4e487b7100000000000000000000000000000000000000000000000000000000600052602160045260246000fd5b6002811115611271577f4e487b7100000000000000000000000000000000000000000000000000000000600052602160045260246000fd5b8152602001600382015481525050905080602001516112cb826040015160028111156112c6577f4e487b7100000000000000000000000000000000000000000000000000000000600052602160045260246000fd5b614243565b82606001519550955095505050509250925092565b600080600460008473ffffffffffffffffffffffffffffffffffffffff1673ffffffffffffffffffffffffffffffffffffffff1681526020019081526020016000206040518060c001604052908160008201805461133d906157a1565b80601f0160208091040260200160405190810160405280929190818152602001828054611369906157a1565b80156113b65780601f1061138b576101008083540402835291602001916113b6565b820191906000526020600020905b81548152906001019060200180831161139957829003601f168201915b505050505081526020016001820160009054906101000a900473ffffffffffffffffffffffffffffffffffffffff1673ffffffffffffffffffffffffffffffffffffffff1673ffffffffffffffffffffffffffffffffffffffff1681526020016001820160149054906101000a900460ff166001811115611460577f4e487b7100000000000000000000000000000000000000000000000000000000600052602160045260246000fd5b6001811115611498577f4e487b7100000000000000000000000000000000000000000000000000000000600052602160045260246000fd5b815260200160028201548152602001600382015481526020016004820160009054906101000a900460ff161515151581525050905060018160400151600181111561150c577f4e487b7100000000000000000000000000000000000000000000000000000000600052602160045260246000fd5b141561151c576001915050611522565b60009150505b919050565b60008054906101000a900473ffffffffffffffffffffffffffffffffffffffff1681565b6060600060606000600360009054906101000a900473ffffffffffffffffffffffffffffffffffffffff1673ffffffffffffffffffffffffffffffffffffffff163373ffffffffffffffffffffffffffffffffffffffff16146115e3576040517f08c379a00000000000000000000000000000000000000000000000000000000081526004016115da906154e3565b60405180910390fd5b600115156115f08661451d565b151514611632576040517f08c379a000000000000000000000000000000000000000000000000000000000815260040161162990615463565b60405180910390fd5b6000600460008773ffffffffffffffffffffffffffffffffffffffff1673ffffffffffffffffffffffffffffffffffffffff1681526020019081526020016000206040518060c001604052908160008201805461168e906157a1565b80601f01602080910402602001604051908101604052809291908181526020018280546116ba906157a1565b80156117075780601f106116dc57610100808354040283529160200191611707565b820191906000526020600020905b8154815290600101906020018083116116ea57829003601f168201915b505050505081526020016001820160009054906101000a900473ffffffffffffffffffffffffffffffffffffffff1673ffffffffffffffffffffffffffffffffffffffff1673ffffffffffffffffffffffffffffffffffffffff1681526020016001820160149054906101000a900460ff1660018111156117b1577f4e487b7100000000000000000000000000000000000000000000000000000000600052602160045260246000fd5b60018111156117e9577f4e487b7100000000000000000000000000000000000000000000000000000000600052602160045260246000fd5b815260200160028201548152602001600382015481526020016004820160009054906101000a900460ff16151515158152505090508060000151816020015161186d83604001516001811115611868577f4e487b7100000000000000000000000000000000000000000000000000000000600052602160045260246000fd5b6145f8565b83606001519450945094509450509193509193565b6060600260009054906101000a900473ffffffffffffffffffffffffffffffffffffffff1673ffffffffffffffffffffffffffffffffffffffff163373ffffffffffffffffffffffffffffffffffffffff1614611914576040517f08c379a000000000000000000000000000000000000000000000000000000000815260040161190b906154e3565b60405180910390fd5b60001515600360149054906101000a900460ff1615151461196a576040517f08c379a0000000000000000000000000000000000000000000000000000000008152600401611961906154c3565b60405180910390fd5b81600360006101000a81548173ffffffffffffffffffffffffffffffffffffffff021916908373ffffffffffffffffffffffffffffffffffffffff1602179055506001600360146101000a81548160ff0219169083151502179055506040518060600160405280602b8152602001615afb602b91399050919050565b600b60008154809291906119f990615804565b9190505550565b606080600060606000600460003373ffffffffffffffffffffffffffffffffffffffff1673ffffffffffffffffffffffffffffffffffffffff1681526020019081526020016000206040518060c0016040529081600082018054611a63906157a1565b80601f0160208091040260200160405190810160405280929190818152602001828054611a8f906157a1565b8015611adc5780601f10611ab157610100808354040283529160200191611adc565b820191906000526020600020905b815481529060010190602001808311611abf57829003601f168201915b505050505081526020016001820160009054906101000a900473ffffffffffffffffffffffffffffffffffffffff1673ffffffffffffffffffffffffffffffffffffffff1673ffffffffffffffffffffffffffffffffffffffff1681526020016001820160149054906101000a900460ff166001811115611b86577f4e487b7100000000000000000000000000000000000000000000000000000000600052602160045260246000fd5b6001811115611bbe577f4e487b7100000000000000000000000000000000000000000000000000000000600052602160045260246000fd5b815260200160028201548152602001600382015481526020016004820160009054906101000a900460ff161515151581525050905060008060009054906101000a900473ffffffffffffffffffffffffffffffffffffffff1673ffffffffffffffffffffffffffffffffffffffff1663f76f950e600b546040518263ffffffff1660e01b8152600401611c519190615543565b60006040518083038186803b158015611c6957600080fd5b505afa158015611c7d573d6000803e3d6000fd5b505050506040513d6000823e3d601f19601f82011682018060405250810190611ca69190614d61565b90506000826000015182604051602001611cc192919061515d565b6040516020818303038152906040529050600b6000815480929190611ce590615804565b9190505550600160009054906101000a900473ffffffffffffffffffffffffffffffffffffffff1673ffffffffffffffffffffffffffffffffffffffff16634500901e828e8d8f8e8e6040518763ffffffff1660e01b8152600401611d4f969594939291906152d2565b600060405180830381600087803b158015611d6957600080fd5b505af1158015611d7d573d6000803e3d6000fd5b505050506040513d6000823e3d601f19601f82011682018060405250810190611da69190614e49565b965096509650965050505095509550955095915050565b600360009054906101000a900473ffffffffffffffffffffffffffffffffffffffff1673ffffffffffffffffffffffffffffffffffffffff163373ffffffffffffffffffffffffffffffffffffffff1614611e4d576040517f08c379a0000000000000000000000000000000000000000000000000000000008152600401611e44906154e3565b60405180910390fd5b6000600860008473ffffffffffffffffffffffffffffffffffffffff1673ffffffffffffffffffffffffffffffffffffffff1681526020019081526020016000206040518060a00160405290816000820154815260200160018201548152602001600282015481526020016003820154815260200160048201548152505090506001821415611ef157806000018051809190611ee890615804565b81525050611f81565b6002821415611f1557806020018051809190611f0c90615804565b81525050611f80565b6003821415611f3957806040018051809190611f3090615804565b81525050611f7f565b6004821415611f5d57806060018051809190611f5490615804565b81525050611f7e565b6005821415611f7d57806080018051809190611f7890615804565b815250505b5b5b5b5b80600860008573ffffffffffffffffffffffffffffffffffffffff1673ffffffffffffffffffffffffffffffffffffffff16815260200190815260200160002060008201518160000155602082015181600101556040820151816002015560608201518160030155608082015181600401559050506000600760008573ffffffffffffffffffffffffffffffffffffffff1673ffffffffffffffffffffffffffffffffffffffff1681526020019081526020016000206040518060e00160405290816000820160009054906101000a900473ffffffffffffffffffffffffffffffffffffffff1673ffffffffffffffffffffffffffffffffffffffff1673ffffffffffffffffffffffffffffffffffffffff1681526020016001820180546120a8906157a1565b80601f01602080910402602001604051908101604052809291908181526020018280546120d4906157a1565b80156121215780601f106120f657610100808354040283529160200191612121565b820191906000526020600020905b81548152906001019060200180831161210457829003601f168201915b5050505050815260200160028201805461213a906157a1565b80601f0160208091040260200160405190810160405280929190818152602001828054612166906157a1565b80156121b35780601f10612188576101008083540402835291602001916121b3565b820191906000526020600020905b81548152906001019060200180831161219657829003601f168201915b50505050508152602001600382015481526020016004820154815260200160058201805480602002602001604051908101604052809291908181526020016000905b828210156122a1578382906000526020600020018054612214906157a1565b80601f0160208091040260200160405190810160405280929190818152602001828054612240906157a1565b801561228d5780601f106122625761010080835404028352916020019161228d565b820191906000526020600020905b81548152906001019060200180831161227057829003601f168201915b5050505050815260200190600101906121f5565b5050505081526020016006820160009054906101000a900460ff161515151581525050905060008054906101000a900473ffffffffffffffffffffffffffffffffffffffff1673ffffffffffffffffffffffffffffffffffffffff166344a3878c836000015184602001518560400151866060015187608001516040518663ffffffff1660e01b815260040161233b959493929190615587565b60206040518083038186803b15801561235357600080fd5b505afa158015612367573d6000803e3d6000fd5b505050506040513d601f19601f8201168201806040525081019061238b9190614ef4565b81608001818152505080600760008673ffffffffffffffffffffffffffffffffffffffff1673ffffffffffffffffffffffffffffffffffffffff16815260200190815260200160002060008201518160000160006101000a81548173ffffffffffffffffffffffffffffffffffffffff021916908373ffffffffffffffffffffffffffffffffffffffff16021790555060208201518160010190805190602001906124379291906147e1565b5060408201518160020190805190602001906124549291906147e1565b50606082015181600301556080820151816004015560a0820151816005019080519060200190612485929190614867565b5060c08201518160060160006101000a81548160ff02191690831515021790555090505050505050565b6000600b54905090565b6000600360009054906101000a900473ffffffffffffffffffffffffffffffffffffffff1673ffffffffffffffffffffffffffffffffffffffff163373ffffffffffffffffffffffffffffffffffffffff161461254b576040517f08c379a0000000000000000000000000000000000000000000000000000000008152600401612542906154e3565b60405180910390fd5b600015156125588561451d565b15151461259a576040517f08c379a000000000000000000000000000000000000000000000000000000000815260040161259190615523565b60405180910390fd5b60006040518060c001604052808581526020018673ffffffffffffffffffffffffffffffffffffffff168152602001846001811115612602577f4e487b7100000000000000000000000000000000000000000000000000000000600052602160045260246000fd5b600181111561263a577f4e487b7100000000000000000000000000000000000000000000000000000000600052602160045260246000fd5b8152602001600081526020016000815260200160011515815250905080600460008773ffffffffffffffffffffffffffffffffffffffff1673ffffffffffffffffffffffffffffffffffffffff16815260200190815260200160002060008201518160000190805190602001906126b29291906147e1565b5060208201518160010160006101000a81548173ffffffffffffffffffffffffffffffffffffffff021916908373ffffffffffffffffffffffffffffffffffffffff16021790555060408201518160010160146101000a81548160ff0219169083600181111561274b577f4e487b7100000000000000000000000000000000000000000000000000000000600052602160045260246000fd5b0217905550606082015181600201556080820151816003015560a08201518160040160006101000a81548160ff0219169083151502179055509050506005859080600181540180825580915050600190039060005260206000200160009091909190916101000a81548173ffffffffffffffffffffffffffffffffffffffff021916908373ffffffffffffffffffffffffffffffffffffffff160217905550600183141561289a5760006040518060a00160405280600081526020016000815260200160008152602001600081526020016000815250905080600a60008873ffffffffffffffffffffffffffffffffffffffff1673ffffffffffffffffffffffffffffffffffffffff1681526020019081526020016000206000820151816000015560208201518160010155604082015181600201556060820151816003015560808201518160040155905050505b60019150509392505050565b600360009054906101000a900473ffffffffffffffffffffffffffffffffffffffff1681565b60606000806000600360009054906101000a900473ffffffffffffffffffffffffffffffffffffffff1673ffffffffffffffffffffffffffffffffffffffff163373ffffffffffffffffffffffffffffffffffffffff1614612963576040517f08c379a000000000000000000000000000000000000000000000000000000000815260040161295a906154e3565b60405180910390fd5b6001151561297086613f65565b1515146129b2576040517f08c379a00000000000000000000000000000000000000000000000000000000081526004016129a990615483565b60405180910390fd5b6000600760008773ffffffffffffffffffffffffffffffffffffffff1673ffffffffffffffffffffffffffffffffffffffff1681526020019081526020016000206040518060e00160405290816000820160009054906101000a900473ffffffffffffffffffffffffffffffffffffffff1673ffffffffffffffffffffffffffffffffffffffff1673ffffffffffffffffffffffffffffffffffffffff168152602001600182018054612a64906157a1565b80601f0160208091040260200160405190810160405280929190818152602001828054612a90906157a1565b8015612add5780601f10612ab257610100808354040283529160200191612add565b820191906000526020600020905b815481529060010190602001808311612ac057829003601f168201915b50505050508152602001600282018054612af6906157a1565b80601f0160208091040260200160405190810160405280929190818152602001828054612b22906157a1565b8015612b6f5780601f10612b4457610100808354040283529160200191612b6f565b820191906000526020600020905b815481529060010190602001808311612b5257829003601f168201915b50505050508152602001600382015481526020016004820154815260200160058201805480602002602001604051908101604052809291908181526020016000905b82821015612c5d578382906000526020600020018054612bd0906157a1565b80601f0160208091040260200160405190810160405280929190818152602001828054612bfc906157a1565b8015612c495780601f10612c1e57610100808354040283529160200191612c49565b820191906000526020600020905b815481529060010190602001808311612c2c57829003601f168201915b505050505081526020019060010190612bb1565b5050505081526020016006820160009054906101000a900460ff161515151581525050905080604001518160000151826060015183608001519450945094509450509193509193565b6060806060600360009054906101000a900473ffffffffffffffffffffffffffffffffffffffff1673ffffffffffffffffffffffffffffffffffffffff163373ffffffffffffffffffffffffffffffffffffffff1614612d3b576040517f08c379a0000000000000000000000000000000000000000000000000000000008152600401612d32906154e3565b60405180910390fd5b60011515612d4888613f65565b151514612d8a576040517f08c379a0000000000000000000000000000000000000000000000000000000008152600401612d8190615483565b60405180910390fd5b6000600760008973ffffffffffffffffffffffffffffffffffffffff1673ffffffffffffffffffffffffffffffffffffffff168152602001908152602001600020905060008060009054906101000a900473ffffffffffffffffffffffffffffffffffffffff1673ffffffffffffffffffffffffffffffffffffffff1663f76f950e83600301546040518263ffffffff1660e01b8152600401612e2d9190615543565b60006040518083038186803b158015612e4557600080fd5b505afa158015612e59573d6000803e3d6000fd5b505050506040513d6000823e3d601f19601f82011682018060405250810190612e829190614d61565b905060008260020182604051602001612e9c929190615181565b604051602081830303815290604052905060006040518060800160405280856003015481526020018b81526020018a6002811115612f03577f4e487b7100000000000000000000000000000000000000000000000000000000600052602160045260246000fd5b6002811115612f3b577f4e487b7100000000000000000000000000000000000000000000000000000000600052602160045260246000fd5b815260200189815250905080600983604051612f579190615146565b9081526020016040518091039020600082015181600001556020820151816001019080519060200190612f8b9291906147e1565b5060408201518160020160006101000a81548160ff02191690836002811115612fdd577f4e487b7100000000000000000000000000000000000000000000000000000000600052602160045260246000fd5b021790555060608201518160030155905050836005018290806001815401808255809150506001900390600052602060002001600090919091909150908051906020019061302c9291906147e1565b5083600301600081548092919061304290615804565b919050555083600760008d73ffffffffffffffffffffffffffffffffffffffff1673ffffffffffffffffffffffffffffffffffffffff1681526020019081526020016000206000820160009054906101000a900473ffffffffffffffffffffffffffffffffffffffff168160000160006101000a81548173ffffffffffffffffffffffffffffffffffffffff021916908373ffffffffffffffffffffffffffffffffffffffff1602179055506001820181600101908054613102906157a1565b61310d9291906148c7565b506002820181600201908054613122906157a1565b61312d9291906148c7565b5060038201548160030155600482015481600401556005820181600501908054613158929190614954565b506006820160009054906101000a900460ff168160060160006101000a81548160ff02191690831515021790555090505083600201828b82805461319b906157a1565b80601f01602080910402602001604051908101604052809291908181526020018280546131c7906157a1565b80156132145780601f106131e957610100808354040283529160200191613214565b820191906000526020600020905b8154815290600101906020018083116131f757829003601f168201915b50505050509250965096509650505050509450945094915050565b600360009054906101000a900473ffffffffffffffffffffffffffffffffffffffff1673ffffffffffffffffffffffffffffffffffffffff163373ffffffffffffffffffffffffffffffffffffffff16146132bf576040517f08c379a00000000000000000000000000000000000000000000000000000000081526004016132b6906154e3565b60405180910390fd5b6000600a60008473ffffffffffffffffffffffffffffffffffffffff1673ffffffffffffffffffffffffffffffffffffffff1681526020019081526020016000206040518060a001604052908160008201548152602001600182015481526020016002820154815260200160038201548152602001600482015481525050905060018214156133635780600001805180919061335a90615804565b815250506133f3565b60028214156133875780602001805180919061337e90615804565b815250506133f2565b60038214156133ab578060400180518091906133a290615804565b815250506133f1565b60048214156133cf578060600180518091906133c690615804565b815250506133f0565b60058214156133ef578060800180518091906133ea90615804565b815250505b5b5b5b5b80600a60008573ffffffffffffffffffffffffffffffffffffffff1673ffffffffffffffffffffffffffffffffffffffff16815260200190815260200160002060008201518160000155602082015181600101556040820151816002015560608201518160030155608082015181600401559050506000600460008573ffffffffffffffffffffffffffffffffffffffff1673ffffffffffffffffffffffffffffffffffffffff1681526020019081526020016000206040518060c00160405290816000820180546134c4906157a1565b80601f01602080910402602001604051908101604052809291908181526020018280546134f0906157a1565b801561353d5780601f106135125761010080835404028352916020019161353d565b820191906000526020600020905b81548152906001019060200180831161352057829003601f168201915b505050505081526020016001820160009054906101000a900473ffffffffffffffffffffffffffffffffffffffff1673ffffffffffffffffffffffffffffffffffffffff1673ffffffffffffffffffffffffffffffffffffffff1681526020016001820160149054906101000a900460ff1660018111156135e7577f4e487b7100000000000000000000000000000000000000000000000000000000600052602160045260246000fd5b600181111561361f577f4e487b7100000000000000000000000000000000000000000000000000000000600052602160045260246000fd5b815260200160028201548152602001600382015481526020016004820160009054906101000a900460ff161515151581525050905060008054906101000a900473ffffffffffffffffffffffffffffffffffffffff1673ffffffffffffffffffffffffffffffffffffffff166344a3878c836000015184602001518560400151866060015187608001516040518663ffffffff1660e01b81526004016136c9959493929190615587565b60206040518083038186803b1580156136e157600080fd5b505afa1580156136f5573d6000803e3d6000fd5b505050506040513d601f19601f820116820180604052508101906137199190614ef4565b81606001818152505080600460008673ffffffffffffffffffffffffffffffffffffffff1673ffffffffffffffffffffffffffffffffffffffff168152602001908152602001600020600082015181600001908051906020019061377e9291906147e1565b5060208201518160010160006101000a81548173ffffffffffffffffffffffffffffffffffffffff021916908373ffffffffffffffffffffffffffffffffffffffff16021790555060408201518160010160146101000a81548160ff02191690836001811115613817577f4e487b7100000000000000000000000000000000000000000000000000000000600052602160045260246000fd5b0217905550606082015181600201556080820151816003015560a08201518160040160006101000a81548160ff02191690831515021790555090505050505050565b6060600060606000600360009054906101000a900473ffffffffffffffffffffffffffffffffffffffff1673ffffffffffffffffffffffffffffffffffffffff163373ffffffffffffffffffffffffffffffffffffffff16146138f1576040517f08c379a00000000000000000000000000000000000000000000000000000000081526004016138e8906154e3565b60405180910390fd5b600115156138fe8861451d565b151514613940576040517f08c379a0000000000000000000000000000000000000000000000000000000008152600401613937906154a3565b60405180910390fd5b600080600760008973ffffffffffffffffffffffffffffffffffffffff1673ffffffffffffffffffffffffffffffffffffffff1681526020019081526020016000206040518060e00160405290816000820160009054906101000a900473ffffffffffffffffffffffffffffffffffffffff1673ffffffffffffffffffffffffffffffffffffffff1673ffffffffffffffffffffffffffffffffffffffff1681526020016001820180546139f3906157a1565b80601f0160208091040260200160405190810160405280929190818152602001828054613a1f906157a1565b8015613a6c5780601f10613a4157610100808354040283529160200191613a6c565b820191906000526020600020905b815481529060010190602001808311613a4f57829003601f168201915b50505050508152602001600282018054613a85906157a1565b80601f0160208091040260200160405190810160405280929190818152602001828054613ab1906157a1565b8015613afe5780601f10613ad357610100808354040283529160200191613afe565b820191906000526020600020905b815481529060010190602001808311613ae157829003601f168201915b50505050508152602001600382015481526020016004820154815260200160058201805480602002602001604051908101604052809291908181526020016000905b82821015613bec578382906000526020600020018054613b5f906157a1565b80601f0160208091040260200160405190810160405280929190818152602001828054613b8b906157a1565b8015613bd85780601f10613bad57610100808354040283529160200191613bd8565b820191906000526020600020905b815481529060010190602001808311613bbb57829003601f168201915b505050505081526020019060010190613b40565b5050505081526020016006820160009054906101000a900460ff161515151581525050905060008160a00151905060006009828a81518110613c57577f4e487b7100000000000000000000000000000000000000000000000000000000600052603260045260246000fd5b6020026020010151604051613c6c9190615146565b908152602001604051809103902060405180608001604052908160008201548152602001600182018054613c9f906157a1565b80601f0160208091040260200160405190810160405280929190818152602001828054613ccb906157a1565b8015613d185780601f10613ced57610100808354040283529160200191613d18565b820191906000526020600020905b815481529060010190602001808311613cfb57829003601f168201915b505050505081526020016002820160009054906101000a900460ff166002811115613d6c577f4e487b7100000000000000000000000000000000000000000000000000000000600052602160045260246000fd5b6002811115613da4577f4e487b7100000000000000000000000000000000000000000000000000000000600052602160045260246000fd5b81526020016003820154815250509050806060015184613dc4919061566c565b9350600084905060008054906101000a900473ffffffffffffffffffffffffffffffffffffffff1673ffffffffffffffffffffffffffffffffffffffff16636560951682600c546040518363ffffffff1660e01b8152600401613e2892919061555e565b60206040518083038186803b158015613e4057600080fd5b505afa158015613e54573d6000803e3d6000fd5b505050506040513d601f19601f82011682018060405250810190613e789190614ef4565b85613e83919061566c565b945060008054906101000a900473ffffffffffffffffffffffffffffffffffffffff1673ffffffffffffffffffffffffffffffffffffffff1663221c9cfe82600d546040518363ffffffff1660e01b8152600401613ee292919061555e565b60206040518083038186803b158015613efa57600080fd5b505afa158015613f0e573d6000803e3d6000fd5b505050506040513d601f19601f82011682018060405250810190613f329190614ef4565b85613f3d919061566c565b9450836040015184600001518360200151879850985098509850505050505093509350935093565b600080600760008473ffffffffffffffffffffffffffffffffffffffff1673ffffffffffffffffffffffffffffffffffffffff1681526020019081526020016000206040518060e00160405290816000820160009054906101000a900473ffffffffffffffffffffffffffffffffffffffff1673ffffffffffffffffffffffffffffffffffffffff1673ffffffffffffffffffffffffffffffffffffffff168152602001600182018054614018906157a1565b80601f0160208091040260200160405190810160405280929190818152602001828054614044906157a1565b80156140915780601f1061406657610100808354040283529160200191614091565b820191906000526020600020905b81548152906001019060200180831161407457829003601f168201915b505050505081526020016002820180546140aa906157a1565b80601f01602080910402602001604051908101604052809291908181526020018280546140d6906157a1565b80156141235780601f106140f857610100808354040283529160200191614123565b820191906000526020600020905b81548152906001019060200180831161410657829003601f168201915b50505050508152602001600382015481526020016004820154815260200160058201805480602002602001604051908101604052809291908181526020016000905b82821015614211578382906000526020600020018054614184906157a1565b80601f01602080910402602001604051908101604052809291908181526020018280546141b0906157a1565b80156141fd5780601f106141d2576101008083540402835291602001916141fd565b820191906000526020600020905b8154815290600101906020018083116141e057829003601f168201915b505050505081526020019060010190614165565b5050505081526020016006820160009054906101000a900460ff16151515158152505090508060c00151915050919050565b60608160ff166002811115614281577f4e487b7100000000000000000000000000000000000000000000000000000000600052602160045260246000fd5b60028111156142b9577f4e487b7100000000000000000000000000000000000000000000000000000000600052602160045260246000fd5b600060028111156142f3577f4e487b7100000000000000000000000000000000000000000000000000000000600052602160045260246000fd5b1415614336576040518060400160405280600981526020017f4170706574697a657200000000000000000000000000000000000000000000008152509050614518565b8160ff166002811115614372577f4e487b7100000000000000000000000000000000000000000000000000000000600052602160045260246000fd5b60028111156143aa577f4e487b7100000000000000000000000000000000000000000000000000000000600052602160045260246000fd5b600160028111156143e4577f4e487b7100000000000000000000000000000000000000000000000000000000600052602160045260246000fd5b1415614427576040518060400160405280600481526020017f4d61696e000000000000000000000000000000000000000000000000000000008152509050614518565b8160ff166002811115614463577f4e487b7100000000000000000000000000000000000000000000000000000000600052602160045260246000fd5b600281111561449b577f4e487b7100000000000000000000000000000000000000000000000000000000600052602160045260246000fd5b6002808111156144d4577f4e487b7100000000000000000000000000000000000000000000000000000000600052602160045260246000fd5b1415614517576040518060400160405280600681526020017f44657365727400000000000000000000000000000000000000000000000000008152509050614518565b5b919050565b600080600090505b6005805490508160ff1610156145ed578273ffffffffffffffffffffffffffffffffffffffff1660058260ff1681548110614589577f4e487b7100000000000000000000000000000000000000000000000000000000600052603260045260246000fd5b9060005260206000200160009054906101000a900473ffffffffffffffffffffffffffffffffffffffff1673ffffffffffffffffffffffffffffffffffffffff1614156145da5760019150506145f3565b80806145e59061584d565b915050614525565b50600090505b919050565b60608160ff166001811115614636577f4e487b7100000000000000000000000000000000000000000000000000000000600052602160045260246000fd5b600181111561466e577f4e487b7100000000000000000000000000000000000000000000000000000000600052602160045260246000fd5b600060018111156146a8577f4e487b7100000000000000000000000000000000000000000000000000000000600052602160045260246000fd5b14156146eb576040518060400160405280600881526020017f437573746f6d657200000000000000000000000000000000000000000000000081525090506147dc565b8160ff166001811115614727577f4e487b7100000000000000000000000000000000000000000000000000000000600052602160045260246000fd5b600181111561475f577f4e487b7100000000000000000000000000000000000000000000000000000000600052602160045260246000fd5b600180811115614798577f4e487b7100000000000000000000000000000000000000000000000000000000600052602160045260246000fd5b14156147db576040518060400160405280600881526020017f44656c697665727900000000000000000000000000000000000000000000000081525090506147dc565b5b919050565b8280546147ed906157a1565b90600052602060002090601f01602090048101928261480f5760008555614856565b82601f1061482857805160ff1916838001178555614856565b82800160010185558215614856579182015b8281111561485557825182559160200191906001019061483a565b5b50905061486391906149bc565b5090565b8280548282559060005260206000209081019282156148b6579160200282015b828111156148b55782518290805190602001906148a59291906147e1565b5091602001919060010190614887565b5b5090506148c391906149d9565b5090565b8280546148d3906157a1565b90600052602060002090601f0160209004810192826148f55760008555614943565b82601f106149065780548555614943565b8280016001018555821561494357600052602060002091601f016020900482015b82811115614942578254825591600101919060010190614927565b5b50905061495091906149bc565b5090565b8280548282559060005260206000209081019282156149ab5760005260206000209182015b828111156149aa57828290805461498f906157a1565b61499a9291906148c7565b5091600101919060010190614979565b5b5090506149b891906149d9565b5090565b5b808211156149d55760008160009055506001016149bd565b5090565b5b808211156149f957600081816149f091906149fd565b506001016149da565b5090565b508054614a09906157a1565b6000825580601f10614a1b5750614a3a565b601f016020900490600052602060002090810190614a3991906149bc565b5b50565b6000614a50614a4b846155ff565b6155da565b905082815260208101848484011115614a6857600080fd5b614a7384828561575f565b509392505050565b6000614a8e614a89846155ff565b6155da565b905082815260208101848484011115614aa657600080fd5b614ab184828561576e565b509392505050565b600081359050614ac881615acc565b92915050565b600082601f830112614adf57600080fd5b8135614aef848260208601614a3d565b91505092915050565b600082601f830112614b0957600080fd5b8151614b19848260208601614a7b565b91505092915050565b600081359050614b3181615ae3565b92915050565b600081519050614b4681615ae3565b92915050565b600060208284031215614b5e57600080fd5b6000614b6c84828501614ab9565b91505092915050565b600080600060608486031215614b8a57600080fd5b6000614b9886828701614ab9565b9350506020614ba986828701614ab9565b9250506040614bba86828701614b22565b9150509250925092565b600080600060608486031215614bd957600080fd5b6000614be786828701614ab9565b935050602084013567ffffffffffffffff811115614c0457600080fd5b614c1086828701614ace565b925050604084013567ffffffffffffffff811115614c2d57600080fd5b614c3986828701614ace565b9150509250925092565b600080600060608486031215614c5857600080fd5b6000614c6686828701614ab9565b935050602084013567ffffffffffffffff811115614c8357600080fd5b614c8f86828701614ace565b9250506040614ca086828701614b22565b9150509250925092565b60008060008060808587031215614cc057600080fd5b6000614cce87828801614ab9565b945050602085013567ffffffffffffffff811115614ceb57600080fd5b614cf787828801614ace565b9350506040614d0887828801614b22565b9250506060614d1987828801614b22565b91505092959194509250565b60008060408385031215614d3857600080fd5b6000614d4685828601614ab9565b9250506020614d5785828601614b22565b9150509250929050565b600060208284031215614d7357600080fd5b600082015167ffffffffffffffff811115614d8d57600080fd5b614d9984828501614af8565b91505092915050565b600080600080600060a08688031215614dba57600080fd5b600086013567ffffffffffffffff811115614dd457600080fd5b614de088828901614ace565b9550506020614df188828901614ab9565b9450506040614e0288828901614ab9565b935050606086013567ffffffffffffffff811115614e1f57600080fd5b614e2b88828901614ace565b9250506080614e3c88828901614b22565b9150509295509295909350565b60008060008060808587031215614e5f57600080fd5b600085015167ffffffffffffffff811115614e7957600080fd5b614e8587828801614af8565b945050602085015167ffffffffffffffff811115614ea257600080fd5b614eae87828801614af8565b9350506040614ebf87828801614b37565b925050606085015167ffffffffffffffff811115614edc57600080fd5b614ee887828801614af8565b91505092959194509250565b600060208284031215614f0657600080fd5b6000614f1484828501614b37565b91505092915050565b614f26816156c2565b82525050565b614f35816156d4565b82525050565b614f4481615717565b82525050565b614f538161573b565b82525050565b6000614f6482615645565b614f6e8185615650565b9350614f7e81856020860161576e565b614f8781615904565b840191505092915050565b6000614f9d82615645565b614fa78185615661565b9350614fb781856020860161576e565b80840191505092915050565b60008154614fd0816157a1565b614fda8186615661565b94506001821660008114614ff5576001811461500657615039565b60ff19831686528186019350615039565b61500f85615630565b60005b8381101561503157815481890152600182019150602081019050615012565b838801955050505b50505092915050565b600061504f601583615650565b915061505a82615915565b602082019050919050565b6000615072601d83615650565b915061507d8261593e565b602082019050919050565b6000615095602783615650565b91506150a082615967565b604082019050919050565b60006150b8603c83615650565b91506150c3826159b6565b604082019050919050565b60006150db603883615650565b91506150e682615a05565b604082019050919050565b60006150fe602183615650565b915061510982615a54565b604082019050919050565b6000615121601783615650565b915061512c82615aa3565b602082019050919050565b61514081615700565b82525050565b60006151528284614f92565b915081905092915050565b60006151698285614f92565b91506151758284614f92565b91508190509392505050565b600061518d8285614fc3565b91506151998284614f92565b91508190509392505050565b60006020820190506151ba6000830184614f1d565b92915050565b60006020820190506151d56000830184614f2c565b92915050565b60006020820190506151f06000830184614f3b565b92915050565b600060208201905061520b6000830184614f4a565b92915050565b6000602082019050818103600083015261522b8184614f59565b905092915050565b6000608082019050818103600083015261524d8187614f59565b905061525c6020830186614f1d565b818103604083015261526e8185614f59565b905061527d6060830184615137565b95945050505050565b600060808201905081810360008301526152a08187614f59565b90506152af6020830186614f1d565b6152bc6040830185615137565b6152c96060830184615137565b95945050505050565b600060c08201905081810360008301526152ec8189614f59565b905081810360208301526153008188614f59565b905061530f6040830187614f1d565b61531c6060830186614f1d565b818103608083015261532e8185614f59565b905061533d60a0830184615137565b979650505050505050565b600060608201905081810360008301526153628186614f59565b905081810360208301526153768185614f59565b9050818103604083015261538a8184614f59565b9050949350505050565b600060608201905081810360008301526153ae8186614f59565b905081810360208301526153c28185614f59565b90506153d16040830184615137565b949350505050565b600060808201905081810360008301526153f38187614f59565b905081810360208301526154078186614f59565b90506154166040830185615137565b81810360608301526154288184614f59565b905095945050505050565b6000604082019050818103600083015261544d8185614f59565b905061545c6020830184615137565b9392505050565b6000602082019050818103600083015261547c81615042565b9050919050565b6000602082019050818103600083015261549c81615065565b9050919050565b600060208201905081810360008301526154bc81615088565b9050919050565b600060208201905081810360008301526154dc816150ab565b9050919050565b600060208201905081810360008301526154fc816150ce565b9050919050565b6000602082019050818103600083015261551c816150f1565b9050919050565b6000602082019050818103600083015261553c81615114565b9050919050565b60006020820190506155586000830184615137565b92915050565b60006040820190506155736000830185615137565b6155806020830184615137565b9392505050565b600060a08201905061559c6000830188615137565b6155a96020830187615137565b6155b66040830186615137565b6155c36060830185615137565b6155d06080830184615137565b9695505050505050565b60006155e46155f5565b90506155f082826157d3565b919050565b6000604051905090565b600067ffffffffffffffff82111561561a576156196158d5565b5b61562382615904565b9050602081019050919050565b60008190508160005260206000209050919050565b600081519050919050565b600082825260208201905092915050565b600081905092915050565b600061567782615700565b915061568283615700565b9250827fffffffffffffffffffffffffffffffffffffffffffffffffffffffffffffffff038211156156b7576156b6615877565b5b828201905092915050565b60006156cd826156e0565b9050919050565b60008115159050919050565b600073ffffffffffffffffffffffffffffffffffffffff82169050919050565b6000819050919050565b600060ff82169050919050565b600061572282615729565b9050919050565b6000615734826156e0565b9050919050565b60006157468261574d565b9050919050565b6000615758826156e0565b9050919050565b82818337600083830152505050565b60005b8381101561578c578082015181840152602081019050615771565b8381111561579b576000848401525b50505050565b600060028204905060018216806157b957607f821691505b602082108114156157cd576157cc6158a6565b5b50919050565b6157dc82615904565b810181811067ffffffffffffffff821117156157fb576157fa6158d5565b5b80604052505050565b600061580f82615700565b91507fffffffffffffffffffffffffffffffffffffffffffffffffffffffffffffffff82141561584257615841615877565b5b600182019050919050565b60006158588261570a565b915060ff82141561586c5761586b615877565b5b600182019050919050565b7f4e487b7100000000000000000000000000000000000000000000000000000000600052601160045260246000fd5b7f4e487b7100000000000000000000000000000000000000000000000000000000600052602260045260246000fd5b7f4e487b7100000000000000000000000000000000000000000000000000000000600052604160045260246000fd5b6000601f19601f8301169050919050565b7f557365722064617461206e6f7420666f756e6421200000000000000000000000600082015250565b7f52657374617572616e74206973206e6f7420726567697374657265642e000000600082015250565b7f55736572206d757374207265676973746572206265666f726520706c6163696e60008201527f67206f7264657200000000000000000000000000000000000000000000000000602082015250565b7f466f6f6469657a20526567697374726174696f6e202d20506172656e7420616c60008201527f7265616479207365742e2043616e6e6f74206265204368616e67656400000000602082015250565b7f466f6f6469657a20526567697374726174696f6e202d204f6e6c79204f776e6560008201527f722063616e2063616c6c20746869732066756e6374696f6e0000000000000000602082015250565b7f52657374617572616e7420697320616c7265616479207265676973746572656460008201527f2e00000000000000000000000000000000000000000000000000000000000000602082015250565b7f5573657220416c72656164792072656769737465726564000000000000000000600082015250565b615ad5816156c2565b8114615ae057600080fd5b50565b615aec81615700565b8114615af757600080fd5b5056fe466f6f6469657a204f726465727320706172656e7420636f6e74726163742061646472657373207365742ea264697066735822122020666ac978622fc28e1826b0a14d478733e26faf48e5bd3c4ece4a1f64e5fcf264736f6c63430008010033",
  "immutableReferences": {},
  "source": "pragma solidity 0.8.1;\n// pragma solidity 0.7.6;\n// \"SPDX-License-Identifier: UNLICENSED\"\n\nimport \"./helpers_interface.sol\";\nimport \"./orders_interface.sol\";\n\n\ncontract FoodiezRegistration {\n    \n    // FoodiezHelpers public _foodiezHelpers;\n    // FoodiezOrders public _foodiezOrders;\n    FoodiezHelpersInterface public _foodiezHelpers;\n    FoodiezOrdersInterface public _foodiezOrders;\n\n    address ownerAddress;\n\n    address public parentContractAddress;\n    bool isParentContractSet = false;\n    \n    constructor(FoodiezHelpersInterface _helperAddress, FoodiezOrdersInterface _orderAddress) {\n        ownerAddress = msg.sender;\n        _foodiezHelpers = _helperAddress;\n        _foodiezOrders = _orderAddress;\n        \n        _foodiezOrders.setRegisterContract(address(this));\n    }\n    \n    \n    /************User and mapping**********************/\n    enum UserType { Customer, Delivery } // 0 , 1\n    struct User {\n        string name;\n        address userID;\n        UserType usrType;\n        uint rating;\n        uint256 tokens;\n        bool isRegistered;\n    }\n     \n    // address to registered user mapping.\n    mapping(address => User) registeredUserMapping;\n    address[] RegisteredUserAddresses;\n    \n    /************Restaurant and mapping**********************/\n    struct Restaurant {\n        address restaurantAddress;\n        string name;\n        string rId;\n        uint noOfItems;\n        uint rating;\n        string[] itemNames;\n        bool isRegistered;\n    } \n    \n    enum MenuType { Appetizer, Main, Desert }\n    struct MenuItem{\n        uint itemNum;\n        string name;\n        MenuType itemType;\n        uint256 price;\n    }\n    \n    struct Rating{\n        uint oneStar;\n        uint twoStar;\n        uint threeStar;\n        uint fourStar;\n        uint fiveStar;\n    } \n    \n    address[] RestaurantCount;\n    \n    mapping(address => Restaurant) RestaurantMapping;\n    mapping(address => Rating) RestaurantRating;\n    mapping(string => MenuItem) RestaurantMenuItems; // restaurantIds to menu items\n    mapping(address => Rating) DriverRating;\n    \n    uint256 orderTotalCount = 0;\n     \n    uint NetworkServiceFee = 2;\n    uint DeliveryFlatFee = 2;\n    \n    /************Modifiers *************************************************/\n    modifier OnlyParent(){\n        require(msg.sender == parentContractAddress, \"Foodiez Registration - Only Owner can call this function\");\n        _; // this underscore is requierd otherwise compiler will break;\n    }\n\n    modifier OnlyOwner(){\n        require(msg.sender == ownerAddress, \"Foodiez Registration - Only Owner can call this function\");\n        _; // this underscore is requierd otherwise compiler will break;\n    }\n\n    modifier isDeliveryCheck(){\n        User memory u = registeredUserMapping[msg.sender];\n        require(uint(UserType(u.usrType))== 1, \"User is not a Delivery agent. Only Delivery agents can be assigned food order.\");\n        \n        _;\n    }\n    \n    /************Address setters for helper / order contracts *************************************************/\n    function setParentContract(address _address) public OnlyOwner returns(string memory) {\n        require(isParentContractSet == false,\"Foodiez Registration - Parent already set. Cannot be Changed\");\n        parentContractAddress = _address;\n        isParentContractSet = true;\n        \n        return(\"Foodiez Orders parent contract address set.\");\n    }\n\n    /************User and Restaurant***********************************************/\n    \n    // User Registration\n    function userRegistration(address _address, string memory name, uint uType) public OnlyParent returns (bool) {\n         require(isUserRegistered(_address) == false, \"User Already registered\");\n        \n        // task: check is user is already registered, is yes then return message already registered\n         \n        User memory u = User(name, _address, UserType(uType), 0, 0, true);\n        registeredUserMapping[_address] = u;\n        RegisteredUserAddresses.push(_address);\n        \n        if(uType == 1){\n            // Create default ratings for delivery\n            Rating memory rating = Rating(0,0,0,0,0);\n            DriverRating[_address] = rating;\n        } \n        \n        return true;\n     }\n     \n    function getUserInfo(address _address) public OnlyParent view returns(string memory, address, string memory, uint ){\n        require(isUserRegistered(_address) == true, \"User data not found! \");\n        \n        User memory usr = registeredUserMapping[_address];\n         \n        return(usr.name, usr.userID, getUserTypeFriendly(uint8(usr.usrType)), usr.rating);\n         \n     }\n    \n    // Restaurant and Items Registration \n    function createRestaurant(address _address, string memory _name, string memory _rId) public OnlyParent returns(bool) {\n        require(isRestaurantRegistered(_address) == false, \"Restaurant is already registered.\");\n        \n        // Create new Restaurant\n        string[] memory itemNames; // init for empty array;\n        Restaurant memory m = Restaurant(_address, _name, _rId, 0, 0, itemNames,true);\n        \n        RestaurantMapping[_address] = m;\n        RestaurantCount.push(_address);\n        \n        // Create default ratings for Restaurant\n        Rating memory rating = Rating(0,0,0,0,0);\n        RestaurantRating[_address] = rating;\n        \n        return true;\n    }\n    \n    function addMenuItems(address _address, string memory _itemName, uint _type, uint _price) public OnlyParent returns (string memory, string memory, string memory) {\n        // only allowed by restaurants address that are already registered.\n        require(isRestaurantRegistered(_address) == true, \"Restaurant is not registered.\");\n        \n        Restaurant storage rest = RestaurantMapping[_address];\n        \n        // create unique id from itemName and num ( itemNumberCount)\n        string memory uni = _foodiezHelpers.uint2str(rest.noOfItems);\n        string memory uniqueId = string(abi.encodePacked(rest.rId, uni));\n        \n        MenuItem memory mItem = MenuItem(rest.noOfItems, _itemName, MenuType(_type), _price);\n        \n        RestaurantMenuItems[uniqueId] = mItem;\n        rest.itemNames.push(uniqueId);\n        rest.noOfItems++;\n        RestaurantMapping[_address] = rest;\n        \n        return (rest.rId, uniqueId, _itemName);\n    }\n    \n    function getRestaurantMenu(address _restaurantAddress, uint _itemNumber) public OnlyParent view returns(string memory, string memory, uint){\n        require(isRestaurantRegistered(_restaurantAddress) == true, \"Restaurant is not registered.\");\n        \n        Restaurant memory rest = RestaurantMapping[_restaurantAddress];\n        \n        string[] memory menuItems = rest.itemNames;\n        \n        MenuItem memory item = RestaurantMenuItems[menuItems[_itemNumber]];\n        return(item.name, getMenuTypeFriendly(uint8(item.itemType)) , item.price);\n        \n    }\n    \n    function getrestaurantInfo(address _restaurantAddress) public OnlyParent view returns(string memory, address, uint, uint){\n        require(isRestaurantRegistered(_restaurantAddress) == true, \"Restaurant is not registered.\");\n        \n        Restaurant memory rest = RestaurantMapping[_restaurantAddress];\n        return(rest.rId, rest.restaurantAddress, rest.noOfItems, rest.rating);\n    }\n    \n    /*************Orders Functions********************************************************************/\n    function getOrderTotal(address _userAddress, address _address, uint _itemNum) public view OnlyParent returns(string memory, address, string memory, uint){\n        require(isUserRegistered(_userAddress) == true, \"User must register before placing order\");\n        uint totalPrice = 0;\n        // get restaurant\n        Restaurant memory rest = RestaurantMapping[_address];\n        \n        string[] memory menuItems = rest.itemNames;\n        MenuItem memory m = RestaurantMenuItems[menuItems[_itemNum]];\n        \n        totalPrice += m.price;\n        // calculate total bill\n        uint tempTotal = totalPrice;\n        totalPrice += _foodiezHelpers.calcServiceFee(tempTotal, NetworkServiceFee);\n        totalPrice += _foodiezHelpers.calcDriverFlatFee(tempTotal, DeliveryFlatFee);\n        \n        return ( rest.rId, rest.restaurantAddress, m.name, totalPrice);\n    }\n    \n    function createFoodOrder(string memory rId, address userAddress, address restaurantAddress, string memory itemName, uint totalPrice) public payable returns (string memory, string memory, uint, string memory){\n        \n        /****** create unique userOrderId*****/\n        // get user data \n        User memory _regUser = registeredUserMapping[msg.sender];\n        \n        string memory orderNumString = _foodiezHelpers.uint2str(orderTotalCount);\n        string memory uniqueUserOrderId = string(abi.encodePacked(_regUser.name, orderNumString));\n        orderTotalCount++;\n        \n        return _foodiezOrders.createFoodOrderEntry(uniqueUserOrderId, rId, restaurantAddress, userAddress, itemName, totalPrice);\n        \n    }\n    \n    function addRestaurantRating(address _restaurantAddress, uint _restaurantRating) public OnlyParent {\n        Rating memory r = RestaurantRating[_restaurantAddress];\n        \n        if(_restaurantRating == 1){\n            r.oneStar++;\n        }else if(_restaurantRating == 2){\n            r.twoStar++;\n        }else if(_restaurantRating == 3){\n            r.threeStar++;\n        }else if(_restaurantRating == 4){\n            r.fourStar++;\n        }else if(_restaurantRating == 5){\n            r.fiveStar++;\n        }\n        \n        // calculate the weighted average\n        RestaurantRating[_restaurantAddress] = r;\n        \n        Restaurant memory res = RestaurantMapping[_restaurantAddress];\n        res.rating = _foodiezHelpers.calcWeightedAvg(r.oneStar, r.twoStar, r.threeStar, r.fourStar, r.fiveStar);\n        RestaurantMapping[_restaurantAddress] = res;\n    }\n    \n    function addDriverRating(address _address, uint _deliveryRating) public OnlyParent {\n        Rating memory r = DriverRating[_address];\n         \n        if(_deliveryRating == 1){\n            r.oneStar++;\n        }else if(_deliveryRating == 2){\n            r.twoStar++;\n        }else if(_deliveryRating == 3){\n            r.threeStar++;\n        }else if(_deliveryRating == 4){\n            r.fourStar++;\n        }else if(_deliveryRating == 5){\n            r.fiveStar++;\n        }\n\n        DriverRating[_address] = r;\n         \n        User memory usr = registeredUserMapping[_address];\n        usr.rating = _foodiezHelpers.calcWeightedAvg(r.oneStar, r.twoStar, r.threeStar, r.fourStar, r.fiveStar);\n        registeredUserMapping[_address] = usr;\n    }\n    \n    \n    /*************Registration Helpers********************************************************************/\n    function isUserRegistered( address _address) internal view returns (bool) {\n         \n        for( uint8 j = 0; j < RegisteredUserAddresses.length; j++){\n             \n            if(RegisteredUserAddresses[j] == _address){\n                return (true); // user is registered.\n            }\n        }\n        return (false); // user is not registered.\n    }\n    \n    function checkUserDelivery(address _address) public view returns (bool){\n        User memory u = registeredUserMapping[_address];\n        \n        if(uint(UserType(u.usrType))== 1) return true;\n        \n        return false;\n    }\n    \n    function isRestaurantRegistered ( address _address) internal view returns (bool) {\n        Restaurant memory m = RestaurantMapping[_address];\n        \n        return (m.isRegistered);\n    }\n    \n    // function getrestaurantInfo()\n    \n    function getItemInfo(address _restaurantAddress, uint _itemNumber) public view returns(string memory, uint){\n        require(isRestaurantRegistered(_restaurantAddress) == true, \"Restaurant is not registered.\");\n        \n        Restaurant memory rest = RestaurantMapping[_restaurantAddress];\n        \n        string[] memory menuItems = rest.itemNames;\n        \n        MenuItem memory item = RestaurantMenuItems[menuItems[_itemNumber]];\n        return(item.name, item.price);\n    }\n    \n    function getOrderCount() public view returns(uint){\n        return orderTotalCount;\n    }\n    \n    function incrementOrderCount() public {\n        orderTotalCount++;\n    }\n    \n    function getUserTypeFriendly(uint8 _usrType) internal pure returns (string memory userType) {\n        \n        if(UserType.Customer == UserType(_usrType) ) return \"Customer\";\n        if(UserType.Delivery == UserType(_usrType)) return \"Delivery\";\n    }\n    \n    function getMenuTypeFriendly(uint8 _menuType) internal pure returns (string memory userType) {\n        \n        if(MenuType.Appetizer == MenuType(_menuType) ) return \"Appetizer\";\n        if(MenuType.Main == MenuType(_menuType) ) return \"Main\";\n        if(MenuType.Desert == MenuType(_menuType)) return \"Desert\";\n    }\n    \n}",
  "sourcePath": "/home/dinesh/Blockchain-Projects/EthereumSolidityProject/contracts/registration.sol",
  "compiler": {
    "name": "solc",
    "version": "0.8.1+commit.df193b15.Emscripten.clang"
  },
  "schemaVersion": "3.3.3",
  "updatedAt": "2021-03-26T00:48:46.940Z",
  "devdoc": {
    "kind": "dev",
    "methods": {},
    "version": 1
  },
  "userdoc": {
    "kind": "user",
    "methods": {},
    "version": 1
  }
}