{
  "contractName": "FoodiezHelpers",
  "abi": [
    {
      "inputs": [
        {
          "internalType": "uint256",
          "name": "_i",
          "type": "uint256"
        }
      ],
      "name": "uint2str",
      "outputs": [
        {
          "internalType": "string",
          "name": "_uintAsString",
          "type": "string"
        }
      ],
      "stateMutability": "pure",
      "type": "function",
      "constant": true
    },
    {
      "inputs": [
        {
          "internalType": "uint256",
          "name": "_amount",
          "type": "uint256"
        },
        {
          "internalType": "uint256",
          "name": "_networkServiceFee",
          "type": "uint256"
        }
      ],
      "name": "calcServiceFee",
      "outputs": [
        {
          "internalType": "uint256",
          "name": "",
          "type": "uint256"
        }
      ],
      "stateMutability": "pure",
      "type": "function",
      "constant": true
    },
    {
      "inputs": [
        {
          "internalType": "uint256",
          "name": "_amount",
          "type": "uint256"
        },
        {
          "internalType": "uint256",
          "name": "_driverFlatFee",
          "type": "uint256"
        }
      ],
      "name": "calcDriverFlatFee",
      "outputs": [
        {
          "internalType": "uint256",
          "name": "",
          "type": "uint256"
        }
      ],
      "stateMutability": "pure",
      "type": "function",
      "constant": true
    },
    {
      "inputs": [
        {
          "internalType": "uint256",
          "name": "oneStar",
          "type": "uint256"
        },
        {
          "internalType": "uint256",
          "name": "twoStar",
          "type": "uint256"
        },
        {
          "internalType": "uint256",
          "name": "threeStar",
          "type": "uint256"
        },
        {
          "internalType": "uint256",
          "name": "fourStar",
          "type": "uint256"
        },
        {
          "internalType": "uint256",
          "name": "fiveStar",
          "type": "uint256"
        }
      ],
      "name": "calcWeightedAvg",
      "outputs": [
        {
          "internalType": "uint256",
          "name": "",
          "type": "uint256"
        }
      ],
      "stateMutability": "pure",
      "type": "function",
      "constant": true
    }
  ],
  "bytecode": "0x608060405234801561001057600080fd5b506103e9806100206000396000f3fe608060405234801561001057600080fd5b506004361061004c5760003560e01c8063221c9cfe1461005157806344a3878c1461009d5780636560951614610107578063f76f950e14610153575b600080fd5b6100876004803603604081101561006757600080fd5b8101908080359060200190929190803590602001909291905050506101fa565b6040518082815260200191505060405180910390f35b6100f1600480360360a08110156100b357600080fd5b810190808035906020019092919080359060200190929190803590602001909291908035906020019092919080359060200190929190505050610211565b6040518082815260200191505060405180910390f35b61013d6004803603604081101561011d57600080fd5b810190808035906020019092919080359060200190929190505050610258565b6040518082815260200191505060405180910390f35b61017f6004803603602081101561016957600080fd5b810190808035906020019092919050505061026f565b6040518080602001828103825283818151815260200191508051906020019080838360005b838110156101bf5780820151818401526020810190506101a4565b50505050905090810190601f1680156101ec5780820380516001836020036101000a031916815260200191505b509250505060405180910390f35b600060648284028161020857fe5b04905092915050565b600080826005028460040286600302886002028a6001020101010190506000838587898b010101019050600081838161024657fe5b04905080935050505095945050505050565b600060648284028161026657fe5b04905092915050565b606060008214156102b7576040518060400160405280600181526020017f300000000000000000000000000000000000000000000000000000000000000081525090506103ae565b600082905060005b600082146102e1578080600101915050600a82816102d957fe5b0491506102bf565b60008167ffffffffffffffff811180156102fa57600080fd5b506040519080825280601f01601f19166020018201604052801561032d5781602001600182028036833780820191505090505b50905060006001830390505b600086146103a657600a868161034b57fe5b0660300160f81b8282806001900393508151811061036557fe5b60200101907effffffffffffffffffffffffffffffffffffffffffffffffffffffffffffff1916908160001a905350600a868161039e57fe5b049550610339565b819450505050505b91905056fea264697066735822122096ac523c54e89c2d1ed19b24a9c4394853dbc087c05b12e4280993c9a200990364736f6c63430007060033",
  "immutableReferences": {},
  "source": "pragma solidity 0.7.6;\n// \"SPDX-License-Identifier: UNLICENSED\"\n\ncontract FoodiezHelpers{\n    \n    function uint2str(uint _i) public pure returns (string memory _uintAsString) {\n        if (_i == 0) {\n        return \"0\";\n        }\n        \n        uint j = _i;\n        uint len;\n        \n        while (j != 0) {\n            len++;\n            j /= 10;\n        }\n        bytes memory bstr = new bytes(len);\n        uint k = len - 1;\n        while (_i != 0) {\n            bstr[k--] = byte(uint8(48 + _i % 10));\n            _i /= 10;\n        }\n        return string(bstr);\n    }\n    \n    // functions to calculate service fee and driver fee\n    function calcServiceFee(uint _amount, uint _networkServiceFee) public pure returns(uint){\n        \n        // uint serviceFeePercentage = NetworkServiceFee /100;\n        \n        return (_amount * _networkServiceFee) / 100;\n        \n    }\n    \n    function calcDriverFlatFee(uint _amount, uint _driverFlatFee) public pure returns(uint){\n        \n        // uint driverFeePercentage = DriverFlatFee /100;\n        \n        return (_amount * _driverFlatFee) / 100;\n        \n    }\n    \n    function calcWeightedAvg(uint oneStar, uint twoStar, uint threeStar, uint fourStar, uint fiveStar) public pure returns (uint){\n        uint weightPerRating = 1*oneStar + 2*twoStar + 3*threeStar + 4*fourStar + 5*fiveStar;\n        uint totalRatingCount = oneStar + twoStar + threeStar + fourStar + fiveStar;\n        uint averageRating = weightPerRating / totalRatingCount;\n        \n        return averageRating;\n        \n    }\n}",
  "sourcePath": "/home/dinesh/Blockchain-Projects/Foodiez-Project/contracts/helpers.sol",
  "compiler": {
    "name": "solc",
    "version": "0.7.6+commit.7338295f.Emscripten.clang"
  },
  "schemaVersion": "3.3.3",
  "updatedAt": "2021-03-23T17:16:04.663Z",
  "networkType": "ethereum",
  "devdoc": {
    "kind": "dev",
    "methods": {},
    "version": 1
  },
  "userdoc": {
    "kind": "user",
    "methods": {},
    "version": 1
  }
}