{
  "contractName": "FoodiezHelpers",
  "abi": [
    {
      "inputs": [
        {
          "internalType": "uint256",
          "name": "_i",
          "type": "uint256"
        }
      ],
      "name": "uint2str",
      "outputs": [
        {
          "internalType": "string",
          "name": "_uintAsString",
          "type": "string"
        }
      ],
      "stateMutability": "pure",
      "type": "function",
      "constant": true
    },
    {
      "inputs": [
        {
          "internalType": "uint256",
          "name": "_amount",
          "type": "uint256"
        },
        {
          "internalType": "uint256",
          "name": "_networkServiceFee",
          "type": "uint256"
        }
      ],
      "name": "calcServiceFee",
      "outputs": [
        {
          "internalType": "uint256",
          "name": "",
          "type": "uint256"
        }
      ],
      "stateMutability": "pure",
      "type": "function",
      "constant": true
    },
    {
      "inputs": [
        {
          "internalType": "uint256",
          "name": "_amount",
          "type": "uint256"
        },
        {
          "internalType": "uint256",
          "name": "_driverFlatFee",
          "type": "uint256"
        }
      ],
      "name": "calcDriverFlatFee",
      "outputs": [
        {
          "internalType": "uint256",
          "name": "",
          "type": "uint256"
        }
      ],
      "stateMutability": "pure",
      "type": "function",
      "constant": true
    },
    {
      "inputs": [
        {
          "internalType": "uint256",
          "name": "oneStar",
          "type": "uint256"
        },
        {
          "internalType": "uint256",
          "name": "twoStar",
          "type": "uint256"
        },
        {
          "internalType": "uint256",
          "name": "threeStar",
          "type": "uint256"
        },
        {
          "internalType": "uint256",
          "name": "fourStar",
          "type": "uint256"
        },
        {
          "internalType": "uint256",
          "name": "fiveStar",
          "type": "uint256"
        }
      ],
      "name": "calcWeightedAvg",
      "outputs": [
        {
          "internalType": "uint256",
          "name": "",
          "type": "uint256"
        }
      ],
      "stateMutability": "pure",
      "type": "function",
      "constant": true
    }
  ],
  "bytecode": "0x608060405234801561001057600080fd5b50610813806100206000396000f3fe608060405234801561001057600080fd5b506004361061004c5760003560e01c8063221c9cfe1461005157806344a3878c1461008157806365609516146100b1578063f76f950e146100e1575b600080fd5b61006b6004803603810190610066919061040d565b610111565b604051610078919061052a565b60405180910390f35b61009b60048036038101906100969190610449565b610133565b6040516100a8919061052a565b60405180910390f35b6100cb60048036038101906100c6919061040d565b6101f1565b6040516100d8919061052a565b60405180910390f35b6100fb60048036038101906100f691906103e4565b610213565b6040516101089190610508565b60405180910390f35b60006064828461012191906105e8565b61012b91906105b7565b905092915050565b60008082600561014391906105e8565b84600461015091906105e8565b86600361015d91906105e8565b88600261016a91906105e8565b8a600161017791906105e8565b6101819190610561565b61018b9190610561565b6101959190610561565b61019f9190610561565b90506000838587898b6101b29190610561565b6101bc9190610561565b6101c69190610561565b6101d09190610561565b9050600081836101e091906105b7565b905080935050505095945050505050565b60006064828461020191906105e8565b61020b91906105b7565b905092915050565b6060600082141561025b576040518060400160405280600181526020017f300000000000000000000000000000000000000000000000000000000000000081525090506103ca565b600082905060005b6000821461028d578080610276906106dd565b915050600a8261028691906105b7565b9150610263565b60008167ffffffffffffffff8111156102cf577f4e487b7100000000000000000000000000000000000000000000000000000000600052604160045260246000fd5b6040519080825280601f01601f1916602001820160405280156103015781602001600182028036833780820191505090505b50905060006001836103139190610642565b90505b600086146103c257600a8661032b9190610726565b60306103379190610561565b60f81b828280610346906106b3565b93508151811061037f577f4e487b7100000000000000000000000000000000000000000000000000000000600052603260045260246000fd5b60200101907effffffffffffffffffffffffffffffffffffffffffffffffffffffffffffff1916908160001a905350600a866103bb91906105b7565b9550610316565b819450505050505b919050565b6000813590506103de816107c6565b92915050565b6000602082840312156103f657600080fd5b6000610404848285016103cf565b91505092915050565b6000806040838503121561042057600080fd5b600061042e858286016103cf565b925050602061043f858286016103cf565b9150509250929050565b600080600080600060a0868803121561046157600080fd5b600061046f888289016103cf565b9550506020610480888289016103cf565b9450506040610491888289016103cf565b93505060606104a2888289016103cf565b92505060806104b3888289016103cf565b9150509295509295909350565b60006104cb82610545565b6104d58185610550565b93506104e5818560208601610680565b6104ee816107b5565b840191505092915050565b61050281610676565b82525050565b6000602082019050818103600083015261052281846104c0565b905092915050565b600060208201905061053f60008301846104f9565b92915050565b600081519050919050565b600082825260208201905092915050565b600061056c82610676565b915061057783610676565b9250827fffffffffffffffffffffffffffffffffffffffffffffffffffffffffffffffff038211156105ac576105ab610757565b5b828201905092915050565b60006105c282610676565b91506105cd83610676565b9250826105dd576105dc610786565b5b828204905092915050565b60006105f382610676565b91506105fe83610676565b9250817fffffffffffffffffffffffffffffffffffffffffffffffffffffffffffffffff048311821515161561063757610636610757565b5b828202905092915050565b600061064d82610676565b915061065883610676565b92508282101561066b5761066a610757565b5b828203905092915050565b6000819050919050565b60005b8381101561069e578082015181840152602081019050610683565b838111156106ad576000848401525b50505050565b60006106be82610676565b915060008214156106d2576106d1610757565b5b600182039050919050565b60006106e882610676565b91507fffffffffffffffffffffffffffffffffffffffffffffffffffffffffffffffff82141561071b5761071a610757565b5b600182019050919050565b600061073182610676565b915061073c83610676565b92508261074c5761074b610786565b5b828206905092915050565b7f4e487b7100000000000000000000000000000000000000000000000000000000600052601160045260246000fd5b7f4e487b7100000000000000000000000000000000000000000000000000000000600052601260045260246000fd5b6000601f19601f8301169050919050565b6107cf81610676565b81146107da57600080fd5b5056fea2646970667358221220e4a9f2073b166ada5d8b3f686e4ab0232dd85c89e6d340410ebeb8b2917a4bbb64736f6c63430008010033",
  "immutableReferences": {},
  "source": "pragma solidity 0.8.1;\n// pragma solidity 0.7.6;\n// \"SPDX-License-Identifier: UNLICENSED\"\n\ncontract FoodiezHelpers{\n    \n    function uint2str(uint256 _i) public pure returns (string memory _uintAsString) {\n        if (_i == 0) {\n        return \"0\";\n        }\n        \n        uint256 j = _i;\n        uint256 len;\n        \n        while (j != 0) {\n            len++;\n            j /= 10;\n        }\n        bytes memory bstr = new bytes(len);\n        uint256 k = len - 1;\n        while (_i != 0) {\n            bstr[k--] = bytes1(uint8(48 + _i % 10));\n            _i /= 10;\n        }\n        return string(bstr);\n    }\n    \n    // functions to calculate service fee and driver fee\n    function calcServiceFee(uint _amount, uint _networkServiceFee) public pure returns(uint){\n        \n        // uint serviceFeePercentage = NetworkServiceFee /100;\n        \n        return (_amount * _networkServiceFee) / 100;\n        \n    }\n    \n    function calcDriverFlatFee(uint _amount, uint _driverFlatFee) public pure returns(uint){\n        \n        // uint driverFeePercentage = DriverFlatFee /100;\n        \n        return (_amount * _driverFlatFee) / 100;\n        \n    }\n    \n    function calcWeightedAvg(uint oneStar, uint twoStar, uint threeStar, uint fourStar, uint fiveStar) public pure returns (uint){\n        uint weightPerRating = 1*oneStar + 2*twoStar + 3*threeStar + 4*fourStar + 5*fiveStar;\n        uint totalRatingCount = oneStar + twoStar + threeStar + fourStar + fiveStar;\n        uint averageRating = weightPerRating / totalRatingCount;\n        \n        return averageRating;\n        \n    }\n}",
  "sourcePath": "/home/dinesh/Blockchain-Projects/EthereumSolidityProject/contracts/helpers.sol",
  "compiler": {
    "name": "solc",
    "version": "0.8.1+commit.df193b15.Emscripten.clang"
  },
  "schemaVersion": "3.3.3",
  "updatedAt": "2021-03-26T06:44:33.356Z",
  "networkType": "ethereum",
  "devdoc": {
    "kind": "dev",
    "methods": {},
    "version": 1
  },
  "userdoc": {
    "kind": "user",
    "methods": {},
    "version": 1
  }
}