{
  "contractName": "FoodiezOrders",
  "abi": [
    {
      "anonymous": false,
      "inputs": [
        {
          "indexed": false,
          "internalType": "uint256",
          "name": "value",
          "type": "uint256"
        },
        {
          "indexed": false,
          "internalType": "address",
          "name": "sender",
          "type": "address"
        }
      ],
      "name": "OrderAssignedToDriver",
      "type": "event"
    },
    {
      "anonymous": false,
      "inputs": [
        {
          "indexed": false,
          "internalType": "bytes",
          "name": "data",
          "type": "bytes"
        },
        {
          "indexed": false,
          "internalType": "address",
          "name": "sender",
          "type": "address"
        }
      ],
      "name": "OrderDeliveredToCustomer",
      "type": "event"
    },
    {
      "inputs": [],
      "name": "parentContractAddress",
      "outputs": [
        {
          "internalType": "address",
          "name": "",
          "type": "address"
        }
      ],
      "stateMutability": "view",
      "type": "function",
      "constant": true
    },
    {
      "inputs": [],
      "name": "registerContractAddress",
      "outputs": [
        {
          "internalType": "address",
          "name": "",
          "type": "address"
        }
      ],
      "stateMutability": "view",
      "type": "function",
      "constant": true
    },
    {
      "inputs": [
        {
          "internalType": "address",
          "name": "_address",
          "type": "address"
        }
      ],
      "name": "setParentContract",
      "outputs": [
        {
          "internalType": "string",
          "name": "",
          "type": "string"
        }
      ],
      "stateMutability": "nonpayable",
      "type": "function"
    },
    {
      "inputs": [
        {
          "internalType": "address",
          "name": "_address",
          "type": "address"
        }
      ],
      "name": "setRegisterContract",
      "outputs": [
        {
          "internalType": "string",
          "name": "",
          "type": "string"
        }
      ],
      "stateMutability": "nonpayable",
      "type": "function"
    },
    {
      "inputs": [
        {
          "internalType": "string",
          "name": "_uniqueOrderId",
          "type": "string"
        },
        {
          "internalType": "string",
          "name": "_rId",
          "type": "string"
        },
        {
          "internalType": "address",
          "name": "_restaurantAddress",
          "type": "address"
        },
        {
          "internalType": "address",
          "name": "_userAddress",
          "type": "address"
        },
        {
          "internalType": "string",
          "name": "_itemName",
          "type": "string"
        },
        {
          "internalType": "uint256",
          "name": "_total",
          "type": "uint256"
        }
      ],
      "name": "createFoodOrderEntry",
      "outputs": [
        {
          "internalType": "string",
          "name": "",
          "type": "string"
        },
        {
          "internalType": "string",
          "name": "",
          "type": "string"
        },
        {
          "internalType": "uint256",
          "name": "",
          "type": "uint256"
        },
        {
          "internalType": "string",
          "name": "",
          "type": "string"
        }
      ],
      "stateMutability": "payable",
      "type": "function",
      "payable": true
    },
    {
      "inputs": [
        {
          "internalType": "string",
          "name": "userOrderId",
          "type": "string"
        }
      ],
      "name": "getUserOrderStatus",
      "outputs": [
        {
          "internalType": "string",
          "name": "",
          "type": "string"
        },
        {
          "internalType": "address",
          "name": "",
          "type": "address"
        },
        {
          "internalType": "address",
          "name": "",
          "type": "address"
        },
        {
          "internalType": "string",
          "name": "",
          "type": "string"
        },
        {
          "internalType": "uint256",
          "name": "",
          "type": "uint256"
        },
        {
          "internalType": "string",
          "name": "",
          "type": "string"
        }
      ],
      "stateMutability": "view",
      "type": "function",
      "constant": true
    },
    {
      "inputs": [
        {
          "internalType": "address",
          "name": "_deliveryAddress",
          "type": "address"
        },
        {
          "internalType": "string",
          "name": "userOrderId",
          "type": "string"
        }
      ],
      "name": "assignOrderToDriver",
      "outputs": [
        {
          "internalType": "address",
          "name": "",
          "type": "address"
        },
        {
          "internalType": "string",
          "name": "",
          "type": "string"
        }
      ],
      "stateMutability": "nonpayable",
      "type": "function"
    },
    {
      "inputs": [
        {
          "internalType": "address",
          "name": "_deliveryAddress",
          "type": "address"
        },
        {
          "internalType": "string",
          "name": "userOrderId",
          "type": "string"
        }
      ],
      "name": "driverDelieveredOrder",
      "outputs": [
        {
          "internalType": "address",
          "name": "",
          "type": "address"
        },
        {
          "internalType": "string",
          "name": "",
          "type": "string"
        }
      ],
      "stateMutability": "nonpayable",
      "type": "function"
    },
    {
      "inputs": [
        {
          "internalType": "string",
          "name": "userOrderId",
          "type": "string"
        }
      ],
      "name": "orderDeliveryConfirmed",
      "outputs": [
        {
          "internalType": "address",
          "name": "",
          "type": "address"
        },
        {
          "internalType": "address",
          "name": "",
          "type": "address"
        },
        {
          "internalType": "address",
          "name": "",
          "type": "address"
        },
        {
          "internalType": "uint256",
          "name": "",
          "type": "uint256"
        }
      ],
      "stateMutability": "nonpayable",
      "type": "function"
    },
    {
      "inputs": [
        {
          "internalType": "string",
          "name": "_uniqueOrderId",
          "type": "string"
        },
        {
          "internalType": "uint256",
          "name": "tokenPay",
          "type": "uint256"
        }
      ],
      "name": "setTokenPayOrder",
      "outputs": [],
      "stateMutability": "nonpayable",
      "type": "function"
    },
    {
      "inputs": [
        {
          "internalType": "string",
          "name": "_uniqueOrderId",
          "type": "string"
        }
      ],
      "name": "getTokenPayOrder",
      "outputs": [
        {
          "internalType": "uint256",
          "name": "",
          "type": "uint256"
        }
      ],
      "stateMutability": "view",
      "type": "function",
      "constant": true
    }
  ],
  "bytecode": "0x60806040526000600160146101000a81548160ff0219169083151502179055506000600160156101000a81548160ff02191690831515021790555060006005556002600655600260075534801561005557600080fd5b506137bc806100656000396000f3fe60806040526004361061009c5760003560e01c80639b4708d1116100645780639b4708d114610a4c578063ae596d4e14610b1e578063b1a68ff214610b5f578063c25783f714610c92578063d182dbcd14610cd3578063e150a2e814610daf5761009c565b80634500901e146100a157806357c866691461042c578063748f9f12146105aa578063765ccb6b146107285780637ab8ae16146107f2575b600080fd5b6102d2600480360360c08110156100b757600080fd5b81019080803590602001906401000000008111156100d457600080fd5b8201836020820111156100e657600080fd5b8035906020019184600183028401116401000000008311171561010857600080fd5b91908080601f016020809104026020016040519081016040528093929190818152602001838380828437600081840152601f19601f8201169050808301925050505050505091929192908035906020019064010000000081111561016b57600080fd5b82018360208201111561017d57600080fd5b8035906020019184600183028401116401000000008311171561019f57600080fd5b91908080601f016020809104026020016040519081016040528093929190818152602001838380828437600081840152601f19601f820116905080830192505050505050509192919290803573ffffffffffffffffffffffffffffffffffffffff169060200190929190803573ffffffffffffffffffffffffffffffffffffffff1690602001909291908035906020019064010000000081111561024257600080fd5b82018360208201111561025457600080fd5b8035906020019184600183028401116401000000008311171561027657600080fd5b91908080601f016020809104026020016040519081016040528093929190818152602001838380828437600081840152601f19601f82011690508083019250505050505050919291929080359060200190929190505050610e79565b60405180806020018060200185815260200180602001848103845288818151815260200191508051906020019080838360005b83811015610320578082015181840152602081019050610305565b50505050905090810190601f16801561034d5780820380516001836020036101000a031916815260200191505b50848103835287818151815260200191508051906020019080838360005b8381101561038657808201518184015260208101905061036b565b50505050905090810190601f1680156103b35780820380516001836020036101000a031916815260200191505b50848103825285818151815260200191508051906020019080838360005b838110156103ec5780820151818401526020810190506103d1565b50505050905090810190601f1680156104195780820380516001836020036101000a031916815260200191505b5097505050505050505060405180910390f35b34801561043857600080fd5b506105126004803603604081101561044f57600080fd5b81019080803573ffffffffffffffffffffffffffffffffffffffff1690602001909291908035906020019064010000000081111561048c57600080fd5b82018360208201111561049e57600080fd5b803590602001918460018302840111640100000000831117156104c057600080fd5b91908080601f016020809104026020016040519081016040528093929190818152602001838380828437600081840152601f19601f820116905080830192505050505050509192919290505050611211565b604051808373ffffffffffffffffffffffffffffffffffffffff16815260200180602001828103825283818151815260200191508051906020019080838360005b8381101561056e578082015181840152602081019050610553565b50505050905090810190601f16801561059b5780820380516001836020036101000a031916815260200191505b50935050505060405180910390f35b3480156105b657600080fd5b50610690600480360360408110156105cd57600080fd5b81019080803573ffffffffffffffffffffffffffffffffffffffff1690602001909291908035906020019064010000000081111561060a57600080fd5b82018360208201111561061c57600080fd5b8035906020019184600183028401116401000000008311171561063e57600080fd5b91908080601f016020809104026020016040519081016040528093929190818152602001838380828437600081840152601f19601f820116905080830192505050505050509192919290505050611b4c565b604051808373ffffffffffffffffffffffffffffffffffffffff16815260200180602001828103825283818151815260200191508051906020019080838360005b838110156106ec5780820151818401526020810190506106d1565b50505050905090810190601f1680156107195780820380516001836020036101000a031916815260200191505b50935050505060405180910390f35b34801561073457600080fd5b506107776004803603602081101561074b57600080fd5b81019080803573ffffffffffffffffffffffffffffffffffffffff1690602001909291905050506123a9565b6040518080602001828103825283818151815260200191508051906020019080838360005b838110156107b757808201518184015260208101905061079c565b50505050905090810190601f1680156107e45780820380516001836020036101000a031916815260200191505b509250505060405180910390f35b3480156107fe57600080fd5b506108b86004803603602081101561081557600080fd5b810190808035906020019064010000000081111561083257600080fd5b82018360208201111561084457600080fd5b8035906020019184600183028401116401000000008311171561086657600080fd5b91908080601f016020809104026020016040519081016040528093929190818152602001838380828437600081840152601f19601f820116905080830192505050505050509192919290505050612491565b60405180806020018773ffffffffffffffffffffffffffffffffffffffff1681526020018673ffffffffffffffffffffffffffffffffffffffff168152602001806020018581526020018060200184810384528a818151815260200191508051906020019080838360005b8381101561093e578082015181840152602081019050610923565b50505050905090810190601f16801561096b5780820380516001836020036101000a031916815260200191505b50848103835287818151815260200191508051906020019080838360005b838110156109a4578082015181840152602081019050610989565b50505050905090810190601f1680156109d15780820380516001836020036101000a031916815260200191505b50848103825285818151815260200191508051906020019080838360005b83811015610a0a5780820151818401526020810190506109ef565b50505050905090810190601f168015610a375780820380516001836020036101000a031916815260200191505b50995050505050505050505060405180910390f35b348015610a5857600080fd5b50610b1c60048036036040811015610a6f57600080fd5b8101908080359060200190640100000000811115610a8c57600080fd5b820183602082011115610a9e57600080fd5b80359060200191846001830284011164010000000083111715610ac057600080fd5b91908080601f016020809104026020016040519081016040528093929190818152602001838380828437600081840152601f19601f82011690508083019250505050505050919291929080359060200190929190505050612977565b005b348015610b2a57600080fd5b50610b33612ae5565b604051808273ffffffffffffffffffffffffffffffffffffffff16815260200191505060405180910390f35b348015610b6b57600080fd5b50610c2560048036036020811015610b8257600080fd5b8101908080359060200190640100000000811115610b9f57600080fd5b820183602082011115610bb157600080fd5b80359060200191846001830284011164010000000083111715610bd357600080fd5b91908080601f016020809104026020016040519081016040528093929190818152602001838380828437600081840152601f19601f820116905080830192505050505050509192919290505050612b09565b604051808573ffffffffffffffffffffffffffffffffffffffff1681526020018473ffffffffffffffffffffffffffffffffffffffff1681526020018373ffffffffffffffffffffffffffffffffffffffff16815260200182815260200194505050505060405180910390f35b348015610c9e57600080fd5b50610ca76131c0565b604051808273ffffffffffffffffffffffffffffffffffffffff16815260200191505060405180910390f35b348015610cdf57600080fd5b50610d9960048036036020811015610cf657600080fd5b8101908080359060200190640100000000811115610d1357600080fd5b820183602082011115610d2557600080fd5b80359060200191846001830284011164010000000083111715610d4757600080fd5b91908080601f016020809104026020016040519081016040528093929190818152602001838380828437600081840152601f19601f8201169050808301925050505050505091929192905050506131e6565b6040518082815260200191505060405180910390f35b348015610dbb57600080fd5b50610dfe60048036036020811015610dd257600080fd5b81019080803573ffffffffffffffffffffffffffffffffffffffff16906020019092919050505061335c565b6040518080602001828103825283818151815260200191508051906020019080838360005b83811015610e3e578082015181840152602081019050610e23565b50505050905090810190601f168015610e6b5780820380516001836020036101000a031916815260200191505b509250505060405180910390f35b6060806000606060008054906101000a900473ffffffffffffffffffffffffffffffffffffffff1673ffffffffffffffffffffffffffffffffffffffff163373ffffffffffffffffffffffffffffffffffffffff161480610f275750600160009054906101000a900473ffffffffffffffffffffffffffffffffffffffff1673ffffffffffffffffffffffffffffffffffffffff163373ffffffffffffffffffffffffffffffffffffffff16145b610f7c576040517f08c379a00000000000000000000000000000000000000000000000000000000081526004018080602001828103825260218152602001806137666021913960400191505060405180910390fd5b60006040518061010001604052808c81526020018b81526020018a73ffffffffffffffffffffffffffffffffffffffff1681526020018973ffffffffffffffffffffffffffffffffffffffff168152602001600073ffffffffffffffffffffffffffffffffffffffff1681526020018881526020018781526020016000600381111561100457fe5b600381111561100f57fe5b81525090508060028c6040518082805190602001908083835b6020831061104b5780518252602082019150602081019050602083039250611028565b6001836020036101000a0380198251168184511680821785525050505050509050019150509081526020016040518091039020600082015181600001908051906020019061109a9291906135f4565b5060208201518160010190805190602001906110b79291906135f4565b5060408201518160020160006101000a81548173ffffffffffffffffffffffffffffffffffffffff021916908373ffffffffffffffffffffffffffffffffffffffff16021790555060608201518160030160006101000a81548173ffffffffffffffffffffffffffffffffffffffff021916908373ffffffffffffffffffffffffffffffffffffffff16021790555060808201518160040160006101000a81548173ffffffffffffffffffffffffffffffffffffffff021916908373ffffffffffffffffffffffffffffffffffffffff16021790555060a08201518160050190805190602001906111a99291906135f4565b5060c0820151816006015560e08201518160070160006101000a81548160ff021916908360038111156111d857fe5b02179055509050508a87876111fb8460e0015160038111156111f657fe5b613445565b9450945094509450509650965096509692505050565b6000606060008054906101000a900473ffffffffffffffffffffffffffffffffffffffff1673ffffffffffffffffffffffffffffffffffffffff163373ffffffffffffffffffffffffffffffffffffffff1614806112bc5750600160009054906101000a900473ffffffffffffffffffffffffffffffffffffffff1673ffffffffffffffffffffffffffffffffffffffff163373ffffffffffffffffffffffffffffffffffffffff16145b611311576040517f08c379a00000000000000000000000000000000000000000000000000000000081526004018080602001828103825260218152602001806137666021913960400191505060405180910390fd5b60006002846040518082805190602001908083835b602083106113495780518252602082019150602081019050602083039250611326565b6001836020036101000a038019825116818451168082178552505050505050905001915050908152602001604051809103902060405180610100016040529081600082018054600181600116156101000203166002900480601f0160208091040260200160405190810160405280929190818152602001828054600181600116156101000203166002900480156114215780601f106113f657610100808354040283529160200191611421565b820191906000526020600020905b81548152906001019060200180831161140457829003601f168201915b50505050508152602001600182018054600181600116156101000203166002900480601f0160208091040260200160405190810160405280929190818152602001828054600181600116156101000203166002900480156114c35780601f10611498576101008083540402835291602001916114c3565b820191906000526020600020905b8154815290600101906020018083116114a657829003601f168201915b505050505081526020016002820160009054906101000a900473ffffffffffffffffffffffffffffffffffffffff1673ffffffffffffffffffffffffffffffffffffffff1673ffffffffffffffffffffffffffffffffffffffff1681526020016003820160009054906101000a900473ffffffffffffffffffffffffffffffffffffffff1673ffffffffffffffffffffffffffffffffffffffff1673ffffffffffffffffffffffffffffffffffffffff1681526020016004820160009054906101000a900473ffffffffffffffffffffffffffffffffffffffff1673ffffffffffffffffffffffffffffffffffffffff1673ffffffffffffffffffffffffffffffffffffffff168152602001600582018054600181600116156101000203166002900480601f0160208091040260200160405190810160405280929190818152602001828054600181600116156101000203166002900480156116675780601f1061163c57610100808354040283529160200191611667565b820191906000526020600020905b81548152906001019060200180831161164a57829003601f168201915b50505050508152602001600682015481526020016007820160009054906101000a900460ff16600381111561169857fe5b60038111156116a357fe5b815250509050600073ffffffffffffffffffffffffffffffffffffffff16816080015173ffffffffffffffffffffffffffffffffffffffff161461174f576040517f08c379a00000000000000000000000000000000000000000000000000000000081526004018080602001828103825260198152602001807f4f7264657220697320616c72656164792061737369676e65640000000000000081525060200191505060405180910390fd5b84816080019073ffffffffffffffffffffffffffffffffffffffff16908173ffffffffffffffffffffffffffffffffffffffff16815250506001600381111561179457fe5b8160e0019060038111156117a457fe5b908160038111156117b157fe5b81525050806002856040518082805190602001908083835b602083106117ec57805182526020820191506020810190506020830392506117c9565b6001836020036101000a0380198251168184511680821785525050505050509050019150509081526020016040518091039020600082015181600001908051906020019061183b9291906135f4565b5060208201518160010190805190602001906118589291906135f4565b5060408201518160020160006101000a81548173ffffffffffffffffffffffffffffffffffffffff021916908373ffffffffffffffffffffffffffffffffffffffff16021790555060608201518160030160006101000a81548173ffffffffffffffffffffffffffffffffffffffff021916908373ffffffffffffffffffffffffffffffffffffffff16021790555060808201518160040160006101000a81548173ffffffffffffffffffffffffffffffffffffffff021916908373ffffffffffffffffffffffffffffffffffffffff16021790555060a082015181600501908051906020019061194a9291906135f4565b5060c0820151816006015560e08201518160070160006101000a81548160ff0219169083600381111561197957fe5b021790555090505080600360008773ffffffffffffffffffffffffffffffffffffffff1673ffffffffffffffffffffffffffffffffffffffff16815260200190815260200160002060008201518160000190805190602001906119dd9291906135f4565b5060208201518160010190805190602001906119fa9291906135f4565b5060408201518160020160006101000a81548173ffffffffffffffffffffffffffffffffffffffff021916908373ffffffffffffffffffffffffffffffffffffffff16021790555060608201518160030160006101000a81548173ffffffffffffffffffffffffffffffffffffffff021916908373ffffffffffffffffffffffffffffffffffffffff16021790555060808201518160040160006101000a81548173ffffffffffffffffffffffffffffffffffffffff021916908373ffffffffffffffffffffffffffffffffffffffff16021790555060a0820151816005019080519060200190611aec9291906135f4565b5060c0820151816006015560e08201518160070160006101000a81548160ff02191690836003811115611b1b57fe5b02179055509050508060800151611b408260e001516003811115611b3b57fe5b613445565b92509250509250929050565b6000606060008054906101000a900473ffffffffffffffffffffffffffffffffffffffff1673ffffffffffffffffffffffffffffffffffffffff163373ffffffffffffffffffffffffffffffffffffffff161480611bf75750600160009054906101000a900473ffffffffffffffffffffffffffffffffffffffff1673ffffffffffffffffffffffffffffffffffffffff163373ffffffffffffffffffffffffffffffffffffffff16145b611c4c576040517f08c379a00000000000000000000000000000000000000000000000000000000081526004018080602001828103825260218152602001806137666021913960400191505060405180910390fd5b60006002846040518082805190602001908083835b60208310611c845780518252602082019150602081019050602083039250611c61565b6001836020036101000a038019825116818451168082178552505050505050905001915050908152602001604051809103902060405180610100016040529081600082018054600181600116156101000203166002900480601f016020809104026020016040519081016040528092919081815260200182805460018160011615610100020316600290048015611d5c5780601f10611d3157610100808354040283529160200191611d5c565b820191906000526020600020905b815481529060010190602001808311611d3f57829003601f168201915b50505050508152602001600182018054600181600116156101000203166002900480601f016020809104026020016040519081016040528092919081815260200182805460018160011615610100020316600290048015611dfe5780601f10611dd357610100808354040283529160200191611dfe565b820191906000526020600020905b815481529060010190602001808311611de157829003601f168201915b505050505081526020016002820160009054906101000a900473ffffffffffffffffffffffffffffffffffffffff1673ffffffffffffffffffffffffffffffffffffffff1673ffffffffffffffffffffffffffffffffffffffff1681526020016003820160009054906101000a900473ffffffffffffffffffffffffffffffffffffffff1673ffffffffffffffffffffffffffffffffffffffff1673ffffffffffffffffffffffffffffffffffffffff1681526020016004820160009054906101000a900473ffffffffffffffffffffffffffffffffffffffff1673ffffffffffffffffffffffffffffffffffffffff1673ffffffffffffffffffffffffffffffffffffffff168152602001600582018054600181600116156101000203166002900480601f016020809104026020016040519081016040528092919081815260200182805460018160011615610100020316600290048015611fa25780601f10611f7757610100808354040283529160200191611fa2565b820191906000526020600020905b815481529060010190602001808311611f8557829003601f168201915b50505050508152602001600682015481526020016007820160009054906101000a900460ff166003811115611fd357fe5b6003811115611fde57fe5b81525050905060026003811115611ff157fe5b8160e00190600381111561200157fe5b9081600381111561200e57fe5b81525050806002856040518082805190602001908083835b602083106120495780518252602082019150602081019050602083039250612026565b6001836020036101000a038019825116818451168082178552505050505050905001915050908152602001604051809103902060008201518160000190805190602001906120989291906135f4565b5060208201518160010190805190602001906120b59291906135f4565b5060408201518160020160006101000a81548173ffffffffffffffffffffffffffffffffffffffff021916908373ffffffffffffffffffffffffffffffffffffffff16021790555060608201518160030160006101000a81548173ffffffffffffffffffffffffffffffffffffffff021916908373ffffffffffffffffffffffffffffffffffffffff16021790555060808201518160040160006101000a81548173ffffffffffffffffffffffffffffffffffffffff021916908373ffffffffffffffffffffffffffffffffffffffff16021790555060a08201518160050190805190602001906121a79291906135f4565b5060c0820151816006015560e08201518160070160006101000a81548160ff021916908360038111156121d657fe5b021790555090505080600360008773ffffffffffffffffffffffffffffffffffffffff1673ffffffffffffffffffffffffffffffffffffffff168152602001908152602001600020600082015181600001908051906020019061223a9291906135f4565b5060208201518160010190805190602001906122579291906135f4565b5060408201518160020160006101000a81548173ffffffffffffffffffffffffffffffffffffffff021916908373ffffffffffffffffffffffffffffffffffffffff16021790555060608201518160030160006101000a81548173ffffffffffffffffffffffffffffffffffffffff021916908373ffffffffffffffffffffffffffffffffffffffff16021790555060808201518160040160006101000a81548173ffffffffffffffffffffffffffffffffffffffff021916908373ffffffffffffffffffffffffffffffffffffffff16021790555060a08201518160050190805190602001906123499291906135f4565b5060c0820151816006015560e08201518160070160006101000a81548160ff0219169083600381111561237857fe5b0217905550905050806080015161239d8260e00151600381111561239857fe5b613445565b92509250509250929050565b606060001515600160149054906101000a900460ff16151514612417576040517f08c379a00000000000000000000000000000000000000000000000000000000081526004018080602001828103825260368152602001806137306036913960400191505060405180910390fd5b816000806101000a81548173ffffffffffffffffffffffffffffffffffffffff021916908373ffffffffffffffffffffffffffffffffffffffff16021790555060018060146101000a81548160ff0219169083151502179055506040518060600160405280602b81526020016136a0602b91399050919050565b606060008060606000606060008054906101000a900473ffffffffffffffffffffffffffffffffffffffff1673ffffffffffffffffffffffffffffffffffffffff163373ffffffffffffffffffffffffffffffffffffffff1614806125435750600160009054906101000a900473ffffffffffffffffffffffffffffffffffffffff1673ffffffffffffffffffffffffffffffffffffffff163373ffffffffffffffffffffffffffffffffffffffff16145b612598576040517f08c379a00000000000000000000000000000000000000000000000000000000081526004018080602001828103825260218152602001806137666021913960400191505060405180910390fd5b60006002886040518082805190602001908083835b602083106125d057805182526020820191506020810190506020830392506125ad565b6001836020036101000a038019825116818451168082178552505050505050905001915050908152602001604051809103902060405180610100016040529081600082018054600181600116156101000203166002900480601f0160208091040260200160405190810160405280929190818152602001828054600181600116156101000203166002900480156126a85780601f1061267d576101008083540402835291602001916126a8565b820191906000526020600020905b81548152906001019060200180831161268b57829003601f168201915b50505050508152602001600182018054600181600116156101000203166002900480601f01602080910402602001604051908101604052809291908181526020018280546001816001161561010002031660029004801561274a5780601f1061271f5761010080835404028352916020019161274a565b820191906000526020600020905b81548152906001019060200180831161272d57829003601f168201915b505050505081526020016002820160009054906101000a900473ffffffffffffffffffffffffffffffffffffffff1673ffffffffffffffffffffffffffffffffffffffff1673ffffffffffffffffffffffffffffffffffffffff1681526020016003820160009054906101000a900473ffffffffffffffffffffffffffffffffffffffff1673ffffffffffffffffffffffffffffffffffffffff1673ffffffffffffffffffffffffffffffffffffffff1681526020016004820160009054906101000a900473ffffffffffffffffffffffffffffffffffffffff1673ffffffffffffffffffffffffffffffffffffffff1673ffffffffffffffffffffffffffffffffffffffff168152602001600582018054600181600116156101000203166002900480601f0160208091040260200160405190810160405280929190818152602001828054600181600116156101000203166002900480156128ee5780601f106128c3576101008083540402835291602001916128ee565b820191906000526020600020905b8154815290600101906020018083116128d157829003601f168201915b50505050508152602001600682015481526020016007820160009054906101000a900460ff16600381111561291f57fe5b600381111561292a57fe5b8152505090508060000151816060015182608001518360a001518460c001516129618660e00151600381111561295c57fe5b613445565b9650965096509650965096505091939550919395565b60008054906101000a900473ffffffffffffffffffffffffffffffffffffffff1673ffffffffffffffffffffffffffffffffffffffff163373ffffffffffffffffffffffffffffffffffffffff161480612a1e5750600160009054906101000a900473ffffffffffffffffffffffffffffffffffffffff1673ffffffffffffffffffffffffffffffffffffffff163373ffffffffffffffffffffffffffffffffffffffff16145b612a73576040517f08c379a00000000000000000000000000000000000000000000000000000000081526004018080602001828103825260218152602001806137666021913960400191505060405180910390fd5b806004836040518082805190602001908083835b60208310612aaa5780518252602082019150602081019050602083039250612a87565b6001836020036101000a0380198251168184511680821785525050505050509050019150509081526020016040518091039020819055505050565b60008054906101000a900473ffffffffffffffffffffffffffffffffffffffff1681565b60008060008060008054906101000a900473ffffffffffffffffffffffffffffffffffffffff1673ffffffffffffffffffffffffffffffffffffffff163373ffffffffffffffffffffffffffffffffffffffff161480612bb65750600160009054906101000a900473ffffffffffffffffffffffffffffffffffffffff1673ffffffffffffffffffffffffffffffffffffffff163373ffffffffffffffffffffffffffffffffffffffff16145b612c0b576040517f08c379a00000000000000000000000000000000000000000000000000000000081526004018080602001828103825260218152602001806137666021913960400191505060405180910390fd5b60006002866040518082805190602001908083835b60208310612c435780518252602082019150602081019050602083039250612c20565b6001836020036101000a038019825116818451168082178552505050505050905001915050908152602001604051809103902060405180610100016040529081600082018054600181600116156101000203166002900480601f016020809104026020016040519081016040528092919081815260200182805460018160011615610100020316600290048015612d1b5780601f10612cf057610100808354040283529160200191612d1b565b820191906000526020600020905b815481529060010190602001808311612cfe57829003601f168201915b50505050508152602001600182018054600181600116156101000203166002900480601f016020809104026020016040519081016040528092919081815260200182805460018160011615610100020316600290048015612dbd5780601f10612d9257610100808354040283529160200191612dbd565b820191906000526020600020905b815481529060010190602001808311612da057829003601f168201915b505050505081526020016002820160009054906101000a900473ffffffffffffffffffffffffffffffffffffffff1673ffffffffffffffffffffffffffffffffffffffff1673ffffffffffffffffffffffffffffffffffffffff1681526020016003820160009054906101000a900473ffffffffffffffffffffffffffffffffffffffff1673ffffffffffffffffffffffffffffffffffffffff1673ffffffffffffffffffffffffffffffffffffffff1681526020016004820160009054906101000a900473ffffffffffffffffffffffffffffffffffffffff1673ffffffffffffffffffffffffffffffffffffffff1673ffffffffffffffffffffffffffffffffffffffff168152602001600582018054600181600116156101000203166002900480601f016020809104026020016040519081016040528092919081815260200182805460018160011615610100020316600290048015612f615780601f10612f3657610100808354040283529160200191612f61565b820191906000526020600020905b815481529060010190602001808311612f4457829003601f168201915b50505050508152602001600682015481526020016007820160009054906101000a900460ff166003811115612f9257fe5b6003811115612f9d57fe5b815250509050600380811115612faf57fe5b8160e001906003811115612fbf57fe5b90816003811115612fcc57fe5b81525050806002876040518082805190602001908083835b602083106130075780518252602082019150602081019050602083039250612fe4565b6001836020036101000a038019825116818451168082178552505050505050905001915050908152602001604051809103902060008201518160000190805190602001906130569291906135f4565b5060208201518160010190805190602001906130739291906135f4565b5060408201518160020160006101000a81548173ffffffffffffffffffffffffffffffffffffffff021916908373ffffffffffffffffffffffffffffffffffffffff16021790555060608201518160030160006101000a81548173ffffffffffffffffffffffffffffffffffffffff021916908373ffffffffffffffffffffffffffffffffffffffff16021790555060808201518160040160006101000a81548173ffffffffffffffffffffffffffffffffffffffff021916908373ffffffffffffffffffffffffffffffffffffffff16021790555060a08201518160050190805190602001906131659291906135f4565b5060c0820151816006015560e08201518160070160006101000a81548160ff0219169083600381111561319457fe5b02179055509050508060400151816080015182606001518360c001519450945094509450509193509193565b600160009054906101000a900473ffffffffffffffffffffffffffffffffffffffff1681565b60008060009054906101000a900473ffffffffffffffffffffffffffffffffffffffff1673ffffffffffffffffffffffffffffffffffffffff163373ffffffffffffffffffffffffffffffffffffffff1614806132905750600160009054906101000a900473ffffffffffffffffffffffffffffffffffffffff1673ffffffffffffffffffffffffffffffffffffffff163373ffffffffffffffffffffffffffffffffffffffff16145b6132e5576040517f08c379a00000000000000000000000000000000000000000000000000000000081526004018080602001828103825260218152602001806137666021913960400191505060405180910390fd5b60006004836040518082805190602001908083835b6020831061331d57805182526020820191506020810190506020830392506132fa565b6001836020036101000a038019825116818451168082178552505050505050905001915050908152602001604051809103902054905080915050919050565b606060001515600160159054906101000a900460ff161515146133ca576040517f08c379a00000000000000000000000000000000000000000000000000000000081526004018080602001828103825260388152602001806136f86038913960400191505060405180910390fd5b81600160006101000a81548173ffffffffffffffffffffffffffffffffffffffff021916908373ffffffffffffffffffffffffffffffffffffffff16021790555060018060156101000a81548160ff0219169083151502179055506040518060600160405280602d81526020016136cb602d91399050919050565b60608160ff16600381111561345657fe5b600381111561346157fe5b6000600381111561346e57fe5b14156134b1576040518060400160405280600781526020017f4f7264657265640000000000000000000000000000000000000000000000000081525090506135ef565b8160ff1660038111156134c057fe5b60038111156134cb57fe5b600160038111156134d857fe5b141561351b576040518060400160405280600981526020017f496e5472616e736974000000000000000000000000000000000000000000000081525090506135ef565b8160ff16600381111561352a57fe5b600381111561353557fe5b6002600381111561354257fe5b1415613585576040518060400160405280600981526020017f44656c697665726564000000000000000000000000000000000000000000000081525090506135ef565b8160ff16600381111561359457fe5b600381111561359f57fe5b6003808111156135ab57fe5b14156135ee576040518060400160405280600981526020017f436f6d706c65746564000000000000000000000000000000000000000000000081525090506135ef565b5b919050565b828054600181600116156101000203166002900490600052602060002090601f01602090048101928261362a5760008555613671565b82601f1061364357805160ff1916838001178555613671565b82800160010185558215613671579182015b82811115613670578251825591602001919060010190613655565b5b50905061367e9190613682565b5090565b5b8082111561369b576000816000905550600101613683565b509056fe466f6f6469657a204f726465727320706172656e7420636f6e74726163742061646472657373207365742e466f6f6469657a204f726465727320726567697374657220636f6e74726163742061646472657373207365742e466f6f6469657a204f7264657273202d20526567697374657220616c7265616479207365742e2043616e6e6f74206265204368616e676564466f6f6469657a204f7264657273202d20506172656e7420616c7265616479207365742e2043616e6e6f74206265204368616e6765644f6e6c79204f776e65722063616e2063616c6c20746869732066756e6374696f6ea2646970667358221220d3638c027d5ea63f86cd61c8dbe2a2244198ca8db8972712b86dda751176588664736f6c63430007060033",
  "immutableReferences": {},
  "source": "pragma solidity 0.7.6;\n// \"SPDX-License-Identifier: UNLICENSED\"\n\ncontract FoodiezOrders {\n    \n    /************************ Unique Address to be used for Customer, Restaurant and Delivery Driver******************/\n    address public parentContractAddress;\n    address public registerContractAddress;\n    bool isParentContractSet = false;\n    bool isRegisterContract = false;\n    \n    function setParentContract(address _address) public returns(string memory) {\n        require(isParentContractSet == false,\"Foodiez Orders - Parent already set. Cannot be Changed\");\n        parentContractAddress = _address;\n        isParentContractSet = true;\n        \n        return(\"Foodiez Orders parent contract address set.\");\n    }\n    \n    function setRegisterContract(address _address) public returns(string memory) {\n        require(isRegisterContract == false,\"Foodiez Orders - Register already set. Cannot be Changed\");\n        registerContractAddress = _address;\n        isRegisterContract = true;\n        \n        return(\"Foodiez Orders register contract address set.\");\n    }\n    \n    modifier OnlyParent(){\n        require(msg.sender == parentContractAddress || msg.sender == registerContractAddress, \"Only Owner can call this function\");\n        _; // this underscore is requierd otherwise compiler will break;\n    }\n     \n     //Account creation all users will have default 0 tokens. \n     // Customer will earn token by making puchases\n     //Drivers will earn tokens in the form of tips ( from customers ) or by refering new drivers\n     \n     enum OrderStatus {Ordered, InTransit, Delivered, Completed}\n     \n     struct Order{\n         string orderId;\n         string restaurantId;\n         address restaurantAddress;\n         address userAddress;\n         address driverAddress;\n         string items;\n         uint total;\n         OrderStatus status;\n     }\n     \n     mapping(string => Order) UserOrders; // unique user order id to order.\n     mapping(address => Order) DriverOrderAssignment; // order assigned to driver. \n     mapping(string => uint256) OrderIdTokenPay;\n     \n     uint256 orderTotalCount = 0;\n     \n     uint NetworkServiceFee = 2;\n     uint DriverFlatFee = 2;\n     \n     \n     /*******Events *************/\n     event OrderAssignedToDriver(uint value, address sender);\n     event OrderDeliveredToCustomer(bytes data, address sender);\n     \n    /**************************User Food Orders***************************************************************************************************************************************/\n    function createFoodOrderEntry( string memory _uniqueOrderId, string memory _rId, address _restaurantAddress, address _userAddress, string memory _itemName, uint _total) \n    public payable OnlyParent returns(string memory, string memory, uint256, string memory) {\n        \n        Order memory order = Order(_uniqueOrderId, _rId, _restaurantAddress, _userAddress,address(0x0), _itemName, _total, OrderStatus(0));\n        UserOrders[_uniqueOrderId] = order;\n        \n        return( _uniqueOrderId, _itemName, _total, getOrderStatusFriendly(uint8(order.status)) );\n        \n    }\n    \n    function getUserOrderStatus(string memory userOrderId) public view OnlyParent returns(string memory, address, address, string memory, uint256, string memory){\n        Order memory order = UserOrders[userOrderId];\n        \n        return (order.orderId, order.userAddress, order.driverAddress, order.items, order.total, getOrderStatusFriendly(uint8(order.status)));\n    }\n     \n     \n     /**************************Food Orders assignment and delivery*******************************************************************/\n    function assignOrderToDriver(address _deliveryAddress, string memory userOrderId) public OnlyParent returns (address, string memory){\n         //check user order to see if driverAddress is set already\n         Order memory order = UserOrders[userOrderId];\n         require(order.driverAddress == address(0x0), \"Order is already assigned\");\n         \n         order.driverAddress = _deliveryAddress;\n         order.status = OrderStatus(1);\n         UserOrders[userOrderId] = order;\n         DriverOrderAssignment[_deliveryAddress] = order;\n         // stake token so that driver cant cheat the customer\n         \n         return(order.driverAddress, getOrderStatusFriendly(uint8(order.status)) );\n         \n    }\n     \n    function driverDelieveredOrder(address _deliveryAddress, string memory userOrderId) public OnlyParent returns (address, string memory){\n\n         Order memory order = UserOrders[userOrderId];\n         order.status = OrderStatus(2);\n         UserOrders[userOrderId] = order;\n         \n         DriverOrderAssignment[_deliveryAddress] = order;\n         \n         return(order.driverAddress, getOrderStatusFriendly(uint8(order.status)) );\n    }\n     \n    function orderDeliveryConfirmed(string memory userOrderId ) public  OnlyParent returns (address, address, address, uint ){\n        Order memory order = UserOrders[userOrderId];\n        order.status = OrderStatus(3);\n        UserOrders[userOrderId] = order;\n        \n    \n    return (payable(order.restaurantAddress), payable(order.driverAddress), payable(order.userAddress), order.total );\n    \n    //  orderPayments(order.total , payable(order.restaurantAddress), payable(order.driverAddress), msg.value, order.restaurantId, _restaurantRating);\n    }\n     \n    /*************************************Order Helpers ************************************************************************/\n    function getOrderStatusFriendly(uint8 _orderStatus) internal pure returns (string memory) {\n        \n        if(OrderStatus.Ordered == OrderStatus(_orderStatus) ) return \"Ordered\";\n        if(OrderStatus.InTransit == OrderStatus(_orderStatus) ) return \"InTransit\";\n        if(OrderStatus.Delivered == OrderStatus(_orderStatus) ) return \"Delivered\";\n        if(OrderStatus.Completed == OrderStatus(_orderStatus) ) return \"Completed\";\n    }\n    \n    function setTokenPayOrder(string memory _uniqueOrderId, uint256 tokenPay) public OnlyParent {\n        OrderIdTokenPay[_uniqueOrderId] = tokenPay;\n    }\n    \n    function getTokenPayOrder(string memory _uniqueOrderId) public view OnlyParent returns(uint256){\n        uint256 tokenPay = OrderIdTokenPay[_uniqueOrderId];\n        return tokenPay;\n    }\n    \n}",
  "sourcePath": "/home/dinesh/Blockchain-Projects/Foodiez-Project/contracts/orders.sol",
  "compiler": {
    "name": "solc",
    "version": "0.7.6+commit.7338295f.Emscripten.clang"
  },
  "schemaVersion": "3.3.3",
  "updatedAt": "2021-03-23T17:16:04.651Z",
  "networkType": "ethereum",
  "devdoc": {
    "kind": "dev",
    "methods": {},
    "version": 1
  },
  "userdoc": {
    "kind": "user",
    "methods": {},
    "version": 1
  }
}